{
  "abi": [
    {
      "anonymous": false,
      "inputs": [
        {
          "indexed": false,
          "internalType": "uint8",
          "name": "version",
          "type": "uint8"
        }
      ],
      "name": "Initialized",
      "type": "event"
    },
    {
      "inputs": [],
      "name": "claimRewards",
      "outputs": [
        {
          "internalType": "uint256",
          "name": "",
          "type": "uint256"
        }
      ],
      "stateMutability": "nonpayable",
      "type": "function"
    },
    {
      "inputs": [
        {
          "internalType": "address",
          "name": "ref",
          "type": "address"
        },
        {
          "internalType": "address",
          "name": "token",
          "type": "address"
        }
      ],
      "name": "initialize",
      "outputs": [],
      "stateMutability": "nonpayable",
      "type": "function"
    },
    {
      "inputs": [
        {
          "internalType": "address",
          "name": "",
          "type": "address"
        }
      ],
      "name": "lastClaimedPoints",
      "outputs": [
        {
          "internalType": "uint256",
          "name": "",
          "type": "uint256"
        }
      ],
      "stateMutability": "view",
      "type": "function"
    },
    {
      "inputs": [
        {
          "internalType": "address",
          "name": "",
          "type": "address"
        }
      ],
      "name": "lastRecordedPoints",
      "outputs": [
        {
          "internalType": "uint256",
          "name": "",
          "type": "uint256"
        }
      ],
      "stateMutability": "view",
      "type": "function"
    },
    {
      "inputs": [],
      "name": "owner",
      "outputs": [
        {
          "internalType": "address",
          "name": "",
          "type": "address"
        }
      ],
      "stateMutability": "view",
      "type": "function"
    },
    {
      "inputs": [
        {
          "internalType": "address",
          "name": "token",
          "type": "address"
        },
        {
          "internalType": "uint256",
          "name": "amount",
          "type": "uint256"
        }
      ],
      "name": "push",
      "outputs": [],
      "stateMutability": "nonpayable",
      "type": "function"
    },
    {
      "inputs": [],
      "name": "rewardToken",
      "outputs": [
        {
          "internalType": "address",
          "name": "",
          "type": "address"
        }
      ],
      "stateMutability": "view",
      "type": "function"
    },
    {
      "inputs": [
        {
          "internalType": "uint256",
          "name": "",
          "type": "uint256"
        }
      ],
      "name": "tierToRewards",
      "outputs": [
        {
          "internalType": "uint256",
          "name": "",
          "type": "uint256"
        }
      ],
      "stateMutability": "view",
      "type": "function"
    },
    {
      "inputs": [
        {
          "internalType": "address",
          "name": "referrer",
          "type": "address"
        },
        {
          "internalType": "uint256",
          "name": "point",
          "type": "uint256"
        }
      ],
      "name": "updatePoint",
      "outputs": [],
      "stateMutability": "nonpayable",
      "type": "function"
    },
    {
      "inputs": [
        {
          "internalType": "address[]",
          "name": "referrers",
          "type": "address[]"
        },
        {
          "internalType": "uint256[]",
          "name": "points",
          "type": "uint256[]"
        }
      ],
      "name": "updatePoints",
      "outputs": [],
      "stateMutability": "nonpayable",
      "type": "function"
    }
  ],
  "bytecode": {
    "object": "0x608060405234801561001057600080fd5b506108d8806100206000396000f3fe608060405234801561001057600080fd5b506004361061009e5760003560e01c8063b753a98c11610066578063b753a98c1461013e578063b901164b14610151578063c1c4eec31461017b578063f1f915181461019b578063f7c618c1146101ae57600080fd5b8063372500ab146100a3578063485cc955146100be5780636143e733146100d3578063673d66ad146100f35780638da5cb5b14610113575b600080fd5b6100ab6101c1565b6040519081526020015b60405180910390f35b6100d16100cc366004610680565b61032b565b005b6100ab6100e13660046106b3565b60036020526000908152604090205481565b6100ab6101013660046106cc565b60026020526000908152604090205481565b600554610126906001600160a01b031681565b6040516001600160a01b0390911681526020016100b5565b6100d161014c3660046106ee565b6104ee565b6100d161015f3660046106ee565b6001600160a01b03909116600090815260026020526040902055565b6100ab6101893660046106cc565b60016020526000908152604090205481565b6100d16101a9366004610764565b6105a8565b600654610126906001600160a01b031681565b33600090815260016020908152604080832054600290925282205482916101e7916107e6565b600480546040516302b0540360e31b815233928101929092529192506000916001600160a01b031690631582a01890602401602060405180830381865afa158015610236573d6000803e3d6000fd5b505050506040513d601f19601f8201168201806040525081019061025a91906107ff565b60008181526003602052604081205491925061027982620f4240610818565b61028685620f4240610818565b610290919061082f565b60065460405163a9059cbb60e01b8152336004820152602481018390529192506001600160a01b03169063a9059cbb906044016020604051808303816000875af11580156102e2573d6000803e3d6000fd5b505050506040513d601f19601f820116820180604052508101906103069190610851565b5033600090815260026020908152604080832054600190925290912055949350505050565b600054610100900460ff161580801561034b5750600054600160ff909116105b806103655750303b158015610365575060005460ff166001145b6103cd5760405162461bcd60e51b815260206004820152602e60248201527f496e697469616c697a61626c653a20636f6e747261637420697320616c72656160448201526d191e481a5b9a5d1a585b1a5e995960921b60648201526084015b60405180910390fd5b6000805460ff1916600117905580156103f0576000805461ff0019166101001790555b600480546001600160a01b038086166001600160a01b03199283161790925560068054928516928216929092179091556005805490911633179055600360205261029e7f3617319a054d772f909f7c479a2cebe5066e836a939412e32403c99029b92eff5561014f7fa15bc60c955c405d20d9149c709e2460f1c2d9a497496a7f46004d1772c3054c55600260005260e17fc3a24b0501bd2c13a7e57f2db4369ec4c223447539fc0724a9d55ac4a06ebd4d5580156104e9576000805461ff0019169055604051600181527f7f26b83ff96e1f2b6a682f133852f6798a09c465da95921460cefb38474024989060200160405180910390a15b505050565b6005546001600160a01b031633146105315760405162461bcd60e51b815260206004820152600660248201526510b7bbb732b960d11b60448201526064016103c4565b60055460405163a9059cbb60e01b81526001600160a01b039182166004820152602481018390529083169063a9059cbb906044016020604051808303816000875af1158015610584573d6000803e3d6000fd5b505050506040513d601f19601f820116820180604052508101906104e99190610851565b8281146105e15760405162461bcd60e51b8152602060048201526007602482015266042d8cadccee8d60cb1b60448201526064016103c4565b60005b8381101561065d5761064b85858381811061060157610601610873565b905060200201602081019061061691906106cc565b84848481811061062857610628610873565b905060200201356001600160a01b03909116600090815260026020526040902055565b8061065581610889565b9150506105e4565b5050505050565b80356001600160a01b038116811461067b57600080fd5b919050565b6000806040838503121561069357600080fd5b61069c83610664565b91506106aa60208401610664565b90509250929050565b6000602082840312156106c557600080fd5b5035919050565b6000602082840312156106de57600080fd5b6106e782610664565b9392505050565b6000806040838503121561070157600080fd5b61070a83610664565b946020939093013593505050565b60008083601f84011261072a57600080fd5b50813567ffffffffffffffff81111561074257600080fd5b6020830191508360208260051b850101111561075d57600080fd5b9250929050565b6000806000806040858703121561077a57600080fd5b843567ffffffffffffffff8082111561079257600080fd5b61079e88838901610718565b909650945060208701359150808211156107b757600080fd5b506107c487828801610718565b95989497509550505050565b634e487b7160e01b600052601160045260246000fd5b818103818111156107f9576107f96107d0565b92915050565b60006020828403121561081157600080fd5b5051919050565b80820281158282048414176107f9576107f96107d0565b60008261084c57634e487b7160e01b600052601260045260246000fd5b500490565b60006020828403121561086357600080fd5b815180151581146106e757600080fd5b634e487b7160e01b600052603260045260246000fd5b60006001820161089b5761089b6107d0565b506001019056fea2646970667358221220d94a32d2bb14f9ccbfbbdfc0baae265e6396edbc8c2332a5c14af06806259cb264736f6c63430008150033",
    "linkReferences": {}
  },
  "methodIdentifiers": {
    "claimRewards()": "372500ab",
    "initialize(address,address)": "485cc955",
    "lastClaimedPoints(address)": "c1c4eec3",
    "lastRecordedPoints(address)": "673d66ad",
    "owner()": "8da5cb5b",
    "push(address,uint256)": "b753a98c",
    "rewardToken()": "f7c618c1",
    "tierToRewards(uint256)": "6143e733",
    "updatePoint(address,uint256)": "b901164b",
    "updatePoints(address[],uint256[])": "f1f91518"
  },
  "id": 73
}