{
  "abi": [
    {
      "inputs": [
        {
          "internalType": "address",
          "name": "_poolManager",
          "type": "address"
        },
        {
          "internalType": "address",
          "name": "_marginFacility",
          "type": "address"
        },
        {
          "internalType": "address",
          "name": "borrowFacility",
          "type": "address"
        }
      ],
      "stateMutability": "nonpayable",
      "type": "constructor"
    },
    {
      "inputs": [],
      "name": "T",
      "type": "error"
    },
    {
      "inputs": [
        {
          "components": [
            {
              "internalType": "address",
              "name": "token0",
              "type": "address"
            },
            {
              "internalType": "address",
              "name": "token1",
              "type": "address"
            },
            {
              "internalType": "uint24",
              "name": "fee",
              "type": "uint24"
            }
          ],
          "internalType": "struct PoolKey",
          "name": "key",
          "type": "tuple"
        },
        {
          "internalType": "uint256",
          "name": "margin",
          "type": "uint256"
        },
        {
          "internalType": "bool",
          "name": "positionIsToken0",
          "type": "bool"
        },
        {
          "internalType": "uint256",
          "name": "slippage",
          "type": "uint256"
        },
        {
          "internalType": "uint256",
          "name": "startingLeverage",
          "type": "uint256"
        }
      ],
      "name": "findMaxLeverageWithEstimatedSlippage",
      "outputs": [
        {
          "internalType": "uint256",
          "name": "",
          "type": "uint256"
        }
      ],
      "stateMutability": "view",
      "type": "function"
    },
    {
      "inputs": [
        {
          "components": [
            {
              "internalType": "address",
              "name": "token0",
              "type": "address"
            },
            {
              "internalType": "address",
              "name": "token1",
              "type": "address"
            },
            {
              "internalType": "uint24",
              "name": "fee",
              "type": "uint24"
            }
          ],
          "internalType": "struct PoolKey",
          "name": "key",
          "type": "tuple"
        },
        {
          "internalType": "uint256",
          "name": "margin",
          "type": "uint256"
        },
        {
          "internalType": "uint256",
          "name": "borrowAmount",
          "type": "uint256"
        },
        {
          "internalType": "bool",
          "name": "positionIsToken0",
          "type": "bool"
        },
        {
          "internalType": "uint256",
          "name": "simulatedOutput",
          "type": "uint256"
        }
      ],
      "name": "findTicks",
      "outputs": [
        {
          "internalType": "uint256",
          "name": "",
          "type": "uint256"
        },
        {
          "components": [
            {
              "internalType": "int24",
              "name": "tick",
              "type": "int24"
            },
            {
              "internalType": "uint128",
              "name": "liquidity",
              "type": "uint128"
            },
            {
              "internalType": "uint256",
              "name": "premium",
              "type": "uint256"
            },
            {
              "internalType": "uint256",
              "name": "feeGrowthInside0LastX128",
              "type": "uint256"
            },
            {
              "internalType": "uint256",
              "name": "feeGrowthInside1LastX128",
              "type": "uint256"
            },
            {
              "internalType": "uint256",
              "name": "lastGrowth",
              "type": "uint256"
            }
          ],
          "internalType": "struct LiquidityLoan[]",
          "name": "",
          "type": "tuple[]"
        }
      ],
      "stateMutability": "view",
      "type": "function"
    },
    {
      "inputs": [
        {
          "internalType": "address",
          "name": "trader",
          "type": "address"
        }
      ],
      "name": "getActiveMarginPositions",
      "outputs": [
        {
          "components": [
            {
              "components": [
                {
                  "internalType": "address",
                  "name": "token0",
                  "type": "address"
                },
                {
                  "internalType": "address",
                  "name": "token1",
                  "type": "address"
                },
                {
                  "internalType": "uint24",
                  "name": "fee",
                  "type": "uint24"
                }
              ],
              "internalType": "struct PoolKey",
              "name": "poolKey",
              "type": "tuple"
            },
            {
              "internalType": "bool",
              "name": "isToken0",
              "type": "bool"
            },
            {
              "internalType": "uint256",
              "name": "totalDebtOutput",
              "type": "uint256"
            },
            {
              "internalType": "uint256",
              "name": "totalDebtInput",
              "type": "uint256"
            },
            {
              "internalType": "uint32",
              "name": "openTime",
              "type": "uint32"
            },
            {
              "internalType": "uint32",
              "name": "repayTime",
              "type": "uint32"
            },
            {
              "internalType": "uint256",
              "name": "premiumDeposit",
              "type": "uint256"
            },
            {
              "internalType": "uint256",
              "name": "totalPosition",
              "type": "uint256"
            },
            {
              "internalType": "uint256",
              "name": "margin",
              "type": "uint256"
            },
            {
              "internalType": "uint256",
              "name": "premiumOwed",
              "type": "uint256"
            },
            {
              "internalType": "uint8",
              "name": "token0Decimals",
              "type": "uint8"
            },
            {
              "internalType": "uint8",
              "name": "token1Decimals",
              "type": "uint8"
            }
          ],
          "internalType": "struct DataProvider.MarginPositionInfo[]",
          "name": "",
          "type": "tuple[]"
        }
      ],
      "stateMutability": "view",
      "type": "function"
    },
    {
      "inputs": [
        {
          "internalType": "address",
          "name": "trader",
          "type": "address"
        }
      ],
      "name": "getActiveOrders",
      "outputs": [
        {
          "components": [
            {
              "components": [
                {
                  "internalType": "address",
                  "name": "token0",
                  "type": "address"
                },
                {
                  "internalType": "address",
                  "name": "token1",
                  "type": "address"
                },
                {
                  "internalType": "uint24",
                  "name": "fee",
                  "type": "uint24"
                }
              ],
              "internalType": "struct PoolKey",
              "name": "key",
              "type": "tuple"
            },
            {
              "internalType": "bool",
              "name": "positionIsToken0",
              "type": "bool"
            },
            {
              "internalType": "uint32",
              "name": "auctionDeadline",
              "type": "uint32"
            },
            {
              "internalType": "uint32",
              "name": "auctionStartTime",
              "type": "uint32"
            },
            {
              "internalType": "uint256",
              "name": "startOutput",
              "type": "uint256"
            },
            {
              "internalType": "uint256",
              "name": "minOutput",
              "type": "uint256"
            },
            {
              "internalType": "uint256",
              "name": "inputAmount",
              "type": "uint256"
            },
            {
              "internalType": "uint256",
              "name": "decayRate",
              "type": "uint256"
            },
            {
              "internalType": "uint256",
              "name": "margin",
              "type": "uint256"
            }
          ],
          "internalType": "struct Order[]",
          "name": "",
          "type": "tuple[]"
        }
      ],
      "stateMutability": "view",
      "type": "function"
    },
    {
      "inputs": [
        {
          "internalType": "address",
          "name": "trader",
          "type": "address"
        }
      ],
      "name": "getAddOrders",
      "outputs": [
        {
          "components": [
            {
              "components": [
                {
                  "internalType": "address",
                  "name": "token0",
                  "type": "address"
                },
                {
                  "internalType": "address",
                  "name": "token1",
                  "type": "address"
                },
                {
                  "internalType": "uint24",
                  "name": "fee",
                  "type": "uint24"
                }
              ],
              "internalType": "struct PoolKey",
              "name": "key",
              "type": "tuple"
            },
            {
              "internalType": "bool",
              "name": "isAdd",
              "type": "bool"
            },
            {
              "internalType": "bool",
              "name": "positionIsToken0",
              "type": "bool"
            },
            {
              "internalType": "uint32",
              "name": "auctionDeadline",
              "type": "uint32"
            },
            {
              "internalType": "uint32",
              "name": "auctionStartTime",
              "type": "uint32"
            },
            {
              "internalType": "uint256",
              "name": "startOutput",
              "type": "uint256"
            },
            {
              "internalType": "uint256",
              "name": "minOutput",
              "type": "uint256"
            },
            {
              "internalType": "uint256",
              "name": "inputAmount",
              "type": "uint256"
            },
            {
              "internalType": "uint256",
              "name": "decayRate",
              "type": "uint256"
            },
            {
              "internalType": "uint256",
              "name": "margin",
              "type": "uint256"
            }
          ],
          "internalType": "struct DataProvider.LimitOrderInfo[]",
          "name": "",
          "type": "tuple[]"
        }
      ],
      "stateMutability": "view",
      "type": "function"
    },
    {
      "inputs": [
        {
          "components": [
            {
              "internalType": "address",
              "name": "token0",
              "type": "address"
            },
            {
              "internalType": "address",
              "name": "token1",
              "type": "address"
            },
            {
              "internalType": "uint24",
              "name": "fee",
              "type": "uint24"
            }
          ],
          "internalType": "struct PoolKey",
          "name": "key",
          "type": "tuple"
        },
        {
          "internalType": "int24",
          "name": "tick",
          "type": "int24"
        }
      ],
      "name": "getBorrowedLiquidityInBin",
      "outputs": [
        {
          "internalType": "uint128",
          "name": "",
          "type": "uint128"
        }
      ],
      "stateMutability": "view",
      "type": "function"
    },
    {
      "inputs": [
        {
          "components": [
            {
              "internalType": "int24",
              "name": "tick",
              "type": "int24"
            },
            {
              "internalType": "uint128",
              "name": "liquidity",
              "type": "uint128"
            },
            {
              "internalType": "uint256",
              "name": "premium",
              "type": "uint256"
            },
            {
              "internalType": "uint256",
              "name": "feeGrowthInside0LastX128",
              "type": "uint256"
            },
            {
              "internalType": "uint256",
              "name": "feeGrowthInside1LastX128",
              "type": "uint256"
            },
            {
              "internalType": "uint256",
              "name": "lastGrowth",
              "type": "uint256"
            }
          ],
          "internalType": "struct LiquidityLoan[]",
          "name": "borrowInfo",
          "type": "tuple[]"
        },
        {
          "internalType": "bool",
          "name": "positionIsToken0",
          "type": "bool"
        },
        {
          "internalType": "address",
          "name": "pool",
          "type": "address"
        },
        {
          "internalType": "int24",
          "name": "tickDiscretization",
          "type": "int24"
        }
      ],
      "name": "getExpectedFeesOwed",
      "outputs": [
        {
          "internalType": "uint256",
          "name": "",
          "type": "uint256"
        }
      ],
      "stateMutability": "view",
      "type": "function"
    },
    {
      "inputs": [
        {
          "components": [
            {
              "internalType": "int24",
              "name": "tick",
              "type": "int24"
            },
            {
              "internalType": "uint128",
              "name": "liquidity",
              "type": "uint128"
            },
            {
              "internalType": "uint256",
              "name": "premium",
              "type": "uint256"
            },
            {
              "internalType": "uint256",
              "name": "feeGrowthInside0LastX128",
              "type": "uint256"
            },
            {
              "internalType": "uint256",
              "name": "feeGrowthInside1LastX128",
              "type": "uint256"
            },
            {
              "internalType": "uint256",
              "name": "lastGrowth",
              "type": "uint256"
            }
          ],
          "internalType": "struct LiquidityLoan[]",
          "name": "borrowInfo",
          "type": "tuple[]"
        },
        {
          "internalType": "bool",
          "name": "positionIsToken0",
          "type": "bool"
        },
        {
          "components": [
            {
              "internalType": "uint256",
              "name": "pivotRate",
              "type": "uint256"
            },
            {
              "internalType": "uint256",
              "name": "slope1",
              "type": "uint256"
            },
            {
              "internalType": "uint256",
              "name": "intercept1",
              "type": "uint256"
            },
            {
              "internalType": "uint256",
              "name": "slope2",
              "type": "uint256"
            },
            {
              "internalType": "uint256",
              "name": "intercept2",
              "type": "uint256"
            },
            {
              "internalType": "uint256",
              "name": "twatDiffScale",
              "type": "uint256"
            }
          ],
          "internalType": "struct URateParam",
          "name": "uParam",
          "type": "tuple"
        },
        {
          "internalType": "address",
          "name": "pool",
          "type": "address"
        },
        {
          "internalType": "int24",
          "name": "tickDiscretization",
          "type": "int24"
        }
      ],
      "name": "getExpectedInterestOwed",
      "outputs": [
        {
          "internalType": "uint256",
          "name": "",
          "type": "uint256"
        }
      ],
      "stateMutability": "view",
      "type": "function"
    },
    {
      "inputs": [
        {
          "components": [
            {
              "internalType": "address",
              "name": "token0",
              "type": "address"
            },
            {
              "internalType": "address",
              "name": "token1",
              "type": "address"
            },
            {
              "internalType": "uint24",
              "name": "fee",
              "type": "uint24"
            }
          ],
          "internalType": "struct PoolKey",
          "name": "poolKey",
          "type": "tuple"
        },
        {
          "internalType": "address",
          "name": "trader",
          "type": "address"
        },
        {
          "internalType": "bool",
          "name": "positionIsToken0",
          "type": "bool"
        }
      ],
      "name": "getExpectedPremiumOwed",
      "outputs": [
        {
          "internalType": "uint256",
          "name": "",
          "type": "uint256"
        }
      ],
      "stateMutability": "view",
      "type": "function"
    },
    {
      "inputs": [
        {
          "components": [
            {
              "internalType": "address",
              "name": "token0",
              "type": "address"
            },
            {
              "internalType": "address",
              "name": "token1",
              "type": "address"
            },
            {
              "internalType": "uint24",
              "name": "fee",
              "type": "uint24"
            }
          ],
          "internalType": "struct PoolKey",
          "name": "poolKey",
          "type": "tuple"
        },
        {
          "internalType": "address",
          "name": "trader",
          "type": "address"
        },
        {
          "internalType": "bool",
          "name": "positionIsToken0",
          "type": "bool"
        }
      ],
      "name": "getInstantaeneousRate",
      "outputs": [
        {
          "internalType": "uint256",
          "name": "",
          "type": "uint256"
        }
      ],
      "stateMutability": "view",
      "type": "function"
    },
    {
      "inputs": [
        {
          "components": [
            {
              "internalType": "address",
              "name": "token0",
              "type": "address"
            },
            {
              "internalType": "address",
              "name": "token1",
              "type": "address"
            },
            {
              "internalType": "uint24",
              "name": "fee",
              "type": "uint24"
            }
          ],
          "internalType": "struct PoolKey",
          "name": "key",
          "type": "tuple"
        },
        {
          "components": [
            {
              "internalType": "int24",
              "name": "tick",
              "type": "int24"
            },
            {
              "internalType": "uint128",
              "name": "liquidity",
              "type": "uint128"
            },
            {
              "internalType": "uint256",
              "name": "premium",
              "type": "uint256"
            },
            {
              "internalType": "uint256",
              "name": "feeGrowthInside0LastX128",
              "type": "uint256"
            },
            {
              "internalType": "uint256",
              "name": "feeGrowthInside1LastX128",
              "type": "uint256"
            },
            {
              "internalType": "uint256",
              "name": "lastGrowth",
              "type": "uint256"
            }
          ],
          "internalType": "struct LiquidityLoan[]",
          "name": "borrowInfo",
          "type": "tuple[]"
        }
      ],
      "name": "getIsBorrowable",
      "outputs": [
        {
          "internalType": "bool",
          "name": "",
          "type": "bool"
        }
      ],
      "stateMutability": "view",
      "type": "function"
    },
    {
      "inputs": [
        {
          "components": [
            {
              "internalType": "address",
              "name": "token0",
              "type": "address"
            },
            {
              "internalType": "address",
              "name": "token1",
              "type": "address"
            },
            {
              "internalType": "uint24",
              "name": "fee",
              "type": "uint24"
            }
          ],
          "internalType": "struct PoolKey",
          "name": "key",
          "type": "tuple"
        },
        {
          "internalType": "int24",
          "name": "tick",
          "type": "int24"
        }
      ],
      "name": "getLiquidityInBin",
      "outputs": [
        {
          "internalType": "uint128",
          "name": "",
          "type": "uint128"
        }
      ],
      "stateMutability": "view",
      "type": "function"
    },
    {
      "inputs": [
        {
          "internalType": "address",
          "name": "pool",
          "type": "address"
        },
        {
          "internalType": "address",
          "name": "trader",
          "type": "address"
        },
        {
          "internalType": "bool",
          "name": "isToken",
          "type": "bool"
        }
      ],
      "name": "getMarginPosition",
      "outputs": [
        {
          "components": [
            {
              "components": [
                {
                  "internalType": "address",
                  "name": "token0",
                  "type": "address"
                },
                {
                  "internalType": "address",
                  "name": "token1",
                  "type": "address"
                },
                {
                  "internalType": "uint24",
                  "name": "fee",
                  "type": "uint24"
                }
              ],
              "internalType": "struct PoolKey",
              "name": "poolKey",
              "type": "tuple"
            },
            {
              "internalType": "bool",
              "name": "isToken0",
              "type": "bool"
            },
            {
              "internalType": "uint256",
              "name": "totalDebtOutput",
              "type": "uint256"
            },
            {
              "internalType": "uint256",
              "name": "totalDebtInput",
              "type": "uint256"
            },
            {
              "internalType": "uint32",
              "name": "openTime",
              "type": "uint32"
            },
            {
              "internalType": "uint32",
              "name": "repayTime",
              "type": "uint32"
            },
            {
              "internalType": "uint256",
              "name": "premiumDeposit",
              "type": "uint256"
            },
            {
              "internalType": "uint256",
              "name": "totalPosition",
              "type": "uint256"
            },
            {
              "internalType": "uint256",
              "name": "margin",
              "type": "uint256"
            },
            {
              "internalType": "uint256",
              "name": "premiumOwed",
              "type": "uint256"
            },
            {
              "internalType": "uint8",
              "name": "token0Decimals",
              "type": "uint8"
            },
            {
              "internalType": "uint8",
              "name": "token1Decimals",
              "type": "uint8"
            }
          ],
          "internalType": "struct DataProvider.MarginPositionInfo",
          "name": "",
          "type": "tuple"
        }
      ],
      "stateMutability": "view",
      "type": "function"
    },
    {
      "inputs": [
        {
          "components": [
            {
              "internalType": "address",
              "name": "token0",
              "type": "address"
            },
            {
              "internalType": "address",
              "name": "token1",
              "type": "address"
            },
            {
              "internalType": "uint24",
              "name": "fee",
              "type": "uint24"
            }
          ],
          "internalType": "struct PoolKey",
          "name": "key",
          "type": "tuple"
        },
        {
          "internalType": "int24",
          "name": "tickLower",
          "type": "int24"
        },
        {
          "internalType": "int24",
          "name": "tickUpper",
          "type": "int24"
        }
      ],
      "name": "getMaxWithdrawable",
      "outputs": [
        {
          "internalType": "uint128",
          "name": "maxWithdrawable",
          "type": "uint128"
        }
      ],
      "stateMutability": "view",
      "type": "function"
    },
    {
      "inputs": [
        {
          "internalType": "address",
          "name": "pool",
          "type": "address"
        },
        {
          "internalType": "address",
          "name": "trader",
          "type": "address"
        },
        {
          "internalType": "bool",
          "name": "positionIsToken0",
          "type": "bool"
        },
        {
          "internalType": "bool",
          "name": "isAdd",
          "type": "bool"
        }
      ],
      "name": "getOrder",
      "outputs": [
        {
          "components": [
            {
              "components": [
                {
                  "internalType": "address",
                  "name": "token0",
                  "type": "address"
                },
                {
                  "internalType": "address",
                  "name": "token1",
                  "type": "address"
                },
                {
                  "internalType": "uint24",
                  "name": "fee",
                  "type": "uint24"
                }
              ],
              "internalType": "struct PoolKey",
              "name": "key",
              "type": "tuple"
            },
            {
              "internalType": "bool",
              "name": "positionIsToken0",
              "type": "bool"
            },
            {
              "internalType": "uint32",
              "name": "auctionDeadline",
              "type": "uint32"
            },
            {
              "internalType": "uint32",
              "name": "auctionStartTime",
              "type": "uint32"
            },
            {
              "internalType": "uint256",
              "name": "startOutput",
              "type": "uint256"
            },
            {
              "internalType": "uint256",
              "name": "minOutput",
              "type": "uint256"
            },
            {
              "internalType": "uint256",
              "name": "inputAmount",
              "type": "uint256"
            },
            {
              "internalType": "uint256",
              "name": "decayRate",
              "type": "uint256"
            },
            {
              "internalType": "uint256",
              "name": "margin",
              "type": "uint256"
            }
          ],
          "internalType": "struct Order",
          "name": "order",
          "type": "tuple"
        }
      ],
      "stateMutability": "view",
      "type": "function"
    },
    {
      "inputs": [
        {
          "internalType": "address",
          "name": "pool",
          "type": "address"
        }
      ],
      "name": "getPoolkeys",
      "outputs": [
        {
          "internalType": "address",
          "name": "token0",
          "type": "address"
        },
        {
          "internalType": "address",
          "name": "token1",
          "type": "address"
        },
        {
          "internalType": "uint24",
          "name": "fee",
          "type": "uint24"
        }
      ],
      "stateMutability": "view",
      "type": "function"
    },
    {
      "inputs": [
        {
          "internalType": "address",
          "name": "trader",
          "type": "address"
        }
      ],
      "name": "getReduceOrders",
      "outputs": [
        {
          "components": [
            {
              "components": [
                {
                  "internalType": "address",
                  "name": "token0",
                  "type": "address"
                },
                {
                  "internalType": "address",
                  "name": "token1",
                  "type": "address"
                },
                {
                  "internalType": "uint24",
                  "name": "fee",
                  "type": "uint24"
                }
              ],
              "internalType": "struct PoolKey",
              "name": "key",
              "type": "tuple"
            },
            {
              "internalType": "bool",
              "name": "isAdd",
              "type": "bool"
            },
            {
              "internalType": "bool",
              "name": "positionIsToken0",
              "type": "bool"
            },
            {
              "internalType": "uint32",
              "name": "auctionDeadline",
              "type": "uint32"
            },
            {
              "internalType": "uint32",
              "name": "auctionStartTime",
              "type": "uint32"
            },
            {
              "internalType": "uint256",
              "name": "startOutput",
              "type": "uint256"
            },
            {
              "internalType": "uint256",
              "name": "minOutput",
              "type": "uint256"
            },
            {
              "internalType": "uint256",
              "name": "inputAmount",
              "type": "uint256"
            },
            {
              "internalType": "uint256",
              "name": "decayRate",
              "type": "uint256"
            },
            {
              "internalType": "uint256",
              "name": "margin",
              "type": "uint256"
            }
          ],
          "internalType": "struct DataProvider.LimitOrderInfo[]",
          "name": "",
          "type": "tuple[]"
        }
      ],
      "stateMutability": "view",
      "type": "function"
    }
  ],
  "bytecode": {
    "object": "0x60806040523480156200001157600080fd5b50604051620055d5380380620055d5833981016040819052620000349162000087565b50600080546001600160a01b039283166001600160a01b03199182161790915560018054939092169216919091179055620000d1565b80516001600160a01b03811681146200008257600080fd5b919050565b6000806000606084860312156200009d57600080fd5b620000a8846200006a565b9250620000b8602085016200006a565b9150620000c8604085016200006a565b90509250925092565b6154f480620000e16000396000f3fe608060405234801561001057600080fd5b506004361061010b5760003560e01c80639983379d116100a2578063bc6312a511610071578063bc6312a51461025a578063c229a3321461026d578063c53a490a146102ab578063d069f1ac146102cb578063dd65c328146102ec57600080fd5b80639983379d14610201578063a5f3f47414610214578063a9b6b32b14610227578063ac636efb1461024757600080fd5b80633aea807f116100de5780633aea807f146101975780638e68ad36146101b8578063911f1b47146101cb578063912a8e00146101ee57600080fd5b8063060429f514610110578063193a24361461013957806329aa38191461014c5780632d6cf1f414610177575b600080fd5b61012361011e366004613eff565b61030c565b6040516101309190613f48565b60405180910390f35b610123610147366004613eff565b6106e3565b61015f61015a366004614187565b610ab0565b6040516001600160801b039091168152602001610130565b61018a6101853660046141cd565b610b9e565b60405161013091906142c6565b6101aa6101a53660046142d5565b61102b565b604051908152602001610130565b61015f6101c636600461432c565b61124e565b6101de6101d9366004614474565b611519565b6040519015158152602001610130565b61015f6101fc366004614187565b611911565b6101aa61020f3660046144c2565b61194a565b6101aa6102223660046142d5565b611b33565b61023a610235366004614595565b611d4c565b6040516101309190614668565b6101aa610255366004614677565b611e7b565b6101aa6102683660046146c8565b6121a6565b61028061027b366004613eff565b6124a5565b604080516001600160a01b03948516815293909216602084015262ffffff1690820152606001610130565b6102be6102b9366004613eff565b6125dd565b6040516101309190614731565b6102de6102d9366004614780565b612ade565b604051610130929190614817565b6102ff6102fa366004613eff565b612bcd565b604051610130919061486f565b60606000600160009054906101000a90046001600160a01b03166001600160a01b031663d41dcbea6040518163ffffffff1660e01b8152600401600060405180830381865afa158015610363573d6000803e3d6000fd5b505050506040513d6000823e601f3d908101601f1916820160405261038b91908101906148bd565b905060008151600261039d919061496c565b6001600160401b038111156103b4576103b4614032565b6040519080825280602002602001820160405280156103ed57816020015b6103da613d96565b8152602001906001900390816103d25790505b5090506000805b835181101561062d576000604051806060016040528086848151811061041c5761041c614983565b60200260200101516001600160a01b0316630dfe16816040518163ffffffff1660e01b8152600401602060405180830381865afa158015610461573d6000803e3d6000fd5b505050506040513d601f19601f820116820180604052508101906104859190614999565b6001600160a01b031681526020018684815181106104a5576104a5614983565b60200260200101516001600160a01b031663d21220a76040518163ffffffff1660e01b8152600401602060405180830381865afa1580156104ea573d6000803e3d6000fd5b505050506040513d601f19601f8201168201806040525081019061050e9190614999565b6001600160a01b0316815260200186848151811061052e5761052e614983565b60200260200101516001600160a01b031663ddca3f436040518163ffffffff1660e01b8152600401602060405180830381865afa158015610573573d6000803e3d6000fd5b505050506040513d601f19601f8201168201806040525081019061059791906149b6565b62ffffff1681525090506105cb878684815181106105b7576105b7614983565b60200260200101518360006001888a612f97565b156105de57826105da816149d3565b9350505b610607878684815181106105f4576105f4614983565b602002602001015183600080888a612f97565b1561061a5782610616816149d3565b9350505b5080610625816149d3565b9150506103f4565b506000816001600160401b0381111561064857610648614032565b60405190808252806020026020018201604052801561068157816020015b61066e613d96565b8152602001906001900390816106665790505b50905060005b828110156106d9578381815181106106a1576106a1614983565b60200260200101518282815181106106bb576106bb614983565b602002602001018190525080806106d1906149d3565b915050610687565b5095945050505050565b60606000600160009054906101000a90046001600160a01b03166001600160a01b031663d41dcbea6040518163ffffffff1660e01b8152600401600060405180830381865afa15801561073a573d6000803e3d6000fd5b505050506040513d6000823e601f3d908101601f1916820160405261076291908101906148bd565b9050600081516002610774919061496c565b6001600160401b0381111561078b5761078b614032565b6040519080825280602002602001820160405280156107c457816020015b6107b1613d96565b8152602001906001900390816107a95790505b5090506000805b8351811015610a0457600060405180606001604052808684815181106107f3576107f3614983565b60200260200101516001600160a01b0316630dfe16816040518163ffffffff1660e01b8152600401602060405180830381865afa158015610838573d6000803e3d6000fd5b505050506040513d601f19601f8201168201806040525081019061085c9190614999565b6001600160a01b0316815260200186848151811061087c5761087c614983565b60200260200101516001600160a01b031663d21220a76040518163ffffffff1660e01b8152600401602060405180830381865afa1580156108c1573d6000803e3d6000fd5b505050506040513d601f19601f820116820180604052508101906108e59190614999565b6001600160a01b0316815260200186848151811061090557610905614983565b60200260200101516001600160a01b031663ddca3f436040518163ffffffff1660e01b8152600401602060405180830381865afa15801561094a573d6000803e3d6000fd5b505050506040513d601f19601f8201168201806040525081019061096e91906149b6565b62ffffff1681525090506109a18786848151811061098e5761098e614983565b602002602001015183600180888a612f97565b156109b457826109b0816149d3565b9350505b6109de878684815181106109ca576109ca614983565b60200260200101518360016000888a612f97565b156109f157826109ed816149d3565b9350505b50806109fc816149d3565b9150506107cb565b506000816001600160401b03811115610a1f57610a1f614032565b604051908082528060200260200182016040528015610a5857816020015b610a45613d96565b815260200190600190039081610a3d5790505b50905060005b828110156106d957838181518110610a7857610a78614983565b6020026020010151828281518110610a9257610a92614983565b60200260200101819052508080610aa8906149d3565b915050610a5e565b600154604051632411122160e11b81526000916001600160a01b0316906319fda277908290634822244290610ae99088906004016149ec565b602060405180830381865afa158015610b06573d6000803e3d6000fd5b505050506040513d601f19601f82011682018060405250810190610b2a91906149fa565b846040518363ffffffff1660e01b8152600401610b5492919091825260020b602082015260400190565b602060405180830381865afa158015610b71573d6000803e3d6000fd5b505050506040513d601f19601f82011682018060405250810190610b959190614a13565b90505b92915050565b610ba6613e01565b60006040518060600160405280866001600160a01b0316630dfe16816040518163ffffffff1660e01b8152600401602060405180830381865afa158015610bf1573d6000803e3d6000fd5b505050506040513d601f19601f82011682018060405250810190610c159190614999565b6001600160a01b03168152602001866001600160a01b031663d21220a76040518163ffffffff1660e01b8152600401602060405180830381865afa158015610c61573d6000803e3d6000fd5b505050506040513d601f19601f82011682018060405250810190610c859190614999565b6001600160a01b03168152602001866001600160a01b031663ddca3f436040518163ffffffff1660e01b8152600401602060405180830381865afa158015610cd1573d6000803e3d6000fd5b505050506040513d601f19601f82011682018060405250810190610cf591906149b6565b62ffffff1690526000805460405163118272bf60e31b815292935090916001600160a01b0390911690638c1395f890610d3690899089908990600401614a30565b600060405180830381865afa158015610d53573d6000803e3d6000fd5b505050506040513d6000823e601f3d908101601f19168201604052610d7b9190810190614b36565b60008054919250906001600160a01b0316635d4936ff610d9c898989613064565b6040518263ffffffff1660e01b8152600401610dba91815260200190565b602060405180830381865afa158015610dd7573d6000803e3d6000fd5b505050506040513d601f19601f82011682018060405250810190610dfb91906149fa565b90506000610e0a84888861102b565b9050604051806101800160405280858152602001871515815260200184600001516040015181526020018460000151606001518152602001846000015160c0015163ffffffff168152602001846000015160e0015163ffffffff1681526020018381526020018460200151815260200184604001518152602001828152602001896001600160a01b0316630dfe16816040518163ffffffff1660e01b8152600401602060405180830381865afa158015610ec8573d6000803e3d6000fd5b505050506040513d601f19601f82011682018060405250810190610eec9190614999565b6001600160a01b031663313ce5676040518163ffffffff1660e01b8152600401602060405180830381865afa158015610f29573d6000803e3d6000fd5b505050506040513d601f19601f82011682018060405250810190610f4d9190614c72565b60ff168152602001896001600160a01b031663d21220a76040518163ffffffff1660e01b8152600401602060405180830381865afa158015610f93573d6000803e3d6000fd5b505050506040513d601f19601f82011682018060405250810190610fb79190614999565b6001600160a01b031663313ce5676040518163ffffffff1660e01b8152600401602060405180830381865afa158015610ff4573d6000803e3d6000fd5b505050506040513d601f19601f820116820180604052508101906110189190614c72565b60ff1690529450505050505b9392505050565b600154604051639525092360e01b81526000918291829182916001600160a01b0390911690639525092390611064908a906004016149ec565b6101c060405180830381865afa158015611082573d6000803e3d6000fd5b505050506040513d601f19601f820116820180604052508101906110a69190614cfd565b6000805460405163d93a904760e01b8152949750929550909350916001600160a01b039091169063d93a9047906110e59087908b908b90600401614a30565b602060405180830381865afa158015611102573d6000803e3d6000fd5b505050506040513d601f19601f820116820180604052508101906111269190614db2565b6000805460405163657b5a4b60e01b815292935090916001600160a01b039091169063657b5a4b906111609088908c908c90600401614a30565b600060405180830381865afa15801561117d573d6000803e3d6000fd5b505050506040513d6000823e601f3d908101601f191682016040526111a59190810190614dcd565b6001548451604051632c9d4b2b60e21b815292935060009273__$eacbb88ed4bd2af84aa4d43bcf675bcf7e$__9263b2752cac926111fa928b926001600160a01b0316918e15918c918b918b90600401614e80565b600060405180830381865af4158015611217573d6000803e3d6000fd5b505050506040513d6000823e601f3d908101601f1916820160405261123f9190810190614ee5565b9b9a5050505050505050505050565b600154604051632411122160e11b815260009182916001600160a01b0390911690634822244290611283908890600401614f76565b602060405180830381865afa1580156112a0573d6000803e3d6000fd5b505050506040513d601f19601f820116820180604052508101906112c491906149fa565b6001546040516315083fbb60e31b8152600481018390529192506000916001600160a01b039091169063a841fdd890602401602060405180830381865afa158015611313573d6000803e3d6000fd5b505050506040513d601f19601f8201168201806040525081019061133791906149fa565b600154604051630ca32ed160e31b8152600481018590529192506000916001600160a01b0390911690636519768890602401602060405180830381865afa158015611386573d6000803e3d6000fd5b505050506040513d601f19601f820116820180604052508101906113aa9190614f84565b6001600160801b03945090506000808080895b8960020b8160020b121561150a5760015460405163da69b0b360e01b8152600481018a9052600283900b60248201526001600160a01b039091169063da69b0b390604401602060405180830381865afa15801561141e573d6000803e3d6000fd5b505050506040513d601f19601f820116820180604052508101906114429190614a13565b6001546040516319fda27760e01b8152600481018b9052600284900b60248201529196508895506001600160a01b0316906319fda27790604401602060405180830381865afa158015611499573d6000803e3d6000fd5b505050506040513d601f19601f820116820180604052508101906114bd9190614a13565b9250826114ca8587614fa1565b6114d49190614fa1565b9150886001600160801b0316826001600160801b0316106114f557886114f7565b815b98506115038682614fc8565b90506113bd565b50505050505050509392505050565b60008082511161155d5760405162461bcd60e51b815260206004820152600a602482015269656d70747920696e666f60b01b60448201526064015b60405180910390fd5b600154604051632411122160e11b8152600091829182916001600160a01b031690634822244290611592908990600401614f76565b602060405180830381865afa1580156115af573d6000803e3d6000fd5b505050506040513d601f19601f820116820180604052508101906115d391906149fa565b600154604051630ca32ed160e31b8152600481018390529192506000916001600160a01b0390911690636519768890602401602060405180830381865afa158015611622573d6000803e3d6000fd5b505050506040513d601f19601f820116820180604052508101906116469190614f84565b6001546040516315083fbb60e31b8152600481018590529192506000916001600160a01b039091169063a841fdd890602401602060405180830381865afa158015611695573d6000803e3d6000fd5b505050506040513d601f19601f820116820180604052508101906116b991906149fa565b905060005b875181101561190257828882815181106116da576116da614983565b6020026020010151600001516116f09190615003565b60020b1561172e5760405162461bcd60e51b815260206004820152600b60248201526a696e76616c69645469636b60a81b6044820152606401611554565b60015488516001600160a01b039091169063da69b0b39086908b908590811061175957611759614983565b6020026020010151600001516040518363ffffffff1660e01b815260040161178e92919091825260020b602082015260400190565b602060405180830381865afa1580156117ab573d6000803e3d6000fd5b505050506040513d601f19601f820116820180604052508101906117cf9190614a13565b9550856001600160801b03166000036117f15760009650505050505050610b98565b60015488516001600160a01b03909116906319fda2779086908b908590811061181c5761181c614983565b6020026020010151600001516040518363ffffffff1660e01b815260040161185192919091825260020b602082015260400190565b602060405180830381865afa15801561186e573d6000803e3d6000fd5b505050506040513d601f19601f820116820180604052508101906118929190614a13565b94508781815181106118a6576118a6614983565b602002602001015160200151856118bd9190615025565b6001600160801b031682876001600160801b03166118db9190615045565b10156118f05760009650505050505050610b98565b806118fa816149d3565b9150506116be565b50600198975050505050505050565b600154604051632411122160e11b81526000916001600160a01b03169063da69b0b3908290634822244290610ae99088906004016149ec565b6000806000805b8851811015611b255760015489516001600160a01b039091169063683356919088908c908590811061198557611985614983565b6020026020010151600001518a6040518463ffffffff1660e01b81526004016119b093929190615058565b602060405180830381865afa1580156119cd573d6000803e3d6000fd5b505050506040513d601f19601f820116820180604052508101906119f191906149fa565b925087611abf57611aba611a218a8381518110611a1057611a10614983565b6020026020010151600001516130ba565b611a52878c8581518110611a3757611a37614983565b602002602001015160000151611a4d9190614fc8565b6130ba565b611ab58c8581518110611a6757611a67614983565b6020026020010151602001516001600160801b0316670de0b6b3a76400008e8781518110611a9757611a97614983565b602002602001015160a0015189611aae9190615045565b91906133dd565b6134bb565b611b07565b611b07611ad78a8381518110611a1057611a10614983565b611aed878c8581518110611a3757611a37614983565b611b028c8581518110611a6757611a67614983565b613525565b611b119083615080565b915080611b1d816149d3565b915050611951565b509150505b95945050505050565b600154604051639525092360e01b81526000918291829182916001600160a01b0390911690639525092390611b6c908a906004016149ec565b6101c060405180830381865afa158015611b8a573d6000803e3d6000fd5b505050506040513d601f19601f82011682018060405250810190611bae9190614cfd565b6000805460405163d93a904760e01b8152949750929550909350916001600160a01b039091169063d93a904790611bed9087908b908b90600401614a30565b602060405180830381865afa158015611c0a573d6000803e3d6000fd5b505050506040513d601f19601f82011682018060405250810190611c2e9190614db2565b6000805460405163657b5a4b60e01b815292935090916001600160a01b039091169063657b5a4b90611c689088908c908c90600401614a30565b600060405180830381865afa158015611c85573d6000803e3d6000fd5b505050506040513d6000823e601f3d908101601f19168201604052611cad9190810190614dcd565b600154845160405163c49eee8160e01b815292935073__$eacbb88ed4bd2af84aa4d43bcf675bcf7e$__9263c49eee8192611cfe928a926001600160a01b03909216918a9189918990600401615093565b602060405180830381865af4158015611d1b573d6000803e3d6000fd5b505050506040513d601f19601f82011682018060405250810190611d3f91906149fa565b9998505050505050505050565b611d54613e7c565b60005460405163bfd4c2a560e01b81526001600160a01b03878116600483015286811660248301528515156044830152841515606483015290911690639c3f1e9090829063bfd4c2a590608401602060405180830381865afa158015611dbe573d6000803e3d6000fd5b505050506040513d601f19601f82011682018060405250810190611de291906149fa565b6040518263ffffffff1660e01b8152600401611e0091815260200190565b61016060405180830381865afa158015611e1e573d6000803e3d6000fd5b505050506040513d601f19601f82011682018060405250810190611e4291906150e2565b6101008a01525060c088015260a0870152608086015263ffffffff90811660608601521660408401521515602083015250949350505050565b6000611e886014836151af565b15611ebb5760405162461bcd60e51b81526020600482015260036024820152621b5bd960ea1b6044820152606401611554565b600154604051639525092360e01b8152600091829182916001600160a01b031690639525092390611ef0908c90600401614f76565b6101c060405180830381865afa158015611f0e573d6000803e3d6000fd5b505050506040513d601f19601f82011682018060405250810190611f329190614cfd565b50509050600080826001600160a01b0316633850c7bd6040518163ffffffff1660e01b815260040160e060405180830381865afa158015611f77573d6000803e3d6000fd5b505050506040513d601f19601f82011682018060405250810190611f9b91906151c3565b505050505091509150611fad8261356f565b9350611fd4604051806040016040528060048152602001637469636b60e01b815250613590565b611fe08160020b6135d6565b50505060005b6000611ff3601487615252565b611ffd908561496c565b6120079087615045565b90508060000361201c579350611b2a92505050565b8761203d5761203883670de0b6b3a7640000611aae848d61496c565b612054565b612054670de0b6b3a764000084611aae848d61496c565b91506120698288670de0b6b3a76400006133dd565b91506120a96040518060400160405280600f81526020016e1cda5b5d5b185d195913dd5d1c1d5d608a1b815250828b6120a2919061496c565b848661361b565b6000806120cd8c8c6120bc600187615045565b6120c6908f61496c565b8d88612ade565b91509150816000146121915761210c60405180604001604052806011815260200170666f756e6420626f72726f77696e666f7360781b8152508361366a565b60005b81518110156121825761214182828151811061212d5761212d614983565b60200260200101516000015160020b6135d6565b61217082828151811061215657612156614983565b6020026020010151602001516001600160801b03166136b3565b8061217a816149d3565b91505061210f565b50829650505050505050611b2a565b61219c600187615080565b9550505050611fe6565b60008060008060005b88518110156123725760008073__$eacbb88ed4bd2af84aa4d43bcf675bcf7e$__639887b5898a8d86815181106121e8576121e8614983565b6020026020010151600001518b8f888151811061220757612207614983565b60200260200101516000015161221d9190614fc8565b6040516001600160e01b031960e086901b1681526001600160a01b039093166004840152600291820b6024840152900b60448201526064016040805180830381865af4158015612271573d6000803e3d6000fd5b505050506040513d601f19601f820116820180604052508101906122959190615266565b915091506122f78b84815181106122ae576122ae614983565b6020026020010151602001516001600160801b0316600160801b8d86815181106122da576122da614983565b60200260200101516060015185036133dd9092919063ffffffff16565b860195506123598b848151811061231057612310614983565b6020026020010151602001516001600160801b0316600160801b8d868151811061233c5761233c614983565b60200260200101516080015184036133dd9092919063ffffffff16565b850194505050808061236a906149d3565b9150506121af565b506000866001600160a01b0316633850c7bd6040518163ffffffff1660e01b815260040160e060405180830381865afa1580156123b3573d6000803e3d6000fd5b505050506040513d601f19601f820116820180604052508101906123d791906151c3565b50505050505090508715612417576124068160646123f682606561528a565b61240091906152bc565b866136f8565b6124109084615080565b915061244f565b61243881606461242882606561528a565b61243291906152bc565b85613734565b6124429085615080565b61244c9083615080565b91505b5061245d6002600019615252565b8111156124985760405162461bcd60e51b8152602060048201526009602482015268746f6f62696766656560b81b6044820152606401611554565b925050505b949350505050565b6000806000836001600160a01b0316630dfe16816040518163ffffffff1660e01b8152600401602060405180830381865afa1580156124e8573d6000803e3d6000fd5b505050506040513d601f19601f8201168201806040525081019061250c9190614999565b846001600160a01b031663d21220a76040518163ffffffff1660e01b8152600401602060405180830381865afa15801561254a573d6000803e3d6000fd5b505050506040513d601f19601f8201168201806040525081019061256e9190614999565b856001600160a01b031663ddca3f436040518163ffffffff1660e01b8152600401602060405180830381865afa1580156125ac573d6000803e3d6000fd5b505050506040513d601f19601f820116820180604052508101906125d091906149b6565b9196909550909350915050565b60606000600160009054906101000a90046001600160a01b03166001600160a01b031663d41dcbea6040518163ffffffff1660e01b8152600401600060405180830381865afa158015612634573d6000803e3d6000fd5b505050506040513d6000823e601f3d908101601f1916820160405261265c91908101906148bd565b90506000808251600461266f919061496c565b6001600160401b0381111561268657612686614032565b6040519080825280602002602001820160405280156126bf57816020015b6126ac613e7c565b8152602001906001900390816126a45790505b5090506126ca613e7c565b60005b8451811015612a2757600060405180606001604052808784815181106126f5576126f5614983565b60200260200101516001600160a01b0316630dfe16816040518163ffffffff1660e01b8152600401602060405180830381865afa15801561273a573d6000803e3d6000fd5b505050506040513d601f19601f8201168201806040525081019061275e9190614999565b6001600160a01b0316815260200187848151811061277e5761277e614983565b60200260200101516001600160a01b031663d21220a76040518163ffffffff1660e01b8152600401602060405180830381865afa1580156127c3573d6000803e3d6000fd5b505050506040513d601f19601f820116820180604052508101906127e79190614999565b6001600160a01b0316815260200187848151811061280757612807614983565b60200260200101516001600160a01b031663ddca3f436040518163ffffffff1660e01b8152600401602060405180830381865afa15801561284c573d6000803e3d6000fd5b505050506040513d601f19601f8201168201806040525081019061287091906149b6565b62ffffff1681525090506128a086838151811061288f5761288f614983565b602002602001015189600180611d4c565b6080810151909350156128e057808352835183908590879081106128c6576128c6614983565b602002602001018190525084806128dc906149d3565b9550505b6129078683815181106128f5576128f5614983565b60200260200101518960016000611d4c565b608081015190935015612947578083528351839085908790811061292d5761292d614983565b60200260200101819052508480612943906149d3565b9550505b61296e86838151811061295c5761295c614983565b60200260200101518960006001611d4c565b6080810151909350156129ae578083528351839085908790811061299457612994614983565b602002602001018190525084806129aa906149d3565b9550505b6129d48683815181106129c3576129c3614983565b602002602001015189600080611d4c565b608081015190935015612a1457808352835183908590879081106129fa576129fa614983565b60200260200101819052508480612a10906149d3565b9550505b5080612a1f816149d3565b9150506126cd565b506000836001600160401b03811115612a4257612a42614032565b604051908082528060200260200182016040528015612a7b57816020015b612a68613e7c565b815260200190600190039081612a605790505b50905060005b84811015612ad357838181518110612a9b57612a9b614983565b6020026020010151828281518110612ab557612ab5614983565b60200260200101819052508080612acb906149d3565b915050612a81565b509695505050505050565b60015460405163341a7c6b60e21b81526000916060916001600160a01b039091169063d069f1ac90612b1c908a908a908a908a908a906004016152e2565b600060405180830381865afa925050508015612b5a57506040513d6000823e601f3d908101601f19168201604052612b579190810190615313565b60015b612bbd57612b6661534f565b806308c379a003612bb15750612b7a61536b565b80612b855750612bb3565b612ba38188612b94818a615080565b612b9e9190615252565b61366a565b506000915060609050612bc3565b505b3d6000803e3d6000fd5b90925090505b9550959350505050565b60606000600160009054906101000a90046001600160a01b03166001600160a01b031663d41dcbea6040518163ffffffff1660e01b8152600401600060405180830381865afa158015612c24573d6000803e3d6000fd5b505050506040513d6000823e601f3d908101601f19168201604052612c4c91908101906148bd565b9050600081516002612c5e919061496c565b6001600160401b03811115612c7557612c75614032565b604051908082528060200260200182016040528015612cae57816020015b612c9b613e01565b815260200190600190039081612c935790505b5090506000805b8351811015612eeb5760006040518060600160405280868481518110612cdd57612cdd614983565b60200260200101516001600160a01b0316630dfe16816040518163ffffffff1660e01b8152600401602060405180830381865afa158015612d22573d6000803e3d6000fd5b505050506040513d601f19601f82011682018060405250810190612d469190614999565b6001600160a01b03168152602001868481518110612d6657612d66614983565b60200260200101516001600160a01b031663d21220a76040518163ffffffff1660e01b8152600401602060405180830381865afa158015612dab573d6000803e3d6000fd5b505050506040513d601f19601f82011682018060405250810190612dcf9190614999565b6001600160a01b03168152602001868481518110612def57612def614983565b60200260200101516001600160a01b031663ddca3f436040518163ffffffff1660e01b8152600401602060405180830381865afa158015612e34573d6000803e3d6000fd5b505050506040513d601f19601f82011682018060405250810190612e5891906149b6565b62ffffff168152509050612e8a87868481518110612e7857612e78614983565b60200260200101518360018789613770565b15612e9d5782612e99816149d3565b9350505b612ec587868481518110612eb357612eb3614983565b60200260200101518360008789613770565b15612ed85782612ed4816149d3565b9350505b5080612ee3816149d3565b915050612cb5565b506000816001600160401b03811115612f0657612f06614032565b604051908082528060200260200182016040528015612f3f57816020015b612f2c613e01565b815260200190600190039081612f245790505b50905060005b828110156106d957838181518110612f5f57612f5f614983565b6020026020010151828281518110612f7957612f79614983565b60200260200101819052508080612f8f906149d3565b915050612f45565b600080612fa6888a8789611d4c565b606081015190915063ffffffff16156130535760405180610140016040528088815260200187151581526020018615158152602001826040015163ffffffff168152602001826060015163ffffffff168152602001826080015181526020018260a0015181526020018260c0015181526020018260e00151815260200182610100015181525083858151811061303e5761303e614983565b60200260200101819052506001915050613059565b60009150505b979650505050505050565b6040516bffffffffffffffffffffffff19606085811b8216602084015284901b16603482015281151560f81b60488201526000906049016040516020818303038152906040528051906020012090509392505050565b60008060008360020b126130d1578260020b6130d9565b8260020b6000035b9050620d89e88111156130ff576040516315e4079d60e11b815260040160405180910390fd5b60008160011660000361311657600160801b613128565b6ffffcb933bd6fad37aa2d162d1a5940015b70ffffffffffffffffffffffffffffffffff169050600282161561315c576ffff97272373d413259a46990580e213a0260801c5b600482161561317b576ffff2e50f5f656932ef12357cf3c7fdcc0260801c5b600882161561319a576fffe5caca7e10e4e61c3624eaa0941cd00260801c5b60108216156131b9576fffcb9843d60f6159c9db58835c9266440260801c5b60208216156131d8576fff973b41fa98c081472e6896dfb254c00260801c5b60408216156131f7576fff2ea16466c96a3843ec78b326b528610260801c5b6080821615613216576ffe5dee046a99a2a811c461f1969c30530260801c5b610100821615613236576ffcbe86c7900a88aedcffc83b479aa3a40260801c5b610200821615613256576ff987a7253ac413176f2b074cf7815e540260801c5b610400821615613276576ff3392b0822b70005940c7a398e4b70f30260801c5b610800821615613296576fe7159475a2c29b7443b29c7fa6e889d90260801c5b6110008216156132b6576fd097f3bdfd2022b8845ad8f792aa58250260801c5b6120008216156132d6576fa9f746462d870fdf8a65dc1f90e061e50260801c5b6140008216156132f6576f70d869a156d2a1b890bb3df62baf32f70260801c5b618000821615613316576f31be135f97d08fd981231505542fcfa60260801c5b62010000821615613337576f09aa508b5b7a84e1c677de54f3e99bc90260801c5b62020000821615613357576e5d6af8dedb81196699c329225ee6040260801c5b62040000821615613376576d2216e584f5fa1ea926041bedfe980260801c5b62080000821615613393576b048a170391f7dc42444e8fa20260801c5b60008460020b13156133b45780600019816133b0576133b0614fed565b0490505b6401000000008106156133c85760016133cb565b60005b60ff16602082901c0192505050919050565b6000808060001985870985870292508281108382030391505080600003613416576000841161340b57600080fd5b508290049050611024565b80841161344e5760405162461bcd60e51b815260206004820152600660248201526536bab62234bb60d11b6044820152606401611554565b6000848688096000868103871696879004966002600389028118808a02820302808a02820302808a02820302808a02820302808a02820302808a02909103029181900381900460010186841190950394909402919094039290920491909117919091029150509392505050565b6000826001600160a01b0316846001600160a01b031611156134db579192915b6001600160a01b03841661351b600160601b600160e01b03606085901b1661350387876153f4565b6001600160a01b0316866001600160a01b03166133dd565b61249d9190615252565b6000826001600160a01b0316846001600160a01b03161115613545579192915b61249d6001600160801b03831661355c86866153f4565b6001600160a01b0316600160601b6133dd565b60008061357b83613acc565b90506110248182670de0b6b3a76400006133dd565b6135d3816040516024016135a4919061545a565b60408051601f198184030181529190526020810180516001600160e01b031663104c13eb60e21b179052613af3565b50565b6135d3816040516024016135ec91815260200190565b60408051601f198184030181529190526020810180516001600160e01b0316634e0c1d1d60e01b179052613af3565b61366484848484604051602401613635949392919061546d565b60408051601f198184030181529190526020810180516001600160e01b03166304772b3360e11b179052613af3565b50505050565b6136af828260405160240161368092919061549c565b60408051601f198184030181529190526020810180516001600160e01b03166309710a9d60e41b179052613af3565b5050565b6135d3816040516024016136c991815260200190565b60408051601f198184030181529190526020810180516001600160e01b031663f5b1bba960e01b179052613af3565b6000826001600160a01b0316846001600160a01b03161115613718579192915b6000613725858585613b14565b9050611b2a8585836000613bbe565b6000826001600160a01b0316846001600160a01b03161115613754579192915b6000613761858585613c2e565b9050611b2a8585836000613c64565b6000805460405163118272bf60e31b815282916001600160a01b031690638c1395f8906137a5908a908c908a90600401614a30565b600060405180830381865afa1580156137c2573d6000803e3d6000fd5b505050506040513d6000823e601f3d908101601f191682016040526137ea9190810190614b36565b60008054919250906001600160a01b0316635d4936ff61380b8a8c8a613064565b6040518263ffffffff1660e01b815260040161382991815260200190565b602060405180830381865afa158015613846573d6000803e3d6000fd5b505050506040513d601f19601f8201168201806040525081019061386a91906149fa565b602083015190915015613abb57604051806101800160405280888152602001871515815260200183600001516040015181526020018360000151606001518152602001836000015160c0015163ffffffff168152602001836000015160e0015163ffffffff16815260200182815260200183602001518152602001836040015181526020016138fa898c8a61102b565b8152602001896001600160a01b0316630dfe16816040518163ffffffff1660e01b8152600401602060405180830381865afa15801561393d573d6000803e3d6000fd5b505050506040513d601f19601f820116820180604052508101906139619190614999565b6001600160a01b031663313ce5676040518163ffffffff1660e01b8152600401602060405180830381865afa15801561399e573d6000803e3d6000fd5b505050506040513d601f19601f820116820180604052508101906139c29190614c72565b60ff168152602001896001600160a01b031663d21220a76040518163ffffffff1660e01b8152600401602060405180830381865afa158015613a08573d6000803e3d6000fd5b505050506040513d601f19601f82011682018060405250810190613a2c9190614999565b6001600160a01b031663313ce5676040518163ffffffff1660e01b8152600401602060405180830381865afa158015613a69573d6000803e3d6000fd5b505050506040513d601f19601f82011682018060405250810190613a8d9190614c72565b60ff16815250848681518110613aa557613aa5614983565b6020026020010181905250600192505050613ac2565b6000925050505b9695505050505050565b60006060613aeb6001600160a01b038416670de0b6b3a764000061496c565b901c92915050565b80516a636f6e736f6c652e6c6f67602083016000808483855afa5050505050565b6000826001600160a01b0316846001600160a01b03161115613b34579192915b6000613b57856001600160a01b0316856001600160a01b0316600160601b6133dd565b90508015613b8c57613b84613b7f8483613b7189896153f4565b6001600160a01b03166133dd565b613d10565b915050611024565b613b84613b7f613baa856001600160a01b038916613b718a8a6153f4565b866001600160a01b0316600160601b6133dd565b6000836001600160a01b0316856001600160a01b03161115613bde579293925b81613c0b57613c06836001600160801b03168686036001600160a01b0316600160601b6133dd565b611b2a565b611b2a836001600160801b03168686036001600160a01b0316600160601b613d56565b6000826001600160a01b0316846001600160a01b03161115613c4e579192915b61249d613b7f83600160601b613b7188886153f4565b6000836001600160a01b0316856001600160a01b03161115613c84579293925b600160601b600160e01b03606084901b166001600160a01b038686038116908716613cae57600080fd5b83613ce457866001600160a01b0316613cd18383896001600160a01b03166133dd565b81613cde57613cde614fed565b04612498565b612498613cfb8383896001600160a01b0316613d56565b886001600160a01b0316808204910615150190565b806001600160801b0381168114613d515760405162461bcd60e51b81526020600482015260056024820152640858d85cdd60da1b6044820152606401611554565b919050565b6000613d638484846133dd565b905060008280613d7557613d75614fed565b8486091115611024576000198110613d8c57600080fd5b6001019392505050565b604080516101a0810182526000610140820181815261016083018290526101808301829052825260208201819052918101829052606081018290526080810182905260a0810182905260c0810182905260e08101829052610100810182905261012081019190915290565b604080516101e081018252600061018082018181526101a083018290526101c08301829052825260208201819052918101829052606081018290526080810182905260a0810182905260c0810182905260e0810182905261010081018290526101208101829052610140810182905261016081019190915290565b60408051610180810182526000610120820181815261014083018290526101608301829052825260208201819052918101829052606081018290526080810182905260a0810182905260c0810182905260e0810182905261010081019190915290565b6001600160a01b03811681146135d357600080fd5b8035613d5181613edf565b600060208284031215613f1157600080fd5b813561102481613edf565b80516001600160a01b0390811683526020808301519091169083015260409081015162ffffff16910152565b602080825282518282018190526000919060409081850190868401855b82811015614025578151613f7a858251613f1c565b868101516060613f8d8188018315159052565b8783015191506080613fa28189018415159052565b90830151915060a090613fbc8883018463ffffffff169052565b830151915060c0613fd48882018463ffffffff169052565b9083015160e088810191909152908301516101008089019190915290830151610120808901919091529083015161014088015290910151610160860152506101809093019290850190600101613f65565b5091979650505050505050565b634e487b7160e01b600052604160045260246000fd5b606081018181106001600160401b038211171561406757614067614032565b60405250565b60c081018181106001600160401b038211171561406757614067614032565b60e081018181106001600160401b038211171561406757614067614032565b601f8201601f191681016001600160401b03811182821017156140d0576140d0614032565b6040525050565b60405161012081016001600160401b03811182821017156140fa576140fa614032565b60405290565b62ffffff811681146135d357600080fd5b60006060828403121561412357600080fd5b60405161412f81614048565b809150823561413d81613edf565b8152602083013561414d81613edf565b6020820152604083013561416081614100565b6040919091015292915050565b8060020b81146135d357600080fd5b8035613d518161416d565b6000806080838503121561419a57600080fd5b6141a48484614111565b915060608301356141b48161416d565b809150509250929050565b80151581146135d357600080fd5b6000806000606084860312156141e257600080fd5b83356141ed81613edf565b925060208401356141fd81613edf565b9150604084013561420d816141bf565b809150509250925092565b614223828251613f1c565b602081015180151560608401525060408101516080830152606081015160a0830152608081015161425c60c084018263ffffffff169052565b5060a081015163ffffffff1660e08381019190915260c0820151610100808501919091529082015161012080850191909152908201516101408085019190915290820151610160808501919091529082015160ff908116610180850152910151166101a090910152565b6101c08101610b988284614218565b600080600060a084860312156142ea57600080fd5b6142f48585614111565b9250606084013561430481613edf565b9150608084013561420d816141bf565b60006060828403121561432657600080fd5b50919050565b600080600060a0848603121561434157600080fd5b61434b8585614314565b9250606084013561435b8161416d565b9150608084013561420d8161416d565b60006001600160401b0382111561438457614384614032565b5060051b60200190565b6001600160801b03811681146135d357600080fd5b600082601f8301126143b457600080fd5b813560206143c18261436b565b604080516143cf83826140ab565b84815260c094850287018401948482019350888611156143ee57600080fd5b8488015b868110156144665781818b03121561440a5760008081fd5b83516144158161406d565b81356144208161416d565b81528187013561442f8161438e565b818801528185013585820152606080830135908201526080808301359082015260a0808301359082015285529385019381016143f2565b509098975050505050505050565b6000806080838503121561448757600080fd5b6144918484614314565b915060608301356001600160401b038111156144ac57600080fd5b6144b8858286016143a3565b9150509250929050565b60008060008060008587036101408112156144dc57600080fd5b86356001600160401b038111156144f257600080fd5b6144fe89828a016143a3565b965050602087013561450f816141bf565b945060c0603f198201121561452357600080fd5b506040516145308161406d565b60408701358152606087013560208201526080870135604082015260a0870135606082015260c0870135608082015260e087013560a08201528093505061457a6101008701613ef4565b9150614589610120870161417c565b90509295509295909350565b600080600080608085870312156145ab57600080fd5b84356145b681613edf565b935060208501356145c681613edf565b925060408501356145d6816141bf565b915060608501356145e6816141bf565b939692955090935050565b6145fc828251613f1c565b602081015115156060830152604081015163ffffffff8116608084015250606081015163ffffffff811660a084015250608081015160c083015260a081015160e083015260c0810151610100818185015260e08301516101208501528083015161014085015250505050565b6101608101610b9882846145f1565b600080600080600060e0868803121561468f57600080fd5b6146998787614314565b94506060860135935060808601356146b0816141bf565b9497939650939460a0810135945060c0013592915050565b600080600080608085870312156146de57600080fd5b84356001600160401b038111156146f457600080fd5b614700878288016143a3565b9450506020850135614711816141bf565b9250604085013561472181613edf565b915060608501356145e68161416d565b6020808252825182820181905260009190848201906040850190845b81811015614774576147608385516145f1565b92840192610160929092019160010161474d565b50909695505050505050565b600080600080600060e0868803121561479857600080fd5b6147a28787614314565b9450606086013593506080860135925060a08601356147c0816141bf565b9497939650919460c0013592915050565b805160020b82526001600160801b03602082015116602083015260408101516040830152606081015160608301526080810151608083015260a081015160a08301525050565b6000604082018483526020604081850152818551808452606086019150828701935060005b818110156148625761484f8386516147d1565b9383019360c0929092019160010161483c565b5090979650505050505050565b6020808252825182820181905260009190848201906040850190845b818110156147745761489e838551614218565b928401926101c0929092019160010161488b565b8051613d5181613edf565b600060208083850312156148d057600080fd5b82516001600160401b038111156148e657600080fd5b8301601f810185136148f757600080fd5b80516149028161436b565b60405161490f82826140ab565b82815260059290921b830184019184810191508783111561492f57600080fd5b928401925b8284101561305957835161494781613edf565b82529284019290840190614934565b634e487b7160e01b600052601160045260246000fd5b8082028115828204841417610b9857610b98614956565b634e487b7160e01b600052603260045260246000fd5b6000602082840312156149ab57600080fd5b815161102481613edf565b6000602082840312156149c857600080fd5b815161102481614100565b6000600182016149e5576149e5614956565b5060010190565b60608101610b988284613f1c565b600060208284031215614a0c57600080fd5b5051919050565b600060208284031215614a2557600080fd5b81516110248161438e565b6001600160a01b039384168152919092166020820152901515604082015260600190565b8051613d51816141bf565b805163ffffffff81168114613d5157600080fd5b600082601f830112614a8457600080fd5b81516020614a918261436b565b60408051614a9f83826140ab565b84815260c09485028701840194848201935088861115614abe57600080fd5b8488015b868110156144665781818b031215614ada5760008081fd5b8351614ae58161406d565b8151614af08161416d565b815281870151614aff8161438e565b818801528185015185820152606080830151908201526080808301519082015260a080830151908201528552938501938101614ac2565b600060208284031215614b4857600080fd5b81516001600160401b0380821115614b5f57600080fd5b9083019060608286031215614b7357600080fd5b604051614b7f81614048565b825182811115614b8e57600080fd5b83016101208188031215614ba157600080fd5b614ba96140d7565b614bb2826148b2565b8152614bc060208301614a54565b6020820152604082015160408201526060820151606082015260808201516080820152614bef60a08301614a5f565b60a0820152614c0060c08301614a5f565b60c0820152614c1160e08301614a5f565b60e08201526101008083015185811115614c2a57600080fd5b614c368a828601614a73565b8284015250508083525050602083015160208201526040830151604082015280935050505092915050565b805160ff81168114613d5157600080fd5b600060208284031215614c8457600080fd5b610b9582614c61565b600060c08284031215614c9f57600080fd5b604051614cab8161406d565b809150825181526020830151602082015260408301516040820152606083015160608201526080830151608082015260a083015160a08201525092915050565b805161ffff81168114613d5157600080fd5b60008060008385036101c0811215614d1457600080fd5b8451614d1f81613edf565b6020860151909450614d308161416d565b9250610180603f198201811315614d4657600080fd5b6040519150614d548261408c565b614d618760408801614c8d565b8252610100860151602083015261012086015160408301526101408601516060830152614d916101608701614ceb565b608083015285015160a08201526101a09094015160c0850152509093909250565b600060208284031215614dc457600080fd5b610b9582614a5f565b600060208284031215614ddf57600080fd5b81516001600160401b03811115614df557600080fd5b61249d84828501614a73565b805182526020810151602083015260408101516040830152606081015160608301526080810151608083015260a081015160a08301525050565b600081518084526020808501945080840160005b83811015614e7557614e628783516147d1565b60c0969096019590820190600101614e4f565b509495945050505050565b6001600160a01b038881168252871660208201528515156040820152600285900b606082015263ffffffff841660808201526000610180614ec460a0840186614e01565b80610160840152614ed781840185614e3b565b9a9950505050505050505050565b60008060408385031215614ef857600080fd5b82516001600160401b03811115614f0e57600080fd5b614f1a85828601614a73565b925050602083015190509250929050565b8035614f3681613edf565b6001600160a01b039081168352602082013590614f5282613edf565b1660208301526040810135614f6681614100565b62ffffff81166040840152505050565b60608101610b988284614f2b565b600060208284031215614f9657600080fd5b81516110248161416d565b6001600160801b03828116828216039080821115614fc157614fc1614956565b5092915050565b600281810b9083900b01627fffff8113627fffff1982121715610b9857610b98614956565b634e487b7160e01b600052601260045260246000fd5b60008260020b8061501657615016614fed565b808360020b0791505092915050565b6001600160801b03818116838216019080821115614fc157614fc1614956565b81810381811115610b9857610b98614956565b6001600160a01b0384168152600283900b6020820152610100810161249d6040830184614e01565b80820180821115610b9857610b98614956565b6001600160a01b03878116825286166020820152600285900b604082015263ffffffff8416606082015260006101606150cf6080840186614e01565b80610140840152611d3f81840185614e3b565b6000806000806000806000806000898b0361016081121561510257600080fd5b606081121561511057600080fd5b5060405161511d81614048565b8a5161512881613edf565b815260208b015161513881613edf565b602082015260408b015161514b81614100565b6040820152985061515e60608b01614a54565b975061516c60808b01614a5f565b965061517a60a08b01614a5f565b955060c08a0151945060e08a015193506101008a015192506101208a015191506101408a015190509295985092959850929598565b6000826151be576151be614fed565b500690565b600080600080600080600060e0888a0312156151de57600080fd5b87516151e981613edf565b60208901519097506151fa8161416d565b955061520860408901614ceb565b945061521660608901614ceb565b935061522460808901614ceb565b925061523260a08901614c61565b915060c0880151615242816141bf565b8091505092959891949750929550565b60008261526157615261614fed565b500490565b6000806040838503121561527957600080fd5b505080516020909101519092909150565b6001600160a01b038281168282168181028316929181158285048214176152b3576152b3614956565b50505092915050565b60006001600160a01b03838116806152d6576152d6614fed565b92169190910492915050565b60e081016152f08288614f2b565b6060820195909552608081019390935290151560a083015260c090910152919050565b6000806040838503121561532657600080fd5b8251915060208301516001600160401b0381111561534357600080fd5b6144b885828601614a73565b600060033d11156153685760046000803e5060005160e01c5b90565b600060443d10156153795790565b6040516003193d81016004833e81513d6001600160401b0381602484011181841117156153a857505050505090565b82850191508151818111156153c05750505050505090565b843d87010160208285010111156153da5750505050505090565b6153e9602082860101876140ab565b509095945050505050565b6001600160a01b03828116828216039080821115614fc157614fc1614956565b6000815180845260005b8181101561543a5760208185018101518683018201520161541e565b506000602082860101526020601f19601f83011685010191505092915050565b602081526000610b956020830184615414565b6080815260006154806080830187615414565b6020830195909552506040810192909252606090910152919050565b6040815260006154af6040830185615414565b9050826020830152939250505056fea26469706673582212208f5aa89cef5c934ba03a86376a98c8158cd66a7d1062858918d7cce1ab274c1964736f6c63430008150033",
    "linkReferences": {
      "src/PremiumComputer.sol": {
        "PremiumComputer": [
          {
            "start": 4768,
            "length": 20
          },
          {
            "start": 7589,
            "length": 20
          },
          {
            "start": 8862,
            "length": 20
          }
        ]
      }
    }
  },
  "methodIdentifiers": {
    "findMaxLeverageWithEstimatedSlippage((address,address,uint24),uint256,bool,uint256,uint256)": "ac636efb",
    "findTicks((address,address,uint24),uint256,uint256,bool,uint256)": "d069f1ac",
    "getActiveMarginPositions(address)": "dd65c328",
    "getActiveOrders(address)": "c53a490a",
    "getAddOrders(address)": "193a2436",
    "getBorrowedLiquidityInBin((address,address,uint24),int24)": "29aa3819",
    "getExpectedFeesOwed((int24,uint128,uint256,uint256,uint256,uint256)[],bool,address,int24)": "bc6312a5",
    "getExpectedInterestOwed((int24,uint128,uint256,uint256,uint256,uint256)[],bool,(uint256,uint256,uint256,uint256,uint256,uint256),address,int24)": "9983379d",
    "getExpectedPremiumOwed((address,address,uint24),address,bool)": "3aea807f",
    "getInstantaeneousRate((address,address,uint24),address,bool)": "a5f3f474",
    "getIsBorrowable((address,address,uint24),(int24,uint128,uint256,uint256,uint256,uint256)[])": "911f1b47",
    "getLiquidityInBin((address,address,uint24),int24)": "912a8e00",
    "getMarginPosition(address,address,bool)": "2d6cf1f4",
    "getMaxWithdrawable((address,address,uint24),int24,int24)": "8e68ad36",
    "getOrder(address,address,bool,bool)": "a9b6b32b",
    "getPoolkeys(address)": "c229a332",
    "getReduceOrders(address)": "060429f5"
  },
  "id": 58
}