{
  "_format": "hh-sol-artifact-1",
  "contractName": "DataProvider",
  "sourceName": "src/periphery/DataProvider.sol",
  "abi": [
    {
      "inputs": [
        {
          "internalType": "address",
          "name": "_poolManager",
          "type": "address"
        },
        {
          "internalType": "address",
          "name": "_marginFacility",
          "type": "address"
        },
        {
          "internalType": "address",
          "name": "borrowFacility",
          "type": "address"
        }
      ],
      "stateMutability": "nonpayable",
      "type": "constructor"
    },
    {
      "inputs": [],
      "name": "T",
      "type": "error"
    },
    {
      "inputs": [
        {
          "components": [
            {
              "internalType": "address",
              "name": "token0",
              "type": "address"
            },
            {
              "internalType": "address",
              "name": "token1",
              "type": "address"
            },
            {
              "internalType": "uint24",
              "name": "fee",
              "type": "uint24"
            }
          ],
          "internalType": "struct PoolKey",
          "name": "key",
          "type": "tuple"
        },
        {
          "internalType": "uint256",
          "name": "margin",
          "type": "uint256"
        },
        {
          "internalType": "bool",
          "name": "positionIsToken0",
          "type": "bool"
        },
        {
          "internalType": "uint256",
          "name": "slippage",
          "type": "uint256"
        },
        {
          "internalType": "uint256",
          "name": "startingLeverage",
          "type": "uint256"
        }
      ],
      "name": "findMaxLeverageWithEstimatedSlippage",
      "outputs": [
        {
          "internalType": "uint256",
          "name": "",
          "type": "uint256"
        }
      ],
      "stateMutability": "view",
      "type": "function"
    },
    {
      "inputs": [
        {
          "components": [
            {
              "internalType": "address",
              "name": "token0",
              "type": "address"
            },
            {
              "internalType": "address",
              "name": "token1",
              "type": "address"
            },
            {
              "internalType": "uint24",
              "name": "fee",
              "type": "uint24"
            }
          ],
          "internalType": "struct PoolKey",
          "name": "key",
          "type": "tuple"
        },
        {
          "internalType": "uint256",
          "name": "margin",
          "type": "uint256"
        },
        {
          "internalType": "uint256",
          "name": "borrowAmount",
          "type": "uint256"
        },
        {
          "internalType": "bool",
          "name": "positionIsToken0",
          "type": "bool"
        },
        {
          "internalType": "uint256",
          "name": "simulatedOutput",
          "type": "uint256"
        },
        {
          "internalType": "uint160",
          "name": "sqrtPriceX160",
          "type": "uint160"
        }
      ],
      "name": "findTicks",
      "outputs": [
        {
          "internalType": "uint256",
          "name": "",
          "type": "uint256"
        },
        {
          "components": [
            {
              "internalType": "int24",
              "name": "tick",
              "type": "int24"
            },
            {
              "internalType": "uint128",
              "name": "liquidity",
              "type": "uint128"
            },
            {
              "internalType": "uint256",
              "name": "premium",
              "type": "uint256"
            },
            {
              "internalType": "uint256",
              "name": "feeGrowthInside0LastX128",
              "type": "uint256"
            },
            {
              "internalType": "uint256",
              "name": "feeGrowthInside1LastX128",
              "type": "uint256"
            },
            {
              "internalType": "uint256",
              "name": "lastGrowth",
              "type": "uint256"
            }
          ],
          "internalType": "struct LiquidityLoan[]",
          "name": "",
          "type": "tuple[]"
        }
      ],
      "stateMutability": "view",
      "type": "function"
    },
    {
      "inputs": [
        {
          "internalType": "address",
          "name": "trader",
          "type": "address"
        }
      ],
      "name": "getActiveMarginPositions",
      "outputs": [
        {
          "components": [
            {
              "components": [
                {
                  "internalType": "address",
                  "name": "token0",
                  "type": "address"
                },
                {
                  "internalType": "address",
                  "name": "token1",
                  "type": "address"
                },
                {
                  "internalType": "uint24",
                  "name": "fee",
                  "type": "uint24"
                }
              ],
              "internalType": "struct PoolKey",
              "name": "poolKey",
              "type": "tuple"
            },
            {
              "internalType": "bool",
              "name": "isToken0",
              "type": "bool"
            },
            {
              "internalType": "uint256",
              "name": "totalDebtOutput",
              "type": "uint256"
            },
            {
              "internalType": "uint256",
              "name": "totalDebtInput",
              "type": "uint256"
            },
            {
              "internalType": "uint32",
              "name": "openTime",
              "type": "uint32"
            },
            {
              "internalType": "uint32",
              "name": "repayTime",
              "type": "uint32"
            },
            {
              "internalType": "uint256",
              "name": "premiumDeposit",
              "type": "uint256"
            },
            {
              "internalType": "uint256",
              "name": "totalPosition",
              "type": "uint256"
            },
            {
              "internalType": "uint256",
              "name": "margin",
              "type": "uint256"
            },
            {
              "internalType": "uint256",
              "name": "premiumOwed",
              "type": "uint256"
            },
            {
              "internalType": "uint8",
              "name": "token0Decimals",
              "type": "uint8"
            },
            {
              "internalType": "uint8",
              "name": "token1Decimals",
              "type": "uint8"
            },
            {
              "internalType": "uint256",
              "name": "maxWithdrawablePremium",
              "type": "uint256"
            },
            {
              "components": [
                {
                  "internalType": "int24",
                  "name": "tick",
                  "type": "int24"
                },
                {
                  "internalType": "uint128",
                  "name": "liquidity",
                  "type": "uint128"
                },
                {
                  "internalType": "uint256",
                  "name": "premium",
                  "type": "uint256"
                },
                {
                  "internalType": "uint256",
                  "name": "feeGrowthInside0LastX128",
                  "type": "uint256"
                },
                {
                  "internalType": "uint256",
                  "name": "feeGrowthInside1LastX128",
                  "type": "uint256"
                },
                {
                  "internalType": "uint256",
                  "name": "lastGrowth",
                  "type": "uint256"
                }
              ],
              "internalType": "struct LiquidityLoan[]",
              "name": "borrowInfo",
              "type": "tuple[]"
            }
          ],
          "internalType": "struct DataProvider.MarginPositionInfo[]",
          "name": "",
          "type": "tuple[]"
        }
      ],
      "stateMutability": "view",
      "type": "function"
    },
    {
      "inputs": [
        {
          "internalType": "address",
          "name": "trader",
          "type": "address"
        }
      ],
      "name": "getAddOrders",
      "outputs": [
        {
          "components": [
            {
              "components": [
                {
                  "internalType": "address",
                  "name": "token0",
                  "type": "address"
                },
                {
                  "internalType": "address",
                  "name": "token1",
                  "type": "address"
                },
                {
                  "internalType": "uint24",
                  "name": "fee",
                  "type": "uint24"
                }
              ],
              "internalType": "struct PoolKey",
              "name": "key",
              "type": "tuple"
            },
            {
              "internalType": "bool",
              "name": "isAdd",
              "type": "bool"
            },
            {
              "internalType": "bool",
              "name": "positionIsToken0",
              "type": "bool"
            },
            {
              "internalType": "uint32",
              "name": "auctionDeadline",
              "type": "uint32"
            },
            {
              "internalType": "uint32",
              "name": "auctionStartTime",
              "type": "uint32"
            },
            {
              "internalType": "uint256",
              "name": "startOutput",
              "type": "uint256"
            },
            {
              "internalType": "uint256",
              "name": "minOutput",
              "type": "uint256"
            },
            {
              "internalType": "uint256",
              "name": "inputAmount",
              "type": "uint256"
            },
            {
              "internalType": "uint256",
              "name": "decayRate",
              "type": "uint256"
            },
            {
              "internalType": "uint256",
              "name": "margin",
              "type": "uint256"
            },
            {
              "internalType": "uint256",
              "name": "currentOutput",
              "type": "uint256"
            },
            {
              "internalType": "uint256",
              "name": "token0Decimals",
              "type": "uint256"
            },
            {
              "internalType": "uint256",
              "name": "token1Decimals",
              "type": "uint256"
            }
          ],
          "internalType": "struct DataProvider.LimitOrderInfo[]",
          "name": "",
          "type": "tuple[]"
        }
      ],
      "stateMutability": "view",
      "type": "function"
    },
    {
      "inputs": [
        {
          "components": [
            {
              "internalType": "address",
              "name": "token0",
              "type": "address"
            },
            {
              "internalType": "address",
              "name": "token1",
              "type": "address"
            },
            {
              "internalType": "uint24",
              "name": "fee",
              "type": "uint24"
            }
          ],
          "internalType": "struct PoolKey",
          "name": "key",
          "type": "tuple"
        },
        {
          "internalType": "int24",
          "name": "tickLower",
          "type": "int24"
        },
        {
          "internalType": "int24",
          "name": "tickUpper",
          "type": "int24"
        }
      ],
      "name": "getBinsDataInBulk",
      "outputs": [
        {
          "components": [
            {
              "internalType": "uint256",
              "name": "price",
              "type": "uint256"
            },
            {
              "internalType": "uint256",
              "name": "token0Liquidity",
              "type": "uint256"
            },
            {
              "internalType": "uint256",
              "name": "token1Liquidity",
              "type": "uint256"
            },
            {
              "internalType": "uint256",
              "name": "token0Borrowed",
              "type": "uint256"
            },
            {
              "internalType": "uint256",
              "name": "token1Borrowed",
              "type": "uint256"
            }
          ],
          "internalType": "struct DataProvider.BinData[]",
          "name": "",
          "type": "tuple[]"
        }
      ],
      "stateMutability": "view",
      "type": "function"
    },
    {
      "inputs": [
        {
          "components": [
            {
              "internalType": "address",
              "name": "token0",
              "type": "address"
            },
            {
              "internalType": "address",
              "name": "token1",
              "type": "address"
            },
            {
              "internalType": "uint24",
              "name": "fee",
              "type": "uint24"
            }
          ],
          "internalType": "struct PoolKey",
          "name": "key",
          "type": "tuple"
        },
        {
          "internalType": "int24",
          "name": "tick",
          "type": "int24"
        }
      ],
      "name": "getBorrowedLiquidityInBin",
      "outputs": [
        {
          "internalType": "uint128",
          "name": "",
          "type": "uint128"
        }
      ],
      "stateMutability": "view",
      "type": "function"
    },
    {
      "inputs": [
        {
          "components": [
            {
              "internalType": "address",
              "name": "token0",
              "type": "address"
            },
            {
              "internalType": "address",
              "name": "token1",
              "type": "address"
            },
            {
              "internalType": "uint24",
              "name": "fee",
              "type": "uint24"
            }
          ],
          "internalType": "struct PoolKey",
          "name": "poolKey",
          "type": "tuple"
        },
        {
          "internalType": "address",
          "name": "trader",
          "type": "address"
        },
        {
          "internalType": "bool",
          "name": "positionIsToken0",
          "type": "bool"
        }
      ],
      "name": "getExpectedPremiumOwed",
      "outputs": [
        {
          "internalType": "uint256",
          "name": "",
          "type": "uint256"
        }
      ],
      "stateMutability": "view",
      "type": "function"
    },
    {
      "inputs": [
        {
          "components": [
            {
              "internalType": "address",
              "name": "token0",
              "type": "address"
            },
            {
              "internalType": "address",
              "name": "token1",
              "type": "address"
            },
            {
              "internalType": "uint24",
              "name": "fee",
              "type": "uint24"
            }
          ],
          "internalType": "struct PoolKey",
          "name": "key",
          "type": "tuple"
        },
        {
          "components": [
            {
              "internalType": "int24",
              "name": "tick",
              "type": "int24"
            },
            {
              "internalType": "uint128",
              "name": "liquidity",
              "type": "uint128"
            },
            {
              "internalType": "uint256",
              "name": "premium",
              "type": "uint256"
            },
            {
              "internalType": "uint256",
              "name": "feeGrowthInside0LastX128",
              "type": "uint256"
            },
            {
              "internalType": "uint256",
              "name": "feeGrowthInside1LastX128",
              "type": "uint256"
            },
            {
              "internalType": "uint256",
              "name": "lastGrowth",
              "type": "uint256"
            }
          ],
          "internalType": "struct LiquidityLoan[]",
          "name": "borrowInfo",
          "type": "tuple[]"
        }
      ],
      "name": "getIsBorrowable",
      "outputs": [
        {
          "internalType": "bool",
          "name": "",
          "type": "bool"
        }
      ],
      "stateMutability": "view",
      "type": "function"
    },
    {
      "inputs": [
        {
          "components": [
            {
              "internalType": "address",
              "name": "token0",
              "type": "address"
            },
            {
              "internalType": "address",
              "name": "token1",
              "type": "address"
            },
            {
              "internalType": "uint24",
              "name": "fee",
              "type": "uint24"
            }
          ],
          "internalType": "struct PoolKey",
          "name": "key",
          "type": "tuple"
        },
        {
          "internalType": "int24",
          "name": "tick",
          "type": "int24"
        }
      ],
      "name": "getLiquidityInBin",
      "outputs": [
        {
          "internalType": "uint128",
          "name": "",
          "type": "uint128"
        }
      ],
      "stateMutability": "view",
      "type": "function"
    },
    {
      "inputs": [
        {
          "internalType": "address",
          "name": "pool",
          "type": "address"
        },
        {
          "internalType": "address",
          "name": "trader",
          "type": "address"
        },
        {
          "internalType": "bool",
          "name": "isToken",
          "type": "bool"
        }
      ],
      "name": "getMarginPosition",
      "outputs": [
        {
          "components": [
            {
              "components": [
                {
                  "internalType": "address",
                  "name": "token0",
                  "type": "address"
                },
                {
                  "internalType": "address",
                  "name": "token1",
                  "type": "address"
                },
                {
                  "internalType": "uint24",
                  "name": "fee",
                  "type": "uint24"
                }
              ],
              "internalType": "struct PoolKey",
              "name": "poolKey",
              "type": "tuple"
            },
            {
              "internalType": "bool",
              "name": "isToken0",
              "type": "bool"
            },
            {
              "internalType": "uint256",
              "name": "totalDebtOutput",
              "type": "uint256"
            },
            {
              "internalType": "uint256",
              "name": "totalDebtInput",
              "type": "uint256"
            },
            {
              "internalType": "uint32",
              "name": "openTime",
              "type": "uint32"
            },
            {
              "internalType": "uint32",
              "name": "repayTime",
              "type": "uint32"
            },
            {
              "internalType": "uint256",
              "name": "premiumDeposit",
              "type": "uint256"
            },
            {
              "internalType": "uint256",
              "name": "totalPosition",
              "type": "uint256"
            },
            {
              "internalType": "uint256",
              "name": "margin",
              "type": "uint256"
            },
            {
              "internalType": "uint256",
              "name": "premiumOwed",
              "type": "uint256"
            },
            {
              "internalType": "uint8",
              "name": "token0Decimals",
              "type": "uint8"
            },
            {
              "internalType": "uint8",
              "name": "token1Decimals",
              "type": "uint8"
            },
            {
              "internalType": "uint256",
              "name": "maxWithdrawablePremium",
              "type": "uint256"
            },
            {
              "components": [
                {
                  "internalType": "int24",
                  "name": "tick",
                  "type": "int24"
                },
                {
                  "internalType": "uint128",
                  "name": "liquidity",
                  "type": "uint128"
                },
                {
                  "internalType": "uint256",
                  "name": "premium",
                  "type": "uint256"
                },
                {
                  "internalType": "uint256",
                  "name": "feeGrowthInside0LastX128",
                  "type": "uint256"
                },
                {
                  "internalType": "uint256",
                  "name": "feeGrowthInside1LastX128",
                  "type": "uint256"
                },
                {
                  "internalType": "uint256",
                  "name": "lastGrowth",
                  "type": "uint256"
                }
              ],
              "internalType": "struct LiquidityLoan[]",
              "name": "borrowInfo",
              "type": "tuple[]"
            }
          ],
          "internalType": "struct DataProvider.MarginPositionInfo",
          "name": "",
          "type": "tuple"
        }
      ],
      "stateMutability": "view",
      "type": "function"
    },
    {
      "inputs": [
        {
          "components": [
            {
              "internalType": "address",
              "name": "token0",
              "type": "address"
            },
            {
              "internalType": "address",
              "name": "token1",
              "type": "address"
            },
            {
              "internalType": "uint24",
              "name": "fee",
              "type": "uint24"
            }
          ],
          "internalType": "struct PoolKey",
          "name": "key",
          "type": "tuple"
        },
        {
          "internalType": "int24",
          "name": "tickLower",
          "type": "int24"
        },
        {
          "internalType": "int24",
          "name": "tickUpper",
          "type": "int24"
        }
      ],
      "name": "getMaxWithdrawable",
      "outputs": [
        {
          "internalType": "uint128",
          "name": "maxWithdrawable",
          "type": "uint128"
        }
      ],
      "stateMutability": "view",
      "type": "function"
    },
    {
      "inputs": [
        {
          "components": [
            {
              "internalType": "int24",
              "name": "tick",
              "type": "int24"
            },
            {
              "internalType": "uint128",
              "name": "liquidity",
              "type": "uint128"
            },
            {
              "internalType": "uint256",
              "name": "premium",
              "type": "uint256"
            },
            {
              "internalType": "uint256",
              "name": "feeGrowthInside0LastX128",
              "type": "uint256"
            },
            {
              "internalType": "uint256",
              "name": "feeGrowthInside1LastX128",
              "type": "uint256"
            },
            {
              "internalType": "uint256",
              "name": "lastGrowth",
              "type": "uint256"
            }
          ],
          "internalType": "struct LiquidityLoan[]",
          "name": "borrowInfo",
          "type": "tuple[]"
        }
      ],
      "name": "getMinMaxTicks",
      "outputs": [
        {
          "internalType": "int24",
          "name": "min",
          "type": "int24"
        },
        {
          "internalType": "int24",
          "name": "max",
          "type": "int24"
        }
      ],
      "stateMutability": "pure",
      "type": "function"
    },
    {
      "inputs": [
        {
          "internalType": "address",
          "name": "pool",
          "type": "address"
        },
        {
          "internalType": "address",
          "name": "trader",
          "type": "address"
        },
        {
          "internalType": "bool",
          "name": "positionIsToken0",
          "type": "bool"
        },
        {
          "internalType": "bool",
          "name": "isAdd",
          "type": "bool"
        }
      ],
      "name": "getOrder",
      "outputs": [
        {
          "components": [
            {
              "components": [
                {
                  "internalType": "address",
                  "name": "token0",
                  "type": "address"
                },
                {
                  "internalType": "address",
                  "name": "token1",
                  "type": "address"
                },
                {
                  "internalType": "uint24",
                  "name": "fee",
                  "type": "uint24"
                }
              ],
              "internalType": "struct PoolKey",
              "name": "key",
              "type": "tuple"
            },
            {
              "internalType": "bool",
              "name": "positionIsToken0",
              "type": "bool"
            },
            {
              "internalType": "uint32",
              "name": "auctionDeadline",
              "type": "uint32"
            },
            {
              "internalType": "uint32",
              "name": "auctionStartTime",
              "type": "uint32"
            },
            {
              "internalType": "uint256",
              "name": "startOutput",
              "type": "uint256"
            },
            {
              "internalType": "uint256",
              "name": "minOutput",
              "type": "uint256"
            },
            {
              "internalType": "uint256",
              "name": "inputAmount",
              "type": "uint256"
            },
            {
              "internalType": "uint256",
              "name": "decayRate",
              "type": "uint256"
            },
            {
              "internalType": "uint256",
              "name": "margin",
              "type": "uint256"
            }
          ],
          "internalType": "struct Order",
          "name": "order",
          "type": "tuple"
        }
      ],
      "stateMutability": "view",
      "type": "function"
    },
    {
      "inputs": [
        {
          "internalType": "address",
          "name": "pool",
          "type": "address"
        },
        {
          "internalType": "address",
          "name": "trader",
          "type": "address"
        },
        {
          "internalType": "bool",
          "name": "positionIsToken0",
          "type": "bool"
        },
        {
          "internalType": "bool",
          "name": "isAdd",
          "type": "bool"
        }
      ],
      "name": "getOrderInfo",
      "outputs": [
        {
          "components": [
            {
              "components": [
                {
                  "internalType": "address",
                  "name": "token0",
                  "type": "address"
                },
                {
                  "internalType": "address",
                  "name": "token1",
                  "type": "address"
                },
                {
                  "internalType": "uint24",
                  "name": "fee",
                  "type": "uint24"
                }
              ],
              "internalType": "struct PoolKey",
              "name": "key",
              "type": "tuple"
            },
            {
              "internalType": "bool",
              "name": "isAdd",
              "type": "bool"
            },
            {
              "internalType": "bool",
              "name": "positionIsToken0",
              "type": "bool"
            },
            {
              "internalType": "uint32",
              "name": "auctionDeadline",
              "type": "uint32"
            },
            {
              "internalType": "uint32",
              "name": "auctionStartTime",
              "type": "uint32"
            },
            {
              "internalType": "uint256",
              "name": "startOutput",
              "type": "uint256"
            },
            {
              "internalType": "uint256",
              "name": "minOutput",
              "type": "uint256"
            },
            {
              "internalType": "uint256",
              "name": "inputAmount",
              "type": "uint256"
            },
            {
              "internalType": "uint256",
              "name": "decayRate",
              "type": "uint256"
            },
            {
              "internalType": "uint256",
              "name": "margin",
              "type": "uint256"
            },
            {
              "internalType": "uint256",
              "name": "currentOutput",
              "type": "uint256"
            },
            {
              "internalType": "uint256",
              "name": "token0Decimals",
              "type": "uint256"
            },
            {
              "internalType": "uint256",
              "name": "token1Decimals",
              "type": "uint256"
            }
          ],
          "internalType": "struct DataProvider.LimitOrderInfo",
          "name": "order",
          "type": "tuple"
        }
      ],
      "stateMutability": "view",
      "type": "function"
    },
    {
      "inputs": [
        {
          "internalType": "address",
          "name": "pool",
          "type": "address"
        }
      ],
      "name": "getPoolkeys",
      "outputs": [
        {
          "internalType": "address",
          "name": "token0",
          "type": "address"
        },
        {
          "internalType": "address",
          "name": "token1",
          "type": "address"
        },
        {
          "internalType": "uint24",
          "name": "fee",
          "type": "uint24"
        }
      ],
      "stateMutability": "view",
      "type": "function"
    },
    {
      "inputs": [
        {
          "components": [
            {
              "internalType": "address",
              "name": "token0",
              "type": "address"
            },
            {
              "internalType": "address",
              "name": "token1",
              "type": "address"
            },
            {
              "internalType": "uint24",
              "name": "fee",
              "type": "uint24"
            }
          ],
          "internalType": "struct PoolKey",
          "name": "poolKey",
          "type": "tuple"
        },
        {
          "internalType": "address",
          "name": "trader",
          "type": "address"
        },
        {
          "internalType": "bool",
          "name": "positionIsToken0",
          "type": "bool"
        }
      ],
      "name": "getPostInstantaeneousRate",
      "outputs": [
        {
          "internalType": "uint256",
          "name": "",
          "type": "uint256"
        }
      ],
      "stateMutability": "view",
      "type": "function"
    },
    {
      "inputs": [
        {
          "components": [
            {
              "internalType": "address",
              "name": "token0",
              "type": "address"
            },
            {
              "internalType": "address",
              "name": "token1",
              "type": "address"
            },
            {
              "internalType": "uint24",
              "name": "fee",
              "type": "uint24"
            }
          ],
          "internalType": "struct PoolKey",
          "name": "poolKey",
          "type": "tuple"
        },
        {
          "components": [
            {
              "internalType": "int24",
              "name": "tick",
              "type": "int24"
            },
            {
              "internalType": "uint128",
              "name": "liquidity",
              "type": "uint128"
            },
            {
              "internalType": "uint256",
              "name": "premium",
              "type": "uint256"
            },
            {
              "internalType": "uint256",
              "name": "feeGrowthInside0LastX128",
              "type": "uint256"
            },
            {
              "internalType": "uint256",
              "name": "feeGrowthInside1LastX128",
              "type": "uint256"
            },
            {
              "internalType": "uint256",
              "name": "lastGrowth",
              "type": "uint256"
            }
          ],
          "internalType": "struct LiquidityLoan[]",
          "name": "borrowInfo",
          "type": "tuple[]"
        }
      ],
      "name": "getPreInstantaeneousRate",
      "outputs": [
        {
          "internalType": "uint256",
          "name": "",
          "type": "uint256"
        }
      ],
      "stateMutability": "view",
      "type": "function"
    },
    {
      "inputs": [
        {
          "internalType": "address",
          "name": "pool",
          "type": "address"
        },
        {
          "internalType": "address",
          "name": "trader",
          "type": "address"
        },
        {
          "internalType": "bool",
          "name": "positionIsToken0",
          "type": "bool"
        }
      ],
      "name": "getRangeCondition",
      "outputs": [
        {
          "internalType": "uint256",
          "name": "",
          "type": "uint256"
        }
      ],
      "stateMutability": "view",
      "type": "function"
    },
    {
      "inputs": [
        {
          "components": [
            {
              "internalType": "int24",
              "name": "tick",
              "type": "int24"
            },
            {
              "internalType": "uint128",
              "name": "liquidity",
              "type": "uint128"
            },
            {
              "internalType": "uint256",
              "name": "premium",
              "type": "uint256"
            },
            {
              "internalType": "uint256",
              "name": "feeGrowthInside0LastX128",
              "type": "uint256"
            },
            {
              "internalType": "uint256",
              "name": "feeGrowthInside1LastX128",
              "type": "uint256"
            },
            {
              "internalType": "uint256",
              "name": "lastGrowth",
              "type": "uint256"
            }
          ],
          "internalType": "struct LiquidityLoan[]",
          "name": "borrowInfo",
          "type": "tuple[]"
        },
        {
          "internalType": "bool",
          "name": "positionIsToken0",
          "type": "bool"
        },
        {
          "internalType": "int24",
          "name": "curTick",
          "type": "int24"
        },
        {
          "internalType": "int24",
          "name": "tickDiscretization",
          "type": "int24"
        }
      ],
      "name": "getRangeConditions",
      "outputs": [
        {
          "internalType": "uint256",
          "name": "",
          "type": "uint256"
        }
      ],
      "stateMutability": "pure",
      "type": "function"
    },
    {
      "inputs": [
        {
          "internalType": "address",
          "name": "trader",
          "type": "address"
        }
      ],
      "name": "getReduceOrders",
      "outputs": [
        {
          "components": [
            {
              "components": [
                {
                  "internalType": "address",
                  "name": "token0",
                  "type": "address"
                },
                {
                  "internalType": "address",
                  "name": "token1",
                  "type": "address"
                },
                {
                  "internalType": "uint24",
                  "name": "fee",
                  "type": "uint24"
                }
              ],
              "internalType": "struct PoolKey",
              "name": "key",
              "type": "tuple"
            },
            {
              "internalType": "bool",
              "name": "isAdd",
              "type": "bool"
            },
            {
              "internalType": "bool",
              "name": "positionIsToken0",
              "type": "bool"
            },
            {
              "internalType": "uint32",
              "name": "auctionDeadline",
              "type": "uint32"
            },
            {
              "internalType": "uint32",
              "name": "auctionStartTime",
              "type": "uint32"
            },
            {
              "internalType": "uint256",
              "name": "startOutput",
              "type": "uint256"
            },
            {
              "internalType": "uint256",
              "name": "minOutput",
              "type": "uint256"
            },
            {
              "internalType": "uint256",
              "name": "inputAmount",
              "type": "uint256"
            },
            {
              "internalType": "uint256",
              "name": "decayRate",
              "type": "uint256"
            },
            {
              "internalType": "uint256",
              "name": "margin",
              "type": "uint256"
            },
            {
              "internalType": "uint256",
              "name": "currentOutput",
              "type": "uint256"
            },
            {
              "internalType": "uint256",
              "name": "token0Decimals",
              "type": "uint256"
            },
            {
              "internalType": "uint256",
              "name": "token1Decimals",
              "type": "uint256"
            }
          ],
          "internalType": "struct DataProvider.LimitOrderInfo[]",
          "name": "",
          "type": "tuple[]"
        }
      ],
      "stateMutability": "view",
      "type": "function"
    },
    {
      "inputs": [
        {
          "components": [
            {
              "internalType": "address",
              "name": "token0",
              "type": "address"
            },
            {
              "internalType": "address",
              "name": "token1",
              "type": "address"
            },
            {
              "internalType": "uint24",
              "name": "fee",
              "type": "uint24"
            }
          ],
          "internalType": "struct PoolKey",
          "name": "key",
          "type": "tuple"
        },
        {
          "internalType": "int24",
          "name": "tickLower",
          "type": "int24"
        },
        {
          "internalType": "int24",
          "name": "tickUpper",
          "type": "int24"
        }
      ],
      "name": "getUtilAndAPR",
      "outputs": [
        {
          "internalType": "uint256",
          "name": "apr",
          "type": "uint256"
        },
        {
          "internalType": "uint256",
          "name": "utilTotal",
          "type": "uint256"
        }
      ],
      "stateMutability": "view",
      "type": "function"
    },
    {
      "inputs": [
        {
          "internalType": "bool",
          "name": "positionIsToken0",
          "type": "bool"
        },
        {
          "internalType": "int24",
          "name": "curTick",
          "type": "int24"
        },
        {
          "internalType": "int24",
          "name": "maxTick",
          "type": "int24"
        },
        {
          "internalType": "int24",
          "name": "minTick",
          "type": "int24"
        },
        {
          "internalType": "int24",
          "name": "tickDiscretization",
          "type": "int24"
        }
      ],
      "name": "rangeConditions",
      "outputs": [
        {
          "internalType": "uint256",
          "name": "",
          "type": "uint256"
        }
      ],
      "stateMutability": "pure",
      "type": "function"
    }
  ],
  "bytecode": "0x60806040523480156200001157600080fd5b5060405162005dd238038062005dd2833981016040819052620000349162000087565b50600080546001600160a01b039283166001600160a01b03199182161790915560018054939092169216919091179055620000d1565b80516001600160a01b03811681146200008257600080fd5b919050565b6000806000606084860312156200009d57600080fd5b620000a8846200006a565b9250620000b8602085016200006a565b9150620000c8604085016200006a565b90509250925092565b615cf180620000e16000396000f3fe608060405234801561001057600080fd5b50600436106101415760003560e01c80638e68ad36116100b8578063a55ac3eb1161007c578063a55ac3eb14610315578063a9b6b32b14610335578063ac636efb14610355578063c229a33214610368578063dd65c328146103a6578063dec8ae01146103c657600080fd5b80638e68ad3614610299578063911f1b47146102ac578063912a8e00146102cf5780639255bbc1146102e2578063a36b91681461030257600080fd5b8063288babd21161010a578063288babd2146101da57806329aa3819146101ed5780632d6cf1f4146102185780633aea807f1461023857806348c6f8661461024b57806384b885571461026c57600080fd5b80625295f214610146578063060429f51461016c578063091fcd871461018c578063193a24361461019f5780631f2ecd83146101b2575b600080fd5b6101596101543660046147d3565b6103d9565b6040519081526020015b60405180910390f35b61017f61017a36600461481d565b61066d565b604051610163919061491b565b61015961019a36600461496a565b610a44565b61017f6101ad36600461481d565b610d1e565b6101c56101c03660046149d1565b6110eb565b60408051928352602083019190915201610163565b6101596101e8366004614b19565b61136f565b6102006101fb366004614b8d565b61139b565b6040516001600160801b039091168152602001610163565b61022b61022636600461496a565b611489565b6040516101639190614d26565b6101596102463660046147d3565b6119a1565b61025e610259366004614d39565b611bc4565b604051610163929190614da0565b61027f61027a366004614db9565b611cb6565b60408051600293840b81529190920b602082015201610163565b6102006102a73660046149d1565b611d9d565b6102bf6102ba366004614ded565b612068565b6040519015158152602001610163565b6102006102dd366004614b8d565b612460565b6102f56102f0366004614e3b565b612499565b6040516101639190614e8c565b610159610310366004614e9b565b6128c1565b610328610323366004614f0c565b612938565b6040516101639190614f2b565b610348610343366004614e3b565b612d40565b6040516101639190614f99565b61015961036336600461501b565b612ec7565b61037b61037636600461481d565b6130e2565b604080516001600160a01b03948516815293909216602084015262ffffff1690820152606001610163565b6103b96103b436600461481d565b61321a565b604051610163919061506c565b6101596103d43660046150ce565b6135e4565b600154604051639525092360e01b81526000918291829182916001600160a01b0390911690639525092390610412908a906004016150eb565b6101c060405180830381865afa158015610430573d6000803e3d6000fd5b505050506040513d601f19601f820116820180604052508101906104549190615179565b600154604051632411122160e11b815293965091945092506000916001600160a01b039091169063482224429061048f908b906004016150eb565b602060405180830381865afa1580156104ac573d6000803e3d6000fd5b505050506040513d601f19601f820116820180604052508101906104d0919061522e565b6000805460405163d93a904760e01b815292935090916001600160a01b039091169063d93a90479061050a9088908c908c90600401615247565b602060405180830381865afa158015610527573d6000803e3d6000fd5b505050506040513d601f19601f8201168201806040525081019061054b919061527f565b6000805460405163657b5a4b60e01b815292935090916001600160a01b039091169063657b5a4b906105859089908d908d90600401615247565b600060405180830381865afa1580156105a2573d6000803e3d6000fd5b505050506040513d6000823e601f3d908101601f191682016040526105ca919081019061535d565b60018054865160405163aa7532af60e01b815293945073__$eacbb88ed4bd2af84aa4d43bcf675bcf7e$__9363aa7532af9361061c938c936001600160a01b03909116928c9289918c906004016153cb565b602060405180830381865af4158015610639573d6000803e3d6000fd5b505050506040513d601f19601f8201168201806040525081019061065d919061522e565b96505050505050505b9392505050565b60606000600160009054906101000a90046001600160a01b03166001600160a01b031663d41dcbea6040518163ffffffff1660e01b8152600401600060405180830381865afa1580156106c4573d6000803e3d6000fd5b505050506040513d6000823e601f3d908101601f191682016040526106ec9190810190615427565b90506000815160026106fe91906154d6565b6001600160401b038111156107155761071561468c565b60405190808252806020026020018201604052801561074e57816020015b61073b61455b565b8152602001906001900390816107335790505b5090506000805b835181101561098e576000604051806060016040528086848151811061077d5761077d6154ed565b60200260200101516001600160a01b0316630dfe16816040518163ffffffff1660e01b8152600401602060405180830381865afa1580156107c2573d6000803e3d6000fd5b505050506040513d601f19601f820116820180604052508101906107e69190615503565b6001600160a01b03168152602001868481518110610806576108066154ed565b60200260200101516001600160a01b031663d21220a76040518163ffffffff1660e01b8152600401602060405180830381865afa15801561084b573d6000803e3d6000fd5b505050506040513d601f19601f8201168201806040525081019061086f9190615503565b6001600160a01b0316815260200186848151811061088f5761088f6154ed565b60200260200101516001600160a01b031663ddca3f436040518163ffffffff1660e01b8152600401602060405180830381865afa1580156108d4573d6000803e3d6000fd5b505050506040513d601f19601f820116820180604052508101906108f89190615520565b62ffffff16815250905061092c87868481518110610918576109186154ed565b60200260200101518360006001888a61377c565b1561093f578261093b8161553d565b9350505b61096887868481518110610955576109556154ed565b602002602001015183600080888a61377c565b1561097b57826109778161553d565b9350505b50806109868161553d565b915050610755565b506000816001600160401b038111156109a9576109a961468c565b6040519080825280602002602001820160405280156109e257816020015b6109cf61455b565b8152602001906001900390816109c75790505b50905060005b82811015610a3a57838181518110610a0257610a026154ed565b6020026020010151828281518110610a1c57610a1c6154ed565b60200260200101819052508080610a329061553d565b9150506109e8565b5095945050505050565b6000805460405163118272bf60e31b815282916001600160a01b031690638c1395f890610a7990889088908890600401615247565b600060405180830381865afa158015610a96573d6000803e3d6000fd5b505050506040513d6000823e601f3d908101601f19168201604052610abe9190810190615561565b90506000856001600160a01b0316633850c7bd6040518163ffffffff1660e01b815260040160e060405180830381865afa158015610b00573d6000803e3d6000fd5b505050506040513d601f19601f82011682018060405250810190610b24919061567c565b505050505091505060006040518060600160405280886001600160a01b0316630dfe16816040518163ffffffff1660e01b8152600401602060405180830381865afa158015610b77573d6000803e3d6000fd5b505050506040513d601f19601f82011682018060405250810190610b9b9190615503565b6001600160a01b03168152602001886001600160a01b031663d21220a76040518163ffffffff1660e01b8152600401602060405180830381865afa158015610be7573d6000803e3d6000fd5b505050506040513d601f19601f82011682018060405250810190610c0b9190615503565b6001600160a01b03168152602001886001600160a01b031663ddca3f436040518163ffffffff1660e01b8152600401602060405180830381865afa158015610c57573d6000803e3d6000fd5b505050506040513d601f19601f82011682018060405250810190610c7b9190615520565b62ffffff169052600154604051639525092360e01b81529192506000916001600160a01b0390911690639525092390610cb89085906004016150eb565b6101c060405180830381865afa158015610cd6573d6000803e3d6000fd5b505050506040513d601f19601f82011682018060405250810190610cfa9190615179565b50915050610d12846000015160c0015187858461136f565b98975050505050505050565b60606000600160009054906101000a90046001600160a01b03166001600160a01b031663d41dcbea6040518163ffffffff1660e01b8152600401600060405180830381865afa158015610d75573d6000803e3d6000fd5b505050506040513d6000823e601f3d908101601f19168201604052610d9d9190810190615427565b9050600081516002610daf91906154d6565b6001600160401b03811115610dc657610dc661468c565b604051908082528060200260200182016040528015610dff57816020015b610dec61455b565b815260200190600190039081610de45790505b5090506000805b835181101561103f5760006040518060600160405280868481518110610e2e57610e2e6154ed565b60200260200101516001600160a01b0316630dfe16816040518163ffffffff1660e01b8152600401602060405180830381865afa158015610e73573d6000803e3d6000fd5b505050506040513d601f19601f82011682018060405250810190610e979190615503565b6001600160a01b03168152602001868481518110610eb757610eb76154ed565b60200260200101516001600160a01b031663d21220a76040518163ffffffff1660e01b8152600401602060405180830381865afa158015610efc573d6000803e3d6000fd5b505050506040513d601f19601f82011682018060405250810190610f209190615503565b6001600160a01b03168152602001868481518110610f4057610f406154ed565b60200260200101516001600160a01b031663ddca3f436040518163ffffffff1660e01b8152600401602060405180830381865afa158015610f85573d6000803e3d6000fd5b505050506040513d601f19601f82011682018060405250810190610fa99190615520565b62ffffff168152509050610fdc87868481518110610fc957610fc96154ed565b602002602001015183600180888a61377c565b15610fef5782610feb8161553d565b9350505b61101987868481518110611005576110056154ed565b60200260200101518360016000888a61377c565b1561102c57826110288161553d565b9350505b50806110378161553d565b915050610e06565b506000816001600160401b0381111561105a5761105a61468c565b60405190808252806020026020018201604052801561109357816020015b61108061455b565b8152602001906001900390816110785790505b50905060005b82811015610a3a578381815181106110b3576110b36154ed565b60200260200101518282815181106110cd576110cd6154ed565b602002602001018190525080806110e39061553d565b915050611099565b600154604051639525092360e01b815260009182918291829182916001600160a01b031690639525092390611124908b90600401615756565b6101c060405180830381865afa158015611142573d6000803e3d6000fd5b505050506040513d601f19601f820116820180604052508101906111669190615179565b925092509250600080600080866001600160a01b0316633850c7bd6040518163ffffffff1660e01b815260040160e060405180830381865afa1580156111b0573d6000803e3d6000fd5b505050506040513d601f19601f820116820180604052508101906111d4919061567c565b509395508f9450505050505b8a60020b8160020b121561131557611206611200368f90038f018f615764565b82612460565b945061122061121a368f90038f018f615764565b8261139b565b93506001600160801b03851615611304576112516001600160801b0385811690670de0b6b3a7640000908816613a54565b8651604051630ca73f1f60e21b81529194506112eb918591670de0b6b3a76400009173__$eacbb88ed4bd2af84aa4d43bcf675bcf7e$__9163329cfc7c916112a3918e9187908b908b90600401615780565b602060405180830381865af41580156112c0573d6000803e3d6000fd5b505050506040513d601f19601f820116820180604052508101906112e4919061522e565b9190613a54565b6112f5908b6157bb565b9950611301838a6157bb565b98505b61130e87826157ce565b90506111e0565b505050505081878761132791906157f3565b611331919061582e565b61133e9060020b86615868565b94508161134b88886157f3565b611355919061582e565b6113629060020b85615868565b9350505050935093915050565b600080600061137d87611cb6565b9150915061138e86868385886128c1565b925050505b949350505050565b600154604051632411122160e11b81526000916001600160a01b0316906319fda2779082906348222442906113d49088906004016150eb565b602060405180830381865afa1580156113f1573d6000803e3d6000fd5b505050506040513d601f19601f82011682018060405250810190611415919061522e565b846040518363ffffffff1660e01b815260040161143f92919091825260020b602082015260400190565b602060405180830381865afa15801561145c573d6000803e3d6000fd5b505050506040513d601f19601f82011682018060405250810190611480919061587c565b90505b92915050565b6114916145ee565b60006040518060600160405280866001600160a01b0316630dfe16816040518163ffffffff1660e01b8152600401602060405180830381865afa1580156114dc573d6000803e3d6000fd5b505050506040513d601f19601f820116820180604052508101906115009190615503565b6001600160a01b03168152602001866001600160a01b031663d21220a76040518163ffffffff1660e01b8152600401602060405180830381865afa15801561154c573d6000803e3d6000fd5b505050506040513d601f19601f820116820180604052508101906115709190615503565b6001600160a01b03168152602001866001600160a01b031663ddca3f436040518163ffffffff1660e01b8152600401602060405180830381865afa1580156115bc573d6000803e3d6000fd5b505050506040513d601f19601f820116820180604052508101906115e09190615520565b62ffffff1690526000805460405163118272bf60e31b815292935090916001600160a01b0390911690638c1395f89061162190899089908990600401615247565b600060405180830381865afa15801561163e573d6000803e3d6000fd5b505050506040513d6000823e601f3d908101601f191682016040526116669190810190615561565b60008054919250906001600160a01b0316635d4936ff611687898989613b32565b6040518263ffffffff1660e01b81526004016116a591815260200190565b602060405180830381865afa1580156116c2573d6000803e3d6000fd5b505050506040513d601f19601f820116820180604052508101906116e6919061522e565b905060006116f58488886119a1565b9050604051806101c00160405280858152602001871515815260200184600001516040015181526020018460000151606001518152602001846000015160a0015163ffffffff16815260200184600001516080015163ffffffff1681526020018381526020018460200151815260200184604001518152602001828152602001896001600160a01b0316630dfe16816040518163ffffffff1660e01b8152600401602060405180830381865afa1580156117b3573d6000803e3d6000fd5b505050506040513d601f19601f820116820180604052508101906117d79190615503565b6001600160a01b031663313ce5676040518163ffffffff1660e01b8152600401602060405180830381865afa158015611814573d6000803e3d6000fd5b505050506040513d601f19601f820116820180604052508101906118389190615899565b60ff168152602001896001600160a01b031663d21220a76040518163ffffffff1660e01b8152600401602060405180830381865afa15801561187e573d6000803e3d6000fd5b505050506040513d601f19601f820116820180604052508101906118a29190615503565b6001600160a01b031663313ce5676040518163ffffffff1660e01b8152600401602060405180830381865afa1580156118df573d6000803e3d6000fd5b505050506040513d601f19601f820116820180604052508101906119039190615899565b60ff168152600054604051632be197cf60e01b81526020909201916001600160a01b0390911690632be197cf906119429089908d908d906004016158b4565b602060405180830381865afa15801561195f573d6000803e3d6000fd5b505050506040513d601f19601f82011682018060405250810190611983919061522e565b8152602001846000015160c001518152509450505050509392505050565b600154604051639525092360e01b81526000918291829182916001600160a01b03909116906395250923906119da908a906004016150eb565b6101c060405180830381865afa1580156119f8573d6000803e3d6000fd5b505050506040513d601f19601f82011682018060405250810190611a1c9190615179565b6000805460405163d93a904760e01b8152949750929550909350916001600160a01b039091169063d93a904790611a5b9087908b908b90600401615247565b602060405180830381865afa158015611a78573d6000803e3d6000fd5b505050506040513d601f19601f82011682018060405250810190611a9c919061527f565b6000805460405163657b5a4b60e01b815292935090916001600160a01b039091169063657b5a4b90611ad69088908c908c90600401615247565b600060405180830381865afa158015611af3573d6000803e3d6000fd5b505050506040513d6000823e601f3d908101601f19168201604052611b1b919081019061535d565b6001548451604051632c9d4b2b60e21b815292935060009273__$eacbb88ed4bd2af84aa4d43bcf675bcf7e$__9263b2752cac92611b70928b926001600160a01b0316918e15918c918b918b906004016158e1565b600060405180830381865af4158015611b8d573d6000803e3d6000fd5b505050506040513d6000823e601f3d908101601f19168201604052611bb59190810190615946565b9b9a5050505050505050505050565b6001546040516324637c3360e11b81526000916060916001600160a01b03909116906348c6f86690611c04908b908b908b908b908b908b9060040161598c565b600060405180830381865afa925050508015611c4257506040513d6000823e601f3d908101601f19168201604052611c3f91908101906159cc565b60015b611ca557611c4e615a08565b806308c379a003611c995750611c62615a23565b80611c6d5750611c9b565b611c8b8189611c7c818b6157bb565b611c869190615868565b613b88565b506000915060609050611cab565b505b3d6000803e3d6000fd5b90925090505b965096945050505050565b60008082600081518110611ccc57611ccc6154ed565b602090810291909101015151915081905060015b8351811015611d97578260020b848281518110611cff57611cff6154ed565b60200260200101516000015160020b1215611d3957838181518110611d2657611d266154ed565b6020026020010151600001519250611d85565b8160020b848281518110611d4f57611d4f6154ed565b60200260200101516000015160020b1315611d8557838181518110611d7657611d766154ed565b60200260200101516000015191505b80611d8f8161553d565b915050611ce0565b50915091565b600154604051632411122160e11b815260009182916001600160a01b0390911690634822244290611dd2908890600401615756565b602060405180830381865afa158015611def573d6000803e3d6000fd5b505050506040513d601f19601f82011682018060405250810190611e13919061522e565b6001546040516315083fbb60e31b8152600481018390529192506000916001600160a01b039091169063a841fdd890602401602060405180830381865afa158015611e62573d6000803e3d6000fd5b505050506040513d601f19601f82011682018060405250810190611e86919061522e565b600154604051630ca32ed160e31b8152600481018590529192506000916001600160a01b0390911690636519768890602401602060405180830381865afa158015611ed5573d6000803e3d6000fd5b505050506040513d601f19601f82011682018060405250810190611ef99190615aac565b6001600160801b03945090506000808080895b8960020b8160020b12156120595760015460405163da69b0b360e01b8152600481018a9052600283900b60248201526001600160a01b039091169063da69b0b390604401602060405180830381865afa158015611f6d573d6000803e3d6000fd5b505050506040513d601f19601f82011682018060405250810190611f91919061587c565b6001546040516319fda27760e01b8152600481018b9052600284900b60248201529196508895506001600160a01b0316906319fda27790604401602060405180830381865afa158015611fe8573d6000803e3d6000fd5b505050506040513d601f19601f8201168201806040525081019061200c919061587c565b9250826120198587615ac9565b6120239190615ac9565b9150886001600160801b0316826001600160801b0316106120445788612046565b815b985061205286826157ce565b9050611f0c565b50505050505050509392505050565b6000808251116120ac5760405162461bcd60e51b815260206004820152600a602482015269656d70747920696e666f60b01b60448201526064015b60405180910390fd5b600154604051632411122160e11b8152600091829182916001600160a01b0316906348222442906120e1908990600401615756565b602060405180830381865afa1580156120fe573d6000803e3d6000fd5b505050506040513d601f19601f82011682018060405250810190612122919061522e565b600154604051630ca32ed160e31b8152600481018390529192506000916001600160a01b0390911690636519768890602401602060405180830381865afa158015612171573d6000803e3d6000fd5b505050506040513d601f19601f820116820180604052508101906121959190615aac565b6001546040516315083fbb60e31b8152600481018590529192506000916001600160a01b039091169063a841fdd890602401602060405180830381865afa1580156121e4573d6000803e3d6000fd5b505050506040513d601f19601f82011682018060405250810190612208919061522e565b905060005b87518110156124515782888281518110612229576122296154ed565b60200260200101516000015161223f9190615af0565b60020b1561227d5760405162461bcd60e51b815260206004820152600b60248201526a696e76616c69645469636b60a81b60448201526064016120a3565b60015488516001600160a01b039091169063da69b0b39086908b90859081106122a8576122a86154ed565b6020026020010151600001516040518363ffffffff1660e01b81526004016122dd92919091825260020b602082015260400190565b602060405180830381865afa1580156122fa573d6000803e3d6000fd5b505050506040513d601f19601f8201168201806040525081019061231e919061587c565b9550856001600160801b03166000036123405760009650505050505050611483565b60015488516001600160a01b03909116906319fda2779086908b908590811061236b5761236b6154ed565b6020026020010151600001516040518363ffffffff1660e01b81526004016123a092919091825260020b602082015260400190565b602060405180830381865afa1580156123bd573d6000803e3d6000fd5b505050506040513d601f19601f820116820180604052508101906123e1919061587c565b94508781815181106123f5576123f56154ed565b6020026020010151602001518561240c9190615b12565b6001600160801b031682876001600160801b031661242a9190615b32565b101561243f5760009650505050505050611483565b806124498161553d565b91505061220d565b50600198975050505050505050565b600154604051632411122160e11b81526000916001600160a01b03169063da69b0b39082906348222442906113d49088906004016150eb565b6124a161455b565b60006040518060600160405280876001600160a01b0316630dfe16816040518163ffffffff1660e01b8152600401602060405180830381865afa1580156124ec573d6000803e3d6000fd5b505050506040513d601f19601f820116820180604052508101906125109190615503565b6001600160a01b03168152602001876001600160a01b031663d21220a76040518163ffffffff1660e01b8152600401602060405180830381865afa15801561255c573d6000803e3d6000fd5b505050506040513d601f19601f820116820180604052508101906125809190615503565b6001600160a01b03168152602001876001600160a01b031663ddca3f436040518163ffffffff1660e01b8152600401602060405180830381865afa1580156125cc573d6000803e3d6000fd5b505050506040513d601f19601f820116820180604052508101906125f09190615520565b62ffffff1690529050600061260787878787612d40565b606081015190915063ffffffff16156128b75760008160e0015160001461265a57612655826060015163ffffffff16426126419190615b32565b60e084015190670de0b6b3a7640000613bd1565b612664565b670de0b6b3a76400005b60808301519091506000906126829083670de0b6b3a7640000613a54565b9050808360a0015111612695578061269b565b8260a001515b9050604051806101a0016040528085815260200187151581526020018815158152602001846040015163ffffffff168152602001846060015163ffffffff168152602001846080015181526020018460a0015181526020018460c0015181526020018460e00151815260200184610100015181526020018281526020018a6001600160a01b0316630dfe16816040518163ffffffff1660e01b8152600401602060405180830381865afa158015612756573d6000803e3d6000fd5b505050506040513d601f19601f8201168201806040525081019061277a9190615503565b6001600160a01b031663313ce5676040518163ffffffff1660e01b8152600401602060405180830381865afa1580156127b7573d6000803e3d6000fd5b505050506040513d601f19601f820116820180604052508101906127db9190615899565b60ff1681526020018a6001600160a01b031663d21220a76040518163ffffffff1660e01b8152600401602060405180830381865afa158015612821573d6000803e3d6000fd5b505050506040513d601f19601f820116820180604052508101906128459190615503565b6001600160a01b031663313ce5676040518163ffffffff1660e01b8152600401602060405180830381865afa158015612882573d6000803e3d6000fd5b505050506040513d601f19601f820116820180604052508101906128a69190615899565b60ff16815250945050505050611393565b5050949350505050565b6000856128d6578260020b8560020b126128ea565b6128e082856157ce565b60020b8560020b12155b156128f75750600161292f565b856129145761290682856157ce565b60020b8560020b121561291e565b8260020b8560020b125b1561292b5750600261292f565b5060035b95945050505050565b600154604051632411122160e11b815260609184916000916001600160a01b03169063482224429061296e9089906004016150eb565b602060405180830381865afa15801561298b573d6000803e3d6000fd5b505050506040513d601f19601f820116820180604052508101906129af919061522e565b600154604051639525092360e01b815291925060009182916001600160a01b0316906395250923906129e5908b906004016150eb565b6101c060405180830381865afa158015612a03573d6000803e3d6000fd5b505050506040513d601f19601f82011682018060405250810190612a279190615179565b50909250905080612a38818961582e565b612a429190615b45565b965080612a4f818861582e565b612a599190615b45565b9550600081612a6889896157f3565b612a72919061582e565b60020b6001600160401b03811115612a8c57612a8c61468c565b604051908082528060200260200182016040528015612aef57816020015b612adc6040518060a0016040528060008152602001600081526020016000815260200160008152602001600081525090565b815260200190600190039081612aaa5790505b509050600080846001600160a01b0316633850c7bd6040518163ffffffff1660e01b815260040160e060405180830381865afa158015612b33573d6000803e3d6000fd5b505050506040513d601f19601f82011682018060405250810190612b57919061567c565b50505050505090505b8860020b8760020b1215612d3157612c0a81612b7b89613c8f565b612b8d612b88888c6157ce565b613c8f565b60015460405163da69b0b360e01b8152600481018c905260028d900b60248201526001600160a01b039091169063da69b0b3906044015b602060405180830381865afa158015612be1573d6000803e3d6000fd5b505050506040513d601f19601f82011682018060405250810190612c05919061587c565b613fb2565b848481518110612c1c57612c1c6154ed565b6020026020010151602001858581518110612c3957612c396154ed565b60209081029190910101516040019190915252612ca181612c5989613c8f565b612c66612b88888c6157ce565b6001546040516319fda27760e01b8152600481018c905260028d900b60248201526001600160a01b03909116906319fda27790604401612bc4565b848481518110612cb357612cb36154ed565b6020026020010151606001858581518110612cd057612cd06154ed565b60209081029190910101516080019190915252612cf4612cef88613c8f565b61404e565b838381518110612d0657612d066154ed565b60209081029190910101515281612d1c8161553d565b9250612d2a905084886157ce565b9650612b60565b50909998505050505050505050565b60408051610180810182526000610120820181815261014083018290526101608301829052825260208201819052918101829052606081018290526080810182905260a0810182905260c0810182905260e0810182905261010081019190915260005460405163bfd4c2a560e01b81526001600160a01b03878116600483015286811660248301528515156044830152841515606483015290911690639c3f1e9090829063bfd4c2a590608401602060405180830381865afa158015612e0a573d6000803e3d6000fd5b505050506040513d601f19601f82011682018060405250810190612e2e919061522e565b6040518263ffffffff1660e01b8152600401612e4c91815260200190565b61016060405180830381865afa158015612e6a573d6000803e3d6000fd5b505050506040513d601f19601f82011682018060405250810190612e8e9190615b65565b6101008a01525060c088015260a0870152608086015263ffffffff90811660608601521660408401521515602083015250949350505050565b6000612ed4601483615c32565b15612f075760405162461bcd60e51b81526020600482015260036024820152621b5bd960ea1b60448201526064016120a3565b600154604051639525092360e01b815260009182918291829182916001600160a01b031690639525092390612f40908e90600401615756565b6101c060405180830381865afa158015612f5e573d6000803e3d6000fd5b505050506040513d601f19601f82011682018060405250810190612f829190615179565b50509050806001600160a01b0316633850c7bd6040518163ffffffff1660e01b815260040160e060405180830381865afa158015612fc4573d6000803e3d6000fd5b505050506040513d601f19601f82011682018060405250810190612fe8919061567c565b50949750929550612fff935086925061404e915050565b935050505b6000613011601487615868565b61301b90856154d6565b6130259087615b32565b90508060000361303a57935061292f92505050565b60008861305d5761305884670de0b6b3a76400006112e4858e6154d6565b613074565b613074670de0b6b3a7640000856112e4858e6154d6565b90506130898189670de0b6b3a7640000613a54565b90506000806130b18d8d61309e600188615b32565b8f6130a991906154d6565b8e878a611bc4565b91509150816000146130cc578397505050505050505061292f565b6130d76001886157bb565b965050505050613004565b6000806000836001600160a01b0316630dfe16816040518163ffffffff1660e01b8152600401602060405180830381865afa158015613125573d6000803e3d6000fd5b505050506040513d601f19601f820116820180604052508101906131499190615503565b846001600160a01b031663d21220a76040518163ffffffff1660e01b8152600401602060405180830381865afa158015613187573d6000803e3d6000fd5b505050506040513d601f19601f820116820180604052508101906131ab9190615503565b856001600160a01b031663ddca3f436040518163ffffffff1660e01b8152600401602060405180830381865afa1580156131e9573d6000803e3d6000fd5b505050506040513d601f19601f8201168201806040525081019061320d9190615520565b9196909550909350915050565b60606000600160009054906101000a90046001600160a01b03166001600160a01b031663d41dcbea6040518163ffffffff1660e01b8152600401600060405180830381865afa158015613271573d6000803e3d6000fd5b505050506040513d6000823e601f3d908101601f191682016040526132999190810190615427565b90506000815160026132ab91906154d6565b6001600160401b038111156132c2576132c261468c565b6040519080825280602002602001820160405280156132fb57816020015b6132e86145ee565b8152602001906001900390816132e05790505b5090506000805b8351811015613538576000604051806060016040528086848151811061332a5761332a6154ed565b60200260200101516001600160a01b0316630dfe16816040518163ffffffff1660e01b8152600401602060405180830381865afa15801561336f573d6000803e3d6000fd5b505050506040513d601f19601f820116820180604052508101906133939190615503565b6001600160a01b031681526020018684815181106133b3576133b36154ed565b60200260200101516001600160a01b031663d21220a76040518163ffffffff1660e01b8152600401602060405180830381865afa1580156133f8573d6000803e3d6000fd5b505050506040513d601f19601f8201168201806040525081019061341c9190615503565b6001600160a01b0316815260200186848151811061343c5761343c6154ed565b60200260200101516001600160a01b031663ddca3f436040518163ffffffff1660e01b8152600401602060405180830381865afa158015613481573d6000803e3d6000fd5b505050506040513d601f19601f820116820180604052508101906134a59190615520565b62ffffff1681525090506134d7878684815181106134c5576134c56154ed565b6020026020010151836001878961406f565b156134ea57826134e68161553d565b9350505b61351287868481518110613500576135006154ed565b6020026020010151836000878961406f565b1561352557826135218161553d565b9350505b50806135308161553d565b915050613302565b506000816001600160401b038111156135535761355361468c565b60405190808252806020026020018201604052801561358c57816020015b6135796145ee565b8152602001906001900390816135715790505b50905060005b82811015610a3a578381815181106135ac576135ac6154ed565b60200260200101518282815181106135c6576135c66154ed565b602002602001018190525080806135dc9061553d565b915050613592565b600154604051639525092360e01b81526000918291829182916001600160a01b039091169063952509239061361d9089906004016150eb565b6101c060405180830381865afa15801561363b573d6000803e3d6000fd5b505050506040513d601f19601f8201168201806040525081019061365f9190615179565b600154604051632411122160e11b815293965091945092506000916001600160a01b039091169063482224429061369a908a906004016150eb565b602060405180830381865afa1580156136b7573d6000803e3d6000fd5b505050506040513d601f19601f820116820180604052508101906136db919061522e565b600154835160405163aa7532af60e01b815292935073__$eacbb88ed4bd2af84aa4d43bcf675bcf7e$__9263aa7532af926137309289926001600160a01b03909216918991908d906000908a906004016153cb565b602060405180830381865af415801561374d573d6000803e3d6000fd5b505050506040513d601f19601f82011682018060405250810190613771919061522e565b979650505050505050565b60008061378b888a8789612d40565b606081015190915063ffffffff1615613a455760008160e001516000146137ca576137c5826060015163ffffffff16426126419190615b32565b6137d4565b670de0b6b3a76400005b60808301519091506000906137f29083670de0b6b3a7640000613a54565b9050808360a0015111613805578061380b565b8260a001515b9050604051806101a001604052808a815260200189151581526020018815158152602001846040015163ffffffff168152602001846060015163ffffffff168152602001846080015181526020018460a0015181526020018460c0015181526020018460e00151815260200184610100015181526020018281526020018b6001600160a01b0316630dfe16816040518163ffffffff1660e01b8152600401602060405180830381865afa1580156138c6573d6000803e3d6000fd5b505050506040513d601f19601f820116820180604052508101906138ea9190615503565b6001600160a01b031663313ce5676040518163ffffffff1660e01b8152600401602060405180830381865afa158015613927573d6000803e3d6000fd5b505050506040513d601f19601f8201168201806040525081019061394b9190615899565b60ff1681526020018b6001600160a01b031663d21220a76040518163ffffffff1660e01b8152600401602060405180830381865afa158015613991573d6000803e3d6000fd5b505050506040513d601f19601f820116820180604052508101906139b59190615503565b6001600160a01b031663313ce5676040518163ffffffff1660e01b8152600401602060405180830381865afa1580156139f2573d6000803e3d6000fd5b505050506040513d601f19601f82011682018060405250810190613a169190615899565b60ff16815250858781518110613a2e57613a2e6154ed565b602002602001018190525060019350505050613771565b50600098975050505050505050565b6000808060001985870985870292508281108382030391505080600003613a8d5760008411613a8257600080fd5b508290049050610666565b808411613ac55760405162461bcd60e51b815260206004820152600660248201526536bab62234bb60d11b60448201526064016120a3565b6000848688096000868103871696879004966002600389028118808a02820302808a02820302808a02820302808a02820302808a02820302808a02909103029181900381900460010186841190950394909402919094039290920491909117919091029150509392505050565b6040516bffffffffffffffffffffffff19606085811b8216602084015284901b16603482015281151560f81b60488201526000906049016040516020818303038152906040528051906020012090509392505050565b613bcd8282604051602401613b9e929190615c46565b60408051601f198184030181529190526020810180516001600160e01b03166309710a9d60e41b179052614456565b5050565b6000838015613c7157600184168015613bec57859250613bf0565b8392505b508260011c8460011c94505b8415613c6b578560801c15613c1057600080fd5b85860281810181811015613c2357600080fd5b8590049650506001851615613c60578583028387820414613c49578615613c4957600080fd5b81810181811015613c5957600080fd5b8590049350505b8460011c9450613bfc565b50613c87565b838015613c815760009250613c85565b8392505b505b509392505050565b60008060008360020b12613ca6578260020b613cae565b8260020b6000035b9050620d89e8811115613cd4576040516315e4079d60e11b815260040160405180910390fd5b600081600116600003613ceb57600160801b613cfd565b6ffffcb933bd6fad37aa2d162d1a5940015b70ffffffffffffffffffffffffffffffffff1690506002821615613d31576ffff97272373d413259a46990580e213a0260801c5b6004821615613d50576ffff2e50f5f656932ef12357cf3c7fdcc0260801c5b6008821615613d6f576fffe5caca7e10e4e61c3624eaa0941cd00260801c5b6010821615613d8e576fffcb9843d60f6159c9db58835c9266440260801c5b6020821615613dad576fff973b41fa98c081472e6896dfb254c00260801c5b6040821615613dcc576fff2ea16466c96a3843ec78b326b528610260801c5b6080821615613deb576ffe5dee046a99a2a811c461f1969c30530260801c5b610100821615613e0b576ffcbe86c7900a88aedcffc83b479aa3a40260801c5b610200821615613e2b576ff987a7253ac413176f2b074cf7815e540260801c5b610400821615613e4b576ff3392b0822b70005940c7a398e4b70f30260801c5b610800821615613e6b576fe7159475a2c29b7443b29c7fa6e889d90260801c5b611000821615613e8b576fd097f3bdfd2022b8845ad8f792aa58250260801c5b612000821615613eab576fa9f746462d870fdf8a65dc1f90e061e50260801c5b614000821615613ecb576f70d869a156d2a1b890bb3df62baf32f70260801c5b618000821615613eeb576f31be135f97d08fd981231505542fcfa60260801c5b62010000821615613f0c576f09aa508b5b7a84e1c677de54f3e99bc90260801c5b62020000821615613f2c576e5d6af8dedb81196699c329225ee6040260801c5b62040000821615613f4b576d2216e584f5fa1ea926041bedfe980260801c5b62080000821615613f68576b048a170391f7dc42444e8fa20260801c5b60008460020b1315613f89578060001981613f8557613f85615818565b0490505b640100000000810615613f9d576001613fa0565b60005b60ff16602082901c0192505050919050565b600080836001600160a01b0316856001600160a01b03161115613fd3579293925b846001600160a01b0316866001600160a01b031611613ffe57613ff7858585614477565b9150614045565b836001600160a01b0316866001600160a01b0316101561403757614023868585614477565b91506140308587856144ea565b9050614045565b6140428585856144ea565b90505b94509492505050565b60008061405a83614534565b90506106668182670de0b6b3a7640000613a54565b6000805460405163118272bf60e31b815282916001600160a01b031690638c1395f8906140a4908a908c908a90600401615247565b600060405180830381865afa1580156140c1573d6000803e3d6000fd5b505050506040513d6000823e601f3d908101601f191682016040526140e99190810190615561565b60008054919250906001600160a01b0316635d4936ff61410a8a8c8a613b32565b6040518263ffffffff1660e01b815260040161412891815260200190565b602060405180830381865afa158015614145573d6000803e3d6000fd5b505050506040513d601f19601f82011682018060405250810190614169919061522e565b60208301519091501561444557604051806101c00160405280888152602001871515815260200183600001516040015181526020018360000151606001518152602001836000015160a0015163ffffffff16815260200183600001516080015163ffffffff16815260200182815260200183602001518152602001836040015181526020016141f9898c8a6119a1565b8152602001896001600160a01b0316630dfe16816040518163ffffffff1660e01b8152600401602060405180830381865afa15801561423c573d6000803e3d6000fd5b505050506040513d601f19601f820116820180604052508101906142609190615503565b6001600160a01b031663313ce5676040518163ffffffff1660e01b8152600401602060405180830381865afa15801561429d573d6000803e3d6000fd5b505050506040513d601f19601f820116820180604052508101906142c19190615899565b60ff168152602001896001600160a01b031663d21220a76040518163ffffffff1660e01b8152600401602060405180830381865afa158015614307573d6000803e3d6000fd5b505050506040513d601f19601f8201168201806040525081019061432b9190615503565b6001600160a01b031663313ce5676040518163ffffffff1660e01b8152600401602060405180830381865afa158015614368573d6000803e3d6000fd5b505050506040513d601f19601f8201168201806040525081019061438c9190615899565b60ff168152600054604051632be197cf60e01b81526020909201916001600160a01b0390911690632be197cf906143cb908c908f908d906004016158b4565b602060405180830381865afa1580156143e8573d6000803e3d6000fd5b505050506040513d601f19601f8201168201806040525081019061440c919061522e565b8152602001836000015160c0015181525084868151811061442f5761442f6154ed565b602002602001018190525060019250505061444c565b6000925050505b9695505050505050565b80516a636f6e736f6c652e6c6f67602083016000808483855afa5050505050565b6000826001600160a01b0316846001600160a01b03161115614497579192915b6001600160a01b0384166144e06fffffffffffffffffffffffffffffffff60601b606085901b166144c88787615c9b565b6001600160a01b0316866001600160a01b0316613a54565b6113939190615868565b6000826001600160a01b0316846001600160a01b0316111561450a579192915b6113936001600160801b0383166145218686615c9b565b6001600160a01b0316600160601b613a54565b600060606145536001600160a01b038416670de0b6b3a76400006154d6565b901c92915050565b60408051610200810190915260006101a082018181526101c083018290526101e083019190915281908152602001600015158152602001600015158152602001600063ffffffff168152602001600063ffffffff16815260200160008152602001600081526020016000815260200160008152602001600081526020016000815260200160008152602001600081525090565b60408051610220810190915260006101c082018181526101e08301829052610200830191909152819081526020016000151581526020016000815260200160008152602001600063ffffffff168152602001600063ffffffff16815260200160008152602001600081526020016000815260200160008152602001600060ff168152602001600060ff16815260200160008152602001606081525090565b634e487b7160e01b600052604160045260246000fd5b606081018181106001600160401b03821117156146c1576146c161468c565b60405250565b60c081018181106001600160401b03821117156146c1576146c161468c565b60e081018181106001600160401b03821117156146c1576146c161468c565b601f8201601f191681016001600160401b038111828210171561472a5761472a61468c565b6040525050565b60405161473d816146e6565b90565b6001600160a01b038116811461475557600080fd5b50565b62ffffff8116811461475557600080fd5b60006060828403121561477b57600080fd5b604051614787816146a2565b809150823561479581614740565b815260208301356147a581614740565b602082015260408301356147b881614758565b6040919091015292915050565b801515811461475557600080fd5b600080600060a084860312156147e857600080fd5b6147f28585614769565b9250606084013561480281614740565b91506080840135614812816147c5565b809150509250925092565b60006020828403121561482f57600080fd5b813561066681614740565b80516001600160a01b0390811683526020808301519091169083015260409081015162ffffff16910152565b61487182825161483a565b60208101518015156060840152506040810151801515608084015250606081015163ffffffff811660a084015250608081015163ffffffff811660c08401525060a081015160e08381019190915260c0820151610100808501919091529082015161012080850191909152908201516101408085019190915290820151610160808501919091529082015161018080850191909152908201516101a084015201516101c090910152565b6020808252825182820181905260009190848201906040850190845b8181101561495e5761494a838551614866565b928401926101e09290920191600101614937565b50909695505050505050565b60008060006060848603121561497f57600080fd5b833561498a81614740565b9250602084013561499a81614740565b91506040840135614812816147c5565b6000606082840312156149bc57600080fd5b50919050565b8060020b811461475557600080fd5b600080600060a084860312156149e657600080fd5b6149f085856149aa565b92506060840135614a00816149c2565b91506080840135614812816149c2565b60006001600160401b03821115614a2957614a2961468c565b5060051b60200190565b6001600160801b038116811461475557600080fd5b600082601f830112614a5957600080fd5b81356020614a6682614a10565b60408051614a748382614705565b84815260c09485028701840194848201935088861115614a9357600080fd5b8488015b86811015614b0b5781818b031215614aaf5760008081fd5b8351614aba816146c7565b8135614ac5816149c2565b815281870135614ad481614a33565b818801528185013585820152606080830135908201526080808301359082015260a080830135908201528552938501938101614a97565b509098975050505050505050565b60008060008060808587031215614b2f57600080fd5b84356001600160401b03811115614b4557600080fd5b614b5187828801614a48565b9450506020850135614b62816147c5565b92506040850135614b72816149c2565b91506060850135614b82816149c2565b939692955090935050565b60008060808385031215614ba057600080fd5b614baa8484614769565b91506060830135614bba816149c2565b809150509250929050565b600081518084526020808501945080840160005b83811015614c35578151805160020b8852838101516001600160801b03168489015260408082015190890152606080820151908901526080808201519089015260a0908101519088015260c09096019590820190600101614bd9565b509495945050505050565b6000610200614c5084845161483a565b602083015180151560608601525060408301516080850152606083015160a08501526080830151614c8960c086018263ffffffff169052565b5060a083015163ffffffff811660e08601525060c08301516101008581019190915260e08401516101208087019190915290840151610140808701919091529084015161016080870191909152908401519061018090614ced8288018460ff169052565b85015191506101a0614d038782018460ff169052565b908501516101c08701528401516101e08601839052905061292f82860182614bc5565b6020815260006114806020830184614c40565b6000806000806000806101008789031215614d5357600080fd5b614d5d88886149aa565b9550606087013594506080870135935060a0870135614d7b816147c5565b925060c0870135915060e0870135614d9281614740565b809150509295509295509295565b8281526040602082015260006113936040830184614bc5565b600060208284031215614dcb57600080fd5b81356001600160401b03811115614de157600080fd5b61139384828501614a48565b60008060808385031215614e0057600080fd5b614e0a84846149aa565b915060608301356001600160401b03811115614e2557600080fd5b614e3185828601614a48565b9150509250929050565b60008060008060808587031215614e5157600080fd5b8435614e5c81614740565b93506020850135614e6c81614740565b92506040850135614e7c816147c5565b91506060850135614b82816147c5565b6101e081016114838284614866565b600080600080600060a08688031215614eb357600080fd5b8535614ebe816147c5565b94506020860135614ece816149c2565b93506040860135614ede816149c2565b92506060860135614eee816149c2565b91506080860135614efe816149c2565b809150509295509295909350565b600080600060a08486031215614f2157600080fd5b6149f08585614769565b602080825282518282018190526000919060409081850190868401855b82811015614f8c5781518051855286810151878601528581015186860152606080820151908601526080908101519085015260a09093019290850190600101614f48565b5091979650505050505050565b600061016082019050614fad82845161483a565b602083015115156060830152604083015163ffffffff8116608084015250606083015163ffffffff811660a084015250608083015160c083015260a083015160e083015260c0830151610100818185015260e085015161012085015280850151610140850152505092915050565b600080600080600060e0868803121561503357600080fd5b61503d87876149aa565b9450606086013593506080860135615054816147c5565b9497939650939460a0810135945060c0013592915050565b6000602080830181845280855180835260408601915060408160051b870101925083870160005b828110156150c157603f198886030184526150af858351614c40565b94509285019290850190600101615093565b5092979650505050505050565b600080608083850312156150e157600080fd5b614e0a8484614769565b60608101611483828461483a565b805161510481614740565b919050565b600060c0828403121561511b57600080fd5b604051615127816146c7565b809150825181526020830151602082015260408301516040820152606083015160608201526080830151608082015260a083015160a08201525092915050565b805161ffff8116811461510457600080fd5b60008060008385036101c081121561519057600080fd5b845161519b81614740565b60208601519094506151ac816149c2565b9250610180603f1982018113156151c257600080fd5b60405191506151d0826146e6565b6151dd8760408801615109565b825261010086015160208301526101208601516040830152610140860151606083015261520d6101608701615167565b608083015285015160a08201526101a09094015160c0850152509093909250565b60006020828403121561524057600080fd5b5051919050565b6001600160a01b039384168152919092166020820152901515604082015260600190565b805163ffffffff8116811461510457600080fd5b60006020828403121561529157600080fd5b6114808261526b565b600082601f8301126152ab57600080fd5b815160206152b882614a10565b604080516152c68382614705565b84815260c094850287018401948482019350888611156152e557600080fd5b8488015b86811015614b0b5781818b0312156153015760008081fd5b835161530c816146c7565b8151615317816149c2565b81528187015161532681614a33565b818801528185015185820152606080830151908201526080808301519082015260a0808301519082015285529385019381016152e9565b60006020828403121561536f57600080fd5b81516001600160401b0381111561538557600080fd5b6113938482850161529a565b805182526020810151602083015260408101516040830152606081015160608301526080810151608083015260a081015160a08301525050565b6001600160a01b03888116825287166020820152600286900b604082015260006101806153fb6060840188615391565b8061012084015261540e81840187614bc5565b9415156101408401525050610160015295945050505050565b6000602080838503121561543a57600080fd5b82516001600160401b0381111561545057600080fd5b8301601f8101851361546157600080fd5b805161546c81614a10565b6040516154798282614705565b82815260059290921b830184019184810191508783111561549957600080fd5b928401925b828410156137715783516154b181614740565b8252928401929084019061549e565b634e487b7160e01b600052601160045260246000fd5b8082028115828204841417611483576114836154c0565b634e487b7160e01b600052603260045260246000fd5b60006020828403121561551557600080fd5b815161066681614740565b60006020828403121561553257600080fd5b815161066681614758565b60006001820161554f5761554f6154c0565b5060010190565b8051615104816147c5565b60006020828403121561557357600080fd5b81516001600160401b038082111561558a57600080fd5b908301906060828603121561559e57600080fd5b6040516155aa816146a2565b8251828111156155b957600080fd5b830160e081880312156155cb57600080fd5b6155d3614731565b6155dc826150f9565b81526155ea60208301615556565b6020820152604082015160408201526060820151606082015261560f6080830161526b565b608082015261562060a0830161526b565b60a082015260c08201518481111561563757600080fd5b6156438982850161529a565b60c0830152508252506020838101519082015260409283015192810192909252509392505050565b805160ff8116811461510457600080fd5b600080600080600080600060e0888a03121561569757600080fd5b87516156a281614740565b60208901519097506156b3816149c2565b95506156c160408901615167565b94506156cf60608901615167565b93506156dd60808901615167565b92506156eb60a0890161566b565b915060c08801516156fb816147c5565b8091505092959891949750929550565b803561571681614740565b6001600160a01b03908116835260208201359061573282614740565b166020830152604081013561574681614758565b62ffffff81166040840152505050565b60608101611483828461570b565b60006060828403121561577657600080fd5b6114808383614769565b600286900b815261014081016157996020830187615391565b60e0820194909452600292830b610100820152910b6101209091015292915050565b80820180821115611483576114836154c0565b600281810b9083900b01627fffff8113627fffff1982121715611483576114836154c0565b600282810b9082900b03627fffff198112627fffff82131715611483576114836154c0565b634e487b7160e01b600052601260045260246000fd5b60008160020b8360020b8061584557615845615818565b627fffff1982146000198214161561585f5761585f6154c0565b90059392505050565b60008261587757615877615818565b500490565b60006020828403121561588e57600080fd5b815161066681614a33565b6000602082840312156158ab57600080fd5b6114808261566b565b60a081016158c2828661483a565b6001600160a01b03939093166060820152901515608090910152919050565b6001600160a01b038881168252871660208201528515156040820152600285900b606082015263ffffffff84166080820152600061018061592560a0840186615391565b8061016084015261593881840185614bc5565b9a9950505050505050505050565b6000806040838503121561595957600080fd5b82516001600160401b0381111561596f57600080fd5b61597b8582860161529a565b925050602083015190509250929050565b610100810161599b828961570b565b6060820196909652608081019490945291151560a084015260c08301526001600160a01b031660e090910152919050565b600080604083850312156159df57600080fd5b8251915060208301516001600160401b038111156159fc57600080fd5b614e318582860161529a565b600060033d111561473d5760046000803e5060005160e01c90565b600060443d1015615a315790565b6040516003193d81016004833e81513d6001600160401b038160248401118184111715615a6057505050505090565b8285019150815181811115615a785750505050505090565b843d8701016020828501011115615a925750505050505090565b615aa160208286010187614705565b509095945050505050565b600060208284031215615abe57600080fd5b8151610666816149c2565b6001600160801b03828116828216039080821115615ae957615ae96154c0565b5092915050565b60008260020b80615b0357615b03615818565b808360020b0791505092915050565b6001600160801b03818116838216019080821115615ae957615ae96154c0565b81810381811115611483576114836154c0565b60008260020b8260020b028060020b9150808214615ae957615ae96154c0565b6000806000806000806000806000898b03610160811215615b8557600080fd5b6060811215615b9357600080fd5b50604051615ba0816146a2565b8a51615bab81614740565b815260208b0151615bbb81614740565b602082015260408b0151615bce81614758565b60408201529850615be160608b01615556565b9750615bef60808b0161526b565b9650615bfd60a08b0161526b565b955060c08a0151945060e08a015193506101008a015192506101208a015191506101408a015190509295985092959850929598565b600082615c4157615c41615818565b500690565b604081526000835180604084015260005b81811015615c745760208187018101516060868401015201615c57565b506000606082850101526060601f19601f8301168401019150508260208301529392505050565b6001600160a01b03828116828216039080821115615ae957615ae96154c056fea2646970667358221220bfe7b6a097dddb93d602bb8334eaac7cdeda6c2a2cf36e89a81d01217bf9a10464736f6c63430008120033",
  "linkReferences": {
    "src/PremiumComputer.sol": {
      "PremiumComputer": [
        {
          "length": 20,
          "start": 1731
        },
        {
          "length": 20,
          "start": 4950
        },
        {
          "length": 20,
          "start": 7190
        },
        {
          "length": 20,
          "start": 14291
        }
      ]
    }
  },
  "deployedLinkReferences": {
    "src/PremiumComputer.sol": {
      "PremiumComputer": [
        {
          "length": 20,
          "start": 1506
        },
        {
          "length": 20,
          "start": 4725
        },
        {
          "length": 20,
          "start": 6965
        },
        {
          "length": 20,
          "start": 14066
        }
      ]
    }
  }
}