{
  "_format": "hh-sol-artifact-1",
  "contractName": "DataProvider",
  "sourceName": "src/periphery/DataProvider.sol",
  "abi": [
    {
      "inputs": [
        {
          "internalType": "address",
          "name": "_poolManager",
          "type": "address"
        },
        {
          "internalType": "address",
          "name": "_marginFacility",
          "type": "address"
        },
        {
          "internalType": "address",
          "name": "_quoterV2",
          "type": "address"
        }
      ],
      "stateMutability": "nonpayable",
      "type": "constructor"
    },
    {
      "inputs": [],
      "name": "T",
      "type": "error"
    },
    {
      "inputs": [
        {
          "components": [
            {
              "components": [
                {
                  "internalType": "address",
                  "name": "token0",
                  "type": "address"
                },
                {
                  "internalType": "address",
                  "name": "token1",
                  "type": "address"
                },
                {
                  "internalType": "uint24",
                  "name": "fee",
                  "type": "uint24"
                }
              ],
              "internalType": "struct PoolKey",
              "name": "poolKey",
              "type": "tuple"
            },
            {
              "internalType": "bool",
              "name": "isToken0",
              "type": "bool"
            },
            {
              "internalType": "uint256",
              "name": "margin",
              "type": "uint256"
            },
            {
              "internalType": "uint256",
              "name": "startingLeverage",
              "type": "uint256"
            },
            {
              "internalType": "uint256",
              "name": "stepSize",
              "type": "uint256"
            }
          ],
          "internalType": "struct DataProvider.MaxLeverageParams",
          "name": "params",
          "type": "tuple"
        }
      ],
      "name": "computeMaxLeverage",
      "outputs": [
        {
          "internalType": "uint256",
          "name": "",
          "type": "uint256"
        }
      ],
      "stateMutability": "nonpayable",
      "type": "function"
    },
    {
      "inputs": [
        {
          "components": [
            {
              "internalType": "address",
              "name": "token0",
              "type": "address"
            },
            {
              "internalType": "address",
              "name": "token1",
              "type": "address"
            },
            {
              "internalType": "uint24",
              "name": "fee",
              "type": "uint24"
            }
          ],
          "internalType": "struct PoolKey",
          "name": "key",
          "type": "tuple"
        },
        {
          "internalType": "uint256",
          "name": "margin",
          "type": "uint256"
        },
        {
          "internalType": "bool",
          "name": "positionIsToken0",
          "type": "bool"
        },
        {
          "internalType": "uint256",
          "name": "slippage",
          "type": "uint256"
        },
        {
          "internalType": "uint256",
          "name": "startingLeverage",
          "type": "uint256"
        }
      ],
      "name": "findMaxLeverageWithEstimatedSlippage",
      "outputs": [
        {
          "internalType": "uint256",
          "name": "",
          "type": "uint256"
        }
      ],
      "stateMutability": "view",
      "type": "function"
    },
    {
      "inputs": [
        {
          "components": [
            {
              "internalType": "address",
              "name": "token0",
              "type": "address"
            },
            {
              "internalType": "address",
              "name": "token1",
              "type": "address"
            },
            {
              "internalType": "uint24",
              "name": "fee",
              "type": "uint24"
            }
          ],
          "internalType": "struct PoolKey",
          "name": "key",
          "type": "tuple"
        },
        {
          "internalType": "uint256",
          "name": "margin",
          "type": "uint256"
        },
        {
          "internalType": "uint256",
          "name": "borrowAmount",
          "type": "uint256"
        },
        {
          "internalType": "bool",
          "name": "positionIsToken0",
          "type": "bool"
        },
        {
          "internalType": "uint256",
          "name": "simulatedOutput",
          "type": "uint256"
        },
        {
          "internalType": "uint160",
          "name": "sqrtPriceX160",
          "type": "uint160"
        }
      ],
      "name": "findTicks",
      "outputs": [
        {
          "internalType": "uint256",
          "name": "",
          "type": "uint256"
        },
        {
          "components": [
            {
              "internalType": "int24",
              "name": "tick",
              "type": "int24"
            },
            {
              "internalType": "uint128",
              "name": "liquidity",
              "type": "uint128"
            },
            {
              "internalType": "uint256",
              "name": "premium",
              "type": "uint256"
            },
            {
              "internalType": "uint256",
              "name": "feeGrowthInside0LastX128",
              "type": "uint256"
            },
            {
              "internalType": "uint256",
              "name": "feeGrowthInside1LastX128",
              "type": "uint256"
            },
            {
              "internalType": "uint256",
              "name": "lastGrowth",
              "type": "uint256"
            }
          ],
          "internalType": "struct LiquidityLoan[]",
          "name": "",
          "type": "tuple[]"
        }
      ],
      "stateMutability": "view",
      "type": "function"
    },
    {
      "inputs": [
        {
          "internalType": "address",
          "name": "trader",
          "type": "address"
        }
      ],
      "name": "getActiveMarginPositions",
      "outputs": [
        {
          "components": [
            {
              "components": [
                {
                  "internalType": "address",
                  "name": "token0",
                  "type": "address"
                },
                {
                  "internalType": "address",
                  "name": "token1",
                  "type": "address"
                },
                {
                  "internalType": "uint24",
                  "name": "fee",
                  "type": "uint24"
                }
              ],
              "internalType": "struct PoolKey",
              "name": "poolKey",
              "type": "tuple"
            },
            {
              "internalType": "bool",
              "name": "isToken0",
              "type": "bool"
            },
            {
              "internalType": "uint256",
              "name": "totalDebtOutput",
              "type": "uint256"
            },
            {
              "internalType": "uint256",
              "name": "totalDebtInput",
              "type": "uint256"
            },
            {
              "internalType": "uint32",
              "name": "openTime",
              "type": "uint32"
            },
            {
              "internalType": "uint32",
              "name": "repayTime",
              "type": "uint32"
            },
            {
              "internalType": "uint256",
              "name": "premiumDeposit",
              "type": "uint256"
            },
            {
              "internalType": "uint256",
              "name": "totalPosition",
              "type": "uint256"
            },
            {
              "internalType": "uint256",
              "name": "margin",
              "type": "uint256"
            },
            {
              "internalType": "uint256",
              "name": "premiumOwed",
              "type": "uint256"
            },
            {
              "internalType": "uint8",
              "name": "token0Decimals",
              "type": "uint8"
            },
            {
              "internalType": "uint8",
              "name": "token1Decimals",
              "type": "uint8"
            },
            {
              "internalType": "uint256",
              "name": "maxWithdrawablePremium",
              "type": "uint256"
            },
            {
              "components": [
                {
                  "internalType": "int24",
                  "name": "tick",
                  "type": "int24"
                },
                {
                  "internalType": "uint128",
                  "name": "liquidity",
                  "type": "uint128"
                },
                {
                  "internalType": "uint256",
                  "name": "premium",
                  "type": "uint256"
                },
                {
                  "internalType": "uint256",
                  "name": "feeGrowthInside0LastX128",
                  "type": "uint256"
                },
                {
                  "internalType": "uint256",
                  "name": "feeGrowthInside1LastX128",
                  "type": "uint256"
                },
                {
                  "internalType": "uint256",
                  "name": "lastGrowth",
                  "type": "uint256"
                }
              ],
              "internalType": "struct LiquidityLoan[]",
              "name": "borrowInfo",
              "type": "tuple[]"
            }
          ],
          "internalType": "struct DataProvider.MarginPositionInfo[]",
          "name": "",
          "type": "tuple[]"
        }
      ],
      "stateMutability": "view",
      "type": "function"
    },
    {
      "inputs": [
        {
          "internalType": "address",
          "name": "trader",
          "type": "address"
        }
      ],
      "name": "getAddOrders",
      "outputs": [
        {
          "components": [
            {
              "components": [
                {
                  "internalType": "address",
                  "name": "token0",
                  "type": "address"
                },
                {
                  "internalType": "address",
                  "name": "token1",
                  "type": "address"
                },
                {
                  "internalType": "uint24",
                  "name": "fee",
                  "type": "uint24"
                }
              ],
              "internalType": "struct PoolKey",
              "name": "key",
              "type": "tuple"
            },
            {
              "internalType": "bool",
              "name": "isAdd",
              "type": "bool"
            },
            {
              "internalType": "bool",
              "name": "positionIsToken0",
              "type": "bool"
            },
            {
              "internalType": "uint32",
              "name": "auctionDeadline",
              "type": "uint32"
            },
            {
              "internalType": "uint32",
              "name": "auctionStartTime",
              "type": "uint32"
            },
            {
              "internalType": "uint256",
              "name": "startOutput",
              "type": "uint256"
            },
            {
              "internalType": "uint256",
              "name": "minOutput",
              "type": "uint256"
            },
            {
              "internalType": "uint256",
              "name": "inputAmount",
              "type": "uint256"
            },
            {
              "internalType": "uint256",
              "name": "decayRate",
              "type": "uint256"
            },
            {
              "internalType": "uint256",
              "name": "margin",
              "type": "uint256"
            },
            {
              "internalType": "uint256",
              "name": "currentOutput",
              "type": "uint256"
            },
            {
              "internalType": "uint256",
              "name": "token0Decimals",
              "type": "uint256"
            },
            {
              "internalType": "uint256",
              "name": "token1Decimals",
              "type": "uint256"
            }
          ],
          "internalType": "struct DataProvider.LimitOrderInfo[]",
          "name": "",
          "type": "tuple[]"
        }
      ],
      "stateMutability": "view",
      "type": "function"
    },
    {
      "inputs": [
        {
          "components": [
            {
              "internalType": "address",
              "name": "token0",
              "type": "address"
            },
            {
              "internalType": "address",
              "name": "token1",
              "type": "address"
            },
            {
              "internalType": "uint24",
              "name": "fee",
              "type": "uint24"
            }
          ],
          "internalType": "struct PoolKey",
          "name": "key",
          "type": "tuple"
        },
        {
          "internalType": "int24",
          "name": "tickLower",
          "type": "int24"
        },
        {
          "internalType": "int24",
          "name": "tickUpper",
          "type": "int24"
        }
      ],
      "name": "getBinsDataInBulk",
      "outputs": [
        {
          "components": [
            {
              "internalType": "uint256",
              "name": "price",
              "type": "uint256"
            },
            {
              "internalType": "uint256",
              "name": "token0Liquidity",
              "type": "uint256"
            },
            {
              "internalType": "uint256",
              "name": "token1Liquidity",
              "type": "uint256"
            },
            {
              "internalType": "uint256",
              "name": "token0Borrowed",
              "type": "uint256"
            },
            {
              "internalType": "uint256",
              "name": "token1Borrowed",
              "type": "uint256"
            }
          ],
          "internalType": "struct DataProvider.BinData[]",
          "name": "",
          "type": "tuple[]"
        }
      ],
      "stateMutability": "view",
      "type": "function"
    },
    {
      "inputs": [
        {
          "components": [
            {
              "internalType": "address",
              "name": "token0",
              "type": "address"
            },
            {
              "internalType": "address",
              "name": "token1",
              "type": "address"
            },
            {
              "internalType": "uint24",
              "name": "fee",
              "type": "uint24"
            }
          ],
          "internalType": "struct PoolKey",
          "name": "key",
          "type": "tuple"
        },
        {
          "internalType": "int24",
          "name": "tick",
          "type": "int24"
        }
      ],
      "name": "getBorrowedLiquidityInBin",
      "outputs": [
        {
          "internalType": "uint128",
          "name": "",
          "type": "uint128"
        }
      ],
      "stateMutability": "view",
      "type": "function"
    },
    {
      "inputs": [
        {
          "components": [
            {
              "internalType": "address",
              "name": "token0",
              "type": "address"
            },
            {
              "internalType": "address",
              "name": "token1",
              "type": "address"
            },
            {
              "internalType": "uint24",
              "name": "fee",
              "type": "uint24"
            }
          ],
          "internalType": "struct PoolKey",
          "name": "poolKey",
          "type": "tuple"
        },
        {
          "internalType": "address",
          "name": "trader",
          "type": "address"
        },
        {
          "internalType": "bool",
          "name": "positionIsToken0",
          "type": "bool"
        }
      ],
      "name": "getExpectedPremiumOwed",
      "outputs": [
        {
          "internalType": "uint256",
          "name": "",
          "type": "uint256"
        }
      ],
      "stateMutability": "view",
      "type": "function"
    },
    {
      "inputs": [
        {
          "components": [
            {
              "internalType": "address",
              "name": "token0",
              "type": "address"
            },
            {
              "internalType": "address",
              "name": "token1",
              "type": "address"
            },
            {
              "internalType": "uint24",
              "name": "fee",
              "type": "uint24"
            }
          ],
          "internalType": "struct PoolKey",
          "name": "key",
          "type": "tuple"
        },
        {
          "components": [
            {
              "internalType": "int24",
              "name": "tick",
              "type": "int24"
            },
            {
              "internalType": "uint128",
              "name": "liquidity",
              "type": "uint128"
            },
            {
              "internalType": "uint256",
              "name": "premium",
              "type": "uint256"
            },
            {
              "internalType": "uint256",
              "name": "feeGrowthInside0LastX128",
              "type": "uint256"
            },
            {
              "internalType": "uint256",
              "name": "feeGrowthInside1LastX128",
              "type": "uint256"
            },
            {
              "internalType": "uint256",
              "name": "lastGrowth",
              "type": "uint256"
            }
          ],
          "internalType": "struct LiquidityLoan[]",
          "name": "borrowInfo",
          "type": "tuple[]"
        }
      ],
      "name": "getIsBorrowable",
      "outputs": [
        {
          "internalType": "bool",
          "name": "",
          "type": "bool"
        }
      ],
      "stateMutability": "view",
      "type": "function"
    },
    {
      "inputs": [
        {
          "components": [
            {
              "internalType": "address",
              "name": "token0",
              "type": "address"
            },
            {
              "internalType": "address",
              "name": "token1",
              "type": "address"
            },
            {
              "internalType": "uint24",
              "name": "fee",
              "type": "uint24"
            }
          ],
          "internalType": "struct PoolKey",
          "name": "key",
          "type": "tuple"
        },
        {
          "internalType": "int24",
          "name": "tick",
          "type": "int24"
        }
      ],
      "name": "getLiquidityInBin",
      "outputs": [
        {
          "internalType": "uint128",
          "name": "",
          "type": "uint128"
        }
      ],
      "stateMutability": "view",
      "type": "function"
    },
    {
      "inputs": [
        {
          "internalType": "address",
          "name": "pool",
          "type": "address"
        },
        {
          "internalType": "address",
          "name": "trader",
          "type": "address"
        },
        {
          "internalType": "bool",
          "name": "isToken",
          "type": "bool"
        }
      ],
      "name": "getMarginPosition",
      "outputs": [
        {
          "components": [
            {
              "components": [
                {
                  "internalType": "address",
                  "name": "token0",
                  "type": "address"
                },
                {
                  "internalType": "address",
                  "name": "token1",
                  "type": "address"
                },
                {
                  "internalType": "uint24",
                  "name": "fee",
                  "type": "uint24"
                }
              ],
              "internalType": "struct PoolKey",
              "name": "poolKey",
              "type": "tuple"
            },
            {
              "internalType": "bool",
              "name": "isToken0",
              "type": "bool"
            },
            {
              "internalType": "uint256",
              "name": "totalDebtOutput",
              "type": "uint256"
            },
            {
              "internalType": "uint256",
              "name": "totalDebtInput",
              "type": "uint256"
            },
            {
              "internalType": "uint32",
              "name": "openTime",
              "type": "uint32"
            },
            {
              "internalType": "uint32",
              "name": "repayTime",
              "type": "uint32"
            },
            {
              "internalType": "uint256",
              "name": "premiumDeposit",
              "type": "uint256"
            },
            {
              "internalType": "uint256",
              "name": "totalPosition",
              "type": "uint256"
            },
            {
              "internalType": "uint256",
              "name": "margin",
              "type": "uint256"
            },
            {
              "internalType": "uint256",
              "name": "premiumOwed",
              "type": "uint256"
            },
            {
              "internalType": "uint8",
              "name": "token0Decimals",
              "type": "uint8"
            },
            {
              "internalType": "uint8",
              "name": "token1Decimals",
              "type": "uint8"
            },
            {
              "internalType": "uint256",
              "name": "maxWithdrawablePremium",
              "type": "uint256"
            },
            {
              "components": [
                {
                  "internalType": "int24",
                  "name": "tick",
                  "type": "int24"
                },
                {
                  "internalType": "uint128",
                  "name": "liquidity",
                  "type": "uint128"
                },
                {
                  "internalType": "uint256",
                  "name": "premium",
                  "type": "uint256"
                },
                {
                  "internalType": "uint256",
                  "name": "feeGrowthInside0LastX128",
                  "type": "uint256"
                },
                {
                  "internalType": "uint256",
                  "name": "feeGrowthInside1LastX128",
                  "type": "uint256"
                },
                {
                  "internalType": "uint256",
                  "name": "lastGrowth",
                  "type": "uint256"
                }
              ],
              "internalType": "struct LiquidityLoan[]",
              "name": "borrowInfo",
              "type": "tuple[]"
            }
          ],
          "internalType": "struct DataProvider.MarginPositionInfo",
          "name": "",
          "type": "tuple"
        }
      ],
      "stateMutability": "view",
      "type": "function"
    },
    {
      "inputs": [
        {
          "components": [
            {
              "internalType": "address",
              "name": "token0",
              "type": "address"
            },
            {
              "internalType": "address",
              "name": "token1",
              "type": "address"
            },
            {
              "internalType": "uint24",
              "name": "fee",
              "type": "uint24"
            }
          ],
          "internalType": "struct PoolKey",
          "name": "key",
          "type": "tuple"
        },
        {
          "internalType": "int24",
          "name": "tickLower",
          "type": "int24"
        },
        {
          "internalType": "int24",
          "name": "tickUpper",
          "type": "int24"
        }
      ],
      "name": "getMaxWithdrawable",
      "outputs": [
        {
          "internalType": "uint128",
          "name": "maxWithdrawable",
          "type": "uint128"
        }
      ],
      "stateMutability": "view",
      "type": "function"
    },
    {
      "inputs": [
        {
          "components": [
            {
              "internalType": "int24",
              "name": "tick",
              "type": "int24"
            },
            {
              "internalType": "uint128",
              "name": "liquidity",
              "type": "uint128"
            },
            {
              "internalType": "uint256",
              "name": "premium",
              "type": "uint256"
            },
            {
              "internalType": "uint256",
              "name": "feeGrowthInside0LastX128",
              "type": "uint256"
            },
            {
              "internalType": "uint256",
              "name": "feeGrowthInside1LastX128",
              "type": "uint256"
            },
            {
              "internalType": "uint256",
              "name": "lastGrowth",
              "type": "uint256"
            }
          ],
          "internalType": "struct LiquidityLoan[]",
          "name": "borrowInfo",
          "type": "tuple[]"
        }
      ],
      "name": "getMinMaxTicks",
      "outputs": [
        {
          "internalType": "int24",
          "name": "min",
          "type": "int24"
        },
        {
          "internalType": "int24",
          "name": "max",
          "type": "int24"
        }
      ],
      "stateMutability": "pure",
      "type": "function"
    },
    {
      "inputs": [
        {
          "internalType": "address",
          "name": "pool",
          "type": "address"
        },
        {
          "internalType": "address",
          "name": "trader",
          "type": "address"
        },
        {
          "internalType": "bool",
          "name": "positionIsToken0",
          "type": "bool"
        },
        {
          "internalType": "bool",
          "name": "isAdd",
          "type": "bool"
        }
      ],
      "name": "getOrder",
      "outputs": [
        {
          "components": [
            {
              "components": [
                {
                  "internalType": "address",
                  "name": "token0",
                  "type": "address"
                },
                {
                  "internalType": "address",
                  "name": "token1",
                  "type": "address"
                },
                {
                  "internalType": "uint24",
                  "name": "fee",
                  "type": "uint24"
                }
              ],
              "internalType": "struct PoolKey",
              "name": "key",
              "type": "tuple"
            },
            {
              "internalType": "bool",
              "name": "positionIsToken0",
              "type": "bool"
            },
            {
              "internalType": "uint32",
              "name": "auctionDeadline",
              "type": "uint32"
            },
            {
              "internalType": "uint32",
              "name": "auctionStartTime",
              "type": "uint32"
            },
            {
              "internalType": "uint256",
              "name": "startOutput",
              "type": "uint256"
            },
            {
              "internalType": "uint256",
              "name": "minOutput",
              "type": "uint256"
            },
            {
              "internalType": "uint256",
              "name": "inputAmount",
              "type": "uint256"
            },
            {
              "internalType": "uint256",
              "name": "decayRate",
              "type": "uint256"
            },
            {
              "internalType": "uint256",
              "name": "margin",
              "type": "uint256"
            }
          ],
          "internalType": "struct Order",
          "name": "order",
          "type": "tuple"
        }
      ],
      "stateMutability": "view",
      "type": "function"
    },
    {
      "inputs": [
        {
          "internalType": "address",
          "name": "pool",
          "type": "address"
        },
        {
          "internalType": "address",
          "name": "trader",
          "type": "address"
        },
        {
          "internalType": "bool",
          "name": "positionIsToken0",
          "type": "bool"
        },
        {
          "internalType": "bool",
          "name": "isAdd",
          "type": "bool"
        }
      ],
      "name": "getOrderInfo",
      "outputs": [
        {
          "components": [
            {
              "components": [
                {
                  "internalType": "address",
                  "name": "token0",
                  "type": "address"
                },
                {
                  "internalType": "address",
                  "name": "token1",
                  "type": "address"
                },
                {
                  "internalType": "uint24",
                  "name": "fee",
                  "type": "uint24"
                }
              ],
              "internalType": "struct PoolKey",
              "name": "key",
              "type": "tuple"
            },
            {
              "internalType": "bool",
              "name": "isAdd",
              "type": "bool"
            },
            {
              "internalType": "bool",
              "name": "positionIsToken0",
              "type": "bool"
            },
            {
              "internalType": "uint32",
              "name": "auctionDeadline",
              "type": "uint32"
            },
            {
              "internalType": "uint32",
              "name": "auctionStartTime",
              "type": "uint32"
            },
            {
              "internalType": "uint256",
              "name": "startOutput",
              "type": "uint256"
            },
            {
              "internalType": "uint256",
              "name": "minOutput",
              "type": "uint256"
            },
            {
              "internalType": "uint256",
              "name": "inputAmount",
              "type": "uint256"
            },
            {
              "internalType": "uint256",
              "name": "decayRate",
              "type": "uint256"
            },
            {
              "internalType": "uint256",
              "name": "margin",
              "type": "uint256"
            },
            {
              "internalType": "uint256",
              "name": "currentOutput",
              "type": "uint256"
            },
            {
              "internalType": "uint256",
              "name": "token0Decimals",
              "type": "uint256"
            },
            {
              "internalType": "uint256",
              "name": "token1Decimals",
              "type": "uint256"
            }
          ],
          "internalType": "struct DataProvider.LimitOrderInfo",
          "name": "order",
          "type": "tuple"
        }
      ],
      "stateMutability": "view",
      "type": "function"
    },
    {
      "inputs": [
        {
          "internalType": "address",
          "name": "pool",
          "type": "address"
        }
      ],
      "name": "getPoolkeys",
      "outputs": [
        {
          "internalType": "address",
          "name": "token0",
          "type": "address"
        },
        {
          "internalType": "address",
          "name": "token1",
          "type": "address"
        },
        {
          "internalType": "uint24",
          "name": "fee",
          "type": "uint24"
        }
      ],
      "stateMutability": "view",
      "type": "function"
    },
    {
      "inputs": [
        {
          "components": [
            {
              "internalType": "address",
              "name": "token0",
              "type": "address"
            },
            {
              "internalType": "address",
              "name": "token1",
              "type": "address"
            },
            {
              "internalType": "uint24",
              "name": "fee",
              "type": "uint24"
            }
          ],
          "internalType": "struct PoolKey",
          "name": "poolKey",
          "type": "tuple"
        },
        {
          "internalType": "address",
          "name": "trader",
          "type": "address"
        },
        {
          "internalType": "bool",
          "name": "positionIsToken0",
          "type": "bool"
        }
      ],
      "name": "getPostInstantaeneousRate",
      "outputs": [
        {
          "internalType": "uint256",
          "name": "",
          "type": "uint256"
        }
      ],
      "stateMutability": "view",
      "type": "function"
    },
    {
      "inputs": [
        {
          "components": [
            {
              "internalType": "address",
              "name": "token0",
              "type": "address"
            },
            {
              "internalType": "address",
              "name": "token1",
              "type": "address"
            },
            {
              "internalType": "uint24",
              "name": "fee",
              "type": "uint24"
            }
          ],
          "internalType": "struct PoolKey",
          "name": "poolKey",
          "type": "tuple"
        },
        {
          "components": [
            {
              "internalType": "int24",
              "name": "tick",
              "type": "int24"
            },
            {
              "internalType": "uint128",
              "name": "liquidity",
              "type": "uint128"
            },
            {
              "internalType": "uint256",
              "name": "premium",
              "type": "uint256"
            },
            {
              "internalType": "uint256",
              "name": "feeGrowthInside0LastX128",
              "type": "uint256"
            },
            {
              "internalType": "uint256",
              "name": "feeGrowthInside1LastX128",
              "type": "uint256"
            },
            {
              "internalType": "uint256",
              "name": "lastGrowth",
              "type": "uint256"
            }
          ],
          "internalType": "struct LiquidityLoan[]",
          "name": "borrowInfo",
          "type": "tuple[]"
        }
      ],
      "name": "getPreInstantaeneousRate",
      "outputs": [
        {
          "internalType": "uint256",
          "name": "",
          "type": "uint256"
        }
      ],
      "stateMutability": "view",
      "type": "function"
    },
    {
      "inputs": [
        {
          "internalType": "address",
          "name": "trader",
          "type": "address"
        }
      ],
      "name": "getReduceOrders",
      "outputs": [
        {
          "components": [
            {
              "components": [
                {
                  "internalType": "address",
                  "name": "token0",
                  "type": "address"
                },
                {
                  "internalType": "address",
                  "name": "token1",
                  "type": "address"
                },
                {
                  "internalType": "uint24",
                  "name": "fee",
                  "type": "uint24"
                }
              ],
              "internalType": "struct PoolKey",
              "name": "key",
              "type": "tuple"
            },
            {
              "internalType": "bool",
              "name": "isAdd",
              "type": "bool"
            },
            {
              "internalType": "bool",
              "name": "positionIsToken0",
              "type": "bool"
            },
            {
              "internalType": "uint32",
              "name": "auctionDeadline",
              "type": "uint32"
            },
            {
              "internalType": "uint32",
              "name": "auctionStartTime",
              "type": "uint32"
            },
            {
              "internalType": "uint256",
              "name": "startOutput",
              "type": "uint256"
            },
            {
              "internalType": "uint256",
              "name": "minOutput",
              "type": "uint256"
            },
            {
              "internalType": "uint256",
              "name": "inputAmount",
              "type": "uint256"
            },
            {
              "internalType": "uint256",
              "name": "decayRate",
              "type": "uint256"
            },
            {
              "internalType": "uint256",
              "name": "margin",
              "type": "uint256"
            },
            {
              "internalType": "uint256",
              "name": "currentOutput",
              "type": "uint256"
            },
            {
              "internalType": "uint256",
              "name": "token0Decimals",
              "type": "uint256"
            },
            {
              "internalType": "uint256",
              "name": "token1Decimals",
              "type": "uint256"
            }
          ],
          "internalType": "struct DataProvider.LimitOrderInfo[]",
          "name": "",
          "type": "tuple[]"
        }
      ],
      "stateMutability": "view",
      "type": "function"
    },
    {
      "inputs": [
        {
          "components": [
            {
              "internalType": "address",
              "name": "token0",
              "type": "address"
            },
            {
              "internalType": "address",
              "name": "token1",
              "type": "address"
            },
            {
              "internalType": "uint24",
              "name": "fee",
              "type": "uint24"
            }
          ],
          "internalType": "struct PoolKey",
          "name": "key",
          "type": "tuple"
        },
        {
          "internalType": "int24",
          "name": "tickLower",
          "type": "int24"
        },
        {
          "internalType": "int24",
          "name": "tickUpper",
          "type": "int24"
        }
      ],
      "name": "getUtilAndAPR",
      "outputs": [
        {
          "internalType": "uint256",
          "name": "apr",
          "type": "uint256"
        },
        {
          "internalType": "uint256",
          "name": "utilTotal",
          "type": "uint256"
        }
      ],
      "stateMutability": "view",
      "type": "function"
    }
  ],
  "bytecode": "0x60806040523480156200001157600080fd5b5060405162005e0538038062005e05833981016040819052620000349162000092565b600080546001600160a01b03199081166001600160a01b039485161790915560018054821694841694909417909355600280549093169116179055620000dc565b80516001600160a01b03811681146200008d57600080fd5b919050565b600080600060608486031215620000a857600080fd5b620000b38462000075565b9250620000c36020850162000075565b9150620000d36040850162000075565b90509250925092565b615d1980620000ec6000396000f3fe608060405234801561001057600080fd5b506004361061012b5760003560e01c80638e68ad36116100ad578063a9b6b32b11610071578063a9b6b32b146102f9578063ac636efb14610319578063c229a3321461032c578063dd65c3281461036a578063dec8ae011461038a57600080fd5b80638e68ad3614610270578063911f1b4714610283578063912a8e00146102a65780639255bbc1146102b9578063a55ac3eb146102d957600080fd5b80632d6cf1f4116100f45780632d6cf1f4146101dc5780633aea807f146101fc578063433a1e181461020f57806348c6f8661461022257806384b885571461024357600080fd5b80625295f214610130578063060429f514610156578063193a2436146101765780631f2ecd831461018957806329aa3819146101b1575b600080fd5b61014361013e366004614805565b61039d565b6040519081526020015b60405180910390f35b61016961016436600461484f565b610631565b60405161014d919061494d565b61016961018436600461484f565b610a08565b61019c6101973660046149c3565b610dd5565b6040805192835260208301919091520161014d565b6101c46101bf366004614a02565b611088565b6040516001600160801b03909116815260200161014d565b6101ef6101ea366004614a3a565b611176565b60405161014d9190614bdb565b61014361020a366004614805565b61162e565b61014361021d366004614bee565b611851565b610235610230366004614c00565b611cb2565b60405161014d929190614c67565b610256610251366004614d89565b611da4565b60408051600293840b81529190920b60208201520161014d565b6101c461027e3660046149c3565b611e8b565b610296610291366004614dbd565b612156565b604051901515815260200161014d565b6101c46102b4366004614a02565b61254e565b6102cc6102c7366004614e0b565b612587565b60405161014d9190614e67565b6102ec6102e7366004614e76565b6129b0565b60405161014d9190614e95565b61030c610307366004614e0b565b612db8565b60405161014d9190614f03565b610143610327366004614f85565b612f3f565b61033f61033a36600461484f565b613163565b604080516001600160a01b03948516815293909216602084015262ffffff169082015260600161014d565b61037d61037836600461484f565b61329b565b60405161014d9190614fd6565b610143610398366004615038565b613665565b600154604051639525092360e01b81526000918291829182916001600160a01b03909116906395250923906103d6908a90600401615055565b6101c060405180830381865afa1580156103f4573d6000803e3d6000fd5b505050506040513d601f19601f8201168201806040525081019061041891906150e3565b600154604051632411122160e11b815293965091945092506000916001600160a01b0390911690634822244290610453908b90600401615055565b602060405180830381865afa158015610470573d6000803e3d6000fd5b505050506040513d601f19601f820116820180604052508101906104949190615198565b6000805460405163d93a904760e01b815292935090916001600160a01b039091169063d93a9047906104ce9088908c908c906004016151b1565b602060405180830381865afa1580156104eb573d6000803e3d6000fd5b505050506040513d601f19601f8201168201806040525081019061050f91906151e9565b6000805460405163657b5a4b60e01b815292935090916001600160a01b039091169063657b5a4b906105499089908d908d906004016151b1565b600060405180830381865afa158015610566573d6000803e3d6000fd5b505050506040513d6000823e601f3d908101601f1916820160405261058e91908101906152c7565b60018054865160405163aa7532af60e01b815293945073__$eacbb88ed4bd2af84aa4d43bcf675bcf7e$__9363aa7532af936105e0938c936001600160a01b03909116928c9289918c90600401615335565b602060405180830381865af41580156105fd573d6000803e3d6000fd5b505050506040513d601f19601f820116820180604052508101906106219190615198565b96505050505050505b9392505050565b60606000600160009054906101000a90046001600160a01b03166001600160a01b031663d41dcbea6040518163ffffffff1660e01b8152600401600060405180830381865afa158015610688573d6000803e3d6000fd5b505050506040513d6000823e601f3d908101601f191682016040526106b09190810190615391565b90506000815160026106c29190615440565b6001600160401b038111156106d9576106d96146be565b60405190808252806020026020018201604052801561071257816020015b6106ff61458d565b8152602001906001900390816106f75790505b5090506000805b8351811015610952576000604051806060016040528086848151811061074157610741615457565b60200260200101516001600160a01b0316630dfe16816040518163ffffffff1660e01b8152600401602060405180830381865afa158015610786573d6000803e3d6000fd5b505050506040513d601f19601f820116820180604052508101906107aa919061546d565b6001600160a01b031681526020018684815181106107ca576107ca615457565b60200260200101516001600160a01b031663d21220a76040518163ffffffff1660e01b8152600401602060405180830381865afa15801561080f573d6000803e3d6000fd5b505050506040513d601f19601f82011682018060405250810190610833919061546d565b6001600160a01b0316815260200186848151811061085357610853615457565b60200260200101516001600160a01b031663ddca3f436040518163ffffffff1660e01b8152600401602060405180830381865afa158015610898573d6000803e3d6000fd5b505050506040513d601f19601f820116820180604052508101906108bc919061548a565b62ffffff1681525090506108f0878684815181106108dc576108dc615457565b60200260200101518360006001888a6137fd565b1561090357826108ff816154a7565b9350505b61092c8786848151811061091957610919615457565b602002602001015183600080888a6137fd565b1561093f578261093b816154a7565b9350505b508061094a816154a7565b915050610719565b506000816001600160401b0381111561096d5761096d6146be565b6040519080825280602002602001820160405280156109a657816020015b61099361458d565b81526020019060019003908161098b5790505b50905060005b828110156109fe578381815181106109c6576109c6615457565b60200260200101518282815181106109e0576109e0615457565b602002602001018190525080806109f6906154a7565b9150506109ac565b5095945050505050565b60606000600160009054906101000a90046001600160a01b03166001600160a01b031663d41dcbea6040518163ffffffff1660e01b8152600401600060405180830381865afa158015610a5f573d6000803e3d6000fd5b505050506040513d6000823e601f3d908101601f19168201604052610a879190810190615391565b9050600081516002610a999190615440565b6001600160401b03811115610ab057610ab06146be565b604051908082528060200260200182016040528015610ae957816020015b610ad661458d565b815260200190600190039081610ace5790505b5090506000805b8351811015610d295760006040518060600160405280868481518110610b1857610b18615457565b60200260200101516001600160a01b0316630dfe16816040518163ffffffff1660e01b8152600401602060405180830381865afa158015610b5d573d6000803e3d6000fd5b505050506040513d601f19601f82011682018060405250810190610b81919061546d565b6001600160a01b03168152602001868481518110610ba157610ba1615457565b60200260200101516001600160a01b031663d21220a76040518163ffffffff1660e01b8152600401602060405180830381865afa158015610be6573d6000803e3d6000fd5b505050506040513d601f19601f82011682018060405250810190610c0a919061546d565b6001600160a01b03168152602001868481518110610c2a57610c2a615457565b60200260200101516001600160a01b031663ddca3f436040518163ffffffff1660e01b8152600401602060405180830381865afa158015610c6f573d6000803e3d6000fd5b505050506040513d601f19601f82011682018060405250810190610c93919061548a565b62ffffff168152509050610cc687868481518110610cb357610cb3615457565b602002602001015183600180888a6137fd565b15610cd95782610cd5816154a7565b9350505b610d0387868481518110610cef57610cef615457565b60200260200101518360016000888a6137fd565b15610d165782610d12816154a7565b9350505b5080610d21816154a7565b915050610af0565b506000816001600160401b03811115610d4457610d446146be565b604051908082528060200260200182016040528015610d7d57816020015b610d6a61458d565b815260200190600190039081610d625790505b50905060005b828110156109fe57838181518110610d9d57610d9d615457565b6020026020010151828281518110610db757610db7615457565b60200260200101819052508080610dcd906154a7565b915050610d83565b600154604051639525092360e01b815260009182918291829182916001600160a01b031690639525092390610e0e908b9060040161550b565b6101c060405180830381865afa158015610e2c573d6000803e3d6000fd5b505050506040513d601f19601f82011682018060405250810190610e5091906150e3565b9194509250905081610e62818961552f565b610e6c9190615569565b965081610e79818861552f565b610e839190615569565b9550600080600080866001600160a01b0316633850c7bd6040518163ffffffff1660e01b815260040160e060405180830381865afa158015610ec9573d6000803e3d6000fd5b505050506040513d601f19601f82011682018060405250810190610eed91906155ac565b509395508f9450505050505b8a60020b8160020b121561102e57610f1f610f19368f90038f018f61563b565b8261254e565b9450610f39610f33368f90038f018f61563b565b82611088565b93506001600160801b0385161561101d57610f6a6001600160801b0385811690670de0b6b3a7640000908816613ad5565b8651604051630ca73f1f60e21b8152919450611004918591670de0b6b3a76400009173__$eacbb88ed4bd2af84aa4d43bcf675bcf7e$__9163329cfc7c91610fbc918e9187908b908b90600401615657565b602060405180830381865af4158015610fd9573d6000803e3d6000fd5b505050506040513d601f19601f82011682018060405250810190610ffd9190615198565b9190613ad5565b61100e908b615692565b995061101a838a615692565b98505b61102787826156a5565b9050610ef9565b505050505081878761104091906156ca565b61104a919061552f565b6110579060020b866156ef565b94508161106488886156ca565b61106e919061552f565b61107b9060020b856156ef565b9350505050935093915050565b600154604051632411122160e11b81526000916001600160a01b0316906319fda2779082906348222442906110c1908890600401615055565b602060405180830381865afa1580156110de573d6000803e3d6000fd5b505050506040513d601f19601f820116820180604052508101906111029190615198565b846040518363ffffffff1660e01b815260040161112c92919091825260020b602082015260400190565b602060405180830381865afa158015611149573d6000803e3d6000fd5b505050506040513d601f19601f8201168201806040525081019061116d9190615703565b90505b92915050565b61117e614620565b60006040518060600160405280866001600160a01b0316630dfe16816040518163ffffffff1660e01b8152600401602060405180830381865afa1580156111c9573d6000803e3d6000fd5b505050506040513d601f19601f820116820180604052508101906111ed919061546d565b6001600160a01b03168152602001866001600160a01b031663d21220a76040518163ffffffff1660e01b8152600401602060405180830381865afa158015611239573d6000803e3d6000fd5b505050506040513d601f19601f8201168201806040525081019061125d919061546d565b6001600160a01b03168152602001866001600160a01b031663ddca3f436040518163ffffffff1660e01b8152600401602060405180830381865afa1580156112a9573d6000803e3d6000fd5b505050506040513d601f19601f820116820180604052508101906112cd919061548a565b62ffffff1690526000805460405163118272bf60e31b815292935090916001600160a01b0390911690638c1395f89061130e908990899089906004016151b1565b600060405180830381865afa15801561132b573d6000803e3d6000fd5b505050506040513d6000823e601f3d908101601f191682016040526113539190810190615720565b60008054919250906001600160a01b0316635d4936ff611374898989613bb3565b6040518263ffffffff1660e01b815260040161139291815260200190565b602060405180830381865afa1580156113af573d6000803e3d6000fd5b505050506040513d601f19601f820116820180604052508101906113d39190615198565b905060006113e284888861162e565b9050604051806101c00160405280858152602001871515815260200184600001516040015181526020018460000151606001518152602001846000015160a0015163ffffffff16815260200184600001516080015163ffffffff1681526020018381526020018460200151815260200184604001518152602001828152602001896001600160a01b0316630dfe16816040518163ffffffff1660e01b8152600401602060405180830381865afa1580156114a0573d6000803e3d6000fd5b505050506040513d601f19601f820116820180604052508101906114c4919061546d565b6001600160a01b031663313ce5676040518163ffffffff1660e01b8152600401602060405180830381865afa158015611501573d6000803e3d6000fd5b505050506040513d601f19601f82011682018060405250810190611525919061582a565b60ff168152602001896001600160a01b031663d21220a76040518163ffffffff1660e01b8152600401602060405180830381865afa15801561156b573d6000803e3d6000fd5b505050506040513d601f19601f8201168201806040525081019061158f919061546d565b6001600160a01b031663313ce5676040518163ffffffff1660e01b8152600401602060405180830381865afa1580156115cc573d6000803e3d6000fd5b505050506040513d601f19601f820116820180604052508101906115f0919061582a565b60ff168152602001828411611606576000611610565b6116108385615845565b8152602001846000015160c001518152509450505050509392505050565b600154604051639525092360e01b81526000918291829182916001600160a01b0390911690639525092390611667908a90600401615055565b6101c060405180830381865afa158015611685573d6000803e3d6000fd5b505050506040513d601f19601f820116820180604052508101906116a991906150e3565b6000805460405163d93a904760e01b8152949750929550909350916001600160a01b039091169063d93a9047906116e89087908b908b906004016151b1565b602060405180830381865afa158015611705573d6000803e3d6000fd5b505050506040513d601f19601f8201168201806040525081019061172991906151e9565b6000805460405163657b5a4b60e01b815292935090916001600160a01b039091169063657b5a4b906117639088908c908c906004016151b1565b600060405180830381865afa158015611780573d6000803e3d6000fd5b505050506040513d6000823e601f3d908101601f191682016040526117a891908101906152c7565b6001548451604051632c9d4b2b60e21b815292935060009273__$eacbb88ed4bd2af84aa4d43bcf675bcf7e$__9263b2752cac926117fd928b926001600160a01b0316918e15918c918b918b90600401615858565b600060405180830381865af415801561181a573d6000803e3d6000fd5b505050506040513d6000823e601f3d908101601f1916820160405261184291908101906158bd565b9b9a5050505050505050505050565b600154604051639525092360e01b815260009182916001600160a01b039091169063952509239061188690869060040161550b565b6101c060405180830381865afa1580156118a4573d6000803e3d6000fd5b505050506040513d601f19601f820116820180604052508101906118c891906150e3565b505090506000816001600160a01b0316633850c7bd6040518163ffffffff1660e01b815260040160e060405180830381865afa15801561190c573d6000803e3d6000fd5b505050506040513d601f19601f8201168201806040525081019061193091906155ac565b5050600154604051632411122160e11b815295965060a08a013595600095506001600160a01b03909116935063c6c2c2ca925083915063482224429061197a908b9060040161550b565b602060405180830381865afa158015611997573d6000803e3d6000fd5b505050506040513d601f19601f820116820180604052508101906119bb9190615198565b6040518263ffffffff1660e01b81526004016119d991815260200190565b60a060405180830381865afa1580156119f6573d6000803e3d6000fd5b505050506040513d601f19601f82011682018060405250810190611a1a9190615903565b505050506001600160801b031690505b670de0b6b3a7640000821115611ca9576000611a65611a51670de0b6b3a764000085615845565b608089013590670de0b6b3a7640000613ad5565b90506000611a8483670de0b6b3a7640000610ffd8560808d0135615692565b90506000611a968260808b0135615845565b90506000600260009054906101000a90046001600160a01b03166001600160a01b031663c6a5026a6040518060a001604052808d6060016020810190611adc919061596e565b611af257611aed60208f018f61484f565b611b08565b8d6000016020016020810190611b08919061484f565b6001600160a01b031681526020018d6060016020810190611b29919061596e565b611b48578d6000016020016020810190611b43919061484f565b611b55565b611b5560208f018f61484f565b6001600160a01b03168152602001611b6d8887615692565b81526020018d6000016040016020810190611b88919061598b565b62ffffff908116825260006020928301526040805160e086901b6001600160e01b031916815284516001600160a01b03908116600483015293850151841660248201529084015160448201526060840151909116606482015260809092015116608482015260a4016080604051808303816000875af1158015611c0f573d6000803e3d6000fd5b505050506040513d601f19601f82011682018060405250810190611c3391906159a8565b5091925060009150611c5a90508b8487611c53608084016060850161596e565b868d611cb2565b5090508015611c725750949998505050505050505050565b8a60c00135871015611c8f575060009a9950505050505050505050565b611c9d60c08c013588615845565b96505050505050611a2a565b50505050919050565b6001546040516324637c3360e11b81526000916060916001600160a01b03909116906348c6f86690611cf2908b908b908b908b908b908b906004016159ee565b600060405180830381865afa925050508015611d3057506040513d6000823e601f3d908101601f19168201604052611d2d9190810190615a2e565b60015b611d9357611d3c615a6a565b806308c379a003611d875750611d50615a85565b80611d5b5750611d89565b611d798189611d6a818b615692565b611d7491906156ef565b613c09565b506000915060609050611d99565b505b3d6000803e3d6000fd5b90925090505b965096945050505050565b60008082600081518110611dba57611dba615457565b602090810291909101015151915081905060015b8351811015611e85578260020b848281518110611ded57611ded615457565b60200260200101516000015160020b1215611e2757838181518110611e1457611e14615457565b6020026020010151600001519250611e73565b8160020b848281518110611e3d57611e3d615457565b60200260200101516000015160020b1315611e7357838181518110611e6457611e64615457565b60200260200101516000015191505b80611e7d816154a7565b915050611dce565b50915091565b600154604051632411122160e11b815260009182916001600160a01b0390911690634822244290611ec090889060040161550b565b602060405180830381865afa158015611edd573d6000803e3d6000fd5b505050506040513d601f19601f82011682018060405250810190611f019190615198565b6001546040516315083fbb60e31b8152600481018390529192506000916001600160a01b039091169063a841fdd890602401602060405180830381865afa158015611f50573d6000803e3d6000fd5b505050506040513d601f19601f82011682018060405250810190611f749190615198565b600154604051630ca32ed160e31b8152600481018590529192506000916001600160a01b0390911690636519768890602401602060405180830381865afa158015611fc3573d6000803e3d6000fd5b505050506040513d601f19601f82011682018060405250810190611fe79190615b0e565b6001600160801b03945090506000808080895b8960020b8160020b12156121475760015460405163da69b0b360e01b8152600481018a9052600283900b60248201526001600160a01b039091169063da69b0b390604401602060405180830381865afa15801561205b573d6000803e3d6000fd5b505050506040513d601f19601f8201168201806040525081019061207f9190615703565b6001546040516319fda27760e01b8152600481018b9052600284900b60248201529196508895506001600160a01b0316906319fda27790604401602060405180830381865afa1580156120d6573d6000803e3d6000fd5b505050506040513d601f19601f820116820180604052508101906120fa9190615703565b9250826121078587615b2b565b6121119190615b2b565b9150886001600160801b0316826001600160801b0316106121325788612134565b815b985061214086826156a5565b9050611ffa565b50505050505050509392505050565b60008082511161219a5760405162461bcd60e51b815260206004820152600a602482015269656d70747920696e666f60b01b60448201526064015b60405180910390fd5b600154604051632411122160e11b8152600091829182916001600160a01b0316906348222442906121cf90899060040161550b565b602060405180830381865afa1580156121ec573d6000803e3d6000fd5b505050506040513d601f19601f820116820180604052508101906122109190615198565b600154604051630ca32ed160e31b8152600481018390529192506000916001600160a01b0390911690636519768890602401602060405180830381865afa15801561225f573d6000803e3d6000fd5b505050506040513d601f19601f820116820180604052508101906122839190615b0e565b6001546040516315083fbb60e31b8152600481018590529192506000916001600160a01b039091169063a841fdd890602401602060405180830381865afa1580156122d2573d6000803e3d6000fd5b505050506040513d601f19601f820116820180604052508101906122f69190615198565b905060005b875181101561253f578288828151811061231757612317615457565b60200260200101516000015161232d9190615b4b565b60020b1561236b5760405162461bcd60e51b815260206004820152600b60248201526a696e76616c69645469636b60a81b6044820152606401612191565b60015488516001600160a01b039091169063da69b0b39086908b908590811061239657612396615457565b6020026020010151600001516040518363ffffffff1660e01b81526004016123cb92919091825260020b602082015260400190565b602060405180830381865afa1580156123e8573d6000803e3d6000fd5b505050506040513d601f19601f8201168201806040525081019061240c9190615703565b9550856001600160801b031660000361242e5760009650505050505050611170565b60015488516001600160a01b03909116906319fda2779086908b908590811061245957612459615457565b6020026020010151600001516040518363ffffffff1660e01b815260040161248e92919091825260020b602082015260400190565b602060405180830381865afa1580156124ab573d6000803e3d6000fd5b505050506040513d601f19601f820116820180604052508101906124cf9190615703565b94508781815181106124e3576124e3615457565b602002602001015160200151856124fa9190615b6d565b6001600160801b031682876001600160801b03166125189190615845565b101561252d5760009650505050505050611170565b80612537816154a7565b9150506122fb565b50600198975050505050505050565b600154604051632411122160e11b81526000916001600160a01b03169063da69b0b39082906348222442906110c1908890600401615055565b61258f61458d565b60006040518060600160405280876001600160a01b0316630dfe16816040518163ffffffff1660e01b8152600401602060405180830381865afa1580156125da573d6000803e3d6000fd5b505050506040513d601f19601f820116820180604052508101906125fe919061546d565b6001600160a01b03168152602001876001600160a01b031663d21220a76040518163ffffffff1660e01b8152600401602060405180830381865afa15801561264a573d6000803e3d6000fd5b505050506040513d601f19601f8201168201806040525081019061266e919061546d565b6001600160a01b03168152602001876001600160a01b031663ddca3f436040518163ffffffff1660e01b8152600401602060405180830381865afa1580156126ba573d6000803e3d6000fd5b505050506040513d601f19601f820116820180604052508101906126de919061548a565b62ffffff169052905060006126f587878787612db8565b606081015190915063ffffffff16156129a55760008160e0015160001461274857612743826060015163ffffffff164261272f9190615845565b60e084015190670de0b6b3a7640000613c52565b612752565b670de0b6b3a76400005b60808301519091506000906127709083670de0b6b3a7640000613ad5565b9050808360a00151116127835780612789565b8260a001515b9050604051806101a0016040528085815260200187151581526020018815158152602001846040015163ffffffff168152602001846060015163ffffffff168152602001846080015181526020018460a0015181526020018460c0015181526020018460e00151815260200184610100015181526020018281526020018a6001600160a01b0316630dfe16816040518163ffffffff1660e01b8152600401602060405180830381865afa158015612844573d6000803e3d6000fd5b505050506040513d601f19601f82011682018060405250810190612868919061546d565b6001600160a01b031663313ce5676040518163ffffffff1660e01b8152600401602060405180830381865afa1580156128a5573d6000803e3d6000fd5b505050506040513d601f19601f820116820180604052508101906128c9919061582a565b60ff1681526020018a6001600160a01b031663d21220a76040518163ffffffff1660e01b8152600401602060405180830381865afa15801561290f573d6000803e3d6000fd5b505050506040513d601f19601f82011682018060405250810190612933919061546d565b6001600160a01b031663313ce5676040518163ffffffff1660e01b8152600401602060405180830381865afa158015612970573d6000803e3d6000fd5b505050506040513d601f19601f82011682018060405250810190612994919061582a565b60ff168152509450505050506129a8565b50505b949350505050565b600154604051632411122160e11b815260609184916000916001600160a01b0316906348222442906129e6908990600401615055565b602060405180830381865afa158015612a03573d6000803e3d6000fd5b505050506040513d601f19601f82011682018060405250810190612a279190615198565b600154604051639525092360e01b815291925060009182916001600160a01b031690639525092390612a5d908b90600401615055565b6101c060405180830381865afa158015612a7b573d6000803e3d6000fd5b505050506040513d601f19601f82011682018060405250810190612a9f91906150e3565b50909250905080612ab0818961552f565b612aba9190615569565b965080612ac7818861552f565b612ad19190615569565b9550600081612ae089896156ca565b612aea919061552f565b60020b6001600160401b03811115612b0457612b046146be565b604051908082528060200260200182016040528015612b6757816020015b612b546040518060a0016040528060008152602001600081526020016000815260200160008152602001600081525090565b815260200190600190039081612b225790505b509050600080846001600160a01b0316633850c7bd6040518163ffffffff1660e01b815260040160e060405180830381865afa158015612bab573d6000803e3d6000fd5b505050506040513d601f19601f82011682018060405250810190612bcf91906155ac565b50505050505090505b8860020b8760020b1215612da957612c8281612bf389613d10565b612c05612c00888c6156a5565b613d10565b60015460405163da69b0b360e01b8152600481018c905260028d900b60248201526001600160a01b039091169063da69b0b3906044015b602060405180830381865afa158015612c59573d6000803e3d6000fd5b505050506040513d601f19601f82011682018060405250810190612c7d9190615703565b614033565b848481518110612c9457612c94615457565b6020026020010151602001858581518110612cb157612cb1615457565b60209081029190910101516040019190915252612d1981612cd189613d10565b612cde612c00888c6156a5565b6001546040516319fda27760e01b8152600481018c905260028d900b60248201526001600160a01b03909116906319fda27790604401612c3c565b848481518110612d2b57612d2b615457565b6020026020010151606001858581518110612d4857612d48615457565b60209081029190910101516080019190915252612d6c612d6788613d10565b6140cf565b838381518110612d7e57612d7e615457565b60209081029190910101515281612d94816154a7565b9250612da2905084886156a5565b9650612bd8565b50909998505050505050505050565b60408051610180810182526000610120820181815261014083018290526101608301829052825260208201819052918101829052606081018290526080810182905260a0810182905260c0810182905260e0810182905261010081019190915260005460405163bfd4c2a560e01b81526001600160a01b03878116600483015286811660248301528515156044830152841515606483015290911690639c3f1e9090829063bfd4c2a590608401602060405180830381865afa158015612e82573d6000803e3d6000fd5b505050506040513d601f19601f82011682018060405250810190612ea69190615198565b6040518263ffffffff1660e01b8152600401612ec491815260200190565b61016060405180830381865afa158015612ee2573d6000803e3d6000fd5b505050506040513d601f19601f82011682018060405250810190612f069190615b8d565b6101008a01525060c088015260a0870152608086015263ffffffff90811660608601521660408401521515602083015250949350505050565b6000612f4c601483615c5a565b15612f7f5760405162461bcd60e51b81526020600482015260036024820152621b5bd960ea1b6044820152606401612191565b600154604051639525092360e01b815260009182918291829182916001600160a01b031690639525092390612fb8908e9060040161550b565b6101c060405180830381865afa158015612fd6573d6000803e3d6000fd5b505050506040513d601f19601f82011682018060405250810190612ffa91906150e3565b50509050806001600160a01b0316633850c7bd6040518163ffffffff1660e01b815260040160e060405180830381865afa15801561303c573d6000803e3d6000fd5b505050506040513d601f19601f8201168201806040525081019061306091906155ac565b5094975092955061307793508692506140cf915050565b935050505b60006130896014876156ef565b6130939085615440565b61309d9087615845565b9050806000036130b257935061315a92505050565b6000886130d5576130d084670de0b6b3a7640000610ffd858e615440565b6130ec565b6130ec670de0b6b3a764000085610ffd858e615440565b90506131018189670de0b6b3a7640000613ad5565b90506000806131298d8d613116600188615845565b8f6131219190615440565b8e878a611cb2565b9150915081600014613144578397505050505050505061315a565b61314f600188615692565b96505050505061307c565b95945050505050565b6000806000836001600160a01b0316630dfe16816040518163ffffffff1660e01b8152600401602060405180830381865afa1580156131a6573d6000803e3d6000fd5b505050506040513d601f19601f820116820180604052508101906131ca919061546d565b846001600160a01b031663d21220a76040518163ffffffff1660e01b8152600401602060405180830381865afa158015613208573d6000803e3d6000fd5b505050506040513d601f19601f8201168201806040525081019061322c919061546d565b856001600160a01b031663ddca3f436040518163ffffffff1660e01b8152600401602060405180830381865afa15801561326a573d6000803e3d6000fd5b505050506040513d601f19601f8201168201806040525081019061328e919061548a565b9196909550909350915050565b60606000600160009054906101000a90046001600160a01b03166001600160a01b031663d41dcbea6040518163ffffffff1660e01b8152600401600060405180830381865afa1580156132f2573d6000803e3d6000fd5b505050506040513d6000823e601f3d908101601f1916820160405261331a9190810190615391565b905060008151600261332c9190615440565b6001600160401b03811115613343576133436146be565b60405190808252806020026020018201604052801561337c57816020015b613369614620565b8152602001906001900390816133615790505b5090506000805b83518110156135b957600060405180606001604052808684815181106133ab576133ab615457565b60200260200101516001600160a01b0316630dfe16816040518163ffffffff1660e01b8152600401602060405180830381865afa1580156133f0573d6000803e3d6000fd5b505050506040513d601f19601f82011682018060405250810190613414919061546d565b6001600160a01b0316815260200186848151811061343457613434615457565b60200260200101516001600160a01b031663d21220a76040518163ffffffff1660e01b8152600401602060405180830381865afa158015613479573d6000803e3d6000fd5b505050506040513d601f19601f8201168201806040525081019061349d919061546d565b6001600160a01b031681526020018684815181106134bd576134bd615457565b60200260200101516001600160a01b031663ddca3f436040518163ffffffff1660e01b8152600401602060405180830381865afa158015613502573d6000803e3d6000fd5b505050506040513d601f19601f82011682018060405250810190613526919061548a565b62ffffff1681525090506135588786848151811061354657613546615457565b602002602001015183600187896140f0565b1561356b5782613567816154a7565b9350505b6135938786848151811061358157613581615457565b602002602001015183600087896140f0565b156135a657826135a2816154a7565b9350505b50806135b1816154a7565b915050613383565b506000816001600160401b038111156135d4576135d46146be565b60405190808252806020026020018201604052801561360d57816020015b6135fa614620565b8152602001906001900390816135f25790505b50905060005b828110156109fe5783818151811061362d5761362d615457565b602002602001015182828151811061364757613647615457565b6020026020010181905250808061365d906154a7565b915050613613565b600154604051639525092360e01b81526000918291829182916001600160a01b039091169063952509239061369e908990600401615055565b6101c060405180830381865afa1580156136bc573d6000803e3d6000fd5b505050506040513d601f19601f820116820180604052508101906136e091906150e3565b600154604051632411122160e11b815293965091945092506000916001600160a01b039091169063482224429061371b908a90600401615055565b602060405180830381865afa158015613738573d6000803e3d6000fd5b505050506040513d601f19601f8201168201806040525081019061375c9190615198565b600154835160405163aa7532af60e01b815292935073__$eacbb88ed4bd2af84aa4d43bcf675bcf7e$__9263aa7532af926137b19289926001600160a01b03909216918991908d906000908a90600401615335565b602060405180830381865af41580156137ce573d6000803e3d6000fd5b505050506040513d601f19601f820116820180604052508101906137f29190615198565b979650505050505050565b60008061380c888a8789612db8565b606081015190915063ffffffff1615613ac65760008160e0015160001461384b57613846826060015163ffffffff164261272f9190615845565b613855565b670de0b6b3a76400005b60808301519091506000906138739083670de0b6b3a7640000613ad5565b9050808360a0015111613886578061388c565b8260a001515b9050604051806101a001604052808a815260200189151581526020018815158152602001846040015163ffffffff168152602001846060015163ffffffff168152602001846080015181526020018460a0015181526020018460c0015181526020018460e00151815260200184610100015181526020018281526020018b6001600160a01b0316630dfe16816040518163ffffffff1660e01b8152600401602060405180830381865afa158015613947573d6000803e3d6000fd5b505050506040513d601f19601f8201168201806040525081019061396b919061546d565b6001600160a01b031663313ce5676040518163ffffffff1660e01b8152600401602060405180830381865afa1580156139a8573d6000803e3d6000fd5b505050506040513d601f19601f820116820180604052508101906139cc919061582a565b60ff1681526020018b6001600160a01b031663d21220a76040518163ffffffff1660e01b8152600401602060405180830381865afa158015613a12573d6000803e3d6000fd5b505050506040513d601f19601f82011682018060405250810190613a36919061546d565b6001600160a01b031663313ce5676040518163ffffffff1660e01b8152600401602060405180830381865afa158015613a73573d6000803e3d6000fd5b505050506040513d601f19601f82011682018060405250810190613a97919061582a565b60ff16815250858781518110613aaf57613aaf615457565b6020026020010181905250600193505050506137f2565b50600098975050505050505050565b6000808060001985870985870292508281108382030391505080600003613b0e5760008411613b0357600080fd5b50829004905061062a565b808411613b465760405162461bcd60e51b815260206004820152600660248201526536bab62234bb60d11b6044820152606401612191565b6000848688096000868103871696879004966002600389028118808a02820302808a02820302808a02820302808a02820302808a02820302808a02909103029181900381900460010186841190950394909402919094039290920491909117919091029150509392505050565b6040516bffffffffffffffffffffffff19606085811b8216602084015284901b16603482015281151560f81b60488201526000906049016040516020818303038152906040528051906020012090509392505050565b613c4e8282604051602401613c1f929190615c6e565b60408051601f198184030181529190526020810180516001600160e01b03166309710a9d60e41b179052614488565b5050565b6000838015613cf257600184168015613c6d57859250613c71565b8392505b508260011c8460011c94505b8415613cec578560801c15613c9157600080fd5b85860281810181811015613ca457600080fd5b8590049650506001851615613ce1578583028387820414613cca578615613cca57600080fd5b81810181811015613cda57600080fd5b8590049350505b8460011c9450613c7d565b50613d08565b838015613d025760009250613d06565b8392505b505b509392505050565b60008060008360020b12613d27578260020b613d2f565b8260020b6000035b9050620d89e8811115613d55576040516315e4079d60e11b815260040160405180910390fd5b600081600116600003613d6c57600160801b613d7e565b6ffffcb933bd6fad37aa2d162d1a5940015b70ffffffffffffffffffffffffffffffffff1690506002821615613db2576ffff97272373d413259a46990580e213a0260801c5b6004821615613dd1576ffff2e50f5f656932ef12357cf3c7fdcc0260801c5b6008821615613df0576fffe5caca7e10e4e61c3624eaa0941cd00260801c5b6010821615613e0f576fffcb9843d60f6159c9db58835c9266440260801c5b6020821615613e2e576fff973b41fa98c081472e6896dfb254c00260801c5b6040821615613e4d576fff2ea16466c96a3843ec78b326b528610260801c5b6080821615613e6c576ffe5dee046a99a2a811c461f1969c30530260801c5b610100821615613e8c576ffcbe86c7900a88aedcffc83b479aa3a40260801c5b610200821615613eac576ff987a7253ac413176f2b074cf7815e540260801c5b610400821615613ecc576ff3392b0822b70005940c7a398e4b70f30260801c5b610800821615613eec576fe7159475a2c29b7443b29c7fa6e889d90260801c5b611000821615613f0c576fd097f3bdfd2022b8845ad8f792aa58250260801c5b612000821615613f2c576fa9f746462d870fdf8a65dc1f90e061e50260801c5b614000821615613f4c576f70d869a156d2a1b890bb3df62baf32f70260801c5b618000821615613f6c576f31be135f97d08fd981231505542fcfa60260801c5b62010000821615613f8d576f09aa508b5b7a84e1c677de54f3e99bc90260801c5b62020000821615613fad576e5d6af8dedb81196699c329225ee6040260801c5b62040000821615613fcc576d2216e584f5fa1ea926041bedfe980260801c5b62080000821615613fe9576b048a170391f7dc42444e8fa20260801c5b60008460020b131561400a57806000198161400657614006615519565b0490505b64010000000081061561401e576001614021565b60005b60ff16602082901c0192505050919050565b600080836001600160a01b0316856001600160a01b03161115614054579293925b846001600160a01b0316866001600160a01b03161161407f576140788585856144a9565b91506140c6565b836001600160a01b0316866001600160a01b031610156140b8576140a48685856144a9565b91506140b185878561451c565b90506140c6565b6140c385858561451c565b90505b94509492505050565b6000806140db83614566565b905061062a8182670de0b6b3a7640000613ad5565b6000805460405163118272bf60e31b815282916001600160a01b031690638c1395f890614125908a908c908a906004016151b1565b600060405180830381865afa158015614142573d6000803e3d6000fd5b505050506040513d6000823e601f3d908101601f1916820160405261416a9190810190615720565b60008054919250906001600160a01b0316635d4936ff61418b8a8c8a613bb3565b6040518263ffffffff1660e01b81526004016141a991815260200190565b602060405180830381865afa1580156141c6573d6000803e3d6000fd5b505050506040513d601f19601f820116820180604052508101906141ea9190615198565b905060006141f9888b8961162e565b60208401519091501561447657604051806101c00160405280898152602001881515815260200184600001516040015181526020018460000151606001518152602001846000015160a0015163ffffffff16815260200184600001516080015163ffffffff16815260200183815260200184602001518152602001846040015181526020016142898a8d8b61162e565b81526020018a6001600160a01b0316630dfe16816040518163ffffffff1660e01b8152600401602060405180830381865afa1580156142cc573d6000803e3d6000fd5b505050506040513d601f19601f820116820180604052508101906142f0919061546d565b6001600160a01b031663313ce5676040518163ffffffff1660e01b8152600401602060405180830381865afa15801561432d573d6000803e3d6000fd5b505050506040513d601f19601f82011682018060405250810190614351919061582a565b60ff1681526020018a6001600160a01b031663d21220a76040518163ffffffff1660e01b8152600401602060405180830381865afa158015614397573d6000803e3d6000fd5b505050506040513d601f19601f820116820180604052508101906143bb919061546d565b6001600160a01b031663313ce5676040518163ffffffff1660e01b8152600401602060405180830381865afa1580156143f8573d6000803e3d6000fd5b505050506040513d601f19601f8201168201806040525081019061441c919061582a565b60ff16815260200182841161443257600061443c565b61443c8385615845565b8152602001846000015160c0015181525085878151811061445f5761445f615457565b60200260200101819052506001935050505061447e565b600093505050505b9695505050505050565b80516a636f6e736f6c652e6c6f67602083016000808483855afa5050505050565b6000826001600160a01b0316846001600160a01b031611156144c9579192915b6001600160a01b0384166145126fffffffffffffffffffffffffffffffff60601b606085901b166144fa8787615cc3565b6001600160a01b0316866001600160a01b0316613ad5565b6129a891906156ef565b6000826001600160a01b0316846001600160a01b0316111561453c579192915b6129a86001600160801b0383166145538686615cc3565b6001600160a01b0316600160601b613ad5565b600060606145856001600160a01b038416670de0b6b3a7640000615440565b901c92915050565b60408051610200810190915260006101a082018181526101c083018290526101e083019190915281908152602001600015158152602001600015158152602001600063ffffffff168152602001600063ffffffff16815260200160008152602001600081526020016000815260200160008152602001600081526020016000815260200160008152602001600081525090565b60408051610220810190915260006101c082018181526101e08301829052610200830191909152819081526020016000151581526020016000815260200160008152602001600063ffffffff168152602001600063ffffffff16815260200160008152602001600081526020016000815260200160008152602001600060ff168152602001600060ff16815260200160008152602001606081525090565b634e487b7160e01b600052604160045260246000fd5b606081018181106001600160401b03821117156146f3576146f36146be565b60405250565b60c081018181106001600160401b03821117156146f3576146f36146be565b60e081018181106001600160401b03821117156146f3576146f36146be565b601f8201601f191681016001600160401b038111828210171561475c5761475c6146be565b6040525050565b60405161476f81614718565b90565b6001600160a01b038116811461478757600080fd5b50565b62ffffff8116811461478757600080fd5b6000606082840312156147ad57600080fd5b6040516147b9816146d4565b80915082356147c781614772565b815260208301356147d781614772565b602082015260408301356147ea8161478a565b6040919091015292915050565b801515811461478757600080fd5b600080600060a0848603121561481a57600080fd5b614824858561479b565b9250606084013561483481614772565b91506080840135614844816147f7565b809150509250925092565b60006020828403121561486157600080fd5b813561062a81614772565b80516001600160a01b0390811683526020808301519091169083015260409081015162ffffff16910152565b6148a382825161486c565b60208101518015156060840152506040810151801515608084015250606081015163ffffffff811660a084015250608081015163ffffffff811660c08401525060a081015160e08381019190915260c0820151610100808501919091529082015161012080850191909152908201516101408085019190915290820151610160808501919091529082015161018080850191909152908201516101a084015201516101c090910152565b6020808252825182820181905260009190848201906040850190845b818110156149905761497c838551614898565b928401926101e09290920191600101614969565b50909695505050505050565b6000606082840312156149ae57600080fd5b50919050565b8060020b811461478757600080fd5b600080600060a084860312156149d857600080fd5b6149e2858561499c565b925060608401356149f2816149b4565b91506080840135614844816149b4565b60008060808385031215614a1557600080fd5b614a1f848461479b565b91506060830135614a2f816149b4565b809150509250929050565b600080600060608486031215614a4f57600080fd5b8335614a5a81614772565b92506020840135614a6a81614772565b91506040840135614844816147f7565b600081518084526020808501945080840160005b83811015614aea578151805160020b8852838101516001600160801b03168489015260408082015190890152606080820151908901526080808201519089015260a0908101519088015260c09096019590820190600101614a8e565b509495945050505050565b6000610200614b0584845161486c565b602083015180151560608601525060408301516080850152606083015160a08501526080830151614b3e60c086018263ffffffff169052565b5060a083015163ffffffff811660e08601525060c08301516101008581019190915260e08401516101208087019190915290840151610140808701919091529084015161016080870191909152908401519061018090614ba28288018460ff169052565b85015191506101a0614bb88782018460ff169052565b908501516101c08701528401516101e08601839052905061315a82860182614a7a565b60208152600061116d6020830184614af5565b600060e082840312156149ae57600080fd5b6000806000806000806101008789031215614c1a57600080fd5b614c24888861499c565b9550606087013594506080870135935060a0870135614c42816147f7565b925060c0870135915060e0870135614c5981614772565b809150509295509295509295565b8281526040602082015260006129a86040830184614a7a565b60006001600160401b03821115614c9957614c996146be565b5060051b60200190565b6001600160801b038116811461478757600080fd5b600082601f830112614cc957600080fd5b81356020614cd682614c80565b60408051614ce48382614737565b84815260c09485028701840194848201935088861115614d0357600080fd5b8488015b86811015614d7b5781818b031215614d1f5760008081fd5b8351614d2a816146f9565b8135614d35816149b4565b815281870135614d4481614ca3565b818801528185013585820152606080830135908201526080808301359082015260a080830135908201528552938501938101614d07565b509098975050505050505050565b600060208284031215614d9b57600080fd5b81356001600160401b03811115614db157600080fd5b6129a884828501614cb8565b60008060808385031215614dd057600080fd5b614dda848461499c565b915060608301356001600160401b03811115614df557600080fd5b614e0185828601614cb8565b9150509250929050565b60008060008060808587031215614e2157600080fd5b8435614e2c81614772565b93506020850135614e3c81614772565b92506040850135614e4c816147f7565b91506060850135614e5c816147f7565b939692955090935050565b6101e081016111708284614898565b600080600060a08486031215614e8b57600080fd5b6149e2858561479b565b602080825282518282018190526000919060409081850190868401855b82811015614ef65781518051855286810151878601528581015186860152606080820151908601526080908101519085015260a09093019290850190600101614eb2565b5091979650505050505050565b600061016082019050614f1782845161486c565b602083015115156060830152604083015163ffffffff8116608084015250606083015163ffffffff811660a084015250608083015160c083015260a083015160e083015260c0830151610100818185015260e085015161012085015280850151610140850152505092915050565b600080600080600060e08688031215614f9d57600080fd5b614fa7878761499c565b9450606086013593506080860135614fbe816147f7565b9497939650939460a0810135945060c0013592915050565b6000602080830181845280855180835260408601915060408160051b870101925083870160005b8281101561502b57603f19888603018452615019858351614af5565b94509285019290850190600101614ffd565b5092979650505050505050565b6000806080838503121561504b57600080fd5b614dda848461479b565b60608101611170828461486c565b805161506e81614772565b919050565b600060c0828403121561508557600080fd5b604051615091816146f9565b809150825181526020830151602082015260408301516040820152606083015160608201526080830151608082015260a083015160a08201525092915050565b805161ffff8116811461506e57600080fd5b60008060008385036101c08112156150fa57600080fd5b845161510581614772565b6020860151909450615116816149b4565b9250610180603f19820181131561512c57600080fd5b604051915061513a82614718565b6151478760408801615073565b825261010086015160208301526101208601516040830152610140860151606083015261517761016087016150d1565b608083015285015160a08201526101a09094015160c0850152509093909250565b6000602082840312156151aa57600080fd5b5051919050565b6001600160a01b039384168152919092166020820152901515604082015260600190565b805163ffffffff8116811461506e57600080fd5b6000602082840312156151fb57600080fd5b61116d826151d5565b600082601f83011261521557600080fd5b8151602061522282614c80565b604080516152308382614737565b84815260c0948502870184019484820193508886111561524f57600080fd5b8488015b86811015614d7b5781818b03121561526b5760008081fd5b8351615276816146f9565b8151615281816149b4565b81528187015161529081614ca3565b818801528185015185820152606080830151908201526080808301519082015260a080830151908201528552938501938101615253565b6000602082840312156152d957600080fd5b81516001600160401b038111156152ef57600080fd5b6129a884828501615204565b805182526020810151602083015260408101516040830152606081015160608301526080810151608083015260a081015160a08301525050565b6001600160a01b03888116825287166020820152600286900b6040820152600061018061536560608401886152fb565b8061012084015261537881840187614a7a565b9415156101408401525050610160015295945050505050565b600060208083850312156153a457600080fd5b82516001600160401b038111156153ba57600080fd5b8301601f810185136153cb57600080fd5b80516153d681614c80565b6040516153e38282614737565b82815260059290921b830184019184810191508783111561540357600080fd5b928401925b828410156137f257835161541b81614772565b82529284019290840190615408565b634e487b7160e01b600052601160045260246000fd5b80820281158282048414176111705761117061542a565b634e487b7160e01b600052603260045260246000fd5b60006020828403121561547f57600080fd5b815161062a81614772565b60006020828403121561549c57600080fd5b815161062a8161478a565b6000600182016154b9576154b961542a565b5060010190565b80356154cb81614772565b6001600160a01b0390811683526020820135906154e782614772565b16602083015260408101356154fb8161478a565b62ffffff81166040840152505050565b6060810161117082846154c0565b634e487b7160e01b600052601260045260246000fd5b60008160020b8360020b8061554657615546615519565b627fffff198214600019821416156155605761556061542a565b90059392505050565b60008260020b8260020b028060020b91508082146155895761558961542a565b5092915050565b805160ff8116811461506e57600080fd5b805161506e816147f7565b600080600080600080600060e0888a0312156155c757600080fd5b87516155d281614772565b60208901519097506155e3816149b4565b95506155f1604089016150d1565b94506155ff606089016150d1565b935061560d608089016150d1565b925061561b60a08901615590565b915060c088015161562b816147f7565b8091505092959891949750929550565b60006060828403121561564d57600080fd5b61116d838361479b565b600286900b8152610140810161567060208301876152fb565b60e0820194909452600292830b610100820152910b6101209091015292915050565b808201808211156111705761117061542a565b600281810b9083900b01627fffff8113627fffff19821217156111705761117061542a565b600282810b9082900b03627fffff198112627fffff821317156111705761117061542a565b6000826156fe576156fe615519565b500490565b60006020828403121561571557600080fd5b815161062a81614ca3565b60006020828403121561573257600080fd5b81516001600160401b038082111561574957600080fd5b908301906060828603121561575d57600080fd5b604051615769816146d4565b82518281111561577857600080fd5b830160e0818803121561578a57600080fd5b615792614763565b61579b82615063565b81526157a9602083016155a1565b602082015260408201516040820152606082015160608201526157ce608083016151d5565b60808201526157df60a083016151d5565b60a082015260c0820151848111156157f657600080fd5b61580289828501615204565b60c0830152508252506020838101519082015260409283015192810192909252509392505050565b60006020828403121561583c57600080fd5b61116d82615590565b818103818111156111705761117061542a565b6001600160a01b038881168252871660208201528515156040820152600285900b606082015263ffffffff84166080820152600061018061589c60a08401866152fb565b806101608401526158af81840185614a7a565b9a9950505050505050505050565b600080604083850312156158d057600080fd5b82516001600160401b038111156158e657600080fd5b6158f285828601615204565b925050602083015190509250929050565b600080600080600060a0868803121561591b57600080fd5b855161592681614ca3565b602087015190955061593781614ca3565b604087015190945061594881614ca3565b606087015190935061595981614ca3565b80925050608086015190509295509295909350565b60006020828403121561598057600080fd5b813561062a816147f7565b60006020828403121561599d57600080fd5b813561062a8161478a565b600080600080608085870312156159be57600080fd5b8451935060208501516159d081614772565b92506159de604086016151d5565b6060959095015193969295505050565b61010081016159fd82896154c0565b6060820196909652608081019490945291151560a084015260c08301526001600160a01b031660e090910152919050565b60008060408385031215615a4157600080fd5b8251915060208301516001600160401b03811115615a5e57600080fd5b614e0185828601615204565b600060033d111561476f5760046000803e5060005160e01c90565b600060443d1015615a935790565b6040516003193d81016004833e81513d6001600160401b038160248401118184111715615ac257505050505090565b8285019150815181811115615ada5750505050505090565b843d8701016020828501011115615af45750505050505090565b615b0360208286010187614737565b509095945050505050565b600060208284031215615b2057600080fd5b815161062a816149b4565b6001600160801b038281168282160390808211156155895761558961542a565b60008260020b80615b5e57615b5e615519565b808360020b0791505092915050565b6001600160801b038181168382160190808211156155895761558961542a565b6000806000806000806000806000898b03610160811215615bad57600080fd5b6060811215615bbb57600080fd5b50604051615bc8816146d4565b8a51615bd381614772565b815260208b0151615be381614772565b602082015260408b0151615bf68161478a565b60408201529850615c0960608b016155a1565b9750615c1760808b016151d5565b9650615c2560a08b016151d5565b955060c08a0151945060e08a015193506101008a015192506101208a015191506101408a015190509295985092959850929598565b600082615c6957615c69615519565b500690565b604081526000835180604084015260005b81811015615c9c5760208187018101516060868401015201615c7f565b506000606082850101526060601f19601f8301168401019150508260208301529392505050565b6001600160a01b038281168282160390808211156155895761558961542a56fea264697066735822122042625be7b9f6c4d48ac1a00151303befbf534b359f5828b7e1b96727009ffae564736f6c63430008120033",
  "linkReferences": {
    "src/PremiumComputer.sol": {
      "PremiumComputer": [
        {
          "length": 20,
          "start": 1682
        },
        {
          "length": 20,
          "start": 4218
        },
        {
          "length": 20,
          "start": 6318
        },
        {
          "length": 20,
          "start": 14431
        }
      ]
    }
  },
  "deployedLinkReferences": {
    "src/PremiumComputer.sol": {
      "PremiumComputer": [
        {
          "length": 20,
          "start": 1446
        },
        {
          "length": 20,
          "start": 3982
        },
        {
          "length": 20,
          "start": 6082
        },
        {
          "length": 20,
          "start": 14195
        }
      ]
    }
  }
}