{
  "abi": [
    {
      "inputs": [
        {
          "internalType": "address",
          "name": "_poolManager",
          "type": "address"
        },
        {
          "internalType": "address",
          "name": "_marginFacility",
          "type": "address"
        },
        {
          "internalType": "address",
          "name": "borrowFacility",
          "type": "address"
        }
      ],
      "stateMutability": "nonpayable",
      "type": "constructor"
    },
    {
      "inputs": [
        {
          "internalType": "address",
          "name": "trader",
          "type": "address"
        }
      ],
      "name": "getActiveMarginPositions",
      "outputs": [
        {
          "components": [
            {
              "components": [
                {
                  "internalType": "address",
                  "name": "token0",
                  "type": "address"
                },
                {
                  "internalType": "address",
                  "name": "token1",
                  "type": "address"
                },
                {
                  "internalType": "uint24",
                  "name": "fee",
                  "type": "uint24"
                }
              ],
              "internalType": "struct PoolKey",
              "name": "poolKey",
              "type": "tuple"
            },
            {
              "internalType": "bool",
              "name": "isToken0",
              "type": "bool"
            },
            {
              "internalType": "uint256",
              "name": "totalDebtOutput",
              "type": "uint256"
            },
            {
              "internalType": "uint256",
              "name": "totalDebtInput",
              "type": "uint256"
            },
            {
              "internalType": "uint32",
              "name": "openTime",
              "type": "uint32"
            },
            {
              "internalType": "uint32",
              "name": "repayTime",
              "type": "uint32"
            },
            {
              "internalType": "uint256",
              "name": "premiumDeposit",
              "type": "uint256"
            },
            {
              "internalType": "uint256",
              "name": "totalPosition",
              "type": "uint256"
            },
            {
              "internalType": "uint256",
              "name": "margin",
              "type": "uint256"
            },
            {
              "internalType": "uint256",
              "name": "premiumOwed",
              "type": "uint256"
            }
          ],
          "internalType": "struct DataProvider.MarginPositionInfo[]",
          "name": "",
          "type": "tuple[]"
        }
      ],
      "stateMutability": "view",
      "type": "function"
    },
    {
      "inputs": [
        {
          "internalType": "address",
          "name": "pool",
          "type": "address"
        },
        {
          "internalType": "address",
          "name": "trader",
          "type": "address"
        },
        {
          "internalType": "bool",
          "name": "isToken",
          "type": "bool"
        }
      ],
      "name": "getMarginPosition",
      "outputs": [
        {
          "components": [
            {
              "components": [
                {
                  "internalType": "address",
                  "name": "token0",
                  "type": "address"
                },
                {
                  "internalType": "address",
                  "name": "token1",
                  "type": "address"
                },
                {
                  "internalType": "uint24",
                  "name": "fee",
                  "type": "uint24"
                }
              ],
              "internalType": "struct PoolKey",
              "name": "poolKey",
              "type": "tuple"
            },
            {
              "internalType": "bool",
              "name": "isToken0",
              "type": "bool"
            },
            {
              "internalType": "uint256",
              "name": "totalDebtOutput",
              "type": "uint256"
            },
            {
              "internalType": "uint256",
              "name": "totalDebtInput",
              "type": "uint256"
            },
            {
              "internalType": "uint32",
              "name": "openTime",
              "type": "uint32"
            },
            {
              "internalType": "uint32",
              "name": "repayTime",
              "type": "uint32"
            },
            {
              "internalType": "uint256",
              "name": "premiumDeposit",
              "type": "uint256"
            },
            {
              "internalType": "uint256",
              "name": "totalPosition",
              "type": "uint256"
            },
            {
              "internalType": "uint256",
              "name": "margin",
              "type": "uint256"
            },
            {
              "internalType": "uint256",
              "name": "premiumOwed",
              "type": "uint256"
            }
          ],
          "internalType": "struct DataProvider.MarginPositionInfo",
          "name": "",
          "type": "tuple"
        }
      ],
      "stateMutability": "view",
      "type": "function"
    },
    {
      "inputs": [
        {
          "components": [
            {
              "internalType": "address",
              "name": "token0",
              "type": "address"
            },
            {
              "internalType": "address",
              "name": "token1",
              "type": "address"
            },
            {
              "internalType": "uint24",
              "name": "fee",
              "type": "uint24"
            }
          ],
          "internalType": "struct PoolKey",
          "name": "key",
          "type": "tuple"
        },
        {
          "internalType": "int24",
          "name": "tickLower",
          "type": "int24"
        },
        {
          "internalType": "int24",
          "name": "tickUpper",
          "type": "int24"
        }
      ],
      "name": "getMaxWithdrawable",
      "outputs": [
        {
          "internalType": "uint128",
          "name": "maxWithdrawable",
          "type": "uint128"
        }
      ],
      "stateMutability": "view",
      "type": "function"
    },
    {
      "inputs": [
        {
          "internalType": "address",
          "name": "pool",
          "type": "address"
        }
      ],
      "name": "getPoolkeys",
      "outputs": [
        {
          "internalType": "address",
          "name": "token0",
          "type": "address"
        },
        {
          "internalType": "address",
          "name": "token1",
          "type": "address"
        },
        {
          "internalType": "uint24",
          "name": "fee",
          "type": "uint24"
        }
      ],
      "stateMutability": "view",
      "type": "function"
    },
    {
      "inputs": [
        {
          "components": [
            {
              "internalType": "address",
              "name": "token0",
              "type": "address"
            },
            {
              "internalType": "address",
              "name": "token1",
              "type": "address"
            },
            {
              "internalType": "uint24",
              "name": "fee",
              "type": "uint24"
            }
          ],
          "internalType": "struct PoolKey",
          "name": "poolKey",
          "type": "tuple"
        },
        {
          "internalType": "address",
          "name": "trader",
          "type": "address"
        },
        {
          "internalType": "bool",
          "name": "isToken0",
          "type": "bool"
        }
      ],
      "name": "premiumOwed",
      "outputs": [
        {
          "internalType": "uint256",
          "name": "",
          "type": "uint256"
        }
      ],
      "stateMutability": "view",
      "type": "function"
    }
  ],
  "bytecode": {
    "object": "0x60806040523480156200001157600080fd5b5060405162001efc38038062001efc833981016040819052620000349162000087565b50600080546001600160a01b039283166001600160a01b03199182161790915560018054939092169216919091179055620000d1565b80516001600160a01b03811681146200008257600080fd5b919050565b6000806000606084860312156200009d57600080fd5b620000a8846200006a565b9250620000b8602085016200006a565b9150620000c8604085016200006a565b90509250925092565b611e1b80620000e16000396000f3fe608060405234801561001057600080fd5b50600436106100575760003560e01c80632d6cf1f41461005c5780638e68ad3614610085578063c229a332146100b0578063dd65c328146100ee578063fd7072881461010e575b600080fd5b61006f61006a366004611375565b61012f565b60405161007c9190611471565b60405180910390f35b610098610093366004611495565b610427565b6040516001600160801b03909116815260200161007c565b6100c36100be3660046114db565b61070d565b604080516001600160a01b03948516815293909216602084015262ffffff169082015260600161007c565b6101016100fc3660046114db565b610845565b60405161007c91906114f8565b61012161011c366004611655565b610ffe565b60405190815260200161007c565b6101376112e4565b60006040518060600160405280866001600160a01b0316630dfe16816040518163ffffffff1660e01b8152600401602060405180830381865afa158015610182573d6000803e3d6000fd5b505050506040513d601f19601f820116820180604052508101906101a691906116e5565b6001600160a01b03168152602001866001600160a01b031663d21220a76040518163ffffffff1660e01b8152600401602060405180830381865afa1580156101f2573d6000803e3d6000fd5b505050506040513d601f19601f8201168201806040525081019061021691906116e5565b6001600160a01b03168152602001866001600160a01b031663ddca3f436040518163ffffffff1660e01b8152600401602060405180830381865afa158015610262573d6000803e3d6000fd5b505050506040513d601f19601f820116820180604052508101906102869190611702565b62ffffff1690526000805460405163118272bf60e31b815292935090916001600160a01b0390911690638c1395f8906102c79089908990899060040161171f565b600060405180830381865afa1580156102e4573d6000803e3d6000fd5b505050506040513d6000823e601f3d908101601f1916820160405261030c9190810190611864565b60008054919250906001600160a01b0316635d4936ff61032d8989896111ac565b6040518263ffffffff1660e01b815260040161034b91815260200190565b602060405180830381865afa158015610368573d6000803e3d6000fd5b505050506040513d601f19601f8201168201806040525081019061038c9190611976565b9050600061039b848888610ffe565b9050604051806101400160405280858152602001871515815260200184600001516040015181526020018460000151606001518152602001846000015160a0015163ffffffff168152602001846000015160c0015163ffffffff1681526020018381526020018460200151815260200184604001518152602001828152509450505050505b9392505050565b600154604051632411122160e11b815260009182916001600160a01b039091169063482224429061045c90889060040161198f565b602060405180830381865afa158015610479573d6000803e3d6000fd5b505050506040513d601f19601f8201168201806040525081019061049d9190611976565b6001546040516315083fbb60e31b8152600481018390529192506000916001600160a01b039091169063a841fdd890602401602060405180830381865afa1580156104ec573d6000803e3d6000fd5b505050506040513d601f19601f820116820180604052508101906105109190611976565b600154604051630ca32ed160e31b8152600481018590529192506000916001600160a01b0390911690636519768890602401602060405180830381865afa15801561055f573d6000803e3d6000fd5b505050506040513d601f19601f8201168201806040525081019061058391906119e0565b6001600160801b03945090506000808080895b8960020b8160020b12156106fe5760015460405163da69b0b360e01b8152600481018a9052600283900b60248201526001600160a01b039091169063da69b0b390604401602060405180830381865afa1580156105f7573d6000803e3d6000fd5b505050506040513d601f19601f8201168201806040525081019061061b91906119fd565b9450610639876001600160801b038716670de0b6b3a7640000611202565b6001546040516319fda27760e01b8152600481018b9052600284900b60248201529195506001600160a01b0316906319fda27790604401602060405180830381865afa15801561068d573d6000803e3d6000fd5b505050506040513d601f19601f820116820180604052508101906106b191906119fd565b9250826106be8587611a2e565b6106c89190611a2e565b9150886001600160801b0316826001600160801b0316106106e957886106eb565b815b98506106f78682611a55565b9050610596565b50505050505050509392505050565b6000806000836001600160a01b0316630dfe16816040518163ffffffff1660e01b8152600401602060405180830381865afa158015610750573d6000803e3d6000fd5b505050506040513d601f19601f8201168201806040525081019061077491906116e5565b846001600160a01b031663d21220a76040518163ffffffff1660e01b8152600401602060405180830381865afa1580156107b2573d6000803e3d6000fd5b505050506040513d601f19601f820116820180604052508101906107d691906116e5565b856001600160a01b031663ddca3f436040518163ffffffff1660e01b8152600401602060405180830381865afa158015610814573d6000803e3d6000fd5b505050506040513d601f19601f820116820180604052508101906108389190611702565b9196909550909350915050565b60606000600160009054906101000a90046001600160a01b03166001600160a01b031663d41dcbea6040518163ffffffff1660e01b8152600401600060405180830381865afa15801561089c573d6000803e3d6000fd5b505050506040513d6000823e601f3d908101601f191682016040526108c49190810190611a7a565b90506000815160026108d69190611b14565b905060008167ffffffffffffffff8111156108f3576108f3611547565b60405190808252806020026020018201604052801561092c57816020015b6109196112e4565b8152602001906001900390816109115790505b5090506000805b8451811015610f34576000604051806060016040528087848151811061095b5761095b611b2b565b60200260200101516001600160a01b0316630dfe16816040518163ffffffff1660e01b8152600401602060405180830381865afa1580156109a0573d6000803e3d6000fd5b505050506040513d601f19601f820116820180604052508101906109c491906116e5565b6001600160a01b031681526020018784815181106109e4576109e4611b2b565b60200260200101516001600160a01b031663d21220a76040518163ffffffff1660e01b8152600401602060405180830381865afa158015610a29573d6000803e3d6000fd5b505050506040513d601f19601f82011682018060405250810190610a4d91906116e5565b6001600160a01b03168152602001878481518110610a6d57610a6d611b2b565b60200260200101516001600160a01b031663ddca3f436040518163ffffffff1660e01b8152600401602060405180830381865afa158015610ab2573d6000803e3d6000fd5b505050506040513d601f19601f82011682018060405250810190610ad69190611702565b62ffffff16905260008054885192935090916001600160a01b0390911690638c1395f890899086908110610b0c57610b0c611b2b565b60200260200101518b60006040518463ffffffff1660e01b8152600401610b359392919061171f565b600060405180830381865afa158015610b52573d6000803e3d6000fd5b505050506040513d6000823e601f3d908101601f19168201604052610b7a9190810190611864565b905060008060009054906101000a90046001600160a01b03166001600160a01b0316635d4936ff610bc68a8781518110610bb657610bb6611b2b565b60200260200101518d60006111ac565b6040518263ffffffff1660e01b8152600401610be491815260200190565b602060405180830381865afa158015610c01573d6000803e3d6000fd5b505050506040513d601f19601f82011682018060405250810190610c259190611976565b905060008060009054906101000a90046001600160a01b03166001600160a01b0316638c1395f88a8781518110610c5e57610c5e611b2b565b60200260200101518d60016040518463ffffffff1660e01b8152600401610c879392919061171f565b600060405180830381865afa158015610ca4573d6000803e3d6000fd5b505050506040513d6000823e601f3d908101601f19168201604052610ccc9190810190611864565b905060008060009054906101000a90046001600160a01b03166001600160a01b0316635d4936ff610d188c8981518110610d0857610d08611b2b565b60200260200101518f60016111ac565b6040518263ffffffff1660e01b8152600401610d3691815260200190565b602060405180830381865afa158015610d53573d6000803e3d6000fd5b505050506040513d601f19601f82011682018060405250810190610d779190611976565b825160a0015190915063ffffffff1615610e3d5760405180610140016040528086815260200160011515815260200183600001516040015181526020018360000151606001518152602001836000015160a0015163ffffffff168152602001836000015160c0015163ffffffff1681526020018281526020018360200151815260200183604001518152602001610e10878f6001610ffe565b905288610e1d8989611b41565b81518110610e2d57610e2d611b2b565b6020026020010181905250610e4b565b86610e4781611b54565b9750505b835160a0015163ffffffff1615610f0e5760405180610140016040528086815260200160001515815260200185600001516040015181526020018560000151606001518152602001856000015160a0015163ffffffff168152602001856000015160c0015163ffffffff1681526020018481526020018560200151815260200185604001518152602001610ee1878f6000610ffe565b905288610eee8989611b41565b81518110610efe57610efe611b2b565b6020026020010181905250610f1c565b86610f1881611b54565b9750505b50505050508080610f2c90611b54565b915050610933565b506000610f418285611b41565b67ffffffffffffffff811115610f5957610f59611547565b604051908082528060200260200182016040528015610f9257816020015b610f7f6112e4565b815260200190600190039081610f775790505b50905060005b610fa28386611b41565b811015610ff357838181518110610fbb57610fbb611b2b565b6020026020010151828281518110610fd557610fd5611b2b565b60200260200101819052508080610feb90611b54565b915050610f98565b509695505050505050565b600154604051639525092360e01b81526000918291829182916001600160a01b0390911690639525092390611037908a90600401611b6d565b6101a060405180830381865afa158015611055573d6000803e3d6000fd5b505050506040513d601f19601f820116820180604052508101906110799190611bb3565b6000805460405163118272bf60e31b8152949750929550909350916001600160a01b0390911690638c1395f8906110b8908a9088908b9060040161171f565b600060405180830381865afa1580156110d5573d6000803e3d6000fd5b505050506040513d6000823e601f3d908101601f191682016040526110fd9190810190611864565b6001548351825160e00151604051630d527ba960e01b815293945060009373__$eacbb88ed4bd2af84aa4d43bcf675bcf7e$__93630d527ba993611158938b936001600160a01b03909316928e15928c929091600401611d1a565b600060405180830381865af4158015611175573d6000803e3d6000fd5b505050506040513d6000823e601f3d908101601f1916820160405261119d9190810190611d95565b509a9950505050505050505050565b6040516bffffffffffffffffffffffff19606085811b8216602084015284901b16603482015281151560f81b60488201526000906049016040516020818303038152906040528051906020012090509392505050565b600080806000198587098587029250828110838203039150508060000361123b576000841161123057600080fd5b508290049050610420565b8084116112775760405162461bcd60e51b815260206004820152600660248201526536bab62234bb60d11b604482015260640160405180910390fd5b6000848688096000868103871696879004966002600389028118808a02820302808a02820302808a02820302808a02820302808a02820302808a02909103029181900381900460010186841190950394909402919094039290920491909117919091029150509392505050565b604080516101a0810182526000610140820181815261016083018290526101808301829052825260208201819052918101829052606081018290526080810182905260a0810182905260c0810182905260e08101829052610100810182905261012081019190915290565b6001600160a01b038116811461136457600080fd5b50565b801515811461136457600080fd5b60008060006060848603121561138a57600080fd5b83356113958161134f565b925060208401356113a58161134f565b915060408401356113b581611367565b809150509250925092565b6113f282825180516001600160a01b0390811683526020808301519091169083015260409081015162ffffff16910152565b602081015180151560608401525060408101516080830152606081015160a0830152608081015161142b60c084018263ffffffff169052565b5060a081015163ffffffff811660e08401525060c08101516101008381019190915260e08201516101208085019190915290820151610140840152015161016090910152565b610180810161148082846113c0565b92915050565b8060020b811461136457600080fd5b600080600083850360a08112156114ab57600080fd5b60608112156114b957600080fd5b5083925060608401356114cb81611486565b915060808401356113b581611486565b6000602082840312156114ed57600080fd5b81356104208161134f565b6020808252825182820181905260009190848201906040850190845b8181101561153b576115278385516113c0565b928401926101809290920191600101611514565b50909695505050505050565b634e487b7160e01b600052604160045260246000fd5b6040516060810167ffffffffffffffff8111828210171561158057611580611547565b60405290565b60405160c0810167ffffffffffffffff8111828210171561158057611580611547565b604051610100810167ffffffffffffffff8111828210171561158057611580611547565b60405160e0810167ffffffffffffffff8111828210171561158057611580611547565b60405160a0810167ffffffffffffffff8111828210171561158057611580611547565b604051601f8201601f1916810167ffffffffffffffff8111828210171561163c5761163c611547565b604052919050565b62ffffff8116811461136457600080fd5b600080600083850360a081121561166b57600080fd5b606081121561167957600080fd5b5061168261155d565b843561168d8161134f565b8152602085013561169d8161134f565b602082015260408501356116b081611644565b6040820152925060608401356116c58161134f565b915060808401356113b581611367565b80516116e08161134f565b919050565b6000602082840312156116f757600080fd5b81516104208161134f565b60006020828403121561171457600080fd5b815161042081611644565b6001600160a01b039384168152919092166020820152901515604082015260600190565b80516116e081611367565b805163ffffffff811681146116e057600080fd5b600067ffffffffffffffff82111561177c5761177c611547565b5060051b60200190565b80516001600160801b03811681146116e057600080fd5b600082601f8301126117ae57600080fd5b815160206117c36117be83611762565b611613565b82815260c092830285018201928282019190878511156117e257600080fd5b8387015b858110156118575781818a0312156117fe5760008081fd5b611806611586565b815161181181611486565b815261181e828701611786565b8187015260408281015190820152606080830151908201526080808301519082015260a0808301519082015284529284019281016117e6565b5090979650505050505050565b60006020828403121561187657600080fd5b815167ffffffffffffffff8082111561188e57600080fd5b90830190606082860312156118a257600080fd5b6118aa61155d565b8251828111156118b957600080fd5b830161010081880312156118cc57600080fd5b6118d46115a9565b6118dd826116d5565b81526118eb60208301611743565b602082015260408201516040820152606082015160608201526080820151608082015261191a60a0830161174e565b60a082015261192b60c0830161174e565b60c082015260e08201518481111561194257600080fd5b61194e8982850161179d565b60e0830152508252506020838101519082015260409283015192810192909252509392505050565b60006020828403121561198857600080fd5b5051919050565b60608101823561199e8161134f565b6001600160a01b0390811683526020840135906119ba8261134f565b16602083015260408301356119ce81611644565b62ffffff811660408401525092915050565b6000602082840312156119f257600080fd5b815161042081611486565b600060208284031215611a0f57600080fd5b61042082611786565b634e487b7160e01b600052601160045260246000fd5b6001600160801b03828116828216039080821115611a4e57611a4e611a18565b5092915050565b600281810b9083900b01627fffff8113627fffff198212171561148057611480611a18565b60006020808385031215611a8d57600080fd5b825167ffffffffffffffff811115611aa457600080fd5b8301601f81018513611ab557600080fd5b8051611ac36117be82611762565b81815260059190911b82018301908381019087831115611ae257600080fd5b928401925b82841015611b09578351611afa8161134f565b82529284019290840190611ae7565b979650505050505050565b808202811582820484141761148057611480611a18565b634e487b7160e01b600052603260045260246000fd5b8181038181111561148057611480611a18565b600060018201611b6657611b66611a18565b5060010190565b81516001600160a01b0390811682526020808401519091169082015260408083015162ffffff169082015260608101611480565b805161ffff811681146116e057600080fd5b60008060008385036101a0811215611bca57600080fd5b8451611bd58161134f565b6020860151909450611be681611486565b9250603f190161016080821215611bfc57600080fd5b611c046115cd565b60a0831215611c1257600080fd5b611c1a6115f0565b925060408701518352606087015160208401526080870151604084015260a0870151606084015260c0870151608084015282815260e0870151602082015261010087015160408201526101208701516060820152611c7b6101408801611ba1565b60808201529086015160a08201526101809095015160c08601525091949093509050565b600081518084526020808501945080840160005b83811015611d0f578151805160020b8852838101516001600160801b03168489015260408082015190890152606080820151908901526080808201519089015260a0908101519088015260c09096019590820190600101611cb3565b509495945050505050565b600061014060018060a01b03808a16845280891660208501525086151560408401528560020b606084015284516080840152602085015160a0840152604085015160c0840152606085015160e0840152608085015161010084015280610120840152611d8881840185611c9f565b9998505050505050505050565b600080600060608486031215611daa57600080fd5b835167ffffffffffffffff811115611dc157600080fd5b611dcd8682870161179d565b9350506020840151915060408401519050925092509256fea264697066735822122024f54b349aab71a8f440d5b1e81f0c32cd4cc27e393e05e328f55b4085f51a3264736f6c63430008150033",
    "linkReferences": {
      "src/PremiumComputer.sol": {
        "PremiumComputer": [
          {
            "start": 4606,
            "length": 20
          }
        ]
      }
    }
  },
  "methodIdentifiers": {
    "getActiveMarginPositions(address)": "dd65c328",
    "getMarginPosition(address,address,bool)": "2d6cf1f4",
    "getMaxWithdrawable((address,address,uint24),int24,int24)": "8e68ad36",
    "getPoolkeys(address)": "c229a332",
    "premiumOwed((address,address,uint24),address,bool)": "fd707288"
  },
  "id": 62
}