{
  "abi": [
    {
      "inputs": [
        {
          "internalType": "address",
          "name": "_poolManager",
          "type": "address"
        },
        {
          "internalType": "address",
          "name": "_marginFacility",
          "type": "address"
        },
        {
          "internalType": "address",
          "name": "borrowFacility",
          "type": "address"
        }
      ],
      "stateMutability": "nonpayable",
      "type": "constructor"
    },
    {
      "inputs": [
        {
          "internalType": "address",
          "name": "trader",
          "type": "address"
        }
      ],
      "name": "getActiveMarginPositions",
      "outputs": [
        {
          "components": [
            {
              "components": [
                {
                  "internalType": "address",
                  "name": "token0",
                  "type": "address"
                },
                {
                  "internalType": "address",
                  "name": "token1",
                  "type": "address"
                },
                {
                  "internalType": "uint24",
                  "name": "fee",
                  "type": "uint24"
                }
              ],
              "internalType": "struct PoolKey",
              "name": "poolKey",
              "type": "tuple"
            },
            {
              "internalType": "bool",
              "name": "isToken0",
              "type": "bool"
            },
            {
              "internalType": "uint256",
              "name": "totalDebtOutput",
              "type": "uint256"
            },
            {
              "internalType": "uint256",
              "name": "totalDebtInput",
              "type": "uint256"
            },
            {
              "internalType": "uint32",
              "name": "openTime",
              "type": "uint32"
            },
            {
              "internalType": "uint32",
              "name": "repayTime",
              "type": "uint32"
            },
            {
              "internalType": "uint256",
              "name": "premiumDeposit",
              "type": "uint256"
            },
            {
              "internalType": "uint256",
              "name": "totalPosition",
              "type": "uint256"
            },
            {
              "internalType": "uint256",
              "name": "margin",
              "type": "uint256"
            },
            {
              "internalType": "uint256",
              "name": "premiumOwed",
              "type": "uint256"
            },
            {
              "internalType": "uint256",
              "name": "token0Decimals",
              "type": "uint256"
            },
            {
              "internalType": "uint256",
              "name": "token1Decimals",
              "type": "uint256"
            }
          ],
          "internalType": "struct DataProvider.MarginPositionInfo[]",
          "name": "",
          "type": "tuple[]"
        }
      ],
      "stateMutability": "view",
      "type": "function"
    },
    {
      "inputs": [
        {
          "components": [
            {
              "internalType": "address",
              "name": "token0",
              "type": "address"
            },
            {
              "internalType": "address",
              "name": "token1",
              "type": "address"
            },
            {
              "internalType": "uint24",
              "name": "fee",
              "type": "uint24"
            }
          ],
          "internalType": "struct PoolKey",
          "name": "key",
          "type": "tuple"
        },
        {
          "components": [
            {
              "internalType": "int24",
              "name": "tick",
              "type": "int24"
            },
            {
              "internalType": "uint128",
              "name": "liquidity",
              "type": "uint128"
            },
            {
              "internalType": "uint256",
              "name": "premium",
              "type": "uint256"
            },
            {
              "internalType": "uint256",
              "name": "feeGrowthInside0LastX128",
              "type": "uint256"
            },
            {
              "internalType": "uint256",
              "name": "feeGrowthInside1LastX128",
              "type": "uint256"
            },
            {
              "internalType": "uint256",
              "name": "lastGrowth",
              "type": "uint256"
            }
          ],
          "internalType": "struct LiquidityLoan[]",
          "name": "borrowInfo",
          "type": "tuple[]"
        }
      ],
      "name": "getIsBorrowable",
      "outputs": [
        {
          "internalType": "bool",
          "name": "",
          "type": "bool"
        }
      ],
      "stateMutability": "view",
      "type": "function"
    },
    {
      "inputs": [
        {
          "internalType": "address",
          "name": "pool",
          "type": "address"
        },
        {
          "internalType": "address",
          "name": "trader",
          "type": "address"
        },
        {
          "internalType": "bool",
          "name": "isToken",
          "type": "bool"
        }
      ],
      "name": "getMarginPosition",
      "outputs": [
        {
          "components": [
            {
              "components": [
                {
                  "internalType": "address",
                  "name": "token0",
                  "type": "address"
                },
                {
                  "internalType": "address",
                  "name": "token1",
                  "type": "address"
                },
                {
                  "internalType": "uint24",
                  "name": "fee",
                  "type": "uint24"
                }
              ],
              "internalType": "struct PoolKey",
              "name": "poolKey",
              "type": "tuple"
            },
            {
              "internalType": "bool",
              "name": "isToken0",
              "type": "bool"
            },
            {
              "internalType": "uint256",
              "name": "totalDebtOutput",
              "type": "uint256"
            },
            {
              "internalType": "uint256",
              "name": "totalDebtInput",
              "type": "uint256"
            },
            {
              "internalType": "uint32",
              "name": "openTime",
              "type": "uint32"
            },
            {
              "internalType": "uint32",
              "name": "repayTime",
              "type": "uint32"
            },
            {
              "internalType": "uint256",
              "name": "premiumDeposit",
              "type": "uint256"
            },
            {
              "internalType": "uint256",
              "name": "totalPosition",
              "type": "uint256"
            },
            {
              "internalType": "uint256",
              "name": "margin",
              "type": "uint256"
            },
            {
              "internalType": "uint256",
              "name": "premiumOwed",
              "type": "uint256"
            },
            {
              "internalType": "uint256",
              "name": "token0Decimals",
              "type": "uint256"
            },
            {
              "internalType": "uint256",
              "name": "token1Decimals",
              "type": "uint256"
            }
          ],
          "internalType": "struct DataProvider.MarginPositionInfo",
          "name": "",
          "type": "tuple"
        }
      ],
      "stateMutability": "view",
      "type": "function"
    },
    {
      "inputs": [
        {
          "components": [
            {
              "internalType": "address",
              "name": "token0",
              "type": "address"
            },
            {
              "internalType": "address",
              "name": "token1",
              "type": "address"
            },
            {
              "internalType": "uint24",
              "name": "fee",
              "type": "uint24"
            }
          ],
          "internalType": "struct PoolKey",
          "name": "key",
          "type": "tuple"
        },
        {
          "internalType": "int24",
          "name": "tickLower",
          "type": "int24"
        },
        {
          "internalType": "int24",
          "name": "tickUpper",
          "type": "int24"
        }
      ],
      "name": "getMaxWithdrawable",
      "outputs": [
        {
          "internalType": "uint128",
          "name": "maxWithdrawable",
          "type": "uint128"
        }
      ],
      "stateMutability": "view",
      "type": "function"
    },
    {
      "inputs": [
        {
          "internalType": "address",
          "name": "pool",
          "type": "address"
        }
      ],
      "name": "getPoolkeys",
      "outputs": [
        {
          "internalType": "address",
          "name": "token0",
          "type": "address"
        },
        {
          "internalType": "address",
          "name": "token1",
          "type": "address"
        },
        {
          "internalType": "uint24",
          "name": "fee",
          "type": "uint24"
        }
      ],
      "stateMutability": "view",
      "type": "function"
    },
    {
      "inputs": [
        {
          "components": [
            {
              "internalType": "address",
              "name": "token0",
              "type": "address"
            },
            {
              "internalType": "address",
              "name": "token1",
              "type": "address"
            },
            {
              "internalType": "uint24",
              "name": "fee",
              "type": "uint24"
            }
          ],
          "internalType": "struct PoolKey",
          "name": "poolKey",
          "type": "tuple"
        },
        {
          "internalType": "address",
          "name": "trader",
          "type": "address"
        },
        {
          "internalType": "bool",
          "name": "isToken0",
          "type": "bool"
        }
      ],
      "name": "premiumOwed",
      "outputs": [
        {
          "internalType": "uint256",
          "name": "",
          "type": "uint256"
        }
      ],
      "stateMutability": "view",
      "type": "function"
    }
  ],
  "bytecode": {
    "object": "0x60806040523480156200001157600080fd5b506040516200277c3803806200277c833981016040819052620000349162000087565b50600080546001600160a01b039283166001600160a01b03199182161790915560018054939092169216919091179055620000d1565b80516001600160a01b03811681146200008257600080fd5b919050565b6000806000606084860312156200009d57600080fd5b620000a8846200006a565b9250620000b8602085016200006a565b9150620000c8604085016200006a565b90509250925092565b61269b80620000e16000396000f3fe608060405234801561001057600080fd5b50600436106100625760003560e01c80632d6cf1f4146100675780638e68ad3614610090578063911f1b47146100bb578063c229a332146100de578063dd65c3281461011c578063fd7072881461013c575b600080fd5b61007a610075366004611a5a565b61015d565b6040516100879190611b72565b60405180910390f35b6100a361009e366004611ba8565b6105f6565b6040516001600160801b039091168152602001610087565b6100ce6100c9366004611d16565b6108c1565b6040519015158152602001610087565b6100f16100ec366004611e1d565b610cbb565b604080516001600160a01b03948516815293909216602084015262ffffff1690820152606001610087565b61012f61012a366004611e1d565b610df3565b6040516100879190611e41565b61014f61014a366004611ea1565b6117a6565b604051908152602001610087565b6101656119aa565b60006040518060600160405280866001600160a01b0316630dfe16816040518163ffffffff1660e01b8152600401602060405180830381865afa1580156101b0573d6000803e3d6000fd5b505050506040513d601f19601f820116820180604052508101906101d49190611f31565b6001600160a01b03168152602001866001600160a01b031663d21220a76040518163ffffffff1660e01b8152600401602060405180830381865afa158015610220573d6000803e3d6000fd5b505050506040513d601f19601f820116820180604052508101906102449190611f31565b6001600160a01b03168152602001866001600160a01b031663ddca3f436040518163ffffffff1660e01b8152600401602060405180830381865afa158015610290573d6000803e3d6000fd5b505050506040513d601f19601f820116820180604052508101906102b49190611f4e565b62ffffff1690526000805460405163118272bf60e31b815292935090916001600160a01b0390911690638c1395f8906102f590899089908990600401611f6b565b600060405180830381865afa158015610312573d6000803e3d6000fd5b505050506040513d6000823e601f3d908101601f1916820160405261033a9190810190612072565b60008054919250906001600160a01b0316635d4936ff61035b898989611954565b6040518263ffffffff1660e01b815260040161037991815260200190565b602060405180830381865afa158015610396573d6000803e3d6000fd5b505050506040513d601f19601f820116820180604052508101906103ba9190612183565b905060006103c98488886117a6565b90506000886001600160a01b031663d21220a76040518163ffffffff1660e01b8152600401602060405180830381865afa15801561040b573d6000803e3d6000fd5b505050506040513d601f19601f8201168201806040525081019061042f9190611f31565b6001600160a01b031663313ce5676040518163ffffffff1660e01b8152600401602060405180830381865afa15801561046c573d6000803e3d6000fd5b505050506040513d601f19601f82011682018060405250810190610490919061219c565b60ff1690506000896001600160a01b031663d21220a76040518163ffffffff1660e01b8152600401602060405180830381865afa1580156104d5573d6000803e3d6000fd5b505050506040513d601f19601f820116820180604052508101906104f99190611f31565b6001600160a01b031663313ce5676040518163ffffffff1660e01b8152600401602060405180830381865afa158015610536573d6000803e3d6000fd5b505050506040513d601f19601f8201168201806040525081019061055a919061219c565b60ff169050604051806101800160405280878152602001891515815260200186600001516040015181526020018660000151606001518152602001866000015160a0015163ffffffff168152602001866000015160c0015163ffffffff16815260200185815260200186602001518152602001866040015181526020018481526020018381526020018281525096505050505050509392505050565b600154604051632411122160e11b815260009182916001600160a01b039091169063482224429061062b9088906004016121bf565b602060405180830381865afa158015610648573d6000803e3d6000fd5b505050506040513d601f19601f8201168201806040525081019061066c9190612183565b6001546040516315083fbb60e31b8152600481018390529192506000916001600160a01b039091169063a841fdd890602401602060405180830381865afa1580156106bb573d6000803e3d6000fd5b505050506040513d601f19601f820116820180604052508101906106df9190612183565b600154604051630ca32ed160e31b8152600481018590529192506000916001600160a01b0390911690636519768890602401602060405180830381865afa15801561072e573d6000803e3d6000fd5b505050506040513d601f19601f820116820180604052508101906107529190612210565b6001600160801b03945090506000808080895b8960020b8160020b12156108b25760015460405163da69b0b360e01b8152600481018a9052600283900b60248201526001600160a01b039091169063da69b0b390604401602060405180830381865afa1580156107c6573d6000803e3d6000fd5b505050506040513d601f19601f820116820180604052508101906107ea919061222d565b6001546040516319fda27760e01b8152600481018b9052600284900b60248201529196508895506001600160a01b0316906319fda27790604401602060405180830381865afa158015610841573d6000803e3d6000fd5b505050506040513d601f19601f82011682018060405250810190610865919061222d565b9250826108728587612260565b61087c9190612260565b9150886001600160801b0316826001600160801b03161061089d578861089f565b815b98506108ab8682612287565b9050610765565b50505050505050509392505050565b6000808251116109055760405162461bcd60e51b815260206004820152600a602482015269656d70747920696e666f60b01b60448201526064015b60405180910390fd5b600154604051632411122160e11b8152600091829182916001600160a01b03169063482224429061093a9089906004016121bf565b602060405180830381865afa158015610957573d6000803e3d6000fd5b505050506040513d601f19601f8201168201806040525081019061097b9190612183565b600154604051630ca32ed160e31b8152600481018390529192506000916001600160a01b0390911690636519768890602401602060405180830381865afa1580156109ca573d6000803e3d6000fd5b505050506040513d601f19601f820116820180604052508101906109ee9190612210565b6001546040516315083fbb60e31b8152600481018590529192506000916001600160a01b039091169063a841fdd890602401602060405180830381865afa158015610a3d573d6000803e3d6000fd5b505050506040513d601f19601f82011682018060405250810190610a619190612183565b905060005b8751811015610caa5782888281518110610a8257610a826122ac565b602002602001015160000151610a9891906122c2565b60020b15610ad65760405162461bcd60e51b815260206004820152600b60248201526a696e76616c69645469636b60a81b60448201526064016108fc565b60015488516001600160a01b039091169063da69b0b39086908b9085908110610b0157610b016122ac565b6020026020010151600001516040518363ffffffff1660e01b8152600401610b3692919091825260020b602082015260400190565b602060405180830381865afa158015610b53573d6000803e3d6000fd5b505050506040513d601f19601f82011682018060405250810190610b77919061222d565b9550856001600160801b0316600003610b995760009650505050505050610cb5565b60015488516001600160a01b03909116906319fda2779086908b9085908110610bc457610bc46122ac565b6020026020010151600001516040518363ffffffff1660e01b8152600401610bf992919091825260020b602082015260400190565b602060405180830381865afa158015610c16573d6000803e3d6000fd5b505050506040513d601f19601f82011682018060405250810190610c3a919061222d565b9450878181518110610c4e57610c4e6122ac565b60200260200101516020015185610c6591906122f2565b6001600160801b031682876001600160801b0316610c839190612312565b1015610c985760009650505050505050610cb5565b80610ca281612325565b915050610a66565b506001955050505050505b92915050565b6000806000836001600160a01b0316630dfe16816040518163ffffffff1660e01b8152600401602060405180830381865afa158015610cfe573d6000803e3d6000fd5b505050506040513d601f19601f82011682018060405250810190610d229190611f31565b846001600160a01b031663d21220a76040518163ffffffff1660e01b8152600401602060405180830381865afa158015610d60573d6000803e3d6000fd5b505050506040513d601f19601f82011682018060405250810190610d849190611f31565b856001600160a01b031663ddca3f436040518163ffffffff1660e01b8152600401602060405180830381865afa158015610dc2573d6000803e3d6000fd5b505050506040513d601f19601f82011682018060405250810190610de69190611f4e565b9196909550909350915050565b6060610e276040518060a0016040528060008152602001600081526020016000815260200160008152602001600081525090565b60015460408051636a0ee5f560e11b815290516000926001600160a01b03169163d41dcbea91600480830192869291908290030181865afa158015610e70573d6000803e3d6000fd5b505050506040513d6000823e601f3d908101601f19168201604052610e98919081019061233e565b905080516002610ea891906123d7565b8083526000906001600160401b03811115610ec557610ec5611be7565b604051908082528060200260200182016040528015610efe57816020015b610eeb6119aa565b815260200190600190039081610ee35790505b5090506000805b83518110156116d65760006040518060600160405280868481518110610f2d57610f2d6122ac565b60200260200101516001600160a01b0316630dfe16816040518163ffffffff1660e01b8152600401602060405180830381865afa158015610f72573d6000803e3d6000fd5b505050506040513d601f19601f82011682018060405250810190610f969190611f31565b6001600160a01b03168152602001868481518110610fb657610fb66122ac565b60200260200101516001600160a01b031663d21220a76040518163ffffffff1660e01b8152600401602060405180830381865afa158015610ffb573d6000803e3d6000fd5b505050506040513d601f19601f8201168201806040525081019061101f9190611f31565b6001600160a01b0316815260200186848151811061103f5761103f6122ac565b60200260200101516001600160a01b031663ddca3f436040518163ffffffff1660e01b8152600401602060405180830381865afa158015611084573d6000803e3d6000fd5b505050506040513d601f19601f820116820180604052508101906110a89190611f4e565b62ffffff1681525090508482815181106110c4576110c46122ac565b60200260200101516001600160a01b031663d21220a76040518163ffffffff1660e01b8152600401602060405180830381865afa158015611109573d6000803e3d6000fd5b505050506040513d601f19601f8201168201806040525081019061112d9190611f31565b6001600160a01b031663313ce5676040518163ffffffff1660e01b8152600401602060405180830381865afa15801561116a573d6000803e3d6000fd5b505050506040513d601f19601f8201168201806040525081019061118e919061219c565b60ff16602087015284518590839081106111aa576111aa6122ac565b60200260200101516001600160a01b031663d21220a76040518163ffffffff1660e01b8152600401602060405180830381865afa1580156111ef573d6000803e3d6000fd5b505050506040513d601f19601f820116820180604052508101906112139190611f31565b6001600160a01b031663313ce5676040518163ffffffff1660e01b8152600401602060405180830381865afa158015611250573d6000803e3d6000fd5b505050506040513d601f19601f82011682018060405250810190611274919061219c565b60ff1660408701526000805486516001600160a01b0390911690638c1395f8908890869081106112a6576112a66122ac565b60200260200101518b60006040518463ffffffff1660e01b81526004016112cf93929190611f6b565b600060405180830381865afa1580156112ec573d6000803e3d6000fd5b505050506040513d6000823e601f3d908101601f191682016040526113149190810190612072565b60005487519192506001600160a01b031690635d4936ff9061135290899087908110611342576113426122ac565b60200260200101518c6000611954565b6040518263ffffffff1660e01b815260040161137091815260200190565b602060405180830381865afa15801561138d573d6000803e3d6000fd5b505050506040513d601f19601f820116820180604052508101906113b19190612183565b60608801526000805487516001600160a01b0390911690638c1395f8908990879081106113e0576113e06122ac565b60200260200101518c60016040518463ffffffff1660e01b815260040161140993929190611f6b565b600060405180830381865afa158015611426573d6000803e3d6000fd5b505050506040513d6000823e601f3d908101601f1916820160405261144e9190810190612072565b60005488519192506001600160a01b031690635d4936ff9061148c908a908890811061147c5761147c6122ac565b60200260200101518d6001611954565b6040518263ffffffff1660e01b81526004016114aa91815260200190565b602060405180830381865afa1580156114c7573d6000803e3d6000fd5b505050506040513d601f19601f820116820180604052508101906114eb9190612183565b6080890152805160a0015163ffffffff16156115ca5760405180610180016040528084815260200160011515815260200182600001516040015181526020018260000151606001518152602001826000015160a0015163ffffffff168152602001826000015160c0015163ffffffff16815260200189608001518152602001826020015181526020018260400151815260200161158a858d60016117a6565b815260208a810151908201526040808b0151910152866115aa8787612312565b815181106115ba576115ba6122ac565b60200260200101819052506115d8565b846115d481612325565b9550505b815160a0015163ffffffff16156116b25760405180610180016040528084815260200160001515815260200183600001516040015181526020018360000151606001518152602001836000015160a0015163ffffffff168152602001836000015160c0015163ffffffff168152602001896060015181526020018360200151815260200183604001518152602001611672858d60006117a6565b815260208a810151908201526040808b0151910152866116928787612312565b815181106116a2576116a26122ac565b60200260200101819052506116c0565b846116bc81612325565b9550505b50505080806116ce90612325565b915050610f05565b5083516000906116e7908390612312565b6001600160401b038111156116fe576116fe611be7565b60405190808252806020026020018201604052801561173757816020015b6117246119aa565b81526020019060019003908161171c5790505b50905060005b855161174a908490612312565b81101561179b57838181518110611763576117636122ac565b602002602001015182828151811061177d5761177d6122ac565b6020026020010181905250808061179390612325565b91505061173d565b509695505050505050565b600154604051639525092360e01b81526000918291829182916001600160a01b03909116906395250923906117df908a906004016123ee565b6101a060405180830381865afa1580156117fd573d6000803e3d6000fd5b505050506040513d601f19601f820116820180604052508101906118219190612434565b6000805460405163118272bf60e31b8152949750929550909350916001600160a01b0390911690638c1395f890611860908a9088908b90600401611f6b565b600060405180830381865afa15801561187d573d6000803e3d6000fd5b505050506040513d6000823e601f3d908101601f191682016040526118a59190810190612072565b6001548351825160e00151604051630d527ba960e01b815293945060009373__$eacbb88ed4bd2af84aa4d43bcf675bcf7e$__93630d527ba993611900938b936001600160a01b03909316928e15928c92909160040161259b565b600060405180830381865af415801561191d573d6000803e3d6000fd5b505050506040513d6000823e601f3d908101601f191682016040526119459190810190612616565b509a9950505050505050505050565b6040516bffffffffffffffffffffffff19606085811b8216602084015284901b16603482015281151560f81b60488201526000906049016040516020818303038152906040528051906020012090509392505050565b604080516101e08101909152600061018082018181526101a083018290526101c0830191909152819081526020016000151581526020016000815260200160008152602001600063ffffffff168152602001600063ffffffff1681526020016000815260200160008152602001600081526020016000815260200160008152602001600081525090565b6001600160a01b0381168114611a4957600080fd5b50565b8015158114611a4957600080fd5b600080600060608486031215611a6f57600080fd5b8335611a7a81611a34565b92506020840135611a8a81611a34565b91506040840135611a9a81611a4c565b809150509250925092565b611ad782825180516001600160a01b0390811683526020808301519091169083015260409081015162ffffff16910152565b602081015180151560608401525060408101516080830152606081015160a08301526080810151611b1060c084018263ffffffff169052565b5060a081015163ffffffff811660e08401525060c08101516101008381019190915260e082015161012080850191909152908201516101408085019190915290820151610160808501919091529082015161018084015201516101a090910152565b6101c08101610cb58284611aa5565b600060608284031215611b9357600080fd5b50919050565b8060020b8114611a4957600080fd5b600080600060a08486031215611bbd57600080fd5b611bc78585611b81565b92506060840135611bd781611b99565b91506080840135611a9a81611b99565b634e487b7160e01b600052604160045260246000fd5b60405160c081016001600160401b0381118282101715611c1f57611c1f611be7565b60405290565b604051606081016001600160401b0381118282101715611c1f57611c1f611be7565b60405161010081016001600160401b0381118282101715611c1f57611c1f611be7565b60405160e081016001600160401b0381118282101715611c1f57611c1f611be7565b60405160a081016001600160401b0381118282101715611c1f57611c1f611be7565b604051601f8201601f191681016001600160401b0381118282101715611cd657611cd6611be7565b604052919050565b60006001600160401b03821115611cf757611cf7611be7565b5060051b60200190565b6001600160801b0381168114611a4957600080fd5b6000806080808486031215611d2a57600080fd5b611d348585611b81565b92506060808501356001600160401b03811115611d5057600080fd5b8501601f81018713611d6157600080fd5b80356020611d76611d7183611cde565b611cae565b82815260c0928302840182019282820191908b851115611d9557600080fd5b948301945b84861015611e0b5780868d031215611db25760008081fd5b611dba611bfd565b8635611dc581611b99565b815286850135611dd481611d01565b81860152604087810135908201528787013588820152888701358982015260a0808801359082015283529485019491830191611d9a565b50809750505050505050509250929050565b600060208284031215611e2f57600080fd5b8135611e3a81611a34565b9392505050565b6020808252825182820181905260009190848201906040850190845b81811015611e8457611e70838551611aa5565b928401926101c09290920191600101611e5d565b50909695505050505050565b62ffffff81168114611a4957600080fd5b600080600083850360a0811215611eb757600080fd5b6060811215611ec557600080fd5b50611ece611c25565b8435611ed981611a34565b81526020850135611ee981611a34565b60208201526040850135611efc81611e90565b604082015292506060840135611f1181611a34565b91506080840135611a9a81611a4c565b8051611f2c81611a34565b919050565b600060208284031215611f4357600080fd5b8151611e3a81611a34565b600060208284031215611f6057600080fd5b8151611e3a81611e90565b6001600160a01b039384168152919092166020820152901515604082015260600190565b8051611f2c81611a4c565b805163ffffffff81168114611f2c57600080fd5b600082601f830112611fbf57600080fd5b81516020611fcf611d7183611cde565b82815260c09283028501820192828201919087851115611fee57600080fd5b8387015b858110156120655781818a03121561200a5760008081fd5b612012611bfd565b815161201d81611b99565b81528186015161202c81611d01565b8187015260408281015190820152606080830151908201526080808301519082015260a080830151908201528452928401928101611ff2565b5090979650505050505050565b60006020828403121561208457600080fd5b81516001600160401b038082111561209b57600080fd5b90830190606082860312156120af57600080fd5b6120b7611c25565b8251828111156120c657600080fd5b830161010081880312156120d957600080fd5b6120e1611c47565b6120ea82611f21565b81526120f860208301611f8f565b602082015260408201516040820152606082015160608201526080820151608082015261212760a08301611f9a565b60a082015261213860c08301611f9a565b60c082015260e08201518481111561214f57600080fd5b61215b89828501611fae565b60e0830152508252506020838101519082015260409283015192810192909252509392505050565b60006020828403121561219557600080fd5b5051919050565b6000602082840312156121ae57600080fd5b815160ff81168114611e3a57600080fd5b6060810182356121ce81611a34565b6001600160a01b0390811683526020840135906121ea82611a34565b16602083015260408301356121fe81611e90565b62ffffff811660408401525092915050565b60006020828403121561222257600080fd5b8151611e3a81611b99565b60006020828403121561223f57600080fd5b8151611e3a81611d01565b634e487b7160e01b600052601160045260246000fd5b6001600160801b038281168282160390808211156122805761228061224a565b5092915050565b600281810b9083900b01627fffff8113627fffff1982121715610cb557610cb561224a565b634e487b7160e01b600052603260045260246000fd5b60008260020b806122e357634e487b7160e01b600052601260045260246000fd5b808360020b0791505092915050565b6001600160801b038181168382160190808211156122805761228061224a565b81810381811115610cb557610cb561224a565b6000600182016123375761233761224a565b5060010190565b6000602080838503121561235157600080fd5b82516001600160401b0381111561236757600080fd5b8301601f8101851361237857600080fd5b8051612386611d7182611cde565b81815260059190911b820183019083810190878311156123a557600080fd5b928401925b828410156123cc5783516123bd81611a34565b825292840192908401906123aa565b979650505050505050565b8082028115828204841417610cb557610cb561224a565b81516001600160a01b0390811682526020808401519091169082015260408083015162ffffff169082015260608101610cb5565b805161ffff81168114611f2c57600080fd5b60008060008385036101a081121561244b57600080fd5b845161245681611a34565b602086015190945061246781611b99565b9250603f19016101608082121561247d57600080fd5b612485611c6a565b60a083121561249357600080fd5b61249b611c8c565b925060408701518352606087015160208401526080870151604084015260a0870151606084015260c0870151608084015282815260e08701516020820152610100870151604082015261012087015160608201526124fc6101408801612422565b60808201529086015160a08201526101809095015160c08601525091949093509050565b600081518084526020808501945080840160005b83811015612590578151805160020b8852838101516001600160801b03168489015260408082015190890152606080820151908901526080808201519089015260a0908101519088015260c09096019590820190600101612534565b509495945050505050565b600061014060018060a01b03808a16845280891660208501525086151560408401528560020b606084015284516080840152602085015160a0840152604085015160c0840152606085015160e084015260808501516101008401528061012084015261260981840185612520565b9998505050505050505050565b60008060006060848603121561262b57600080fd5b83516001600160401b0381111561264157600080fd5b61264d86828701611fae565b9350506020840151915060408401519050925092509256fea2646970667358221220be2cf39e0b92bcd430c8fa1067e09c6e4250bbcfeef8ff15508c6e1596089b4864736f6c63430008150033",
    "linkReferences": {
      "src/PremiumComputer.sol": {
        "PremiumComputer": [
          {
            "start": 6566,
            "length": 20
          }
        ]
      }
    }
  },
  "methodIdentifiers": {
    "getActiveMarginPositions(address)": "dd65c328",
    "getIsBorrowable((address,address,uint24),(int24,uint128,uint256,uint256,uint256,uint256)[])": "911f1b47",
    "getMarginPosition(address,address,bool)": "2d6cf1f4",
    "getMaxWithdrawable((address,address,uint24),int24,int24)": "8e68ad36",
    "getPoolkeys(address)": "c229a332",
    "premiumOwed((address,address,uint24),address,bool)": "fd707288"
  },
  "id": 45
}