{
  "abi": [
    {
      "inputs": [
        {
          "internalType": "address",
          "name": "_poolManager",
          "type": "address"
        },
        {
          "internalType": "address",
          "name": "_marginFacility",
          "type": "address"
        },
        {
          "internalType": "address",
          "name": "borrowFacility",
          "type": "address"
        }
      ],
      "stateMutability": "nonpayable",
      "type": "constructor"
    },
    {
      "inputs": [],
      "name": "T",
      "type": "error"
    },
    {
      "inputs": [
        {
          "components": [
            {
              "internalType": "address",
              "name": "token0",
              "type": "address"
            },
            {
              "internalType": "address",
              "name": "token1",
              "type": "address"
            },
            {
              "internalType": "uint24",
              "name": "fee",
              "type": "uint24"
            }
          ],
          "internalType": "struct PoolKey",
          "name": "key",
          "type": "tuple"
        },
        {
          "internalType": "uint256",
          "name": "margin",
          "type": "uint256"
        },
        {
          "internalType": "bool",
          "name": "positionIsToken0",
          "type": "bool"
        },
        {
          "internalType": "uint256",
          "name": "slippage",
          "type": "uint256"
        },
        {
          "internalType": "uint256",
          "name": "startingLeverage",
          "type": "uint256"
        }
      ],
      "name": "findMaxLeverageWithEstimatedSlippage",
      "outputs": [
        {
          "internalType": "uint256",
          "name": "",
          "type": "uint256"
        }
      ],
      "stateMutability": "view",
      "type": "function"
    },
    {
      "inputs": [
        {
          "components": [
            {
              "internalType": "address",
              "name": "token0",
              "type": "address"
            },
            {
              "internalType": "address",
              "name": "token1",
              "type": "address"
            },
            {
              "internalType": "uint24",
              "name": "fee",
              "type": "uint24"
            }
          ],
          "internalType": "struct PoolKey",
          "name": "key",
          "type": "tuple"
        },
        {
          "internalType": "uint256",
          "name": "margin",
          "type": "uint256"
        },
        {
          "internalType": "uint256",
          "name": "borrowAmount",
          "type": "uint256"
        },
        {
          "internalType": "bool",
          "name": "positionIsToken0",
          "type": "bool"
        },
        {
          "internalType": "uint256",
          "name": "simulatedOutput",
          "type": "uint256"
        },
        {
          "internalType": "uint160",
          "name": "sqrtPriceX160",
          "type": "uint160"
        }
      ],
      "name": "findTicks",
      "outputs": [
        {
          "internalType": "uint256",
          "name": "",
          "type": "uint256"
        },
        {
          "components": [
            {
              "internalType": "int24",
              "name": "tick",
              "type": "int24"
            },
            {
              "internalType": "uint128",
              "name": "liquidity",
              "type": "uint128"
            },
            {
              "internalType": "uint256",
              "name": "premium",
              "type": "uint256"
            },
            {
              "internalType": "uint256",
              "name": "feeGrowthInside0LastX128",
              "type": "uint256"
            },
            {
              "internalType": "uint256",
              "name": "feeGrowthInside1LastX128",
              "type": "uint256"
            },
            {
              "internalType": "uint256",
              "name": "lastGrowth",
              "type": "uint256"
            }
          ],
          "internalType": "struct LiquidityLoan[]",
          "name": "",
          "type": "tuple[]"
        }
      ],
      "stateMutability": "view",
      "type": "function"
    },
    {
      "inputs": [
        {
          "internalType": "address",
          "name": "trader",
          "type": "address"
        }
      ],
      "name": "getActiveMarginPositions",
      "outputs": [
        {
          "components": [
            {
              "components": [
                {
                  "internalType": "address",
                  "name": "token0",
                  "type": "address"
                },
                {
                  "internalType": "address",
                  "name": "token1",
                  "type": "address"
                },
                {
                  "internalType": "uint24",
                  "name": "fee",
                  "type": "uint24"
                }
              ],
              "internalType": "struct PoolKey",
              "name": "poolKey",
              "type": "tuple"
            },
            {
              "internalType": "bool",
              "name": "isToken0",
              "type": "bool"
            },
            {
              "internalType": "uint256",
              "name": "totalDebtOutput",
              "type": "uint256"
            },
            {
              "internalType": "uint256",
              "name": "totalDebtInput",
              "type": "uint256"
            },
            {
              "internalType": "uint32",
              "name": "openTime",
              "type": "uint32"
            },
            {
              "internalType": "uint32",
              "name": "repayTime",
              "type": "uint32"
            },
            {
              "internalType": "uint256",
              "name": "premiumDeposit",
              "type": "uint256"
            },
            {
              "internalType": "uint256",
              "name": "totalPosition",
              "type": "uint256"
            },
            {
              "internalType": "uint256",
              "name": "margin",
              "type": "uint256"
            },
            {
              "internalType": "uint256",
              "name": "premiumOwed",
              "type": "uint256"
            },
            {
              "internalType": "uint8",
              "name": "token0Decimals",
              "type": "uint8"
            },
            {
              "internalType": "uint8",
              "name": "token1Decimals",
              "type": "uint8"
            },
            {
              "internalType": "uint256",
              "name": "maxWithdrawablePremium",
              "type": "uint256"
            }
          ],
          "internalType": "struct DataProvider.MarginPositionInfo[]",
          "name": "",
          "type": "tuple[]"
        }
      ],
      "stateMutability": "view",
      "type": "function"
    },
    {
      "inputs": [
        {
          "internalType": "address",
          "name": "trader",
          "type": "address"
        }
      ],
      "name": "getAddOrders",
      "outputs": [
        {
          "components": [
            {
              "components": [
                {
                  "internalType": "address",
                  "name": "token0",
                  "type": "address"
                },
                {
                  "internalType": "address",
                  "name": "token1",
                  "type": "address"
                },
                {
                  "internalType": "uint24",
                  "name": "fee",
                  "type": "uint24"
                }
              ],
              "internalType": "struct PoolKey",
              "name": "key",
              "type": "tuple"
            },
            {
              "internalType": "bool",
              "name": "isAdd",
              "type": "bool"
            },
            {
              "internalType": "bool",
              "name": "positionIsToken0",
              "type": "bool"
            },
            {
              "internalType": "uint32",
              "name": "auctionDeadline",
              "type": "uint32"
            },
            {
              "internalType": "uint32",
              "name": "auctionStartTime",
              "type": "uint32"
            },
            {
              "internalType": "uint256",
              "name": "startOutput",
              "type": "uint256"
            },
            {
              "internalType": "uint256",
              "name": "minOutput",
              "type": "uint256"
            },
            {
              "internalType": "uint256",
              "name": "inputAmount",
              "type": "uint256"
            },
            {
              "internalType": "uint256",
              "name": "decayRate",
              "type": "uint256"
            },
            {
              "internalType": "uint256",
              "name": "margin",
              "type": "uint256"
            }
          ],
          "internalType": "struct DataProvider.LimitOrderInfo[]",
          "name": "",
          "type": "tuple[]"
        }
      ],
      "stateMutability": "view",
      "type": "function"
    },
    {
      "inputs": [
        {
          "components": [
            {
              "internalType": "address",
              "name": "token0",
              "type": "address"
            },
            {
              "internalType": "address",
              "name": "token1",
              "type": "address"
            },
            {
              "internalType": "uint24",
              "name": "fee",
              "type": "uint24"
            }
          ],
          "internalType": "struct PoolKey",
          "name": "key",
          "type": "tuple"
        },
        {
          "internalType": "int24",
          "name": "tickLower",
          "type": "int24"
        },
        {
          "internalType": "int24",
          "name": "tickUpper",
          "type": "int24"
        }
      ],
      "name": "getBinsDataInBulk",
      "outputs": [
        {
          "components": [
            {
              "internalType": "uint256",
              "name": "price",
              "type": "uint256"
            },
            {
              "internalType": "uint256",
              "name": "token0Liquidity",
              "type": "uint256"
            },
            {
              "internalType": "uint256",
              "name": "token1Liquidity",
              "type": "uint256"
            },
            {
              "internalType": "uint256",
              "name": "token0Borrowed",
              "type": "uint256"
            },
            {
              "internalType": "uint256",
              "name": "token1Borrowed",
              "type": "uint256"
            }
          ],
          "internalType": "struct DataProvider.BinData[]",
          "name": "",
          "type": "tuple[]"
        }
      ],
      "stateMutability": "view",
      "type": "function"
    },
    {
      "inputs": [
        {
          "components": [
            {
              "internalType": "address",
              "name": "token0",
              "type": "address"
            },
            {
              "internalType": "address",
              "name": "token1",
              "type": "address"
            },
            {
              "internalType": "uint24",
              "name": "fee",
              "type": "uint24"
            }
          ],
          "internalType": "struct PoolKey",
          "name": "key",
          "type": "tuple"
        },
        {
          "internalType": "int24",
          "name": "tick",
          "type": "int24"
        }
      ],
      "name": "getBorrowedLiquidityInBin",
      "outputs": [
        {
          "internalType": "uint128",
          "name": "",
          "type": "uint128"
        }
      ],
      "stateMutability": "view",
      "type": "function"
    },
    {
      "inputs": [
        {
          "components": [
            {
              "internalType": "address",
              "name": "token0",
              "type": "address"
            },
            {
              "internalType": "address",
              "name": "token1",
              "type": "address"
            },
            {
              "internalType": "uint24",
              "name": "fee",
              "type": "uint24"
            }
          ],
          "internalType": "struct PoolKey",
          "name": "poolKey",
          "type": "tuple"
        },
        {
          "internalType": "address",
          "name": "trader",
          "type": "address"
        },
        {
          "internalType": "bool",
          "name": "positionIsToken0",
          "type": "bool"
        }
      ],
      "name": "getExpectedPremiumOwed",
      "outputs": [
        {
          "internalType": "uint256",
          "name": "",
          "type": "uint256"
        }
      ],
      "stateMutability": "view",
      "type": "function"
    },
    {
      "inputs": [
        {
          "components": [
            {
              "internalType": "address",
              "name": "token0",
              "type": "address"
            },
            {
              "internalType": "address",
              "name": "token1",
              "type": "address"
            },
            {
              "internalType": "uint24",
              "name": "fee",
              "type": "uint24"
            }
          ],
          "internalType": "struct PoolKey",
          "name": "key",
          "type": "tuple"
        },
        {
          "components": [
            {
              "internalType": "int24",
              "name": "tick",
              "type": "int24"
            },
            {
              "internalType": "uint128",
              "name": "liquidity",
              "type": "uint128"
            },
            {
              "internalType": "uint256",
              "name": "premium",
              "type": "uint256"
            },
            {
              "internalType": "uint256",
              "name": "feeGrowthInside0LastX128",
              "type": "uint256"
            },
            {
              "internalType": "uint256",
              "name": "feeGrowthInside1LastX128",
              "type": "uint256"
            },
            {
              "internalType": "uint256",
              "name": "lastGrowth",
              "type": "uint256"
            }
          ],
          "internalType": "struct LiquidityLoan[]",
          "name": "borrowInfo",
          "type": "tuple[]"
        }
      ],
      "name": "getIsBorrowable",
      "outputs": [
        {
          "internalType": "bool",
          "name": "",
          "type": "bool"
        }
      ],
      "stateMutability": "view",
      "type": "function"
    },
    {
      "inputs": [
        {
          "components": [
            {
              "internalType": "address",
              "name": "token0",
              "type": "address"
            },
            {
              "internalType": "address",
              "name": "token1",
              "type": "address"
            },
            {
              "internalType": "uint24",
              "name": "fee",
              "type": "uint24"
            }
          ],
          "internalType": "struct PoolKey",
          "name": "key",
          "type": "tuple"
        },
        {
          "internalType": "int24",
          "name": "tick",
          "type": "int24"
        }
      ],
      "name": "getLiquidityInBin",
      "outputs": [
        {
          "internalType": "uint128",
          "name": "",
          "type": "uint128"
        }
      ],
      "stateMutability": "view",
      "type": "function"
    },
    {
      "inputs": [
        {
          "internalType": "address",
          "name": "pool",
          "type": "address"
        },
        {
          "internalType": "address",
          "name": "trader",
          "type": "address"
        },
        {
          "internalType": "bool",
          "name": "isToken",
          "type": "bool"
        }
      ],
      "name": "getMarginPosition",
      "outputs": [
        {
          "components": [
            {
              "components": [
                {
                  "internalType": "address",
                  "name": "token0",
                  "type": "address"
                },
                {
                  "internalType": "address",
                  "name": "token1",
                  "type": "address"
                },
                {
                  "internalType": "uint24",
                  "name": "fee",
                  "type": "uint24"
                }
              ],
              "internalType": "struct PoolKey",
              "name": "poolKey",
              "type": "tuple"
            },
            {
              "internalType": "bool",
              "name": "isToken0",
              "type": "bool"
            },
            {
              "internalType": "uint256",
              "name": "totalDebtOutput",
              "type": "uint256"
            },
            {
              "internalType": "uint256",
              "name": "totalDebtInput",
              "type": "uint256"
            },
            {
              "internalType": "uint32",
              "name": "openTime",
              "type": "uint32"
            },
            {
              "internalType": "uint32",
              "name": "repayTime",
              "type": "uint32"
            },
            {
              "internalType": "uint256",
              "name": "premiumDeposit",
              "type": "uint256"
            },
            {
              "internalType": "uint256",
              "name": "totalPosition",
              "type": "uint256"
            },
            {
              "internalType": "uint256",
              "name": "margin",
              "type": "uint256"
            },
            {
              "internalType": "uint256",
              "name": "premiumOwed",
              "type": "uint256"
            },
            {
              "internalType": "uint8",
              "name": "token0Decimals",
              "type": "uint8"
            },
            {
              "internalType": "uint8",
              "name": "token1Decimals",
              "type": "uint8"
            },
            {
              "internalType": "uint256",
              "name": "maxWithdrawablePremium",
              "type": "uint256"
            }
          ],
          "internalType": "struct DataProvider.MarginPositionInfo",
          "name": "",
          "type": "tuple"
        }
      ],
      "stateMutability": "view",
      "type": "function"
    },
    {
      "inputs": [
        {
          "components": [
            {
              "internalType": "address",
              "name": "token0",
              "type": "address"
            },
            {
              "internalType": "address",
              "name": "token1",
              "type": "address"
            },
            {
              "internalType": "uint24",
              "name": "fee",
              "type": "uint24"
            }
          ],
          "internalType": "struct PoolKey",
          "name": "key",
          "type": "tuple"
        },
        {
          "internalType": "int24",
          "name": "tickLower",
          "type": "int24"
        },
        {
          "internalType": "int24",
          "name": "tickUpper",
          "type": "int24"
        }
      ],
      "name": "getMaxWithdrawable",
      "outputs": [
        {
          "internalType": "uint128",
          "name": "maxWithdrawable",
          "type": "uint128"
        }
      ],
      "stateMutability": "view",
      "type": "function"
    },
    {
      "inputs": [
        {
          "components": [
            {
              "internalType": "int24",
              "name": "tick",
              "type": "int24"
            },
            {
              "internalType": "uint128",
              "name": "liquidity",
              "type": "uint128"
            },
            {
              "internalType": "uint256",
              "name": "premium",
              "type": "uint256"
            },
            {
              "internalType": "uint256",
              "name": "feeGrowthInside0LastX128",
              "type": "uint256"
            },
            {
              "internalType": "uint256",
              "name": "feeGrowthInside1LastX128",
              "type": "uint256"
            },
            {
              "internalType": "uint256",
              "name": "lastGrowth",
              "type": "uint256"
            }
          ],
          "internalType": "struct LiquidityLoan[]",
          "name": "borrowInfo",
          "type": "tuple[]"
        }
      ],
      "name": "getMinMaxTicks",
      "outputs": [
        {
          "internalType": "int24",
          "name": "min",
          "type": "int24"
        },
        {
          "internalType": "int24",
          "name": "max",
          "type": "int24"
        }
      ],
      "stateMutability": "pure",
      "type": "function"
    },
    {
      "inputs": [
        {
          "internalType": "address",
          "name": "pool",
          "type": "address"
        },
        {
          "internalType": "address",
          "name": "trader",
          "type": "address"
        },
        {
          "internalType": "bool",
          "name": "positionIsToken0",
          "type": "bool"
        },
        {
          "internalType": "bool",
          "name": "isAdd",
          "type": "bool"
        }
      ],
      "name": "getOrder",
      "outputs": [
        {
          "components": [
            {
              "components": [
                {
                  "internalType": "address",
                  "name": "token0",
                  "type": "address"
                },
                {
                  "internalType": "address",
                  "name": "token1",
                  "type": "address"
                },
                {
                  "internalType": "uint24",
                  "name": "fee",
                  "type": "uint24"
                }
              ],
              "internalType": "struct PoolKey",
              "name": "key",
              "type": "tuple"
            },
            {
              "internalType": "bool",
              "name": "positionIsToken0",
              "type": "bool"
            },
            {
              "internalType": "uint32",
              "name": "auctionDeadline",
              "type": "uint32"
            },
            {
              "internalType": "uint32",
              "name": "auctionStartTime",
              "type": "uint32"
            },
            {
              "internalType": "uint256",
              "name": "startOutput",
              "type": "uint256"
            },
            {
              "internalType": "uint256",
              "name": "minOutput",
              "type": "uint256"
            },
            {
              "internalType": "uint256",
              "name": "inputAmount",
              "type": "uint256"
            },
            {
              "internalType": "uint256",
              "name": "decayRate",
              "type": "uint256"
            },
            {
              "internalType": "uint256",
              "name": "margin",
              "type": "uint256"
            }
          ],
          "internalType": "struct Order",
          "name": "order",
          "type": "tuple"
        }
      ],
      "stateMutability": "view",
      "type": "function"
    },
    {
      "inputs": [
        {
          "internalType": "address",
          "name": "pool",
          "type": "address"
        }
      ],
      "name": "getPoolkeys",
      "outputs": [
        {
          "internalType": "address",
          "name": "token0",
          "type": "address"
        },
        {
          "internalType": "address",
          "name": "token1",
          "type": "address"
        },
        {
          "internalType": "uint24",
          "name": "fee",
          "type": "uint24"
        }
      ],
      "stateMutability": "view",
      "type": "function"
    },
    {
      "inputs": [
        {
          "components": [
            {
              "internalType": "address",
              "name": "token0",
              "type": "address"
            },
            {
              "internalType": "address",
              "name": "token1",
              "type": "address"
            },
            {
              "internalType": "uint24",
              "name": "fee",
              "type": "uint24"
            }
          ],
          "internalType": "struct PoolKey",
          "name": "poolKey",
          "type": "tuple"
        },
        {
          "internalType": "address",
          "name": "trader",
          "type": "address"
        },
        {
          "internalType": "bool",
          "name": "positionIsToken0",
          "type": "bool"
        }
      ],
      "name": "getPostInstantaeneousRate",
      "outputs": [
        {
          "internalType": "uint256",
          "name": "",
          "type": "uint256"
        }
      ],
      "stateMutability": "view",
      "type": "function"
    },
    {
      "inputs": [
        {
          "components": [
            {
              "internalType": "address",
              "name": "token0",
              "type": "address"
            },
            {
              "internalType": "address",
              "name": "token1",
              "type": "address"
            },
            {
              "internalType": "uint24",
              "name": "fee",
              "type": "uint24"
            }
          ],
          "internalType": "struct PoolKey",
          "name": "poolKey",
          "type": "tuple"
        },
        {
          "components": [
            {
              "internalType": "int24",
              "name": "tick",
              "type": "int24"
            },
            {
              "internalType": "uint128",
              "name": "liquidity",
              "type": "uint128"
            },
            {
              "internalType": "uint256",
              "name": "premium",
              "type": "uint256"
            },
            {
              "internalType": "uint256",
              "name": "feeGrowthInside0LastX128",
              "type": "uint256"
            },
            {
              "internalType": "uint256",
              "name": "feeGrowthInside1LastX128",
              "type": "uint256"
            },
            {
              "internalType": "uint256",
              "name": "lastGrowth",
              "type": "uint256"
            }
          ],
          "internalType": "struct LiquidityLoan[]",
          "name": "borrowInfo",
          "type": "tuple[]"
        }
      ],
      "name": "getPreInstantaeneousRate",
      "outputs": [
        {
          "internalType": "uint256",
          "name": "",
          "type": "uint256"
        }
      ],
      "stateMutability": "view",
      "type": "function"
    },
    {
      "inputs": [
        {
          "internalType": "address",
          "name": "pool",
          "type": "address"
        },
        {
          "internalType": "address",
          "name": "trader",
          "type": "address"
        },
        {
          "internalType": "bool",
          "name": "positionIsToken0",
          "type": "bool"
        }
      ],
      "name": "getRangeCondition",
      "outputs": [
        {
          "internalType": "uint256",
          "name": "",
          "type": "uint256"
        }
      ],
      "stateMutability": "view",
      "type": "function"
    },
    {
      "inputs": [
        {
          "components": [
            {
              "internalType": "int24",
              "name": "tick",
              "type": "int24"
            },
            {
              "internalType": "uint128",
              "name": "liquidity",
              "type": "uint128"
            },
            {
              "internalType": "uint256",
              "name": "premium",
              "type": "uint256"
            },
            {
              "internalType": "uint256",
              "name": "feeGrowthInside0LastX128",
              "type": "uint256"
            },
            {
              "internalType": "uint256",
              "name": "feeGrowthInside1LastX128",
              "type": "uint256"
            },
            {
              "internalType": "uint256",
              "name": "lastGrowth",
              "type": "uint256"
            }
          ],
          "internalType": "struct LiquidityLoan[]",
          "name": "borrowInfo",
          "type": "tuple[]"
        },
        {
          "internalType": "bool",
          "name": "positionIsToken0",
          "type": "bool"
        },
        {
          "internalType": "int24",
          "name": "curTick",
          "type": "int24"
        },
        {
          "internalType": "int24",
          "name": "tickDiscretization",
          "type": "int24"
        }
      ],
      "name": "getRangeConditions",
      "outputs": [
        {
          "internalType": "uint256",
          "name": "",
          "type": "uint256"
        }
      ],
      "stateMutability": "pure",
      "type": "function"
    },
    {
      "inputs": [
        {
          "internalType": "address",
          "name": "trader",
          "type": "address"
        }
      ],
      "name": "getReduceOrders",
      "outputs": [
        {
          "components": [
            {
              "components": [
                {
                  "internalType": "address",
                  "name": "token0",
                  "type": "address"
                },
                {
                  "internalType": "address",
                  "name": "token1",
                  "type": "address"
                },
                {
                  "internalType": "uint24",
                  "name": "fee",
                  "type": "uint24"
                }
              ],
              "internalType": "struct PoolKey",
              "name": "key",
              "type": "tuple"
            },
            {
              "internalType": "bool",
              "name": "isAdd",
              "type": "bool"
            },
            {
              "internalType": "bool",
              "name": "positionIsToken0",
              "type": "bool"
            },
            {
              "internalType": "uint32",
              "name": "auctionDeadline",
              "type": "uint32"
            },
            {
              "internalType": "uint32",
              "name": "auctionStartTime",
              "type": "uint32"
            },
            {
              "internalType": "uint256",
              "name": "startOutput",
              "type": "uint256"
            },
            {
              "internalType": "uint256",
              "name": "minOutput",
              "type": "uint256"
            },
            {
              "internalType": "uint256",
              "name": "inputAmount",
              "type": "uint256"
            },
            {
              "internalType": "uint256",
              "name": "decayRate",
              "type": "uint256"
            },
            {
              "internalType": "uint256",
              "name": "margin",
              "type": "uint256"
            }
          ],
          "internalType": "struct DataProvider.LimitOrderInfo[]",
          "name": "",
          "type": "tuple[]"
        }
      ],
      "stateMutability": "view",
      "type": "function"
    },
    {
      "inputs": [
        {
          "components": [
            {
              "internalType": "address",
              "name": "token0",
              "type": "address"
            },
            {
              "internalType": "address",
              "name": "token1",
              "type": "address"
            },
            {
              "internalType": "uint24",
              "name": "fee",
              "type": "uint24"
            }
          ],
          "internalType": "struct PoolKey",
          "name": "key",
          "type": "tuple"
        },
        {
          "internalType": "int24",
          "name": "tickLower",
          "type": "int24"
        },
        {
          "internalType": "int24",
          "name": "tickUpper",
          "type": "int24"
        }
      ],
      "name": "getUtilAndAPR",
      "outputs": [
        {
          "internalType": "uint256",
          "name": "apr",
          "type": "uint256"
        },
        {
          "internalType": "uint256",
          "name": "utilTotal",
          "type": "uint256"
        }
      ],
      "stateMutability": "view",
      "type": "function"
    },
    {
      "inputs": [
        {
          "internalType": "bool",
          "name": "positionIsToken0",
          "type": "bool"
        },
        {
          "internalType": "int24",
          "name": "curTick",
          "type": "int24"
        },
        {
          "internalType": "int24",
          "name": "maxTick",
          "type": "int24"
        },
        {
          "internalType": "int24",
          "name": "minTick",
          "type": "int24"
        },
        {
          "internalType": "int24",
          "name": "tickDiscretization",
          "type": "int24"
        }
      ],
      "name": "rangeConditions",
      "outputs": [
        {
          "internalType": "uint256",
          "name": "",
          "type": "uint256"
        }
      ],
      "stateMutability": "pure",
      "type": "function"
    }
  ],
  "bytecode": {
    "object": "0x60806040523480156200001157600080fd5b50604051620055e1380380620055e1833981016040819052620000349162000087565b50600080546001600160a01b039283166001600160a01b03199182161790915560018054939092169216919091179055620000d1565b80516001600160a01b03811681146200008257600080fd5b919050565b6000806000606084860312156200009d57600080fd5b620000a8846200006a565b9250620000b8602085016200006a565b9150620000c8604085016200006a565b90509250925092565b61550080620000e16000396000f3fe608060405234801561001057600080fd5b50600436106101365760003560e01c806384b88557116100b8578063a55ac3eb1161007c578063a55ac3eb146102ea578063a9b6b32b1461030a578063ac636efb1461032a578063c229a3321461033d578063dd65c3281461037b578063dec8ae011461039b57600080fd5b806384b88557146102615780638e68ad361461028e578063911f1b47146102a1578063912a8e00146102c4578063a36b9168146102d757600080fd5b8063288babd2116100ff578063288babd2146101cf57806329aa3819146101e25780632d6cf1f41461020d5780633aea807f1461022d57806348c6f8661461024057600080fd5b80625295f21461013b578063060429f514610161578063091fcd8714610181578063193a2436146101945780631f2ecd83146101a7575b600080fd5b61014e610149366004614021565b6103ae565b6040519081526020015b60405180910390f35b61017461016f36600461406b565b610642565b60405161015891906140b4565b61014e61018f36600461419e565b610a19565b6101746101a236600461406b565b610cf3565b6101ba6101b5366004614205565b6110c0565b60408051928352602083019190915201610158565b61014e6101dd36600461434d565b611344565b6101f56101f03660046143c1565b61136e565b6040516001600160801b039091168152602001610158565b61022061021b36600461419e565b61145c565b60405161015891906144be565b61014e61023b366004614021565b611964565b61025361024e3660046144cd565b611b87565b60405161015892919061457a565b61027461026f3660046145d2565b611c79565b60408051600293840b81529190920b602082015201610158565b6101f561029c366004614205565b611d60565b6102b46102af366004614606565b61202b565b6040519015158152602001610158565b6101f56102d23660046143c1565b612423565b61014e6102e5366004614654565b61245c565b6102fd6102f83660046146c5565b6124d3565b60405161015891906146e4565b61031d610318366004614745565b6128ad565b6040516101589190614796565b61014e610338366004614818565b612a34565b61035061034b36600461406b565b612c4f565b604080516001600160a01b03948516815293909216602084015262ffffff1690820152606001610158565b61038e61038936600461406b565b612d87565b6040516101589190614869565b61014e6103a93660046148b8565b613151565b600154604051639525092360e01b81526000918291829182916001600160a01b03909116906395250923906103e7908a906004016148d5565b6101c060405180830381865afa158015610405573d6000803e3d6000fd5b505050506040513d601f19601f820116820180604052508101906104299190614963565b600154604051632411122160e11b815293965091945092506000916001600160a01b0390911690634822244290610464908b906004016148d5565b602060405180830381865afa158015610481573d6000803e3d6000fd5b505050506040513d601f19601f820116820180604052508101906104a59190614a18565b6000805460405163d93a904760e01b815292935090916001600160a01b039091169063d93a9047906104df9088908c908c90600401614a31565b602060405180830381865afa1580156104fc573d6000803e3d6000fd5b505050506040513d601f19601f820116820180604052508101906105209190614a69565b6000805460405163657b5a4b60e01b815292935090916001600160a01b039091169063657b5a4b9061055a9089908d908d90600401614a31565b600060405180830381865afa158015610577573d6000803e3d6000fd5b505050506040513d6000823e601f3d908101601f1916820160405261059f9190810190614b47565b60018054865160405163aa7532af60e01b815293945073__$eacbb88ed4bd2af84aa4d43bcf675bcf7e$__9363aa7532af936105f1938c936001600160a01b03909116928c9289918c90600401614bfa565b602060405180830381865af415801561060e573d6000803e3d6000fd5b505050506040513d601f19601f820116820180604052508101906106329190614a18565b96505050505050505b9392505050565b60606000600160009054906101000a90046001600160a01b03166001600160a01b031663d41dcbea6040518163ffffffff1660e01b8152600401600060405180830381865afa158015610699573d6000803e3d6000fd5b505050506040513d6000823e601f3d908101601f191682016040526106c19190810190614c56565b90506000815160026106d39190614d05565b6001600160401b038111156106ea576106ea613eda565b60405190808252806020026020018201604052801561072357816020015b610710613dec565b8152602001906001900390816107085790505b5090506000805b8351811015610963576000604051806060016040528086848151811061075257610752614d1c565b60200260200101516001600160a01b0316630dfe16816040518163ffffffff1660e01b8152600401602060405180830381865afa158015610797573d6000803e3d6000fd5b505050506040513d601f19601f820116820180604052508101906107bb9190614d32565b6001600160a01b031681526020018684815181106107db576107db614d1c565b60200260200101516001600160a01b031663d21220a76040518163ffffffff1660e01b8152600401602060405180830381865afa158015610820573d6000803e3d6000fd5b505050506040513d601f19601f820116820180604052508101906108449190614d32565b6001600160a01b0316815260200186848151811061086457610864614d1c565b60200260200101516001600160a01b031663ddca3f436040518163ffffffff1660e01b8152600401602060405180830381865afa1580156108a9573d6000803e3d6000fd5b505050506040513d601f19601f820116820180604052508101906108cd9190614d4f565b62ffffff168152509050610901878684815181106108ed576108ed614d1c565b60200260200101518360006001888a6132de565b15610914578261091081614d6c565b9350505b61093d8786848151811061092a5761092a614d1c565b602002602001015183600080888a6132de565b15610950578261094c81614d6c565b9350505b508061095b81614d6c565b91505061072a565b506000816001600160401b0381111561097e5761097e613eda565b6040519080825280602002602001820160405280156109b757816020015b6109a4613dec565b81526020019060019003908161099c5790505b50905060005b82811015610a0f578381815181106109d7576109d7614d1c565b60200260200101518282815181106109f1576109f1614d1c565b60200260200101819052508080610a0790614d6c565b9150506109bd565b5095945050505050565b6000805460405163118272bf60e31b815282916001600160a01b031690638c1395f890610a4e90889088908890600401614a31565b600060405180830381865afa158015610a6b573d6000803e3d6000fd5b505050506040513d6000823e601f3d908101601f19168201604052610a939190810190614d90565b90506000856001600160a01b0316633850c7bd6040518163ffffffff1660e01b815260040160e060405180830381865afa158015610ad5573d6000803e3d6000fd5b505050506040513d601f19601f82011682018060405250810190610af99190614eab565b505050505091505060006040518060600160405280886001600160a01b0316630dfe16816040518163ffffffff1660e01b8152600401602060405180830381865afa158015610b4c573d6000803e3d6000fd5b505050506040513d601f19601f82011682018060405250810190610b709190614d32565b6001600160a01b03168152602001886001600160a01b031663d21220a76040518163ffffffff1660e01b8152600401602060405180830381865afa158015610bbc573d6000803e3d6000fd5b505050506040513d601f19601f82011682018060405250810190610be09190614d32565b6001600160a01b03168152602001886001600160a01b031663ddca3f436040518163ffffffff1660e01b8152600401602060405180830381865afa158015610c2c573d6000803e3d6000fd5b505050506040513d601f19601f82011682018060405250810190610c509190614d4f565b62ffffff169052600154604051639525092360e01b81529192506000916001600160a01b0390911690639525092390610c8d9085906004016148d5565b6101c060405180830381865afa158015610cab573d6000803e3d6000fd5b505050506040513d601f19601f82011682018060405250810190610ccf9190614963565b50915050610ce7846000015160c00151878584611344565b98975050505050505050565b60606000600160009054906101000a90046001600160a01b03166001600160a01b031663d41dcbea6040518163ffffffff1660e01b8152600401600060405180830381865afa158015610d4a573d6000803e3d6000fd5b505050506040513d6000823e601f3d908101601f19168201604052610d729190810190614c56565b9050600081516002610d849190614d05565b6001600160401b03811115610d9b57610d9b613eda565b604051908082528060200260200182016040528015610dd457816020015b610dc1613dec565b815260200190600190039081610db95790505b5090506000805b83518110156110145760006040518060600160405280868481518110610e0357610e03614d1c565b60200260200101516001600160a01b0316630dfe16816040518163ffffffff1660e01b8152600401602060405180830381865afa158015610e48573d6000803e3d6000fd5b505050506040513d601f19601f82011682018060405250810190610e6c9190614d32565b6001600160a01b03168152602001868481518110610e8c57610e8c614d1c565b60200260200101516001600160a01b031663d21220a76040518163ffffffff1660e01b8152600401602060405180830381865afa158015610ed1573d6000803e3d6000fd5b505050506040513d601f19601f82011682018060405250810190610ef59190614d32565b6001600160a01b03168152602001868481518110610f1557610f15614d1c565b60200260200101516001600160a01b031663ddca3f436040518163ffffffff1660e01b8152600401602060405180830381865afa158015610f5a573d6000803e3d6000fd5b505050506040513d601f19601f82011682018060405250810190610f7e9190614d4f565b62ffffff168152509050610fb187868481518110610f9e57610f9e614d1c565b602002602001015183600180888a6132de565b15610fc45782610fc081614d6c565b9350505b610fee87868481518110610fda57610fda614d1c565b60200260200101518360016000888a6132de565b156110015782610ffd81614d6c565b9350505b508061100c81614d6c565b915050610ddb565b506000816001600160401b0381111561102f5761102f613eda565b60405190808252806020026020018201604052801561106857816020015b611055613dec565b81526020019060019003908161104d5790505b50905060005b82811015610a0f5783818151811061108857611088614d1c565b60200260200101518282815181106110a2576110a2614d1c565b602002602001018190525080806110b890614d6c565b91505061106e565b600154604051639525092360e01b815260009182918291829182916001600160a01b0316906395250923906110f9908b90600401614f85565b6101c060405180830381865afa158015611117573d6000803e3d6000fd5b505050506040513d601f19601f8201168201806040525081019061113b9190614963565b925092509250600080600080866001600160a01b0316633850c7bd6040518163ffffffff1660e01b815260040160e060405180830381865afa158015611185573d6000803e3d6000fd5b505050506040513d601f19601f820116820180604052508101906111a99190614eab565b509395508f9450505050505b8a60020b8160020b12156112ea576111db6111d5368f90038f018f614f93565b82612423565b94506111f56111ef368f90038f018f614f93565b8261136e565b93506001600160801b038516156112d9576112266001600160801b0385811690670de0b6b3a76400009088166133a9565b8651604051630ca73f1f60e21b81529194506112c0918591670de0b6b3a76400009173__$eacbb88ed4bd2af84aa4d43bcf675bcf7e$__9163329cfc7c91611278918e9187908b908b90600401614faf565b602060405180830381865af4158015611295573d6000803e3d6000fd5b505050506040513d601f19601f820116820180604052508101906112b99190614a18565b91906133a9565b6112ca908b614fea565b99506112d6838a614fea565b98505b6112e38782614ffd565b90506111b5565b50505050508187876112fc9190615022565b611306919061505d565b6113139060020b86615097565b9450816113208888615022565b61132a919061505d565b6113379060020b85615097565b9350505050935093915050565b600080600061135287611c79565b91509150611363868683858861245c565b979650505050505050565b600154604051632411122160e11b81526000916001600160a01b0316906319fda2779082906348222442906113a79088906004016148d5565b602060405180830381865afa1580156113c4573d6000803e3d6000fd5b505050506040513d601f19601f820116820180604052508101906113e89190614a18565b846040518363ffffffff1660e01b815260040161141292919091825260020b602082015260400190565b602060405180830381865afa15801561142f573d6000803e3d6000fd5b505050506040513d601f19601f8201168201806040525081019061145391906150ab565b90505b92915050565b611464613e57565b60006040518060600160405280866001600160a01b0316630dfe16816040518163ffffffff1660e01b8152600401602060405180830381865afa1580156114af573d6000803e3d6000fd5b505050506040513d601f19601f820116820180604052508101906114d39190614d32565b6001600160a01b03168152602001866001600160a01b031663d21220a76040518163ffffffff1660e01b8152600401602060405180830381865afa15801561151f573d6000803e3d6000fd5b505050506040513d601f19601f820116820180604052508101906115439190614d32565b6001600160a01b03168152602001866001600160a01b031663ddca3f436040518163ffffffff1660e01b8152600401602060405180830381865afa15801561158f573d6000803e3d6000fd5b505050506040513d601f19601f820116820180604052508101906115b39190614d4f565b62ffffff1690526000805460405163118272bf60e31b815292935090916001600160a01b0390911690638c1395f8906115f490899089908990600401614a31565b600060405180830381865afa158015611611573d6000803e3d6000fd5b505050506040513d6000823e601f3d908101601f191682016040526116399190810190614d90565b60008054919250906001600160a01b0316635d4936ff61165a898989613487565b6040518263ffffffff1660e01b815260040161167891815260200190565b602060405180830381865afa158015611695573d6000803e3d6000fd5b505050506040513d601f19601f820116820180604052508101906116b99190614a18565b905060006116c8848888611964565b9050604051806101a00160405280858152602001871515815260200184600001516040015181526020018460000151606001518152602001846000015160a0015163ffffffff16815260200184600001516080015163ffffffff1681526020018381526020018460200151815260200184604001518152602001828152602001896001600160a01b0316630dfe16816040518163ffffffff1660e01b8152600401602060405180830381865afa158015611786573d6000803e3d6000fd5b505050506040513d601f19601f820116820180604052508101906117aa9190614d32565b6001600160a01b031663313ce5676040518163ffffffff1660e01b8152600401602060405180830381865afa1580156117e7573d6000803e3d6000fd5b505050506040513d601f19601f8201168201806040525081019061180b91906150c8565b60ff168152602001896001600160a01b031663d21220a76040518163ffffffff1660e01b8152600401602060405180830381865afa158015611851573d6000803e3d6000fd5b505050506040513d601f19601f820116820180604052508101906118759190614d32565b6001600160a01b031663313ce5676040518163ffffffff1660e01b8152600401602060405180830381865afa1580156118b2573d6000803e3d6000fd5b505050506040513d601f19601f820116820180604052508101906118d691906150c8565b60ff168152600054604051632be197cf60e01b81526020909201916001600160a01b0390911690632be197cf906119159089908d908d906004016150e3565b602060405180830381865afa158015611932573d6000803e3d6000fd5b505050506040513d601f19601f820116820180604052508101906119569190614a18565b905298975050505050505050565b600154604051639525092360e01b81526000918291829182916001600160a01b039091169063952509239061199d908a906004016148d5565b6101c060405180830381865afa1580156119bb573d6000803e3d6000fd5b505050506040513d601f19601f820116820180604052508101906119df9190614963565b6000805460405163d93a904760e01b8152949750929550909350916001600160a01b039091169063d93a904790611a1e9087908b908b90600401614a31565b602060405180830381865afa158015611a3b573d6000803e3d6000fd5b505050506040513d601f19601f82011682018060405250810190611a5f9190614a69565b6000805460405163657b5a4b60e01b815292935090916001600160a01b039091169063657b5a4b90611a999088908c908c90600401614a31565b600060405180830381865afa158015611ab6573d6000803e3d6000fd5b505050506040513d6000823e601f3d908101601f19168201604052611ade9190810190614b47565b6001548451604051632c9d4b2b60e21b815292935060009273__$eacbb88ed4bd2af84aa4d43bcf675bcf7e$__9263b2752cac92611b33928b926001600160a01b0316918e15918c918b918b90600401615110565b600060405180830381865af4158015611b50573d6000803e3d6000fd5b505050506040513d6000823e601f3d908101601f19168201604052611b789190810190615175565b9b9a5050505050505050505050565b6001546040516324637c3360e11b81526000916060916001600160a01b03909116906348c6f86690611bc7908b908b908b908b908b908b906004016151bb565b600060405180830381865afa925050508015611c0557506040513d6000823e601f3d908101601f19168201604052611c0291908101906151fb565b60015b611c6857611c11615237565b806308c379a003611c5c5750611c25615252565b80611c305750611c5e565b611c4e8189611c3f818b614fea565b611c499190615097565b6134dd565b506000915060609050611c6e565b505b3d6000803e3d6000fd5b90925090505b965096945050505050565b60008082600081518110611c8f57611c8f614d1c565b602090810291909101015151915081905060015b8351811015611d5a578260020b848281518110611cc257611cc2614d1c565b60200260200101516000015160020b1215611cfc57838181518110611ce957611ce9614d1c565b6020026020010151600001519250611d48565b8160020b848281518110611d1257611d12614d1c565b60200260200101516000015160020b1315611d4857838181518110611d3957611d39614d1c565b60200260200101516000015191505b80611d5281614d6c565b915050611ca3565b50915091565b600154604051632411122160e11b815260009182916001600160a01b0390911690634822244290611d95908890600401614f85565b602060405180830381865afa158015611db2573d6000803e3d6000fd5b505050506040513d601f19601f82011682018060405250810190611dd69190614a18565b6001546040516315083fbb60e31b8152600481018390529192506000916001600160a01b039091169063a841fdd890602401602060405180830381865afa158015611e25573d6000803e3d6000fd5b505050506040513d601f19601f82011682018060405250810190611e499190614a18565b600154604051630ca32ed160e31b8152600481018590529192506000916001600160a01b0390911690636519768890602401602060405180830381865afa158015611e98573d6000803e3d6000fd5b505050506040513d601f19601f82011682018060405250810190611ebc91906152db565b6001600160801b03945090506000808080895b8960020b8160020b121561201c5760015460405163da69b0b360e01b8152600481018a9052600283900b60248201526001600160a01b039091169063da69b0b390604401602060405180830381865afa158015611f30573d6000803e3d6000fd5b505050506040513d601f19601f82011682018060405250810190611f5491906150ab565b6001546040516319fda27760e01b8152600481018b9052600284900b60248201529196508895506001600160a01b0316906319fda27790604401602060405180830381865afa158015611fab573d6000803e3d6000fd5b505050506040513d601f19601f82011682018060405250810190611fcf91906150ab565b925082611fdc85876152f8565b611fe691906152f8565b9150886001600160801b0316826001600160801b0316106120075788612009565b815b98506120158682614ffd565b9050611ecf565b50505050505050509392505050565b60008082511161206f5760405162461bcd60e51b815260206004820152600a602482015269656d70747920696e666f60b01b60448201526064015b60405180910390fd5b600154604051632411122160e11b8152600091829182916001600160a01b0316906348222442906120a4908990600401614f85565b602060405180830381865afa1580156120c1573d6000803e3d6000fd5b505050506040513d601f19601f820116820180604052508101906120e59190614a18565b600154604051630ca32ed160e31b8152600481018390529192506000916001600160a01b0390911690636519768890602401602060405180830381865afa158015612134573d6000803e3d6000fd5b505050506040513d601f19601f8201168201806040525081019061215891906152db565b6001546040516315083fbb60e31b8152600481018590529192506000916001600160a01b039091169063a841fdd890602401602060405180830381865afa1580156121a7573d6000803e3d6000fd5b505050506040513d601f19601f820116820180604052508101906121cb9190614a18565b905060005b875181101561241457828882815181106121ec576121ec614d1c565b602002602001015160000151612202919061531f565b60020b156122405760405162461bcd60e51b815260206004820152600b60248201526a696e76616c69645469636b60a81b6044820152606401612066565b60015488516001600160a01b039091169063da69b0b39086908b908590811061226b5761226b614d1c565b6020026020010151600001516040518363ffffffff1660e01b81526004016122a092919091825260020b602082015260400190565b602060405180830381865afa1580156122bd573d6000803e3d6000fd5b505050506040513d601f19601f820116820180604052508101906122e191906150ab565b9550856001600160801b03166000036123035760009650505050505050611456565b60015488516001600160a01b03909116906319fda2779086908b908590811061232e5761232e614d1c565b6020026020010151600001516040518363ffffffff1660e01b815260040161236392919091825260020b602082015260400190565b602060405180830381865afa158015612380573d6000803e3d6000fd5b505050506040513d601f19601f820116820180604052508101906123a491906150ab565b94508781815181106123b8576123b8614d1c565b602002602001015160200151856123cf9190615341565b6001600160801b031682876001600160801b03166123ed9190615361565b10156124025760009650505050505050611456565b8061240c81614d6c565b9150506121d0565b50600198975050505050505050565b600154604051632411122160e11b81526000916001600160a01b03169063da69b0b39082906348222442906113a79088906004016148d5565b600085612471578260020b8560020b12612485565b61247b8285614ffd565b60020b8560020b12155b15612492575060016124ca565b856124af576124a18285614ffd565b60020b8560020b12156124b9565b8260020b8560020b125b156124c6575060026124ca565b5060035b95945050505050565b600154604051632411122160e11b815260609184916000916001600160a01b0316906348222442906125099089906004016148d5565b602060405180830381865afa158015612526573d6000803e3d6000fd5b505050506040513d601f19601f8201168201806040525081019061254a9190614a18565b600154604051639525092360e01b815291925060009182916001600160a01b031690639525092390612580908b906004016148d5565b6101c060405180830381865afa15801561259e573d6000803e3d6000fd5b505050506040513d601f19601f820116820180604052508101906125c29190614963565b5090925090506000816125d58989615022565b6125df919061505d565b60020b6001600160401b038111156125f9576125f9613eda565b60405190808252806020026020018201604052801561265c57816020015b6126496040518060a0016040528060008152602001600081526020016000815260200160008152602001600081525090565b8152602001906001900390816126175790505b509050600080846001600160a01b0316633850c7bd6040518163ffffffff1660e01b815260040160e060405180830381865afa1580156126a0573d6000803e3d6000fd5b505050506040513d601f19601f820116820180604052508101906126c49190614eab565b50505050505090505b8860020b8760020b121561289e57612777816126e889613526565b6126fa6126f5888c614ffd565b613526565b60015460405163da69b0b360e01b8152600481018c905260028d900b60248201526001600160a01b039091169063da69b0b3906044015b602060405180830381865afa15801561274e573d6000803e3d6000fd5b505050506040513d601f19601f8201168201806040525081019061277291906150ab565b613849565b84848151811061278957612789614d1c565b60200260200101516020018585815181106127a6576127a6614d1c565b6020908102919091010151604001919091525261280e816127c689613526565b6127d36126f5888c614ffd565b6001546040516319fda27760e01b8152600481018c905260028d900b60248201526001600160a01b03909116906319fda27790604401612731565b84848151811061282057612820614d1c565b602002602001015160600185858151811061283d5761283d614d1c565b6020908102919091010151608001919091525261286161285c88613526565b6138e5565b83838151811061287357612873614d1c565b6020908102919091010151528161288981614d6c565b925061289790508488614ffd565b96506126cd565b50909998505050505050505050565b60408051610180810182526000610120820181815261014083018290526101608301829052825260208201819052918101829052606081018290526080810182905260a0810182905260c0810182905260e0810182905261010081019190915260005460405163bfd4c2a560e01b81526001600160a01b03878116600483015286811660248301528515156044830152841515606483015290911690639c3f1e9090829063bfd4c2a590608401602060405180830381865afa158015612977573d6000803e3d6000fd5b505050506040513d601f19601f8201168201806040525081019061299b9190614a18565b6040518263ffffffff1660e01b81526004016129b991815260200190565b61016060405180830381865afa1580156129d7573d6000803e3d6000fd5b505050506040513d601f19601f820116820180604052508101906129fb9190615374565b6101008a01525060c088015260a0870152608086015263ffffffff90811660608601521660408401521515602083015250949350505050565b6000612a41601483615441565b15612a745760405162461bcd60e51b81526020600482015260036024820152621b5bd960ea1b6044820152606401612066565b600154604051639525092360e01b815260009182918291829182916001600160a01b031690639525092390612aad908e90600401614f85565b6101c060405180830381865afa158015612acb573d6000803e3d6000fd5b505050506040513d601f19601f82011682018060405250810190612aef9190614963565b50509050806001600160a01b0316633850c7bd6040518163ffffffff1660e01b815260040160e060405180830381865afa158015612b31573d6000803e3d6000fd5b505050506040513d601f19601f82011682018060405250810190612b559190614eab565b50949750929550612b6c93508692506138e5915050565b935050505b6000612b7e601487615097565b612b889085614d05565b612b929087615361565b905080600003612ba75793506124ca92505050565b600088612bca57612bc584670de0b6b3a76400006112b9858e614d05565b612be1565b612be1670de0b6b3a7640000856112b9858e614d05565b9050612bf68189670de0b6b3a76400006133a9565b9050600080612c1e8d8d612c0b600188615361565b8f612c169190614d05565b8e878a611b87565b9150915081600014612c3957839750505050505050506124ca565b612c44600188614fea565b965050505050612b71565b6000806000836001600160a01b0316630dfe16816040518163ffffffff1660e01b8152600401602060405180830381865afa158015612c92573d6000803e3d6000fd5b505050506040513d601f19601f82011682018060405250810190612cb69190614d32565b846001600160a01b031663d21220a76040518163ffffffff1660e01b8152600401602060405180830381865afa158015612cf4573d6000803e3d6000fd5b505050506040513d601f19601f82011682018060405250810190612d189190614d32565b856001600160a01b031663ddca3f436040518163ffffffff1660e01b8152600401602060405180830381865afa158015612d56573d6000803e3d6000fd5b505050506040513d601f19601f82011682018060405250810190612d7a9190614d4f565b9196909550909350915050565b60606000600160009054906101000a90046001600160a01b03166001600160a01b031663d41dcbea6040518163ffffffff1660e01b8152600401600060405180830381865afa158015612dde573d6000803e3d6000fd5b505050506040513d6000823e601f3d908101601f19168201604052612e069190810190614c56565b9050600081516002612e189190614d05565b6001600160401b03811115612e2f57612e2f613eda565b604051908082528060200260200182016040528015612e6857816020015b612e55613e57565b815260200190600190039081612e4d5790505b5090506000805b83518110156130a55760006040518060600160405280868481518110612e9757612e97614d1c565b60200260200101516001600160a01b0316630dfe16816040518163ffffffff1660e01b8152600401602060405180830381865afa158015612edc573d6000803e3d6000fd5b505050506040513d601f19601f82011682018060405250810190612f009190614d32565b6001600160a01b03168152602001868481518110612f2057612f20614d1c565b60200260200101516001600160a01b031663d21220a76040518163ffffffff1660e01b8152600401602060405180830381865afa158015612f65573d6000803e3d6000fd5b505050506040513d601f19601f82011682018060405250810190612f899190614d32565b6001600160a01b03168152602001868481518110612fa957612fa9614d1c565b60200260200101516001600160a01b031663ddca3f436040518163ffffffff1660e01b8152600401602060405180830381865afa158015612fee573d6000803e3d6000fd5b505050506040513d601f19601f820116820180604052508101906130129190614d4f565b62ffffff1681525090506130448786848151811061303257613032614d1c565b60200260200101518360018789613906565b15613057578261305381614d6c565b9350505b61307f8786848151811061306d5761306d614d1c565b60200260200101518360008789613906565b15613092578261308e81614d6c565b9350505b508061309d81614d6c565b915050612e6f565b506000816001600160401b038111156130c0576130c0613eda565b6040519080825280602002602001820160405280156130f957816020015b6130e6613e57565b8152602001906001900390816130de5790505b50905060005b82811015610a0f5783818151811061311957613119614d1c565b602002602001015182828151811061313357613133614d1c565b6020026020010181905250808061314990614d6c565b9150506130ff565b600154604051639525092360e01b81526000918291829182916001600160a01b039091169063952509239061318a9089906004016148d5565b6101c060405180830381865afa1580156131a8573d6000803e3d6000fd5b505050506040513d601f19601f820116820180604052508101906131cc9190614963565b600154604051632411122160e11b815293965091945092506000916001600160a01b0390911690634822244290613207908a906004016148d5565b602060405180830381865afa158015613224573d6000803e3d6000fd5b505050506040513d601f19601f820116820180604052508101906132489190614a18565b600154835160405163aa7532af60e01b815292935073__$eacbb88ed4bd2af84aa4d43bcf675bcf7e$__9263aa7532af9261329d9289926001600160a01b03909216918991908d906000908a90600401614bfa565b602060405180830381865af41580156132ba573d6000803e3d6000fd5b505050506040513d601f19601f820116820180604052508101906113639190614a18565b6000806132ed888a87896128ad565b606081015190915063ffffffff161561339a5760405180610140016040528088815260200187151581526020018615158152602001826040015163ffffffff168152602001826060015163ffffffff168152602001826080015181526020018260a0015181526020018260c0015181526020018260e00151815260200182610100015181525083858151811061338557613385614d1c565b60200260200101819052506001915050611363565b50600098975050505050505050565b60008080600019858709858702925082811083820303915050806000036133e257600084116133d757600080fd5b50829004905061063b565b80841161341a5760405162461bcd60e51b815260206004820152600660248201526536bab62234bb60d11b6044820152606401612066565b6000848688096000868103871696879004966002600389028118808a02820302808a02820302808a02820302808a02820302808a02820302808a02909103029181900381900460010186841190950394909402919094039290920491909117919091029150509392505050565b6040516bffffffffffffffffffffffff19606085811b8216602084015284901b16603482015281151560f81b60488201526000906049016040516020818303038152906040528051906020012090509392505050565b61352282826040516024016134f3929190615455565b60408051601f198184030181529190526020810180516001600160e01b03166309710a9d60e41b179052613cdf565b5050565b60008060008360020b1261353d578260020b613545565b8260020b6000035b9050620d89e881111561356b576040516315e4079d60e11b815260040160405180910390fd5b60008160011660000361358257600160801b613594565b6ffffcb933bd6fad37aa2d162d1a5940015b70ffffffffffffffffffffffffffffffffff16905060028216156135c8576ffff97272373d413259a46990580e213a0260801c5b60048216156135e7576ffff2e50f5f656932ef12357cf3c7fdcc0260801c5b6008821615613606576fffe5caca7e10e4e61c3624eaa0941cd00260801c5b6010821615613625576fffcb9843d60f6159c9db58835c9266440260801c5b6020821615613644576fff973b41fa98c081472e6896dfb254c00260801c5b6040821615613663576fff2ea16466c96a3843ec78b326b528610260801c5b6080821615613682576ffe5dee046a99a2a811c461f1969c30530260801c5b6101008216156136a2576ffcbe86c7900a88aedcffc83b479aa3a40260801c5b6102008216156136c2576ff987a7253ac413176f2b074cf7815e540260801c5b6104008216156136e2576ff3392b0822b70005940c7a398e4b70f30260801c5b610800821615613702576fe7159475a2c29b7443b29c7fa6e889d90260801c5b611000821615613722576fd097f3bdfd2022b8845ad8f792aa58250260801c5b612000821615613742576fa9f746462d870fdf8a65dc1f90e061e50260801c5b614000821615613762576f70d869a156d2a1b890bb3df62baf32f70260801c5b618000821615613782576f31be135f97d08fd981231505542fcfa60260801c5b620100008216156137a3576f09aa508b5b7a84e1c677de54f3e99bc90260801c5b620200008216156137c3576e5d6af8dedb81196699c329225ee6040260801c5b620400008216156137e2576d2216e584f5fa1ea926041bedfe980260801c5b620800008216156137ff576b048a170391f7dc42444e8fa20260801c5b60008460020b131561382057806000198161381c5761381c615047565b0490505b640100000000810615613834576001613837565b60005b60ff16602082901c0192505050919050565b600080836001600160a01b0316856001600160a01b0316111561386a579293925b846001600160a01b0316866001600160a01b0316116138955761388e858585613d00565b91506138dc565b836001600160a01b0316866001600160a01b031610156138ce576138ba868585613d00565b91506138c7858785613d7b565b90506138dc565b6138d9858585613d7b565b90505b94509492505050565b6000806138f183613dc5565b905061063b8182670de0b6b3a76400006133a9565b6000805460405163118272bf60e31b815282916001600160a01b031690638c1395f89061393b908a908c908a90600401614a31565b600060405180830381865afa158015613958573d6000803e3d6000fd5b505050506040513d6000823e601f3d908101601f191682016040526139809190810190614d90565b60008054919250906001600160a01b0316635d4936ff6139a18a8c8a613487565b6040518263ffffffff1660e01b81526004016139bf91815260200190565b602060405180830381865afa1580156139dc573d6000803e3d6000fd5b505050506040513d601f19601f82011682018060405250810190613a009190614a18565b602083015190915015613cce57604051806101a00160405280888152602001871515815260200183600001516040015181526020018360000151606001518152602001836000015160a0015163ffffffff16815260200183600001516080015163ffffffff1681526020018281526020018360200151815260200183604001518152602001613a90898c8a611964565b8152602001896001600160a01b0316630dfe16816040518163ffffffff1660e01b8152600401602060405180830381865afa158015613ad3573d6000803e3d6000fd5b505050506040513d601f19601f82011682018060405250810190613af79190614d32565b6001600160a01b031663313ce5676040518163ffffffff1660e01b8152600401602060405180830381865afa158015613b34573d6000803e3d6000fd5b505050506040513d601f19601f82011682018060405250810190613b5891906150c8565b60ff168152602001896001600160a01b031663d21220a76040518163ffffffff1660e01b8152600401602060405180830381865afa158015613b9e573d6000803e3d6000fd5b505050506040513d601f19601f82011682018060405250810190613bc29190614d32565b6001600160a01b031663313ce5676040518163ffffffff1660e01b8152600401602060405180830381865afa158015613bff573d6000803e3d6000fd5b505050506040513d601f19601f82011682018060405250810190613c2391906150c8565b60ff168152600054604051632be197cf60e01b81526020909201916001600160a01b0390911690632be197cf90613c62908c908f908d906004016150e3565b602060405180830381865afa158015613c7f573d6000803e3d6000fd5b505050506040513d601f19601f82011682018060405250810190613ca39190614a18565b815250848681518110613cb857613cb8614d1c565b6020026020010181905250600192505050613cd5565b6000925050505b9695505050505050565b80516a636f6e736f6c652e6c6f67602083016000808483855afa5050505050565b6000826001600160a01b0316846001600160a01b03161115613d20579192915b6001600160a01b038416613d696fffffffffffffffffffffffffffffffff60601b606085901b16613d5187876154aa565b6001600160a01b0316866001600160a01b03166133a9565b613d739190615097565b949350505050565b6000826001600160a01b0316846001600160a01b03161115613d9b579192915b613d736001600160801b038316613db286866154aa565b6001600160a01b0316600160601b6133a9565b60006060613de46001600160a01b038416670de0b6b3a7640000614d05565b901c92915050565b604080516101a0810182526000610140820181815261016083018290526101808301829052825260208201819052918101829052606081018290526080810182905260a0810182905260c0810182905260e08101829052610100810182905261012081019190915290565b604080516102008101825260006101a082018181526101c083018290526101e08301829052825260208201819052918101829052606081018290526080810182905260a0810182905260c0810182905260e08101829052610100810182905261012081018290526101408101829052610160810182905261018081019190915290565b634e487b7160e01b600052604160045260246000fd5b606081018181106001600160401b0382111715613f0f57613f0f613eda565b60405250565b60c081018181106001600160401b0382111715613f0f57613f0f613eda565b60e081018181106001600160401b0382111715613f0f57613f0f613eda565b601f8201601f191681016001600160401b0381118282101715613f7857613f78613eda565b6040525050565b604051613f8b81613f34565b90565b6001600160a01b0381168114613fa357600080fd5b50565b62ffffff81168114613fa357600080fd5b600060608284031215613fc957600080fd5b604051613fd581613ef0565b8091508235613fe381613f8e565b81526020830135613ff381613f8e565b6020820152604083013561400681613fa6565b6040919091015292915050565b8015158114613fa357600080fd5b600080600060a0848603121561403657600080fd5b6140408585613fb7565b9250606084013561405081613f8e565b9150608084013561406081614013565b809150509250925092565b60006020828403121561407d57600080fd5b813561063b81613f8e565b80516001600160a01b0390811683526020808301519091169083015260409081015162ffffff16910152565b602080825282518282018190526000919060409081850190868401855b828110156141915781516140e6858251614088565b8681015160606140f98188018315159052565b878301519150608061410e8189018415159052565b90830151915060a0906141288883018463ffffffff169052565b830151915060c06141408882018463ffffffff169052565b9083015160e0888101919091529083015161010080890191909152908301516101208089019190915290830151610140880152909101516101608601525061018090930192908501906001016140d1565b5091979650505050505050565b6000806000606084860312156141b357600080fd5b83356141be81613f8e565b925060208401356141ce81613f8e565b9150604084013561406081614013565b6000606082840312156141f057600080fd5b50919050565b8060020b8114613fa357600080fd5b600080600060a0848603121561421a57600080fd5b61422485856141de565b92506060840135614234816141f6565b91506080840135614060816141f6565b60006001600160401b0382111561425d5761425d613eda565b5060051b60200190565b6001600160801b0381168114613fa357600080fd5b600082601f83011261428d57600080fd5b8135602061429a82614244565b604080516142a88382613f53565b84815260c094850287018401948482019350888611156142c757600080fd5b8488015b8681101561433f5781818b0312156142e35760008081fd5b83516142ee81613f15565b81356142f9816141f6565b81528187013561430881614267565b818801528185013585820152606080830135908201526080808301359082015260a0808301359082015285529385019381016142cb565b509098975050505050505050565b6000806000806080858703121561436357600080fd5b84356001600160401b0381111561437957600080fd5b6143858782880161427c565b945050602085013561439681614013565b925060408501356143a6816141f6565b915060608501356143b6816141f6565b939692955090935050565b600080608083850312156143d457600080fd5b6143de8484613fb7565b915060608301356143ee816141f6565b809150509250929050565b614404828251614088565b602081015180151560608401525060408101516080830152606081015160a0830152608081015161443d60c084018263ffffffff169052565b5060a081015163ffffffff811660e08401525060c08101516101008381019190915260e082015161012080850191909152908201516101408085019190915290820151610160808501919091529082015190610180906144a18286018460ff169052565b83015160ff166101a0850152909101516101c09092019190915250565b6101e0810161145682846143f9565b60008060008060008061010087890312156144e757600080fd5b6144f188886141de565b9550606087013594506080870135935060a087013561450f81614013565b925060c0870135915060e087013561452681613f8e565b809150509295509295509295565b805160020b82526001600160801b03602082015116602083015260408101516040830152606081015160608301526080810151608083015260a081015160a08301525050565b6000604082018483526020604081850152818551808452606086019150828701935060005b818110156145c5576145b2838651614534565b9383019360c0929092019160010161459f565b5090979650505050505050565b6000602082840312156145e457600080fd5b81356001600160401b038111156145fa57600080fd5b613d738482850161427c565b6000806080838503121561461957600080fd5b61462384846141de565b915060608301356001600160401b0381111561463e57600080fd5b61464a8582860161427c565b9150509250929050565b600080600080600060a0868803121561466c57600080fd5b853561467781614013565b94506020860135614687816141f6565b93506040860135614697816141f6565b925060608601356146a7816141f6565b915060808601356146b7816141f6565b809150509295509295909350565b600080600060a084860312156146da57600080fd5b6142248585613fb7565b602080825282518282018190526000919060409081850190868401855b828110156141915781518051855286810151878601528581015186860152606080820151908601526080908101519085015260a09093019290850190600101614701565b6000806000806080858703121561475b57600080fd5b843561476681613f8e565b9350602085013561477681613f8e565b9250604085013561478681614013565b915060608501356143b681614013565b6000610160820190506147aa828451614088565b602083015115156060830152604083015163ffffffff8116608084015250606083015163ffffffff811660a084015250608083015160c083015260a083015160e083015260c0830151610100818185015260e085015161012085015280850151610140850152505092915050565b600080600080600060e0868803121561483057600080fd5b61483a87876141de565b945060608601359350608086013561485181614013565b9497939650939460a0810135945060c0013592915050565b6020808252825182820181905260009190848201906040850190845b818110156148ac576148988385516143f9565b928401926101e09290920191600101614885565b50909695505050505050565b600080608083850312156148cb57600080fd5b6146238484613fb7565b606081016114568284614088565b80516148ee81613f8e565b919050565b600060c0828403121561490557600080fd5b60405161491181613f15565b809150825181526020830151602082015260408301516040820152606083015160608201526080830151608082015260a083015160a08201525092915050565b805161ffff811681146148ee57600080fd5b60008060008385036101c081121561497a57600080fd5b845161498581613f8e565b6020860151909450614996816141f6565b9250610180603f1982018113156149ac57600080fd5b60405191506149ba82613f34565b6149c787604088016148f3565b82526101008601516020830152610120860151604083015261014086015160608301526149f76101608701614951565b608083015285015160a08201526101a09094015160c0850152509093909250565b600060208284031215614a2a57600080fd5b5051919050565b6001600160a01b039384168152919092166020820152901515604082015260600190565b805163ffffffff811681146148ee57600080fd5b600060208284031215614a7b57600080fd5b61145382614a55565b600082601f830112614a9557600080fd5b81516020614aa282614244565b60408051614ab08382613f53565b84815260c09485028701840194848201935088861115614acf57600080fd5b8488015b8681101561433f5781818b031215614aeb5760008081fd5b8351614af681613f15565b8151614b01816141f6565b815281870151614b1081614267565b818801528185015185820152606080830151908201526080808301519082015260a080830151908201528552938501938101614ad3565b600060208284031215614b5957600080fd5b81516001600160401b03811115614b6f57600080fd5b613d7384828501614a84565b805182526020810151602083015260408101516040830152606081015160608301526080810151608083015260a081015160a08301525050565b600081518084526020808501945080840160005b83811015614bef57614bdc878351614534565b60c0969096019590820190600101614bc9565b509495945050505050565b6001600160a01b03888116825287166020820152600286900b60408201526000610180614c2a6060840188614b7b565b80610120840152614c3d81840187614bb5565b9415156101408401525050610160015295945050505050565b60006020808385031215614c6957600080fd5b82516001600160401b03811115614c7f57600080fd5b8301601f81018513614c9057600080fd5b8051614c9b81614244565b604051614ca88282613f53565b82815260059290921b8301840191848101915087831115614cc857600080fd5b928401925b82841015611363578351614ce081613f8e565b82529284019290840190614ccd565b634e487b7160e01b600052601160045260246000fd5b808202811582820484141761145657611456614cef565b634e487b7160e01b600052603260045260246000fd5b600060208284031215614d4457600080fd5b815161063b81613f8e565b600060208284031215614d6157600080fd5b815161063b81613fa6565b600060018201614d7e57614d7e614cef565b5060010190565b80516148ee81614013565b600060208284031215614da257600080fd5b81516001600160401b0380821115614db957600080fd5b9083019060608286031215614dcd57600080fd5b604051614dd981613ef0565b825182811115614de857600080fd5b830160e08188031215614dfa57600080fd5b614e02613f7f565b614e0b826148e3565b8152614e1960208301614d85565b60208201526040820151604082015260608201516060820152614e3e60808301614a55565b6080820152614e4f60a08301614a55565b60a082015260c082015184811115614e6657600080fd5b614e7289828501614a84565b60c0830152508252506020838101519082015260409283015192810192909252509392505050565b805160ff811681146148ee57600080fd5b600080600080600080600060e0888a031215614ec657600080fd5b8751614ed181613f8e565b6020890151909750614ee2816141f6565b9550614ef060408901614951565b9450614efe60608901614951565b9350614f0c60808901614951565b9250614f1a60a08901614e9a565b915060c0880151614f2a81614013565b8091505092959891949750929550565b8035614f4581613f8e565b6001600160a01b039081168352602082013590614f6182613f8e565b1660208301526040810135614f7581613fa6565b62ffffff81166040840152505050565b606081016114568284614f3a565b600060608284031215614fa557600080fd5b6114538383613fb7565b600286900b81526101408101614fc86020830187614b7b565b60e0820194909452600292830b610100820152910b6101209091015292915050565b8082018082111561145657611456614cef565b600281810b9083900b01627fffff8113627fffff198212171561145657611456614cef565b600282810b9082900b03627fffff198112627fffff8213171561145657611456614cef565b634e487b7160e01b600052601260045260246000fd5b60008160020b8360020b8061507457615074615047565b627fffff1982146000198214161561508e5761508e614cef565b90059392505050565b6000826150a6576150a6615047565b500490565b6000602082840312156150bd57600080fd5b815161063b81614267565b6000602082840312156150da57600080fd5b61145382614e9a565b60a081016150f18286614088565b6001600160a01b03939093166060820152901515608090910152919050565b6001600160a01b038881168252871660208201528515156040820152600285900b606082015263ffffffff84166080820152600061018061515460a0840186614b7b565b8061016084015261516781840185614bb5565b9a9950505050505050505050565b6000806040838503121561518857600080fd5b82516001600160401b0381111561519e57600080fd5b6151aa85828601614a84565b925050602083015190509250929050565b61010081016151ca8289614f3a565b6060820196909652608081019490945291151560a084015260c08301526001600160a01b031660e090910152919050565b6000806040838503121561520e57600080fd5b8251915060208301516001600160401b0381111561522b57600080fd5b61464a85828601614a84565b600060033d1115613f8b5760046000803e5060005160e01c90565b600060443d10156152605790565b6040516003193d81016004833e81513d6001600160401b03816024840111818411171561528f57505050505090565b82850191508151818111156152a75750505050505090565b843d87010160208285010111156152c15750505050505090565b6152d060208286010187613f53565b509095945050505050565b6000602082840312156152ed57600080fd5b815161063b816141f6565b6001600160801b0382811682821603908082111561531857615318614cef565b5092915050565b60008260020b8061533257615332615047565b808360020b0791505092915050565b6001600160801b0381811683821601908082111561531857615318614cef565b8181038181111561145657611456614cef565b6000806000806000806000806000898b0361016081121561539457600080fd5b60608112156153a257600080fd5b506040516153af81613ef0565b8a516153ba81613f8e565b815260208b01516153ca81613f8e565b602082015260408b01516153dd81613fa6565b604082015298506153f060608b01614d85565b97506153fe60808b01614a55565b965061540c60a08b01614a55565b955060c08a0151945060e08a015193506101008a015192506101208a015191506101408a015190509295985092959850929598565b60008261545057615450615047565b500690565b604081526000835180604084015260005b818110156154835760208187018101516060868401015201615466565b506000606082850101526060601f19601f8301168401019150508260208301529392505050565b6001600160a01b0382811682821603908082111561531857615318614cef56fea26469706673582212202f962901d6ac06d65616f6c0d4653c05fc8e5d542223583f72510b3c9fe4effe64736f6c63430008150033",
    "linkReferences": {
      "src/PremiumComputer.sol": {
        "PremiumComputer": [
          {
            "start": 1688,
            "length": 20
          },
          {
            "start": 4907,
            "length": 20
          },
          {
            "start": 7129,
            "length": 20
          },
          {
            "start": 13120,
            "length": 20
          }
        ]
      }
    }
  },
  "methodIdentifiers": {
    "findMaxLeverageWithEstimatedSlippage((address,address,uint24),uint256,bool,uint256,uint256)": "ac636efb",
    "findTicks((address,address,uint24),uint256,uint256,bool,uint256,uint160)": "48c6f866",
    "getActiveMarginPositions(address)": "dd65c328",
    "getAddOrders(address)": "193a2436",
    "getBinsDataInBulk((address,address,uint24),int24,int24)": "a55ac3eb",
    "getBorrowedLiquidityInBin((address,address,uint24),int24)": "29aa3819",
    "getExpectedPremiumOwed((address,address,uint24),address,bool)": "3aea807f",
    "getIsBorrowable((address,address,uint24),(int24,uint128,uint256,uint256,uint256,uint256)[])": "911f1b47",
    "getLiquidityInBin((address,address,uint24),int24)": "912a8e00",
    "getMarginPosition(address,address,bool)": "2d6cf1f4",
    "getMaxWithdrawable((address,address,uint24),int24,int24)": "8e68ad36",
    "getMinMaxTicks((int24,uint128,uint256,uint256,uint256,uint256)[])": "84b88557",
    "getOrder(address,address,bool,bool)": "a9b6b32b",
    "getPoolkeys(address)": "c229a332",
    "getPostInstantaeneousRate((address,address,uint24),address,bool)": "005295f2",
    "getPreInstantaeneousRate((address,address,uint24),(int24,uint128,uint256,uint256,uint256,uint256)[])": "dec8ae01",
    "getRangeCondition(address,address,bool)": "091fcd87",
    "getRangeConditions((int24,uint128,uint256,uint256,uint256,uint256)[],bool,int24,int24)": "288babd2",
    "getReduceOrders(address)": "060429f5",
    "getUtilAndAPR((address,address,uint24),int24,int24)": "1f2ecd83",
    "rangeConditions(bool,int24,int24,int24,int24)": "a36b9168"
  },
  "id": 61
}