{
  "abi": [
    {
      "anonymous": false,
      "inputs": [
        {
          "indexed": true,
          "internalType": "address",
          "name": "token",
          "type": "address"
        },
        {
          "indexed": false,
          "internalType": "uint256",
          "name": "amount",
          "type": "uint256"
        }
      ],
      "name": "AddedExternal",
      "type": "event"
    },
    {
      "anonymous": false,
      "inputs": [
        {
          "indexed": true,
          "internalType": "address",
          "name": "owner",
          "type": "address"
        },
        {
          "indexed": true,
          "internalType": "address",
          "name": "spender",
          "type": "address"
        },
        {
          "indexed": false,
          "internalType": "uint256",
          "name": "value",
          "type": "uint256"
        }
      ],
      "name": "Approval",
      "type": "event"
    },
    {
      "anonymous": false,
      "inputs": [
        {
          "indexed": true,
          "internalType": "address",
          "name": "sender",
          "type": "address"
        },
        {
          "indexed": true,
          "internalType": "address",
          "name": "owner",
          "type": "address"
        },
        {
          "indexed": false,
          "internalType": "uint256",
          "name": "assets",
          "type": "uint256"
        },
        {
          "indexed": false,
          "internalType": "uint256",
          "name": "shares",
          "type": "uint256"
        }
      ],
      "name": "Deposit",
      "type": "event"
    },
    {
      "anonymous": false,
      "inputs": [
        {
          "indexed": false,
          "internalType": "uint8",
          "name": "version",
          "type": "uint8"
        }
      ],
      "name": "Initialized",
      "type": "event"
    },
    {
      "anonymous": false,
      "inputs": [
        {
          "indexed": true,
          "internalType": "address",
          "name": "caller",
          "type": "address"
        },
        {
          "indexed": false,
          "internalType": "uint256",
          "name": "amount",
          "type": "uint256"
        },
        {
          "indexed": false,
          "internalType": "int256",
          "name": "PnL",
          "type": "int256"
        }
      ],
      "name": "Repay",
      "type": "event"
    },
    {
      "anonymous": false,
      "inputs": [
        {
          "indexed": true,
          "internalType": "address",
          "name": "from",
          "type": "address"
        },
        {
          "indexed": true,
          "internalType": "address",
          "name": "to",
          "type": "address"
        },
        {
          "indexed": false,
          "internalType": "uint256",
          "name": "value",
          "type": "uint256"
        }
      ],
      "name": "Transfer",
      "type": "event"
    },
    {
      "anonymous": false,
      "inputs": [
        {
          "indexed": true,
          "internalType": "address",
          "name": "caller",
          "type": "address"
        },
        {
          "indexed": false,
          "internalType": "uint256",
          "name": "amount",
          "type": "uint256"
        }
      ],
      "name": "Use",
      "type": "event"
    },
    {
      "anonymous": false,
      "inputs": [
        {
          "indexed": true,
          "internalType": "address",
          "name": "sender",
          "type": "address"
        },
        {
          "indexed": true,
          "internalType": "address",
          "name": "receiver",
          "type": "address"
        },
        {
          "indexed": true,
          "internalType": "address",
          "name": "owner",
          "type": "address"
        },
        {
          "indexed": false,
          "internalType": "uint256",
          "name": "assets",
          "type": "uint256"
        },
        {
          "indexed": false,
          "internalType": "uint256",
          "name": "shares",
          "type": "uint256"
        }
      ],
      "name": "Withdraw",
      "type": "event"
    },
    {
      "inputs": [
        {
          "internalType": "uint256",
          "name": "amount",
          "type": "uint256"
        },
        {
          "internalType": "address",
          "name": "externalToken",
          "type": "address"
        }
      ],
      "name": "addExternalTokenToBalance",
      "outputs": [],
      "stateMutability": "nonpayable",
      "type": "function"
    },
    {
      "inputs": [
        {
          "internalType": "address",
          "name": "owner",
          "type": "address"
        },
        {
          "internalType": "address",
          "name": "spender",
          "type": "address"
        }
      ],
      "name": "allowance",
      "outputs": [
        {
          "internalType": "uint256",
          "name": "",
          "type": "uint256"
        }
      ],
      "stateMutability": "view",
      "type": "function"
    },
    {
      "inputs": [
        {
          "internalType": "address",
          "name": "spender",
          "type": "address"
        },
        {
          "internalType": "uint256",
          "name": "amount",
          "type": "uint256"
        }
      ],
      "name": "approve",
      "outputs": [
        {
          "internalType": "bool",
          "name": "",
          "type": "bool"
        }
      ],
      "stateMutability": "nonpayable",
      "type": "function"
    },
    {
      "inputs": [],
      "name": "asset",
      "outputs": [
        {
          "internalType": "address",
          "name": "",
          "type": "address"
        }
      ],
      "stateMutability": "view",
      "type": "function"
    },
    {
      "inputs": [
        {
          "internalType": "address",
          "name": "account",
          "type": "address"
        }
      ],
      "name": "balanceOf",
      "outputs": [
        {
          "internalType": "uint256",
          "name": "",
          "type": "uint256"
        }
      ],
      "stateMutability": "view",
      "type": "function"
    },
    {
      "inputs": [
        {
          "internalType": "uint256",
          "name": "shares",
          "type": "uint256"
        }
      ],
      "name": "convertToAssets",
      "outputs": [
        {
          "internalType": "uint256",
          "name": "",
          "type": "uint256"
        }
      ],
      "stateMutability": "view",
      "type": "function"
    },
    {
      "inputs": [
        {
          "internalType": "uint256",
          "name": "assets",
          "type": "uint256"
        }
      ],
      "name": "convertToShares",
      "outputs": [
        {
          "internalType": "uint256",
          "name": "",
          "type": "uint256"
        }
      ],
      "stateMutability": "view",
      "type": "function"
    },
    {
      "inputs": [],
      "name": "decimals",
      "outputs": [
        {
          "internalType": "uint8",
          "name": "",
          "type": "uint8"
        }
      ],
      "stateMutability": "view",
      "type": "function"
    },
    {
      "inputs": [
        {
          "internalType": "address",
          "name": "spender",
          "type": "address"
        },
        {
          "internalType": "uint256",
          "name": "subtractedValue",
          "type": "uint256"
        }
      ],
      "name": "decreaseAllowance",
      "outputs": [
        {
          "internalType": "bool",
          "name": "",
          "type": "bool"
        }
      ],
      "stateMutability": "nonpayable",
      "type": "function"
    },
    {
      "inputs": [
        {
          "internalType": "uint256",
          "name": "assets",
          "type": "uint256"
        },
        {
          "internalType": "address",
          "name": "receiver",
          "type": "address"
        }
      ],
      "name": "deposit",
      "outputs": [
        {
          "internalType": "uint256",
          "name": "",
          "type": "uint256"
        }
      ],
      "stateMutability": "nonpayable",
      "type": "function"
    },
    {
      "inputs": [
        {
          "internalType": "address",
          "name": "",
          "type": "address"
        }
      ],
      "name": "externalTokensAmount",
      "outputs": [
        {
          "internalType": "uint256",
          "name": "",
          "type": "uint256"
        }
      ],
      "stateMutability": "view",
      "type": "function"
    },
    {
      "inputs": [
        {
          "internalType": "address",
          "name": "spender",
          "type": "address"
        },
        {
          "internalType": "uint256",
          "name": "addedValue",
          "type": "uint256"
        }
      ],
      "name": "increaseAllowance",
      "outputs": [
        {
          "internalType": "bool",
          "name": "",
          "type": "bool"
        }
      ],
      "stateMutability": "nonpayable",
      "type": "function"
    },
    {
      "inputs": [
        {
          "internalType": "address",
          "name": "assetAddress",
          "type": "address"
        },
        {
          "internalType": "string",
          "name": "_name",
          "type": "string"
        },
        {
          "internalType": "string",
          "name": "_symbol",
          "type": "string"
        }
      ],
      "name": "initialize",
      "outputs": [],
      "stateMutability": "nonpayable",
      "type": "function"
    },
    {
      "inputs": [
        {
          "internalType": "address",
          "name": "",
          "type": "address"
        }
      ],
      "name": "isStrategist",
      "outputs": [
        {
          "internalType": "bool",
          "name": "",
          "type": "bool"
        }
      ],
      "stateMutability": "view",
      "type": "function"
    },
    {
      "inputs": [
        {
          "internalType": "address",
          "name": "",
          "type": "address"
        }
      ],
      "name": "maxDeposit",
      "outputs": [
        {
          "internalType": "uint256",
          "name": "",
          "type": "uint256"
        }
      ],
      "stateMutability": "view",
      "type": "function"
    },
    {
      "inputs": [
        {
          "internalType": "address",
          "name": "",
          "type": "address"
        }
      ],
      "name": "maxMint",
      "outputs": [
        {
          "internalType": "uint256",
          "name": "",
          "type": "uint256"
        }
      ],
      "stateMutability": "view",
      "type": "function"
    },
    {
      "inputs": [
        {
          "internalType": "address",
          "name": "owner",
          "type": "address"
        }
      ],
      "name": "maxRedeem",
      "outputs": [
        {
          "internalType": "uint256",
          "name": "",
          "type": "uint256"
        }
      ],
      "stateMutability": "view",
      "type": "function"
    },
    {
      "inputs": [
        {
          "internalType": "address",
          "name": "owner",
          "type": "address"
        }
      ],
      "name": "maxWithdraw",
      "outputs": [
        {
          "internalType": "uint256",
          "name": "",
          "type": "uint256"
        }
      ],
      "stateMutability": "view",
      "type": "function"
    },
    {
      "inputs": [
        {
          "internalType": "uint256",
          "name": "shares",
          "type": "uint256"
        },
        {
          "internalType": "address",
          "name": "receiver",
          "type": "address"
        }
      ],
      "name": "mint",
      "outputs": [
        {
          "internalType": "uint256",
          "name": "",
          "type": "uint256"
        }
      ],
      "stateMutability": "nonpayable",
      "type": "function"
    },
    {
      "inputs": [],
      "name": "name",
      "outputs": [
        {
          "internalType": "string",
          "name": "",
          "type": "string"
        }
      ],
      "stateMutability": "view",
      "type": "function"
    },
    {
      "inputs": [
        {
          "internalType": "uint256",
          "name": "assets",
          "type": "uint256"
        }
      ],
      "name": "previewDeposit",
      "outputs": [
        {
          "internalType": "uint256",
          "name": "",
          "type": "uint256"
        }
      ],
      "stateMutability": "view",
      "type": "function"
    },
    {
      "inputs": [
        {
          "internalType": "uint256",
          "name": "shares",
          "type": "uint256"
        }
      ],
      "name": "previewMint",
      "outputs": [
        {
          "internalType": "uint256",
          "name": "",
          "type": "uint256"
        }
      ],
      "stateMutability": "view",
      "type": "function"
    },
    {
      "inputs": [
        {
          "internalType": "uint256",
          "name": "shares",
          "type": "uint256"
        }
      ],
      "name": "previewRedeem",
      "outputs": [
        {
          "internalType": "uint256",
          "name": "",
          "type": "uint256"
        }
      ],
      "stateMutability": "view",
      "type": "function"
    },
    {
      "inputs": [
        {
          "internalType": "uint256",
          "name": "assets",
          "type": "uint256"
        }
      ],
      "name": "previewWithdraw",
      "outputs": [
        {
          "internalType": "uint256",
          "name": "",
          "type": "uint256"
        }
      ],
      "stateMutability": "view",
      "type": "function"
    },
    {
      "inputs": [
        {
          "internalType": "uint256",
          "name": "shares",
          "type": "uint256"
        },
        {
          "internalType": "address",
          "name": "receiver",
          "type": "address"
        },
        {
          "internalType": "address",
          "name": "owner",
          "type": "address"
        }
      ],
      "name": "redeem",
      "outputs": [
        {
          "internalType": "uint256",
          "name": "",
          "type": "uint256"
        }
      ],
      "stateMutability": "nonpayable",
      "type": "function"
    },
    {
      "inputs": [
        {
          "internalType": "uint256",
          "name": "amount",
          "type": "uint256"
        },
        {
          "internalType": "int256",
          "name": "PnL",
          "type": "int256"
        }
      ],
      "name": "repayBalance",
      "outputs": [],
      "stateMutability": "nonpayable",
      "type": "function"
    },
    {
      "inputs": [
        {
          "internalType": "uint256",
          "name": "amountSold",
          "type": "uint256"
        },
        {
          "internalType": "uint256",
          "name": "amountBought",
          "type": "uint256"
        },
        {
          "internalType": "address",
          "name": "externalToken",
          "type": "address"
        }
      ],
      "name": "sellExternalToken",
      "outputs": [],
      "stateMutability": "nonpayable",
      "type": "function"
    },
    {
      "inputs": [
        {
          "internalType": "address",
          "name": "strategist",
          "type": "address"
        }
      ],
      "name": "setStrategist",
      "outputs": [],
      "stateMutability": "nonpayable",
      "type": "function"
    },
    {
      "inputs": [],
      "name": "symbol",
      "outputs": [
        {
          "internalType": "string",
          "name": "",
          "type": "string"
        }
      ],
      "stateMutability": "view",
      "type": "function"
    },
    {
      "inputs": [],
      "name": "tokenBalance",
      "outputs": [
        {
          "internalType": "uint256",
          "name": "",
          "type": "uint256"
        }
      ],
      "stateMutability": "view",
      "type": "function"
    },
    {
      "inputs": [],
      "name": "totalAssets",
      "outputs": [
        {
          "internalType": "uint256",
          "name": "",
          "type": "uint256"
        }
      ],
      "stateMutability": "view",
      "type": "function"
    },
    {
      "inputs": [],
      "name": "totalSupply",
      "outputs": [
        {
          "internalType": "uint256",
          "name": "",
          "type": "uint256"
        }
      ],
      "stateMutability": "view",
      "type": "function"
    },
    {
      "inputs": [
        {
          "internalType": "address",
          "name": "to",
          "type": "address"
        },
        {
          "internalType": "uint256",
          "name": "amount",
          "type": "uint256"
        }
      ],
      "name": "transfer",
      "outputs": [
        {
          "internalType": "bool",
          "name": "",
          "type": "bool"
        }
      ],
      "stateMutability": "nonpayable",
      "type": "function"
    },
    {
      "inputs": [
        {
          "internalType": "address",
          "name": "from",
          "type": "address"
        },
        {
          "internalType": "address",
          "name": "to",
          "type": "address"
        },
        {
          "internalType": "uint256",
          "name": "amount",
          "type": "uint256"
        }
      ],
      "name": "transferFrom",
      "outputs": [
        {
          "internalType": "bool",
          "name": "",
          "type": "bool"
        }
      ],
      "stateMutability": "nonpayable",
      "type": "function"
    },
    {
      "inputs": [
        {
          "internalType": "uint256",
          "name": "amount",
          "type": "uint256"
        }
      ],
      "name": "useBalance",
      "outputs": [],
      "stateMutability": "nonpayable",
      "type": "function"
    },
    {
      "inputs": [],
      "name": "utilizedBalance",
      "outputs": [
        {
          "internalType": "uint256",
          "name": "",
          "type": "uint256"
        }
      ],
      "stateMutability": "view",
      "type": "function"
    },
    {
      "inputs": [
        {
          "internalType": "uint256",
          "name": "assets",
          "type": "uint256"
        },
        {
          "internalType": "address",
          "name": "receiver",
          "type": "address"
        },
        {
          "internalType": "address",
          "name": "owner",
          "type": "address"
        }
      ],
      "name": "withdraw",
      "outputs": [
        {
          "internalType": "uint256",
          "name": "",
          "type": "uint256"
        }
      ],
      "stateMutability": "nonpayable",
      "type": "function"
    }
  ],
  "bytecode": {
    "object": "0x608060405234801561001057600080fd5b506122f3806100206000396000f3fe608060405234801561001057600080fd5b50600436106102275760003560e01c80639065714711610130578063ba087652116100b8578063d905777e1161007c578063d905777e14610498578063dd62ed3e146104ab578063ef8b30f71461045f578063f005af3e146104be578063f367cddf146104d157600080fd5b8063ba0876521461044c578063c63d75b614610339578063c6e6f5921461045f578063c7b9d53014610472578063ce96cb771461048557600080fd5b80639e1a4d19116100ff5780639e1a4d19146103f7578063a457c2d714610400578063a9059cbb14610413578063b3d7f6b914610426578063b460af941461043957600080fd5b806390657147146103b657806394bf804d146103c957806395d89b41146103dc57806396721d8a146103e457600080fd5b806338d52e0f116101b35780634cdad506116101825780634cdad506146102585780636734faee1461034e5780636e553f651461037157806370a08231146103845780638f697f91146103ad57600080fd5b806338d52e0f146102f657806339509351146103115780633bc034bd14610324578063402d267d1461033957600080fd5b80630a28a477116101fa5780630a28a4771461028e57806318160ddd146102a157806319f12d50146102a957806323b872dd146102c9578063313ce567146102dc57600080fd5b806301e1d1141461022c57806306fdde031461024357806307a2d13a14610258578063095ea7b31461026b575b600080fd5b609b545b6040519081526020015b60405180910390f35b61024b6104e4565b60405161023a9190611c39565b610230610266366004611c4c565b610576565b61027e610279366004611c81565b610589565b604051901515815260200161023a565b61023061029c366004611c4c565b6105a1565b603554610230565b6102306102b7366004611cab565b60996020526000908152604090205481565b61027e6102d7366004611cc6565b6105ae565b6102e46105d4565b60405160ff909116815260200161023a565b6065546040516001600160a01b03909116815260200161023a565b61027e61031f366004611c81565b6105f3565b610337610332366004611d02565b610615565b005b610230610347366004611cab565b5060001990565b61027e61035c366004611cab565b60986020526000908152604090205460ff1681565b61023061037f366004611d24565b61071a565b610230610392366004611cab565b6001600160a01b031660009081526033602052604090205490565b610230609a5481565b6103376103c4366004611df3565b610734565b6102306103d7366004611d24565b610865565b61024b61087f565b6103376103f2366004611d24565b61088e565b610230609b5481565b61027e61040e366004611c81565b610932565b61027e610421366004611c81565b6109b8565b610230610434366004611c4c565b6109c6565b610230610447366004611e67565b6109d3565b61023061045a366004611e67565b610a4f565b61023061046d366004611c4c565b610ac3565b610337610480366004611cab565b610ad0565b610230610493366004611cab565b610b3c565b6102306104a6366004611cab565b610b60565b6102306104b9366004611ea3565b610b7e565b6103376104cc366004611c4c565b610ba9565b6103376104df366004611ecd565b610cb3565b6060603680546104f390611ef9565b80601f016020809104026020016040519081016040528092919081815260200182805461051f90611ef9565b801561056c5780601f106105415761010080835404028352916020019161056c565b820191906000526020600020905b81548152906001019060200180831161054f57829003601f168201915b5050505050905090565b6000610583826000610da8565b92915050565b600033610597818585610de3565b5060019392505050565b6000610583826001610f07565b6000336105bc858285610f32565b6105c7858585610fa6565b60019150505b9392505050565b6000806065546105ee9190600160a01b900460ff16611f49565b905090565b6000336105978185856106068383610b7e565b6106109190611f62565b610de3565b3360009081526098602052604090205460ff1661064d5760405162461bcd60e51b815260040161064490611f75565b60405180910390fd5b81609a600082825461065f9190611f9a565b909155505060008112156106885761067681611fad565b609b546106839190611f9a565b610696565b80609b546106969190611f62565b609b556106da6106ae6065546001600160a01b031690565b3330600085136106d0576106c185611fad565b6106cb9087611f9a565b611151565b6106cb8587611f62565b604080518381526020810183905233917f2f7d67a2272e05a41bad89b6859934686333f74ec892ad29a9aa69596ab440d891015b60405180910390a25050565b60008061072684610ac3565b90506105cd338486846111db565b600054610100900460ff16158080156107545750600054600160ff909116105b8061076e5750303b15801561076e575060005460ff166001145b6107d15760405162461bcd60e51b815260206004820152602e60248201527f496e697469616c697a61626c653a20636f6e747261637420697320616c72656160448201526d191e481a5b9a5d1a585b1a5e995960921b6064820152608401610644565b6000805460ff1916600117905580156107f4576000805461ff0019166101001790555b6107fd84611268565b610807838361129b565b609780546001600160a01b03191633179055801561085f576000805461ff0019169055604051600181527f7f26b83ff96e1f2b6a682f133852f6798a09c465da95921460cefb38474024989060200160405180910390a15b50505050565b600080610871846109c6565b90506105cd338483876111db565b6060603780546104f390611ef9565b3360009081526098602052604090205460ff166108bd5760405162461bcd60e51b815260040161064490611f75565b6001600160a01b038116600090815260996020526040812080548492906108e5908490611f62565b909155506108f7905081333085611151565b806001600160a01b03167f36ffac572f12ccdd8e663178562b6a764cb46e1e0d7ef0b17a03cc6bf34ca1878360405161070e91815260200190565b600033816109408286610b7e565b9050838110156109a05760405162461bcd60e51b815260206004820152602560248201527f45524332303a2064656372656173656420616c6c6f77616e63652062656c6f77604482015264207a65726f60d81b6064820152608401610644565b6109ad8286868403610de3565b506001949350505050565b600033610597818585610fa6565b6000610583826001610da8565b60006109de82610b3c565b841115610a2d5760405162461bcd60e51b815260206004820152601f60248201527f455243343632363a207769746864726177206d6f7265207468616e206d6178006044820152606401610644565b6000610a38856105a1565b9050610a4733858588856112d0565b949350505050565b6000610a5a82610b60565b841115610aa95760405162461bcd60e51b815260206004820152601d60248201527f455243343632363a2072656465656d206d6f7265207468616e206d61780000006044820152606401610644565b6000610ab485610576565b9050610a4733858584896112d0565b6000610583826000610f07565b6097546001600160a01b03163314610b135760405162461bcd60e51b815260206004820152600660248201526510b7bbb732b960d11b6044820152606401610644565b6001600160a01b03166000908152609860205260409020805460ff19811660ff90911615179055565b6001600160a01b038116600090815260336020526040812054610583906000610da8565b6001600160a01b038116600090815260336020526040812054610583565b6001600160a01b03918216600090815260346020908152604080832093909416825291909152205490565b3360009081526098602052604090205460ff16610bd85760405162461bcd60e51b815260040161064490611f75565b610c04604051806040016040528060078152602001663f3f3f3f3f3f3f60c81b815250609b5483611399565b80609a54610c129190611f62565b609b541015610c4d5760405162461bcd60e51b815260206004820152600760248201526608585b5bdd5b9d60ca1b6044820152606401610644565b80609a6000828254610c5f9190611f62565b9091555050606554610c7b906001600160a01b031633836113e0565b60405181815233907f095a6ca7abcfe34d4a2c0943555a21fd5531b0a8c33bf91725429b968d2c81bd9060200160405180910390a250565b3360009081526098602052604090205460ff16610ce25760405162461bcd60e51b815260040161064490611f75565b6001600160a01b038116600090815260996020526040902054831115610d345760405162461bcd60e51b815260206004820152600760248201526608585b5bdd5b9d60ca1b6044820152606401610644565b6001600160a01b03811660009081526099602052604081208054859290610d5c908490611f9a565b9250508190555081609b6000828254610d759190611f62565b90915550610d8690508133846113e0565b610da3610d9b6065546001600160a01b031690565b333085611151565b505050565b60006105cd610db6609b5490565b610dc1906001611f62565b610dcd6000600a6120ad565b603554610dda9190611f62565b85919085611458565b6001600160a01b038316610e455760405162461bcd60e51b8152602060048201526024808201527f45524332303a20617070726f76652066726f6d20746865207a65726f206164646044820152637265737360e01b6064820152608401610644565b6001600160a01b038216610ea65760405162461bcd60e51b815260206004820152602260248201527f45524332303a20617070726f766520746f20746865207a65726f206164647265604482015261737360f01b6064820152608401610644565b6001600160a01b0383811660008181526034602090815260408083209487168084529482529182902085905590518481527f8c5be1e5ebec7d5bd14f71427d1e84f3dd0314c0f7b2291e5b200ac8c7c3b925910160405180910390a3505050565b60006105cd610f1782600a6120ad565b603554610f249190611f62565b609b54610dda906001611f62565b6000610f3e8484610b7e565b9050600019811461085f5781811015610f995760405162461bcd60e51b815260206004820152601d60248201527f45524332303a20696e73756666696369656e7420616c6c6f77616e63650000006044820152606401610644565b61085f8484848403610de3565b6001600160a01b03831661100a5760405162461bcd60e51b815260206004820152602560248201527f45524332303a207472616e736665722066726f6d20746865207a65726f206164604482015264647265737360d81b6064820152608401610644565b6001600160a01b03821661106c5760405162461bcd60e51b815260206004820152602360248201527f45524332303a207472616e7366657220746f20746865207a65726f206164647260448201526265737360e81b6064820152608401610644565b6001600160a01b038316600090815260336020526040902054818110156110e45760405162461bcd60e51b815260206004820152602660248201527f45524332303a207472616e7366657220616d6f756e7420657863656564732062604482015265616c616e636560d01b6064820152608401610644565b6001600160a01b0380851660008181526033602052604080822086860390559286168082529083902080548601905591517fddf252ad1be2c89b69c2b068fc378daa952ba7f163c4a11628f55a4df523b3ef906111449086815260200190565b60405180910390a361085f565b60006040516323b872dd60e01b81528460048201528360248201528260448201526020600060648360008a5af13d15601f3d11600160005114161716915050806111d45760405162461bcd60e51b81526020600482015260146024820152731514905394d1915497d19493d357d1905253115160621b6044820152606401610644565b5050505050565b6111f86111f06065546001600160a01b031690565b8530856114b5565b6112028382611520565b81609b60008282546112149190611f62565b909155505060408051838152602081018390526001600160a01b0380861692908716917fdcbc1c05240f31ff3ad067ef1ee35ce4997762752e3a095284754544f4c709d7910160405180910390a350505050565b600054610100900460ff1661128f5760405162461bcd60e51b8152600401610644906120bc565b611298816115e1565b50565b600054610100900460ff166112c25760405162461bcd60e51b8152600401610644906120bc565b6112cc8282611666565b5050565b826001600160a01b0316856001600160a01b0316146112f4576112f4838683610f32565b81609b60008282546113069190611f9a565b90915550611316905083826116a6565b61133261132b6065546001600160a01b031690565b85846117da565b826001600160a01b0316846001600160a01b0316866001600160a01b03167ffbde797d201c681b91056529119e0b02407c7bb96a4a2c75c01fc9667232c8db858560405161138a929190918252602082015260400190565b60405180910390a45050505050565b610da38383836040516024016113b193929190612107565b60408051601f198184030181529190526020810180516001600160e01b031663969cdd0360e01b17905261180a565b600060405163a9059cbb60e01b8152836004820152826024820152602060006044836000895af13d15601f3d116001600051141617169150508061085f5760405162461bcd60e51b815260206004820152600f60248201526e1514905394d1915497d19052531151608a1b6044820152606401610644565b60008061146686868661182b565b9050600183600281111561147c5761147c61212c565b14801561149957506000848061149457611494612142565b868809115b156114ac576114a9600182611f62565b90505b95945050505050565b6040516001600160a01b038085166024830152831660448201526064810182905261085f9085906323b872dd60e01b906084015b60408051601f198184030181529190526020810180516001600160e01b03166001600160e01b031990931692909217909152611915565b6001600160a01b0382166115765760405162461bcd60e51b815260206004820152601f60248201527f45524332303a206d696e7420746f20746865207a65726f2061646472657373006044820152606401610644565b80603560008282546115889190611f62565b90915550506001600160a01b0382166000818152603360209081526040808320805486019055518481527fddf252ad1be2c89b69c2b068fc378daa952ba7f163c4a11628f55a4df523b3ef910160405180910390a35050565b600054610100900460ff166116085760405162461bcd60e51b8152600401610644906120bc565b600080611614836119ea565b9150915081611624576012611626565b805b606580546001600160a01b039095166001600160a01b031960ff93909316600160a01b02929092166001600160a81b031990951694909417179092555050565b600054610100900460ff1661168d5760405162461bcd60e51b8152600401610644906120bc565b603661169983826121a6565b506037610da382826121a6565b6001600160a01b0382166117065760405162461bcd60e51b815260206004820152602160248201527f45524332303a206275726e2066726f6d20746865207a65726f206164647265736044820152607360f81b6064820152608401610644565b6001600160a01b0382166000908152603360205260409020548181101561177a5760405162461bcd60e51b815260206004820152602260248201527f45524332303a206275726e20616d6f756e7420657863656564732062616c616e604482015261636560f01b6064820152608401610644565b6001600160a01b03831660008181526033602090815260408083208686039055603580548790039055518581529192917fddf252ad1be2c89b69c2b068fc378daa952ba7f163c4a11628f55a4df523b3ef910160405180910390a3505050565b6040516001600160a01b038316602482015260448101829052610da390849063a9059cbb60e01b906064016114e9565b80516a636f6e736f6c652e6c6f67602083016000808483855afa5050505050565b60008080600019858709858702925082811083820303915050806000036118655783828161185b5761185b612142565b04925050506105cd565b8084116118ac5760405162461bcd60e51b81526020600482015260156024820152744d6174683a206d756c446976206f766572666c6f7760581b6044820152606401610644565b60008486880960026001871981018816978890046003810283188082028403028082028403028082028403028082028403028082028403029081029092039091026000889003889004909101858311909403939093029303949094049190911702949350505050565b600061196a826040518060400160405280602081526020017f5361666545524332303a206c6f772d6c6576656c2063616c6c206661696c6564815250856001600160a01b0316611ac69092919063ffffffff16565b905080516000148061198b57508080602001905181019061198b9190612266565b610da35760405162461bcd60e51b815260206004820152602a60248201527f5361666545524332303a204552433230206f7065726174696f6e20646964206e6044820152691bdd081cdd58d8d9595960b21b6064820152608401610644565b60408051600481526024810182526020810180516001600160e01b031663313ce56760e01b17905290516000918291829182916001600160a01b03871691611a3191612288565b600060405180830381855afa9150503d8060008114611a6c576040519150601f19603f3d011682016040523d82523d6000602084013e611a71565b606091505b5091509150818015611a8557506020815110155b15611ab957600081806020019051810190611aa091906122a4565b905060ff8111611ab7576001969095509350505050565b505b5060009485945092505050565b6060610a47848460008585600080866001600160a01b03168587604051611aed9190612288565b60006040518083038185875af1925050503d8060008114611b2a576040519150601f19603f3d011682016040523d82523d6000602084013e611b2f565b606091505b5091509150611b4087838387611b4b565b979650505050505050565b60608315611bba578251600003611bb3576001600160a01b0385163b611bb35760405162461bcd60e51b815260206004820152601d60248201527f416464726573733a2063616c6c20746f206e6f6e2d636f6e74726163740000006044820152606401610644565b5081610a47565b610a478383815115611bcf5781518083602001fd5b8060405162461bcd60e51b81526004016106449190611c39565b60005b83811015611c04578181015183820152602001611bec565b50506000910152565b60008151808452611c25816020860160208601611be9565b601f01601f19169290920160200192915050565b6020815260006105cd6020830184611c0d565b600060208284031215611c5e57600080fd5b5035919050565b80356001600160a01b0381168114611c7c57600080fd5b919050565b60008060408385031215611c9457600080fd5b611c9d83611c65565b946020939093013593505050565b600060208284031215611cbd57600080fd5b6105cd82611c65565b600080600060608486031215611cdb57600080fd5b611ce484611c65565b9250611cf260208501611c65565b9150604084013590509250925092565b60008060408385031215611d1557600080fd5b50508035926020909101359150565b60008060408385031215611d3757600080fd5b82359150611d4760208401611c65565b90509250929050565b634e487b7160e01b600052604160045260246000fd5b600082601f830112611d7757600080fd5b813567ffffffffffffffff80821115611d9257611d92611d50565b604051601f8301601f19908116603f01168101908282118183101715611dba57611dba611d50565b81604052838152866020858801011115611dd357600080fd5b836020870160208301376000602085830101528094505050505092915050565b600080600060608486031215611e0857600080fd5b611e1184611c65565b9250602084013567ffffffffffffffff80821115611e2e57600080fd5b611e3a87838801611d66565b93506040860135915080821115611e5057600080fd5b50611e5d86828701611d66565b9150509250925092565b600080600060608486031215611e7c57600080fd5b83359250611e8c60208501611c65565b9150611e9a60408501611c65565b90509250925092565b60008060408385031215611eb657600080fd5b611ebf83611c65565b9150611d4760208401611c65565b600080600060608486031215611ee257600080fd5b8335925060208401359150611e9a60408501611c65565b600181811c90821680611f0d57607f821691505b602082108103611f2d57634e487b7160e01b600052602260045260246000fd5b50919050565b634e487b7160e01b600052601160045260246000fd5b60ff818116838216019081111561058357610583611f33565b8082018082111561058357610583611f33565b6020808252600b908201526a085cdd1c985d1959da5cdd60aa1b604082015260600190565b8181038181111561058357610583611f33565b6000600160ff1b8201611fc257611fc2611f33565b5060000390565b600181815b80851115612004578160001904821115611fea57611fea611f33565b80851615611ff757918102915b93841c9390800290611fce565b509250929050565b60008261201b57506001610583565b8161202857506000610583565b816001811461203e576002811461204857612064565b6001915050610583565b60ff84111561205957612059611f33565b50506001821b610583565b5060208310610133831016604e8410600b8410161715612087575081810a610583565b6120918383611fc9565b80600019048211156120a5576120a5611f33565b029392505050565b60006105cd60ff84168361200c565b6020808252602b908201527f496e697469616c697a61626c653a20636f6e7472616374206973206e6f74206960408201526a6e697469616c697a696e6760a81b606082015260800190565b60608152600061211a6060830186611c0d565b60208301949094525060400152919050565b634e487b7160e01b600052602160045260246000fd5b634e487b7160e01b600052601260045260246000fd5b601f821115610da357600081815260208120601f850160051c8101602086101561217f5750805b601f850160051c820191505b8181101561219e5782815560010161218b565b505050505050565b815167ffffffffffffffff8111156121c0576121c0611d50565b6121d4816121ce8454611ef9565b84612158565b602080601f83116001811461220957600084156121f15750858301515b600019600386901b1c1916600185901b17855561219e565b600085815260208120601f198616915b8281101561223857888601518255948401946001909101908401612219565b50858210156122565787850151600019600388901b60f8161c191681555b5050505050600190811b01905550565b60006020828403121561227857600080fd5b815180151581146105cd57600080fd5b6000825161229a818460208701611be9565b9190910192915050565b6000602082840312156122b657600080fd5b505191905056fea264697066735822122055d4e85f2859c3719af85e3befbec89088f4ce3b2bd954a373cd61def0d13f1664736f6c63430008150033",
    "linkReferences": {}
  },
  "methodIdentifiers": {
    "addExternalTokenToBalance(uint256,address)": "96721d8a",
    "allowance(address,address)": "dd62ed3e",
    "approve(address,uint256)": "095ea7b3",
    "asset()": "38d52e0f",
    "balanceOf(address)": "70a08231",
    "convertToAssets(uint256)": "07a2d13a",
    "convertToShares(uint256)": "c6e6f592",
    "decimals()": "313ce567",
    "decreaseAllowance(address,uint256)": "a457c2d7",
    "deposit(uint256,address)": "6e553f65",
    "externalTokensAmount(address)": "19f12d50",
    "increaseAllowance(address,uint256)": "39509351",
    "initialize(address,string,string)": "90657147",
    "isStrategist(address)": "6734faee",
    "maxDeposit(address)": "402d267d",
    "maxMint(address)": "c63d75b6",
    "maxRedeem(address)": "d905777e",
    "maxWithdraw(address)": "ce96cb77",
    "mint(uint256,address)": "94bf804d",
    "name()": "06fdde03",
    "previewDeposit(uint256)": "ef8b30f7",
    "previewMint(uint256)": "b3d7f6b9",
    "previewRedeem(uint256)": "4cdad506",
    "previewWithdraw(uint256)": "0a28a477",
    "redeem(uint256,address,address)": "ba087652",
    "repayBalance(uint256,int256)": "3bc034bd",
    "sellExternalToken(uint256,uint256,address)": "f367cddf",
    "setStrategist(address)": "c7b9d530",
    "symbol()": "95d89b41",
    "tokenBalance()": "9e1a4d19",
    "totalAssets()": "01e1d114",
    "totalSupply()": "18160ddd",
    "transfer(address,uint256)": "a9059cbb",
    "transferFrom(address,address,uint256)": "23b872dd",
    "useBalance(uint256)": "f005af3e",
    "utilizedBalance()": "8f697f91",
    "withdraw(uint256,address,address)": "b460af94"
  },
  "id": 71
}