{
  "abi": [
    {
      "inputs": [
        {
          "internalType": "address",
          "name": "priceFeed",
          "type": "address"
        },
        {
          "internalType": "uint256",
          "name": "_taxRate",
          "type": "uint256"
        },
        {
          "internalType": "string",
          "name": "_name",
          "type": "string"
        },
        {
          "internalType": "string",
          "name": "_symbol",
          "type": "string"
        }
      ],
      "stateMutability": "nonpayable",
      "type": "constructor"
    },
    {
      "anonymous": false,
      "inputs": [
        {
          "indexed": true,
          "internalType": "address",
          "name": "owner",
          "type": "address"
        },
        {
          "indexed": true,
          "internalType": "address",
          "name": "spender",
          "type": "address"
        },
        {
          "indexed": false,
          "internalType": "uint256",
          "name": "amount",
          "type": "uint256"
        }
      ],
      "name": "Approval",
      "type": "event"
    },
    {
      "anonymous": false,
      "inputs": [
        {
          "indexed": true,
          "internalType": "address",
          "name": "caller",
          "type": "address"
        },
        {
          "indexed": true,
          "internalType": "address",
          "name": "owner",
          "type": "address"
        },
        {
          "indexed": false,
          "internalType": "uint256",
          "name": "assets",
          "type": "uint256"
        },
        {
          "indexed": false,
          "internalType": "uint256",
          "name": "shares",
          "type": "uint256"
        }
      ],
      "name": "Deposit",
      "type": "event"
    },
    {
      "anonymous": false,
      "inputs": [
        {
          "indexed": true,
          "internalType": "address",
          "name": "caller",
          "type": "address"
        },
        {
          "indexed": true,
          "internalType": "address",
          "name": "token",
          "type": "address"
        },
        {
          "indexed": false,
          "internalType": "uint256",
          "name": "amount",
          "type": "uint256"
        },
        {
          "indexed": false,
          "internalType": "int256",
          "name": "PnL",
          "type": "int256"
        }
      ],
      "name": "Repay",
      "type": "event"
    },
    {
      "anonymous": false,
      "inputs": [
        {
          "indexed": true,
          "internalType": "address",
          "name": "from",
          "type": "address"
        },
        {
          "indexed": true,
          "internalType": "address",
          "name": "to",
          "type": "address"
        },
        {
          "indexed": false,
          "internalType": "uint256",
          "name": "amount",
          "type": "uint256"
        }
      ],
      "name": "Transfer",
      "type": "event"
    },
    {
      "anonymous": false,
      "inputs": [
        {
          "indexed": true,
          "internalType": "address",
          "name": "caller",
          "type": "address"
        },
        {
          "indexed": true,
          "internalType": "address",
          "name": "token",
          "type": "address"
        },
        {
          "indexed": false,
          "internalType": "uint256",
          "name": "amount",
          "type": "uint256"
        }
      ],
      "name": "Use",
      "type": "event"
    },
    {
      "anonymous": false,
      "inputs": [
        {
          "indexed": true,
          "internalType": "address",
          "name": "caller",
          "type": "address"
        },
        {
          "indexed": true,
          "internalType": "address",
          "name": "receiver",
          "type": "address"
        },
        {
          "indexed": true,
          "internalType": "address",
          "name": "owner",
          "type": "address"
        },
        {
          "indexed": false,
          "internalType": "uint256",
          "name": "assets",
          "type": "uint256"
        },
        {
          "indexed": false,
          "internalType": "uint256",
          "name": "shares",
          "type": "uint256"
        }
      ],
      "name": "Withdraw",
      "type": "event"
    },
    {
      "inputs": [],
      "name": "DOMAIN_SEPARATOR",
      "outputs": [
        {
          "internalType": "bytes32",
          "name": "",
          "type": "bytes32"
        }
      ],
      "stateMutability": "view",
      "type": "function"
    },
    {
      "inputs": [
        {
          "internalType": "address",
          "name": "",
          "type": "address"
        },
        {
          "internalType": "address",
          "name": "",
          "type": "address"
        }
      ],
      "name": "allowance",
      "outputs": [
        {
          "internalType": "uint256",
          "name": "",
          "type": "uint256"
        }
      ],
      "stateMutability": "view",
      "type": "function"
    },
    {
      "inputs": [
        {
          "internalType": "address",
          "name": "spender",
          "type": "address"
        },
        {
          "internalType": "uint256",
          "name": "amount",
          "type": "uint256"
        }
      ],
      "name": "approve",
      "outputs": [
        {
          "internalType": "bool",
          "name": "",
          "type": "bool"
        }
      ],
      "stateMutability": "nonpayable",
      "type": "function"
    },
    {
      "inputs": [
        {
          "internalType": "address",
          "name": "",
          "type": "address"
        }
      ],
      "name": "balanceOf",
      "outputs": [
        {
          "internalType": "uint256",
          "name": "",
          "type": "uint256"
        }
      ],
      "stateMutability": "view",
      "type": "function"
    },
    {
      "inputs": [
        {
          "internalType": "uint256",
          "name": "shares",
          "type": "uint256"
        }
      ],
      "name": "convertToAssets",
      "outputs": [
        {
          "internalType": "uint256",
          "name": "",
          "type": "uint256"
        }
      ],
      "stateMutability": "view",
      "type": "function"
    },
    {
      "inputs": [
        {
          "internalType": "uint256",
          "name": "assets",
          "type": "uint256"
        }
      ],
      "name": "convertToShares",
      "outputs": [
        {
          "internalType": "uint256",
          "name": "",
          "type": "uint256"
        }
      ],
      "stateMutability": "view",
      "type": "function"
    },
    {
      "inputs": [],
      "name": "decimals",
      "outputs": [
        {
          "internalType": "uint8",
          "name": "",
          "type": "uint8"
        }
      ],
      "stateMutability": "view",
      "type": "function"
    },
    {
      "inputs": [
        {
          "internalType": "address",
          "name": "tokenAddress",
          "type": "address"
        },
        {
          "internalType": "uint256",
          "name": "assets",
          "type": "uint256"
        },
        {
          "internalType": "address",
          "name": "receiver",
          "type": "address"
        }
      ],
      "name": "depositAnyToken",
      "outputs": [
        {
          "internalType": "uint256",
          "name": "shares",
          "type": "uint256"
        }
      ],
      "stateMutability": "nonpayable",
      "type": "function"
    },
    {
      "inputs": [],
      "name": "getAllTokens",
      "outputs": [
        {
          "internalType": "address[]",
          "name": "",
          "type": "address[]"
        }
      ],
      "stateMutability": "view",
      "type": "function"
    },
    {
      "inputs": [],
      "name": "getData",
      "outputs": [
        {
          "internalType": "uint256",
          "name": "",
          "type": "uint256"
        },
        {
          "internalType": "uint256",
          "name": "",
          "type": "uint256"
        },
        {
          "internalType": "uint256",
          "name": "",
          "type": "uint256"
        },
        {
          "internalType": "uint256[]",
          "name": "",
          "type": "uint256[]"
        },
        {
          "internalType": "uint256[]",
          "name": "",
          "type": "uint256[]"
        },
        {
          "internalType": "uint256[]",
          "name": "",
          "type": "uint256[]"
        }
      ],
      "stateMutability": "view",
      "type": "function"
    },
    {
      "inputs": [
        {
          "internalType": "address",
          "name": "tokenAddress",
          "type": "address"
        }
      ],
      "name": "maxRedeemableInToken",
      "outputs": [
        {
          "internalType": "uint256",
          "name": "assets",
          "type": "uint256"
        },
        {
          "internalType": "uint256",
          "name": "maxShares",
          "type": "uint256"
        }
      ],
      "stateMutability": "view",
      "type": "function"
    },
    {
      "inputs": [],
      "name": "name",
      "outputs": [
        {
          "internalType": "string",
          "name": "",
          "type": "string"
        }
      ],
      "stateMutability": "view",
      "type": "function"
    },
    {
      "inputs": [
        {
          "internalType": "address",
          "name": "",
          "type": "address"
        }
      ],
      "name": "nonces",
      "outputs": [
        {
          "internalType": "uint256",
          "name": "",
          "type": "uint256"
        }
      ],
      "stateMutability": "view",
      "type": "function"
    },
    {
      "inputs": [
        {
          "internalType": "address",
          "name": "owner",
          "type": "address"
        },
        {
          "internalType": "address",
          "name": "spender",
          "type": "address"
        },
        {
          "internalType": "uint256",
          "name": "value",
          "type": "uint256"
        },
        {
          "internalType": "uint256",
          "name": "deadline",
          "type": "uint256"
        },
        {
          "internalType": "uint8",
          "name": "v",
          "type": "uint8"
        },
        {
          "internalType": "bytes32",
          "name": "r",
          "type": "bytes32"
        },
        {
          "internalType": "bytes32",
          "name": "s",
          "type": "bytes32"
        }
      ],
      "name": "permit",
      "outputs": [],
      "stateMutability": "nonpayable",
      "type": "function"
    },
    {
      "inputs": [
        {
          "internalType": "uint256",
          "name": "assets",
          "type": "uint256"
        }
      ],
      "name": "previewDeposit",
      "outputs": [
        {
          "internalType": "uint256",
          "name": "",
          "type": "uint256"
        }
      ],
      "stateMutability": "view",
      "type": "function"
    },
    {
      "inputs": [
        {
          "internalType": "uint256",
          "name": "shares",
          "type": "uint256"
        }
      ],
      "name": "previewRedeem",
      "outputs": [
        {
          "internalType": "uint256",
          "name": "",
          "type": "uint256"
        }
      ],
      "stateMutability": "view",
      "type": "function"
    },
    {
      "inputs": [
        {
          "internalType": "address",
          "name": "tokenAddress",
          "type": "address"
        },
        {
          "internalType": "uint256",
          "name": "shares",
          "type": "uint256"
        },
        {
          "internalType": "address",
          "name": "receiver",
          "type": "address"
        },
        {
          "internalType": "address",
          "name": "owner",
          "type": "address"
        }
      ],
      "name": "redeemToAnyToken",
      "outputs": [
        {
          "internalType": "uint256",
          "name": "assets",
          "type": "uint256"
        }
      ],
      "stateMutability": "nonpayable",
      "type": "function"
    },
    {
      "inputs": [
        {
          "internalType": "address",
          "name": "tokenAddress",
          "type": "address"
        },
        {
          "internalType": "uint256",
          "name": "amount",
          "type": "uint256"
        },
        {
          "internalType": "int256",
          "name": "PnL",
          "type": "int256"
        }
      ],
      "name": "repayBalance",
      "outputs": [],
      "stateMutability": "nonpayable",
      "type": "function"
    },
    {
      "inputs": [
        {
          "internalType": "address",
          "name": "_priceFeed",
          "type": "address"
        }
      ],
      "name": "setPricefeed",
      "outputs": [],
      "stateMutability": "nonpayable",
      "type": "function"
    },
    {
      "inputs": [
        {
          "internalType": "address",
          "name": "strategist",
          "type": "address"
        }
      ],
      "name": "setStrategist",
      "outputs": [],
      "stateMutability": "nonpayable",
      "type": "function"
    },
    {
      "inputs": [
        {
          "internalType": "uint256",
          "name": "_taxRate",
          "type": "uint256"
        }
      ],
      "name": "setTaxRate",
      "outputs": [],
      "stateMutability": "nonpayable",
      "type": "function"
    },
    {
      "inputs": [
        {
          "internalType": "address",
          "name": "_token",
          "type": "address"
        }
      ],
      "name": "setToken",
      "outputs": [],
      "stateMutability": "nonpayable",
      "type": "function"
    },
    {
      "inputs": [],
      "name": "symbol",
      "outputs": [
        {
          "internalType": "string",
          "name": "",
          "type": "string"
        }
      ],
      "stateMutability": "view",
      "type": "function"
    },
    {
      "inputs": [
        {
          "internalType": "address",
          "name": "",
          "type": "address"
        }
      ],
      "name": "tokenBalance",
      "outputs": [
        {
          "internalType": "uint256",
          "name": "",
          "type": "uint256"
        }
      ],
      "stateMutability": "view",
      "type": "function"
    },
    {
      "inputs": [],
      "name": "totalAssets",
      "outputs": [
        {
          "internalType": "uint256",
          "name": "totalAsset",
          "type": "uint256"
        }
      ],
      "stateMutability": "view",
      "type": "function"
    },
    {
      "inputs": [],
      "name": "totalSupply",
      "outputs": [
        {
          "internalType": "uint256",
          "name": "",
          "type": "uint256"
        }
      ],
      "stateMutability": "view",
      "type": "function"
    },
    {
      "inputs": [
        {
          "internalType": "address",
          "name": "to",
          "type": "address"
        },
        {
          "internalType": "uint256",
          "name": "amount",
          "type": "uint256"
        }
      ],
      "name": "transfer",
      "outputs": [
        {
          "internalType": "bool",
          "name": "",
          "type": "bool"
        }
      ],
      "stateMutability": "nonpayable",
      "type": "function"
    },
    {
      "inputs": [
        {
          "internalType": "address",
          "name": "from",
          "type": "address"
        },
        {
          "internalType": "address",
          "name": "to",
          "type": "address"
        },
        {
          "internalType": "uint256",
          "name": "amount",
          "type": "uint256"
        }
      ],
      "name": "transferFrom",
      "outputs": [
        {
          "internalType": "bool",
          "name": "",
          "type": "bool"
        }
      ],
      "stateMutability": "nonpayable",
      "type": "function"
    },
    {
      "inputs": [
        {
          "internalType": "address",
          "name": "tokenAddress",
          "type": "address"
        },
        {
          "internalType": "uint256",
          "name": "amount",
          "type": "uint256"
        }
      ],
      "name": "useBalance",
      "outputs": [],
      "stateMutability": "nonpayable",
      "type": "function"
    },
    {
      "inputs": [
        {
          "internalType": "address",
          "name": "",
          "type": "address"
        }
      ],
      "name": "utilizedBalance",
      "outputs": [
        {
          "internalType": "uint256",
          "name": "",
          "type": "uint256"
        }
      ],
      "stateMutability": "view",
      "type": "function"
    }
  ],
  "bytecode": {
    "object": "0x60e06040523480156200001157600080fd5b5060405162002d8738038062002d87833981016040819052620000349162000207565b8181601260006200004684826200032a565b5060016200005583826200032a565b5060ff81166080524660a0526200006b620000a6565b60c0525050600b80546001600160a01b039096166001600160a01b03199687161790555050600980549093163317909255600a555062000474565b60007f8b73c3c69bb8fe3d512ecc4cf759cc79239f7b179b0ffacaa9a75d522b39400f6000604051620000da9190620003f6565b6040805191829003822060208301939093528101919091527fc89efdaa54c0f20c7adf612882df0950f5a951637e0307cdcb4c672f298b8bc660608201524660808201523060a082015260c00160405160208183030381529060405280519060200120905090565b634e487b7160e01b600052604160045260246000fd5b600082601f8301126200016a57600080fd5b81516001600160401b038082111562000187576200018762000142565b604051601f8301601f19908116603f01168101908282118183101715620001b257620001b262000142565b81604052838152602092508683858801011115620001cf57600080fd5b600091505b83821015620001f35785820183015181830184015290820190620001d4565b600093810190920192909252949350505050565b600080600080608085870312156200021e57600080fd5b84516001600160a01b03811681146200023657600080fd5b6020860151604087015191955093506001600160401b03808211156200025b57600080fd5b620002698883890162000158565b935060608701519150808211156200028057600080fd5b506200028f8782880162000158565b91505092959194509250565b600181811c90821680620002b057607f821691505b602082108103620002d157634e487b7160e01b600052602260045260246000fd5b50919050565b601f8211156200032557600081815260208120601f850160051c81016020861015620003005750805b601f850160051c820191505b8181101562000321578281556001016200030c565b5050505b505050565b81516001600160401b0381111562000346576200034662000142565b6200035e816200035784546200029b565b84620002d7565b602080601f8311600181146200039657600084156200037d5750858301515b600019600386901b1c1916600185901b17855562000321565b600085815260208120601f198616915b82811015620003c757888601518255948401946001909101908401620003a6565b5085821015620003e65787850151600019600388901b60f8161c191681555b5050505050600190811b01905550565b600080835462000406816200029b565b60018281168015620004215760018114620004375762000468565b60ff198416875282151583028701945062000468565b8760005260208060002060005b858110156200045f5781548a82015290840190820162000444565b50505082870194505b50929695505050505050565b60805160a05160c0516128e3620004a46000396000610bbc01526000610b87015260006102b801526128e36000f3fe608060405234801561001057600080fd5b50600436106101da5760003560e01c80637ecebe0011610104578063c7b9d530116100a2578063dd62ed3e11610071578063dd62ed3e14610434578063eab476551461045f578063eedc966a14610472578063ef8b30f71461049257600080fd5b8063c7b9d530146103e8578063d505accf146103fb578063d6724a2d1461040e578063d95c409b1461042157600080fd5b8063b0071c81116100de578063b0071c811461038f578063c15973eb146103a2578063c6d69a30146103c2578063c6e6f592146103d557600080fd5b80637ecebe001461035457806395d89b4114610374578063a9059cbb1461037c57600080fd5b806323b872dd1161017c5780633bc5de301161014b5780633bc5de30146102f457806349327ed01461030e5780634cdad5061461032157806370a082311461033457600080fd5b806323b872dd1461028b5780632a5c792a1461029e578063313ce567146102b35780633644e515146102ec57600080fd5b8063095ea7b3116101b8578063095ea7b3146102225780630d95f6bc14610245578063144fa6d71461026d57806318160ddd1461028257600080fd5b806301e1d114146101df57806306fdde03146101fa57806307a2d13a1461020f575b600080fd5b6101e76104a5565b6040519081526020015b60405180910390f35b61020261070d565b6040516101f191906121de565b6101e761021d3660046121f1565b61079b565b610235610230366004612226565b6107c8565b60405190151581526020016101f1565b610258610253366004612250565b610835565b604080519283526020830191909152016101f1565b61028061027b366004612250565b610953565b005b6101e760025481565b61023561029936600461226b565b6109d8565b6102a6610b21565b6040516101f191906122a7565b6102da7f000000000000000000000000000000000000000000000000000000000000000081565b60405160ff90911681526020016101f1565b6101e7610b83565b6102fc610bde565b6040516101f19695949392919061232f565b6101e761031c366004612387565b61100a565b6101e761032f3660046121f1565b611221565b6101e7610342366004612250565b60036020526000908152604090205481565b6101e7610362366004612250565b60056020526000908152604090205481565b61020261122c565b61023561038a366004612226565b611239565b61028061039d366004612250565b6112d0565b6101e76103b0366004612250565b60076020526000908152604090205481565b6102806103d03660046121f1565b61131c565b6101e76103e33660046121f1565b61134b565b6102806103f6366004612250565b61136b565b6102806104093660046123d2565b6113be565b61028061041c366004612226565b611602565b6101e761042f36600461243f565b611742565b6101e761044236600461248c565b600460209081526000928352604080842090915290825290205481565b61028061046d3660046124bf565b611a1a565b6101e7610480366004612250565b60066020526000908152604090205481565b6101e76104a03660046121f1565b611c18565b60008060006104d4604051806040016040528060038152602001620d0d2d60eb1b815250600880549050611c23565b60005b60085481101561070757600881815481106104f4576104f46124f2565b9060005260206000200160009054906101000a90046001600160a01b0316925061053f6040518060400160405280600981526020016875736470726963653f60b81b81525084611c6c565b61054883611cb1565b91506105ec60405180604001604052806008815260200167757364707269636560c01b81525083856001600160a01b031663313ce5676040518163ffffffff1660e01b8152600401602060405180830381865afa1580156105ad573d6000803e3d6000fd5b505050506040513d601f19601f820116820180604052508101906105d19190612508565b6105dc90601261253b565b6105e790600a612638565b611d20565b826001600160a01b031663313ce5676040518163ffffffff1660e01b8152600401602060405180830381865afa15801561062a573d6000803e3d6000fd5b505050506040513d601f19601f8201168201806040525081019061064e9190612508565b61065990601261253b565b61066490600a612638565b61066e9083612647565b60408051808201825260028152616f6b60f01b6020808301919091526001600160a01b0387166000908152600690915291909120549193506106bd916105e78186670de0b6b3a7640000611d6c565b6001600160a01b0383166000908152600660205260409020546106e99083670de0b6b3a7640000611d6c565b6106f3908561265e565b9350806106ff81612671565b9150506104d7565b50505090565b6000805461071a9061268a565b80601f01602080910402602001604051908101604052809291908181526020018280546107469061268a565b80156107935780601f1061076857610100808354040283529160200191610793565b820191906000526020600020905b81548152906001019060200180831161077657829003601f168201915b505050505081565b60025460009080156107bf576107ba6107b26104a5565b849083611d6c565b6107c1565b825b9392505050565b3360008181526004602090815260408083206001600160a01b038716808552925280832085905551919290917f8c5be1e5ebec7d5bd14f71427d1e84f3dd0314c0f7b2291e5b200ac8c7c3b925906108239086815260200190565b60405180910390a35060015b92915050565b600080600061084384611cb1565b90506000846001600160a01b031663313ce5676040518163ffffffff1660e01b8152600401602060405180830381865afa158015610885573d6000803e3d6000fd5b505050506040513d601f19601f820116820180604052508101906108a99190612508565b6001600160a01b03861660009081526007602090815260408083205460069092529091205460ff92909216925011156108e3576000610912565b6001600160a01b03851660009081526007602090815260408083205460069092529091205461091291906126c4565b935061091f8160126126c4565b61092a90600a6126d7565b6109406104a08685670de0b6b3a7640000611d6c565b61094a9190612647565b92505050915091565b6009546001600160a01b031633146109865760405162461bcd60e51b815260040161097d906126e3565b60405180910390fd5b600880546001810182556000919091527ff3f7a9fe364faab93b216da50a3214154f22a0a2b415b23a84c8169e8b636ee30180546001600160a01b0319166001600160a01b0392909216919091179055565b6001600160a01b038316600090815260036020526040812054821115610a2b5760405162461bcd60e51b81526020600482015260086024820152672162616c616e636560c01b604482015260640161097d565b6001600160a01b038416600090815260046020908152604080832033845290915290205482811015610a8c5760405162461bcd60e51b815260206004820152600a60248201526921616c6c6f77616e636560b01b604482015260640161097d565b6000198114610abe576001600160a01b0385166000908152600460209081526040808320338452909152902083820390555b6001600160a01b038086166000818152600360205260408082208054889003905592871680825290839020805487019055915160008051602061288e83398151915290610b0e9087815260200190565b60405180910390a3506001949350505050565b60606008805480602002602001604051908101604052809291908181526020018280548015610b7957602002820191906000526020600020905b81546001600160a01b03168152600190910190602001808311610b5b575b5050505050905090565b60007f00000000000000000000000000000000000000000000000000000000000000004614610bb957610bb4611e4a565b905090565b507f000000000000000000000000000000000000000000000000000000000000000090565b60008060006060806060600060088054905067ffffffffffffffff811115610c0857610c08612703565b604051908082528060200260200182016040528015610c31578160200160208202803683370190505b5060085490915060009067ffffffffffffffff811115610c5357610c53612703565b604051908082528060200260200182016040528015610c7c578160200160208202803683370190505b5060085490915060009067ffffffffffffffff811115610c9e57610c9e612703565b604051908082528060200260200182016040528015610cc7578160200160208202803683370190505b509050600080610cd56104a5565b905060005b600854811015610f815760008060088381548110610cfa57610cfa6124f2565b6000918252602090912001546001600160a01b03169150610d1a82611cb1565b9050816001600160a01b031663313ce5676040518163ffffffff1660e01b8152600401602060405180830381865afa158015610d5a573d6000803e3d6000fd5b505050506040513d601f19601f82011682018060405250810190610d7e9190612508565b610d8990601261253b565b610d9490600a612638565b610d9e9082612647565b6001600160a01b038316600090815260076020526040902054909150610dcd9082670de0b6b3a7640000611d6c565b610dd7908661265e565b6001600160a01b038316600090815260066020526040902054895191965090899085908110610e0857610e086124f2565b602002602001018181525050600060066000846001600160a01b03166001600160a01b031681526020019081526020016000205411610e48576000610e80565b6001600160a01b038216600090815260066020908152604080832054600790925290912054610e8091670de0b6b3a764000090611d6c565b868481518110610e9257610e926124f2565b602002602001018181525050610ef4670de0b6b3a764000085610eed84670de0b6b3a764000060066000896001600160a01b03166001600160a01b0316815260200190815260200160002054611d6c9092919063ffffffff16565b9190611d6c565b878481518110610f0657610f066124f2565b602002602001018181525050610f6c6040518060400160405280600481526020016306c6f6f760e41b81525084888681518110610f4557610f456124f2565b60200260200101518a8781518110610f5f57610f5f6124f2565b6020026020010151611ee4565b50508080610f7990612671565b915050610cda565b50610fcc604051806040016040528060038152602001623f3f3f60e81b8152506002548360008511610fb4576000611ee4565b610fc786670de0b6b3a764000087611d6c565b611ee4565b6002548160008311610fdf576000610ff2565b610ff284670de0b6b3a764000085611d6c565b919d909c50909a509498509296509094509192505050565b600080846001600160a01b031663313ce5676040518163ffffffff1660e01b8152600401602060405180830381865afa15801561104b573d6000803e3d6000fd5b505050506040513d601f19601f8201168201806040525081019061106f9190612508565b61107a90601261253b565b61108590600a612638565b6110a161109187611cb1565b8690670de0b6b3a7640000611d6c565b6110ab9190612647565b90506110d460405180604001604052806005815260200164776865726560d81b81525082611c23565b600a546000906110e9908390620f4240611d6c565b6110f390836126c4565b905061111e604051806040016040528060078152602001663bb432b932bb9960c91b81525082611c23565b61112781611c18565b9250826000036111675760405162461bcd60e51b815260206004820152600b60248201526a5a45524f5f53484152455360a81b604482015260640161097d565b61118e60405180604001604052806005815260200164776865726560d81b81525084611c23565b6001600160a01b038616600090815260066020526040812080548792906111b690849061265e565b909155506111c8905086333088611f33565b6111d28484611fbd565b60408051828152602081018590526001600160a01b0386169133917fdcbc1c05240f31ff3ad067ef1ee35ce4997762752e3a095284754544f4c709d7910160405180910390a350509392505050565b600061082f8261079b565b6001805461071a9061268a565b336000908152600360205260408120548211156112835760405162461bcd60e51b81526020600482015260086024820152672162616c616e636560c01b604482015260640161097d565b336000818152600360209081526040808320805487900390556001600160a01b038716808452928190208054870190555185815291929160008051602061288e8339815191529101610823565b6009546001600160a01b031633146112fa5760405162461bcd60e51b815260040161097d906126e3565b600b80546001600160a01b0319166001600160a01b0392909216919091179055565b6009546001600160a01b031633146113465760405162461bcd60e51b815260040161097d906126e3565b600a55565b60025460009080156107bf576107ba816113636104a5565b859190611d6c565b6009546001600160a01b031633146113955760405162461bcd60e51b815260040161097d906126e3565b6001600160a01b03166000908152600c60205260409020805460ff19811660ff90911615179055565b4284101561140e5760405162461bcd60e51b815260206004820152601760248201527f5045524d49545f444541444c494e455f45585049524544000000000000000000604482015260640161097d565b6000600161141a610b83565b6001600160a01b038a811660008181526005602090815260409182902080546001810190915582517f6e71edae12b1b97f4d1f60370fef10105fa2faae0126114a169c64845d6126c98184015280840194909452938d166060840152608083018c905260a083019390935260c08083018b90528151808403909101815260e08301909152805192019190912061190160f01b6101008301526101028201929092526101228101919091526101420160408051601f198184030181528282528051602091820120600084529083018083525260ff871690820152606081018590526080810184905260a0016020604051602081039080840390855afa158015611526573d6000803e3d6000fd5b5050604051601f1901519150506001600160a01b0381161580159061155c5750876001600160a01b0316816001600160a01b0316145b6115995760405162461bcd60e51b815260206004820152600e60248201526d24a72b20a624a22fa9a4a3a722a960911b604482015260640161097d565b6001600160a01b0390811660009081526004602090815260408083208a8516808552908352928190208990555188815291928a16917f8c5be1e5ebec7d5bd14f71427d1e84f3dd0314c0f7b2291e5b200ac8c7c3b925910160405180910390a350505050505050565b336000908152600c602052604090205460ff1661164f5760405162461bcd60e51b815260206004820152600b60248201526a085cdd1c985d1959da5cdd60aa1b604482015260640161097d565b6001600160a01b03821660009081526007602052604090205461167390829061265e565b6001600160a01b03831660009081526006602052604090205410156116c45760405162461bcd60e51b815260206004820152600760248201526608585b5bdd5b9d60ca1b604482015260640161097d565b6001600160a01b038216600090815260076020526040812080548392906116ec90849061265e565b909155506116fd905082338361200f565b6040518181526001600160a01b0383169033907ff7323cc8651e605a3101ab9f324d55d253525b18b53d28377cfe9a481764ebf9906020015b60405180910390a35050565b6000336001600160a01b038316146117b2576001600160a01b038216600090815260046020908152604080832033845290915290205460001981146117b05761178b85826126c4565b6001600160a01b03841660009081526004602090815260408083203384529091529020555b505b60006117bd85611221565b9050806000036117fd5760405162461bcd60e51b815260206004820152600b60248201526a5a45524f5f41535345545360a81b604482015260640161097d565b61183260405180604001604052806012815260200171617373657473496e556e6465726c79696e6760701b8152508287611d20565b6118d1670de0b6b3a7640000876001600160a01b031663313ce5676040518163ffffffff1660e01b8152600401602060405180830381865afa15801561187c573d6000803e3d6000fd5b505050506040513d601f19601f820116820180604052508101906118a09190612508565b6118ab90601261253b565b6118b690600a612638565b6118bf89611cb1565b6118c99190612647565b839190611d6c565b600a549092506118e6908390620f4240611d6c565b6118f090836126c4565b6001600160a01b03871660009081526007602052604090205490925061191790839061265e565b6001600160a01b038716600090815260066020526040902054101561197e5760405162461bcd60e51b815260206004820152601b60248201527f4558434545445320415641494c41424c45204c49515549444954590000000000604482015260640161097d565b6001600160a01b038616600090815260066020526040812080548492906119a69084906126c4565b909155506119b19050565b6119bb8386612087565b60408051838152602081018790526001600160a01b03808616929087169133917ffbde797d201c681b91056529119e0b02407c7bb96a4a2c75c01fc9667232c8db910160405180910390a4611a1186858461200f565b50949350505050565b336000908152600c602052604090205460ff16611a675760405162461bcd60e51b815260206004820152600b60248201526a085cdd1c985d1959da5cdd60aa1b604482015260640161097d565b611ab3604051806040016040528060048152602001633f3f3f3f60e01b81525060076000866001600160a01b03166001600160a01b031681526020019081526020016000205484611d20565b6001600160a01b038316600090815260066020526040812054611aeb91831215611ae557611ae083612719565b6120e9565b826120e9565b611af48161212f565b6001600160a01b03831660009081526007602052604081208054849290611b1c9084906126c4565b90915550506000811215611b5b57611b3381612719565b6001600160a01b038416600090815260066020526040902054611b5691906126c4565b611b7f565b6001600160a01b038316600090815260066020526040902054611b7f90829061265e565b6001600160a01b038416600090815260066020526040812091909155611bcd908490339030908513611bc357611bb485612719565b611bbe90876126c4565b611f33565b611bbe858761265e565b60408051838152602081018390526001600160a01b0385169133917fa9c3d23a0f7956e89c9bf07856e64dce527c8f8cb4fb51711ffe133b2e59eca4910160405180910390a3505050565b600061082f8261134b565b611c688282604051602401611c39929190612735565b60408051601f198184030181529190526020810180516001600160e01b03166309710a9d60e41b179052612177565b5050565b611c688282604051602401611c82929190612757565b60408051601f198184030181529190526020810180516001600160e01b031663319af33360e01b179052612177565b600b546040516341976e0960e01b81526001600160a01b03838116600483015260009216906341976e0990602401602060405180830381865afa158015611cfc573d6000803e3d6000fd5b505050506040513d601f19601f8201168201806040525081019061082f9190612781565b611d67838383604051602401611d389392919061279a565b60408051601f198184030181529190526020810180516001600160e01b031663969cdd0360e01b179052612177565b505050565b6000808060001985870985870292508281108382030391505080600003611da55760008411611d9a57600080fd5b5082900490506107c1565b808411611ddd5760405162461bcd60e51b815260206004820152600660248201526536bab62234bb60d11b604482015260640161097d565b6000848688096000868103871696879004966002600389028118808a02820302808a02820302808a02820302808a02820302808a02820302808a02909103029181900381900460010186841190950394909402919094039290920491909117919091029150509392505050565b60007f8b73c3c69bb8fe3d512ecc4cf759cc79239f7b179b0ffacaa9a75d522b39400f6000604051611e7c91906127bf565b6040805191829003822060208301939093528101919091527fc89efdaa54c0f20c7adf612882df0950f5a951637e0307cdcb4c672f298b8bc660608201524660808201523060a082015260c00160405160208183030381529060405280519060200120905090565b611f2d84848484604051602401611efe949392919061285e565b60408051601f198184030181529190526020810180516001600160e01b03166304772b3360e11b179052612177565b50505050565b60006040516323b872dd60e01b81528460048201528360248201528260448201526020600060648360008a5af13d15601f3d1160016000511416171691505080611fb65760405162461bcd60e51b81526020600482015260146024820152731514905394d1915497d19493d357d1905253115160621b604482015260640161097d565b5050505050565b8060026000828254611fcf919061265e565b90915550506001600160a01b03821660008181526003602090815260408083208054860190555184815260008051602061288e8339815191529101611736565b600060405163a9059cbb60e01b8152836004820152826024820152602060006044836000895af13d15601f3d1160016000511416171691505080611f2d5760405162461bcd60e51b815260206004820152600f60248201526e1514905394d1915497d19052531151608a1b604482015260640161097d565b6001600160a01b038216600090815260036020526040812080548392906120af9084906126c4565b90915550506002805482900390556040518181526000906001600160a01b0384169060008051602061288e83398151915290602001611736565b6040516024810183905260448101829052611c689060640160408051601f198184030181529190526020810180516001600160e01b031662d81ed360e71b179052612177565b6121748160405160240161214591815260200190565b60408051601f198184030181529190526020810180516001600160e01b0316634e0c1d1d60e01b179052612177565b50565b80516a636f6e736f6c652e6c6f67602083016000808483855afa5050505050565b6000815180845260005b818110156121be576020818501810151868301820152016121a2565b506000602082860101526020601f19601f83011685010191505092915050565b6020815260006107c16020830184612198565b60006020828403121561220357600080fd5b5035919050565b80356001600160a01b038116811461222157600080fd5b919050565b6000806040838503121561223957600080fd5b6122428361220a565b946020939093013593505050565b60006020828403121561226257600080fd5b6107c18261220a565b60008060006060848603121561228057600080fd5b6122898461220a565b92506122976020850161220a565b9150604084013590509250925092565b6020808252825182820181905260009190848201906040850190845b818110156122e85783516001600160a01b0316835292840192918401916001016122c3565b50909695505050505050565b600081518084526020808501945080840160005b8381101561232457815187529582019590820190600101612308565b509495945050505050565b86815285602082015284604082015260c06060820152600061235460c08301866122f4565b828103608084015261236681866122f4565b905082810360a084015261237a81856122f4565b9998505050505050505050565b60008060006060848603121561239c57600080fd5b6123a58461220a565b9250602084013591506123ba6040850161220a565b90509250925092565b60ff8116811461217457600080fd5b600080600080600080600060e0888a0312156123ed57600080fd5b6123f68861220a565b96506124046020890161220a565b955060408801359450606088013593506080880135612422816123c3565b9699959850939692959460a0840135945060c09093013592915050565b6000806000806080858703121561245557600080fd5b61245e8561220a565b9350602085013592506124736040860161220a565b91506124816060860161220a565b905092959194509250565b6000806040838503121561249f57600080fd5b6124a88361220a565b91506124b66020840161220a565b90509250929050565b6000806000606084860312156124d457600080fd5b6124dd8461220a565b95602085013595506040909401359392505050565b634e487b7160e01b600052603260045260246000fd5b60006020828403121561251a57600080fd5b81516107c1816123c3565b634e487b7160e01b600052601160045260246000fd5b60ff828116828216039081111561082f5761082f612525565b600181815b8085111561258f57816000190482111561257557612575612525565b8085161561258257918102915b93841c9390800290612559565b509250929050565b6000826125a65750600161082f565b816125b35750600061082f565b81600181146125c957600281146125d3576125ef565b600191505061082f565b60ff8411156125e4576125e4612525565b50506001821b61082f565b5060208310610133831016604e8410600b8410161715612612575081810a61082f565b61261c8383612554565b806000190482111561263057612630612525565b029392505050565b60006107c160ff841683612597565b808202811582820484141761082f5761082f612525565b8082018082111561082f5761082f612525565b60006001820161268357612683612525565b5060010190565b600181811c9082168061269e57607f821691505b6020821081036126be57634e487b7160e01b600052602260045260246000fd5b50919050565b8181038181111561082f5761082f612525565b60006107c18383612597565b60208082526006908201526510b7bbb732b960d11b604082015260600190565b634e487b7160e01b600052604160045260246000fd5b6000600160ff1b820161272e5761272e612525565b5060000390565b6040815260006127486040830185612198565b90508260208301529392505050565b60408152600061276a6040830185612198565b905060018060a01b03831660208301529392505050565b60006020828403121561279357600080fd5b5051919050565b6060815260006127ad6060830186612198565b60208301949094525060400152919050565b600080835481600182811c9150808316806127db57607f831692505b602080841082036127fa57634e487b7160e01b86526022600452602486fd5b81801561280e576001811461282357612850565b60ff1986168952841515850289019650612850565b60008a81526020902060005b868110156128485781548b82015290850190830161282f565b505084890196505b509498975050505050505050565b6080815260006128716080830187612198565b602083019590955250604081019290925260609091015291905056feddf252ad1be2c89b69c2b068fc378daa952ba7f163c4a11628f55a4df523b3efa264697066735822122044984694a33479d783aa36c3e3a73e8dd4d9cf2af50f0cfc5532ca216ce8be9b64736f6c63430008150033",
    "linkReferences": {}
  },
  "methodIdentifiers": {
    "DOMAIN_SEPARATOR()": "3644e515",
    "allowance(address,address)": "dd62ed3e",
    "approve(address,uint256)": "095ea7b3",
    "balanceOf(address)": "70a08231",
    "convertToAssets(uint256)": "07a2d13a",
    "convertToShares(uint256)": "c6e6f592",
    "decimals()": "313ce567",
    "depositAnyToken(address,uint256,address)": "49327ed0",
    "getAllTokens()": "2a5c792a",
    "getData()": "3bc5de30",
    "maxRedeemableInToken(address)": "0d95f6bc",
    "name()": "06fdde03",
    "nonces(address)": "7ecebe00",
    "permit(address,address,uint256,uint256,uint8,bytes32,bytes32)": "d505accf",
    "previewDeposit(uint256)": "ef8b30f7",
    "previewRedeem(uint256)": "4cdad506",
    "redeemToAnyToken(address,uint256,address,address)": "d95c409b",
    "repayBalance(address,uint256,int256)": "eab47655",
    "setPricefeed(address)": "b0071c81",
    "setStrategist(address)": "c7b9d530",
    "setTaxRate(uint256)": "c6d69a30",
    "setToken(address)": "144fa6d7",
    "symbol()": "95d89b41",
    "tokenBalance(address)": "eedc966a",
    "totalAssets()": "01e1d114",
    "totalSupply()": "18160ddd",
    "transfer(address,uint256)": "a9059cbb",
    "transferFrom(address,address,uint256)": "23b872dd",
    "useBalance(address,uint256)": "d6724a2d",
    "utilizedBalance(address)": "c15973eb"
  },
  "id": 61
}