{
  "abi": [
    {
      "inputs": [
        {
          "internalType": "address",
          "name": "pm",
          "type": "address"
        },
        {
          "internalType": "address",
          "name": "ex",
          "type": "address"
        },
        {
          "internalType": "address",
          "name": "uniswapFactory",
          "type": "address"
        }
      ],
      "stateMutability": "nonpayable",
      "type": "constructor"
    },
    {
      "inputs": [],
      "name": "addReduceInvalidTick",
      "type": "error"
    },
    {
      "inputs": [],
      "name": "cantForceClose",
      "type": "error"
    },
    {
      "inputs": [],
      "name": "exceedMaxWithdrawablePremium",
      "type": "error"
    },
    {
      "inputs": [],
      "name": "noPosition",
      "type": "error"
    },
    {
      "inputs": [],
      "name": "notEnoughPremiumDeposit",
      "type": "error"
    },
    {
      "anonymous": false,
      "inputs": [
        {
          "indexed": true,
          "internalType": "address",
          "name": "pool",
          "type": "address"
        },
        {
          "indexed": true,
          "internalType": "bool",
          "name": "positionIsToken0",
          "type": "bool"
        },
        {
          "indexed": true,
          "internalType": "address",
          "name": "trader",
          "type": "address"
        },
        {
          "indexed": false,
          "internalType": "uint256",
          "name": "forcedClosedAmount",
          "type": "uint256"
        },
        {
          "indexed": false,
          "internalType": "uint256",
          "name": "fillerPayAmount",
          "type": "uint256"
        },
        {
          "indexed": false,
          "internalType": "uint256",
          "name": "rangeCondition",
          "type": "uint256"
        }
      ],
      "name": "ForceClosed",
      "type": "event"
    },
    {
      "anonymous": false,
      "inputs": [
        {
          "indexed": true,
          "internalType": "address",
          "name": "pool",
          "type": "address"
        },
        {
          "indexed": true,
          "internalType": "bool",
          "name": "positionIsToken0",
          "type": "bool"
        },
        {
          "indexed": true,
          "internalType": "address",
          "name": "trader",
          "type": "address"
        },
        {
          "indexed": false,
          "internalType": "address",
          "name": "filler",
          "type": "address"
        },
        {
          "indexed": false,
          "internalType": "uint256",
          "name": "addedAmount",
          "type": "uint256"
        },
        {
          "indexed": false,
          "internalType": "uint256",
          "name": "marginAmount",
          "type": "uint256"
        },
        {
          "indexed": false,
          "internalType": "uint256",
          "name": "borrowAmount",
          "type": "uint256"
        },
        {
          "indexed": false,
          "internalType": "uint256",
          "name": "premiumPaid",
          "type": "uint256"
        },
        {
          "indexed": false,
          "internalType": "uint256",
          "name": "feePaid",
          "type": "uint256"
        }
      ],
      "name": "MarginPositionIncreased",
      "type": "event"
    },
    {
      "anonymous": false,
      "inputs": [
        {
          "indexed": true,
          "internalType": "address",
          "name": "pool",
          "type": "address"
        },
        {
          "indexed": true,
          "internalType": "bool",
          "name": "positionIsToken0",
          "type": "bool"
        },
        {
          "indexed": true,
          "internalType": "address",
          "name": "trader",
          "type": "address"
        },
        {
          "indexed": false,
          "internalType": "address",
          "name": "filler",
          "type": "address"
        },
        {
          "indexed": false,
          "internalType": "uint256",
          "name": "reducePercentage",
          "type": "uint256"
        },
        {
          "indexed": false,
          "internalType": "uint256",
          "name": "premiumPaid",
          "type": "uint256"
        },
        {
          "indexed": false,
          "internalType": "uint256",
          "name": "feePaid",
          "type": "uint256"
        }
      ],
      "name": "MarginPositionReduced",
      "type": "event"
    },
    {
      "anonymous": false,
      "inputs": [
        {
          "indexed": true,
          "internalType": "address",
          "name": "pool",
          "type": "address"
        },
        {
          "indexed": true,
          "internalType": "bool",
          "name": "positionIsToken0",
          "type": "bool"
        },
        {
          "indexed": true,
          "internalType": "address",
          "name": "trader",
          "type": "address"
        },
        {
          "indexed": false,
          "internalType": "bool",
          "name": "isAdd",
          "type": "bool"
        },
        {
          "indexed": false,
          "internalType": "uint256",
          "name": "deadline",
          "type": "uint256"
        },
        {
          "indexed": false,
          "internalType": "uint256",
          "name": "startOutput",
          "type": "uint256"
        },
        {
          "indexed": false,
          "internalType": "uint256",
          "name": "minOutput",
          "type": "uint256"
        },
        {
          "indexed": false,
          "internalType": "uint256",
          "name": "inputAmount",
          "type": "uint256"
        },
        {
          "indexed": false,
          "internalType": "uint256",
          "name": "decayRate",
          "type": "uint256"
        },
        {
          "indexed": false,
          "internalType": "uint256",
          "name": "margin",
          "type": "uint256"
        }
      ],
      "name": "OrderAdded",
      "type": "event"
    },
    {
      "anonymous": false,
      "inputs": [
        {
          "indexed": true,
          "internalType": "address",
          "name": "pool",
          "type": "address"
        },
        {
          "indexed": true,
          "internalType": "bool",
          "name": "positionIsToken0",
          "type": "bool"
        },
        {
          "indexed": true,
          "internalType": "address",
          "name": "trader",
          "type": "address"
        },
        {
          "indexed": false,
          "internalType": "bool",
          "name": "isAdd",
          "type": "bool"
        }
      ],
      "name": "OrderCanceled",
      "type": "event"
    },
    {
      "anonymous": false,
      "inputs": [
        {
          "indexed": true,
          "internalType": "address",
          "name": "payer",
          "type": "address"
        },
        {
          "indexed": true,
          "internalType": "address",
          "name": "pool",
          "type": "address"
        },
        {
          "indexed": false,
          "internalType": "bool",
          "name": "isToken1",
          "type": "bool"
        },
        {
          "indexed": false,
          "internalType": "uint256",
          "name": "amount",
          "type": "uint256"
        }
      ],
      "name": "PremiumDeposited",
      "type": "event"
    },
    {
      "anonymous": false,
      "inputs": [
        {
          "indexed": true,
          "internalType": "address",
          "name": "withdrawer",
          "type": "address"
        },
        {
          "indexed": true,
          "internalType": "address",
          "name": "pool",
          "type": "address"
        },
        {
          "indexed": false,
          "internalType": "bool",
          "name": "isToken1",
          "type": "bool"
        },
        {
          "indexed": false,
          "internalType": "uint256",
          "name": "amount",
          "type": "uint256"
        }
      ],
      "name": "PremiumWithdrawn",
      "type": "event"
    },
    {
      "inputs": [
        {
          "internalType": "PositionId",
          "name": "",
          "type": "bytes32"
        }
      ],
      "name": "PremiumDeposit",
      "outputs": [
        {
          "internalType": "uint256",
          "name": "",
          "type": "uint256"
        }
      ],
      "stateMutability": "view",
      "type": "function"
    },
    {
      "inputs": [
        {
          "components": [
            {
              "internalType": "address",
              "name": "token0",
              "type": "address"
            },
            {
              "internalType": "address",
              "name": "token1",
              "type": "address"
            },
            {
              "internalType": "uint24",
              "name": "fee",
              "type": "uint24"
            }
          ],
          "internalType": "struct PoolKey",
          "name": "key",
          "type": "tuple"
        },
        {
          "components": [
            {
              "internalType": "uint256",
              "name": "margin",
              "type": "uint256"
            },
            {
              "internalType": "uint256",
              "name": "minOutput",
              "type": "uint256"
            },
            {
              "internalType": "uint256",
              "name": "simulatedOutput",
              "type": "uint256"
            },
            {
              "internalType": "uint256",
              "name": "borrowAmount",
              "type": "uint256"
            },
            {
              "internalType": "bool",
              "name": "positionIsToken0",
              "type": "bool"
            },
            {
              "internalType": "uint256",
              "name": "executionOption",
              "type": "uint256"
            },
            {
              "internalType": "address",
              "name": "trader",
              "type": "address"
            },
            {
              "internalType": "bytes",
              "name": "executionData",
              "type": "bytes"
            },
            {
              "internalType": "int24",
              "name": "slippedTickMin",
              "type": "int24"
            },
            {
              "internalType": "int24",
              "name": "slippedTickMax",
              "type": "int24"
            }
          ],
          "internalType": "struct AddParams",
          "name": "param",
          "type": "tuple"
        },
        {
          "components": [
            {
              "internalType": "int24",
              "name": "tick",
              "type": "int24"
            },
            {
              "internalType": "uint128",
              "name": "liquidity",
              "type": "uint128"
            },
            {
              "internalType": "uint256",
              "name": "premium",
              "type": "uint256"
            },
            {
              "internalType": "uint256",
              "name": "feeGrowthInside0LastX128",
              "type": "uint256"
            },
            {
              "internalType": "uint256",
              "name": "feeGrowthInside1LastX128",
              "type": "uint256"
            },
            {
              "internalType": "uint256",
              "name": "lastGrowth",
              "type": "uint256"
            }
          ],
          "internalType": "struct LiquidityLoan[]",
          "name": "borrowInfo",
          "type": "tuple[]"
        }
      ],
      "name": "addPosition",
      "outputs": [
        {
          "components": [
            {
              "components": [
                {
                  "internalType": "address",
                  "name": "pool",
                  "type": "address"
                },
                {
                  "internalType": "bool",
                  "name": "isToken0",
                  "type": "bool"
                },
                {
                  "internalType": "uint256",
                  "name": "totalDebtOutput",
                  "type": "uint256"
                },
                {
                  "internalType": "uint256",
                  "name": "totalDebtInput",
                  "type": "uint256"
                },
                {
                  "internalType": "uint256",
                  "name": "recentPremium",
                  "type": "uint256"
                },
                {
                  "internalType": "uint32",
                  "name": "lastPremiumPaymentTime",
                  "type": "uint32"
                },
                {
                  "internalType": "uint32",
                  "name": "openTime",
                  "type": "uint32"
                },
                {
                  "internalType": "uint32",
                  "name": "repayTime",
                  "type": "uint32"
                },
                {
                  "components": [
                    {
                      "internalType": "int24",
                      "name": "tick",
                      "type": "int24"
                    },
                    {
                      "internalType": "uint128",
                      "name": "liquidity",
                      "type": "uint128"
                    },
                    {
                      "internalType": "uint256",
                      "name": "premium",
                      "type": "uint256"
                    },
                    {
                      "internalType": "uint256",
                      "name": "feeGrowthInside0LastX128",
                      "type": "uint256"
                    },
                    {
                      "internalType": "uint256",
                      "name": "feeGrowthInside1LastX128",
                      "type": "uint256"
                    },
                    {
                      "internalType": "uint256",
                      "name": "lastGrowth",
                      "type": "uint256"
                    }
                  ],
                  "internalType": "struct LiquidityLoan[]",
                  "name": "borrowInfo",
                  "type": "tuple[]"
                }
              ],
              "internalType": "struct Position",
              "name": "base",
              "type": "tuple"
            },
            {
              "internalType": "uint256",
              "name": "totalPosition",
              "type": "uint256"
            },
            {
              "internalType": "uint256",
              "name": "margin",
              "type": "uint256"
            }
          ],
          "internalType": "struct MarginPosition",
          "name": "position",
          "type": "tuple"
        },
        {
          "internalType": "uint256",
          "name": "premiumOwed",
          "type": "uint256"
        },
        {
          "internalType": "uint256",
          "name": "fee",
          "type": "uint256"
        }
      ],
      "stateMutability": "nonpayable",
      "type": "function"
    },
    {
      "inputs": [
        {
          "internalType": "address",
          "name": "token0",
          "type": "address"
        },
        {
          "internalType": "address",
          "name": "token1",
          "type": "address"
        }
      ],
      "name": "approveTokens",
      "outputs": [],
      "stateMutability": "nonpayable",
      "type": "function"
    },
    {
      "inputs": [
        {
          "components": [
            {
              "components": [
                {
                  "internalType": "address",
                  "name": "pool",
                  "type": "address"
                },
                {
                  "internalType": "bool",
                  "name": "isToken0",
                  "type": "bool"
                },
                {
                  "internalType": "uint256",
                  "name": "totalDebtOutput",
                  "type": "uint256"
                },
                {
                  "internalType": "uint256",
                  "name": "totalDebtInput",
                  "type": "uint256"
                },
                {
                  "internalType": "uint256",
                  "name": "recentPremium",
                  "type": "uint256"
                },
                {
                  "internalType": "uint32",
                  "name": "lastPremiumPaymentTime",
                  "type": "uint32"
                },
                {
                  "internalType": "uint32",
                  "name": "openTime",
                  "type": "uint32"
                },
                {
                  "internalType": "uint32",
                  "name": "repayTime",
                  "type": "uint32"
                },
                {
                  "components": [
                    {
                      "internalType": "int24",
                      "name": "tick",
                      "type": "int24"
                    },
                    {
                      "internalType": "uint128",
                      "name": "liquidity",
                      "type": "uint128"
                    },
                    {
                      "internalType": "uint256",
                      "name": "premium",
                      "type": "uint256"
                    },
                    {
                      "internalType": "uint256",
                      "name": "feeGrowthInside0LastX128",
                      "type": "uint256"
                    },
                    {
                      "internalType": "uint256",
                      "name": "feeGrowthInside1LastX128",
                      "type": "uint256"
                    },
                    {
                      "internalType": "uint256",
                      "name": "lastGrowth",
                      "type": "uint256"
                    }
                  ],
                  "internalType": "struct LiquidityLoan[]",
                  "name": "borrowInfo",
                  "type": "tuple[]"
                }
              ],
              "internalType": "struct Position",
              "name": "base",
              "type": "tuple"
            },
            {
              "internalType": "uint256",
              "name": "totalPosition",
              "type": "uint256"
            },
            {
              "internalType": "uint256",
              "name": "margin",
              "type": "uint256"
            }
          ],
          "internalType": "struct MarginPosition",
          "name": "position",
          "type": "tuple"
        }
      ],
      "name": "canForceClose",
      "outputs": [
        {
          "internalType": "bool",
          "name": "",
          "type": "bool"
        }
      ],
      "stateMutability": "view",
      "type": "function"
    },
    {
      "inputs": [
        {
          "components": [
            {
              "internalType": "address",
              "name": "token0",
              "type": "address"
            },
            {
              "internalType": "address",
              "name": "token1",
              "type": "address"
            },
            {
              "internalType": "uint24",
              "name": "fee",
              "type": "uint24"
            }
          ],
          "internalType": "struct PoolKey",
          "name": "key",
          "type": "tuple"
        },
        {
          "components": [
            {
              "components": [
                {
                  "internalType": "address",
                  "name": "pool",
                  "type": "address"
                },
                {
                  "internalType": "bool",
                  "name": "isToken0",
                  "type": "bool"
                },
                {
                  "internalType": "uint256",
                  "name": "totalDebtOutput",
                  "type": "uint256"
                },
                {
                  "internalType": "uint256",
                  "name": "totalDebtInput",
                  "type": "uint256"
                },
                {
                  "internalType": "uint256",
                  "name": "recentPremium",
                  "type": "uint256"
                },
                {
                  "internalType": "uint32",
                  "name": "lastPremiumPaymentTime",
                  "type": "uint32"
                },
                {
                  "internalType": "uint32",
                  "name": "openTime",
                  "type": "uint32"
                },
                {
                  "internalType": "uint32",
                  "name": "repayTime",
                  "type": "uint32"
                },
                {
                  "components": [
                    {
                      "internalType": "int24",
                      "name": "tick",
                      "type": "int24"
                    },
                    {
                      "internalType": "uint128",
                      "name": "liquidity",
                      "type": "uint128"
                    },
                    {
                      "internalType": "uint256",
                      "name": "premium",
                      "type": "uint256"
                    },
                    {
                      "internalType": "uint256",
                      "name": "feeGrowthInside0LastX128",
                      "type": "uint256"
                    },
                    {
                      "internalType": "uint256",
                      "name": "feeGrowthInside1LastX128",
                      "type": "uint256"
                    },
                    {
                      "internalType": "uint256",
                      "name": "lastGrowth",
                      "type": "uint256"
                    }
                  ],
                  "internalType": "struct LiquidityLoan[]",
                  "name": "borrowInfo",
                  "type": "tuple[]"
                }
              ],
              "internalType": "struct Position",
              "name": "base",
              "type": "tuple"
            },
            {
              "internalType": "uint256",
              "name": "totalPosition",
              "type": "uint256"
            },
            {
              "internalType": "uint256",
              "name": "margin",
              "type": "uint256"
            }
          ],
          "internalType": "struct MarginPosition",
          "name": "position",
          "type": "tuple"
        },
        {
          "internalType": "address",
          "name": "pool",
          "type": "address"
        },
        {
          "internalType": "address",
          "name": "trader",
          "type": "address"
        },
        {
          "internalType": "bool",
          "name": "positionIsToken0",
          "type": "bool"
        }
      ],
      "name": "canForceClose",
      "outputs": [
        {
          "internalType": "bool",
          "name": "",
          "type": "bool"
        }
      ],
      "stateMutability": "view",
      "type": "function"
    },
    {
      "inputs": [
        {
          "internalType": "address",
          "name": "pool",
          "type": "address"
        },
        {
          "internalType": "bool",
          "name": "positionIsToken0",
          "type": "bool"
        },
        {
          "internalType": "bool",
          "name": "isAdd",
          "type": "bool"
        }
      ],
      "name": "cancelOrder",
      "outputs": [],
      "stateMutability": "nonpayable",
      "type": "function"
    },
    {
      "inputs": [
        {
          "internalType": "address",
          "name": "pool",
          "type": "address"
        },
        {
          "internalType": "address",
          "name": "borrower",
          "type": "address"
        },
        {
          "internalType": "bool",
          "name": "borrowedToken1",
          "type": "bool"
        }
      ],
      "name": "checkPositionExists",
      "outputs": [
        {
          "internalType": "bool",
          "name": "",
          "type": "bool"
        }
      ],
      "stateMutability": "view",
      "type": "function"
    },
    {
      "inputs": [
        {
          "internalType": "address",
          "name": "pool",
          "type": "address"
        },
        {
          "internalType": "address",
          "name": "borrower",
          "type": "address"
        },
        {
          "internalType": "bool",
          "name": "borrowedToken1",
          "type": "bool"
        },
        {
          "internalType": "uint256",
          "name": "minPremiumDepositPercentage",
          "type": "uint256"
        }
      ],
      "name": "checkPremiumCondition",
      "outputs": [
        {
          "internalType": "bool",
          "name": "",
          "type": "bool"
        }
      ],
      "stateMutability": "view",
      "type": "function"
    },
    {
      "inputs": [
        {
          "components": [
            {
              "internalType": "address",
              "name": "token0",
              "type": "address"
            },
            {
              "internalType": "address",
              "name": "token1",
              "type": "address"
            },
            {
              "internalType": "uint24",
              "name": "fee",
              "type": "uint24"
            }
          ],
          "internalType": "struct PoolKey",
          "name": "key",
          "type": "tuple"
        },
        {
          "internalType": "address",
          "name": "trader",
          "type": "address"
        },
        {
          "internalType": "bool",
          "name": "borrowToken1",
          "type": "bool"
        },
        {
          "internalType": "uint256",
          "name": "amount",
          "type": "uint256"
        }
      ],
      "name": "depositPremium",
      "outputs": [],
      "stateMutability": "nonpayable",
      "type": "function"
    },
    {
      "inputs": [],
      "name": "executioner",
      "outputs": [
        {
          "internalType": "contract Executioner",
          "name": "",
          "type": "address"
        }
      ],
      "stateMutability": "view",
      "type": "function"
    },
    {
      "inputs": [
        {
          "components": [
            {
              "internalType": "address",
              "name": "token0",
              "type": "address"
            },
            {
              "internalType": "address",
              "name": "token1",
              "type": "address"
            },
            {
              "internalType": "uint24",
              "name": "fee",
              "type": "uint24"
            }
          ],
          "internalType": "struct PoolKey",
          "name": "key",
          "type": "tuple"
        },
        {
          "components": [
            {
              "internalType": "address",
              "name": "trader",
              "type": "address"
            },
            {
              "internalType": "bool",
              "name": "positionIsToken0",
              "type": "bool"
            },
            {
              "internalType": "uint256",
              "name": "fillerPayAmount",
              "type": "uint256"
            },
            {
              "internalType": "int24",
              "name": "slippedTickMin",
              "type": "int24"
            },
            {
              "internalType": "int24",
              "name": "slippedTickMax",
              "type": "int24"
            }
          ],
          "internalType": "struct ForceCloseParams",
          "name": "param",
          "type": "tuple"
        }
      ],
      "name": "forceClose",
      "outputs": [
        {
          "internalType": "uint256",
          "name": "premium",
          "type": "uint256"
        }
      ],
      "stateMutability": "nonpayable",
      "type": "function"
    },
    {
      "inputs": [
        {
          "internalType": "address",
          "name": "pool",
          "type": "address"
        },
        {
          "internalType": "address",
          "name": "borrower",
          "type": "address"
        },
        {
          "internalType": "bool",
          "name": "borrowedToken1",
          "type": "bool"
        }
      ],
      "name": "getBorrowInfo",
      "outputs": [
        {
          "components": [
            {
              "internalType": "int24",
              "name": "tick",
              "type": "int24"
            },
            {
              "internalType": "uint128",
              "name": "liquidity",
              "type": "uint128"
            },
            {
              "internalType": "uint256",
              "name": "premium",
              "type": "uint256"
            },
            {
              "internalType": "uint256",
              "name": "feeGrowthInside0LastX128",
              "type": "uint256"
            },
            {
              "internalType": "uint256",
              "name": "feeGrowthInside1LastX128",
              "type": "uint256"
            },
            {
              "internalType": "uint256",
              "name": "lastGrowth",
              "type": "uint256"
            }
          ],
          "internalType": "struct LiquidityLoan[]",
          "name": "",
          "type": "tuple[]"
        }
      ],
      "stateMutability": "view",
      "type": "function"
    },
    {
      "inputs": [
        {
          "internalType": "address",
          "name": "pool",
          "type": "address"
        },
        {
          "internalType": "address",
          "name": "trader",
          "type": "address"
        },
        {
          "internalType": "bool",
          "name": "positionIsToken0",
          "type": "bool"
        }
      ],
      "name": "getLastRepayTime",
      "outputs": [
        {
          "internalType": "uint32",
          "name": "",
          "type": "uint32"
        }
      ],
      "stateMutability": "view",
      "type": "function"
    },
    {
      "inputs": [
        {
          "internalType": "address",
          "name": "pool",
          "type": "address"
        },
        {
          "internalType": "address",
          "name": "trader",
          "type": "address"
        },
        {
          "internalType": "bool",
          "name": "positionIsToken0",
          "type": "bool"
        },
        {
          "internalType": "bool",
          "name": "isAdd",
          "type": "bool"
        }
      ],
      "name": "getOrderId",
      "outputs": [
        {
          "internalType": "bytes32",
          "name": "",
          "type": "bytes32"
        }
      ],
      "stateMutability": "pure",
      "type": "function"
    },
    {
      "inputs": [
        {
          "internalType": "address",
          "name": "pool",
          "type": "address"
        },
        {
          "internalType": "address",
          "name": "trader",
          "type": "address"
        },
        {
          "internalType": "bool",
          "name": "positionIsToken0",
          "type": "bool"
        }
      ],
      "name": "getPosition",
      "outputs": [
        {
          "components": [
            {
              "components": [
                {
                  "internalType": "address",
                  "name": "pool",
                  "type": "address"
                },
                {
                  "internalType": "bool",
                  "name": "isToken0",
                  "type": "bool"
                },
                {
                  "internalType": "uint256",
                  "name": "totalDebtOutput",
                  "type": "uint256"
                },
                {
                  "internalType": "uint256",
                  "name": "totalDebtInput",
                  "type": "uint256"
                },
                {
                  "internalType": "uint256",
                  "name": "recentPremium",
                  "type": "uint256"
                },
                {
                  "internalType": "uint32",
                  "name": "lastPremiumPaymentTime",
                  "type": "uint32"
                },
                {
                  "internalType": "uint32",
                  "name": "openTime",
                  "type": "uint32"
                },
                {
                  "internalType": "uint32",
                  "name": "repayTime",
                  "type": "uint32"
                },
                {
                  "components": [
                    {
                      "internalType": "int24",
                      "name": "tick",
                      "type": "int24"
                    },
                    {
                      "internalType": "uint128",
                      "name": "liquidity",
                      "type": "uint128"
                    },
                    {
                      "internalType": "uint256",
                      "name": "premium",
                      "type": "uint256"
                    },
                    {
                      "internalType": "uint256",
                      "name": "feeGrowthInside0LastX128",
                      "type": "uint256"
                    },
                    {
                      "internalType": "uint256",
                      "name": "feeGrowthInside1LastX128",
                      "type": "uint256"
                    },
                    {
                      "internalType": "uint256",
                      "name": "lastGrowth",
                      "type": "uint256"
                    }
                  ],
                  "internalType": "struct LiquidityLoan[]",
                  "name": "borrowInfo",
                  "type": "tuple[]"
                }
              ],
              "internalType": "struct Position",
              "name": "base",
              "type": "tuple"
            },
            {
              "internalType": "uint256",
              "name": "totalPosition",
              "type": "uint256"
            },
            {
              "internalType": "uint256",
              "name": "margin",
              "type": "uint256"
            }
          ],
          "internalType": "struct MarginPosition",
          "name": "",
          "type": "tuple"
        }
      ],
      "stateMutability": "view",
      "type": "function"
    },
    {
      "inputs": [
        {
          "internalType": "address",
          "name": "pool",
          "type": "address"
        },
        {
          "internalType": "address",
          "name": "trader",
          "type": "address"
        },
        {
          "internalType": "bool",
          "name": "positionIsToken0",
          "type": "bool"
        }
      ],
      "name": "getPositionId",
      "outputs": [
        {
          "internalType": "PositionId",
          "name": "",
          "type": "bytes32"
        }
      ],
      "stateMutability": "pure",
      "type": "function"
    },
    {
      "inputs": [
        {
          "components": [
            {
              "internalType": "address",
              "name": "token0",
              "type": "address"
            },
            {
              "internalType": "address",
              "name": "token1",
              "type": "address"
            },
            {
              "internalType": "uint24",
              "name": "fee",
              "type": "uint24"
            }
          ],
          "internalType": "struct PoolKey",
          "name": "key",
          "type": "tuple"
        },
        {
          "internalType": "address",
          "name": "borrower",
          "type": "address"
        },
        {
          "internalType": "bool",
          "name": "borrowedToken1",
          "type": "bool"
        }
      ],
      "name": "maxWithdrawablePremium",
      "outputs": [
        {
          "internalType": "uint256",
          "name": "maxWithdrawable",
          "type": "uint256"
        }
      ],
      "stateMutability": "view",
      "type": "function"
    },
    {
      "inputs": [
        {
          "internalType": "bytes[]",
          "name": "data",
          "type": "bytes[]"
        }
      ],
      "name": "multicall",
      "outputs": [
        {
          "internalType": "bytes[]",
          "name": "results",
          "type": "bytes[]"
        }
      ],
      "stateMutability": "nonpayable",
      "type": "function"
    },
    {
      "inputs": [
        {
          "internalType": "bytes32",
          "name": "",
          "type": "bytes32"
        }
      ],
      "name": "orders",
      "outputs": [
        {
          "components": [
            {
              "internalType": "address",
              "name": "token0",
              "type": "address"
            },
            {
              "internalType": "address",
              "name": "token1",
              "type": "address"
            },
            {
              "internalType": "uint24",
              "name": "fee",
              "type": "uint24"
            }
          ],
          "internalType": "struct PoolKey",
          "name": "key",
          "type": "tuple"
        },
        {
          "internalType": "bool",
          "name": "positionIsToken0",
          "type": "bool"
        },
        {
          "internalType": "uint32",
          "name": "auctionDeadline",
          "type": "uint32"
        },
        {
          "internalType": "uint32",
          "name": "auctionStartTime",
          "type": "uint32"
        },
        {
          "internalType": "uint256",
          "name": "startOutput",
          "type": "uint256"
        },
        {
          "internalType": "uint256",
          "name": "minOutput",
          "type": "uint256"
        },
        {
          "internalType": "uint256",
          "name": "inputAmount",
          "type": "uint256"
        },
        {
          "internalType": "uint256",
          "name": "decayRate",
          "type": "uint256"
        },
        {
          "internalType": "uint256",
          "name": "margin",
          "type": "uint256"
        }
      ],
      "stateMutability": "view",
      "type": "function"
    },
    {
      "inputs": [
        {
          "components": [
            {
              "internalType": "address",
              "name": "token0",
              "type": "address"
            },
            {
              "internalType": "address",
              "name": "token1",
              "type": "address"
            },
            {
              "internalType": "uint24",
              "name": "fee",
              "type": "uint24"
            }
          ],
          "internalType": "struct PoolKey",
          "name": "key",
          "type": "tuple"
        },
        {
          "internalType": "bool",
          "name": "payToken1",
          "type": "bool"
        },
        {
          "internalType": "uint256",
          "name": "depositAmount",
          "type": "uint256"
        }
      ],
      "name": "payPremium",
      "outputs": [
        {
          "internalType": "uint256",
          "name": "premiumOwed",
          "type": "uint256"
        }
      ],
      "stateMutability": "nonpayable",
      "type": "function"
    },
    {
      "inputs": [
        {
          "internalType": "PositionId",
          "name": "",
          "type": "bytes32"
        }
      ],
      "name": "positions",
      "outputs": [
        {
          "components": [
            {
              "internalType": "address",
              "name": "pool",
              "type": "address"
            },
            {
              "internalType": "bool",
              "name": "isToken0",
              "type": "bool"
            },
            {
              "internalType": "uint256",
              "name": "totalDebtOutput",
              "type": "uint256"
            },
            {
              "internalType": "uint256",
              "name": "totalDebtInput",
              "type": "uint256"
            },
            {
              "internalType": "uint256",
              "name": "recentPremium",
              "type": "uint256"
            },
            {
              "internalType": "uint32",
              "name": "lastPremiumPaymentTime",
              "type": "uint32"
            },
            {
              "internalType": "uint32",
              "name": "openTime",
              "type": "uint32"
            },
            {
              "internalType": "uint32",
              "name": "repayTime",
              "type": "uint32"
            },
            {
              "components": [
                {
                  "internalType": "int24",
                  "name": "tick",
                  "type": "int24"
                },
                {
                  "internalType": "uint128",
                  "name": "liquidity",
                  "type": "uint128"
                },
                {
                  "internalType": "uint256",
                  "name": "premium",
                  "type": "uint256"
                },
                {
                  "internalType": "uint256",
                  "name": "feeGrowthInside0LastX128",
                  "type": "uint256"
                },
                {
                  "internalType": "uint256",
                  "name": "feeGrowthInside1LastX128",
                  "type": "uint256"
                },
                {
                  "internalType": "uint256",
                  "name": "lastGrowth",
                  "type": "uint256"
                }
              ],
              "internalType": "struct LiquidityLoan[]",
              "name": "borrowInfo",
              "type": "tuple[]"
            }
          ],
          "internalType": "struct Position",
          "name": "base",
          "type": "tuple"
        },
        {
          "internalType": "uint256",
          "name": "totalPosition",
          "type": "uint256"
        },
        {
          "internalType": "uint256",
          "name": "margin",
          "type": "uint256"
        }
      ],
      "stateMutability": "view",
      "type": "function"
    },
    {
      "inputs": [
        {
          "components": [
            {
              "internalType": "address",
              "name": "token0",
              "type": "address"
            },
            {
              "internalType": "address",
              "name": "token1",
              "type": "address"
            },
            {
              "internalType": "uint24",
              "name": "fee",
              "type": "uint24"
            }
          ],
          "internalType": "struct PoolKey",
          "name": "key",
          "type": "tuple"
        },
        {
          "components": [
            {
              "internalType": "bool",
              "name": "positionIsToken0",
              "type": "bool"
            },
            {
              "internalType": "uint256",
              "name": "reducePercentage",
              "type": "uint256"
            },
            {
              "internalType": "uint256",
              "name": "minOutput",
              "type": "uint256"
            },
            {
              "internalType": "address",
              "name": "trader",
              "type": "address"
            },
            {
              "internalType": "uint256",
              "name": "executionOption",
              "type": "uint256"
            },
            {
              "internalType": "bytes",
              "name": "executionData",
              "type": "bytes"
            },
            {
              "internalType": "int24",
              "name": "slippedTickMin",
              "type": "int24"
            },
            {
              "internalType": "int24",
              "name": "slippedTickMax",
              "type": "int24"
            },
            {
              "internalType": "uint256",
              "name": "reduceAmount",
              "type": "uint256"
            }
          ],
          "internalType": "struct ReduceParam",
          "name": "param",
          "type": "tuple"
        }
      ],
      "name": "reducePosition",
      "outputs": [
        {
          "components": [
            {
              "internalType": "int256",
              "name": "amount0",
              "type": "int256"
            },
            {
              "internalType": "int256",
              "name": "amount1",
              "type": "int256"
            },
            {
              "internalType": "int256",
              "name": "PnL",
              "type": "int256"
            },
            {
              "internalType": "uint256",
              "name": "returnedAmount",
              "type": "uint256"
            },
            {
              "internalType": "uint256",
              "name": "repaidDebt0",
              "type": "uint256"
            },
            {
              "internalType": "uint256",
              "name": "repaidDebt1",
              "type": "uint256"
            },
            {
              "internalType": "uint256",
              "name": "premium",
              "type": "uint256"
            },
            {
              "internalType": "uint256",
              "name": "profitFee",
              "type": "uint256"
            }
          ],
          "internalType": "struct ReduceReturn",
          "name": "",
          "type": "tuple"
        }
      ],
      "stateMutability": "nonpayable",
      "type": "function"
    },
    {
      "inputs": [
        {
          "internalType": "bool",
          "name": "addPaused",
          "type": "bool"
        }
      ],
      "name": "setAddPaused",
      "outputs": [],
      "stateMutability": "nonpayable",
      "type": "function"
    },
    {
      "inputs": [
        {
          "internalType": "bool",
          "name": "forceClosePaused",
          "type": "bool"
        }
      ],
      "name": "setForceClosePaused",
      "outputs": [],
      "stateMutability": "nonpayable",
      "type": "function"
    },
    {
      "inputs": [
        {
          "internalType": "address",
          "name": "newOwner",
          "type": "address"
        }
      ],
      "name": "setOwner",
      "outputs": [],
      "stateMutability": "nonpayable",
      "type": "function"
    },
    {
      "inputs": [
        {
          "internalType": "bool",
          "name": "reducePaused",
          "type": "bool"
        }
      ],
      "name": "setReducePaused",
      "outputs": [],
      "stateMutability": "nonpayable",
      "type": "function"
    },
    {
      "inputs": [
        {
          "internalType": "address",
          "name": "pool",
          "type": "address"
        },
        {
          "internalType": "bool",
          "name": "positionIsToken0",
          "type": "bool"
        },
        {
          "internalType": "bool",
          "name": "isAdd",
          "type": "bool"
        },
        {
          "internalType": "uint256",
          "name": "deadline",
          "type": "uint256"
        },
        {
          "internalType": "uint256",
          "name": "startOutput",
          "type": "uint256"
        },
        {
          "internalType": "uint256",
          "name": "minOutput",
          "type": "uint256"
        },
        {
          "internalType": "uint256",
          "name": "inputAmount",
          "type": "uint256"
        },
        {
          "internalType": "uint256",
          "name": "decayRate",
          "type": "uint256"
        },
        {
          "internalType": "uint256",
          "name": "margin",
          "type": "uint256"
        }
      ],
      "name": "submitOrder",
      "outputs": [],
      "stateMutability": "nonpayable",
      "type": "function"
    },
    {
      "inputs": [
        {
          "components": [
            {
              "internalType": "address",
              "name": "token0",
              "type": "address"
            },
            {
              "internalType": "address",
              "name": "token1",
              "type": "address"
            },
            {
              "internalType": "uint24",
              "name": "fee",
              "type": "uint24"
            }
          ],
          "internalType": "struct PoolKey",
          "name": "key",
          "type": "tuple"
        },
        {
          "internalType": "bool",
          "name": "borrowToken1",
          "type": "bool"
        },
        {
          "internalType": "uint256",
          "name": "amount",
          "type": "uint256"
        }
      ],
      "name": "withdrawPremium",
      "outputs": [],
      "stateMutability": "nonpayable",
      "type": "function"
    }
  ],
  "bytecode": {
    "object": "0x608060405260016000553480156200001657600080fd5b506040516200603d3803806200603d8339810160408190526200003991620000a6565b600180546001600160a01b03199081166001600160a01b039586161790915560028054821693851693909317909255600480548316919093161790915560038054339216919091179055620000f0565b80516001600160a01b0381168114620000a157600080fd5b919050565b600080600060608486031215620000bc57600080fd5b620000c78462000089565b9250620000d76020850162000089565b9150620000e76040850162000089565b90509250925092565b615f3d80620001006000396000f3fe608060405234801561001057600080fd5b50600436106101c45760003560e01c806389a1c073116100f9578063d42a397c11610097578063dc6ab02f11610071578063dc6ab02f146104cc578063de074f10146104f7578063f2edf95a1461050a578063f6f0ea891461051d57600080fd5b8063d42a397c1461047e578063d93a904714610491578063dbe5f6cb146104b957600080fd5b80639c3f1e90116100d35780639c3f1e9014610384578063ab69f8fa14610438578063ac9650d81461044b578063bfd4c2a51461046b57600080fd5b806389a1c0731461032f5780638be8efa2146103425780638c1395f81461036457600080fd5b806328ec723211610166578063514ea4bf11610140578063514ea4bf146102ba5780635277a324146102dc5780635d4936ff146102ef578063657b5a4b1461030f57600080fd5b806328ec7232146102735780632be197cf146102865780633eb4adab146102a757600080fd5b80631fda89ef116101a25780631fda89ef1461021a57806320a672a21461022d578063228e062a1461024057806327bd6f831461025357600080fd5b8063025df9e4146101c957806310ef1759146101de57806313af403514610207575b600080fd5b6101dc6101d7366004613b9f565b610530565b005b6101f26101ec366004613f4c565b50600090565b60405190151581526020015b60405180910390f35b6101dc610215366004613f80565b610693565b6101dc610228366004613f9d565b6106e8565b6101f261023b366004613fba565b610730565b6101dc61024e36600461400b565b6107b5565b610266610261366004614104565b610960565b6040516101fe9190614242565b6101dc610281366004614251565b6113de565b610299610294366004614302565b6114cb565b6040519081526020016101fe565b6101dc6102b5366004614341565b6115cb565b6102cd6102c836600461437a565b6117f5565b6040516101fe939291906144c1565b6102996102ea3660046144e6565b611930565b6102996102fd36600461437a565b60056020526000908152604090205481565b61032261031d36600461459d565b611f57565b6040516101fe9190614607565b6101dc61033d366004613f9d565b6120d1565b61035561035036600461461a565b612119565b6040516101fe9392919061476a565b61037761037236600461459d565b612ae6565b6040516101fe919061477d565b61042361039236600461437a565b600660208181526000928352604092839020835160608101855281546001600160a01b039081168252600183015490811693820193909352600160a01b90920462ffffff1693820193909352600283015460038401546004850154600586015494860154600790960154939560ff841695610100850463ffffffff9081169665010000000000909604169490919089565b6040516101fe999897969594939291906147bc565b6101f261044636600461480f565b612c5b565b61045e610459366004614897565b612d14565b6040516101fe919061495b565b6102996104793660046149bd565b612e09565b6101dc61048c366004613f9d565b612e67565b6104a461049f36600461459d565b612eaf565b60405163ffffffff90911681526020016101fe565b6101dc6104c7366004614a19565b612ee2565b6002546104df906001600160a01b031681565b6040516001600160a01b0390911681526020016101fe565b610299610505366004613b9f565b612f67565b6101f261051836600461459d565b613181565b61029961052b36600461459d565b6131af565b600154604051639525092360e01b81526000916001600160a01b031690639525092390610561908790600401614ab0565b6101c060405180830381865afa15801561057f573d6000803e3d6000fd5b505050506040513d601f19601f820116820180604052508101906105a39190614ba2565b5050905060006105b48233866131af565b9050826105d06105c936889003880188614bec565b33876114cb565b10156105ef57604051632b869ad760e21b815260040160405180910390fd5b6000818152600560205260408120805485929061060d908490614c1e565b9091555061064490508461062d576106286020870187613f80565b61063d565b61063d6040870160208801613f80565b3385613200565b604080518515158152602081018590526001600160a01b0384169133917ffb7067681775f19340bbd7db267bcc1217b3d27bff5bfee90759622e8e028977910160405180910390a35050505050565b6003546001600160a01b031633146106c65760405162461bcd60e51b81526004016106bd90614c31565b60405180910390fd5b600380546001600160a01b0319166001600160a01b0392909216919091179055565b6003546001600160a01b031633146107125760405162461bcd60e51b81526004016106bd90614c31565b60048054911515600160a01b0260ff60a01b19909216919091179055565b600061075682670de0b6b3a764000061074a888888612ae6565b5160600151919061327e565b600560006107658888886131af565b81526020019081526020016000205410156107ad5760405162461bcd60e51b8152602060048201526008602482015267217072656d69756d60c01b60448201526064016106bd565b949350505050565b6000546001146107d75760405162461bcd60e51b81526004016106bd90614c51565b60026000558661082857826107ed8a338b612ae6565b6020015110156108285760405162461bcd60e51b81526004016106bd9060208082526004908201526321706f7360e01b604082015260600190565b600660006108388b338c8c612e09565b81526020810191909152604090810160002090516319b5cb0360e01b81526004810191909152881515602482015260448101879052606481018690526084810185905260a4810184905260c4810183905260e4810182905273__$506f8190e26c635088963c8a0018e71746$__906319b5cb03906101040160006040518083038186803b1580156108c857600080fd5b505af41580156108dc573d6000803e3d6000fd5b5050604080518a15158152602081018a9052908101889052606081018790526080810186905260a0810185905260c081018490523392508a151591506001600160a01b038c16907f4c34e64fbcdd268148a9e26a3b2c922bd24162485ce0b2ba28e4ce57d9a2c33c9060e00160405180910390a45050600160005550505050505050565b6109686138d5565b60005460011461098a5760405162461bcd60e51b81526004016106bd90614c51565b6002600055600454600160a81b900460ff16156109b95760405162461bcd60e51b81526004016106bd90614c75565b6109c161391a565b6109c96138d5565b600154604051639525092360e01b81526001600160a01b03909116906395250923906109f9908890600401614ab0565b6101c060405180830381865afa158015610a17573d6000803e3d6000fd5b505050506040513d601f19601f82011682018060405250810190610a3b9190614ba2565b61016085015260020b60208401526001600160a01b0316808352606085015185516000926007928492610a6f9291906131af565b815260200190815260200160002090508060060154600003610aa45760405163081f715760e11b815260040160405180910390fd5b825160608601518651610aba9291906000612e09565b6101a08401819052604051631759061d60e01b815273__$506f8190e26c635088963c8a0018e71746$__91631759061d91610afe916006918a918791600401614da8565b606060405180830381865af4158015610b1b573d6000803e3d6000fd5b505050506040513d601f19601f82011682018060405250810190610b3f9190614e93565b6020880152610100808601919091526040808601929092528151908101909152606090610c769080610b76368b90038b018b614bec565b815260200184600001600501805480602002602001604051908101604052809291908181526020016000905b82821015610c195760008481526020908190206040805160c081018252600586029092018054600281810b855263010000009091046001600160801b031684860152600180830154938501939093528101546060840152600381015460808401526004015460a08301529083529092019101610ba2565b50505050815260200186600001516001600160a01b0316815260200188606001516001600160a01b031681526020018860000151151581526020018661016001518152602001866020015160020b8152602001600081525061335c565b60c08501919091526020870151909150670de0b6b3a764000014610db5576005820180546040805160208084028201810190925282815292919060009084015b82821015610d2d5760008481526020908190206040805160c081018252600586029092018054600281810b855263010000009091046001600160801b031684860152600180830154938501939093528101546060840152600381015460808401526004015460a08301529083529092019101610cb6565b50505050602087015160405163069b8a8b60e31b815273__$d23a8dd93b7205fa6b646ffed38c165d68$__926334dc545892610d6b92600401614ec1565b600060405180830381865af4158015610d88573d6000803e3d6000fd5b505050506040513d6000823e601f3d908101601f19168201604052610db09190810190614f9a565b610e53565b6005820180546040805160208084028201810190925282815292919060009084015b82821015610e4e5760008481526020908190206040805160c081018252600586029092018054600281810b855263010000009091046001600160801b031684860152600180830154938501939093528101546060840152600381015460808401526004015460a08301529083529092019101610dd7565b505050505b610180850152600782015461014085015260068201546101008501511015610ef4576101008401516020870151610180860151604051631b74fb1560e31b815273__$506f8190e26c635088963c8a0018e71746$__9363dba7d8a893610ebf9388938890600401614fce565b60006040518083038186803b158015610ed757600080fd5b505af4158015610eeb573d6000803e3d6000fd5b50505050610f78565b835160608701518751600792600092610f0c926131af565b81526020810191909152604001600090812080546001600160a81b03191681556001810182905560028101829055600381018290556004810180546001600160601b0319169055908181610f636005830182613994565b50506006820160009055600782016000905550505b83600001516001600160a01b0316633850c7bd6040518163ffffffff1660e01b815260040160e060405180830381865afa158015610fba573d6000803e3d6000fd5b505050506040513d601f19601f82011682018060405250810190610fde919061501c565b50505050600291820b608088018190526001600160a01b0390931660608801525060c0880151900b138061101f5750836080015160020b8660e0015160020b125b1561103d57604051631e6012f360e21b815260040160405180910390fd5b61018084015186516080860151602087015160405163374b7d3d60e11b815260009473__$d23a8dd93b7205fa6b646ffed38c165d68$__94636e96fa7a9461108d949293919290916004016150b4565b602060405180830381865af41580156110aa573d6000803e3d6000fd5b505050506040513d601f19601f820116820180604052508101906110ce91906150e7565b9050806001036111f9576002546001546040516337aaefd560e11b815273__$506f8190e26c635088963c8a0018e71746$__92636f55dfaa92611129928c928a928f928d926001600160a01b03908116921690600401615188565b600060405180830381865af4158015611146573d6000803e3d6000fd5b505050506040513d6000823e601f3d908101601f1916820160405261116e9190810190615393565b610120810151909650909450156111f45786516111d49061119b5761119660208a018a613f80565b6111ab565b6111ab60408a0160208b01613f80565b60035461012088015160e08801516001600160a01b03909216916111cf9190614c1e565b613200565b6111f46111e6368a90038a018a614bec565b885161012088015185613441565b611347565b806002036112b15773__$506f8190e26c635088963c8a0018e71746$__63c132482686610180015189878c8a6101400151600160009054906101000a90046001600160a01b03168c61010001516040518863ffffffff1660e01b815260040161126897969594939291906154dc565b61010060405180830381865af4158015611286573d6000803e3d6000fd5b505050506040513d601f19601f820116820180604052508101906112aa919061554c565b9350611347565b600254600154604051630e4940a960e31b815273__$506f8190e26c635088963c8a0018e71746$__9263724a054892611302928c928a928f928d926001600160a01b03908116921690600401615188565b61010060405180830381865af4158015611320573d6000803e3d6000fd5b505050506040513d601f19601f82011682018060405250810190611344919061554c565b93505b6060870151875186516001600160a01b039283169291151591167f3aacf7844e8b88dda49c434b9ce8b132ed7fc860559882f088ff0c39f8fe988733841461138f5733611392565b60005b60208c81015160c08b015160e08c0151604080516001600160a01b0396909616865293850192909252838301526060830152519081900360800190a45050600160005550949350505050565b6000546001146114005760405162461bcd60e51b81526004016106bd90614c51565b6002600090815560069061141685338686612e09565b81526020808201929092526040908101600090812080546001600160a01b03191681556001810180546001600160b81b031916905560028101805468ffffffffffffffffff1916905560038101829055600481018290556005810182905560068101829055600701555182151581523391841515916001600160a01b038716917f761fde4703b3eb1ca92675208248e655ce58d6778c95e6e742ab9819a7f3d93d910160405180910390a45050600160005550565b600154604051639525092360e01b8152600091829182916001600160a01b031690639525092390611500908990600401615569565b6101c060405180830381865afa15801561151e573d6000803e3d6000fd5b505050506040513d601f19601f820116820180604052508101906115429190614ba2565b92505091506000611554838787612ae6565b9050600060056000611567868a8a6131af565b815260200190815260200160002054905060006115a38460a00151670de0b6b3a764000085600001516060015161327e9092919063ffffffff16565b9050808210156115b45760006115be565b6115be8183614c1e565b9998505050505050505050565b6001546001600160a01b0316331461160d5760405162461bcd60e51b8152602060048201526005602482015264085c1bdbdb60da1b60448201526064016106bd565b60015460405163095ea7b360e01b81526001600160a01b03918216600482015260001960248201529083169063095ea7b3906044016020604051808303816000875af1158015611661573d6000803e3d6000fd5b505050506040513d601f19601f820116820180604052508101906116859190615577565b5060015460405163095ea7b360e01b81526001600160a01b03918216600482015260001960248201529082169063095ea7b3906044016020604051808303816000875af11580156116da573d6000803e3d6000fd5b505050506040513d601f19601f820116820180604052508101906116fe9190615577565b5060025460405163095ea7b360e01b81526001600160a01b03918216600482015260001960248201529083169063095ea7b3906044016020604051808303816000875af1158015611753573d6000803e3d6000fd5b505050506040513d601f19601f820116820180604052508101906117779190615577565b5060025460405163095ea7b360e01b81526001600160a01b03918216600482015260001960248201529082169063095ea7b3906044016020604051808303816000875af11580156117cc573d6000803e3d6000fd5b505050506040513d601f19601f820116820180604052508101906117f09190615577565b505050565b600760209081526000918252604080832081516101208101835281546001600160a01b0381168252600160a01b900460ff161515818501526001820154818401526002820154606082015260038201546080820152600482015463ffffffff80821660a08401526401000000008204811660c0840152600160401b9091041660e08201526005820180548451818702810187019095528085529295919486946101008701949093909184015b828210156119185760008481526020908190206040805160c081018252600586029092018054600281810b855263010000009091046001600160801b031684860152600180830154938501939093528101546060840152600381015460808401526004015460a083015290835290920191016118a1565b50505091525050600682015460079092015490919083565b600080546001146119535760405162461bcd60e51b81526004016106bd90614c51565b6002600055600454600160b01b900460ff16156119825760405162461bcd60e51b81526004016106bd90614c75565b61198a6139b8565b600154604051639525092360e01b81526001600160a01b03909116906395250923906119ba908790600401614ab0565b6101c060405180830381865afa1580156119d8573d6000803e3d6000fd5b505050506040513d601f19601f820116820180604052508101906119fc9190614ba2565b604084015260020b6020808401919091526001600160a01b03909116808352845191850151611a2b9290612ae6565b60608201819052815184516020860151611a4a93889390929091612c5b565b611a67576040516303144f8160e21b815260040160405180910390fd5b80600001516001600160a01b0316633850c7bd6040518163ffffffff1660e01b815260040160e060405180830381865afa158015611aa9573d6000803e3d6000fd5b505050506040513d601f19601f82011682018060405250810190611acd919061501c565b50505050600291820b60a085018190526001600160a01b039093166080850152506060850151900b1380611b0e57508060a0015160020b836080015160020b125b15611b2c57604051631e6012f360e21b815260040160405180910390fd5b606081015151610100015160208085015160a08401519184015160405163374b7d3d60e11b815260009473__$d23a8dd93b7205fa6b646ffed38c165d68$__94636e96fa7a94611b839492939092906004016150b4565b602060405180830381865af4158015611ba0573d6000803e3d6000fd5b505050506040513d601f19601f82011682018060405250810190611bc491906150e7565b905080600103611c72576060820151602080820151604080880151928801519351610100015160025460015492516325d3777560e01b815273__$506f8190e26c635088963c8a0018e71746$__966325d3777596611c3d968e9690959194929391926001600160a01b0390811692911690600401615594565b60006040518083038186803b158015611c5557600080fd5b505af4158015611c69573d6000803e3d6000fd5b50505050611dbc565b80600203611cd8576060820151805161010001516020918201519186015160015460405163ad6c502560e01b815273__$506f8190e26c635088963c8a0018e71746$__9463ad6c502594611c3d948c94919390916001600160a01b0316906004016155f2565b73__$506f8190e26c635088963c8a0018e71746$__6382e82447868460600151600001516101000151856060015160200151886020015187602001518860a0015189608001518c60400151600260009054906101000a90046001600160a01b0316600160009054906101000a90046001600160a01b0316600360009054906101000a90046001600160a01b03166040518c63ffffffff1660e01b8152600401611d8b9b9a99989796959493929190615638565b60006040518083038186803b158015611da357600080fd5b505af4158015611db7573d6000803e3d6000fd5b505050505b611e4760405180610100016040528087803603810190611ddc9190614bec565b81526020018460600151600001516101000151815260200184600001516001600160a01b0316815260200186600001516001600160a01b0316815260200186602001511515815260200184604001518152602001846020015160020b815260200160008152506134a5565b925060076000611e648460000151876000015188602001516131af565b81526020810191909152604001600090812080546001600160a81b03191681556001810182905560028101829055600381018290556004810180546001600160601b0319169055908181611ebb6005830182613994565b505060068201600090556007820160009055505083600001516001600160a01b03168460200151151583600001516001600160a01b03167f93eab6e8520a1442c72b300820e9791d361ae2fb3975f78306dd8c0f2a7e4d35856060015160200151886040015186604051611f42939291909283526020830191909152604082015260600190565b60405180910390a45050600160005592915050565b6060600060076000611f6a8787876131af565b81526020808201929092526040908101600090812082516101808101845281546001600160a01b03811660608301908152600160a01b90910460ff1615156080830152600183015460a0830152600283015460c0830152600383015460e0830152600483015463ffffffff80821661010085015264010000000082048116610120850152600160401b9091041661014083015260058301805486518189028101890190975280875292969395879592948794610160880194929392909184015b828210156120a15760008481526020908190206040805160c081018252600586029092018054600281810b855263010000009091046001600160801b031684860152600180830154938501939093528101546060840152600381015460808401526004015460a0830152908352909201910161202a565b505050915250508152600682015460208201526007909101546040909101525161010001519150505b9392505050565b6003546001600160a01b031633146120fb5760405162461bcd60e51b81526004016106bd90614c31565b60048054911515600160a81b0260ff60a81b19909216919091179055565b6121216139f8565b6000806000546001146121465760405162461bcd60e51b81526004016106bd90614c51565b6002600055600454600160a01b900460ff16156121755760405162461bcd60e51b81526004016106bd90614c75565b61217d613a5f565b600154604051639525092360e01b81526001600160a01b03909116906395250923906121ad908a90600401614ab0565b6101c060405180830381865afa1580156121cb573d6000803e3d6000fd5b505050506040513d601f19601f820116820180604052508101906121ef9190614ba2565b604084015260020b60208301526001600160a01b031680825260c0870151608088015160009260079284926122259291906131af565b81526020019081526020016000209050600673__$506f8190e26c635088963c8a0018e71746$__63d5d54e8a909161226c85600001518b60c001518c608001516001612e09565b8a6040518463ffffffff1660e01b815260040161228b93929190615767565b600060405180830381865af41580156122a8573d6000803e3d6000fd5b505050506040513d6000823e601f3d908101601f191682016040526122d09190810190615894565b60608401919091526080810151909750612318906122fa576122f560208a018a613f80565b61230a565b61230a60408a0160208b01613f80565b60c08901518951309061354e565b600154600354604051632da526f160e01b815273__$506f8190e26c635088963c8a0018e71746$__92632da526f192612369928d928d928d926001600160a01b0392831692909116906004016158da565b600060405180830381865af4158015612386573d6000803e3d6000fd5b505050506040513d6000823e601f3d908101601f191682016040526123ae9190810190615932565b60808601929092528451600154602087015160408089015151905163cf2778e960e01b8152949d50949b5094975073__$eacbb88ed4bd2af84aa4d43bcf675bcf7e$__9463cf2778e994612413946001600160a01b03909316928d91906004016159a8565b600060405180830381865af4158015612430573d6000803e3d6000fd5b505050506040513d6000823e601f3d908101601f191682016040526124589190810190614f9a565b608088015160208401516040516341533fe760e01b815292985073__$d23a8dd93b7205fa6b646ffed38c165d68$__926341533fe79261249c928b92600401615a24565b602060405180830381865af41580156124b9573d6000803e3d6000fd5b505050506040513d601f19601f820116820180604052508101906124dd91906150e7565b60e08301526125046124f4368a90038a018a614bec565b8860800151846080015189613441565b6005810154156126b657606061262f6040518061010001604052808b8036038101906125309190614bec565b815260200184600001600501805480602002602001604051908101604052809291908181526020016000905b828210156125d35760008481526020908190206040805160c081018252600586029092018054600281810b855263010000009091046001600160801b031684860152600180830154938501939093528101546060840152600381015460808401526004015460a0830152908352909201910161255c565b50505050815260200185600001516001600160a01b031681526020018a60c001516001600160a01b031681526020018a608001511515815260200185604001518152602001856020015160020b8152602001600081525061335c565b604051630b7cb7c160e01b8152919650915073__$d23a8dd93b7205fa6b646ffed38c165d68$__90630b7cb7c19061266d908a908590600401615a51565b600060405180830381865af415801561268a573d6000803e3d6000fd5b505050506040513d6000823e601f3d908101601f191682016040526126b29190810190614f9a565b9650505b6126e9826040015160a00151670de0b6b3a764000083600001600201548a606001516126e29190615a76565b919061327e565b6005600061270485600001518b60c001518c608001516131af565b8152602001908152602001600020541015612732576040516357312bc960e01b815260040160405180910390fd5b73__$506f8190e26c635088963c8a0018e71746$__6386c6f9bb888a8560e001518660200151600260009054906101000a90046001600160a01b0316886000015189606001516040518863ffffffff1660e01b815260040161279a9796959493929190615a89565b6040805180830381865af41580156127b6573d6000803e3d6000fd5b505050506040513d601f19601f820116820180604052508101906127da9190615ae4565b60c084015260a083015260e0820151608088015173__$506f8190e26c635088963c8a0018e71746$__916341a95ff89184918b918b9190612828578760c0015161282390615b08565b612836565b8760a0015161283690615b08565b6040518663ffffffff1660e01b8152600401612856959493929190615b24565b60006040518083038186803b15801561286e57600080fd5b505af4158015612882573d6000803e3d6000fd5b505050506128d260405180604001604052806006815260200165616464696e6760d01b81525088608001516128c4578360c001516128bf90615b08565b6135d8565b8360a001516128bf90615b08565b604080516101808101825282546001600160a01b03811660608301908152600160a01b90910460ff1615156080830152600184015460a0830152600284015460c0830152600384015460e0830152600484015463ffffffff80821661010085015264010000000082048116610120850152600160401b90910416610140830152600584018054845160208083028201810190965281815293948694869493869361016087019360009084015b828210156129f55760008481526020908190206040805160c081018252600586029092018054600281810b855263010000009091046001600160801b031684860152600180830154938501939093528101546060840152600381015460808401526004015460a0830152908352909201910161297e565b5050509152505081526006820154602082015260079091015460409091015260c0880151608089015184519297506001600160a01b039182169290151591167f9162a397ba17d1e4988a59388b9744cf4bc003cf58486fda9f8c7c91a7af3fca338414612a625733612a65565b60005b8b60800151612a81578660c00151612a7c90615b08565b612a8f565b8660a00151612a8f90615b08565b8c516060808f0151604080516001600160a01b0390961686526020860194909452928401919091528201526080810189905260a0810188905260c00160405180910390a45050600160008190555093509350939050565b612aee6139f8565b60076000612afd8686866131af565b81526020808201929092526040908101600090812082516101808101845281546001600160a01b03811660608301908152600160a01b90910460ff1615156080830152600183015460a0830152600283015460c0830152600383015460e0830152600483015463ffffffff80821661010085015264010000000082048116610120850152600160401b9091041661014083015260058301805486518189028101890190975280875292969395879592948794610160880194929392909184015b82821015612c345760008481526020908190206040805160c081018252600586029092018054600281810b855263010000009091046001600160801b031684860152600180830154938501939093528101546060840152600381015460808401526004015460a08301529083529092019101612bbd565b50505091525050815260068201546020820152600790910154604090910152949350505050565b60015460009073__$506f8190e26c635088963c8a0018e71746$__9063920f2f40908790899086906001600160a01b0316600587612c9a8c8c866131af565b8152602001908152602001600020546040518663ffffffff1660e01b8152600401612cc9959493929190615b64565b602060405180830381865af4158015612ce6573d6000803e3d6000fd5b505050506040513d601f19601f82011682018060405250810190612d0a9190615577565b9695505050505050565b6060816001600160401b03811115612d2e57612d2e613bdf565b604051908082528060200260200182016040528015612d6157816020015b6060815260200190600190039081612d4c5790505b50905060005b82811015612e0157612dd130858584818110612d8557612d85615c53565b9050602002810190612d979190615c69565b8080601f01602080910402602001604051908101604052809392919081815260200183838082843760009201919091525061362192505050565b828281518110612de357612de3615c53565b60200260200101819052508080612df990615cb6565b915050612d67565b505b92915050565b6040516001600160601b0319606086811b8216602084015285901b16603482015282151560f890811b6048830152821515901b6049820152600090604a01604051602081830303815290604052805190602001209050949350505050565b6003546001600160a01b03163314612e915760405162461bcd60e51b81526004016106bd90614c31565b60048054911515600160b01b0260ff60b01b19909216919091179055565b600060076000612ec08686866131af565b815260208101919091526040016000206004015463ffffffff16949350505050565b600154604051633518d43560e21b815273__$eacbb88ed4bd2af84aa4d43bcf675bcf7e$__9163d46350d491612f31916005916001600160a01b03909116908990899089908990600401615ccf565b60006040518083038186803b158015612f4957600080fd5b505af4158015612f5d573d6000803e3d6000fd5b5050505050505050565b60008054600114612f8a5760405162461bcd60e51b81526004016106bd90614c51565b60026000908155600154604051639525092360e01b8152829182916001600160a01b0390911690639525092390612fc5908a90600401614ab0565b6101c060405180830381865afa158015612fe3573d6000803e3d6000fd5b505050506040513d601f19601f820116820180604052508101906130079190614ba2565b925092509250613018833388613181565b6130285760009350505050613175565b6000613035843389611f57565b90506130a16040518061010001604052808a8036038101906130579190614bec565b8152602001838152602001866001600160a01b03168152602001336001600160a01b0316815260200189151581526020018481526020018560020b8152602001600081525061335c565b90955090506130b284338984613646565b85600560006130c287338c6131af565b815260200190815260200160002060008282546130df9190615a76565b909155506131179050876130ff576130fa60208a018a613f80565b61310f565b61310f60408a0160208b01613f80565b33308961354e565b6131278433898560a00151610730565b50604080518815158152602081018890526001600160a01b0386169133917f3b362679889b553ed2e7ee099bd77d266648894e6562144e3791e108b0a2596e910160405180910390a3505050505b60016000559392505050565b600080600760006131938787876131af565b8152602001908152602001600020600601541190509392505050565b6040516001600160601b0319606085811b8216602084015284901b16603482015281151560f81b60488201526000906049016040516020818303038152906040528051906020012090509392505050565b600060405163a9059cbb60e01b8152836004820152826024820152602060006044836000895af13d15601f3d11600160005114161716915050806132785760405162461bcd60e51b815260206004820152600f60248201526e1514905394d1915497d19052531151608a1b60448201526064016106bd565b50505050565b60008080600019858709858702925082811083820303915050806000036132b757600084116132ac57600080fd5b5082900490506120ca565b8084116132ef5760405162461bcd60e51b815260206004820152600660248201526536bab62234bb60d11b60448201526064016106bd565b6000848688096000868103871696879004966002600389028118808a02820302808a02820302808a02820302808a02820302808a02820302808a02909103029181900381900460010186841190950394909402919094039290920491909117919091029150509392505050565b600060606000600573__$eacbb88ed4bd2af84aa4d43bcf675bcf7e$__6313c1af43909186613398886040015189606001518a60800151612eaf565b6001546002546040516001600160e01b031960e088901b1681526133cf959493926001600160a01b03908116921690600401615da9565b600060405180830381865af41580156133ec573d6000803e3d6000fd5b505050506040513d6000823e601f3d908101601f191682016040526134149190810190615def565b60208601526040850151606086015160808701519293506134349261376d565b6020909301519293915050565b60015460405163fc6e9cbf60e01b81526001600160a01b039091169063fc6e9cbf90613477908790859088908890600401615e2b565b600060405180830381600087803b15801561349157600080fd5b505af1158015612f5d573d6000803e3d6000fd5b6000806134bf836040015184606001518560800151612eaf565b600154604051630bc847bd60e01b815291925073__$eacbb88ed4bd2af84aa4d43bcf675bcf7e$__91630bc847bd9161350d9160059188916001600160a01b03909116908790600401615e5e565b602060405180830381865af415801561352a573d6000803e3d6000fd5b505050506040513d601f19601f820116820180604052508101906120ca91906150e7565b60006040516323b872dd60e01b81528460048201528360248201528260448201526020600060648360008a5af13d15601f3d11600160005114161716915050806135d15760405162461bcd60e51b81526020600482015260146024820152731514905394d1915497d19493d357d1905253115160621b60448201526064016106bd565b5050505050565b61361d82826040516024016135ee929190615e9e565b60408051601f198184030181529190526020810180516001600160e01b03166309710a9d60e41b1790526137ad565b5050565b60606120ca8383604051806060016040528060278152602001615ee1602791396137ce565b6000600760006136578787876131af565b8152602001908152602001600020905080600001600501600061367a9190613994565b60005b825181101561376557600083828151811061369a5761369a615c53565b6020026020010151602001516001600160801b0316111561375357816000016005018382815181106136ce576136ce615c53565b60209081029190910181015182546001818101855560009485529383902082516005909202018054938301516001600160801b03166301000000026001600160981b031990941662ffffff90921691909117929092178255604081015192820192909255606082015160028201556080820151600382015560a0909101516004909101555b8061375d81615cb6565b91505061367d565b505050505050565b426007600061377d8686866131af565b81526020810191909152604001600020600401805463ffffffff191663ffffffff92909216919091179055505050565b80516a636f6e736f6c652e6c6f67602083016000808483855afa5050505050565b6060600080856001600160a01b0316856040516137eb9190615eb1565b600060405180830381855af49150503d8060008114613826576040519150601f19603f3d011682016040523d82523d6000602084013e61382b565b606091505b5091509150612d0a86838387606083156138a657825160000361389f576001600160a01b0385163b61389f5760405162461bcd60e51b815260206004820152601d60248201527f416464726573733a2063616c6c20746f206e6f6e2d636f6e747261637400000060448201526064016106bd565b50816107ad565b6107ad83838151156138bb5781518083602001fd5b8060405162461bcd60e51b81526004016106bd9190615ecd565b60405180610100016040528060008152602001600081526020016000815260200160008152602001600081526020016000815260200160008152602001600081525090565b604080516101c081018252600080825260208201819052918101829052606081018290526080810182905260a0810182905260c0810182905260e08101829052610100810182905261012081018290526101408101919091526101608101613980613ab2565b815260606020820152600060409091015290565b50805460008255600502906000526020600020908101906139b59190613b2a565b50565b6040805160c081018252600080825260208201529081016139d7613ab2565b81526020016139e46139f8565b815260006020820181905260409091015290565b604080516101808101909152600060608083018281526080840183905260a0840183905260c0840183905260e08401839052610100840183905261012084018390526101408401929092526101608301528190815260200160008152602001600081525090565b604080516101208101825260008082526020820152908101613a7f613ab2565b81526020016000815260200160008152602001600081526020016000815260200160008152602001600080191681525090565b6040518060e00160405280613af66040518060c001604052806000815260200160008152602001600081526020016000815260200160008152602001600081525090565b8152602001600081526020016000815260200160008152602001600061ffff16815260200160008152602001600081525090565b5b80821115613b655780546001600160981b031916815560006001820181905560028201819055600382018190556004820155600501613b2b565b5090565b600060608284031215613b7b57600080fd5b50919050565b80151581146139b557600080fd5b8035613b9a81613b81565b919050565b600080600060a08486031215613bb457600080fd5b613bbe8585613b69565b92506060840135613bce81613b81565b929592945050506080919091013590565b634e487b7160e01b600052604160045260246000fd5b60405160c081016001600160401b0381118282101715613c1757613c17613bdf565b60405290565b604051606081016001600160401b0381118282101715613c1757613c17613bdf565b60405161012081016001600160401b0381118282101715613c1757613c17613bdf565b60405161014081016001600160401b0381118282101715613c1757613c17613bdf565b60405160e081016001600160401b0381118282101715613c1757613c17613bdf565b6040516101c081016001600160401b0381118282101715613c1757613c17613bdf565b604051601f8201601f191681016001600160401b0381118282101715613cf257613cf2613bdf565b604052919050565b6001600160a01b03811681146139b557600080fd5b8035613b9a81613cfa565b803563ffffffff81168114613b9a57600080fd5b60006001600160401b03821115613d4757613d47613bdf565b5060051b60200190565b8060020b81146139b557600080fd5b8035613b9a81613d51565b6001600160801b03811681146139b557600080fd5b600082601f830112613d9157600080fd5b81356020613da6613da183613d2e565b613cca565b82815260c09283028501820192828201919087851115613dc557600080fd5b8387015b85811015613e3c5781818a031215613de15760008081fd5b613de9613bf5565b8135613df481613d51565b815281860135613e0381613d6b565b8187015260408281013590820152606080830135908201526080808301359082015260a080830135908201528452928401928101613dc9565b5090979650505050505050565b600060608284031215613e5b57600080fd5b613e63613c1d565b905081356001600160401b0380821115613e7c57600080fd5b908301906101208286031215613e9157600080fd5b613e99613c3f565b613ea283613d0f565b8152613eb060208401613b8f565b6020820152604083013560408201526060830135606082015260808301356080820152613edf60a08401613d1a565b60a0820152613ef060c08401613d1a565b60c0820152613f0160e08401613d1a565b60e08201526101008084013583811115613f1a57600080fd5b613f2688828701613d80565b828401525050808452505050602082013560208201526040820135604082015292915050565b600060208284031215613f5e57600080fd5b81356001600160401b03811115613f7457600080fd5b6107ad84828501613e49565b600060208284031215613f9257600080fd5b81356120ca81613cfa565b600060208284031215613faf57600080fd5b81356120ca81613b81565b60008060008060808587031215613fd057600080fd5b8435613fdb81613cfa565b93506020850135613feb81613cfa565b92506040850135613ffb81613b81565b9396929550929360600135925050565b60008060008060008060008060006101208a8c03121561402a57600080fd5b893561403581613cfa565b985060208a013561404581613b81565b975060408a013561405581613b81565b989b979a5097986060810135985060808101359760a0820135975060c0820135965060e08201359550610100909101359350915050565b60006001600160401b038211156140a5576140a5613bdf565b50601f01601f191660200190565b600082601f8301126140c457600080fd5b81356140d2613da18261408c565b8181528460208386010111156140e757600080fd5b816020850160208301376000918101602001919091529392505050565b6000806080838503121561411757600080fd5b6141218484613b69565b915060608301356001600160401b038082111561413d57600080fd5b90840190610120828703121561415257600080fd5b61415a613c3f565b61416383613b8f565b8152602083013560208201526040830135604082015261418560608401613d0f565b60608201526080830135608082015260a0830135828111156141a657600080fd5b6141b2888286016140b3565b60a0830152506141c460c08401613d60565b60c08201526141d560e08401613d60565b60e0820152610100915081830135828201528093505050509250929050565b805182526020810151602083015260408101516040830152606081015160608301526080810151608083015260a081015160a083015260c081015160c083015260e081015160e08301525050565b6101008101612e0382846141f4565b60008060006060848603121561426657600080fd5b833561427181613cfa565b9250602084013561428181613b81565b9150604084013561429181613b81565b809150509250925092565b803562ffffff81168114613b9a57600080fd5b6000606082840312156142c157600080fd5b6142c9613c1d565b905081356142d681613cfa565b815260208201356142e681613cfa565b60208201526142f76040830161429c565b604082015292915050565b600080600060a0848603121561431757600080fd5b61432185856142af565b9250606084013561433181613cfa565b9150608084013561429181613b81565b6000806040838503121561435457600080fd5b823561435f81613cfa565b9150602083013561436f81613cfa565b809150509250929050565b60006020828403121561438c57600080fd5b5035919050565b805160020b82526001600160801b03602082015116602083015260408101516040830152606081015160608301526080810151608083015260a081015160a08301525050565b600081518084526020808501945080840160005b8381101561441357614400878351614393565b60c09690960195908201906001016143ed565b509495945050505050565b600061012060018060a01b0383511684526020830151614442602086018215159052565b5060408301516040850152606083015160608501526080830151608085015260a083015161447860a086018263ffffffff169052565b5060c083015161449060c086018263ffffffff169052565b5060e08301516144a860e086018263ffffffff169052565b50610100808401518282870152612d0a838701826143d9565b6060815260006144d4606083018661441e565b60208301949094525060400152919050565b6000808284036101008112156144fb57600080fd5b6145058585613b69565b925060a0605f198201121561451957600080fd5b5060405160a081018181106001600160401b038211171561453c5761453c613bdf565b604052606084013561454d81613cfa565b8152608084013561455d81613b81565b602082015260a0840135604082015260c084013561457a81613d51565b606082015260e084013561458d81613d51565b6080820152919491935090915050565b6000806000606084860312156145b257600080fd5b83356145bd81613cfa565b9250602084013561428181613cfa565b600081518084526020808501945080840160005b83811015614413576145f4878351614393565b60c09690960195908201906001016145e1565b6020815260006120ca60208301846145cd565b600080600060a0848603121561462f57600080fd5b6146398585613b69565b925060608401356001600160401b038082111561465557600080fd5b90850190610140828803121561466a57600080fd5b614672613c62565b823581526020830135602082015260408301356040820152606083013560608201526146a060808401613b8f565b608082015260a083013560a08201526146bb60c08401613d0f565b60c082015260e0830135828111156146d257600080fd5b6146de898286016140b3565b60e0830152506101006146f2818501613d60565b90820152610120614704848201613d60565b908201529350608086013591508082111561471e57600080fd5b5061472b86828701613d80565b9150509250925092565b600081516060845261474a606085018261441e565b905060208301516020850152604083015160408501528091505092915050565b6060815260006144d46060830186614735565b6020815260006120ca6020830184614735565b80516001600160a01b0390811683526020808301519091169083015260409081015162ffffff16910152565b61016081016147cb828c614790565b981515606082015263ffffffff97881660808201529590961660a086015260c085019390935260e08401919091526101008301526101208201526101400152919050565b600080600080600060e0868803121561482757600080fd5b6148318787613b69565b945060608601356001600160401b0381111561484c57600080fd5b61485888828901613e49565b945050608086013561486981613cfa565b925060a086013561487981613cfa565b915060c086013561488981613b81565b809150509295509295909350565b600080602083850312156148aa57600080fd5b82356001600160401b03808211156148c157600080fd5b818501915085601f8301126148d557600080fd5b8135818111156148e457600080fd5b8660208260051b85010111156148f957600080fd5b60209290920196919550909350505050565b60005b8381101561492657818101518382015260200161490e565b50506000910152565b6000815180845261494781602086016020860161490b565b601f01601f19169290920160200192915050565b6000602080830181845280855180835260408601915060408160051b870101925083870160005b828110156149b057603f1988860301845261499e85835161492f565b94509285019290850190600101614982565b5092979650505050505050565b600080600080608085870312156149d357600080fd5b84356149de81613cfa565b935060208501356149ee81613cfa565b925060408501356149fe81613b81565b91506060850135614a0e81613b81565b939692955090935050565b60008060008060c08587031215614a2f57600080fd5b614a398686613b69565b93506060850135614a4981613cfa565b92506080850135614a5981613b81565b9396929550929360a00135925050565b8035614a7481613cfa565b6001600160a01b039081168352602082013590614a9082613cfa565b16602083015262ffffff614aa66040830161429c565b1660408301525050565b60608101612e038284614a69565b8051613b9a81613cfa565b8051613b9a81613d51565b805161ffff81168114613b9a57600080fd5b6000818303610180811215614afa57600080fd5b614b02613c85565b915060c0811215614b1257600080fd5b50614b1b613bf5565b825181526020830151602082015260408301516040820152606083015160608201526080830151608082015260a083015160a08201528082525060c0820151602082015260e082015160408201526101008201516060820152614b816101208301614ad4565b608082015261014082015160a082015261016082015160c082015292915050565b60008060006101c08486031215614bb857600080fd5b8351614bc381613cfa565b6020850151909350614bd481613d51565b9150614be38560408601614ae6565b90509250925092565b600060608284031215614bfe57600080fd5b6120ca83836142af565b634e487b7160e01b600052601160045260246000fd5b81810381811115612e0357612e03614c08565b60208082526006908201526510b7bbb732b960d11b604082015260600190565b6020808252600a90820152695245454e5452414e435960b01b604082015260600190565b6020808252600690820152651c185d5cd95960d21b604082015260600190565b600061012082511515845260208301516020850152604083015160408501526060830151614cce60608601826001600160a01b03169052565b506080830151608085015260a08301518160a0860152614cf08286018261492f565b91505060c0830151614d0760c086018260020b9052565b5060e0830151614d1c60e086018260020b9052565b50610100928301519390920192909252919050565b6000815480845260208085019450836000528060002060005b83811015614413578154600281810b895260189190911c6001600160801b03168489015260018084015460408a015290830154606089015260038301546080890152600483015460a089015260c09097019660059092019101614d4a565b848152608060208201526000614dc16080830186614c95565b8281036040840152606080825285546001600160a01b03811691830191909152614df56080830160ff8360a01c1615159052565b50600185015460a0820152600285015460c0820152600385015460e0820152600485015463ffffffff808216610100840152610120614e40818501838560201c1663ffffffff169052565b614e586101408501838560401c1663ffffffff169052565b61016084015250614e729050610180820160058701614d31565b60068601546020830152600790950154604090910152506060015292915050565b600080600060608486031215614ea857600080fd5b8351925060208401519150604084015190509250925092565b604081526000614ed460408301856145cd565b90508260208301529392505050565b600082601f830112614ef457600080fd5b81516020614f04613da183613d2e565b82815260c09283028501820192828201919087851115614f2357600080fd5b8387015b85811015613e3c5781818a031215614f3f5760008081fd5b614f47613bf5565b8151614f5281613d51565b815281860151614f6181613d6b565b8187015260408281015190820152606080830151908201526080808301519082015260a080830151908201528452928401928101614f27565b600060208284031215614fac57600080fd5b81516001600160401b03811115614fc257600080fd5b6107ad84828501614ee3565b85815284602082015283604082015260a060608201526000614ff360a08301856145cd565b828103608084015261500581856145cd565b98975050505050505050565b8051613b9a81613b81565b600080600080600080600060e0888a03121561503757600080fd5b875161504281613cfa565b602089015190975061505381613d51565b955061506160408901614ad4565b945061506f60608901614ad4565b935061507d60808901614ad4565b925060a088015160ff8116811461509357600080fd5b60c08901519092506150a481613b81565b8091505092959891949750929550565b6080815260006150c760808301876145cd565b941515602083015250600292830b6040820152910b606090910152919050565b6000602082840312156150f957600080fd5b5051919050565b615140828251805182526020810151602083015260408101516040830152606081015160608301526080810151608083015260a081015160a08301525050565b602081015160c0830152604081015160e0830152606081015161010083015261ffff60808201511661012083015260a081015161014083015260c08101516101608301525050565b60006101e080835261519c8184018a614c95565b90506151ab60208401896141f4565b6101206151ba81850189614a69565b610180848303818601526103206151da848a516001600160a01b03169052565b60208901516151ee602086018260020b9052565b5060408901516040850152606089015161521360608601826001600160a01b03169052565b506080890151615228608086018260020b9052565b5060a089015161523d60a086018260020b9052565b5060c089015161525260c086018260020b9052565b5060e089015161526d60e08601826001600160a01b03169052565b50610100808a015181860152508289015183850152610140925082890151838501526101609250828901516152a484860182615100565b50818901519250806102e08501526152be818501846145cd565b925050506101a0808801516103008401528193506152e6818601886001600160a01b03169052565b5050506001600160a01b0383166101c0830152979650505050505050565b600061010080838503121561531857600080fd5b604051908101906001600160401b038211818310171561533a5761533a613bdf565b81604052809250835181526020840151602082015260408401516040820152606084015160608201526080840151608082015260a084015160a082015260c084015160c082015260e084015160e0820152505092915050565b6000806101208084860312156153a857600080fd5b6153b28585615304565b9250610100808501516001600160401b03808211156153d057600080fd5b9086019061032082890312156153e557600080fd5b6153ed613ca7565b6153f683614abe565b815261540460208401614ac9565b60208201526040830151604082015261541f60608401614abe565b606082015261543060808401614ac9565b608082015261544160a08401614ac9565b60a082015261545260c08401614ac9565b60c082015261546360e08401614abe565b60e08201528383015184820152848301518582015261014094508483015185820152610160945061549689868501614ae6565b858201526102e08301519450818511156154af57600080fd5b6154bb89868501614ee3565b6101808201526103008301516101a082015280955050505050509250929050565b60006102008083526154f08184018b6145cd565b90508281036020840152615504818a614c95565b91505061551460408301886141f4565b615522610140830187614a69565b6101a08201949094526001600160a01b03929092166101c08301526101e090910152949350505050565b6000610100828403121561555f57600080fd5b6120ca8383615304565b60608101612e038284614790565b60006020828403121561558957600080fd5b81516120ca81613b81565b60006101206155a3838b614a69565b88606084015287608084015286151560a08401528060c08401526155c9818401876145cd565b6001600160a01b0395861660e08501529390941661010090920191909152509695505050505050565b6155fc8187614a69565b60e06060820152600061561260e08301876145cd565b60808301959095525091151560a08301526001600160a01b031660c09091015292915050565b60006101a0615647838f614a69565b8060608401526156598184018e6145cd565b608084019c909c52505097151560a0890152600296870b60c08901529490950b60e08701526001600160a01b039283166101008701526101208601919091528116610140850152918216610160840152166101809091015292915050565b60006101408251845260208301516020850152604083015160408501526060830151606085015260808301516156f1608086018215159052565b5060a083015160a085015260c083015161571660c08601826001600160a01b03169052565b5060e08301518160e086015261572e8286018261492f565b915050610100808401516157468287018260020b9052565b50506101208084015161575d8287018260020b9052565b5090949350505050565b83815282602082015260606040820152600061578660608301846156b7565b95945050505050565b600082601f8301126157a057600080fd5b81516157ae613da18261408c565b8181528460208386010111156157c357600080fd5b6107ad82602083016020870161490b565b600061014082840312156157e757600080fd5b6157ef613c62565b90508151815260208201516020820152604082015160408201526060820151606082015261581f60808301615011565b608082015260a082015160a082015261583a60c08301614abe565b60c082015260e08201516001600160401b0381111561585857600080fd5b6158648482850161578f565b60e083015250610100615878818401614ac9565b9082015261012061588a838201614ac9565b9082015292915050565b600080604083850312156158a757600080fd5b8251915060208301516001600160401b038111156158c457600080fd5b6158d0858286016157d4565b9150509250929050565b6158e48187614a69565b60e0606082015260006158fa60e08301876156b7565b828103608084015261590c81876145cd565b6001600160a01b0395861660a08501529390941660c09092019190915250949350505050565b6000806000806080858703121561594857600080fd5b845193506020850151925060408501516001600160401b038082111561596d57600080fd5b615979888389016157d4565b9350606087015191508082111561598f57600080fd5b5061599c87828801614ee3565b91505092959194509250565b6001600160a01b03868116825285166020820152600284900b6040820152610140606082018190526000906159df838201866145cd565b915050612d0a6080830184805182526020810151602083015260408101516040830152606081015160608301526080810151608083015260a081015160a08301525050565b606081526000615a3760608301866145cd565b93151560208301525060029190910b604090910152919050565b604081526000615a6460408301856145cd565b828103602084015261578681856145cd565b80820180821115612e0357612e03614c08565b6000610120808352615a9d8184018b6156b7565b915050615aad6020830189614a69565b608082019690965260029490940b60a08501526001600160a01b0392831660c0850152911660e08301526101009091015292915050565b60008060408385031215615af757600080fd5b505080516020909101519092909150565b6000600160ff1b8201615b1d57615b1d614c08565b5060000390565b85815260a060208201526000615b3d60a08301876156b7565b8281036040840152615b4f81876145cd565b60608401959095525050608001529392505050565b60e0815260008651606060e0840152615b8a610140840182516001600160a01b03169052565b60208101511515610160840152604081015161018084015260608101516101a084015260808101516101c084015260a081015163ffffffff9081166101e085015260c0820151811661020085015260e082015116610220840152610100908101516101206102408501819052909190615c076102608601846145cd565b925060208a01518286015260408a015181860152505080915050615c2e6020830187614a69565b93151560808201526001600160a01b039290921660a083015260c09091015292915050565b634e487b7160e01b600052603260045260246000fd5b6000808335601e19843603018112615c8057600080fd5b8301803591506001600160401b03821115615c9a57600080fd5b602001915036819003821315615caf57600080fd5b9250929050565b600060018201615cc857615cc8614c08565b5060010190565b8681526001600160a01b038681166020830152610100820190615cf56040840188614a69565b9490941660a082015291151560c083015260e0909101529392505050565b60006102a0615d23848451614790565b6020830151816060860152615d3a828601826145cd565b915050604083015160018060a01b0380821660808701528060608601511660a087015250506080830151151560c085015260a0830151615d7d60e0860182615100565b5060c0830151615d9361026086018260020b9052565b5060e08301516102808501528091505092915050565b85815260a060208201526000615dc260a0830187615d13565b63ffffffff959095166040830152506001600160a01b039283166060820152911660809091015292915050565b60008060408385031215615e0257600080fd5b8251915060208301516001600160401b03811115615e1f57600080fd5b6158d085828601614ee3565b615e358186614790565b60c060608201526000615e4b60c08301866145cd565b93151560808301525060a0015292915050565b848152608060208201526000615e776080830186615d13565b6001600160a01b039490941660408301525063ffffffff9190911660609091015292915050565b604081526000614ed4604083018561492f565b60008251615ec381846020870161490b565b9190910192915050565b6020815260006120ca602083018461492f56fe416464726573733a206c6f772d6c6576656c2064656c65676174652063616c6c206661696c6564a26469706673582212202d60d1042450e2fced57268d4328157505f18f628f380b613134ace166b96eb864736f6c63430008150033",
    "linkReferences": {
      "src/MarginPositionHelper.sol": {
        "MarginPositionHelper": [
          {
            "start": 2450,
            "length": 20
          },
          {
            "start": 3025,
            "length": 20
          },
          {
            "start": 3989,
            "length": 20
          },
          {
            "start": 4589,
            "length": 20
          },
          {
            "start": 4867,
            "length": 20
          },
          {
            "start": 5062,
            "length": 20
          },
          {
            "start": 7422,
            "length": 20
          },
          {
            "start": 7586,
            "length": 20
          },
          {
            "start": 7642,
            "length": 20
          },
          {
            "start": 9017,
            "length": 20
          },
          {
            "start": 9261,
            "length": 20
          },
          {
            "start": 10292,
            "length": 20
          },
          {
            "start": 10480,
            "length": 20
          },
          {
            "start": 11619,
            "length": 20
          }
        ]
      },
      "src/PremiumComputer.sol": {
        "PremiumComputer": [
          {
            "start": 9438,
            "length": 20
          },
          {
            "start": 12276,
            "length": 20
          },
          {
            "start": 13414,
            "length": 20
          },
          {
            "start": 13780,
            "length": 20
          }
        ]
      },
      "src/Util.sol": {
        "Utils": [
          {
            "start": 3653,
            "length": 20
          },
          {
            "start": 4449,
            "length": 20
          },
          {
            "start": 7256,
            "length": 20
          },
          {
            "start": 9588,
            "length": 20
          },
          {
            "start": 10051,
            "length": 20
          }
        ]
      }
    }
  },
  "methodIdentifiers": {
    "PremiumDeposit(bytes32)": "5d4936ff",
    "addPosition((address,address,uint24),(uint256,uint256,uint256,uint256,bool,uint256,address,bytes,int24,int24),(int24,uint128,uint256,uint256,uint256,uint256)[])": "8be8efa2",
    "approveTokens(address,address)": "3eb4adab",
    "canForceClose(((address,bool,uint256,uint256,uint256,uint32,uint32,uint32,(int24,uint128,uint256,uint256,uint256,uint256)[]),uint256,uint256))": "10ef1759",
    "canForceClose((address,address,uint24),((address,bool,uint256,uint256,uint256,uint32,uint32,uint32,(int24,uint128,uint256,uint256,uint256,uint256)[]),uint256,uint256),address,address,bool)": "ab69f8fa",
    "cancelOrder(address,bool,bool)": "28ec7232",
    "checkPositionExists(address,address,bool)": "f2edf95a",
    "checkPremiumCondition(address,address,bool,uint256)": "20a672a2",
    "depositPremium((address,address,uint24),address,bool,uint256)": "dbe5f6cb",
    "executioner()": "dc6ab02f",
    "forceClose((address,address,uint24),(address,bool,uint256,int24,int24))": "5277a324",
    "getBorrowInfo(address,address,bool)": "657b5a4b",
    "getLastRepayTime(address,address,bool)": "d93a9047",
    "getOrderId(address,address,bool,bool)": "bfd4c2a5",
    "getPosition(address,address,bool)": "8c1395f8",
    "getPositionId(address,address,bool)": "f6f0ea89",
    "maxWithdrawablePremium((address,address,uint24),address,bool)": "2be197cf",
    "multicall(bytes[])": "ac9650d8",
    "orders(bytes32)": "9c3f1e90",
    "payPremium((address,address,uint24),bool,uint256)": "de074f10",
    "positions(bytes32)": "514ea4bf",
    "reducePosition((address,address,uint24),(bool,uint256,uint256,address,uint256,bytes,int24,int24,uint256))": "27bd6f83",
    "setAddPaused(bool)": "1fda89ef",
    "setForceClosePaused(bool)": "d42a397c",
    "setOwner(address)": "13af4035",
    "setReducePaused(bool)": "89a1c073",
    "submitOrder(address,bool,bool,uint256,uint256,uint256,uint256,uint256,uint256)": "228e062a",
    "withdrawPremium((address,address,uint24),bool,uint256)": "025df9e4"
  },
  "id": 39
}