{
  "_format": "hh-sol-artifact-1",
  "contractName": "MarginFacility",
  "sourceName": "src/MarginFacility.sol",
  "abi": [
    {
      "inputs": [],
      "name": "addReduceInvalidTick",
      "type": "error"
    },
    {
      "anonymous": false,
      "inputs": [
        {
          "indexed": true,
          "internalType": "address",
          "name": "pool",
          "type": "address"
        },
        {
          "indexed": true,
          "internalType": "bool",
          "name": "positionIsToken0",
          "type": "bool"
        },
        {
          "indexed": false,
          "internalType": "bool",
          "name": "marginInPosToken",
          "type": "bool"
        },
        {
          "indexed": false,
          "internalType": "uint256",
          "name": "margin",
          "type": "uint256"
        },
        {
          "indexed": true,
          "internalType": "address",
          "name": "trader",
          "type": "address"
        },
        {
          "indexed": false,
          "internalType": "uint256",
          "name": "forcedClosedAmount",
          "type": "uint256"
        },
        {
          "indexed": false,
          "internalType": "uint256",
          "name": "fillerPayAmount",
          "type": "uint256"
        },
        {
          "indexed": false,
          "internalType": "uint256",
          "name": "rangeCondition",
          "type": "uint256"
        }
      ],
      "name": "ForceClosed",
      "type": "event"
    },
    {
      "anonymous": false,
      "inputs": [
        {
          "indexed": false,
          "internalType": "uint8",
          "name": "version",
          "type": "uint8"
        }
      ],
      "name": "Initialized",
      "type": "event"
    },
    {
      "anonymous": false,
      "inputs": [
        {
          "indexed": true,
          "internalType": "address",
          "name": "pool",
          "type": "address"
        },
        {
          "indexed": true,
          "internalType": "bool",
          "name": "positionIsToken0",
          "type": "bool"
        },
        {
          "indexed": false,
          "internalType": "bool",
          "name": "marginInPosToken",
          "type": "bool"
        },
        {
          "indexed": true,
          "internalType": "address",
          "name": "trader",
          "type": "address"
        },
        {
          "indexed": false,
          "internalType": "address",
          "name": "filler",
          "type": "address"
        },
        {
          "indexed": false,
          "internalType": "uint256",
          "name": "addedAmount",
          "type": "uint256"
        },
        {
          "indexed": false,
          "internalType": "uint256",
          "name": "marginAmount",
          "type": "uint256"
        },
        {
          "indexed": false,
          "internalType": "uint256",
          "name": "borrowAmount",
          "type": "uint256"
        },
        {
          "indexed": false,
          "internalType": "uint256",
          "name": "premiumPaid",
          "type": "uint256"
        },
        {
          "indexed": false,
          "internalType": "uint256",
          "name": "feePaid",
          "type": "uint256"
        }
      ],
      "name": "MarginPositionIncreased",
      "type": "event"
    },
    {
      "anonymous": false,
      "inputs": [
        {
          "indexed": true,
          "internalType": "address",
          "name": "pool",
          "type": "address"
        },
        {
          "indexed": true,
          "internalType": "bool",
          "name": "positionIsToken0",
          "type": "bool"
        },
        {
          "indexed": false,
          "internalType": "bool",
          "name": "marginInPosToken",
          "type": "bool"
        },
        {
          "indexed": true,
          "internalType": "address",
          "name": "trader",
          "type": "address"
        },
        {
          "indexed": false,
          "internalType": "address",
          "name": "filler",
          "type": "address"
        },
        {
          "indexed": false,
          "internalType": "uint256",
          "name": "reduceAmount",
          "type": "uint256"
        },
        {
          "indexed": false,
          "internalType": "uint256",
          "name": "premiumPaid",
          "type": "uint256"
        },
        {
          "indexed": false,
          "internalType": "uint256",
          "name": "feePaid",
          "type": "uint256"
        },
        {
          "indexed": false,
          "internalType": "int256",
          "name": "PnL",
          "type": "int256"
        }
      ],
      "name": "MarginPositionReduced",
      "type": "event"
    },
    {
      "anonymous": false,
      "inputs": [
        {
          "indexed": true,
          "internalType": "address",
          "name": "pool",
          "type": "address"
        },
        {
          "indexed": true,
          "internalType": "bool",
          "name": "positionIsToken0",
          "type": "bool"
        },
        {
          "indexed": true,
          "internalType": "address",
          "name": "trader",
          "type": "address"
        },
        {
          "indexed": false,
          "internalType": "bool",
          "name": "isAdd",
          "type": "bool"
        },
        {
          "indexed": false,
          "internalType": "uint256",
          "name": "deadline",
          "type": "uint256"
        },
        {
          "indexed": false,
          "internalType": "uint256",
          "name": "startOutput",
          "type": "uint256"
        },
        {
          "indexed": false,
          "internalType": "uint256",
          "name": "minOutput",
          "type": "uint256"
        },
        {
          "indexed": false,
          "internalType": "uint256",
          "name": "inputAmount",
          "type": "uint256"
        },
        {
          "indexed": false,
          "internalType": "uint256",
          "name": "decayRate",
          "type": "uint256"
        },
        {
          "indexed": false,
          "internalType": "uint256",
          "name": "margin",
          "type": "uint256"
        }
      ],
      "name": "OrderAdded",
      "type": "event"
    },
    {
      "anonymous": false,
      "inputs": [
        {
          "indexed": true,
          "internalType": "address",
          "name": "pool",
          "type": "address"
        },
        {
          "indexed": true,
          "internalType": "bool",
          "name": "positionIsToken0",
          "type": "bool"
        },
        {
          "indexed": true,
          "internalType": "address",
          "name": "trader",
          "type": "address"
        },
        {
          "indexed": false,
          "internalType": "bool",
          "name": "isAdd",
          "type": "bool"
        }
      ],
      "name": "OrderCanceled",
      "type": "event"
    },
    {
      "anonymous": false,
      "inputs": [
        {
          "indexed": true,
          "internalType": "address",
          "name": "payer",
          "type": "address"
        },
        {
          "indexed": true,
          "internalType": "address",
          "name": "pool",
          "type": "address"
        },
        {
          "indexed": false,
          "internalType": "bool",
          "name": "isToken1",
          "type": "bool"
        },
        {
          "indexed": false,
          "internalType": "uint256",
          "name": "amount",
          "type": "uint256"
        }
      ],
      "name": "PremiumDeposited",
      "type": "event"
    },
    {
      "anonymous": false,
      "inputs": [
        {
          "indexed": true,
          "internalType": "address",
          "name": "withdrawer",
          "type": "address"
        },
        {
          "indexed": true,
          "internalType": "address",
          "name": "pool",
          "type": "address"
        },
        {
          "indexed": false,
          "internalType": "bool",
          "name": "isToken1",
          "type": "bool"
        },
        {
          "indexed": false,
          "internalType": "uint256",
          "name": "amount",
          "type": "uint256"
        }
      ],
      "name": "PremiumWithdrawn",
      "type": "event"
    },
    {
      "inputs": [
        {
          "internalType": "PositionId",
          "name": "",
          "type": "bytes32"
        }
      ],
      "name": "PremiumDeposit",
      "outputs": [
        {
          "internalType": "uint256",
          "name": "",
          "type": "uint256"
        }
      ],
      "stateMutability": "view",
      "type": "function"
    },
    {
      "inputs": [
        {
          "internalType": "address",
          "name": "pm",
          "type": "address"
        },
        {
          "internalType": "address",
          "name": "ex",
          "type": "address"
        }
      ],
      "name": "_initialize",
      "outputs": [],
      "stateMutability": "nonpayable",
      "type": "function"
    },
    {
      "inputs": [
        {
          "internalType": "address",
          "name": "filler",
          "type": "address"
        }
      ],
      "name": "addFiller",
      "outputs": [],
      "stateMutability": "nonpayable",
      "type": "function"
    },
    {
      "inputs": [
        {
          "components": [
            {
              "internalType": "address",
              "name": "token0",
              "type": "address"
            },
            {
              "internalType": "address",
              "name": "token1",
              "type": "address"
            },
            {
              "internalType": "uint24",
              "name": "fee",
              "type": "uint24"
            }
          ],
          "internalType": "struct PoolKey",
          "name": "key",
          "type": "tuple"
        },
        {
          "components": [
            {
              "internalType": "uint256",
              "name": "margin",
              "type": "uint256"
            },
            {
              "internalType": "uint256",
              "name": "minOutput",
              "type": "uint256"
            },
            {
              "internalType": "uint256",
              "name": "simulatedOutput",
              "type": "uint256"
            },
            {
              "internalType": "uint256",
              "name": "borrowAmount",
              "type": "uint256"
            },
            {
              "internalType": "bool",
              "name": "positionIsToken0",
              "type": "bool"
            },
            {
              "internalType": "uint256",
              "name": "executionOption",
              "type": "uint256"
            },
            {
              "internalType": "address",
              "name": "trader",
              "type": "address"
            },
            {
              "internalType": "bytes",
              "name": "executionData",
              "type": "bytes"
            },
            {
              "internalType": "int24",
              "name": "slippedTickMin",
              "type": "int24"
            },
            {
              "internalType": "int24",
              "name": "slippedTickMax",
              "type": "int24"
            },
            {
              "internalType": "bool",
              "name": "marginInPosToken",
              "type": "bool"
            }
          ],
          "internalType": "struct AddParams",
          "name": "param",
          "type": "tuple"
        },
        {
          "components": [
            {
              "internalType": "int24",
              "name": "tick",
              "type": "int24"
            },
            {
              "internalType": "uint128",
              "name": "liquidity",
              "type": "uint128"
            },
            {
              "internalType": "uint256",
              "name": "premium",
              "type": "uint256"
            },
            {
              "internalType": "uint256",
              "name": "feeGrowthInside0LastX128",
              "type": "uint256"
            },
            {
              "internalType": "uint256",
              "name": "feeGrowthInside1LastX128",
              "type": "uint256"
            },
            {
              "internalType": "uint256",
              "name": "lastGrowth",
              "type": "uint256"
            }
          ],
          "internalType": "struct LiquidityLoan[]",
          "name": "borrowInfo",
          "type": "tuple[]"
        }
      ],
      "name": "addPosition",
      "outputs": [
        {
          "components": [
            {
              "components": [
                {
                  "internalType": "address",
                  "name": "pool",
                  "type": "address"
                },
                {
                  "internalType": "bool",
                  "name": "isToken0",
                  "type": "bool"
                },
                {
                  "internalType": "uint256",
                  "name": "totalDebtOutput",
                  "type": "uint256"
                },
                {
                  "internalType": "uint256",
                  "name": "totalDebtInput",
                  "type": "uint256"
                },
                {
                  "internalType": "uint32",
                  "name": "lastPremiumPaymentTime",
                  "type": "uint32"
                },
                {
                  "internalType": "uint32",
                  "name": "openTime",
                  "type": "uint32"
                },
                {
                  "components": [
                    {
                      "internalType": "int24",
                      "name": "tick",
                      "type": "int24"
                    },
                    {
                      "internalType": "uint128",
                      "name": "liquidity",
                      "type": "uint128"
                    },
                    {
                      "internalType": "uint256",
                      "name": "premium",
                      "type": "uint256"
                    },
                    {
                      "internalType": "uint256",
                      "name": "feeGrowthInside0LastX128",
                      "type": "uint256"
                    },
                    {
                      "internalType": "uint256",
                      "name": "feeGrowthInside1LastX128",
                      "type": "uint256"
                    },
                    {
                      "internalType": "uint256",
                      "name": "lastGrowth",
                      "type": "uint256"
                    }
                  ],
                  "internalType": "struct LiquidityLoan[]",
                  "name": "borrowInfo",
                  "type": "tuple[]"
                }
              ],
              "internalType": "struct Position",
              "name": "base",
              "type": "tuple"
            },
            {
              "internalType": "uint256",
              "name": "totalPosition",
              "type": "uint256"
            },
            {
              "internalType": "uint256",
              "name": "margin",
              "type": "uint256"
            },
            {
              "internalType": "bool",
              "name": "marginInPosToken",
              "type": "bool"
            }
          ],
          "internalType": "struct MarginPosition",
          "name": "position",
          "type": "tuple"
        },
        {
          "internalType": "uint256",
          "name": "premiumOwed",
          "type": "uint256"
        },
        {
          "internalType": "uint256",
          "name": "fee",
          "type": "uint256"
        }
      ],
      "stateMutability": "nonpayable",
      "type": "function"
    },
    {
      "inputs": [
        {
          "internalType": "address",
          "name": "token0",
          "type": "address"
        },
        {
          "internalType": "address",
          "name": "token1",
          "type": "address"
        }
      ],
      "name": "approveTokens",
      "outputs": [],
      "stateMutability": "nonpayable",
      "type": "function"
    },
    {
      "inputs": [
        {
          "components": [
            {
              "internalType": "address",
              "name": "token0",
              "type": "address"
            },
            {
              "internalType": "address",
              "name": "token1",
              "type": "address"
            },
            {
              "internalType": "uint24",
              "name": "fee",
              "type": "uint24"
            }
          ],
          "internalType": "struct PoolKey",
          "name": "key",
          "type": "tuple"
        },
        {
          "components": [
            {
              "components": [
                {
                  "internalType": "address",
                  "name": "pool",
                  "type": "address"
                },
                {
                  "internalType": "bool",
                  "name": "isToken0",
                  "type": "bool"
                },
                {
                  "internalType": "uint256",
                  "name": "totalDebtOutput",
                  "type": "uint256"
                },
                {
                  "internalType": "uint256",
                  "name": "totalDebtInput",
                  "type": "uint256"
                },
                {
                  "internalType": "uint32",
                  "name": "lastPremiumPaymentTime",
                  "type": "uint32"
                },
                {
                  "internalType": "uint32",
                  "name": "openTime",
                  "type": "uint32"
                },
                {
                  "components": [
                    {
                      "internalType": "int24",
                      "name": "tick",
                      "type": "int24"
                    },
                    {
                      "internalType": "uint128",
                      "name": "liquidity",
                      "type": "uint128"
                    },
                    {
                      "internalType": "uint256",
                      "name": "premium",
                      "type": "uint256"
                    },
                    {
                      "internalType": "uint256",
                      "name": "feeGrowthInside0LastX128",
                      "type": "uint256"
                    },
                    {
                      "internalType": "uint256",
                      "name": "feeGrowthInside1LastX128",
                      "type": "uint256"
                    },
                    {
                      "internalType": "uint256",
                      "name": "lastGrowth",
                      "type": "uint256"
                    }
                  ],
                  "internalType": "struct LiquidityLoan[]",
                  "name": "borrowInfo",
                  "type": "tuple[]"
                }
              ],
              "internalType": "struct Position",
              "name": "base",
              "type": "tuple"
            },
            {
              "internalType": "uint256",
              "name": "totalPosition",
              "type": "uint256"
            },
            {
              "internalType": "uint256",
              "name": "margin",
              "type": "uint256"
            },
            {
              "internalType": "bool",
              "name": "marginInPosToken",
              "type": "bool"
            }
          ],
          "internalType": "struct MarginPosition",
          "name": "position",
          "type": "tuple"
        },
        {
          "internalType": "address",
          "name": "pool",
          "type": "address"
        },
        {
          "internalType": "address",
          "name": "trader",
          "type": "address"
        },
        {
          "internalType": "bool",
          "name": "positionIsToken0",
          "type": "bool"
        }
      ],
      "name": "canForceClose",
      "outputs": [
        {
          "internalType": "bool",
          "name": "",
          "type": "bool"
        }
      ],
      "stateMutability": "view",
      "type": "function"
    },
    {
      "inputs": [
        {
          "internalType": "address",
          "name": "pool",
          "type": "address"
        },
        {
          "internalType": "bool",
          "name": "positionIsToken0",
          "type": "bool"
        },
        {
          "internalType": "bool",
          "name": "isAdd",
          "type": "bool"
        }
      ],
      "name": "cancelOrder",
      "outputs": [],
      "stateMutability": "nonpayable",
      "type": "function"
    },
    {
      "inputs": [
        {
          "internalType": "address",
          "name": "pool",
          "type": "address"
        },
        {
          "internalType": "address",
          "name": "borrower",
          "type": "address"
        },
        {
          "internalType": "bool",
          "name": "borrowedToken1",
          "type": "bool"
        }
      ],
      "name": "checkPositionExists",
      "outputs": [
        {
          "internalType": "bool",
          "name": "",
          "type": "bool"
        }
      ],
      "stateMutability": "view",
      "type": "function"
    },
    {
      "inputs": [
        {
          "components": [
            {
              "internalType": "address",
              "name": "token0",
              "type": "address"
            },
            {
              "internalType": "address",
              "name": "token1",
              "type": "address"
            },
            {
              "internalType": "uint24",
              "name": "fee",
              "type": "uint24"
            }
          ],
          "internalType": "struct PoolKey",
          "name": "key",
          "type": "tuple"
        },
        {
          "internalType": "address",
          "name": "trader",
          "type": "address"
        },
        {
          "internalType": "bool",
          "name": "borrowToken1",
          "type": "bool"
        },
        {
          "internalType": "uint256",
          "name": "amount",
          "type": "uint256"
        }
      ],
      "name": "depositPremium",
      "outputs": [],
      "stateMutability": "nonpayable",
      "type": "function"
    },
    {
      "inputs": [],
      "name": "executioner",
      "outputs": [
        {
          "internalType": "contract Executioner",
          "name": "",
          "type": "address"
        }
      ],
      "stateMutability": "view",
      "type": "function"
    },
    {
      "inputs": [
        {
          "components": [
            {
              "internalType": "address",
              "name": "token0",
              "type": "address"
            },
            {
              "internalType": "address",
              "name": "token1",
              "type": "address"
            },
            {
              "internalType": "uint24",
              "name": "fee",
              "type": "uint24"
            }
          ],
          "internalType": "struct PoolKey",
          "name": "key",
          "type": "tuple"
        },
        {
          "components": [
            {
              "internalType": "address",
              "name": "trader",
              "type": "address"
            },
            {
              "internalType": "bool",
              "name": "positionIsToken0",
              "type": "bool"
            },
            {
              "internalType": "uint256",
              "name": "fillerPayAmount",
              "type": "uint256"
            },
            {
              "internalType": "int24",
              "name": "slippedTickMin",
              "type": "int24"
            },
            {
              "internalType": "int24",
              "name": "slippedTickMax",
              "type": "int24"
            }
          ],
          "internalType": "struct ForceCloseParams",
          "name": "param",
          "type": "tuple"
        }
      ],
      "name": "forceClose",
      "outputs": [
        {
          "internalType": "uint256",
          "name": "premium",
          "type": "uint256"
        }
      ],
      "stateMutability": "nonpayable",
      "type": "function"
    },
    {
      "inputs": [
        {
          "internalType": "address",
          "name": "pool",
          "type": "address"
        },
        {
          "internalType": "address",
          "name": "borrower",
          "type": "address"
        },
        {
          "internalType": "bool",
          "name": "borrowedToken1",
          "type": "bool"
        }
      ],
      "name": "getBorrowInfo",
      "outputs": [
        {
          "components": [
            {
              "internalType": "int24",
              "name": "tick",
              "type": "int24"
            },
            {
              "internalType": "uint128",
              "name": "liquidity",
              "type": "uint128"
            },
            {
              "internalType": "uint256",
              "name": "premium",
              "type": "uint256"
            },
            {
              "internalType": "uint256",
              "name": "feeGrowthInside0LastX128",
              "type": "uint256"
            },
            {
              "internalType": "uint256",
              "name": "feeGrowthInside1LastX128",
              "type": "uint256"
            },
            {
              "internalType": "uint256",
              "name": "lastGrowth",
              "type": "uint256"
            }
          ],
          "internalType": "struct LiquidityLoan[]",
          "name": "",
          "type": "tuple[]"
        }
      ],
      "stateMutability": "view",
      "type": "function"
    },
    {
      "inputs": [
        {
          "internalType": "address",
          "name": "pool",
          "type": "address"
        },
        {
          "internalType": "address",
          "name": "trader",
          "type": "address"
        },
        {
          "internalType": "bool",
          "name": "positionIsToken0",
          "type": "bool"
        }
      ],
      "name": "getLastRepayTime",
      "outputs": [
        {
          "internalType": "uint32",
          "name": "",
          "type": "uint32"
        }
      ],
      "stateMutability": "view",
      "type": "function"
    },
    {
      "inputs": [
        {
          "internalType": "address",
          "name": "pool",
          "type": "address"
        },
        {
          "internalType": "address",
          "name": "trader",
          "type": "address"
        },
        {
          "internalType": "bool",
          "name": "positionIsToken0",
          "type": "bool"
        },
        {
          "internalType": "bool",
          "name": "isAdd",
          "type": "bool"
        }
      ],
      "name": "getOrderId",
      "outputs": [
        {
          "internalType": "bytes32",
          "name": "",
          "type": "bytes32"
        }
      ],
      "stateMutability": "pure",
      "type": "function"
    },
    {
      "inputs": [
        {
          "internalType": "address",
          "name": "pool",
          "type": "address"
        },
        {
          "internalType": "address",
          "name": "trader",
          "type": "address"
        },
        {
          "internalType": "bool",
          "name": "positionIsToken0",
          "type": "bool"
        }
      ],
      "name": "getPosition",
      "outputs": [
        {
          "components": [
            {
              "components": [
                {
                  "internalType": "address",
                  "name": "pool",
                  "type": "address"
                },
                {
                  "internalType": "bool",
                  "name": "isToken0",
                  "type": "bool"
                },
                {
                  "internalType": "uint256",
                  "name": "totalDebtOutput",
                  "type": "uint256"
                },
                {
                  "internalType": "uint256",
                  "name": "totalDebtInput",
                  "type": "uint256"
                },
                {
                  "internalType": "uint32",
                  "name": "lastPremiumPaymentTime",
                  "type": "uint32"
                },
                {
                  "internalType": "uint32",
                  "name": "openTime",
                  "type": "uint32"
                },
                {
                  "components": [
                    {
                      "internalType": "int24",
                      "name": "tick",
                      "type": "int24"
                    },
                    {
                      "internalType": "uint128",
                      "name": "liquidity",
                      "type": "uint128"
                    },
                    {
                      "internalType": "uint256",
                      "name": "premium",
                      "type": "uint256"
                    },
                    {
                      "internalType": "uint256",
                      "name": "feeGrowthInside0LastX128",
                      "type": "uint256"
                    },
                    {
                      "internalType": "uint256",
                      "name": "feeGrowthInside1LastX128",
                      "type": "uint256"
                    },
                    {
                      "internalType": "uint256",
                      "name": "lastGrowth",
                      "type": "uint256"
                    }
                  ],
                  "internalType": "struct LiquidityLoan[]",
                  "name": "borrowInfo",
                  "type": "tuple[]"
                }
              ],
              "internalType": "struct Position",
              "name": "base",
              "type": "tuple"
            },
            {
              "internalType": "uint256",
              "name": "totalPosition",
              "type": "uint256"
            },
            {
              "internalType": "uint256",
              "name": "margin",
              "type": "uint256"
            },
            {
              "internalType": "bool",
              "name": "marginInPosToken",
              "type": "bool"
            }
          ],
          "internalType": "struct MarginPosition",
          "name": "",
          "type": "tuple"
        }
      ],
      "stateMutability": "view",
      "type": "function"
    },
    {
      "inputs": [
        {
          "internalType": "address",
          "name": "pool",
          "type": "address"
        },
        {
          "internalType": "address",
          "name": "trader",
          "type": "address"
        },
        {
          "internalType": "bool",
          "name": "positionIsToken0",
          "type": "bool"
        }
      ],
      "name": "getPositionId",
      "outputs": [
        {
          "internalType": "PositionId",
          "name": "",
          "type": "bytes32"
        }
      ],
      "stateMutability": "pure",
      "type": "function"
    },
    {
      "inputs": [
        {
          "internalType": "address",
          "name": "pm",
          "type": "address"
        },
        {
          "internalType": "address",
          "name": "ex",
          "type": "address"
        }
      ],
      "name": "initialize",
      "outputs": [],
      "stateMutability": "nonpayable",
      "type": "function"
    },
    {
      "inputs": [
        {
          "internalType": "address",
          "name": "",
          "type": "address"
        }
      ],
      "name": "isWhitelistedFiller",
      "outputs": [
        {
          "internalType": "bool",
          "name": "",
          "type": "bool"
        }
      ],
      "stateMutability": "view",
      "type": "function"
    },
    {
      "inputs": [
        {
          "internalType": "bytes[]",
          "name": "data",
          "type": "bytes[]"
        }
      ],
      "name": "multicall",
      "outputs": [
        {
          "internalType": "bytes[]",
          "name": "results",
          "type": "bytes[]"
        }
      ],
      "stateMutability": "nonpayable",
      "type": "function"
    },
    {
      "inputs": [
        {
          "internalType": "bytes32",
          "name": "",
          "type": "bytes32"
        }
      ],
      "name": "orders",
      "outputs": [
        {
          "components": [
            {
              "internalType": "address",
              "name": "token0",
              "type": "address"
            },
            {
              "internalType": "address",
              "name": "token1",
              "type": "address"
            },
            {
              "internalType": "uint24",
              "name": "fee",
              "type": "uint24"
            }
          ],
          "internalType": "struct PoolKey",
          "name": "key",
          "type": "tuple"
        },
        {
          "internalType": "bool",
          "name": "positionIsToken0",
          "type": "bool"
        },
        {
          "internalType": "uint32",
          "name": "auctionDeadline",
          "type": "uint32"
        },
        {
          "internalType": "uint32",
          "name": "auctionStartTime",
          "type": "uint32"
        },
        {
          "internalType": "uint256",
          "name": "startOutput",
          "type": "uint256"
        },
        {
          "internalType": "uint256",
          "name": "minOutput",
          "type": "uint256"
        },
        {
          "internalType": "uint256",
          "name": "inputAmount",
          "type": "uint256"
        },
        {
          "internalType": "uint256",
          "name": "decayRate",
          "type": "uint256"
        },
        {
          "internalType": "uint256",
          "name": "margin",
          "type": "uint256"
        }
      ],
      "stateMutability": "view",
      "type": "function"
    },
    {
      "inputs": [
        {
          "components": [
            {
              "internalType": "address",
              "name": "token0",
              "type": "address"
            },
            {
              "internalType": "address",
              "name": "token1",
              "type": "address"
            },
            {
              "internalType": "uint24",
              "name": "fee",
              "type": "uint24"
            }
          ],
          "internalType": "struct PoolKey",
          "name": "key",
          "type": "tuple"
        },
        {
          "internalType": "bool",
          "name": "payToken1",
          "type": "bool"
        },
        {
          "internalType": "uint256",
          "name": "depositAmount",
          "type": "uint256"
        }
      ],
      "name": "payPremium",
      "outputs": [
        {
          "internalType": "uint256",
          "name": "premiumOwed",
          "type": "uint256"
        }
      ],
      "stateMutability": "nonpayable",
      "type": "function"
    },
    {
      "inputs": [
        {
          "internalType": "PositionId",
          "name": "",
          "type": "bytes32"
        }
      ],
      "name": "positions",
      "outputs": [
        {
          "components": [
            {
              "internalType": "address",
              "name": "pool",
              "type": "address"
            },
            {
              "internalType": "bool",
              "name": "isToken0",
              "type": "bool"
            },
            {
              "internalType": "uint256",
              "name": "totalDebtOutput",
              "type": "uint256"
            },
            {
              "internalType": "uint256",
              "name": "totalDebtInput",
              "type": "uint256"
            },
            {
              "internalType": "uint32",
              "name": "lastPremiumPaymentTime",
              "type": "uint32"
            },
            {
              "internalType": "uint32",
              "name": "openTime",
              "type": "uint32"
            },
            {
              "components": [
                {
                  "internalType": "int24",
                  "name": "tick",
                  "type": "int24"
                },
                {
                  "internalType": "uint128",
                  "name": "liquidity",
                  "type": "uint128"
                },
                {
                  "internalType": "uint256",
                  "name": "premium",
                  "type": "uint256"
                },
                {
                  "internalType": "uint256",
                  "name": "feeGrowthInside0LastX128",
                  "type": "uint256"
                },
                {
                  "internalType": "uint256",
                  "name": "feeGrowthInside1LastX128",
                  "type": "uint256"
                },
                {
                  "internalType": "uint256",
                  "name": "lastGrowth",
                  "type": "uint256"
                }
              ],
              "internalType": "struct LiquidityLoan[]",
              "name": "borrowInfo",
              "type": "tuple[]"
            }
          ],
          "internalType": "struct Position",
          "name": "base",
          "type": "tuple"
        },
        {
          "internalType": "uint256",
          "name": "totalPosition",
          "type": "uint256"
        },
        {
          "internalType": "uint256",
          "name": "margin",
          "type": "uint256"
        },
        {
          "internalType": "bool",
          "name": "marginInPosToken",
          "type": "bool"
        }
      ],
      "stateMutability": "view",
      "type": "function"
    },
    {
      "inputs": [
        {
          "components": [
            {
              "internalType": "address",
              "name": "token0",
              "type": "address"
            },
            {
              "internalType": "address",
              "name": "token1",
              "type": "address"
            },
            {
              "internalType": "uint24",
              "name": "fee",
              "type": "uint24"
            }
          ],
          "internalType": "struct PoolKey",
          "name": "key",
          "type": "tuple"
        },
        {
          "components": [
            {
              "internalType": "bool",
              "name": "positionIsToken0",
              "type": "bool"
            },
            {
              "internalType": "uint256",
              "name": "reducePercentage",
              "type": "uint256"
            },
            {
              "internalType": "uint256",
              "name": "minOutput",
              "type": "uint256"
            },
            {
              "internalType": "address",
              "name": "trader",
              "type": "address"
            },
            {
              "internalType": "uint256",
              "name": "executionOption",
              "type": "uint256"
            },
            {
              "internalType": "bytes",
              "name": "executionData",
              "type": "bytes"
            },
            {
              "internalType": "int24",
              "name": "slippedTickMin",
              "type": "int24"
            },
            {
              "internalType": "int24",
              "name": "slippedTickMax",
              "type": "int24"
            },
            {
              "internalType": "uint256",
              "name": "reduceAmount",
              "type": "uint256"
            }
          ],
          "internalType": "struct ReduceParam",
          "name": "param",
          "type": "tuple"
        }
      ],
      "name": "reducePosition",
      "outputs": [
        {
          "components": [
            {
              "internalType": "int256",
              "name": "amount0",
              "type": "int256"
            },
            {
              "internalType": "int256",
              "name": "amount1",
              "type": "int256"
            },
            {
              "internalType": "int256",
              "name": "PnL",
              "type": "int256"
            },
            {
              "internalType": "uint256",
              "name": "returnedAmount",
              "type": "uint256"
            },
            {
              "internalType": "uint256",
              "name": "repaidDebt0",
              "type": "uint256"
            },
            {
              "internalType": "uint256",
              "name": "repaidDebt1",
              "type": "uint256"
            },
            {
              "internalType": "uint256",
              "name": "premium",
              "type": "uint256"
            },
            {
              "internalType": "uint256",
              "name": "profitFee",
              "type": "uint256"
            }
          ],
          "internalType": "struct ReduceReturn",
          "name": "",
          "type": "tuple"
        }
      ],
      "stateMutability": "nonpayable",
      "type": "function"
    },
    {
      "inputs": [
        {
          "internalType": "address",
          "name": "newOwner",
          "type": "address"
        }
      ],
      "name": "setOwner",
      "outputs": [],
      "stateMutability": "nonpayable",
      "type": "function"
    },
    {
      "inputs": [
        {
          "internalType": "address",
          "name": "poolManager_",
          "type": "address"
        },
        {
          "internalType": "address",
          "name": "executioner_",
          "type": "address"
        }
      ],
      "name": "setProtocolContracts",
      "outputs": [],
      "stateMutability": "nonpayable",
      "type": "function"
    },
    {
      "inputs": [
        {
          "internalType": "address",
          "name": "pool",
          "type": "address"
        },
        {
          "internalType": "bool",
          "name": "positionIsToken0",
          "type": "bool"
        },
        {
          "internalType": "bool",
          "name": "isAdd",
          "type": "bool"
        },
        {
          "internalType": "uint256",
          "name": "deadline",
          "type": "uint256"
        },
        {
          "internalType": "uint256",
          "name": "startOutput",
          "type": "uint256"
        },
        {
          "internalType": "uint256",
          "name": "minOutput",
          "type": "uint256"
        },
        {
          "internalType": "uint256",
          "name": "inputAmount",
          "type": "uint256"
        },
        {
          "internalType": "uint256",
          "name": "decayRate",
          "type": "uint256"
        },
        {
          "internalType": "uint256",
          "name": "margin",
          "type": "uint256"
        }
      ],
      "name": "submitOrder",
      "outputs": [],
      "stateMutability": "nonpayable",
      "type": "function"
    },
    {
      "inputs": [
        {
          "components": [
            {
              "internalType": "address",
              "name": "token0",
              "type": "address"
            },
            {
              "internalType": "address",
              "name": "token1",
              "type": "address"
            },
            {
              "internalType": "uint24",
              "name": "fee",
              "type": "uint24"
            }
          ],
          "internalType": "struct PoolKey",
          "name": "key",
          "type": "tuple"
        },
        {
          "internalType": "address",
          "name": "trader",
          "type": "address"
        },
        {
          "internalType": "bool",
          "name": "borrowToken1",
          "type": "bool"
        },
        {
          "internalType": "uint256",
          "name": "toSwapAmount",
          "type": "uint256"
        },
        {
          "internalType": "uint256",
          "name": "minOutput",
          "type": "uint256"
        }
      ],
      "name": "swapAndDepositPremium",
      "outputs": [],
      "stateMutability": "nonpayable",
      "type": "function"
    },
    {
      "inputs": [
        {
          "components": [
            {
              "internalType": "address",
              "name": "token0",
              "type": "address"
            },
            {
              "internalType": "address",
              "name": "token1",
              "type": "address"
            },
            {
              "internalType": "uint24",
              "name": "fee",
              "type": "uint24"
            }
          ],
          "internalType": "struct PoolKey",
          "name": "key",
          "type": "tuple"
        },
        {
          "internalType": "bool",
          "name": "borrowToken1",
          "type": "bool"
        },
        {
          "internalType": "uint256",
          "name": "amount",
          "type": "uint256"
        },
        {
          "internalType": "bool",
          "name": "isClose",
          "type": "bool"
        }
      ],
      "name": "withdrawPremium",
      "outputs": [],
      "stateMutability": "nonpayable",
      "type": "function"
    }
  ],
  "bytecode": "0x608060405234801561001057600080fd5b50615fc980620000216000396000f3fe608060405234801561001057600080fd5b50600436106101c45760003560e01c80638c1395f8116100f9578063dbe5f6cb11610097578063e2dad6fa11610071578063e2dad6fa146104f9578063e5c9c2ed1461050c578063f2edf95a1461051f578063f6f0ea891461053257600080fd5b8063dbe5f6cb146104a8578063dc6ab02f146104bb578063de074f10146104e657600080fd5b8063b68e3c33116100d3578063b68e3c3314610447578063bcb92fa51461045a578063bfd4c2a51461046d578063d93a90471461048057600080fd5b80638c1395f8146103525780639c3f1e9014610372578063ac9650d81461042757600080fd5b8063514ea4bf116101665780635d4936ff116101405780635d4936ff146102cc57806360958fe0146102ec578063657b5a4b146102ff5780637a3085041461031f57600080fd5b8063514ea4bf146102755780635277a3241461029857806352b38902146102b957600080fd5b806328ec7232116101a257806328ec72321461021a5780632a6f8a541461022d5780633eb4adab1461024f578063485cc9551461026257600080fd5b806313af4035146101c9578063228e062a146101de57806327bd6f83146101f1575b600080fd5b6101dc6101d7366004613be1565b610545565b005b6101dc6101ec366004613c17565b61059a565b6102046101ff366004613e62565b610745565b6040516102119190613fa0565b60405180910390f35b6101dc610228366004613faf565b61137c565b61024061023b3660046140f6565b611468565b60405161021193929190614352565b6101dc61025d366004614377565b611dfa565b6101dc610270366004614377565b61204b565b6102886102833660046143b0565b61215f565b60405161021194939291906143c9565b6102ab6102a63660046143fa565b612289565b604051908152602001610211565b6101dc6102c73660046144b1565b6128f7565b6102ab6102da3660046143b0565b60046020526000908152604090205481565b6101dc6102fa366004613be1565b612999565b61031261030d36600461450b565b6129ec565b6040516102119190614580565b61034261032d366004613be1565b60076020526000908152604090205460ff1681565b6040519015158152602001610211565b61036561036036600461450b565b612b59565b6040516102119190614593565b6104126103803660046143b0565b600560208181526000928352604092839020835160608101855281546001600160a01b039081168252600183015490811693820193909352600160a01b90920462ffffff1693820193909352600283015460038401546004850154938501546006860154600790960154939560ff841695610100850463ffffffff908116966501000000000090960416949092919089565b604051610211999897969594939291906145d2565b61043a610435366004614625565b612cc4565b60405161021191906146e9565b6101dc610455366004614377565b612db9565b6101dc61046836600461474b565b612e1d565b6102ab61047b36600461479d565b612ea9565b61049361048e36600461450b565b612f0d565b60405163ffffffff9091168152602001610211565b6101dc6104b63660046147ee565b612f40565b6001546104ce906001600160a01b031681565b6040516001600160a01b039091168152602001610211565b6102ab6104f436600461483e565b612f91565b610342610507366004614892565b61314e565b6101dc61051a366004614377565b61320e565b61034261052d36600461450b565b6132c5565b6102ab61054036600461450b565b6132f3565b6002546001600160a01b031633146105785760405162461bcd60e51b815260040161056f906149ee565b60405180910390fd5b600280546001600160a01b0319166001600160a01b0392909216919091179055565b6003546001146105bc5760405162461bcd60e51b815260040161056f90614a0e565b60026003558661060d57826105d28a338b612b59565b60200151101561060d5760405162461bcd60e51b815260040161056f9060208082526004908201526321706f7360e01b604082015260600190565b6005600061061d8b338c8c612ea9565b81526020810191909152604090810160002090516319b5cb0360e01b81526004810191909152881515602482015260448101879052606481018690526084810185905260a4810184905260c4810183905260e4810182905273__$506f8190e26c635088963c8a0018e71746$__906319b5cb03906101040160006040518083038186803b1580156106ad57600080fd5b505af41580156106c1573d6000803e3d6000fd5b5050604080518a15158152602081018a9052908101889052606081018790526080810186905260a0810185905260c081018490523392508a151591506001600160a01b038c16907f4c34e64fbcdd268148a9e26a3b2c922bd24162485ce0b2ba28e4ce57d9a2c33c9060e00160405180910390a45050600160035550505050505050565b61074d613927565b60035460011461076f5760405162461bcd60e51b815260040161056f90614a0e565b600260035561077c61396c565b610784613927565b600054604051639525092360e01b8152620100009091046001600160a01b0316906395250923906107b9908890600401614a8c565b6101c060405180830381865afa1580156107d7573d6000803e3d6000fd5b505050506040513d601f19601f820116820180604052508101906107fb9190614b7e565b61016085015260020b60208401526001600160a01b031680835260608501518551600092600692849261082f9291906132f3565b8152602001908152602001600020905060008160050154116108815760405162461bcd60e51b815260206004820152600b60248201526a3737903837b9b4ba34b7b760a91b604482015260640161056f565b600573__$506f8190e26c635088963c8a0018e71746$__63f175701d9091600788856108bc89600001518c606001518d600001516000612ea9565b6040518663ffffffff1660e01b81526004016108dc959493929190614cdb565b606060405180830381865af41580156108f9573d6000803e3d6000fd5b505050506040513d601f19601f8201168201806040525081019061091d9190614dab565b6020880152610100850152604080850191909152805160e08101909152606090610a4a9080610951368b90038b018b614dd9565b815260200184600001600401805480602002602001604051908101604052809291908181526020016000905b828210156109f45760008481526020908190206040805160c081018252600586029092018054600281810b855263010000009091046001600160801b031684860152600180830154938501939093528101546060840152600381015460808401526004015460a0830152908352909201910161097d565b50505050815260200186600001516001600160a01b0316815260200188606001516001600160a01b031681526020018860000151151581526020018661016001518152602001866020015160020b81525061334a565b60c08501919091526020870151909150670de0b6b3a764000014610b89576004820180546040805160208084028201810190925282815292919060009084015b82821015610b015760008481526020908190206040805160c081018252600586029092018054600281810b855263010000009091046001600160801b031684860152600180830154938501939093528101546060840152600381015460808401526004015460a08301529083529092019101610a8a565b50505050602087015160405163069b8a8b60e31b815273__$d23a8dd93b7205fa6b646ffed38c165d68$__926334dc545892610b3f92600401614e48565b600060405180830381865af4158015610b5c573d6000803e3d6000fd5b505050506040513d6000823e601f3d908101601f19168201604052610b849190810190614f21565b610c27565b6004820180546040805160208084028201810190925282815292919060009084015b82821015610c225760008481526020908190206040805160c081018252600586029092018054600281810b855263010000009091046001600160801b031684860152600180830154938501939093528101546060840152600381015460808401526004015460a08301529083529092019101610bab565b505050505b6101808501526006820154610140850152600782015460ff1615156101c085015260058201546101008501511015610cd8576101008401516020870151610180860151604051631b74fb1560e31b815273__$506f8190e26c635088963c8a0018e71746$__9363dba7d8a893610ca39388938890600401614f55565b60006040518083038186803b158015610cbb57600080fd5b505af4158015610ccf573d6000803e3d6000fd5b50505050610d5e565b835160608701518751600692600092610cf0926132f3565b81526020810191909152604001600090812080546001600160a81b0319168155600181018290556002810182905560038101805467ffffffffffffffff19169055908181610d4160048301826139ec565b5050600060058301819055600683015550600701805460ff191690555b83600001516001600160a01b0316633850c7bd6040518163ffffffff1660e01b815260040160e060405180830381865afa158015610da0573d6000803e3d6000fd5b505050506040513d601f19601f82011682018060405250810190610dc49190614fa3565b50505050600291820b608088018190526001600160a01b0390931660608801525060c0880151900b1380610e055750836080015160020b8660e0015160020b125b15610e2357604051631e6012f360e21b815260040160405180910390fd5b6101808401516040516337a6142160e01b815273__$d23a8dd93b7205fa6b646ffed38c165d68$__916337a6142191610e5f9190600401614580565b6040805180830381865af4158015610e7b573d6000803e3d6000fd5b505050506040513d601f19601f82011682018060405250810190610e9f919061503b565b600290810b60c0870181905291810b60a0870181905288516080880151602089015160405163146d722d60e31b8152921515600484015290840b60248301526044820194909452606481019190915291900b608482015260009073__$d23a8dd93b7205fa6b646ffed38c165d68$__9063a36b91689060a401602060405180830381865af4158015610f35573d6000803e3d6000fd5b505050506040513d601f19601f82011682018060405250810190610f59919061506a565b9050806001036110e457604080516060810182526000546001600160a01b0362010000909104811682526001541660208201526101c08701511515818301529051631d6c0b8760e21b815273__$506f8190e26c635088963c8a0018e71746$__916375b02e1c91610fd5918b9189918e918c919060040161510b565b600060405180830381865af4158015610ff2573d6000803e3d6000fd5b505050506040513d6000823e601f3d908101601f1916820160405261101a9190810190615337565b610120810151909650909450156110df576110ac856101c001516110605787516110505761104b60208a018a613be1565b611083565b61104b60408a0160208b01613be1565b87516110765761104b60408a0160208b01613be1565b61108360208a018a613be1565b60025461012088015160e08801516001600160a01b03909216916110a791906154a9565b613435565b6110df6110be368a90038a018a614dd9565b866101c001516110cf5788516110d3565b8851155b876101200151856134b3565b6112e1565b8060020361119c5773__$506f8190e26c635088963c8a0018e71746$__63c132482686610180015189878c8a6101400151600060029054906101000a90046001600160a01b03168c61010001516040518863ffffffff1660e01b815260040161115397969594939291906154bc565b61010060405180830381865af4158015611171573d6000803e3d6000fd5b505050506040513d601f19601f82011682018060405250810190611195919061552c565b93506112e1565b8660800151600114806111b3575086608001516002145b1561122a57604080516060810182526000546001600160a01b0362010000909104811682526001541660208201526101c0870151151581830152905163beea76f360e01b815273__$506f8190e26c635088963c8a0018e71746$__9163beea76f391611153918b9189918e918c919060040161510b565b604080516060810182526000546001600160a01b0362010000909104811682526001541660208201526101c0870151151581830152905163011267d160e11b815273__$506f8190e26c635088963c8a0018e71746$__91630224cfa29161129c918b9189918e918c919060040161510b565b61010060405180830381865af41580156112ba573d6000803e3d6000fd5b505050506040513d601f19601f820116820180604052508101906112de919061552c565b93505b606087810151885187516101c08901516101008a015160c08a81015160e08c01516040808e0151815196151587523360208801529086019490945297840152608083019690965260a08201526001600160a01b039384169492151593909116917fe687346d878e748af1e8564403d8d1759ff9cf133ecaef8173297e357a442e0c910160405180910390a45050600160035550949350505050565b60035460011461139e5760405162461bcd60e51b815260040161056f90614a0e565b6002600355600560006113b385338686612ea9565b81526020808201929092526040908101600090812080546001600160a01b03191681556001810180546001600160b81b031916905560028101805468ffffffffffffffffff1916905560038101829055600481018290556005810182905560068101829055600701555182151581523391841515916001600160a01b038716917f761fde4703b3eb1ca92675208248e655ce58d6778c95e6e742ab9819a7f3d93d910160405180910390a45050600160035550565b611470613a10565b6000806003546001146114955760405162461bcd60e51b815260040161056f90614a0e565b60026003556114a2613a72565b600054604051639525092360e01b8152620100009091046001600160a01b0316906395250923906114d7908a90600401614a8c565b6101c060405180830381865afa1580156114f5573d6000803e3d6000fd5b505050506040513d601f19601f820116820180604052508101906115199190614b7e565b604084015260020b60208301526001600160a01b031680825260c08701516080880151600092600692849261154f9291906132f3565b8152602001908152602001600020905080600501546000146115b757610140870151600782015460ff161515901515146115b75760405162461bcd60e51b81526020600482015260096024820152683234b326b0b933b4b760b91b604482015260640161056f565b600573__$506f8190e26c635088963c8a0018e71746$__63f2f5c953909160076115f086600001518c60c001518d608001516001612ea9565b8b6040518563ffffffff1660e01b81526004016116109493929190615607565b600060405180830381865af415801561162d573d6000803e3d6000fd5b505050506040513d6000823e601f3d908101601f191682016040526116559190810190615743565b60608401919091526101408101519097506116cd906116995787608001516116895761168460208a018a613be1565b6116bf565b61168460408a0160208b01613be1565b87608001516116b25761168460408a0160208b01613be1565b6116bf60208a018a613be1565b60c08901518951309061355e565b60005461014088015160025460405163d15311e760e01b815273__$506f8190e26c635088963c8a0018e71746$__9363d15311e79361172b938e938e938e936001600160a01b03620100009092048216939092911690600401615789565b600060405180830381865af4158015611748573d6000803e3d6000fd5b505050506040513d6000823e601f3d908101601f1916820160405261177091908101906157ea565b60808601929092529850965092506117a0611790368a90038a018a614dd9565b88608001518460800151896134b3565b8151600054602084015160408086015151905163cf2778e960e01b815273__$eacbb88ed4bd2af84aa4d43bcf675bcf7e$__9463cf2778e9946117fb949193620100009091046001600160a01b0316928d9190600401615860565b600060405180830381865af4158015611818573d6000803e3d6000fd5b505050506040513d6000823e601f3d908101601f191682016040526118409190810190614f21565b608088015160208401516040516341533fe760e01b815292985073__$d23a8dd93b7205fa6b646ffed38c165d68$__926341533fe792611884928b926004016158dc565b602060405180830381865af41580156118a1573d6000803e3d6000fd5b505050506040513d601f19601f820116820180604052508101906118c5919061506a565b60e0830152600481015415611a745760606119ed6040518060e001604052808b8036038101906118f59190614dd9565b815260200184600001600401805480602002602001604051908101604052809291908181526020016000905b828210156119985760008481526020908190206040805160c081018252600586029092018054600281810b855263010000009091046001600160801b031684860152600180830154938501939093528101546060840152600381015460808401526004015460a08301529083529092019101611921565b50505050815260200185600001516001600160a01b031681526020018a60c001516001600160a01b031681526020018a608001511515815260200185604001518152602001856020015160020b81525061334a565b604051630b7cb7c160e01b8152919650915073__$d23a8dd93b7205fa6b646ffed38c165d68$__90630b7cb7c190611a2b908a908590600401615909565b600060405180830381865af4158015611a48573d6000803e3d6000fd5b505050506040513d6000823e601f3d908101601f19168201604052611a709190810190614f21565b9650505b73__$506f8190e26c635088963c8a0018e71746$__6319f4c2eb888a8560e00151600160009054906101000a90046001600160a01b0316876000015188606001518e6101400151611ac6576000611ac9565b8e515b6040518863ffffffff1660e01b8152600401611aeb9796959493929190615937565b6040805180830381865af4158015611b07573d6000803e3d6000fd5b505050506040513d601f19601f82011682018060405250810190611b2b919061598c565b60c084015260a083015260e0820151608088015173__$506f8190e26c635088963c8a0018e71746$__91632907f5c49184918b918b9190611b79578760c00151611b74906159b0565b611b87565b8760a00151611b87906159b0565b8d61014001516040518763ffffffff1660e01b8152600401611bae969594939291906159cc565b60006040518083038186803b158015611bc657600080fd5b505af4158015611bda573d6000803e3d6000fd5b5050604080516101608101825284546001600160a01b03811660808301908152600160a01b90910460ff16151560a0830152600186015460c0830152600286015460e0830152600386015463ffffffff80821661010085015264010000000090910416610120830152600486018054845160208083028201810190965281815293965087955086949293869361014087019391929060009084015b82821015611cec5760008481526020908190206040805160c081018252600586029092018054600281810b855263010000009091046001600160801b031684860152600180830154938501939093528101546060840152600381015460808401526004015460a08301529083529092019101611c75565b505050915250508152600582015460208201526006820154604082015260079091015460ff16151560609091015260c0880151608089015184516101408b01519398506001600160a01b039283169382151593909116917f66241d9e6f322aa9312bb633fb45fddd47dfa1d3f3cf201d6416ef20ba9c608f91903390611d7f578760c00151611d7a906159b0565b611d8d565b8760a00151611d8d906159b0565b8d5160608f0151604051611ddf9594939291908e908e9096151587526001600160a01b0395909516602087015260408601939093526060850191909152608084015260a083015260c082015260e00190565b60405180910390a45050600160038190555093509350939050565b6000546201000090046001600160a01b0316331480611e2357506002546001600160a01b031633145b611e575760405162461bcd60e51b8152602060048201526005602482015264042c2eae8d60db1b604482015260640161056f565b60005460405163095ea7b360e01b8152620100009091046001600160a01b039081166004830152600019602483015283169063095ea7b3906044016020604051808303816000875af1158015611eb1573d6000803e3d6000fd5b505050506040513d601f19601f82011682018060405250810190611ed59190615a18565b5060005460405163095ea7b360e01b8152620100009091046001600160a01b039081166004830152600019602483015282169063095ea7b3906044016020604051808303816000875af1158015611f30573d6000803e3d6000fd5b505050506040513d601f19601f82011682018060405250810190611f549190615a18565b5060015460405163095ea7b360e01b81526001600160a01b03918216600482015260001960248201529083169063095ea7b3906044016020604051808303816000875af1158015611fa9573d6000803e3d6000fd5b505050506040513d601f19601f82011682018060405250810190611fcd9190615a18565b5060015460405163095ea7b360e01b81526001600160a01b03918216600482015260001960248201529082169063095ea7b3906044016020604051808303816000875af1158015612022573d6000803e3d6000fd5b505050506040513d601f19601f820116820180604052508101906120469190615a18565b505050565b600054610100900460ff161580801561206b5750600054600160ff909116105b806120855750303b158015612085575060005460ff166001145b6120e85760405162461bcd60e51b815260206004820152602e60248201527f496e697469616c697a61626c653a20636f6e747261637420697320616c72656160448201526d191e481a5b9a5d1a585b1a5e995960921b606482015260840161056f565b6000805460ff19166001179055801561210b576000805461ff0019166101001790555b612115838361320e565b8015612046576000805461ff0019169055604051600181527f7f26b83ff96e1f2b6a682f133852f6798a09c465da95921460cefb38474024989060200160405180910390a1505050565b6006602090815260009182526040808320815160e08101835281546001600160a01b0381168252600160a01b900460ff1615158185015260018201548184015260028201546060820152600382015463ffffffff80821660808401526401000000009091041660a082015260048201805484518187028101870190955280855292959194869460c08701949093909184015b828210156122685760008481526020908190206040805160c081018252600586029092018054600281810b855263010000009091046001600160801b031684860152600180830154938501939093528101546060840152600381015460808401526004015460a083015290835290920191016121f1565b50505091525050600582015460068301546007909301549192909160ff1684565b60006003546001146122ad5760405162461bcd60e51b815260040161056f90614a0e565b60026003553360009081526007602052604090205460ff166122fe5760405162461bcd60e51b815260206004820152600a6024820152693737ba103334b63632b960b11b604482015260640161056f565b612306613ac5565b600054604051639525092360e01b8152620100009091046001600160a01b03169063952509239061233b908790600401614a8c565b6101c060405180830381865afa158015612359573d6000803e3d6000fd5b505050506040513d601f19601f8201168201806040525081019061237d9190614b7e565b604084015260020b6020808401919091526001600160a01b039091168083528451918501516123ac9290612b59565b606082018190528151845160208601516123cb9388939092909161314e565b6123fd5760405162461bcd60e51b815260206004820152600360248201526221666360e81b604482015260640161056f565b80600001516001600160a01b0316633850c7bd6040518163ffffffff1660e01b815260040160e060405180830381865afa15801561243f573d6000803e3d6000fd5b505050506040513d601f19601f820116820180604052508101906124639190614fa3565b50505050600291820b60a085018190526001600160a01b039093166080850152506060850151900b13806124a457508060a0015160020b836080015160020b125b156124c257604051631e6012f360e21b815260040160405180910390fd5b60608101515160c0015160208085015160a08401519184015160405163374b7d3d60e11b815260009473__$d23a8dd93b7205fa6b646ffed38c165d68$__94636e96fa7a94612518949293909290600401615a35565b602060405180830381865af4158015612535573d6000803e3d6000fd5b505050506040513d601f19601f82011682018060405250810190612559919061506a565b90508060010361260c57606082015160208082015160408088015192880151935160c0015160015460005492516325d3777560e01b815273__$506f8190e26c635088963c8a0018e71746$__966325d37775966125d7968e9690959194929391926001600160a01b0390811692620100009092041690600401615a68565b60006040518083038186803b1580156125ef57600080fd5b505af4158015612603573d6000803e3d6000fd5b5050505061275a565b80600203612677576060820151805160c001516020918201519186015160005460405163ad6c502560e01b815273__$506f8190e26c635088963c8a0018e71746$__9463ad6c5025946125d7948c94919390916201000090046001600160a01b031690600401615ac6565b73__$506f8190e26c635088963c8a0018e71746$__6382e824478684606001516000015160c00151856060015160200151886020015187602001518860a0015189608001518c60400151600160009054906101000a90046001600160a01b0316600060029054906101000a90046001600160a01b0316600260009054906101000a90046001600160a01b03166040518c63ffffffff1660e01b81526004016127299b9a99989796959493929190615b0c565b60006040518083038186803b15801561274157600080fd5b505af4158015612755573d6000803e3d6000fd5b505050505b6127dc6040518060e00160405280878036038101906127799190614dd9565b815260200184606001516000015160c00151815260200184600001516001600160a01b0316815260200186600001516001600160a01b0316815260200186602001511515815260200184604001518152602001846020015160020b8152506135e8565b9250600660006127f98460000151876000015188602001516132f3565b81526020810191909152604001600090812080546001600160a81b0319168155600181018290556002810182905560038101805467ffffffffffffffff1916905590818161284a60048301826139ec565b5050600060058301819055600683015550600701805460ff19169055835160208086015184516060808701518082015160408083015192870151818d0151825193151584529783019390935281019190915290810193909352608083018590526001600160a01b0393841693911515929116907fdc901c8449d4d3dcbcbb54a310222e89387186f4cc38d072c1d6c866263836049060a00160405180910390a45050600160035592915050565b600054600154604051633206eea360e21b815273__$eacbb88ed4bd2af84aa4d43bcf675bcf7e$__9263c81bba8c92612950926004926001600160a01b036201000090910481169216908b908a908a908a908701615b8b565b602060405180830381865af415801561296d573d6000803e3d6000fd5b505050506040513d601f19601f82011682018060405250810190612991919061506a565b505050505050565b6002546001600160a01b031633146129c35760405162461bcd60e51b815260040161056f906149ee565b6001600160a01b03166000908152600760205260409020805460ff19811660ff90911615179055565b60606000600660006129ff8787876132f3565b81526020808201929092526040908101600090812082516101608101845281546001600160a01b03811660808301908152600160a01b90910460ff16151560a0830152600183015460c0830152600283015460e0830152600383015463ffffffff8082166101008501526401000000009091041661012083015260048301805486518189028101890190975280875292969395879592948794610140880194929392909184015b82821015612b1d5760008481526020908190206040805160c081018252600586029092018054600281810b855263010000009091046001600160801b031684860152600180830154938501939093528101546060840152600381015460808401526004015460a08301529083529092019101612aa6565b505050915250508152600582015460208201526006820154604082015260079091015460ff1615156060909101525160c0015195945050505050565b612b61613a10565b60066000612b708686866132f3565b81526020808201929092526040908101600090812082516101608101845281546001600160a01b03811660808301908152600160a01b90910460ff16151560a0830152600183015460c0830152600283015460e0830152600383015463ffffffff8082166101008501526401000000009091041661012083015260048301805486518189028101890190975280875292969395879592948794610140880194929392909184015b82821015612c8e5760008481526020908190206040805160c081018252600586029092018054600281810b855263010000009091046001600160801b031684860152600180830154938501939093528101546060840152600381015460808401526004015460a08301529083529092019101612c17565b505050915250508152600582015460208201526006820154604082015260079091015460ff161515606090910152949350505050565b6060816001600160401b03811115612cde57612cde613cb0565b604051908082528060200260200182016040528015612d1157816020015b6060815260200190600190039081612cfc5790505b50905060005b82811015612db157612d8130858584818110612d3557612d35615bd6565b9050602002810190612d479190615bec565b8080601f01602080910402602001604051908101604052809392919081815260200183838082843760009201919091525061369c92505050565b828281518110612d9357612d93615bd6565b60200260200101819052508080612da990615c39565b915050612d17565b505b92915050565b6002546001600160a01b03163314612de35760405162461bcd60e51b815260040161056f906149ee565b6000805462010000600160b01b031916620100006001600160a01b0394851602179055600180546001600160a01b03191691909216179055565b600054604051600162343aeb60e21b0319815273__$eacbb88ed4bd2af84aa4d43bcf675bcf7e$__9163ff2f145491612e7391600491620100009091046001600160a01b03169089908990899089908601615c52565b60006040518083038186803b158015612e8b57600080fd5b505af4158015612e9f573d6000803e3d6000fd5b5050505050505050565b6040516bffffffffffffffffffffffff19606086811b8216602084015285901b16603482015282151560f890811b6048830152821515901b6049820152600090604a016040516020818303038152906040528051906020012090505b949350505050565b600060066000612f1e8686866132f3565b815260208101919091526040016000206003015463ffffffff16949350505050565b60005460405163633f114960e11b815273__$eacbb88ed4bd2af84aa4d43bcf675bcf7e$__9163c67e229291612e7391600491620100009091046001600160a01b0316908990889088908501615c95565b6000600354600114612fb55760405162461bcd60e51b815260040161056f90614a0e565b600260035560008054604051639525092360e01b815282918291620100009091046001600160a01b031690639525092390612ff4908a90600401614a8c565b6101c060405180830381865afa158015613012573d6000803e3d6000fd5b505050506040513d601f19601f820116820180604052508101906130369190614b7e565b9250925092506130478333886132c5565b6130575760009350505050613142565b60006130648433896129ec565b90506130c86040518060e001604052808a8036038101906130859190614dd9565b8152602001838152602001866001600160a01b03168152602001336001600160a01b0316815260200189151581526020018481526020018560020b81525061334a565b90955090506130d9843389846136c1565b61310b876130f3576130ee60208a018a613be1565b613103565b61310360408a0160208b01613be1565b33308961355e565b856004600061311b87338c6132f3565b815260200190815260200160002060008282546131389190615ccb565b9091555050505050505b60016003559392505050565b60008473__$506f8190e26c635088963c8a0018e71746$__63920f2f4090918885600060029054906101000a90046001600160a01b0316600460006131948c8c8c6132f3565b8152602001908152602001600020546040518663ffffffff1660e01b81526004016131c3959493929190615cde565b602060405180830381865af41580156131e0573d6000803e3d6000fd5b505050506040513d601f19601f820116820180604052508101906132049190615a18565b9695505050505050565b600054610100900460ff166132795760405162461bcd60e51b815260206004820152602b60248201527f496e697469616c697a61626c653a20636f6e7472616374206973206e6f74206960448201526a6e697469616c697a696e6760a81b606482015260840161056f565b600080546001600160a01b03938416620100000262010000600160b01b031990911617905560018054919092166001600160a01b03199182161782556002805490911633179055600355565b600080600660006132d78787876132f3565b8152602001908152602001600020600501541190509392505050565b60408051606085811b6bffffffffffffffffffffffff199081166020808501919091529186901b16603483015283151560f81b60488301528251602981840301815260499092019092528051910120600090612f05565b600060606000600473__$eacbb88ed4bd2af84aa4d43bcf675bcf7e$__6313c1af43909186613386886040015189606001518a60800151612f0d565b6000546001546040516001600160e01b031960e088901b1681526133c3959493926001600160a01b03620100009091048116921690600401615e48565b600060405180830381865af41580156133e0573d6000803e3d6000fd5b505050506040513d6000823e601f3d908101601f191682016040526134089190810190615e8e565b6020860152604085015160608601516080870151929350613428926137e0565b6020909301519293915050565b600060405163a9059cbb60e01b8152836004820152826024820152602060006044836000895af13d15601f3d11600160005114161716915050806134ad5760405162461bcd60e51b815260206004820152600f60248201526e1514905394d1915497d19052531151608a1b604482015260640161056f565b50505050565b60005b81518110156134f45760008282815181106134d3576134d3615bd6565b602090810291909101015160400152806134ec81615c39565b9150506134b6565b5060005460405163fc6e9cbf60e01b8152620100009091046001600160a01b03169063fc6e9cbf90613530908790859088908890600401615eca565b600060405180830381600087803b15801561354a57600080fd5b505af1158015612e9f573d6000803e3d6000fd5b60006040516323b872dd60e01b81528460048201528360248201528260448201526020600060648360008a5af13d15601f3d11600160005114161716915050806135e15760405162461bcd60e51b81526020600482015260146024820152731514905394d1915497d19493d357d1905253115160621b604482015260640161056f565b5050505050565b600080613602836040015184606001518560800151612f0d565b600054604051630bc847bd60e01b815291925073__$eacbb88ed4bd2af84aa4d43bcf675bcf7e$__91630bc847bd91613654916004918891620100009091046001600160a01b03169087908401615efd565b602060405180830381865af4158015613671573d6000803e3d6000fd5b505050506040513d601f19601f82011682018060405250810190613695919061506a565b9392505050565b60606136958383604051806060016040528060278152602001615f6d60279139613820565b6000600660006136d28787876132f3565b815260200190815260200160002090508060000160040160006136f591906139ec565b60005b825181101561299157600083828151811061371557613715615bd6565b6020026020010151602001516001600160801b031611156137ce578160000160040183828151811061374957613749615bd6565b60209081029190910181015182546001818101855560009485529383902082516005909202018054938301516001600160801b03166301000000026001600160981b031990941662ffffff90921691909117929092178255604081015192820192909255606082015160028201556080820151600382015560a0909101516004909101555b806137d881615c39565b9150506136f8565b42600660006137f08686866132f3565b81526020810191909152604001600020600301805463ffffffff191663ffffffff92909216919091179055505050565b6060600080856001600160a01b03168560405161383d9190615f3d565b600060405180830381855af49150503d8060008114613878576040519150601f19603f3d011682016040523d82523d6000602084013e61387d565b606091505b509150915061320486838387606083156138f85782516000036138f1576001600160a01b0385163b6138f15760405162461bcd60e51b815260206004820152601d60248201527f416464726573733a2063616c6c20746f206e6f6e2d636f6e7472616374000000604482015260640161056f565b5081612f05565b612f05838381511561390d5781518083602001fd5b8060405162461bcd60e51b815260040161056f9190615f59565b60405180610100016040528060008152602001600081526020016000815260200160008152602001600081526020016000815260200160008152602001600081525090565b604080516101e081018252600080825260208201819052918101829052606081018290526080810182905260a0810182905260c0810182905260e081018290526101008101829052610120810182905261014081019190915261016081016139d2613b05565b815260606020820181905260006040830181905291015290565b5080546000825560050290600052602060002090810190613a0d9190613b7d565b50565b60408051610160810190915260006080820181815260a0830182905260c0830182905260e08301829052610100830182905261012083019190915260606101408301528190815260200160008152602001600081526020016000151581525090565b604080516101208101825260008082526020820152908101613a92613b05565b81526020016000815260200160008152602001600081526020016000815260200160008152602001600080191681525090565b6040805160c08101825260008082526020820152908101613ae4613b05565b8152602001613af1613a10565b815260006020820181905260409091015290565b6040518060e00160405280613b496040518060c001604052806000815260200160008152602001600081526020016000815260200160008152602001600081525090565b8152602001600081526020016000815260200160008152602001600061ffff16815260200160008152602001600081525090565b5b80821115613bb85780546001600160981b031916815560006001820181905560028201819055600382018190556004820155600501613b7e565b5090565b6001600160a01b0381168114613a0d57600080fd5b8035613bdc81613bbc565b919050565b600060208284031215613bf357600080fd5b813561369581613bbc565b8015158114613a0d57600080fd5b8035613bdc81613bfe565b60008060008060008060008060006101208a8c031215613c3657600080fd5b8935613c4181613bbc565b985060208a0135613c5181613bfe565b975060408a0135613c6181613bfe565b989b979a5097986060810135985060808101359760a0820135975060c0820135965060e08201359550610100909101359350915050565b600060608284031215613caa57600080fd5b50919050565b634e487b7160e01b600052604160045260246000fd5b60405161012081016001600160401b0381118282101715613ce957613ce9613cb0565b60405290565b60405160c081016001600160401b0381118282101715613ce957613ce9613cb0565b60405161016081016001600160401b0381118282101715613ce957613ce9613cb0565b604051608081016001600160401b0381118282101715613ce957613ce9613cb0565b60405160e081016001600160401b0381118282101715613ce957613ce9613cb0565b6040516101e081016001600160401b0381118282101715613ce957613ce9613cb0565b604051601f8201601f191681016001600160401b0381118282101715613dc357613dc3613cb0565b604052919050565b60006001600160401b03821115613de457613de4613cb0565b50601f01601f191660200190565b600082601f830112613e0357600080fd5b8135613e16613e1182613dcb565b613d9b565b818152846020838601011115613e2b57600080fd5b816020850160208301376000918101602001919091529392505050565b8060020b8114613a0d57600080fd5b8035613bdc81613e48565b60008060808385031215613e7557600080fd5b613e7f8484613c98565b915060608301356001600160401b0380821115613e9b57600080fd5b908401906101208287031215613eb057600080fd5b613eb8613cc6565b613ec183613c0c565b81526020830135602082015260408301356040820152613ee360608401613bd1565b60608201526080830135608082015260a083013582811115613f0457600080fd5b613f1088828601613df2565b60a083015250613f2260c08401613e57565b60c0820152613f3360e08401613e57565b60e0820152610100915081830135828201528093505050509250929050565b805182526020810151602083015260408101516040830152606081015160608301526080810151608083015260a081015160a083015260c081015160c083015260e081015160e08301525050565b6101008101612db38284613f52565b600080600060608486031215613fc457600080fd5b8335613fcf81613bbc565b92506020840135613fdf81613bfe565b91506040840135613fef81613bfe565b809150509250925092565b60006001600160401b0382111561401357614013613cb0565b5060051b60200190565b6001600160801b0381168114613a0d57600080fd5b600082601f83011261404357600080fd5b81356020614053613e1183613ffa565b82815260c0928302850182019282820191908785111561407257600080fd5b8387015b858110156140e95781818a03121561408e5760008081fd5b614096613cef565b81356140a181613e48565b8152818601356140b08161401d565b8187015260408281013590820152606080830135908201526080808301359082015260a080830135908201528452928401928101614076565b5090979650505050505050565b600080600060a0848603121561410b57600080fd5b6141158585613c98565b925060608401356001600160401b038082111561413157600080fd5b90850190610160828803121561414657600080fd5b61414e613d11565b8235815260208301356020820152604083013560408201526060830135606082015261417c60808401613c0c565b608082015260a083013560a082015261419760c08401613bd1565b60c082015260e0830135828111156141ae57600080fd5b6141ba89828601613df2565b60e0830152506101006141ce818501613e57565b908201526101206141e0848201613e57565b908201526101406141f2848201613c0c565b908201529350608086013591508082111561420c57600080fd5b5061421986828701614032565b9150509250925092565b805160020b82526001600160801b03602082015116602083015260408101516040830152606081015160608301526080810151608083015260a081015160a08301525050565b600060e0830160018060a01b0383511684526020808401511515818601526040840151604086015260608401516060860152608084015163ffffffff80821660808801528060a08701511660a0880152505060c08085015160e082880152838151808652610100890191508483019550600092505b80831015614305576142f1828751614223565b9484019460019290920191908301906142de565b50979650505050505050565b60008151608084526143266080850182614269565b905060208301516020850152604083015160408501526060830151151560608501528091505092915050565b6060815260006143656060830186614311565b60208301949094525060400152919050565b6000806040838503121561438a57600080fd5b823561439581613bbc565b915060208301356143a581613bbc565b809150509250929050565b6000602082840312156143c257600080fd5b5035919050565b6080815260006143dc6080830187614269565b60208301959095525060408101929092521515606090910152919050565b60008082840361010081121561440f57600080fd5b6144198585613c98565b925060a0605f198201121561442d57600080fd5b5060405160a081018181106001600160401b038211171561445057614450613cb0565b604052606084013561446181613bbc565b8152608084013561447181613bfe565b602082015260a0840135604082015260c084013561448e81613e48565b606082015260e08401356144a181613e48565b6080820152919491935090915050565b600080600080600060e086880312156144c957600080fd5b6144d38787613c98565b945060608601356144e381613bbc565b935060808601356144f381613bfe565b9497939650939460a0810135945060c0013592915050565b60008060006060848603121561452057600080fd5b833561452b81613bbc565b92506020840135613fdf81613bbc565b600081518084526020808501945080840160005b8381101561457557614562878351614223565b60c096909601959082019060010161454f565b509495945050505050565b602081526000613695602083018461453b565b6020815260006136956020830184614311565b80516001600160a01b0390811683526020808301519091169083015260409081015162ffffff16910152565b61016081016145e1828c6145a6565b981515606082015263ffffffff97881660808201529590961660a086015260c085019390935260e08401919091526101008301526101208201526101400152919050565b6000806020838503121561463857600080fd5b82356001600160401b038082111561464f57600080fd5b818501915085601f83011261466357600080fd5b81358181111561467257600080fd5b8660208260051b850101111561468757600080fd5b60209290920196919550909350505050565b60005b838110156146b457818101518382015260200161469c565b50506000910152565b600081518084526146d5816020860160208601614699565b601f01601f19169290920160200192915050565b6000602080830181845280855180835260408601915060408160051b870101925083870160005b8281101561473e57603f1988860301845261472c8583516146bd565b94509285019290850190600101614710565b5092979650505050505050565b60008060008060c0858703121561476157600080fd5b61476b8686613c98565b9350606085013561477b81613bfe565b92506080850135915060a085013561479281613bfe565b939692955090935050565b600080600080608085870312156147b357600080fd5b84356147be81613bbc565b935060208501356147ce81613bbc565b925060408501356147de81613bfe565b9150606085013561479281613bfe565b60008060008060c0858703121561480457600080fd5b61480e8686613c98565b9350606085013561481e81613bbc565b9250608085013561482e81613bfe565b9396929550929360a00135925050565b600080600060a0848603121561485357600080fd5b61485d8585613c98565b9250606084013561486d81613bfe565b929592945050506080919091013590565b803563ffffffff81168114613bdc57600080fd5b600080600080600060e086880312156148aa57600080fd5b6148b48787613c98565b945060608601356001600160401b03808211156148d057600080fd5b908701906080828a0312156148e457600080fd5b6148ec613d34565b8235828111156148fb57600080fd5b830160e0818c03121561490d57600080fd5b614915613d56565b61491e82613bd1565b815261492c60208301613c0c565b602082015260408201356040820152606082013560608201526149516080830161487e565b608082015261496260a0830161487e565b60a082015260c08201358481111561497957600080fd5b6149858d828501614032565b60c083015250808352505060208301356020820152604083013560408201526149b060608401613c0c565b606082015295506149c691505060808701613bd1565b92506149d460a08701613bd1565b91506149e260c08701613c0c565b90509295509295909350565b60208082526006908201526510b7bbb732b960d11b604082015260600190565b6020808252600a90820152695245454e5452414e435960b01b604082015260600190565b803562ffffff81168114613bdc57600080fd5b8035614a5081613bbc565b6001600160a01b039081168352602082013590614a6c82613bbc565b16602083015262ffffff614a8260408301614a32565b1660408301525050565b60608101612db38284614a45565b8051613bdc81613bbc565b8051613bdc81613e48565b805161ffff81168114613bdc57600080fd5b6000818303610180811215614ad657600080fd5b614ade613d56565b915060c0811215614aee57600080fd5b50614af7613cef565b825181526020830151602082015260408301516040820152606083015160608201526080830151608082015260a083015160a08201528082525060c0820151602082015260e082015160408201526101008201516060820152614b5d6101208301614ab0565b608082015261014082015160a082015261016082015160c082015292915050565b60008060006101c08486031215614b9457600080fd5b8351614b9f81613bbc565b6020850151909350614bb081613e48565b9150614bbf8560408601614ac2565b90509250925092565b600061012082511515845260208301516020850152604083015160408501526060830151614c0160608601826001600160a01b03169052565b506080830151608085015260a08301518160a0860152614c23828601826146bd565b91505060c0830151614c3a60c086018260020b9052565b5060e0830151614c4f60e086018260020b9052565b50610100928301519390920192909252919050565b6000815480845260208085019450836000528060002060005b83811015614575578154600281810b895260189190911c6001600160801b03168489015260018084015460408a015290830154606089015260038301546080890152600483015460a089015260c09097019660059092019101614c7d565b85815284602082015260a060408201526000614cfa60a0830186614bc8565b828103606084015260808152845460018060a01b0381166080830152614d2a60a0830160ff8360a01c1615159052565b50600185015460c0820152600285015460e0820152600385015463ffffffff808216610100840152602082901c8116610120840152505060e0610140820152614d7a610160820160048701614c64565b600586015460208301526006860154604083015260079095015460ff16151560609091015250608001529392505050565b600080600060608486031215614dc057600080fd5b8351925060208401519150604084015190509250925092565b600060608284031215614deb57600080fd5b604051606081018181106001600160401b0382111715614e0d57614e0d613cb0565b6040528235614e1b81613bbc565b81526020830135614e2b81613bbc565b6020820152614e3c60408401614a32565b60408201529392505050565b604081526000614e5b604083018561453b565b90508260208301529392505050565b600082601f830112614e7b57600080fd5b81516020614e8b613e1183613ffa565b82815260c09283028501820192828201919087851115614eaa57600080fd5b8387015b858110156140e95781818a031215614ec65760008081fd5b614ece613cef565b8151614ed981613e48565b815281860151614ee88161401d565b8187015260408281015190820152606080830151908201526080808301519082015260a080830151908201528452928401928101614eae565b600060208284031215614f3357600080fd5b81516001600160401b03811115614f4957600080fd5b612f0584828501614e6a565b85815284602082015283604082015260a060608201526000614f7a60a083018561453b565b8281036080840152614f8c818561453b565b98975050505050505050565b8051613bdc81613bfe565b600080600080600080600060e0888a031215614fbe57600080fd5b8751614fc981613bbc565b6020890151909750614fda81613e48565b9550614fe860408901614ab0565b9450614ff660608901614ab0565b935061500460808901614ab0565b925060a088015160ff8116811461501a57600080fd5b60c089015190925061502b81613bfe565b8091505092959891949750929550565b6000806040838503121561504e57600080fd5b825161505981613e48565b60208401519092506143a581613e48565b60006020828403121561507c57600080fd5b5051919050565b6150c3828251805182526020810151602083015260408101516040830152606081015160608301526080810151608083015260a081015160a08301525050565b602081015160c0830152604081015160e0830152606081015161010083015261ffff60808201511661012083015260a081015161014083015260c08101516101608301525050565b600061020080835261511f81840189614bc8565b905061512e6020840188613f52565b61012061513d81850188614a45565b6101808483038186015261034061515d8489516001600160a01b03169052565b6020880151615171602086018260020b9052565b5060408801516040850152606088015161519660608601826001600160a01b03169052565b5060808801516151ab608086018260020b9052565b5060a08801516151c060a086018260020b9052565b5060c08801516151d560c086018260020b9052565b5060e08801516151f060e08601826001600160a01b03169052565b5061010080890151818601525082880151838501526101409250828801518385015261016092508288015161522784860182615083565b50818801519250806102e08501526152418185018461453b565b925050506101a0808701516103008401526101c087015161526761032085018215159052565b5081935061529b8186018780516001600160a01b039081168352602080830151909116908301526040908101511515910152565b5050509695505050505050565b60006101008083850312156152bc57600080fd5b604051908101906001600160401b03821181831017156152de576152de613cb0565b81604052809250835181526020840151602082015260408401516040820152606084015160608201526080840151608082015260a084015160a082015260c084015160c082015260e084015160e0820152505092915050565b60008061012080848603121561534c57600080fd5b61535685856152a8565b9250610100808501516001600160401b038082111561537457600080fd5b90860190610340828903121561538957600080fd5b615391613d78565b61539a83614a9a565b81526153a860208401614aa5565b6020820152604083015160408201526153c360608401614a9a565b60608201526153d460808401614aa5565b60808201526153e560a08401614aa5565b60a08201526153f660c08401614aa5565b60c082015261540760e08401614a9a565b60e08201528383015184820152848301518582015261014094508483015185820152610160945061543a89868501614ac2565b858201526102e083015194508185111561545357600080fd5b61545f89868501614e6a565b6101808201526103008301516101a082015261547e6103208401614f98565b6101c082015280955050505050509250929050565b634e487b7160e01b600052601160045260246000fd5b81810381811115612db357612db3615493565b60006102008083526154d08184018b61453b565b905082810360208401526154e4818a614bc8565b9150506154f46040830188613f52565b615502610140830187614a45565b6101a08201949094526001600160a01b03929092166101c08301526101e090910152949350505050565b6000610100828403121561553f57600080fd5b61369583836152a8565b6000610160825184526020830151602085015260408301516040850152606083015160608501526080830151615583608086018215159052565b5060a083015160a085015260c08301516155a860c08601826001600160a01b03169052565b5060e08301518160e08601526155c0828601826146bd565b915050610100808401516155d88287018260020b9052565b5050610120808401516155ef8287018260020b9052565b50506101409283015115159390920192909252919050565b8481528360208201528260408201526080606082015260006132046080830184615549565b600082601f83011261563d57600080fd5b815161564b613e1182613dcb565b81815284602083860101111561566057600080fd5b612f05826020830160208701614699565b6000610160828403121561568457600080fd5b61568c613d11565b9050815181526020820151602082015260408201516040820152606082015160608201526156bc60808301614f98565b608082015260a082015160a08201526156d760c08301614a9a565b60c082015260e08201516001600160401b038111156156f557600080fd5b6157018482850161562c565b60e083015250610100615715818401614aa5565b90820152610120615727838201614aa5565b90820152610140615739838201614f98565b9082015292915050565b6000806040838503121561575657600080fd5b8251915060208301516001600160401b0381111561577357600080fd5b61577f85828601615671565b9150509250929050565b6000610100615798838a614a45565b8060608401526157aa81840189615549565b905082810360808401526157be818861453b565b6001600160a01b0396871660a085015294151560c08401525050921660e0909201919091529392505050565b6000806000806080858703121561580057600080fd5b845193506020850151925060408501516001600160401b038082111561582557600080fd5b61583188838901615671565b9350606087015191508082111561584757600080fd5b5061585487828801614e6a565b91505092959194509250565b6001600160a01b03868116825285166020820152600284900b6040820152610140606082018190526000906158978382018661453b565b9150506132046080830184805182526020810151602083015260408101516040830152606081015160608301526080810151608083015260a081015160a08301525050565b6060815260006158ef606083018661453b565b93151560208301525060029190910b604090910152919050565b60408152600061591c604083018561453b565b828103602084015261592e818561453b565b95945050505050565b600061012080835261594b8184018b615549565b91505061595b6020830189614a45565b60808201969096526001600160a01b0394851660a08201529290931660c083015260e0820152610100015292915050565b6000806040838503121561599f57600080fd5b505080516020909101519092909150565b6000600160ff1b82016159c5576159c5615493565b5060000390565b86815260c0602082015260006159e560c0830188615549565b82810360408401526159f7818861453b565b606084019690965250506080810192909252151560a0909101529392505050565b600060208284031215615a2a57600080fd5b815161369581613bfe565b608081526000615a48608083018761453b565b941515602083015250600292830b6040820152910b606090910152919050565b6000610120615a77838b614a45565b88606084015287608084015286151560a08401528060c0840152615a9d8184018761453b565b6001600160a01b0395861660e08501529390941661010090920191909152509695505050505050565b615ad08187614a45565b60e060608201526000615ae660e083018761453b565b60808301959095525091151560a08301526001600160a01b031660c09091015292915050565b60006101a0615b1b838f614a45565b806060840152615b2d8184018e61453b565b608084019c909c52505097151560a0890152600296870b60c08901529490950b60e08701526001600160a01b039283166101008701526101208601919091528116610140850152918216610160840152166101809091015292915050565b8781526001600160a01b038781166020830152861660408201526101208101615bb76060830187614a45565b93151560c082015260e081019290925261010090910152949350505050565b634e487b7160e01b600052603260045260246000fd5b6000808335601e19843603018112615c0357600080fd5b8301803591506001600160401b03821115615c1d57600080fd5b602001915036819003821315615c3257600080fd5b9250929050565b600060018201615c4b57615c4b615493565b5060010190565b8681526001600160a01b03861660208201526101008101615c766040830187614a45565b93151560a082015260c0810192909252151560e0909101529392505050565b8581526001600160a01b038516602082015260e08101615cb86040830186614a45565b92151560a082015260c001529392505050565b80820180821115612db357612db3615493565b60e0815260008651608060e084015260018060a01b038151166101608401526020810151151561018084015260408101516101a084015260608101516101c084015263ffffffff6080820151166101e084015260a0810151615d4961020085018263ffffffff169052565b5060c0015160e0610220840152615d6461024084018261453b565b9050602088015161010084015260408801516101208401526060880151615d9061014085018215159052565b509050615da06020830187614a45565b93151560808201526001600160a01b039290921660a083015260c09091015292915050565b6000610280615dd58484516145a6565b6020830151816060860152615dec8286018261453b565b915050604083015160018060a01b0380821660808701528060608601511660a087015250506080830151151560c085015260a0830151615e2f60e0860182615083565b5060c083015160020b6102608501528091505092915050565b85815260a060208201526000615e6160a0830187615dc5565b63ffffffff959095166040830152506001600160a01b039283166060820152911660809091015292915050565b60008060408385031215615ea157600080fd5b8251915060208301516001600160401b03811115615ebe57600080fd5b61577f85828601614e6a565b615ed481866145a6565b60c060608201526000615eea60c083018661453b565b93151560808301525060a0015292915050565b848152608060208201526000615f166080830186615dc5565b6001600160a01b039490941660408301525063ffffffff9190911660609091015292915050565b60008251615f4f818460208701614699565b9190910192915050565b60208152600061369560208301846146bd56fe416464726573733a206c6f772d6c6576656c2064656c65676174652063616c6c206661696c6564a2646970667358221220343bf28fd962dff6f7485c111bfcfc84f446710a328db8187fc46c4998cc6bf164736f6c63430008120033",
  "linkReferences": {
    "src/MarginPositionHelper.sol": {
      "MarginPositionHelper": [
        {
          "length": 20,
          "start": 1688
        },
        {
          "length": 20,
          "start": 2214
        },
        {
          "length": 20,
          "start": 3226
        },
        {
          "length": 20,
          "start": 4039
        },
        {
          "length": 20,
          "start": 4367
        },
        {
          "length": 20,
          "start": 4636
        },
        {
          "length": 20,
          "start": 4750
        },
        {
          "length": 20,
          "start": 5596
        },
        {
          "length": 20,
          "start": 5897
        },
        {
          "length": 20,
          "start": 6807
        },
        {
          "length": 20,
          "start": 7010
        },
        {
          "length": 20,
          "start": 9651
        },
        {
          "length": 20,
          "start": 9820
        },
        {
          "length": 20,
          "start": 9882
        },
        {
          "length": 20,
          "start": 12660
        }
      ]
    },
    "src/PremiumComputer.sol": {
      "PremiumComputer": [
        {
          "length": 20,
          "start": 6112
        },
        {
          "length": 20,
          "start": 10541
        },
        {
          "length": 20,
          "start": 11859
        },
        {
          "length": 20,
          "start": 12147
        },
        {
          "length": 20,
          "start": 13173
        },
        {
          "length": 20,
          "start": 13880
        }
      ]
    },
    "src/Util.sol": {
      "Utils": [
        {
          "length": 20,
          "start": 2874
        },
        {
          "length": 20,
          "start": 3673
        },
        {
          "length": 20,
          "start": 3868
        },
        {
          "length": 20,
          "start": 6269
        },
        {
          "length": 20,
          "start": 6690
        },
        {
          "length": 20,
          "start": 9486
        }
      ]
    }
  },
  "deployedLinkReferences": {
    "src/MarginPositionHelper.sol": {
      "MarginPositionHelper": [
        {
          "length": 20,
          "start": 1655
        },
        {
          "length": 20,
          "start": 2181
        },
        {
          "length": 20,
          "start": 3193
        },
        {
          "length": 20,
          "start": 4006
        },
        {
          "length": 20,
          "start": 4334
        },
        {
          "length": 20,
          "start": 4603
        },
        {
          "length": 20,
          "start": 4717
        },
        {
          "length": 20,
          "start": 5563
        },
        {
          "length": 20,
          "start": 5864
        },
        {
          "length": 20,
          "start": 6774
        },
        {
          "length": 20,
          "start": 6977
        },
        {
          "length": 20,
          "start": 9618
        },
        {
          "length": 20,
          "start": 9787
        },
        {
          "length": 20,
          "start": 9849
        },
        {
          "length": 20,
          "start": 12627
        }
      ]
    },
    "src/PremiumComputer.sol": {
      "PremiumComputer": [
        {
          "length": 20,
          "start": 6079
        },
        {
          "length": 20,
          "start": 10508
        },
        {
          "length": 20,
          "start": 11826
        },
        {
          "length": 20,
          "start": 12114
        },
        {
          "length": 20,
          "start": 13140
        },
        {
          "length": 20,
          "start": 13847
        }
      ]
    },
    "src/Util.sol": {
      "Utils": [
        {
          "length": 20,
          "start": 2841
        },
        {
          "length": 20,
          "start": 3640
        },
        {
          "length": 20,
          "start": 3835
        },
        {
          "length": 20,
          "start": 6236
        },
        {
          "length": 20,
          "start": 6657
        },
        {
          "length": 20,
          "start": 9453
        }
      ]
    }
  }
}