{
  "abi": [
    {
      "inputs": [],
      "name": "addReduceInvalidTick",
      "type": "error"
    },
    {
      "anonymous": false,
      "inputs": [
        {
          "indexed": true,
          "internalType": "address",
          "name": "pool",
          "type": "address"
        },
        {
          "indexed": true,
          "internalType": "bool",
          "name": "positionIsToken0",
          "type": "bool"
        },
        {
          "indexed": false,
          "internalType": "bool",
          "name": "marginInPosToken",
          "type": "bool"
        },
        {
          "indexed": false,
          "internalType": "uint256",
          "name": "margin",
          "type": "uint256"
        },
        {
          "indexed": true,
          "internalType": "address",
          "name": "trader",
          "type": "address"
        },
        {
          "indexed": false,
          "internalType": "uint256",
          "name": "forcedClosedAmount",
          "type": "uint256"
        },
        {
          "indexed": false,
          "internalType": "uint256",
          "name": "fillerPayAmount",
          "type": "uint256"
        },
        {
          "indexed": false,
          "internalType": "uint256",
          "name": "rangeCondition",
          "type": "uint256"
        }
      ],
      "name": "ForceClosed",
      "type": "event"
    },
    {
      "anonymous": false,
      "inputs": [
        {
          "indexed": false,
          "internalType": "uint8",
          "name": "version",
          "type": "uint8"
        }
      ],
      "name": "Initialized",
      "type": "event"
    },
    {
      "anonymous": false,
      "inputs": [
        {
          "indexed": true,
          "internalType": "address",
          "name": "pool",
          "type": "address"
        },
        {
          "indexed": true,
          "internalType": "bool",
          "name": "positionIsToken0",
          "type": "bool"
        },
        {
          "indexed": false,
          "internalType": "bool",
          "name": "marginInPosToken",
          "type": "bool"
        },
        {
          "indexed": true,
          "internalType": "address",
          "name": "trader",
          "type": "address"
        },
        {
          "indexed": false,
          "internalType": "address",
          "name": "filler",
          "type": "address"
        },
        {
          "indexed": false,
          "internalType": "uint256",
          "name": "addedAmount",
          "type": "uint256"
        },
        {
          "indexed": false,
          "internalType": "uint256",
          "name": "marginAmount",
          "type": "uint256"
        },
        {
          "indexed": false,
          "internalType": "uint256",
          "name": "borrowAmount",
          "type": "uint256"
        },
        {
          "indexed": false,
          "internalType": "uint256",
          "name": "premiumPaid",
          "type": "uint256"
        },
        {
          "indexed": false,
          "internalType": "uint256",
          "name": "feePaid",
          "type": "uint256"
        }
      ],
      "name": "MarginPositionIncreased",
      "type": "event"
    },
    {
      "anonymous": false,
      "inputs": [
        {
          "indexed": true,
          "internalType": "address",
          "name": "pool",
          "type": "address"
        },
        {
          "indexed": true,
          "internalType": "bool",
          "name": "positionIsToken0",
          "type": "bool"
        },
        {
          "indexed": true,
          "internalType": "address",
          "name": "trader",
          "type": "address"
        },
        {
          "indexed": false,
          "internalType": "address",
          "name": "filler",
          "type": "address"
        },
        {
          "indexed": false,
          "internalType": "uint256",
          "name": "reduceAmount",
          "type": "uint256"
        },
        {
          "indexed": false,
          "internalType": "uint256",
          "name": "premiumPaid",
          "type": "uint256"
        },
        {
          "indexed": false,
          "internalType": "uint256",
          "name": "feePaid",
          "type": "uint256"
        },
        {
          "indexed": false,
          "internalType": "int256",
          "name": "PnL",
          "type": "int256"
        }
      ],
      "name": "MarginPositionReduced",
      "type": "event"
    },
    {
      "anonymous": false,
      "inputs": [
        {
          "indexed": true,
          "internalType": "address",
          "name": "pool",
          "type": "address"
        },
        {
          "indexed": true,
          "internalType": "bool",
          "name": "positionIsToken0",
          "type": "bool"
        },
        {
          "indexed": true,
          "internalType": "address",
          "name": "trader",
          "type": "address"
        },
        {
          "indexed": false,
          "internalType": "bool",
          "name": "isAdd",
          "type": "bool"
        },
        {
          "indexed": false,
          "internalType": "uint256",
          "name": "deadline",
          "type": "uint256"
        },
        {
          "indexed": false,
          "internalType": "uint256",
          "name": "startOutput",
          "type": "uint256"
        },
        {
          "indexed": false,
          "internalType": "uint256",
          "name": "minOutput",
          "type": "uint256"
        },
        {
          "indexed": false,
          "internalType": "uint256",
          "name": "inputAmount",
          "type": "uint256"
        },
        {
          "indexed": false,
          "internalType": "uint256",
          "name": "decayRate",
          "type": "uint256"
        },
        {
          "indexed": false,
          "internalType": "uint256",
          "name": "margin",
          "type": "uint256"
        }
      ],
      "name": "OrderAdded",
      "type": "event"
    },
    {
      "anonymous": false,
      "inputs": [
        {
          "indexed": true,
          "internalType": "address",
          "name": "pool",
          "type": "address"
        },
        {
          "indexed": true,
          "internalType": "bool",
          "name": "positionIsToken0",
          "type": "bool"
        },
        {
          "indexed": true,
          "internalType": "address",
          "name": "trader",
          "type": "address"
        },
        {
          "indexed": false,
          "internalType": "bool",
          "name": "isAdd",
          "type": "bool"
        }
      ],
      "name": "OrderCanceled",
      "type": "event"
    },
    {
      "anonymous": false,
      "inputs": [
        {
          "indexed": true,
          "internalType": "address",
          "name": "payer",
          "type": "address"
        },
        {
          "indexed": true,
          "internalType": "address",
          "name": "pool",
          "type": "address"
        },
        {
          "indexed": false,
          "internalType": "bool",
          "name": "isToken1",
          "type": "bool"
        },
        {
          "indexed": false,
          "internalType": "uint256",
          "name": "amount",
          "type": "uint256"
        }
      ],
      "name": "PremiumDeposited",
      "type": "event"
    },
    {
      "anonymous": false,
      "inputs": [
        {
          "indexed": true,
          "internalType": "address",
          "name": "withdrawer",
          "type": "address"
        },
        {
          "indexed": true,
          "internalType": "address",
          "name": "pool",
          "type": "address"
        },
        {
          "indexed": false,
          "internalType": "bool",
          "name": "isToken1",
          "type": "bool"
        },
        {
          "indexed": false,
          "internalType": "uint256",
          "name": "amount",
          "type": "uint256"
        }
      ],
      "name": "PremiumWithdrawn",
      "type": "event"
    },
    {
      "inputs": [
        {
          "internalType": "PositionId",
          "name": "",
          "type": "bytes32"
        }
      ],
      "name": "PremiumDeposit",
      "outputs": [
        {
          "internalType": "uint256",
          "name": "",
          "type": "uint256"
        }
      ],
      "stateMutability": "view",
      "type": "function"
    },
    {
      "inputs": [
        {
          "internalType": "address",
          "name": "pm",
          "type": "address"
        },
        {
          "internalType": "address",
          "name": "ex",
          "type": "address"
        }
      ],
      "name": "_initialize",
      "outputs": [],
      "stateMutability": "nonpayable",
      "type": "function"
    },
    {
      "inputs": [
        {
          "internalType": "address",
          "name": "filler",
          "type": "address"
        }
      ],
      "name": "addFiller",
      "outputs": [],
      "stateMutability": "nonpayable",
      "type": "function"
    },
    {
      "inputs": [
        {
          "components": [
            {
              "internalType": "address",
              "name": "token0",
              "type": "address"
            },
            {
              "internalType": "address",
              "name": "token1",
              "type": "address"
            },
            {
              "internalType": "uint24",
              "name": "fee",
              "type": "uint24"
            }
          ],
          "internalType": "struct PoolKey",
          "name": "key",
          "type": "tuple"
        },
        {
          "components": [
            {
              "internalType": "uint256",
              "name": "margin",
              "type": "uint256"
            },
            {
              "internalType": "uint256",
              "name": "minOutput",
              "type": "uint256"
            },
            {
              "internalType": "uint256",
              "name": "simulatedOutput",
              "type": "uint256"
            },
            {
              "internalType": "uint256",
              "name": "borrowAmount",
              "type": "uint256"
            },
            {
              "internalType": "bool",
              "name": "positionIsToken0",
              "type": "bool"
            },
            {
              "internalType": "uint256",
              "name": "executionOption",
              "type": "uint256"
            },
            {
              "internalType": "address",
              "name": "trader",
              "type": "address"
            },
            {
              "internalType": "bytes",
              "name": "executionData",
              "type": "bytes"
            },
            {
              "internalType": "int24",
              "name": "slippedTickMin",
              "type": "int24"
            },
            {
              "internalType": "int24",
              "name": "slippedTickMax",
              "type": "int24"
            },
            {
              "internalType": "bool",
              "name": "marginInPosToken",
              "type": "bool"
            }
          ],
          "internalType": "struct AddParams",
          "name": "param",
          "type": "tuple"
        },
        {
          "components": [
            {
              "internalType": "int24",
              "name": "tick",
              "type": "int24"
            },
            {
              "internalType": "uint128",
              "name": "liquidity",
              "type": "uint128"
            },
            {
              "internalType": "uint256",
              "name": "premium",
              "type": "uint256"
            },
            {
              "internalType": "uint256",
              "name": "feeGrowthInside0LastX128",
              "type": "uint256"
            },
            {
              "internalType": "uint256",
              "name": "feeGrowthInside1LastX128",
              "type": "uint256"
            },
            {
              "internalType": "uint256",
              "name": "lastGrowth",
              "type": "uint256"
            }
          ],
          "internalType": "struct LiquidityLoan[]",
          "name": "borrowInfo",
          "type": "tuple[]"
        }
      ],
      "name": "addPosition",
      "outputs": [
        {
          "components": [
            {
              "components": [
                {
                  "internalType": "address",
                  "name": "pool",
                  "type": "address"
                },
                {
                  "internalType": "bool",
                  "name": "isToken0",
                  "type": "bool"
                },
                {
                  "internalType": "uint256",
                  "name": "totalDebtOutput",
                  "type": "uint256"
                },
                {
                  "internalType": "uint256",
                  "name": "totalDebtInput",
                  "type": "uint256"
                },
                {
                  "internalType": "uint32",
                  "name": "lastPremiumPaymentTime",
                  "type": "uint32"
                },
                {
                  "internalType": "uint32",
                  "name": "openTime",
                  "type": "uint32"
                },
                {
                  "components": [
                    {
                      "internalType": "int24",
                      "name": "tick",
                      "type": "int24"
                    },
                    {
                      "internalType": "uint128",
                      "name": "liquidity",
                      "type": "uint128"
                    },
                    {
                      "internalType": "uint256",
                      "name": "premium",
                      "type": "uint256"
                    },
                    {
                      "internalType": "uint256",
                      "name": "feeGrowthInside0LastX128",
                      "type": "uint256"
                    },
                    {
                      "internalType": "uint256",
                      "name": "feeGrowthInside1LastX128",
                      "type": "uint256"
                    },
                    {
                      "internalType": "uint256",
                      "name": "lastGrowth",
                      "type": "uint256"
                    }
                  ],
                  "internalType": "struct LiquidityLoan[]",
                  "name": "borrowInfo",
                  "type": "tuple[]"
                }
              ],
              "internalType": "struct Position",
              "name": "base",
              "type": "tuple"
            },
            {
              "internalType": "uint256",
              "name": "totalPosition",
              "type": "uint256"
            },
            {
              "internalType": "uint256",
              "name": "margin",
              "type": "uint256"
            },
            {
              "internalType": "bool",
              "name": "marginInPosToken",
              "type": "bool"
            }
          ],
          "internalType": "struct MarginPosition",
          "name": "position",
          "type": "tuple"
        },
        {
          "internalType": "uint256",
          "name": "premiumOwed",
          "type": "uint256"
        },
        {
          "internalType": "uint256",
          "name": "fee",
          "type": "uint256"
        }
      ],
      "stateMutability": "nonpayable",
      "type": "function"
    },
    {
      "inputs": [
        {
          "internalType": "address",
          "name": "token0",
          "type": "address"
        },
        {
          "internalType": "address",
          "name": "token1",
          "type": "address"
        }
      ],
      "name": "approveTokens",
      "outputs": [],
      "stateMutability": "nonpayable",
      "type": "function"
    },
    {
      "inputs": [
        {
          "components": [
            {
              "internalType": "address",
              "name": "token0",
              "type": "address"
            },
            {
              "internalType": "address",
              "name": "token1",
              "type": "address"
            },
            {
              "internalType": "uint24",
              "name": "fee",
              "type": "uint24"
            }
          ],
          "internalType": "struct PoolKey",
          "name": "key",
          "type": "tuple"
        },
        {
          "components": [
            {
              "components": [
                {
                  "internalType": "address",
                  "name": "pool",
                  "type": "address"
                },
                {
                  "internalType": "bool",
                  "name": "isToken0",
                  "type": "bool"
                },
                {
                  "internalType": "uint256",
                  "name": "totalDebtOutput",
                  "type": "uint256"
                },
                {
                  "internalType": "uint256",
                  "name": "totalDebtInput",
                  "type": "uint256"
                },
                {
                  "internalType": "uint32",
                  "name": "lastPremiumPaymentTime",
                  "type": "uint32"
                },
                {
                  "internalType": "uint32",
                  "name": "openTime",
                  "type": "uint32"
                },
                {
                  "components": [
                    {
                      "internalType": "int24",
                      "name": "tick",
                      "type": "int24"
                    },
                    {
                      "internalType": "uint128",
                      "name": "liquidity",
                      "type": "uint128"
                    },
                    {
                      "internalType": "uint256",
                      "name": "premium",
                      "type": "uint256"
                    },
                    {
                      "internalType": "uint256",
                      "name": "feeGrowthInside0LastX128",
                      "type": "uint256"
                    },
                    {
                      "internalType": "uint256",
                      "name": "feeGrowthInside1LastX128",
                      "type": "uint256"
                    },
                    {
                      "internalType": "uint256",
                      "name": "lastGrowth",
                      "type": "uint256"
                    }
                  ],
                  "internalType": "struct LiquidityLoan[]",
                  "name": "borrowInfo",
                  "type": "tuple[]"
                }
              ],
              "internalType": "struct Position",
              "name": "base",
              "type": "tuple"
            },
            {
              "internalType": "uint256",
              "name": "totalPosition",
              "type": "uint256"
            },
            {
              "internalType": "uint256",
              "name": "margin",
              "type": "uint256"
            },
            {
              "internalType": "bool",
              "name": "marginInPosToken",
              "type": "bool"
            }
          ],
          "internalType": "struct MarginPosition",
          "name": "position",
          "type": "tuple"
        },
        {
          "internalType": "address",
          "name": "pool",
          "type": "address"
        },
        {
          "internalType": "address",
          "name": "trader",
          "type": "address"
        },
        {
          "internalType": "bool",
          "name": "positionIsToken0",
          "type": "bool"
        }
      ],
      "name": "canForceClose",
      "outputs": [
        {
          "internalType": "bool",
          "name": "",
          "type": "bool"
        }
      ],
      "stateMutability": "view",
      "type": "function"
    },
    {
      "inputs": [
        {
          "internalType": "address",
          "name": "pool",
          "type": "address"
        },
        {
          "internalType": "bool",
          "name": "positionIsToken0",
          "type": "bool"
        },
        {
          "internalType": "bool",
          "name": "isAdd",
          "type": "bool"
        }
      ],
      "name": "cancelOrder",
      "outputs": [],
      "stateMutability": "nonpayable",
      "type": "function"
    },
    {
      "inputs": [
        {
          "internalType": "address",
          "name": "pool",
          "type": "address"
        },
        {
          "internalType": "address",
          "name": "borrower",
          "type": "address"
        },
        {
          "internalType": "bool",
          "name": "borrowedToken1",
          "type": "bool"
        }
      ],
      "name": "checkPositionExists",
      "outputs": [
        {
          "internalType": "bool",
          "name": "",
          "type": "bool"
        }
      ],
      "stateMutability": "view",
      "type": "function"
    },
    {
      "inputs": [
        {
          "components": [
            {
              "internalType": "address",
              "name": "token0",
              "type": "address"
            },
            {
              "internalType": "address",
              "name": "token1",
              "type": "address"
            },
            {
              "internalType": "uint24",
              "name": "fee",
              "type": "uint24"
            }
          ],
          "internalType": "struct PoolKey",
          "name": "key",
          "type": "tuple"
        },
        {
          "internalType": "address",
          "name": "trader",
          "type": "address"
        },
        {
          "internalType": "bool",
          "name": "borrowToken1",
          "type": "bool"
        },
        {
          "internalType": "uint256",
          "name": "amount",
          "type": "uint256"
        }
      ],
      "name": "depositPremium",
      "outputs": [],
      "stateMutability": "nonpayable",
      "type": "function"
    },
    {
      "inputs": [],
      "name": "executioner",
      "outputs": [
        {
          "internalType": "contract Executioner",
          "name": "",
          "type": "address"
        }
      ],
      "stateMutability": "view",
      "type": "function"
    },
    {
      "inputs": [
        {
          "components": [
            {
              "internalType": "address",
              "name": "token0",
              "type": "address"
            },
            {
              "internalType": "address",
              "name": "token1",
              "type": "address"
            },
            {
              "internalType": "uint24",
              "name": "fee",
              "type": "uint24"
            }
          ],
          "internalType": "struct PoolKey",
          "name": "key",
          "type": "tuple"
        },
        {
          "components": [
            {
              "internalType": "address",
              "name": "trader",
              "type": "address"
            },
            {
              "internalType": "bool",
              "name": "positionIsToken0",
              "type": "bool"
            },
            {
              "internalType": "uint256",
              "name": "fillerPayAmount",
              "type": "uint256"
            },
            {
              "internalType": "int24",
              "name": "slippedTickMin",
              "type": "int24"
            },
            {
              "internalType": "int24",
              "name": "slippedTickMax",
              "type": "int24"
            }
          ],
          "internalType": "struct ForceCloseParams",
          "name": "param",
          "type": "tuple"
        }
      ],
      "name": "forceClose",
      "outputs": [
        {
          "internalType": "uint256",
          "name": "premium",
          "type": "uint256"
        }
      ],
      "stateMutability": "nonpayable",
      "type": "function"
    },
    {
      "inputs": [
        {
          "internalType": "address",
          "name": "pool",
          "type": "address"
        },
        {
          "internalType": "address",
          "name": "borrower",
          "type": "address"
        },
        {
          "internalType": "bool",
          "name": "borrowedToken1",
          "type": "bool"
        }
      ],
      "name": "getBorrowInfo",
      "outputs": [
        {
          "components": [
            {
              "internalType": "int24",
              "name": "tick",
              "type": "int24"
            },
            {
              "internalType": "uint128",
              "name": "liquidity",
              "type": "uint128"
            },
            {
              "internalType": "uint256",
              "name": "premium",
              "type": "uint256"
            },
            {
              "internalType": "uint256",
              "name": "feeGrowthInside0LastX128",
              "type": "uint256"
            },
            {
              "internalType": "uint256",
              "name": "feeGrowthInside1LastX128",
              "type": "uint256"
            },
            {
              "internalType": "uint256",
              "name": "lastGrowth",
              "type": "uint256"
            }
          ],
          "internalType": "struct LiquidityLoan[]",
          "name": "",
          "type": "tuple[]"
        }
      ],
      "stateMutability": "view",
      "type": "function"
    },
    {
      "inputs": [
        {
          "internalType": "address",
          "name": "pool",
          "type": "address"
        },
        {
          "internalType": "address",
          "name": "trader",
          "type": "address"
        },
        {
          "internalType": "bool",
          "name": "positionIsToken0",
          "type": "bool"
        }
      ],
      "name": "getLastRepayTime",
      "outputs": [
        {
          "internalType": "uint32",
          "name": "",
          "type": "uint32"
        }
      ],
      "stateMutability": "view",
      "type": "function"
    },
    {
      "inputs": [
        {
          "internalType": "address",
          "name": "pool",
          "type": "address"
        },
        {
          "internalType": "address",
          "name": "trader",
          "type": "address"
        },
        {
          "internalType": "bool",
          "name": "positionIsToken0",
          "type": "bool"
        },
        {
          "internalType": "bool",
          "name": "isAdd",
          "type": "bool"
        }
      ],
      "name": "getOrderId",
      "outputs": [
        {
          "internalType": "bytes32",
          "name": "",
          "type": "bytes32"
        }
      ],
      "stateMutability": "pure",
      "type": "function"
    },
    {
      "inputs": [
        {
          "internalType": "address",
          "name": "pool",
          "type": "address"
        },
        {
          "internalType": "address",
          "name": "trader",
          "type": "address"
        },
        {
          "internalType": "bool",
          "name": "positionIsToken0",
          "type": "bool"
        }
      ],
      "name": "getPosition",
      "outputs": [
        {
          "components": [
            {
              "components": [
                {
                  "internalType": "address",
                  "name": "pool",
                  "type": "address"
                },
                {
                  "internalType": "bool",
                  "name": "isToken0",
                  "type": "bool"
                },
                {
                  "internalType": "uint256",
                  "name": "totalDebtOutput",
                  "type": "uint256"
                },
                {
                  "internalType": "uint256",
                  "name": "totalDebtInput",
                  "type": "uint256"
                },
                {
                  "internalType": "uint32",
                  "name": "lastPremiumPaymentTime",
                  "type": "uint32"
                },
                {
                  "internalType": "uint32",
                  "name": "openTime",
                  "type": "uint32"
                },
                {
                  "components": [
                    {
                      "internalType": "int24",
                      "name": "tick",
                      "type": "int24"
                    },
                    {
                      "internalType": "uint128",
                      "name": "liquidity",
                      "type": "uint128"
                    },
                    {
                      "internalType": "uint256",
                      "name": "premium",
                      "type": "uint256"
                    },
                    {
                      "internalType": "uint256",
                      "name": "feeGrowthInside0LastX128",
                      "type": "uint256"
                    },
                    {
                      "internalType": "uint256",
                      "name": "feeGrowthInside1LastX128",
                      "type": "uint256"
                    },
                    {
                      "internalType": "uint256",
                      "name": "lastGrowth",
                      "type": "uint256"
                    }
                  ],
                  "internalType": "struct LiquidityLoan[]",
                  "name": "borrowInfo",
                  "type": "tuple[]"
                }
              ],
              "internalType": "struct Position",
              "name": "base",
              "type": "tuple"
            },
            {
              "internalType": "uint256",
              "name": "totalPosition",
              "type": "uint256"
            },
            {
              "internalType": "uint256",
              "name": "margin",
              "type": "uint256"
            },
            {
              "internalType": "bool",
              "name": "marginInPosToken",
              "type": "bool"
            }
          ],
          "internalType": "struct MarginPosition",
          "name": "",
          "type": "tuple"
        }
      ],
      "stateMutability": "view",
      "type": "function"
    },
    {
      "inputs": [
        {
          "internalType": "address",
          "name": "pool",
          "type": "address"
        },
        {
          "internalType": "address",
          "name": "trader",
          "type": "address"
        },
        {
          "internalType": "bool",
          "name": "positionIsToken0",
          "type": "bool"
        }
      ],
      "name": "getPositionId",
      "outputs": [
        {
          "internalType": "PositionId",
          "name": "",
          "type": "bytes32"
        }
      ],
      "stateMutability": "pure",
      "type": "function"
    },
    {
      "inputs": [
        {
          "internalType": "address",
          "name": "pm",
          "type": "address"
        },
        {
          "internalType": "address",
          "name": "ex",
          "type": "address"
        }
      ],
      "name": "initialize",
      "outputs": [],
      "stateMutability": "nonpayable",
      "type": "function"
    },
    {
      "inputs": [
        {
          "internalType": "address",
          "name": "",
          "type": "address"
        }
      ],
      "name": "isWhitelistedFiller",
      "outputs": [
        {
          "internalType": "bool",
          "name": "",
          "type": "bool"
        }
      ],
      "stateMutability": "view",
      "type": "function"
    },
    {
      "inputs": [
        {
          "internalType": "bytes[]",
          "name": "data",
          "type": "bytes[]"
        }
      ],
      "name": "multicall",
      "outputs": [
        {
          "internalType": "bytes[]",
          "name": "results",
          "type": "bytes[]"
        }
      ],
      "stateMutability": "nonpayable",
      "type": "function"
    },
    {
      "inputs": [
        {
          "internalType": "bytes32",
          "name": "",
          "type": "bytes32"
        }
      ],
      "name": "orders",
      "outputs": [
        {
          "components": [
            {
              "internalType": "address",
              "name": "token0",
              "type": "address"
            },
            {
              "internalType": "address",
              "name": "token1",
              "type": "address"
            },
            {
              "internalType": "uint24",
              "name": "fee",
              "type": "uint24"
            }
          ],
          "internalType": "struct PoolKey",
          "name": "key",
          "type": "tuple"
        },
        {
          "internalType": "bool",
          "name": "positionIsToken0",
          "type": "bool"
        },
        {
          "internalType": "uint32",
          "name": "auctionDeadline",
          "type": "uint32"
        },
        {
          "internalType": "uint32",
          "name": "auctionStartTime",
          "type": "uint32"
        },
        {
          "internalType": "uint256",
          "name": "startOutput",
          "type": "uint256"
        },
        {
          "internalType": "uint256",
          "name": "minOutput",
          "type": "uint256"
        },
        {
          "internalType": "uint256",
          "name": "inputAmount",
          "type": "uint256"
        },
        {
          "internalType": "uint256",
          "name": "decayRate",
          "type": "uint256"
        },
        {
          "internalType": "uint256",
          "name": "margin",
          "type": "uint256"
        }
      ],
      "stateMutability": "view",
      "type": "function"
    },
    {
      "inputs": [
        {
          "components": [
            {
              "internalType": "address",
              "name": "token0",
              "type": "address"
            },
            {
              "internalType": "address",
              "name": "token1",
              "type": "address"
            },
            {
              "internalType": "uint24",
              "name": "fee",
              "type": "uint24"
            }
          ],
          "internalType": "struct PoolKey",
          "name": "key",
          "type": "tuple"
        },
        {
          "internalType": "bool",
          "name": "payToken1",
          "type": "bool"
        },
        {
          "internalType": "uint256",
          "name": "depositAmount",
          "type": "uint256"
        }
      ],
      "name": "payPremium",
      "outputs": [
        {
          "internalType": "uint256",
          "name": "premiumOwed",
          "type": "uint256"
        }
      ],
      "stateMutability": "nonpayable",
      "type": "function"
    },
    {
      "inputs": [
        {
          "internalType": "PositionId",
          "name": "",
          "type": "bytes32"
        }
      ],
      "name": "positions",
      "outputs": [
        {
          "components": [
            {
              "internalType": "address",
              "name": "pool",
              "type": "address"
            },
            {
              "internalType": "bool",
              "name": "isToken0",
              "type": "bool"
            },
            {
              "internalType": "uint256",
              "name": "totalDebtOutput",
              "type": "uint256"
            },
            {
              "internalType": "uint256",
              "name": "totalDebtInput",
              "type": "uint256"
            },
            {
              "internalType": "uint32",
              "name": "lastPremiumPaymentTime",
              "type": "uint32"
            },
            {
              "internalType": "uint32",
              "name": "openTime",
              "type": "uint32"
            },
            {
              "components": [
                {
                  "internalType": "int24",
                  "name": "tick",
                  "type": "int24"
                },
                {
                  "internalType": "uint128",
                  "name": "liquidity",
                  "type": "uint128"
                },
                {
                  "internalType": "uint256",
                  "name": "premium",
                  "type": "uint256"
                },
                {
                  "internalType": "uint256",
                  "name": "feeGrowthInside0LastX128",
                  "type": "uint256"
                },
                {
                  "internalType": "uint256",
                  "name": "feeGrowthInside1LastX128",
                  "type": "uint256"
                },
                {
                  "internalType": "uint256",
                  "name": "lastGrowth",
                  "type": "uint256"
                }
              ],
              "internalType": "struct LiquidityLoan[]",
              "name": "borrowInfo",
              "type": "tuple[]"
            }
          ],
          "internalType": "struct Position",
          "name": "base",
          "type": "tuple"
        },
        {
          "internalType": "uint256",
          "name": "totalPosition",
          "type": "uint256"
        },
        {
          "internalType": "uint256",
          "name": "margin",
          "type": "uint256"
        },
        {
          "internalType": "bool",
          "name": "marginInPosToken",
          "type": "bool"
        }
      ],
      "stateMutability": "view",
      "type": "function"
    },
    {
      "inputs": [
        {
          "components": [
            {
              "internalType": "address",
              "name": "token0",
              "type": "address"
            },
            {
              "internalType": "address",
              "name": "token1",
              "type": "address"
            },
            {
              "internalType": "uint24",
              "name": "fee",
              "type": "uint24"
            }
          ],
          "internalType": "struct PoolKey",
          "name": "key",
          "type": "tuple"
        },
        {
          "components": [
            {
              "internalType": "bool",
              "name": "positionIsToken0",
              "type": "bool"
            },
            {
              "internalType": "uint256",
              "name": "reducePercentage",
              "type": "uint256"
            },
            {
              "internalType": "uint256",
              "name": "minOutput",
              "type": "uint256"
            },
            {
              "internalType": "address",
              "name": "trader",
              "type": "address"
            },
            {
              "internalType": "uint256",
              "name": "executionOption",
              "type": "uint256"
            },
            {
              "internalType": "bytes",
              "name": "executionData",
              "type": "bytes"
            },
            {
              "internalType": "int24",
              "name": "slippedTickMin",
              "type": "int24"
            },
            {
              "internalType": "int24",
              "name": "slippedTickMax",
              "type": "int24"
            },
            {
              "internalType": "uint256",
              "name": "reduceAmount",
              "type": "uint256"
            }
          ],
          "internalType": "struct ReduceParam",
          "name": "param",
          "type": "tuple"
        }
      ],
      "name": "reducePosition",
      "outputs": [
        {
          "components": [
            {
              "internalType": "int256",
              "name": "amount0",
              "type": "int256"
            },
            {
              "internalType": "int256",
              "name": "amount1",
              "type": "int256"
            },
            {
              "internalType": "int256",
              "name": "PnL",
              "type": "int256"
            },
            {
              "internalType": "uint256",
              "name": "returnedAmount",
              "type": "uint256"
            },
            {
              "internalType": "uint256",
              "name": "repaidDebt0",
              "type": "uint256"
            },
            {
              "internalType": "uint256",
              "name": "repaidDebt1",
              "type": "uint256"
            },
            {
              "internalType": "uint256",
              "name": "premium",
              "type": "uint256"
            },
            {
              "internalType": "uint256",
              "name": "profitFee",
              "type": "uint256"
            }
          ],
          "internalType": "struct ReduceReturn",
          "name": "",
          "type": "tuple"
        }
      ],
      "stateMutability": "nonpayable",
      "type": "function"
    },
    {
      "inputs": [
        {
          "internalType": "address",
          "name": "newOwner",
          "type": "address"
        }
      ],
      "name": "setOwner",
      "outputs": [],
      "stateMutability": "nonpayable",
      "type": "function"
    },
    {
      "inputs": [
        {
          "internalType": "address",
          "name": "poolManager_",
          "type": "address"
        },
        {
          "internalType": "address",
          "name": "executioner_",
          "type": "address"
        }
      ],
      "name": "setProtocolContracts",
      "outputs": [],
      "stateMutability": "nonpayable",
      "type": "function"
    },
    {
      "inputs": [
        {
          "internalType": "address",
          "name": "pool",
          "type": "address"
        },
        {
          "internalType": "bool",
          "name": "positionIsToken0",
          "type": "bool"
        },
        {
          "internalType": "bool",
          "name": "isAdd",
          "type": "bool"
        },
        {
          "internalType": "uint256",
          "name": "deadline",
          "type": "uint256"
        },
        {
          "internalType": "uint256",
          "name": "startOutput",
          "type": "uint256"
        },
        {
          "internalType": "uint256",
          "name": "minOutput",
          "type": "uint256"
        },
        {
          "internalType": "uint256",
          "name": "inputAmount",
          "type": "uint256"
        },
        {
          "internalType": "uint256",
          "name": "decayRate",
          "type": "uint256"
        },
        {
          "internalType": "uint256",
          "name": "margin",
          "type": "uint256"
        }
      ],
      "name": "submitOrder",
      "outputs": [],
      "stateMutability": "nonpayable",
      "type": "function"
    },
    {
      "inputs": [
        {
          "components": [
            {
              "internalType": "address",
              "name": "token0",
              "type": "address"
            },
            {
              "internalType": "address",
              "name": "token1",
              "type": "address"
            },
            {
              "internalType": "uint24",
              "name": "fee",
              "type": "uint24"
            }
          ],
          "internalType": "struct PoolKey",
          "name": "key",
          "type": "tuple"
        },
        {
          "internalType": "address",
          "name": "trader",
          "type": "address"
        },
        {
          "internalType": "bool",
          "name": "borrowToken1",
          "type": "bool"
        },
        {
          "internalType": "uint256",
          "name": "toSwapAmount",
          "type": "uint256"
        },
        {
          "internalType": "uint256",
          "name": "minOutput",
          "type": "uint256"
        }
      ],
      "name": "swapAndDepositPremium",
      "outputs": [],
      "stateMutability": "nonpayable",
      "type": "function"
    },
    {
      "inputs": [
        {
          "components": [
            {
              "internalType": "address",
              "name": "token0",
              "type": "address"
            },
            {
              "internalType": "address",
              "name": "token1",
              "type": "address"
            },
            {
              "internalType": "uint24",
              "name": "fee",
              "type": "uint24"
            }
          ],
          "internalType": "struct PoolKey",
          "name": "key",
          "type": "tuple"
        },
        {
          "internalType": "bool",
          "name": "borrowToken1",
          "type": "bool"
        },
        {
          "internalType": "uint256",
          "name": "amount",
          "type": "uint256"
        },
        {
          "internalType": "bool",
          "name": "isClose",
          "type": "bool"
        }
      ],
      "name": "withdrawPremium",
      "outputs": [],
      "stateMutability": "nonpayable",
      "type": "function"
    }
  ],
  "bytecode": {
    "object": "0x608060405234801561001057600080fd5b50615fbc80620000216000396000f3fe608060405234801561001057600080fd5b50600436106101c45760003560e01c80638c1395f8116100f9578063dbe5f6cb11610097578063e2dad6fa11610071578063e2dad6fa146104f9578063e5c9c2ed1461050c578063f2edf95a1461051f578063f6f0ea891461053257600080fd5b8063dbe5f6cb146104a8578063dc6ab02f146104bb578063de074f10146104e657600080fd5b8063b68e3c33116100d3578063b68e3c3314610447578063bcb92fa51461045a578063bfd4c2a51461046d578063d93a90471461048057600080fd5b80638c1395f8146103525780639c3f1e9014610372578063ac9650d81461042757600080fd5b8063514ea4bf116101665780635d4936ff116101405780635d4936ff146102cc57806360958fe0146102ec578063657b5a4b146102ff5780637a3085041461031f57600080fd5b8063514ea4bf146102755780635277a3241461029857806352b38902146102b957600080fd5b806328ec7232116101a257806328ec72321461021a5780632a6f8a541461022d5780633eb4adab1461024f578063485cc9551461026257600080fd5b806313af4035146101c9578063228e062a146101de57806327bd6f83146101f1575b600080fd5b6101dc6101d7366004613bd4565b610545565b005b6101dc6101ec366004613c0a565b61059a565b6102046101ff366004613e55565b610745565b6040516102119190613f93565b60405180910390f35b6101dc610228366004613fa2565b61136f565b61024061023b3660046140e9565b61145b565b60405161021193929190614345565b6101dc61025d36600461436a565b611ded565b6101dc61027036600461436a565b61203e565b6102886102833660046143a3565b612152565b60405161021194939291906143bc565b6102ab6102a63660046143ed565b61227c565b604051908152602001610211565b6101dc6102c73660046144a4565b6128ea565b6102ab6102da3660046143a3565b60046020526000908152604090205481565b6101dc6102fa366004613bd4565b61298c565b61031261030d3660046144fe565b6129df565b6040516102119190614573565b61034261032d366004613bd4565b60076020526000908152604090205460ff1681565b6040519015158152602001610211565b6103656103603660046144fe565b612b4c565b6040516102119190614586565b6104126103803660046143a3565b600560208181526000928352604092839020835160608101855281546001600160a01b039081168252600183015490811693820193909352600160a01b90920462ffffff1693820193909352600283015460038401546004850154938501546006860154600790960154939560ff841695610100850463ffffffff908116966501000000000090960416949092919089565b604051610211999897969594939291906145c5565b61043a610435366004614618565b612cb7565b60405161021191906146dc565b6101dc61045536600461436a565b612dac565b6101dc61046836600461473e565b612e10565b6102ab61047b366004614790565b612e9c565b61049361048e3660046144fe565b612f00565b60405163ffffffff9091168152602001610211565b6101dc6104b63660046147e1565b612f33565b6001546104ce906001600160a01b031681565b6040516001600160a01b039091168152602001610211565b6102ab6104f4366004614831565b612f84565b610342610507366004614885565b613141565b6101dc61051a36600461436a565b613201565b61034261052d3660046144fe565b6132b8565b6102ab6105403660046144fe565b6132e6565b6002546001600160a01b031633146105785760405162461bcd60e51b815260040161056f906149e1565b60405180910390fd5b600280546001600160a01b0319166001600160a01b0392909216919091179055565b6003546001146105bc5760405162461bcd60e51b815260040161056f90614a01565b60026003558661060d57826105d28a338b612b4c565b60200151101561060d5760405162461bcd60e51b815260040161056f9060208082526004908201526321706f7360e01b604082015260600190565b6005600061061d8b338c8c612e9c565b81526020810191909152604090810160002090516319b5cb0360e01b81526004810191909152881515602482015260448101879052606481018690526084810185905260a4810184905260c4810183905260e4810182905273__$506f8190e26c635088963c8a0018e71746$__906319b5cb03906101040160006040518083038186803b1580156106ad57600080fd5b505af41580156106c1573d6000803e3d6000fd5b5050604080518a15158152602081018a9052908101889052606081018790526080810186905260a0810185905260c081018490523392508a151591506001600160a01b038c16907f4c34e64fbcdd268148a9e26a3b2c922bd24162485ce0b2ba28e4ce57d9a2c33c9060e00160405180910390a45050600160035550505050505050565b61074d61391a565b60035460011461076f5760405162461bcd60e51b815260040161056f90614a01565b600260035561077c61395f565b61078461391a565b600054604051639525092360e01b8152620100009091046001600160a01b0316906395250923906107b9908890600401614a7f565b6101c060405180830381865afa1580156107d7573d6000803e3d6000fd5b505050506040513d601f19601f820116820180604052508101906107fb9190614b71565b61016085015260020b60208401526001600160a01b031680835260608501518551600092600692849261082f9291906132e6565b8152602001908152602001600020905060008160050154116108815760405162461bcd60e51b815260206004820152600b60248201526a3737903837b9b4ba34b7b760a91b604482015260640161056f565b600573__$506f8190e26c635088963c8a0018e71746$__63f175701d9091600788856108bc89600001518c606001518d600001516000612e9c565b6040518663ffffffff1660e01b81526004016108dc959493929190614cce565b606060405180830381865af41580156108f9573d6000803e3d6000fd5b505050506040513d601f19601f8201168201806040525081019061091d9190614d9e565b6020880152610100850152604080850191909152805160e08101909152606090610a4a9080610951368b90038b018b614dcc565b815260200184600001600401805480602002602001604051908101604052809291908181526020016000905b828210156109f45760008481526020908190206040805160c081018252600586029092018054600281810b855263010000009091046001600160801b031684860152600180830154938501939093528101546060840152600381015460808401526004015460a0830152908352909201910161097d565b50505050815260200186600001516001600160a01b0316815260200188606001516001600160a01b031681526020018860000151151581526020018661016001518152602001866020015160020b81525061333d565b60c08501919091526020870151909150670de0b6b3a764000014610b89576004820180546040805160208084028201810190925282815292919060009084015b82821015610b015760008481526020908190206040805160c081018252600586029092018054600281810b855263010000009091046001600160801b031684860152600180830154938501939093528101546060840152600381015460808401526004015460a08301529083529092019101610a8a565b50505050602087015160405163069b8a8b60e31b815273__$d23a8dd93b7205fa6b646ffed38c165d68$__926334dc545892610b3f92600401614e3b565b600060405180830381865af4158015610b5c573d6000803e3d6000fd5b505050506040513d6000823e601f3d908101601f19168201604052610b849190810190614f14565b610c27565b6004820180546040805160208084028201810190925282815292919060009084015b82821015610c225760008481526020908190206040805160c081018252600586029092018054600281810b855263010000009091046001600160801b031684860152600180830154938501939093528101546060840152600381015460808401526004015460a08301529083529092019101610bab565b505050505b6101808501526006820154610140850152600782015460ff1615156101c085015260058201546101008501511015610cd8576101008401516020870151610180860151604051631b74fb1560e31b815273__$506f8190e26c635088963c8a0018e71746$__9363dba7d8a893610ca39388938890600401614f48565b60006040518083038186803b158015610cbb57600080fd5b505af4158015610ccf573d6000803e3d6000fd5b50505050610d5e565b835160608701518751600692600092610cf0926132e6565b81526020810191909152604001600090812080546001600160a81b0319168155600181018290556002810182905560038101805467ffffffffffffffff19169055908181610d4160048301826139df565b5050600060058301819055600683015550600701805460ff191690555b83600001516001600160a01b0316633850c7bd6040518163ffffffff1660e01b815260040160e060405180830381865afa158015610da0573d6000803e3d6000fd5b505050506040513d601f19601f82011682018060405250810190610dc49190614f96565b50505050600291820b608088018190526001600160a01b0390931660608801525060c0880151900b1380610e055750836080015160020b8660e0015160020b125b15610e2357604051631e6012f360e21b815260040160405180910390fd5b6101808401516040516337a6142160e01b815273__$d23a8dd93b7205fa6b646ffed38c165d68$__916337a6142191610e5f9190600401614573565b6040805180830381865af4158015610e7b573d6000803e3d6000fd5b505050506040513d601f19601f82011682018060405250810190610e9f919061502e565b600290810b60c0870181905291810b60a0870181905288516080880151602089015160405163146d722d60e31b8152921515600484015290840b60248301526044820194909452606481019190915291900b608482015260009073__$d23a8dd93b7205fa6b646ffed38c165d68$__9063a36b91689060a401602060405180830381865af4158015610f35573d6000803e3d6000fd5b505050506040513d601f19601f82011682018060405250810190610f59919061505d565b9050806001036110e457604080516060810182526000546001600160a01b0362010000909104811682526001541660208201526101c08701511515818301529051631d6c0b8760e21b815273__$506f8190e26c635088963c8a0018e71746$__916375b02e1c91610fd5918b9189918e918c91906004016150fe565b600060405180830381865af4158015610ff2573d6000803e3d6000fd5b505050506040513d6000823e601f3d908101601f1916820160405261101a919081019061532a565b610120810151909650909450156110df576110ac856101c001516110605787516110505761104b60208a018a613bd4565b611083565b61104b60408a0160208b01613bd4565b87516110765761104b60408a0160208b01613bd4565b61108360208a018a613bd4565b60025461012088015160e08801516001600160a01b03909216916110a7919061549c565b613428565b6110df6110be368a90038a018a614dcc565b866101c001516110cf5788516110d3565b8851155b876101200151856134a6565b6112e1565b8060020361119c5773__$506f8190e26c635088963c8a0018e71746$__63c132482686610180015189878c8a6101400151600060029054906101000a90046001600160a01b03168c61010001516040518863ffffffff1660e01b815260040161115397969594939291906154af565b61010060405180830381865af4158015611171573d6000803e3d6000fd5b505050506040513d601f19601f82011682018060405250810190611195919061551f565b93506112e1565b8660800151600114806111b3575086608001516002145b1561122a57604080516060810182526000546001600160a01b0362010000909104811682526001541660208201526101c0870151151581830152905163beea76f360e01b815273__$506f8190e26c635088963c8a0018e71746$__9163beea76f391611153918b9189918e918c91906004016150fe565b604080516060810182526000546001600160a01b0362010000909104811682526001541660208201526101c0870151151581830152905163011267d160e11b815273__$506f8190e26c635088963c8a0018e71746$__91630224cfa29161129c918b9189918e918c91906004016150fe565b61010060405180830381865af41580156112ba573d6000803e3d6000fd5b505050506040513d601f19601f820116820180604052508101906112de919061551f565b93505b6060878101518851875161010089015160c089015160e08a01516040808c0151815133815260208101959095528482019390935296830152608082015293516001600160a01b039384169492151593909116917f31b286e0de8f8aac642a6700694910f73ac8cb0e2c04442ac0b2a7fcdd87971c919081900360a00190a45050600160035550949350505050565b6003546001146113915760405162461bcd60e51b815260040161056f90614a01565b6002600355600560006113a685338686612e9c565b81526020808201929092526040908101600090812080546001600160a01b03191681556001810180546001600160b81b031916905560028101805468ffffffffffffffffff1916905560038101829055600481018290556005810182905560068101829055600701555182151581523391841515916001600160a01b038716917f761fde4703b3eb1ca92675208248e655ce58d6778c95e6e742ab9819a7f3d93d910160405180910390a45050600160035550565b611463613a03565b6000806003546001146114885760405162461bcd60e51b815260040161056f90614a01565b6002600355611495613a65565b600054604051639525092360e01b8152620100009091046001600160a01b0316906395250923906114ca908a90600401614a7f565b6101c060405180830381865afa1580156114e8573d6000803e3d6000fd5b505050506040513d601f19601f8201168201806040525081019061150c9190614b71565b604084015260020b60208301526001600160a01b031680825260c0870151608088015160009260069284926115429291906132e6565b8152602001908152602001600020905080600501546000146115aa57610140870151600782015460ff161515901515146115aa5760405162461bcd60e51b81526020600482015260096024820152683234b326b0b933b4b760b91b604482015260640161056f565b600573__$506f8190e26c635088963c8a0018e71746$__63f2f5c953909160076115e386600001518c60c001518d608001516001612e9c565b8b6040518563ffffffff1660e01b815260040161160394939291906155fa565b600060405180830381865af4158015611620573d6000803e3d6000fd5b505050506040513d6000823e601f3d908101601f191682016040526116489190810190615736565b60608401919091526101408101519097506116c09061168c57876080015161167c5761167760208a018a613bd4565b6116b2565b61167760408a0160208b01613bd4565b87608001516116a55761167760408a0160208b01613bd4565b6116b260208a018a613bd4565b60c089015189513090613551565b60005461014088015160025460405163d15311e760e01b815273__$506f8190e26c635088963c8a0018e71746$__9363d15311e79361171e938e938e938e936001600160a01b0362010000909204821693909291169060040161577c565b600060405180830381865af415801561173b573d6000803e3d6000fd5b505050506040513d6000823e601f3d908101601f1916820160405261176391908101906157dd565b6080860192909252985096509250611793611783368a90038a018a614dcc565b88608001518460800151896134a6565b8151600054602084015160408086015151905163cf2778e960e01b815273__$eacbb88ed4bd2af84aa4d43bcf675bcf7e$__9463cf2778e9946117ee949193620100009091046001600160a01b0316928d9190600401615853565b600060405180830381865af415801561180b573d6000803e3d6000fd5b505050506040513d6000823e601f3d908101601f191682016040526118339190810190614f14565b608088015160208401516040516341533fe760e01b815292985073__$d23a8dd93b7205fa6b646ffed38c165d68$__926341533fe792611877928b926004016158cf565b602060405180830381865af4158015611894573d6000803e3d6000fd5b505050506040513d601f19601f820116820180604052508101906118b8919061505d565b60e0830152600481015415611a675760606119e06040518060e001604052808b8036038101906118e89190614dcc565b815260200184600001600401805480602002602001604051908101604052809291908181526020016000905b8282101561198b5760008481526020908190206040805160c081018252600586029092018054600281810b855263010000009091046001600160801b031684860152600180830154938501939093528101546060840152600381015460808401526004015460a08301529083529092019101611914565b50505050815260200185600001516001600160a01b031681526020018a60c001516001600160a01b031681526020018a608001511515815260200185604001518152602001856020015160020b81525061333d565b604051630b7cb7c160e01b8152919650915073__$d23a8dd93b7205fa6b646ffed38c165d68$__90630b7cb7c190611a1e908a9085906004016158fc565b600060405180830381865af4158015611a3b573d6000803e3d6000fd5b505050506040513d6000823e601f3d908101601f19168201604052611a639190810190614f14565b9650505b73__$506f8190e26c635088963c8a0018e71746$__6319f4c2eb888a8560e00151600160009054906101000a90046001600160a01b0316876000015188606001518e6101400151611ab9576000611abc565b8e515b6040518863ffffffff1660e01b8152600401611ade979695949392919061592a565b6040805180830381865af4158015611afa573d6000803e3d6000fd5b505050506040513d601f19601f82011682018060405250810190611b1e919061597f565b60c084015260a083015260e0820151608088015173__$506f8190e26c635088963c8a0018e71746$__91632907f5c49184918b918b9190611b6c578760c00151611b67906159a3565b611b7a565b8760a00151611b7a906159a3565b8d61014001516040518763ffffffff1660e01b8152600401611ba1969594939291906159bf565b60006040518083038186803b158015611bb957600080fd5b505af4158015611bcd573d6000803e3d6000fd5b5050604080516101608101825284546001600160a01b03811660808301908152600160a01b90910460ff16151560a0830152600186015460c0830152600286015460e0830152600386015463ffffffff80821661010085015264010000000090910416610120830152600486018054845160208083028201810190965281815293965087955086949293869361014087019391929060009084015b82821015611cdf5760008481526020908190206040805160c081018252600586029092018054600281810b855263010000009091046001600160801b031684860152600180830154938501939093528101546060840152600381015460808401526004015460a08301529083529092019101611c68565b505050915250508152600582015460208201526006820154604082015260079091015460ff16151560609091015260c0880151608089015184516101408b01519398506001600160a01b039283169382151593909116917f66241d9e6f322aa9312bb633fb45fddd47dfa1d3f3cf201d6416ef20ba9c608f91903390611d72578760c00151611d6d906159a3565b611d80565b8760a00151611d80906159a3565b8d5160608f0151604051611dd29594939291908e908e9096151587526001600160a01b0395909516602087015260408601939093526060850191909152608084015260a083015260c082015260e00190565b60405180910390a45050600160038190555093509350939050565b6000546201000090046001600160a01b0316331480611e1657506002546001600160a01b031633145b611e4a5760405162461bcd60e51b8152602060048201526005602482015264042c2eae8d60db1b604482015260640161056f565b60005460405163095ea7b360e01b8152620100009091046001600160a01b039081166004830152600019602483015283169063095ea7b3906044016020604051808303816000875af1158015611ea4573d6000803e3d6000fd5b505050506040513d601f19601f82011682018060405250810190611ec89190615a0b565b5060005460405163095ea7b360e01b8152620100009091046001600160a01b039081166004830152600019602483015282169063095ea7b3906044016020604051808303816000875af1158015611f23573d6000803e3d6000fd5b505050506040513d601f19601f82011682018060405250810190611f479190615a0b565b5060015460405163095ea7b360e01b81526001600160a01b03918216600482015260001960248201529083169063095ea7b3906044016020604051808303816000875af1158015611f9c573d6000803e3d6000fd5b505050506040513d601f19601f82011682018060405250810190611fc09190615a0b565b5060015460405163095ea7b360e01b81526001600160a01b03918216600482015260001960248201529082169063095ea7b3906044016020604051808303816000875af1158015612015573d6000803e3d6000fd5b505050506040513d601f19601f820116820180604052508101906120399190615a0b565b505050565b600054610100900460ff161580801561205e5750600054600160ff909116105b806120785750303b158015612078575060005460ff166001145b6120db5760405162461bcd60e51b815260206004820152602e60248201527f496e697469616c697a61626c653a20636f6e747261637420697320616c72656160448201526d191e481a5b9a5d1a585b1a5e995960921b606482015260840161056f565b6000805460ff1916600117905580156120fe576000805461ff0019166101001790555b6121088383613201565b8015612039576000805461ff0019169055604051600181527f7f26b83ff96e1f2b6a682f133852f6798a09c465da95921460cefb38474024989060200160405180910390a1505050565b6006602090815260009182526040808320815160e08101835281546001600160a01b0381168252600160a01b900460ff1615158185015260018201548184015260028201546060820152600382015463ffffffff80821660808401526401000000009091041660a082015260048201805484518187028101870190955280855292959194869460c08701949093909184015b8282101561225b5760008481526020908190206040805160c081018252600586029092018054600281810b855263010000009091046001600160801b031684860152600180830154938501939093528101546060840152600381015460808401526004015460a083015290835290920191016121e4565b50505091525050600582015460068301546007909301549192909160ff1684565b60006003546001146122a05760405162461bcd60e51b815260040161056f90614a01565b60026003553360009081526007602052604090205460ff166122f15760405162461bcd60e51b815260206004820152600a6024820152693737ba103334b63632b960b11b604482015260640161056f565b6122f9613ab8565b600054604051639525092360e01b8152620100009091046001600160a01b03169063952509239061232e908790600401614a7f565b6101c060405180830381865afa15801561234c573d6000803e3d6000fd5b505050506040513d601f19601f820116820180604052508101906123709190614b71565b604084015260020b6020808401919091526001600160a01b0390911680835284519185015161239f9290612b4c565b606082018190528151845160208601516123be93889390929091613141565b6123f05760405162461bcd60e51b815260206004820152600360248201526221666360e81b604482015260640161056f565b80600001516001600160a01b0316633850c7bd6040518163ffffffff1660e01b815260040160e060405180830381865afa158015612432573d6000803e3d6000fd5b505050506040513d601f19601f820116820180604052508101906124569190614f96565b50505050600291820b60a085018190526001600160a01b039093166080850152506060850151900b138061249757508060a0015160020b836080015160020b125b156124b557604051631e6012f360e21b815260040160405180910390fd5b60608101515160c0015160208085015160a08401519184015160405163374b7d3d60e11b815260009473__$d23a8dd93b7205fa6b646ffed38c165d68$__94636e96fa7a9461250b949293909290600401615a28565b602060405180830381865af4158015612528573d6000803e3d6000fd5b505050506040513d601f19601f8201168201806040525081019061254c919061505d565b9050806001036125ff57606082015160208082015160408088015192880151935160c0015160015460005492516325d3777560e01b815273__$506f8190e26c635088963c8a0018e71746$__966325d37775966125ca968e9690959194929391926001600160a01b0390811692620100009092041690600401615a5b565b60006040518083038186803b1580156125e257600080fd5b505af41580156125f6573d6000803e3d6000fd5b5050505061274d565b8060020361266a576060820151805160c001516020918201519186015160005460405163ad6c502560e01b815273__$506f8190e26c635088963c8a0018e71746$__9463ad6c5025946125ca948c94919390916201000090046001600160a01b031690600401615ab9565b73__$506f8190e26c635088963c8a0018e71746$__6382e824478684606001516000015160c00151856060015160200151886020015187602001518860a0015189608001518c60400151600160009054906101000a90046001600160a01b0316600060029054906101000a90046001600160a01b0316600260009054906101000a90046001600160a01b03166040518c63ffffffff1660e01b815260040161271c9b9a99989796959493929190615aff565b60006040518083038186803b15801561273457600080fd5b505af4158015612748573d6000803e3d6000fd5b505050505b6127cf6040518060e001604052808780360381019061276c9190614dcc565b815260200184606001516000015160c00151815260200184600001516001600160a01b0316815260200186600001516001600160a01b0316815260200186602001511515815260200184604001518152602001846020015160020b8152506135db565b9250600660006127ec8460000151876000015188602001516132e6565b81526020810191909152604001600090812080546001600160a81b0319168155600181018290556002810182905560038101805467ffffffffffffffff1916905590818161283d60048301826139df565b5050600060058301819055600683015550600701805460ff19169055835160208086015184516060808701518082015160408083015192870151818d0151825193151584529783019390935281019190915290810193909352608083018590526001600160a01b0393841693911515929116907fdc901c8449d4d3dcbcbb54a310222e89387186f4cc38d072c1d6c866263836049060a00160405180910390a45050600160035592915050565b600054600154604051633206eea360e21b815273__$eacbb88ed4bd2af84aa4d43bcf675bcf7e$__9263c81bba8c92612943926004926001600160a01b036201000090910481169216908b908a908a908a908701615b7e565b602060405180830381865af4158015612960573d6000803e3d6000fd5b505050506040513d601f19601f82011682018060405250810190612984919061505d565b505050505050565b6002546001600160a01b031633146129b65760405162461bcd60e51b815260040161056f906149e1565b6001600160a01b03166000908152600760205260409020805460ff19811660ff90911615179055565b60606000600660006129f28787876132e6565b81526020808201929092526040908101600090812082516101608101845281546001600160a01b03811660808301908152600160a01b90910460ff16151560a0830152600183015460c0830152600283015460e0830152600383015463ffffffff8082166101008501526401000000009091041661012083015260048301805486518189028101890190975280875292969395879592948794610140880194929392909184015b82821015612b105760008481526020908190206040805160c081018252600586029092018054600281810b855263010000009091046001600160801b031684860152600180830154938501939093528101546060840152600381015460808401526004015460a08301529083529092019101612a99565b505050915250508152600582015460208201526006820154604082015260079091015460ff1615156060909101525160c0015195945050505050565b612b54613a03565b60066000612b638686866132e6565b81526020808201929092526040908101600090812082516101608101845281546001600160a01b03811660808301908152600160a01b90910460ff16151560a0830152600183015460c0830152600283015460e0830152600383015463ffffffff8082166101008501526401000000009091041661012083015260048301805486518189028101890190975280875292969395879592948794610140880194929392909184015b82821015612c815760008481526020908190206040805160c081018252600586029092018054600281810b855263010000009091046001600160801b031684860152600180830154938501939093528101546060840152600381015460808401526004015460a08301529083529092019101612c0a565b505050915250508152600582015460208201526006820154604082015260079091015460ff161515606090910152949350505050565b6060816001600160401b03811115612cd157612cd1613ca3565b604051908082528060200260200182016040528015612d0457816020015b6060815260200190600190039081612cef5790505b50905060005b82811015612da457612d7430858584818110612d2857612d28615bc9565b9050602002810190612d3a9190615bdf565b8080601f01602080910402602001604051908101604052809392919081815260200183838082843760009201919091525061368f92505050565b828281518110612d8657612d86615bc9565b60200260200101819052508080612d9c90615c2c565b915050612d0a565b505b92915050565b6002546001600160a01b03163314612dd65760405162461bcd60e51b815260040161056f906149e1565b6000805462010000600160b01b031916620100006001600160a01b0394851602179055600180546001600160a01b03191691909216179055565b600054604051600162343aeb60e21b0319815273__$eacbb88ed4bd2af84aa4d43bcf675bcf7e$__9163ff2f145491612e6691600491620100009091046001600160a01b03169089908990899089908601615c45565b60006040518083038186803b158015612e7e57600080fd5b505af4158015612e92573d6000803e3d6000fd5b5050505050505050565b6040516bffffffffffffffffffffffff19606086811b8216602084015285901b16603482015282151560f890811b6048830152821515901b6049820152600090604a016040516020818303038152906040528051906020012090505b949350505050565b600060066000612f118686866132e6565b815260208101919091526040016000206003015463ffffffff16949350505050565b60005460405163633f114960e11b815273__$eacbb88ed4bd2af84aa4d43bcf675bcf7e$__9163c67e229291612e6691600491620100009091046001600160a01b0316908990889088908501615c88565b6000600354600114612fa85760405162461bcd60e51b815260040161056f90614a01565b600260035560008054604051639525092360e01b815282918291620100009091046001600160a01b031690639525092390612fe7908a90600401614a7f565b6101c060405180830381865afa158015613005573d6000803e3d6000fd5b505050506040513d601f19601f820116820180604052508101906130299190614b71565b92509250925061303a8333886132b8565b61304a5760009350505050613135565b60006130578433896129df565b90506130bb6040518060e001604052808a8036038101906130789190614dcc565b8152602001838152602001866001600160a01b03168152602001336001600160a01b0316815260200189151581526020018481526020018560020b81525061333d565b90955090506130cc843389846136b4565b6130fe876130e6576130e160208a018a613bd4565b6130f6565b6130f660408a0160208b01613bd4565b333089613551565b856004600061310e87338c6132e6565b8152602001908152602001600020600082825461312b9190615cbe565b9091555050505050505b60016003559392505050565b60008473__$506f8190e26c635088963c8a0018e71746$__63920f2f4090918885600060029054906101000a90046001600160a01b0316600460006131878c8c8c6132e6565b8152602001908152602001600020546040518663ffffffff1660e01b81526004016131b6959493929190615cd1565b602060405180830381865af41580156131d3573d6000803e3d6000fd5b505050506040513d601f19601f820116820180604052508101906131f79190615a0b565b9695505050505050565b600054610100900460ff1661326c5760405162461bcd60e51b815260206004820152602b60248201527f496e697469616c697a61626c653a20636f6e7472616374206973206e6f74206960448201526a6e697469616c697a696e6760a81b606482015260840161056f565b600080546001600160a01b03938416620100000262010000600160b01b031990911617905560018054919092166001600160a01b03199182161782556002805490911633179055600355565b600080600660006132ca8787876132e6565b8152602001908152602001600020600501541190509392505050565b60408051606085811b6bffffffffffffffffffffffff199081166020808501919091529186901b16603483015283151560f81b60488301528251602981840301815260499092019092528051910120600090612ef8565b600060606000600473__$eacbb88ed4bd2af84aa4d43bcf675bcf7e$__6313c1af43909186613379886040015189606001518a60800151612f00565b6000546001546040516001600160e01b031960e088901b1681526133b6959493926001600160a01b03620100009091048116921690600401615e3b565b600060405180830381865af41580156133d3573d6000803e3d6000fd5b505050506040513d6000823e601f3d908101601f191682016040526133fb9190810190615e81565b602086015260408501516060860151608087015192935061341b926137d3565b6020909301519293915050565b600060405163a9059cbb60e01b8152836004820152826024820152602060006044836000895af13d15601f3d11600160005114161716915050806134a05760405162461bcd60e51b815260206004820152600f60248201526e1514905394d1915497d19052531151608a1b604482015260640161056f565b50505050565b60005b81518110156134e75760008282815181106134c6576134c6615bc9565b602090810291909101015160400152806134df81615c2c565b9150506134a9565b5060005460405163fc6e9cbf60e01b8152620100009091046001600160a01b03169063fc6e9cbf90613523908790859088908890600401615ebd565b600060405180830381600087803b15801561353d57600080fd5b505af1158015612e92573d6000803e3d6000fd5b60006040516323b872dd60e01b81528460048201528360248201528260448201526020600060648360008a5af13d15601f3d11600160005114161716915050806135d45760405162461bcd60e51b81526020600482015260146024820152731514905394d1915497d19493d357d1905253115160621b604482015260640161056f565b5050505050565b6000806135f5836040015184606001518560800151612f00565b600054604051630bc847bd60e01b815291925073__$eacbb88ed4bd2af84aa4d43bcf675bcf7e$__91630bc847bd91613647916004918891620100009091046001600160a01b03169087908401615ef0565b602060405180830381865af4158015613664573d6000803e3d6000fd5b505050506040513d601f19601f82011682018060405250810190613688919061505d565b9392505050565b60606136888383604051806060016040528060278152602001615f6060279139613813565b6000600660006136c58787876132e6565b815260200190815260200160002090508060000160040160006136e891906139df565b60005b825181101561298457600083828151811061370857613708615bc9565b6020026020010151602001516001600160801b031611156137c1578160000160040183828151811061373c5761373c615bc9565b60209081029190910181015182546001818101855560009485529383902082516005909202018054938301516001600160801b03166301000000026001600160981b031990941662ffffff90921691909117929092178255604081015192820192909255606082015160028201556080820151600382015560a0909101516004909101555b806137cb81615c2c565b9150506136eb565b42600660006137e38686866132e6565b81526020810191909152604001600020600301805463ffffffff191663ffffffff92909216919091179055505050565b6060600080856001600160a01b0316856040516138309190615f30565b600060405180830381855af49150503d806000811461386b576040519150601f19603f3d011682016040523d82523d6000602084013e613870565b606091505b50915091506131f786838387606083156138eb5782516000036138e4576001600160a01b0385163b6138e45760405162461bcd60e51b815260206004820152601d60248201527f416464726573733a2063616c6c20746f206e6f6e2d636f6e7472616374000000604482015260640161056f565b5081612ef8565b612ef883838151156139005781518083602001fd5b8060405162461bcd60e51b815260040161056f9190615f4c565b60405180610100016040528060008152602001600081526020016000815260200160008152602001600081526020016000815260200160008152602001600081525090565b604080516101e081018252600080825260208201819052918101829052606081018290526080810182905260a0810182905260c0810182905260e081018290526101008101829052610120810182905261014081019190915261016081016139c5613af8565b815260606020820181905260006040830181905291015290565b5080546000825560050290600052602060002090810190613a009190613b70565b50565b60408051610160810190915260006080820181815260a0830182905260c0830182905260e08301829052610100830182905261012083019190915260606101408301528190815260200160008152602001600081526020016000151581525090565b604080516101208101825260008082526020820152908101613a85613af8565b81526020016000815260200160008152602001600081526020016000815260200160008152602001600080191681525090565b6040805160c08101825260008082526020820152908101613ad7613af8565b8152602001613ae4613a03565b815260006020820181905260409091015290565b6040518060e00160405280613b3c6040518060c001604052806000815260200160008152602001600081526020016000815260200160008152602001600081525090565b8152602001600081526020016000815260200160008152602001600061ffff16815260200160008152602001600081525090565b5b80821115613bab5780546001600160981b031916815560006001820181905560028201819055600382018190556004820155600501613b71565b5090565b6001600160a01b0381168114613a0057600080fd5b8035613bcf81613baf565b919050565b600060208284031215613be657600080fd5b813561368881613baf565b8015158114613a0057600080fd5b8035613bcf81613bf1565b60008060008060008060008060006101208a8c031215613c2957600080fd5b8935613c3481613baf565b985060208a0135613c4481613bf1565b975060408a0135613c5481613bf1565b989b979a5097986060810135985060808101359760a0820135975060c0820135965060e08201359550610100909101359350915050565b600060608284031215613c9d57600080fd5b50919050565b634e487b7160e01b600052604160045260246000fd5b60405161012081016001600160401b0381118282101715613cdc57613cdc613ca3565b60405290565b60405160c081016001600160401b0381118282101715613cdc57613cdc613ca3565b60405161016081016001600160401b0381118282101715613cdc57613cdc613ca3565b604051608081016001600160401b0381118282101715613cdc57613cdc613ca3565b60405160e081016001600160401b0381118282101715613cdc57613cdc613ca3565b6040516101e081016001600160401b0381118282101715613cdc57613cdc613ca3565b604051601f8201601f191681016001600160401b0381118282101715613db657613db6613ca3565b604052919050565b60006001600160401b03821115613dd757613dd7613ca3565b50601f01601f191660200190565b600082601f830112613df657600080fd5b8135613e09613e0482613dbe565b613d8e565b818152846020838601011115613e1e57600080fd5b816020850160208301376000918101602001919091529392505050565b8060020b8114613a0057600080fd5b8035613bcf81613e3b565b60008060808385031215613e6857600080fd5b613e728484613c8b565b915060608301356001600160401b0380821115613e8e57600080fd5b908401906101208287031215613ea357600080fd5b613eab613cb9565b613eb483613bff565b81526020830135602082015260408301356040820152613ed660608401613bc4565b60608201526080830135608082015260a083013582811115613ef757600080fd5b613f0388828601613de5565b60a083015250613f1560c08401613e4a565b60c0820152613f2660e08401613e4a565b60e0820152610100915081830135828201528093505050509250929050565b805182526020810151602083015260408101516040830152606081015160608301526080810151608083015260a081015160a083015260c081015160c083015260e081015160e08301525050565b6101008101612da68284613f45565b600080600060608486031215613fb757600080fd5b8335613fc281613baf565b92506020840135613fd281613bf1565b91506040840135613fe281613bf1565b809150509250925092565b60006001600160401b0382111561400657614006613ca3565b5060051b60200190565b6001600160801b0381168114613a0057600080fd5b600082601f83011261403657600080fd5b81356020614046613e0483613fed565b82815260c0928302850182019282820191908785111561406557600080fd5b8387015b858110156140dc5781818a0312156140815760008081fd5b614089613ce2565b813561409481613e3b565b8152818601356140a381614010565b8187015260408281013590820152606080830135908201526080808301359082015260a080830135908201528452928401928101614069565b5090979650505050505050565b600080600060a084860312156140fe57600080fd5b6141088585613c8b565b925060608401356001600160401b038082111561412457600080fd5b90850190610160828803121561413957600080fd5b614141613d04565b8235815260208301356020820152604083013560408201526060830135606082015261416f60808401613bff565b608082015260a083013560a082015261418a60c08401613bc4565b60c082015260e0830135828111156141a157600080fd5b6141ad89828601613de5565b60e0830152506101006141c1818501613e4a565b908201526101206141d3848201613e4a565b908201526101406141e5848201613bff565b90820152935060808601359150808211156141ff57600080fd5b5061420c86828701614025565b9150509250925092565b805160020b82526001600160801b03602082015116602083015260408101516040830152606081015160608301526080810151608083015260a081015160a08301525050565b600060e0830160018060a01b0383511684526020808401511515818601526040840151604086015260608401516060860152608084015163ffffffff80821660808801528060a08701511660a0880152505060c08085015160e082880152838151808652610100890191508483019550600092505b808310156142f8576142e4828751614216565b9484019460019290920191908301906142d1565b50979650505050505050565b6000815160808452614319608085018261425c565b905060208301516020850152604083015160408501526060830151151560608501528091505092915050565b6060815260006143586060830186614304565b60208301949094525060400152919050565b6000806040838503121561437d57600080fd5b823561438881613baf565b9150602083013561439881613baf565b809150509250929050565b6000602082840312156143b557600080fd5b5035919050565b6080815260006143cf608083018761425c565b60208301959095525060408101929092521515606090910152919050565b60008082840361010081121561440257600080fd5b61440c8585613c8b565b925060a0605f198201121561442057600080fd5b5060405160a081018181106001600160401b038211171561444357614443613ca3565b604052606084013561445481613baf565b8152608084013561446481613bf1565b602082015260a0840135604082015260c084013561448181613e3b565b606082015260e084013561449481613e3b565b6080820152919491935090915050565b600080600080600060e086880312156144bc57600080fd5b6144c68787613c8b565b945060608601356144d681613baf565b935060808601356144e681613bf1565b9497939650939460a0810135945060c0013592915050565b60008060006060848603121561451357600080fd5b833561451e81613baf565b92506020840135613fd281613baf565b600081518084526020808501945080840160005b8381101561456857614555878351614216565b60c0969096019590820190600101614542565b509495945050505050565b602081526000613688602083018461452e565b6020815260006136886020830184614304565b80516001600160a01b0390811683526020808301519091169083015260409081015162ffffff16910152565b61016081016145d4828c614599565b981515606082015263ffffffff97881660808201529590961660a086015260c085019390935260e08401919091526101008301526101208201526101400152919050565b6000806020838503121561462b57600080fd5b82356001600160401b038082111561464257600080fd5b818501915085601f83011261465657600080fd5b81358181111561466557600080fd5b8660208260051b850101111561467a57600080fd5b60209290920196919550909350505050565b60005b838110156146a757818101518382015260200161468f565b50506000910152565b600081518084526146c881602086016020860161468c565b601f01601f19169290920160200192915050565b6000602080830181845280855180835260408601915060408160051b870101925083870160005b8281101561473157603f1988860301845261471f8583516146b0565b94509285019290850190600101614703565b5092979650505050505050565b60008060008060c0858703121561475457600080fd5b61475e8686613c8b565b9350606085013561476e81613bf1565b92506080850135915060a085013561478581613bf1565b939692955090935050565b600080600080608085870312156147a657600080fd5b84356147b181613baf565b935060208501356147c181613baf565b925060408501356147d181613bf1565b9150606085013561478581613bf1565b60008060008060c085870312156147f757600080fd5b6148018686613c8b565b9350606085013561481181613baf565b9250608085013561482181613bf1565b9396929550929360a00135925050565b600080600060a0848603121561484657600080fd5b6148508585613c8b565b9250606084013561486081613bf1565b929592945050506080919091013590565b803563ffffffff81168114613bcf57600080fd5b600080600080600060e0868803121561489d57600080fd5b6148a78787613c8b565b945060608601356001600160401b03808211156148c357600080fd5b908701906080828a0312156148d757600080fd5b6148df613d27565b8235828111156148ee57600080fd5b830160e0818c03121561490057600080fd5b614908613d49565b61491182613bc4565b815261491f60208301613bff565b6020820152604082013560408201526060820135606082015261494460808301614871565b608082015261495560a08301614871565b60a082015260c08201358481111561496c57600080fd5b6149788d828501614025565b60c083015250808352505060208301356020820152604083013560408201526149a360608401613bff565b606082015295506149b991505060808701613bc4565b92506149c760a08701613bc4565b91506149d560c08701613bff565b90509295509295909350565b60208082526006908201526510b7bbb732b960d11b604082015260600190565b6020808252600a90820152695245454e5452414e435960b01b604082015260600190565b803562ffffff81168114613bcf57600080fd5b8035614a4381613baf565b6001600160a01b039081168352602082013590614a5f82613baf565b16602083015262ffffff614a7560408301614a25565b1660408301525050565b60608101612da68284614a38565b8051613bcf81613baf565b8051613bcf81613e3b565b805161ffff81168114613bcf57600080fd5b6000818303610180811215614ac957600080fd5b614ad1613d49565b915060c0811215614ae157600080fd5b50614aea613ce2565b825181526020830151602082015260408301516040820152606083015160608201526080830151608082015260a083015160a08201528082525060c0820151602082015260e082015160408201526101008201516060820152614b506101208301614aa3565b608082015261014082015160a082015261016082015160c082015292915050565b60008060006101c08486031215614b8757600080fd5b8351614b9281613baf565b6020850151909350614ba381613e3b565b9150614bb28560408601614ab5565b90509250925092565b600061012082511515845260208301516020850152604083015160408501526060830151614bf460608601826001600160a01b03169052565b506080830151608085015260a08301518160a0860152614c16828601826146b0565b91505060c0830151614c2d60c086018260020b9052565b5060e0830151614c4260e086018260020b9052565b50610100928301519390920192909252919050565b6000815480845260208085019450836000528060002060005b83811015614568578154600281810b895260189190911c6001600160801b03168489015260018084015460408a015290830154606089015260038301546080890152600483015460a089015260c09097019660059092019101614c70565b85815284602082015260a060408201526000614ced60a0830186614bbb565b828103606084015260808152845460018060a01b0381166080830152614d1d60a0830160ff8360a01c1615159052565b50600185015460c0820152600285015460e0820152600385015463ffffffff808216610100840152602082901c8116610120840152505060e0610140820152614d6d610160820160048701614c57565b600586015460208301526006860154604083015260079095015460ff16151560609091015250608001529392505050565b600080600060608486031215614db357600080fd5b8351925060208401519150604084015190509250925092565b600060608284031215614dde57600080fd5b604051606081018181106001600160401b0382111715614e0057614e00613ca3565b6040528235614e0e81613baf565b81526020830135614e1e81613baf565b6020820152614e2f60408401614a25565b60408201529392505050565b604081526000614e4e604083018561452e565b90508260208301529392505050565b600082601f830112614e6e57600080fd5b81516020614e7e613e0483613fed565b82815260c09283028501820192828201919087851115614e9d57600080fd5b8387015b858110156140dc5781818a031215614eb95760008081fd5b614ec1613ce2565b8151614ecc81613e3b565b815281860151614edb81614010565b8187015260408281015190820152606080830151908201526080808301519082015260a080830151908201528452928401928101614ea1565b600060208284031215614f2657600080fd5b81516001600160401b03811115614f3c57600080fd5b612ef884828501614e5d565b85815284602082015283604082015260a060608201526000614f6d60a083018561452e565b8281036080840152614f7f818561452e565b98975050505050505050565b8051613bcf81613bf1565b600080600080600080600060e0888a031215614fb157600080fd5b8751614fbc81613baf565b6020890151909750614fcd81613e3b565b9550614fdb60408901614aa3565b9450614fe960608901614aa3565b9350614ff760808901614aa3565b925060a088015160ff8116811461500d57600080fd5b60c089015190925061501e81613bf1565b8091505092959891949750929550565b6000806040838503121561504157600080fd5b825161504c81613e3b565b602084015190925061439881613e3b565b60006020828403121561506f57600080fd5b5051919050565b6150b6828251805182526020810151602083015260408101516040830152606081015160608301526080810151608083015260a081015160a08301525050565b602081015160c0830152604081015160e0830152606081015161010083015261ffff60808201511661012083015260a081015161014083015260c08101516101608301525050565b600061020080835261511281840189614bbb565b90506151216020840188613f45565b61012061513081850188614a38565b610180848303818601526103406151508489516001600160a01b03169052565b6020880151615164602086018260020b9052565b5060408801516040850152606088015161518960608601826001600160a01b03169052565b50608088015161519e608086018260020b9052565b5060a08801516151b360a086018260020b9052565b5060c08801516151c860c086018260020b9052565b5060e08801516151e360e08601826001600160a01b03169052565b5061010080890151818601525082880151838501526101409250828801518385015261016092508288015161521a84860182615076565b50818801519250806102e08501526152348185018461452e565b925050506101a0808701516103008401526101c087015161525a61032085018215159052565b5081935061528e8186018780516001600160a01b039081168352602080830151909116908301526040908101511515910152565b5050509695505050505050565b60006101008083850312156152af57600080fd5b604051908101906001600160401b03821181831017156152d1576152d1613ca3565b81604052809250835181526020840151602082015260408401516040820152606084015160608201526080840151608082015260a084015160a082015260c084015160c082015260e084015160e0820152505092915050565b60008061012080848603121561533f57600080fd5b615349858561529b565b9250610100808501516001600160401b038082111561536757600080fd5b90860190610340828903121561537c57600080fd5b615384613d6b565b61538d83614a8d565b815261539b60208401614a98565b6020820152604083015160408201526153b660608401614a8d565b60608201526153c760808401614a98565b60808201526153d860a08401614a98565b60a08201526153e960c08401614a98565b60c08201526153fa60e08401614a8d565b60e08201528383015184820152848301518582015261014094508483015185820152610160945061542d89868501614ab5565b858201526102e083015194508185111561544657600080fd5b61545289868501614e5d565b6101808201526103008301516101a08201526154716103208401614f8b565b6101c082015280955050505050509250929050565b634e487b7160e01b600052601160045260246000fd5b81810381811115612da657612da6615486565b60006102008083526154c38184018b61452e565b905082810360208401526154d7818a614bbb565b9150506154e76040830188613f45565b6154f5610140830187614a38565b6101a08201949094526001600160a01b03929092166101c08301526101e090910152949350505050565b6000610100828403121561553257600080fd5b613688838361529b565b6000610160825184526020830151602085015260408301516040850152606083015160608501526080830151615576608086018215159052565b5060a083015160a085015260c083015161559b60c08601826001600160a01b03169052565b5060e08301518160e08601526155b3828601826146b0565b915050610100808401516155cb8287018260020b9052565b5050610120808401516155e28287018260020b9052565b50506101409283015115159390920192909252919050565b8481528360208201528260408201526080606082015260006131f7608083018461553c565b600082601f83011261563057600080fd5b815161563e613e0482613dbe565b81815284602083860101111561565357600080fd5b612ef882602083016020870161468c565b6000610160828403121561567757600080fd5b61567f613d04565b9050815181526020820151602082015260408201516040820152606082015160608201526156af60808301614f8b565b608082015260a082015160a08201526156ca60c08301614a8d565b60c082015260e08201516001600160401b038111156156e857600080fd5b6156f48482850161561f565b60e083015250610100615708818401614a98565b9082015261012061571a838201614a98565b9082015261014061572c838201614f8b565b9082015292915050565b6000806040838503121561574957600080fd5b8251915060208301516001600160401b0381111561576657600080fd5b61577285828601615664565b9150509250929050565b600061010061578b838a614a38565b80606084015261579d8184018961553c565b905082810360808401526157b1818861452e565b6001600160a01b0396871660a085015294151560c08401525050921660e0909201919091529392505050565b600080600080608085870312156157f357600080fd5b845193506020850151925060408501516001600160401b038082111561581857600080fd5b61582488838901615664565b9350606087015191508082111561583a57600080fd5b5061584787828801614e5d565b91505092959194509250565b6001600160a01b03868116825285166020820152600284900b60408201526101406060820181905260009061588a8382018661452e565b9150506131f76080830184805182526020810151602083015260408101516040830152606081015160608301526080810151608083015260a081015160a08301525050565b6060815260006158e2606083018661452e565b93151560208301525060029190910b604090910152919050565b60408152600061590f604083018561452e565b8281036020840152615921818561452e565b95945050505050565b600061012080835261593e8184018b61553c565b91505061594e6020830189614a38565b60808201969096526001600160a01b0394851660a08201529290931660c083015260e0820152610100015292915050565b6000806040838503121561599257600080fd5b505080516020909101519092909150565b6000600160ff1b82016159b8576159b8615486565b5060000390565b86815260c0602082015260006159d860c083018861553c565b82810360408401526159ea818861452e565b606084019690965250506080810192909252151560a0909101529392505050565b600060208284031215615a1d57600080fd5b815161368881613bf1565b608081526000615a3b608083018761452e565b941515602083015250600292830b6040820152910b606090910152919050565b6000610120615a6a838b614a38565b88606084015287608084015286151560a08401528060c0840152615a908184018761452e565b6001600160a01b0395861660e08501529390941661010090920191909152509695505050505050565b615ac38187614a38565b60e060608201526000615ad960e083018761452e565b60808301959095525091151560a08301526001600160a01b031660c09091015292915050565b60006101a0615b0e838f614a38565b806060840152615b208184018e61452e565b608084019c909c52505097151560a0890152600296870b60c08901529490950b60e08701526001600160a01b039283166101008701526101208601919091528116610140850152918216610160840152166101809091015292915050565b8781526001600160a01b038781166020830152861660408201526101208101615baa6060830187614a38565b93151560c082015260e081019290925261010090910152949350505050565b634e487b7160e01b600052603260045260246000fd5b6000808335601e19843603018112615bf657600080fd5b8301803591506001600160401b03821115615c1057600080fd5b602001915036819003821315615c2557600080fd5b9250929050565b600060018201615c3e57615c3e615486565b5060010190565b8681526001600160a01b03861660208201526101008101615c696040830187614a38565b93151560a082015260c0810192909252151560e0909101529392505050565b8581526001600160a01b038516602082015260e08101615cab6040830186614a38565b92151560a082015260c001529392505050565b80820180821115612da657612da6615486565b60e0815260008651608060e084015260018060a01b038151166101608401526020810151151561018084015260408101516101a084015260608101516101c084015263ffffffff6080820151166101e084015260a0810151615d3c61020085018263ffffffff169052565b5060c0015160e0610220840152615d5761024084018261452e565b9050602088015161010084015260408801516101208401526060880151615d8361014085018215159052565b509050615d936020830187614a38565b93151560808201526001600160a01b039290921660a083015260c09091015292915050565b6000610280615dc8848451614599565b6020830151816060860152615ddf8286018261452e565b915050604083015160018060a01b0380821660808701528060608601511660a087015250506080830151151560c085015260a0830151615e2260e0860182615076565b5060c083015160020b6102608501528091505092915050565b85815260a060208201526000615e5460a0830187615db8565b63ffffffff959095166040830152506001600160a01b039283166060820152911660809091015292915050565b60008060408385031215615e9457600080fd5b8251915060208301516001600160401b03811115615eb157600080fd5b61577285828601614e5d565b615ec78186614599565b60c060608201526000615edd60c083018661452e565b93151560808301525060a0015292915050565b848152608060208201526000615f096080830186615db8565b6001600160a01b039490941660408301525063ffffffff9190911660609091015292915050565b60008251615f4281846020870161468c565b9190910192915050565b60208152600061368860208301846146b056fe416464726573733a206c6f772d6c6576656c2064656c65676174652063616c6c206661696c6564a26469706673582212200871e1a9f85e8160b73ad7f702238f1e9c2a625dfe46cd18cb8a83e14d47376964736f6c63430008150033",
    "linkReferences": {
      "src/MarginPositionHelper.sol": {
        "MarginPositionHelper": [
          {
            "start": 1688,
            "length": 20
          },
          {
            "start": 2214,
            "length": 20
          },
          {
            "start": 3226,
            "length": 20
          },
          {
            "start": 4039,
            "length": 20
          },
          {
            "start": 4367,
            "length": 20
          },
          {
            "start": 4636,
            "length": 20
          },
          {
            "start": 4750,
            "length": 20
          },
          {
            "start": 5583,
            "length": 20
          },
          {
            "start": 5884,
            "length": 20
          },
          {
            "start": 6794,
            "length": 20
          },
          {
            "start": 6997,
            "length": 20
          },
          {
            "start": 9638,
            "length": 20
          },
          {
            "start": 9807,
            "length": 20
          },
          {
            "start": 9869,
            "length": 20
          },
          {
            "start": 12647,
            "length": 20
          }
        ]
      },
      "src/PremiumComputer.sol": {
        "PremiumComputer": [
          {
            "start": 6099,
            "length": 20
          },
          {
            "start": 10528,
            "length": 20
          },
          {
            "start": 11846,
            "length": 20
          },
          {
            "start": 12134,
            "length": 20
          },
          {
            "start": 13160,
            "length": 20
          },
          {
            "start": 13867,
            "length": 20
          }
        ]
      },
      "src/Util.sol": {
        "Utils": [
          {
            "start": 2874,
            "length": 20
          },
          {
            "start": 3673,
            "length": 20
          },
          {
            "start": 3868,
            "length": 20
          },
          {
            "start": 6256,
            "length": 20
          },
          {
            "start": 6677,
            "length": 20
          },
          {
            "start": 9473,
            "length": 20
          }
        ]
      }
    }
  },
  "methodIdentifiers": {
    "PremiumDeposit(bytes32)": "5d4936ff",
    "_initialize(address,address)": "e5c9c2ed",
    "addFiller(address)": "60958fe0",
    "addPosition((address,address,uint24),(uint256,uint256,uint256,uint256,bool,uint256,address,bytes,int24,int24,bool),(int24,uint128,uint256,uint256,uint256,uint256)[])": "2a6f8a54",
    "approveTokens(address,address)": "3eb4adab",
    "canForceClose((address,address,uint24),((address,bool,uint256,uint256,uint32,uint32,(int24,uint128,uint256,uint256,uint256,uint256)[]),uint256,uint256,bool),address,address,bool)": "e2dad6fa",
    "cancelOrder(address,bool,bool)": "28ec7232",
    "checkPositionExists(address,address,bool)": "f2edf95a",
    "depositPremium((address,address,uint24),address,bool,uint256)": "dbe5f6cb",
    "executioner()": "dc6ab02f",
    "forceClose((address,address,uint24),(address,bool,uint256,int24,int24))": "5277a324",
    "getBorrowInfo(address,address,bool)": "657b5a4b",
    "getLastRepayTime(address,address,bool)": "d93a9047",
    "getOrderId(address,address,bool,bool)": "bfd4c2a5",
    "getPosition(address,address,bool)": "8c1395f8",
    "getPositionId(address,address,bool)": "f6f0ea89",
    "initialize(address,address)": "485cc955",
    "isWhitelistedFiller(address)": "7a308504",
    "multicall(bytes[])": "ac9650d8",
    "orders(bytes32)": "9c3f1e90",
    "payPremium((address,address,uint24),bool,uint256)": "de074f10",
    "positions(bytes32)": "514ea4bf",
    "reducePosition((address,address,uint24),(bool,uint256,uint256,address,uint256,bytes,int24,int24,uint256))": "27bd6f83",
    "setOwner(address)": "13af4035",
    "setProtocolContracts(address,address)": "b68e3c33",
    "submitOrder(address,bool,bool,uint256,uint256,uint256,uint256,uint256,uint256)": "228e062a",
    "swapAndDepositPremium((address,address,uint24),address,bool,uint256,uint256)": "52b38902",
    "withdrawPremium((address,address,uint24),bool,uint256,bool)": "bcb92fa5"
  },
  "id": 57
}