{
  "abi": [
    {
      "inputs": [
        {
          "internalType": "address",
          "name": "pm",
          "type": "address"
        },
        {
          "internalType": "address",
          "name": "ex",
          "type": "address"
        },
        {
          "internalType": "address",
          "name": "uniswapFactory",
          "type": "address"
        }
      ],
      "stateMutability": "nonpayable",
      "type": "constructor"
    },
    {
      "inputs": [],
      "name": "addReduceInvalidTick",
      "type": "error"
    },
    {
      "inputs": [],
      "name": "exceedMaxWithdrawablePremium",
      "type": "error"
    },
    {
      "inputs": [],
      "name": "incorrectReduce",
      "type": "error"
    },
    {
      "inputs": [],
      "name": "insufficientPremiumDeposit",
      "type": "error"
    },
    {
      "inputs": [],
      "name": "noPosition",
      "type": "error"
    },
    {
      "inputs": [],
      "name": "notEnoughPremiumDeposit",
      "type": "error"
    },
    {
      "anonymous": false,
      "inputs": [
        {
          "indexed": true,
          "internalType": "address",
          "name": "pool",
          "type": "address"
        },
        {
          "indexed": true,
          "internalType": "bool",
          "name": "positionIsToken0",
          "type": "bool"
        },
        {
          "indexed": true,
          "internalType": "address",
          "name": "trader",
          "type": "address"
        },
        {
          "indexed": false,
          "internalType": "uint256",
          "name": "forcedClosedAmount",
          "type": "uint256"
        },
        {
          "indexed": false,
          "internalType": "uint256",
          "name": "fillerPayAmount",
          "type": "uint256"
        },
        {
          "indexed": false,
          "internalType": "uint256",
          "name": "rangeCondition",
          "type": "uint256"
        }
      ],
      "name": "ForceClosed",
      "type": "event"
    },
    {
      "anonymous": false,
      "inputs": [
        {
          "indexed": true,
          "internalType": "address",
          "name": "pool",
          "type": "address"
        },
        {
          "indexed": true,
          "internalType": "bool",
          "name": "positionIsToken0",
          "type": "bool"
        },
        {
          "indexed": true,
          "internalType": "address",
          "name": "trader",
          "type": "address"
        },
        {
          "indexed": false,
          "internalType": "address",
          "name": "filler",
          "type": "address"
        },
        {
          "indexed": false,
          "internalType": "uint256",
          "name": "addedAmount",
          "type": "uint256"
        },
        {
          "indexed": false,
          "internalType": "uint256",
          "name": "marginAmount",
          "type": "uint256"
        },
        {
          "indexed": false,
          "internalType": "uint256",
          "name": "borrowAmount",
          "type": "uint256"
        },
        {
          "indexed": false,
          "internalType": "uint256",
          "name": "premiumPaid",
          "type": "uint256"
        },
        {
          "indexed": false,
          "internalType": "uint256",
          "name": "feePaid",
          "type": "uint256"
        }
      ],
      "name": "MarginPositionIncreased",
      "type": "event"
    },
    {
      "anonymous": false,
      "inputs": [
        {
          "indexed": true,
          "internalType": "address",
          "name": "pool",
          "type": "address"
        },
        {
          "indexed": true,
          "internalType": "bool",
          "name": "positionIsToken0",
          "type": "bool"
        },
        {
          "indexed": true,
          "internalType": "address",
          "name": "trader",
          "type": "address"
        },
        {
          "indexed": false,
          "internalType": "address",
          "name": "filler",
          "type": "address"
        },
        {
          "indexed": false,
          "internalType": "uint256",
          "name": "reducePercentage",
          "type": "uint256"
        },
        {
          "indexed": false,
          "internalType": "uint256",
          "name": "premiumPaid",
          "type": "uint256"
        },
        {
          "indexed": false,
          "internalType": "uint256",
          "name": "feePaid",
          "type": "uint256"
        }
      ],
      "name": "MarginPositionReduced",
      "type": "event"
    },
    {
      "anonymous": false,
      "inputs": [
        {
          "indexed": true,
          "internalType": "address",
          "name": "pool",
          "type": "address"
        },
        {
          "indexed": true,
          "internalType": "bool",
          "name": "positionIsToken0",
          "type": "bool"
        },
        {
          "indexed": true,
          "internalType": "address",
          "name": "trader",
          "type": "address"
        },
        {
          "indexed": false,
          "internalType": "bool",
          "name": "isAdd",
          "type": "bool"
        },
        {
          "indexed": false,
          "internalType": "uint256",
          "name": "deadline",
          "type": "uint256"
        },
        {
          "indexed": false,
          "internalType": "uint256",
          "name": "startOutput",
          "type": "uint256"
        },
        {
          "indexed": false,
          "internalType": "uint256",
          "name": "minOutput",
          "type": "uint256"
        },
        {
          "indexed": false,
          "internalType": "uint256",
          "name": "inputAmount",
          "type": "uint256"
        },
        {
          "indexed": false,
          "internalType": "uint256",
          "name": "decayRate",
          "type": "uint256"
        },
        {
          "indexed": false,
          "internalType": "uint256",
          "name": "margin",
          "type": "uint256"
        }
      ],
      "name": "OrderAdded",
      "type": "event"
    },
    {
      "anonymous": false,
      "inputs": [
        {
          "indexed": true,
          "internalType": "address",
          "name": "pool",
          "type": "address"
        },
        {
          "indexed": true,
          "internalType": "bool",
          "name": "positionIsToken0",
          "type": "bool"
        },
        {
          "indexed": true,
          "internalType": "address",
          "name": "trader",
          "type": "address"
        },
        {
          "indexed": false,
          "internalType": "bool",
          "name": "isAdd",
          "type": "bool"
        }
      ],
      "name": "OrderCanceled",
      "type": "event"
    },
    {
      "anonymous": false,
      "inputs": [
        {
          "indexed": true,
          "internalType": "address",
          "name": "payer",
          "type": "address"
        },
        {
          "indexed": true,
          "internalType": "address",
          "name": "pool",
          "type": "address"
        },
        {
          "indexed": false,
          "internalType": "bool",
          "name": "isToken1",
          "type": "bool"
        },
        {
          "indexed": false,
          "internalType": "uint256",
          "name": "amount",
          "type": "uint256"
        }
      ],
      "name": "PremiumDeposited",
      "type": "event"
    },
    {
      "anonymous": false,
      "inputs": [
        {
          "indexed": true,
          "internalType": "address",
          "name": "payer",
          "type": "address"
        },
        {
          "indexed": true,
          "internalType": "address",
          "name": "pool",
          "type": "address"
        },
        {
          "indexed": false,
          "internalType": "uint256",
          "name": "token0Amount",
          "type": "uint256"
        },
        {
          "indexed": false,
          "internalType": "uint256",
          "name": "token1Amount",
          "type": "uint256"
        },
        {
          "indexed": false,
          "internalType": "uint256",
          "name": "swappedAmount",
          "type": "uint256"
        }
      ],
      "name": "PremiumPaid",
      "type": "event"
    },
    {
      "anonymous": false,
      "inputs": [
        {
          "indexed": true,
          "internalType": "address",
          "name": "withdrawer",
          "type": "address"
        },
        {
          "indexed": true,
          "internalType": "address",
          "name": "pool",
          "type": "address"
        },
        {
          "indexed": false,
          "internalType": "bool",
          "name": "isToken1",
          "type": "bool"
        },
        {
          "indexed": false,
          "internalType": "uint256",
          "name": "amount",
          "type": "uint256"
        }
      ],
      "name": "PremiumWithdrawn",
      "type": "event"
    },
    {
      "inputs": [
        {
          "internalType": "PositionId",
          "name": "",
          "type": "bytes32"
        }
      ],
      "name": "PremiumDeposit",
      "outputs": [
        {
          "internalType": "uint256",
          "name": "",
          "type": "uint256"
        }
      ],
      "stateMutability": "view",
      "type": "function"
    },
    {
      "inputs": [
        {
          "components": [
            {
              "internalType": "address",
              "name": "token0",
              "type": "address"
            },
            {
              "internalType": "address",
              "name": "token1",
              "type": "address"
            },
            {
              "internalType": "uint24",
              "name": "fee",
              "type": "uint24"
            }
          ],
          "internalType": "struct PoolKey",
          "name": "key",
          "type": "tuple"
        },
        {
          "components": [
            {
              "internalType": "uint256",
              "name": "margin",
              "type": "uint256"
            },
            {
              "internalType": "uint256",
              "name": "minOutput",
              "type": "uint256"
            },
            {
              "internalType": "uint256",
              "name": "simulatedOutput",
              "type": "uint256"
            },
            {
              "internalType": "uint256",
              "name": "borrowAmount",
              "type": "uint256"
            },
            {
              "internalType": "bool",
              "name": "positionIsToken0",
              "type": "bool"
            },
            {
              "internalType": "uint256",
              "name": "executionOption",
              "type": "uint256"
            },
            {
              "internalType": "address",
              "name": "trader",
              "type": "address"
            },
            {
              "internalType": "bytes",
              "name": "executionData",
              "type": "bytes"
            },
            {
              "internalType": "int24",
              "name": "slippedTickMin",
              "type": "int24"
            },
            {
              "internalType": "int24",
              "name": "slippedTickMax",
              "type": "int24"
            }
          ],
          "internalType": "struct AddParams",
          "name": "param",
          "type": "tuple"
        },
        {
          "components": [
            {
              "internalType": "int24",
              "name": "tick",
              "type": "int24"
            },
            {
              "internalType": "uint128",
              "name": "liquidity",
              "type": "uint128"
            },
            {
              "internalType": "uint256",
              "name": "premium",
              "type": "uint256"
            },
            {
              "internalType": "uint256",
              "name": "feeGrowthInside0LastX128",
              "type": "uint256"
            },
            {
              "internalType": "uint256",
              "name": "feeGrowthInside1LastX128",
              "type": "uint256"
            },
            {
              "internalType": "uint256",
              "name": "lastGrowth",
              "type": "uint256"
            }
          ],
          "internalType": "struct LiquidityLoan[]",
          "name": "borrowInfo",
          "type": "tuple[]"
        }
      ],
      "name": "addPosition",
      "outputs": [
        {
          "components": [
            {
              "components": [
                {
                  "internalType": "address",
                  "name": "pool",
                  "type": "address"
                },
                {
                  "internalType": "bool",
                  "name": "isToken0",
                  "type": "bool"
                },
                {
                  "internalType": "uint256",
                  "name": "totalDebtOutput",
                  "type": "uint256"
                },
                {
                  "internalType": "uint256",
                  "name": "totalDebtInput",
                  "type": "uint256"
                },
                {
                  "internalType": "uint256",
                  "name": "recentPremium",
                  "type": "uint256"
                },
                {
                  "internalType": "uint32",
                  "name": "openTime",
                  "type": "uint32"
                },
                {
                  "internalType": "uint32",
                  "name": "repayTime",
                  "type": "uint32"
                },
                {
                  "components": [
                    {
                      "internalType": "int24",
                      "name": "tick",
                      "type": "int24"
                    },
                    {
                      "internalType": "uint128",
                      "name": "liquidity",
                      "type": "uint128"
                    },
                    {
                      "internalType": "uint256",
                      "name": "premium",
                      "type": "uint256"
                    },
                    {
                      "internalType": "uint256",
                      "name": "feeGrowthInside0LastX128",
                      "type": "uint256"
                    },
                    {
                      "internalType": "uint256",
                      "name": "feeGrowthInside1LastX128",
                      "type": "uint256"
                    },
                    {
                      "internalType": "uint256",
                      "name": "lastGrowth",
                      "type": "uint256"
                    }
                  ],
                  "internalType": "struct LiquidityLoan[]",
                  "name": "borrowInfo",
                  "type": "tuple[]"
                }
              ],
              "internalType": "struct Position",
              "name": "base",
              "type": "tuple"
            },
            {
              "internalType": "uint256",
              "name": "totalPosition",
              "type": "uint256"
            },
            {
              "internalType": "uint256",
              "name": "margin",
              "type": "uint256"
            }
          ],
          "internalType": "struct MarginPosition",
          "name": "position",
          "type": "tuple"
        },
        {
          "internalType": "uint256",
          "name": "premiumOwed",
          "type": "uint256"
        },
        {
          "internalType": "uint256",
          "name": "fee",
          "type": "uint256"
        }
      ],
      "stateMutability": "nonpayable",
      "type": "function"
    },
    {
      "inputs": [
        {
          "internalType": "address",
          "name": "token0",
          "type": "address"
        },
        {
          "internalType": "address",
          "name": "token1",
          "type": "address"
        }
      ],
      "name": "approveTokens",
      "outputs": [],
      "stateMutability": "nonpayable",
      "type": "function"
    },
    {
      "inputs": [
        {
          "components": [
            {
              "components": [
                {
                  "internalType": "address",
                  "name": "pool",
                  "type": "address"
                },
                {
                  "internalType": "bool",
                  "name": "isToken0",
                  "type": "bool"
                },
                {
                  "internalType": "uint256",
                  "name": "totalDebtOutput",
                  "type": "uint256"
                },
                {
                  "internalType": "uint256",
                  "name": "totalDebtInput",
                  "type": "uint256"
                },
                {
                  "internalType": "uint256",
                  "name": "recentPremium",
                  "type": "uint256"
                },
                {
                  "internalType": "uint32",
                  "name": "openTime",
                  "type": "uint32"
                },
                {
                  "internalType": "uint32",
                  "name": "repayTime",
                  "type": "uint32"
                },
                {
                  "components": [
                    {
                      "internalType": "int24",
                      "name": "tick",
                      "type": "int24"
                    },
                    {
                      "internalType": "uint128",
                      "name": "liquidity",
                      "type": "uint128"
                    },
                    {
                      "internalType": "uint256",
                      "name": "premium",
                      "type": "uint256"
                    },
                    {
                      "internalType": "uint256",
                      "name": "feeGrowthInside0LastX128",
                      "type": "uint256"
                    },
                    {
                      "internalType": "uint256",
                      "name": "feeGrowthInside1LastX128",
                      "type": "uint256"
                    },
                    {
                      "internalType": "uint256",
                      "name": "lastGrowth",
                      "type": "uint256"
                    }
                  ],
                  "internalType": "struct LiquidityLoan[]",
                  "name": "borrowInfo",
                  "type": "tuple[]"
                }
              ],
              "internalType": "struct Position",
              "name": "base",
              "type": "tuple"
            },
            {
              "internalType": "uint256",
              "name": "totalPosition",
              "type": "uint256"
            },
            {
              "internalType": "uint256",
              "name": "margin",
              "type": "uint256"
            }
          ],
          "internalType": "struct MarginPosition",
          "name": "position",
          "type": "tuple"
        }
      ],
      "name": "canForceClose",
      "outputs": [
        {
          "internalType": "bool",
          "name": "",
          "type": "bool"
        }
      ],
      "stateMutability": "view",
      "type": "function"
    },
    {
      "inputs": [
        {
          "components": [
            {
              "internalType": "address",
              "name": "token0",
              "type": "address"
            },
            {
              "internalType": "address",
              "name": "token1",
              "type": "address"
            },
            {
              "internalType": "uint24",
              "name": "fee",
              "type": "uint24"
            }
          ],
          "internalType": "struct PoolKey",
          "name": "key",
          "type": "tuple"
        },
        {
          "components": [
            {
              "components": [
                {
                  "internalType": "address",
                  "name": "pool",
                  "type": "address"
                },
                {
                  "internalType": "bool",
                  "name": "isToken0",
                  "type": "bool"
                },
                {
                  "internalType": "uint256",
                  "name": "totalDebtOutput",
                  "type": "uint256"
                },
                {
                  "internalType": "uint256",
                  "name": "totalDebtInput",
                  "type": "uint256"
                },
                {
                  "internalType": "uint256",
                  "name": "recentPremium",
                  "type": "uint256"
                },
                {
                  "internalType": "uint32",
                  "name": "openTime",
                  "type": "uint32"
                },
                {
                  "internalType": "uint32",
                  "name": "repayTime",
                  "type": "uint32"
                },
                {
                  "components": [
                    {
                      "internalType": "int24",
                      "name": "tick",
                      "type": "int24"
                    },
                    {
                      "internalType": "uint128",
                      "name": "liquidity",
                      "type": "uint128"
                    },
                    {
                      "internalType": "uint256",
                      "name": "premium",
                      "type": "uint256"
                    },
                    {
                      "internalType": "uint256",
                      "name": "feeGrowthInside0LastX128",
                      "type": "uint256"
                    },
                    {
                      "internalType": "uint256",
                      "name": "feeGrowthInside1LastX128",
                      "type": "uint256"
                    },
                    {
                      "internalType": "uint256",
                      "name": "lastGrowth",
                      "type": "uint256"
                    }
                  ],
                  "internalType": "struct LiquidityLoan[]",
                  "name": "borrowInfo",
                  "type": "tuple[]"
                }
              ],
              "internalType": "struct Position",
              "name": "base",
              "type": "tuple"
            },
            {
              "internalType": "uint256",
              "name": "totalPosition",
              "type": "uint256"
            },
            {
              "internalType": "uint256",
              "name": "margin",
              "type": "uint256"
            }
          ],
          "internalType": "struct MarginPosition",
          "name": "position",
          "type": "tuple"
        }
      ],
      "name": "canForceClose",
      "outputs": [
        {
          "internalType": "bool",
          "name": "",
          "type": "bool"
        }
      ],
      "stateMutability": "view",
      "type": "function"
    },
    {
      "inputs": [
        {
          "internalType": "address",
          "name": "pool",
          "type": "address"
        },
        {
          "internalType": "bool",
          "name": "positionIsToken0",
          "type": "bool"
        },
        {
          "internalType": "bool",
          "name": "isAdd",
          "type": "bool"
        }
      ],
      "name": "cancelOrder",
      "outputs": [],
      "stateMutability": "nonpayable",
      "type": "function"
    },
    {
      "inputs": [
        {
          "internalType": "address",
          "name": "pool",
          "type": "address"
        },
        {
          "internalType": "address",
          "name": "borrower",
          "type": "address"
        },
        {
          "internalType": "bool",
          "name": "borrowedToken1",
          "type": "bool"
        }
      ],
      "name": "checkPositionExists",
      "outputs": [
        {
          "internalType": "bool",
          "name": "",
          "type": "bool"
        }
      ],
      "stateMutability": "view",
      "type": "function"
    },
    {
      "inputs": [
        {
          "internalType": "address",
          "name": "pool",
          "type": "address"
        },
        {
          "internalType": "address",
          "name": "borrower",
          "type": "address"
        },
        {
          "internalType": "bool",
          "name": "borrowedToken1",
          "type": "bool"
        },
        {
          "internalType": "uint256",
          "name": "minPremiumDepositPercentage",
          "type": "uint256"
        }
      ],
      "name": "checkPremiumCondition",
      "outputs": [
        {
          "internalType": "bool",
          "name": "",
          "type": "bool"
        }
      ],
      "stateMutability": "view",
      "type": "function"
    },
    {
      "inputs": [
        {
          "components": [
            {
              "internalType": "address",
              "name": "token0",
              "type": "address"
            },
            {
              "internalType": "address",
              "name": "token1",
              "type": "address"
            },
            {
              "internalType": "uint24",
              "name": "fee",
              "type": "uint24"
            }
          ],
          "internalType": "struct PoolKey",
          "name": "key",
          "type": "tuple"
        },
        {
          "internalType": "address",
          "name": "trader",
          "type": "address"
        },
        {
          "internalType": "bool",
          "name": "borrowToken1",
          "type": "bool"
        },
        {
          "internalType": "uint256",
          "name": "amount",
          "type": "uint256"
        }
      ],
      "name": "depositPremium",
      "outputs": [],
      "stateMutability": "nonpayable",
      "type": "function"
    },
    {
      "inputs": [
        {
          "components": [
            {
              "internalType": "address",
              "name": "token0",
              "type": "address"
            },
            {
              "internalType": "address",
              "name": "token1",
              "type": "address"
            },
            {
              "internalType": "uint24",
              "name": "fee",
              "type": "uint24"
            }
          ],
          "internalType": "struct PoolKey",
          "name": "key",
          "type": "tuple"
        },
        {
          "components": [
            {
              "internalType": "address",
              "name": "trader",
              "type": "address"
            },
            {
              "internalType": "bool",
              "name": "positionIsToken0",
              "type": "bool"
            },
            {
              "internalType": "uint256",
              "name": "fillerPayAmount",
              "type": "uint256"
            },
            {
              "internalType": "int24",
              "name": "slippedTickMin",
              "type": "int24"
            },
            {
              "internalType": "int24",
              "name": "slippedTickMax",
              "type": "int24"
            }
          ],
          "internalType": "struct ForceCloseParams",
          "name": "param",
          "type": "tuple"
        }
      ],
      "name": "forceClose",
      "outputs": [
        {
          "internalType": "uint256",
          "name": "premium",
          "type": "uint256"
        }
      ],
      "stateMutability": "nonpayable",
      "type": "function"
    },
    {
      "inputs": [
        {
          "internalType": "address",
          "name": "pool",
          "type": "address"
        },
        {
          "internalType": "address",
          "name": "borrower",
          "type": "address"
        },
        {
          "internalType": "bool",
          "name": "borrowedToken1",
          "type": "bool"
        }
      ],
      "name": "getBorrowInfo",
      "outputs": [
        {
          "components": [
            {
              "internalType": "int24",
              "name": "tick",
              "type": "int24"
            },
            {
              "internalType": "uint128",
              "name": "liquidity",
              "type": "uint128"
            },
            {
              "internalType": "uint256",
              "name": "premium",
              "type": "uint256"
            },
            {
              "internalType": "uint256",
              "name": "feeGrowthInside0LastX128",
              "type": "uint256"
            },
            {
              "internalType": "uint256",
              "name": "feeGrowthInside1LastX128",
              "type": "uint256"
            },
            {
              "internalType": "uint256",
              "name": "lastGrowth",
              "type": "uint256"
            }
          ],
          "internalType": "struct LiquidityLoan[]",
          "name": "",
          "type": "tuple[]"
        }
      ],
      "stateMutability": "view",
      "type": "function"
    },
    {
      "inputs": [
        {
          "internalType": "address",
          "name": "pool",
          "type": "address"
        },
        {
          "internalType": "address",
          "name": "trader",
          "type": "address"
        },
        {
          "internalType": "bool",
          "name": "positionIsToken0",
          "type": "bool"
        },
        {
          "internalType": "bool",
          "name": "isAdd",
          "type": "bool"
        }
      ],
      "name": "getOrderId",
      "outputs": [
        {
          "internalType": "bytes32",
          "name": "",
          "type": "bytes32"
        }
      ],
      "stateMutability": "pure",
      "type": "function"
    },
    {
      "inputs": [
        {
          "internalType": "address",
          "name": "pool",
          "type": "address"
        },
        {
          "internalType": "address",
          "name": "trader",
          "type": "address"
        },
        {
          "internalType": "bool",
          "name": "positionIsToken0",
          "type": "bool"
        }
      ],
      "name": "getPosition",
      "outputs": [
        {
          "components": [
            {
              "components": [
                {
                  "internalType": "address",
                  "name": "pool",
                  "type": "address"
                },
                {
                  "internalType": "bool",
                  "name": "isToken0",
                  "type": "bool"
                },
                {
                  "internalType": "uint256",
                  "name": "totalDebtOutput",
                  "type": "uint256"
                },
                {
                  "internalType": "uint256",
                  "name": "totalDebtInput",
                  "type": "uint256"
                },
                {
                  "internalType": "uint256",
                  "name": "recentPremium",
                  "type": "uint256"
                },
                {
                  "internalType": "uint32",
                  "name": "openTime",
                  "type": "uint32"
                },
                {
                  "internalType": "uint32",
                  "name": "repayTime",
                  "type": "uint32"
                },
                {
                  "components": [
                    {
                      "internalType": "int24",
                      "name": "tick",
                      "type": "int24"
                    },
                    {
                      "internalType": "uint128",
                      "name": "liquidity",
                      "type": "uint128"
                    },
                    {
                      "internalType": "uint256",
                      "name": "premium",
                      "type": "uint256"
                    },
                    {
                      "internalType": "uint256",
                      "name": "feeGrowthInside0LastX128",
                      "type": "uint256"
                    },
                    {
                      "internalType": "uint256",
                      "name": "feeGrowthInside1LastX128",
                      "type": "uint256"
                    },
                    {
                      "internalType": "uint256",
                      "name": "lastGrowth",
                      "type": "uint256"
                    }
                  ],
                  "internalType": "struct LiquidityLoan[]",
                  "name": "borrowInfo",
                  "type": "tuple[]"
                }
              ],
              "internalType": "struct Position",
              "name": "base",
              "type": "tuple"
            },
            {
              "internalType": "uint256",
              "name": "totalPosition",
              "type": "uint256"
            },
            {
              "internalType": "uint256",
              "name": "margin",
              "type": "uint256"
            }
          ],
          "internalType": "struct MarginPosition",
          "name": "",
          "type": "tuple"
        }
      ],
      "stateMutability": "view",
      "type": "function"
    },
    {
      "inputs": [
        {
          "internalType": "address",
          "name": "pool",
          "type": "address"
        },
        {
          "internalType": "address",
          "name": "trader",
          "type": "address"
        },
        {
          "internalType": "bool",
          "name": "positionIsToken0",
          "type": "bool"
        }
      ],
      "name": "getPositionId",
      "outputs": [
        {
          "internalType": "PositionId",
          "name": "",
          "type": "bytes32"
        }
      ],
      "stateMutability": "pure",
      "type": "function"
    },
    {
      "inputs": [
        {
          "components": [
            {
              "internalType": "address",
              "name": "token0",
              "type": "address"
            },
            {
              "internalType": "address",
              "name": "token1",
              "type": "address"
            },
            {
              "internalType": "uint24",
              "name": "fee",
              "type": "uint24"
            }
          ],
          "internalType": "struct PoolKey",
          "name": "key",
          "type": "tuple"
        },
        {
          "internalType": "address",
          "name": "borrower",
          "type": "address"
        },
        {
          "internalType": "bool",
          "name": "borrowedToken1",
          "type": "bool"
        }
      ],
      "name": "maxWithdrawablePremium",
      "outputs": [
        {
          "internalType": "uint256",
          "name": "maxWithdrawable",
          "type": "uint256"
        }
      ],
      "stateMutability": "view",
      "type": "function"
    },
    {
      "inputs": [
        {
          "internalType": "PositionId",
          "name": "positionId",
          "type": "bytes32"
        }
      ],
      "name": "maxWithdrawablePremium",
      "outputs": [
        {
          "internalType": "uint256",
          "name": "maxWithdrawable",
          "type": "uint256"
        }
      ],
      "stateMutability": "view",
      "type": "function"
    },
    {
      "inputs": [
        {
          "internalType": "bytes[]",
          "name": "data",
          "type": "bytes[]"
        }
      ],
      "name": "multicall",
      "outputs": [
        {
          "internalType": "bytes[]",
          "name": "results",
          "type": "bytes[]"
        }
      ],
      "stateMutability": "nonpayable",
      "type": "function"
    },
    {
      "inputs": [
        {
          "internalType": "bytes32",
          "name": "",
          "type": "bytes32"
        }
      ],
      "name": "orders",
      "outputs": [
        {
          "components": [
            {
              "internalType": "address",
              "name": "token0",
              "type": "address"
            },
            {
              "internalType": "address",
              "name": "token1",
              "type": "address"
            },
            {
              "internalType": "uint24",
              "name": "fee",
              "type": "uint24"
            }
          ],
          "internalType": "struct PoolKey",
          "name": "key",
          "type": "tuple"
        },
        {
          "internalType": "bool",
          "name": "positionIsToken0",
          "type": "bool"
        },
        {
          "internalType": "uint32",
          "name": "auctionDeadline",
          "type": "uint32"
        },
        {
          "internalType": "uint32",
          "name": "auctionStartTime",
          "type": "uint32"
        },
        {
          "internalType": "uint256",
          "name": "startOutput",
          "type": "uint256"
        },
        {
          "internalType": "uint256",
          "name": "minOutput",
          "type": "uint256"
        },
        {
          "internalType": "uint256",
          "name": "inputAmount",
          "type": "uint256"
        },
        {
          "internalType": "uint256",
          "name": "decayRate",
          "type": "uint256"
        },
        {
          "internalType": "uint256",
          "name": "margin",
          "type": "uint256"
        }
      ],
      "stateMutability": "view",
      "type": "function"
    },
    {
      "inputs": [
        {
          "components": [
            {
              "internalType": "address",
              "name": "token0",
              "type": "address"
            },
            {
              "internalType": "address",
              "name": "token1",
              "type": "address"
            },
            {
              "internalType": "uint24",
              "name": "fee",
              "type": "uint24"
            }
          ],
          "internalType": "struct PoolKey",
          "name": "key",
          "type": "tuple"
        },
        {
          "internalType": "bool",
          "name": "payToken1",
          "type": "bool"
        },
        {
          "internalType": "uint256",
          "name": "depositAmount",
          "type": "uint256"
        }
      ],
      "name": "payPremium",
      "outputs": [
        {
          "internalType": "uint256",
          "name": "premiumOwed",
          "type": "uint256"
        }
      ],
      "stateMutability": "nonpayable",
      "type": "function"
    },
    {
      "inputs": [
        {
          "internalType": "PositionId",
          "name": "",
          "type": "bytes32"
        }
      ],
      "name": "positions",
      "outputs": [
        {
          "components": [
            {
              "internalType": "address",
              "name": "pool",
              "type": "address"
            },
            {
              "internalType": "bool",
              "name": "isToken0",
              "type": "bool"
            },
            {
              "internalType": "uint256",
              "name": "totalDebtOutput",
              "type": "uint256"
            },
            {
              "internalType": "uint256",
              "name": "totalDebtInput",
              "type": "uint256"
            },
            {
              "internalType": "uint256",
              "name": "recentPremium",
              "type": "uint256"
            },
            {
              "internalType": "uint32",
              "name": "openTime",
              "type": "uint32"
            },
            {
              "internalType": "uint32",
              "name": "repayTime",
              "type": "uint32"
            },
            {
              "components": [
                {
                  "internalType": "int24",
                  "name": "tick",
                  "type": "int24"
                },
                {
                  "internalType": "uint128",
                  "name": "liquidity",
                  "type": "uint128"
                },
                {
                  "internalType": "uint256",
                  "name": "premium",
                  "type": "uint256"
                },
                {
                  "internalType": "uint256",
                  "name": "feeGrowthInside0LastX128",
                  "type": "uint256"
                },
                {
                  "internalType": "uint256",
                  "name": "feeGrowthInside1LastX128",
                  "type": "uint256"
                },
                {
                  "internalType": "uint256",
                  "name": "lastGrowth",
                  "type": "uint256"
                }
              ],
              "internalType": "struct LiquidityLoan[]",
              "name": "borrowInfo",
              "type": "tuple[]"
            }
          ],
          "internalType": "struct Position",
          "name": "base",
          "type": "tuple"
        },
        {
          "internalType": "uint256",
          "name": "totalPosition",
          "type": "uint256"
        },
        {
          "internalType": "uint256",
          "name": "margin",
          "type": "uint256"
        }
      ],
      "stateMutability": "view",
      "type": "function"
    },
    {
      "inputs": [
        {
          "internalType": "bool",
          "name": "positionIsToken0",
          "type": "bool"
        },
        {
          "internalType": "int24",
          "name": "curTick",
          "type": "int24"
        },
        {
          "internalType": "int24",
          "name": "maxTick",
          "type": "int24"
        },
        {
          "internalType": "int24",
          "name": "minTick",
          "type": "int24"
        },
        {
          "internalType": "int24",
          "name": "tickDiscretization",
          "type": "int24"
        }
      ],
      "name": "rangeConditions",
      "outputs": [
        {
          "internalType": "uint256",
          "name": "",
          "type": "uint256"
        }
      ],
      "stateMutability": "pure",
      "type": "function"
    },
    {
      "inputs": [
        {
          "components": [
            {
              "internalType": "address",
              "name": "token0",
              "type": "address"
            },
            {
              "internalType": "address",
              "name": "token1",
              "type": "address"
            },
            {
              "internalType": "uint24",
              "name": "fee",
              "type": "uint24"
            }
          ],
          "internalType": "struct PoolKey",
          "name": "key",
          "type": "tuple"
        },
        {
          "components": [
            {
              "internalType": "bool",
              "name": "positionIsToken0",
              "type": "bool"
            },
            {
              "internalType": "uint256",
              "name": "reducePercentage",
              "type": "uint256"
            },
            {
              "internalType": "uint256",
              "name": "minOutput",
              "type": "uint256"
            },
            {
              "internalType": "address",
              "name": "trader",
              "type": "address"
            },
            {
              "internalType": "uint256",
              "name": "executionOption",
              "type": "uint256"
            },
            {
              "internalType": "bytes32",
              "name": "executionData",
              "type": "bytes32"
            },
            {
              "internalType": "int24",
              "name": "slippedTickMin",
              "type": "int24"
            },
            {
              "internalType": "int24",
              "name": "slippedTickMax",
              "type": "int24"
            },
            {
              "internalType": "uint256",
              "name": "reduceAmount",
              "type": "uint256"
            }
          ],
          "internalType": "struct ReduceParam",
          "name": "param",
          "type": "tuple"
        }
      ],
      "name": "reducePosition",
      "outputs": [
        {
          "components": [
            {
              "internalType": "int256",
              "name": "amount0",
              "type": "int256"
            },
            {
              "internalType": "int256",
              "name": "amount1",
              "type": "int256"
            },
            {
              "internalType": "int256",
              "name": "PnL",
              "type": "int256"
            },
            {
              "internalType": "uint256",
              "name": "returnedAmount",
              "type": "uint256"
            },
            {
              "internalType": "uint256",
              "name": "repaidDebt0",
              "type": "uint256"
            },
            {
              "internalType": "uint256",
              "name": "repaidDebt1",
              "type": "uint256"
            },
            {
              "internalType": "uint256",
              "name": "premium",
              "type": "uint256"
            },
            {
              "internalType": "uint256",
              "name": "profitFee",
              "type": "uint256"
            }
          ],
          "internalType": "struct ReduceReturn",
          "name": "",
          "type": "tuple"
        }
      ],
      "stateMutability": "nonpayable",
      "type": "function"
    },
    {
      "inputs": [
        {
          "internalType": "bool",
          "name": "addPaused",
          "type": "bool"
        }
      ],
      "name": "setAddPaused",
      "outputs": [],
      "stateMutability": "nonpayable",
      "type": "function"
    },
    {
      "inputs": [
        {
          "internalType": "bool",
          "name": "forceClosePaused",
          "type": "bool"
        }
      ],
      "name": "setForceClosePaused",
      "outputs": [],
      "stateMutability": "nonpayable",
      "type": "function"
    },
    {
      "inputs": [
        {
          "internalType": "address",
          "name": "newOwner",
          "type": "address"
        }
      ],
      "name": "setOwner",
      "outputs": [],
      "stateMutability": "nonpayable",
      "type": "function"
    },
    {
      "inputs": [
        {
          "internalType": "bool",
          "name": "reducePaused",
          "type": "bool"
        }
      ],
      "name": "setReducePaused",
      "outputs": [],
      "stateMutability": "nonpayable",
      "type": "function"
    },
    {
      "inputs": [
        {
          "internalType": "address",
          "name": "pool",
          "type": "address"
        },
        {
          "internalType": "bool",
          "name": "positionIsToken0",
          "type": "bool"
        },
        {
          "internalType": "bool",
          "name": "isAdd",
          "type": "bool"
        },
        {
          "internalType": "uint256",
          "name": "deadline",
          "type": "uint256"
        },
        {
          "internalType": "uint256",
          "name": "startOutput",
          "type": "uint256"
        },
        {
          "internalType": "uint256",
          "name": "minOutput",
          "type": "uint256"
        },
        {
          "internalType": "uint256",
          "name": "inputAmount",
          "type": "uint256"
        },
        {
          "internalType": "uint256",
          "name": "decayRate",
          "type": "uint256"
        },
        {
          "internalType": "uint256",
          "name": "margin",
          "type": "uint256"
        }
      ],
      "name": "submitOrder",
      "outputs": [],
      "stateMutability": "nonpayable",
      "type": "function"
    },
    {
      "inputs": [
        {
          "components": [
            {
              "internalType": "address",
              "name": "token0",
              "type": "address"
            },
            {
              "internalType": "address",
              "name": "token1",
              "type": "address"
            },
            {
              "internalType": "uint24",
              "name": "fee",
              "type": "uint24"
            }
          ],
          "internalType": "struct PoolKey",
          "name": "key",
          "type": "tuple"
        },
        {
          "internalType": "bool",
          "name": "borrowToken1",
          "type": "bool"
        },
        {
          "internalType": "uint256",
          "name": "amount",
          "type": "uint256"
        }
      ],
      "name": "withdrawPremium",
      "outputs": [],
      "stateMutability": "nonpayable",
      "type": "function"
    }
  ],
  "bytecode": {
    "object": "0x608060405260016000553480156200001657600080fd5b5060405162005d0238038062005d028339810160408190526200003991620000a6565b600180546001600160a01b03199081166001600160a01b039586161790915560028054821693851693909317909255600480548316919093161790915560038054339216919091179055620000f0565b80516001600160a01b0381168114620000a157600080fd5b919050565b600080600060608486031215620000bc57600080fd5b620000c78462000089565b9250620000d76020850162000089565b9150620000e76040850162000089565b90509250925092565b615c0280620001006000396000f3fe608060405234801561001057600080fd5b50600436106101c45760003560e01c806389a1c073116100f9578063bc06b00811610097578063dbe5f6cb11610071578063dbe5f6cb146104b6578063de074f10146104c9578063f2edf95a146104dc578063f6f0ea89146104ef57600080fd5b8063bc06b0081461047d578063bfd4c2a514610490578063d42a397c146104a357600080fd5b80639c3f1e90116100d35780639c3f1e9014610388578063a36b91681461043c578063ac9650d81461044f578063afbc39eb1461046f57600080fd5b806389a1c073146103335780638be8efa2146103465780638c1395f81461036857600080fd5b80632be197cf116101665780635277a324116101405780635277a324146102cc5780635d4936ff146102df578063657b5a4b146102ff57806386dacdb01461031f57600080fd5b80632be197cf146102765780633eb4adab14610297578063514ea4bf146102aa57600080fd5b80631fda89ef116101a25780631fda89ef1461021a57806320a672a21461022d578063228e062a1461025057806328ec72321461026357600080fd5b8063025df9e4146101c95780630a2c5e29146101de57806313af403514610207575b600080fd5b6101dc6101d7366004613b84565b610502565b005b6101f16101ec366004613d5e565b610665565b6040516101fe9190613e6d565b60405180910390f35b6101dc610215366004613e7c565b6111f0565b6101dc610228366004613e99565b61123c565b61024061023b366004613eb6565b611284565b60405190151581526020016101fe565b6101dc61025e366004613f07565b61130e565b6101dc610271366004613f88565b6114d0565b610289610284366004614039565b6115bd565b6040519081526020016101fe565b6101dc6102a5366004614078565b6116bd565b6102bd6102b83660046140b1565b6118e7565b6040516101fe939291906141cf565b6102896102da3660046141f4565b611a13565b6102896102ed3660046140b1565b60056020526000908152604090205481565b61031261030d36600461428e565b611a41565b6040516101fe91906142f8565b61028961032d3660046140b1565b50600090565b6101dc610341366004613e99565b611bab565b610359610354366004614484565b611bf3565b6040516101fe939291906145d4565b61037b61037636600461428e565b612755565b6040516101fe91906145e7565b6104276103963660046140b1565b600660208181526000928352604092839020835160608101855281546001600160a01b039081168252600183015490811693820193909352600160a01b90920462ffffff1693820193909352600283015460038401546004850154600586015494860154600790960154939560ff841695610100850463ffffffff9081169665010000000000909604169490919089565b6040516101fe99989796959493929190614626565b61028961044a366004614679565b6128bb565b61046261045d3660046146ea565b612932565b6040516101fe91906147ae565b61024061032d366004614914565b61024061048b366004614948565b612a27565b61028961049e366004614996565b612acb565b6101dc6104b1366004613e99565b612b2f565b6101dc6104c43660046149f2565b612b77565b6102896104d7366004613b84565b612ca8565b6102406104ea36600461428e565b612ec2565b6102896104fd36600461428e565b612ef0565b600154604051639525092360e01b81526000916001600160a01b031690639525092390610533908790600401614a89565b6101a060405180830381865afa158015610551573d6000803e3d6000fd5b505050506040513d601f19601f820116820180604052508101906105759190614b70565b505090506000610586823386612ef0565b9050826105a261059b36889003880188614bba565b33876115bd565b10156105c157604051632b869ad760e21b815260040160405180910390fd5b600081815260056020526040812080548592906105df908490614bec565b909155506106169050846105ff576105fa6020870187613e7c565b61060f565b61060f6040870160208801613e7c565b3385612f46565b604080518515158152602081018590526001600160a01b0384169133917ffb7067681775f19340bbd7db267bcc1217b3d27bff5bfee90759622e8e028977910160405180910390a35050505050565b61066d61391a565b6000546001146106985760405162461bcd60e51b815260040161068f90614bff565b60405180910390fd5b6002600055600454600160a81b900460ff16156106e05760405162461bcd60e51b81526020600482015260066024820152651c185d5cd95960d21b604482015260640161068f565b6106e861395f565b6106f061391a565b600154604051639525092360e01b81526001600160a01b0390911690639525092390610720908890600401614a89565b6101a060405180830381865afa15801561073e573d6000803e3d6000fd5b505050506040513d601f19601f820116820180604052508101906107629190614b70565b61016085015260020b60208401526001600160a01b0316808352606085015185516000926007928492610796929190612ef0565b8152602001908152602001600020905080600601546000036107cb5760405163081f715760e11b815260040160405180910390fd5b602085015115806107e75750670de0b6b3a76400008560200151115b156108055760405163161e1b4160e11b815260040160405180910390fd5b73__$506f8190e26c635088963c8a0018e71746$__63e31e0ac686836006600061083e89600001518c606001518d600001516000612acb565b81526020019081526020016000206040518463ffffffff1660e01b815260040161086a93929190614daa565b606060405180830381865af4158015610887573d6000803e3d6000fd5b505050506040513d601f19601f820116820180604052508101906108ab9190614e70565b6020880152610100850152604084015260608501516001600160a01b0316331461094f578251606086015186516006926000926108e89284612acb565b81526020810191909152604001600090812080546001600160a01b03191681556001810180546001600160b81b031916905560028101805468ffffffffffffffffff1916905560038101829055600481018290556005810182905560068101829055600701555b6060610a71604051806101000160405280898036038101906109719190614bba565b815260200184600001600501805480602002602001604051908101604052809291908181526020016000905b82821015610a145760008481526020908190206040805160c081018252600586029092018054600281810b855263010000009091046001600160801b031684860152600180830154938501939093528101546060840152600381015460808401526004015460a0830152908352909201910161099d565b50505050815260200186600001516001600160a01b0316815260200188606001516001600160a01b031681526020018860000151151581526020018661016001518152602001866020015160020b81526020016000815250612fc4565b60c08501919091526020870151909150670de0b6b3a764000014610bb0576005820180546040805160208084028201810190925282815292919060009084015b82821015610b285760008481526020908190206040805160c081018252600586029092018054600281810b855263010000009091046001600160801b031684860152600180830154938501939093528101546060840152600381015460808401526004015460a08301529083529092019101610ab1565b50505050602087015160405163069b8a8b60e31b815273__$d23a8dd93b7205fa6b646ffed38c165d68$__926334dc545892610b6692600401614e9e565b600060405180830381865af4158015610b83573d6000803e3d6000fd5b505050506040513d6000823e601f3d908101601f19168201604052610bab9190810190614f77565b610c4e565b6005820180546040805160208084028201810190925282815292919060009084015b82821015610c495760008481526020908190206040805160c081018252600586029092018054600281810b855263010000009091046001600160801b031684860152600180830154938501939093528101546060840152600381015460808401526004015460a08301529083529092019101610bd2565b505050505b610180850152600782015461014085015260068201546101008701511015610cef576101008401516020870151610180860151604051631b74fb1560e31b815273__$506f8190e26c635088963c8a0018e71746$__9363dba7d8a893610cba9388938890600401614fab565b60006040518083038186803b158015610cd257600080fd5b505af4158015610ce6573d6000803e3d6000fd5b50505050610d74565b835160608701518751600792600092610d0792612ef0565b81526020810191909152604001600090812080546001600160a81b031916815560018101829055600281018290556003810182905560048101805467ffffffffffffffff19169055908181610d5f60058301826139d2565b50506006820160009055600782016000905550505b83600001516001600160a01b0316633850c7bd6040518163ffffffff1660e01b815260040160e060405180830381865afa158015610db6573d6000803e3d6000fd5b505050506040513d601f19601f82011682018060405250810190610dda9190614ff9565b50505050600291820b608088018190526001600160a01b0390931660608801525060c0880151900b1380610e1b5750836080015160020b8660e0015160020b125b15610e3957604051631e6012f360e21b815260040160405180910390fd5b6101808401516040516337a6142160e01b815273__$d23a8dd93b7205fa6b646ffed38c165d68$__916337a6142191610e7591906004016142f8565b6040805180830381865af4158015610e91573d6000803e3d6000fd5b505050506040513d601f19601f82011682018060405250810190610eb59190615091565b600290810b60c0870181905291900b60a08601819052875160808701516020880151600094610ee59490916128bb565b905080600103611012576002546001546040516337aaefd560e11b815273__$506f8190e26c635088963c8a0018e71746$__92636f55dfaa92610f40928c928a928f928d926001600160a01b0390811692169060040161513d565b600060405180830381865af4158015610f5d573d6000803e3d6000fd5b505050506040513d6000823e601f3d908101601f19168201604052610f8591908101906152e5565b6101208101519096509094501561100d578651610feb90610fb257610fad60208a018a613e7c565b610fc2565b610fc260408a0160208b01613e7c565b60035461012088015160e08801516001600160a01b0390921691610fe69190614bec565b612f46565b61100d610ffd368a90038a018a614bba565b86518951610120890151866134ba565b611159565b806002036110c35773__$506f8190e26c635088963c8a0018e71746$__634271c04786610180015189878c8a6101400151600160009054906101000a90046001600160a01b03166040518763ffffffff1660e01b815260040161107a96959493929190615422565b61010060405180830381865af4158015611098573d6000803e3d6000fd5b505050506040513d601f19601f820116820180604052508101906110bc9190615486565b9350611159565b600254600154604051630e4940a960e31b815273__$506f8190e26c635088963c8a0018e71746$__9263724a054892611114928c928a928f928d926001600160a01b0390811692169060040161513d565b61010060405180830381865af4158015611132573d6000803e3d6000fd5b505050506040513d601f19601f820116820180604052508101906111569190615486565b93505b6060870151875186516001600160a01b039283169291151591167f3aacf7844e8b88dda49c434b9ce8b132ed7fc860559882f088ff0c39f8fe98873384146111a157336111a4565b60005b60208c81015160c08b015160e08c0151604080516001600160a01b0396909616865293850192909252838301526060830152519081900360800190a45050600160005550949350505050565b6003546001600160a01b0316331461121a5760405162461bcd60e51b815260040161068f906154a3565b600380546001600160a01b0319166001600160a01b0392909216919091179055565b6003546001600160a01b031633146112665760405162461bcd60e51b815260040161068f906154a3565b60048054911515600160a01b0260ff60a01b19909216919091179055565b600080611292868686612755565b8051606001519091506112ae9084670de0b6b3a7640000613530565b600560006112bd898989612ef0565b81526020019081526020016000205410156113055760405162461bcd60e51b8152602060048201526008602482015267217072656d69756d60c01b604482015260640161068f565b50949350505050565b6000546001146113305760405162461bcd60e51b815260040161068f90614bff565b600260009081556113428a338b612755565b9050876113865783816020015110156113865760405162461bcd60e51b815260040161068f9060208082526004908201526321706f7360e01b604082015260600190565b6000600660006113988d338e8e612acb565b81526020019081526020016000209050898160020160006101000a81548160ff021916908315150217905550878160020160016101000a81548163ffffffff021916908363ffffffff160217905550428160020160056101000a81548163ffffffff021916908363ffffffff160217905550858160040181905550868160030181905550848160050181905550838160060181905550828160070181905550336001600160a01b03168a15158c6001600160a01b03167f4c34e64fbcdd268148a9e26a3b2c922bd24162485ce0b2ba28e4ce57d9a2c33c8c8c8c8c8c8c8c6040516114b697969594939291909615158752602087019590955260408601939093526060850191909152608084015260a083015260c082015260e00190565b60405180910390a450506001600055505050505050505050565b6000546001146114f25760405162461bcd60e51b815260040161068f90614bff565b6002600090815560069061150885338686612acb565b81526020808201929092526040908101600090812080546001600160a01b03191681556001810180546001600160b81b031916905560028101805468ffffffffffffffffff1916905560038101829055600481018290556005810182905560068101829055600701555182151581523391841515916001600160a01b038716917f761fde4703b3eb1ca92675208248e655ce58d6778c95e6e742ab9819a7f3d93d910160405180910390a45050600160005550565b600154604051639525092360e01b8152600091829182916001600160a01b0316906395250923906115f29089906004016154c3565b6101a060405180830381865afa158015611610573d6000803e3d6000fd5b505050506040513d601f19601f820116820180604052508101906116349190614b70565b92505091506000611646838787612755565b9050600060056000611659868a8a612ef0565b815260200190815260200160002054905060006116958460a00151670de0b6b3a76400008560000151606001516135309092919063ffffffff16565b9050808210156116a65760006116b0565b6116b08183614bec565b9998505050505050505050565b6001546001600160a01b031633146116ff5760405162461bcd60e51b8152602060048201526005602482015264085c1bdbdb60da1b604482015260640161068f565b60015460405163095ea7b360e01b81526001600160a01b03918216600482015260001960248201529083169063095ea7b3906044016020604051808303816000875af1158015611753573d6000803e3d6000fd5b505050506040513d601f19601f8201168201806040525081019061177791906154d1565b5060015460405163095ea7b360e01b81526001600160a01b03918216600482015260001960248201529082169063095ea7b3906044016020604051808303816000875af11580156117cc573d6000803e3d6000fd5b505050506040513d601f19601f820116820180604052508101906117f091906154d1565b5060025460405163095ea7b360e01b81526001600160a01b03918216600482015260001960248201529083169063095ea7b3906044016020604051808303816000875af1158015611845573d6000803e3d6000fd5b505050506040513d601f19601f8201168201806040525081019061186991906154d1565b5060025460405163095ea7b360e01b81526001600160a01b03918216600482015260001960248201529082169063095ea7b3906044016020604051808303816000875af11580156118be573d6000803e3d6000fd5b505050506040513d601f19601f820116820180604052508101906118e291906154d1565b505050565b600760209081526000918252604080832081516101008101835281546001600160a01b0381168252600160a01b900460ff161515818501526001820154818401526002820154606082015260038201546080820152600482015463ffffffff80821660a08401526401000000009091041660c082015260058201805484518187028101870190955280855292959194869460e08701949093909184015b828210156119fb5760008481526020908190206040805160c081018252600586029092018054600281810b855263010000009091046001600160801b031684860152600180830154938501939093528101546060840152600381015460808401526004015460a08301529083529092019101611984565b50505091525050600682015460079092015490919083565b60008054600114611a365760405162461bcd60e51b815260040161068f90614bff565b600160005592915050565b6060600060076000611a54878787612ef0565b81526020808201929092526040908101600090812082516101608101845281546001600160a01b03811660608301908152600160a01b90910460ff1615156080830152600183015460a0830152600283015460c0830152600383015460e0830152600483015463ffffffff8082166101008501526401000000009091041661012083015260058301805486518189028101890190975280875292969395879592948794610140880194929392909184015b82821015611b7c5760008481526020908190206040805160c081018252600586029092018054600281810b855263010000009091046001600160801b031684860152600180830154938501939093528101546060840152600381015460808401526004015460a08301529083529092019101611b05565b505050915250508152600682015460208201526007909101546040909101525160e001519150505b9392505050565b6003546001600160a01b03163314611bd55760405162461bcd60e51b815260040161068f906154a3565b60048054911515600160a81b0260ff60a81b19909216919091179055565b611bfb6139f6565b600080600054600114611c205760405162461bcd60e51b815260040161068f90614bff565b6002600055600454600160a01b900460ff1615611c685760405162461bcd60e51b81526020600482015260066024820152651c185d5cd95960d21b604482015260640161068f565b611c70613a55565b600154604051639525092360e01b81526001600160a01b0390911690639525092390611ca0908a90600401614a89565b6101a060405180830381865afa158015611cbe573d6000803e3d6000fd5b505050506040513d601f19601f82011682018060405250810190611ce29190614b70565b604084015260020b60208301526001600160a01b031680825260c087015160808801516000926007928492611d18929190612ef0565b8152602001908152602001600020905073__$506f8190e26c635088963c8a0018e71746$__631fbfc2b160066000611d5f86600001518c60c001518d608001516001612acb565b8152602001908152602001600020896040518363ffffffff1660e01b8152600401611d8b92919061559e565b600060405180830381865af4158015611da8573d6000803e3d6000fd5b505050506040513d6000823e601f3d908101601f19168201604052611dd091908101906156c5565b606084019190915260c08101519097506001600160a01b03163314611e735760066000611e0c84600001518a60c001518b608001516001612acb565b81526020810191909152604001600090812080546001600160a01b03191681556001810180546001600160b81b031916905560028101805468ffffffffffffffffff1916905560038101829055600481018290556005810182905560068101829055600701555b611eaf8760800151611e9157611e8c60208a018a613e7c565b611ea1565b611ea160408a0160208b01613e7c565b60c08901518951309061360e565b600154600354604051632da526f160e01b815273__$506f8190e26c635088963c8a0018e71746$__92632da526f192611f00928d928d928d926001600160a01b039283169290911690600401615701565b600060405180830381865af4158015611f1d573d6000803e3d6000fd5b505050506040513d6000823e601f3d908101601f19168201604052611f459190810190615759565b60808601929092528451600154602087015160408089015151905163cf2778e960e01b8152949d50949b5094975073__$eacbb88ed4bd2af84aa4d43bcf675bcf7e$__9463cf2778e994611faa946001600160a01b03909316928d91906004016157cf565b600060405180830381865af4158015611fc7573d6000803e3d6000fd5b505050506040513d6000823e601f3d908101601f19168201604052611fef9190810190614f77565b608088015160208401516040516341533fe760e01b815292985073__$d23a8dd93b7205fa6b646ffed38c165d68$__926341533fe792612033928b92600401615841565b602060405180830381865af4158015612050573d6000803e3d6000fd5b505050506040513d601f19601f82011682018060405250810190612074919061586e565b60e083015261209d61208b368a90038a018a614bba565b83516080808b0151908601518a6134ba565b60058101541561224f5760606121c86040518061010001604052808b8036038101906120c99190614bba565b815260200184600001600501805480602002602001604051908101604052809291908181526020016000905b8282101561216c5760008481526020908190206040805160c081018252600586029092018054600281810b855263010000009091046001600160801b031684860152600180830154938501939093528101546060840152600381015460808401526004015460a083015290835290920191016120f5565b50505050815260200185600001516001600160a01b031681526020018a60c001516001600160a01b031681526020018a608001511515815260200185604001518152602001856020015160020b81526020016000815250612fc4565b604051630b7cb7c160e01b8152919650915073__$d23a8dd93b7205fa6b646ffed38c165d68$__90630b7cb7c190612206908a908590600401615887565b600060405180830381865af4158015612223573d6000803e3d6000fd5b505050506040513d6000823e601f3d908101601f1916820160405261224b9190810190614f77565b9650505b604082015160a00151606088015161226f91670de0b6b3a7640000613530565b6005600061228a85600001518b60c001518c60800151612ef0565b81526020019081526020016000205410156122b8576040516357312bc960e01b815260040160405180910390fd5b73__$506f8190e26c635088963c8a0018e71746$__6386c6f9bb888a8560e001518660200151600260009054906101000a90046001600160a01b0316886000015189606001516040518863ffffffff1660e01b815260040161232097969594939291906158ac565b6040805180830381865af415801561233c573d6000803e3d6000fd5b505050506040513d601f19601f820116820180604052508101906123609190615907565b60c084015260a083015260e0820151608088015173__$506f8190e26c635088963c8a0018e71746$__916341a95ff89184918b918b91906123ae578760c001516123a99061592b565b6123bc565b8760a001516123bc9061592b565b6040518663ffffffff1660e01b81526004016123dc959493929190615947565b60006040518083038186803b1580156123f457600080fd5b505af4158015612408573d6000803e3d6000fd5b5050604080516101608101825284546001600160a01b03811660608301908152600160a01b90910460ff1615156080830152600186015460a0830152600286015460c0830152600386015460e0830152600486015463ffffffff80821661010085015264010000000090910416610120830152600586018054845160208083028201810190965281815293965087955086949293869361014087019391929060009084015b828210156125245760008481526020908190206040805160c081018252600586029092018054600281810b855263010000009091046001600160801b031684860152600180830154938501939093528101546060840152600381015460808401526004015460a083015290835290920191016124ad565b5050509152505081526006820154602082015260079091015460409091015260c0880151608089015184519297506001600160a01b039182169290151591167f9162a397ba17d1e4988a59388b9744cf4bc003cf58486fda9f8c7c91a7af3fca3384146125915733612594565b60005b8b608001516125b0578660c001516125ab9061592b565b6125be565b8660a001516125be9061592b565b8c516060808f0151604080516001600160a01b0390961686526020860194909452928401919091528201526080810189905260a0810188905260c00160405180910390a4604080516101608101825282546001600160a01b03811660608301908152600160a01b90910460ff1615156080830152600184015460a0830152600284015460c0830152600384015460e0830152600484015463ffffffff80821661010085015264010000000090910416610120830152600584018054845160208083028201810190965281815286958a958a95909488948694929386936101408701939092909160009084015b828210156127215760008481526020908190206040805160c081018252600586029092018054600281810b855263010000009091046001600160801b031684860152600180830154938501939093528101546060840152600381015460808401526004015460a083015290835290920191016126aa565b5050509152505081526006820154602082015260079091015460409091015260016000559b919a5098509650505050505050565b61275d6139f6565b6007600061276c868686612ef0565b81526020808201929092526040908101600090812082516101608101845281546001600160a01b03811660608301908152600160a01b90910460ff1615156080830152600183015460a0830152600283015460c0830152600383015460e0830152600483015463ffffffff8082166101008501526401000000009091041661012083015260058301805486518189028101890190975280875292969395879592948794610140880194929392909184015b828210156128945760008481526020908190206040805160c081018252600586029092018054600281810b855263010000009091046001600160801b031684860152600180830154938501939093528101546060840152600381015460808401526004015460a0830152908352909201910161281d565b50505091525050815260068201546020820152600790910154604090910152949350505050565b6000856128d0578260020b8560020b126128e4565b6128da8285615987565b60020b8560020b12155b156128f157506001612929565b8561290e576129008285615987565b60020b8560020b1215612918565b8260020b8560020b125b1561292557506002612929565b5060035b95945050505050565b6060816001600160401b0381111561294c5761294c613bc4565b60405190808252806020026020018201604052801561297f57816020015b606081526020019060019003908161296a5790505b50905060005b82811015612a1f576129ef308585848181106129a3576129a36159ac565b90506020028101906129b591906159c2565b8080601f01602080910402602001604051908101604052809392919081815260200183838082843760009201919091525061369892505050565b828281518110612a0157612a016159ac565b60200260200101819052508080612a1790615a0f565b915050612985565b505b92915050565b600154604051639525092360e01b815260009182916001600160a01b0390911690639525092390612a5c908790600401614a89565b6101a060405180830381865afa158015612a7a573d6000803e3d6000fd5b505050506040513d601f19601f82011682018060405250810190612a9e9190614b70565b925050508060c00151836000015160c0015163ffffffff1642612ac19190614bec565b1015949350505050565b6040516bffffffffffffffffffffffff19606086811b8216602084015285901b16603482015282151560f890811b6048830152821515901b6049820152600090604a016040516020818303038152906040528051906020012090505b949350505050565b6003546001600160a01b03163314612b595760405162461bcd60e51b815260040161068f906154a3565b60048054911515600160b01b0260ff60b01b19909216919091179055565b600154604051639525092360e01b81526000916001600160a01b031690639525092390612ba8908890600401614a89565b6101a060405180830381865afa158015612bc6573d6000803e3d6000fd5b505050506040513d601f19601f82011682018060405250810190612bea9190614b70565b505090506000612bfb823386612ef0565b905082600560008381526020019081526020016000206000828254612c209190615a28565b90915550612c58905084612c4057612c3b6020880188613e7c565b612c50565b612c506040880160208901613e7c565b33308661360e565b604080518515158152602081018590526001600160a01b0384169133917f3b362679889b553ed2e7ee099bd77d266648894e6562144e3791e108b0a2596e910160405180910390a3505050505050565b60008054600114612ccb5760405162461bcd60e51b815260040161068f90614bff565b60026000908155600154604051639525092360e01b8152829182916001600160a01b0390911690639525092390612d06908a90600401614a89565b6101a060405180830381865afa158015612d24573d6000803e3d6000fd5b505050506040513d601f19601f82011682018060405250810190612d489190614b70565b925092509250612d59833388612ec2565b612d695760009350505050612eb6565b6000612d76843389611a41565b9050612de26040518061010001604052808a803603810190612d989190614bba565b8152602001838152602001866001600160a01b03168152602001336001600160a01b0316815260200189151581526020018481526020018560020b81526020016000815250612fc4565b9095509050612df3843389846136bd565b8560056000612e0387338c612ef0565b81526020019081526020016000206000828254612e209190615a28565b90915550612e58905087612e4057612e3b60208a018a613e7c565b612e50565b612e5060408a0160208b01613e7c565b33308961360e565b612e688433898560a00151611284565b50604080518815158152602081018890526001600160a01b0386169133917f3b362679889b553ed2e7ee099bd77d266648894e6562144e3791e108b0a2596e910160405180910390a3505050505b60016000559392505050565b60008060076000612ed4878787612ef0565b8152602001908152602001600020600601541190509392505050565b6040516bffffffffffffffffffffffff19606085811b8216602084015284901b16603482015281151560f81b60488201526000906049016040516020818303038152906040528051906020012090509392505050565b600060405163a9059cbb60e01b8152836004820152826024820152602060006044836000895af13d15601f3d1160016000511416171691505080612fbe5760405162461bcd60e51b815260206004820152600f60248201526e1514905394d1915497d19052531151608a1b604482015260640161068f565b50505050565b604080820151600154608084015160c085015160a08601515160208701519551630d527ba960e01b815260009660609688968796879673__$eacbb88ed4bd2af84aa4d43bcf675bcf7e$__96630d527ba996613032966001600160a01b039095169493159390600401615a3b565b600060405180830381865af415801561304f573d6000803e3d6000fd5b505050506040513d6000823e601f3d908101601f191682016040526130779190810190615ab1565b60208901929092529350915081156132b35760008087604001516001600160a01b0316633850c7bd6040518163ffffffff1660e01b815260040160e060405180830381865afa1580156130ce573d6000803e3d6000fd5b505050506040513d601f19601f820116820180604052508101906130f29190614ff9565b50505060808c015160405163103d82bb60e11b81526001600160a01b0386166004820152670e92596fd629000060248201529015604482015293955091935060009273__$d23a8dd93b7205fa6b646ffed38c165d68$__925063207b05769150606401602060405180830381865af4158015613172573d6000803e3d6000fd5b505050506040513d601f19601f820116820180604052508101906131969190615b00565b8951805160209091015160025460408d015160808e01519495509293919260009283926001600160a01b03169163c90050de91156131d38d61592b565b6040516001600160e01b031960e086901b1681526001600160a01b039384166004820152911515602483015260448201528189166064820152818816608482015290861660a482015260c40160408051808303816000875af115801561323d573d6000803e3d6000fd5b505050506040513d601f19601f820116820180604052508101906132619190615907565b915091508c608001516132745781613276565b805b9750613282888b615a28565b99506132ab8d60800151156132975784613299565b835b6001546001600160a01b03168b612f46565b505050505050505b60006132cc876040015188606001518960800151612ef0565b6000818152600560205260409020549091508411156132fe57604051636e4a119b60e11b815260040160405180910390fd5b600090815260056020908152604091829020805486900390556001548851928901519189015160808a015160e08b01516001600160a01b039093169463fd8d019c94909390929190613350888b614bec565b896040518863ffffffff1660e01b81526004016133739796959493929190615b1d565b600060405180830381600087803b15801561338d57600080fd5b505af11580156133a1573d6000803e3d6000fd5b5050505060005b8660200151518110156133ee576000876020015182815181106133cd576133cd6159ac565b602090810291909101015160400152806133e681615a0f565b9150506133a8565b5061342086608001516134035786515161340a565b8651602001515b6001546001600160a01b0316610fe68487614bec565b85604001516001600160a01b0316336001600160a01b03167fef39cf4d418744ce8441cdcbef9be73e8e133e5404246a8b82839b201dbf671988608001516134715761346c8487614bec565b613473565b845b8960800151613482578561348c565b61348c8588614bec565b604080519283526020830191909152810185905260600160405180910390a350506020909301519293915050565b600154604051633f63406760e21b81526001600160a01b039091169063fd8d019c906134f790889088908690899089906000908190600401615b1d565b600060405180830381600087803b15801561351157600080fd5b505af1158015613525573d6000803e3d6000fd5b505050505050505050565b6000808060001985870985870292508281108382030391505080600003613569576000841161355e57600080fd5b508290049050611ba4565b8084116135a15760405162461bcd60e51b815260206004820152600660248201526536bab62234bb60d11b604482015260640161068f565b6000848688096000868103871696879004966002600389028118808a02820302808a02820302808a02820302808a02820302808a02820302808a02909103029181900381900460010186841190950394909402919094039290920491909117919091029150509392505050565b60006040516323b872dd60e01b81528460048201528360248201528260448201526020600060648360008a5af13d15601f3d11600160005114161716915050806136915760405162461bcd60e51b81526020600482015260146024820152731514905394d1915497d19493d357d1905253115160621b604482015260640161068f565b5050505050565b6060611ba48383604051806060016040528060278152602001615ba660279139613804565b6000600760006136ce878787612ef0565b815260200190815260200160002090508060000160050160006136f191906139d2565b60005b82518110156137dc576000838281518110613711576137116159ac565b6020026020010151602001516001600160801b031611156137ca5781600001600501838281518110613745576137456159ac565b60209081029190910181015182546001818101855560009485529383902082516005909202018054938301516001600160801b03166301000000026001600160981b031990941662ffffff90921691909117929092178255604081015192820192909255606082015160028201556080820151600382015560a0909101516004909101555b806137d481615a0f565b9150506136f4565b50600401805467ffffffff0000000019166401000000004263ffffffff160217905550505050565b6060600080856001600160a01b0316856040516138219190615b76565b600060405180830381855af49150503d806000811461385c576040519150601f19603f3d011682016040523d82523d6000602084013e613861565b606091505b50915091506138728683838761387c565b9695505050505050565b606083156138eb5782516000036138e4576001600160a01b0385163b6138e45760405162461bcd60e51b815260206004820152601d60248201527f416464726573733a2063616c6c20746f206e6f6e2d636f6e7472616374000000604482015260640161068f565b5081612b27565b612b2783838151156139005781518083602001fd5b8060405162461bcd60e51b815260040161068f9190615b92565b60405180610100016040528060008152602001600081526020016000815260200160008152602001600081526020016000815260200160008152602001600081525090565b604080516101a081018252600080825260208201819052918101829052606081018290526080810182905260a0810182905260c0810182905260e081018290526101008101829052610120810182905261014081019190915261016081016139c5613a9e565b8152602001606081525090565b50805460008255600502906000526020600020908101906139f39190613b0f565b50565b604080516101608101909152600060608083018281526080840183905260a0840183905260c0840183905260e0840183905261010084018390526101208401929092526101408301528190815260200160008152602001600081525090565b604080516101008101825260008082526020820152908101613a75613a9e565b815260200160008152602001600081526020016000815260200160008152602001600081525090565b6040518060e00160405280613adb6040518060a0016040528060008152602001600081526020016000815260200160008152602001600081525090565b8152602001600081526020016000815260200160008152602001600061ffff16815260200160008152602001600081525090565b5b80821115613b4a5780546001600160981b031916815560006001820181905560028201819055600382018190556004820155600501613b10565b5090565b600060608284031215613b6057600080fd5b50919050565b80151581146139f357600080fd5b8035613b7f81613b66565b919050565b600080600060a08486031215613b9957600080fd5b613ba38585613b4e565b92506060840135613bb381613b66565b929592945050506080919091013590565b634e487b7160e01b600052604160045260246000fd5b60405161012081016001600160401b0381118282101715613bfd57613bfd613bc4565b60405290565b604051606081016001600160401b0381118282101715613bfd57613bfd613bc4565b60405160a081016001600160401b0381118282101715613bfd57613bfd613bc4565b60405160c081016001600160401b0381118282101715613bfd57613bfd613bc4565b60405161014081016001600160401b0381118282101715613bfd57613bfd613bc4565b60405161010081016001600160401b0381118282101715613bfd57613bfd613bc4565b60405160e081016001600160401b0381118282101715613bfd57613bfd613bc4565b6040516101a081016001600160401b0381118282101715613bfd57613bfd613bc4565b604051601f8201601f191681016001600160401b0381118282101715613d1c57613d1c613bc4565b604052919050565b6001600160a01b03811681146139f357600080fd5b8035613b7f81613d24565b8060020b81146139f357600080fd5b8035613b7f81613d44565b600080828403610180811215613d7357600080fd5b613d7d8585613b4e565b925061012080605f1983011215613d9357600080fd5b613d9b613bda565b9150613da960608601613b74565b82526080850135602083015260a08501356040830152613dcb60c08601613d39565b606083015260e085013560808301526101008086013560a0840152613df1828701613d53565b60c0840152613e036101408701613d53565b60e0840152610160860135818401525050809150509250929050565b805182526020810151602083015260408101516040830152606081015160608301526080810151608083015260a081015160a083015260c081015160c083015260e081015160e08301525050565b6101008101612a218284613e1f565b600060208284031215613e8e57600080fd5b8135611ba481613d24565b600060208284031215613eab57600080fd5b8135611ba481613b66565b60008060008060808587031215613ecc57600080fd5b8435613ed781613d24565b93506020850135613ee781613d24565b92506040850135613ef781613b66565b9396929550929360600135925050565b60008060008060008060008060006101208a8c031215613f2657600080fd5b8935613f3181613d24565b985060208a0135613f4181613b66565b975060408a0135613f5181613b66565b989b979a5097986060810135985060808101359760a0820135975060c0820135965060e08201359550610100909101359350915050565b600080600060608486031215613f9d57600080fd5b8335613fa881613d24565b92506020840135613fb881613b66565b91506040840135613fc881613b66565b809150509250925092565b803562ffffff81168114613b7f57600080fd5b600060608284031215613ff857600080fd5b614000613c03565b9050813561400d81613d24565b8152602082013561401d81613d24565b602082015261402e60408301613fd3565b604082015292915050565b600080600060a0848603121561404e57600080fd5b6140588585613fe6565b9250606084013561406881613d24565b91506080840135613fc881613b66565b6000806040838503121561408b57600080fd5b823561409681613d24565b915060208301356140a681613d24565b809150509250929050565b6000602082840312156140c357600080fd5b5035919050565b805160020b82526001600160801b03602082015116602083015260408101516040830152606081015160608301526080810151608083015260a081015160a08301525050565b600081518084526020808501945080840160005b8381101561414a576141378783516140ca565b60c0969096019590820190600101614124565b509495945050505050565b600061010060018060a01b03835116845260208301511515602085015260408301516040850152606083015160608501526080830151608085015263ffffffff60a08401511660a085015260c08301516141b760c086018263ffffffff169052565b5060e08301518160e086015261292982860182614110565b6060815260006141e26060830186614155565b60208301949094525060400152919050565b60008082840361010081121561420957600080fd5b6142138585613b4e565b925060a0605f198201121561422757600080fd5b50614230613c25565b606084013561423e81613d24565b8152608084013561424e81613b66565b602082015260a0840135604082015260c084013561426b81613d44565b606082015260e084013561427e81613d44565b6080820152919491935090915050565b6000806000606084860312156142a357600080fd5b83356142ae81613d24565b92506020840135613fb881613d24565b600081518084526020808501945080840160005b8381101561414a576142e58783516140ca565b60c09690960195908201906001016142d2565b602081526000611ba460208301846142be565b60006001600160401b0382111561432457614324613bc4565b50601f01601f191660200190565b600082601f83011261434357600080fd5b81356143566143518261430b565b613cf4565b81815284602083860101111561436b57600080fd5b816020850160208301376000918101602001919091529392505050565b60006001600160401b038211156143a1576143a1613bc4565b5060051b60200190565b6001600160801b03811681146139f357600080fd5b600082601f8301126143d157600080fd5b813560206143e161435183614388565b82815260c0928302850182019282820191908785111561440057600080fd5b8387015b858110156144775781818a03121561441c5760008081fd5b614424613c47565b813561442f81613d44565b81528186013561443e816143ab565b8187015260408281013590820152606080830135908201526080808301359082015260a080830135908201528452928401928101614404565b5090979650505050505050565b600080600060a0848603121561449957600080fd5b6144a38585613b4e565b925060608401356001600160401b03808211156144bf57600080fd5b9085019061014082880312156144d457600080fd5b6144dc613c69565b8235815260208301356020820152604083013560408201526060830135606082015261450a60808401613b74565b608082015260a083013560a082015261452560c08401613d39565b60c082015260e08301358281111561453c57600080fd5b61454889828601614332565b60e08301525061010061455c818501613d53565b9082015261012061456e848201613d53565b908201529350608086013591508082111561458857600080fd5b50614595868287016143c0565b9150509250925092565b60008151606084526145b46060850182614155565b905060208301516020850152604083015160408501528091505092915050565b6060815260006141e2606083018661459f565b602081526000611ba4602083018461459f565b80516001600160a01b0390811683526020808301519091169083015260409081015162ffffff16910152565b6101608101614635828c6145fa565b981515606082015263ffffffff97881660808201529590961660a086015260c085019390935260e08401919091526101008301526101208201526101400152919050565b600080600080600060a0868803121561469157600080fd5b853561469c81613b66565b945060208601356146ac81613d44565b935060408601356146bc81613d44565b925060608601356146cc81613d44565b915060808601356146dc81613d44565b809150509295509295909350565b600080602083850312156146fd57600080fd5b82356001600160401b038082111561471457600080fd5b818501915085601f83011261472857600080fd5b81358181111561473757600080fd5b8660208260051b850101111561474c57600080fd5b60209290920196919550909350505050565b60005b83811015614779578181015183820152602001614761565b50506000910152565b6000815180845261479a81602086016020860161475e565b601f01601f19169290920160200192915050565b6000602080830181845280855180835260408601915060408160051b870101925083870160005b8281101561480357603f198886030184526147f1858351614782565b945092850192908501906001016147d5565b5092979650505050505050565b803563ffffffff81168114613b7f57600080fd5b60006060828403121561483657600080fd5b61483e613c03565b905081356001600160401b038082111561485757600080fd5b90830190610100828603121561486c57600080fd5b614874613c8c565b61487d83613d39565b815261488b60208401613b74565b60208201526040830135604082015260608301356060820152608083013560808201526148ba60a08401614810565b60a08201526148cb60c08401614810565b60c082015260e0830135828111156148e257600080fd5b6148ee878286016143c0565b60e083015250808452505050602082013560208201526040820135604082015292915050565b60006020828403121561492657600080fd5b81356001600160401b0381111561493c57600080fd5b612b2784828501614824565b6000806080838503121561495b57600080fd5b6149658484613b4e565b915060608301356001600160401b0381111561498057600080fd5b61498c85828601614824565b9150509250929050565b600080600080608085870312156149ac57600080fd5b84356149b781613d24565b935060208501356149c781613d24565b925060408501356149d781613b66565b915060608501356149e781613b66565b939692955090935050565b60008060008060c08587031215614a0857600080fd5b614a128686613b4e565b93506060850135614a2281613d24565b92506080850135614a3281613b66565b9396929550929360a00135925050565b8035614a4d81613d24565b6001600160a01b039081168352602082013590614a6982613d24565b16602083015262ffffff614a7f60408301613fd3565b1660408301525050565b60608101612a218284614a42565b8051613b7f81613d24565b8051613b7f81613d44565b805161ffff81168114613b7f57600080fd5b6000818303610160811215614ad357600080fd5b614adb613caf565b915060a0811215614aeb57600080fd5b50614af4613c25565b82518152602083015160208201526040830151604082015260608301516060820152608083015160808201528082525060a0820151602082015260c0820151604082015260e08201516060820152614b4f6101008301614aad565b608082015261012082015160a082015261014082015160c082015292915050565b60008060006101a08486031215614b8657600080fd5b8351614b9181613d24565b6020850151909350614ba281613d44565b9150614bb18560408601614abf565b90509250925092565b600060608284031215614bcc57600080fd5b611ba48383613fe6565b634e487b7160e01b600052601160045260246000fd5b81810381811115612a2157612a21614bd6565b6020808252600a90820152695245454e5452414e435960b01b604082015260600190565b805115158252602081015160208301526040810151604083015260018060a01b0360608201511660608301526080810151608083015260a081015160a083015260c0810151614c7760c084018260020b9052565b5060e0810151614c8c60e084018260020b9052565b5061010090810151910152565b6000815480845260208085019450836000528060002060005b8381101561414a578154600281810b895260189190911c6001600160801b03168489015260018084015460408a015290830154606089015260038301546080890152600483015460a089015260c09097019660059092019101614cb2565b80546001600160a01b0390811683526001820154908116602084015260a01c62ffffff166040830152600281015460ff81161515606084015263ffffffff600882901c81166080850152614d7160a08501828460281c1663ffffffff169052565b5050600381015460c0830152600481015460e0830152600581015461010083015260068101546101208301526007015461014090910152565b60006102a0614db98387614c23565b610120830181905260609083015283546001600160a01b038116610300840152614dee610320840160ff8360a01c1615159052565b50600184015461034083015260028401546103608301526003840154610380830152600484015463ffffffff8082166103a085015260209190911c166103c08301526101006103e0830152614e4a610400830160058601614c99565b60068501546102c084015260078501546102e08401529050612b27610140830184614d10565b600080600060608486031215614e8557600080fd5b8351925060208401519150604084015190509250925092565b604081526000614eb160408301856142be565b90508260208301529392505050565b600082601f830112614ed157600080fd5b81516020614ee161435183614388565b82815260c09283028501820192828201919087851115614f0057600080fd5b8387015b858110156144775781818a031215614f1c5760008081fd5b614f24613c47565b8151614f2f81613d44565b815281860151614f3e816143ab565b8187015260408281015190820152606080830151908201526080808301519082015260a080830151908201528452928401928101614f04565b600060208284031215614f8957600080fd5b81516001600160401b03811115614f9f57600080fd5b612b2784828501614ec0565b85815284602082015283604082015260a060608201526000614fd060a08301856142be565b8281036080840152614fe281856142be565b98975050505050505050565b8051613b7f81613b66565b600080600080600080600060e0888a03121561501457600080fd5b875161501f81613d24565b602089015190975061503081613d44565b955061503e60408901614aad565b945061504c60608901614aad565b935061505a60808901614aad565b925060a088015160ff8116811461507057600080fd5b60c089015190925061508181613b66565b8091505092959891949750929550565b600080604083850312156150a457600080fd5b82516150af81613d44565b60208401519092506140a681613d44565b6150f682825180518252602081015160208301526040810151604083015260608101516060830152608081015160808301525050565b602081015160a0830152604081015160c0830152606081015160e083015261ffff60808201511661010083015260a081015161012083015260c08101516101408301525050565b60006102e061514c838a614c23565b61012061515b8185018a613e1f565b615169610220850189614a42565b8161028085015261518582850188516001600160a01b03169052565b602087015161519a61030086018260020b9052565b50604087015161032085015260608701516001600160a01b039081166103408601526080880151600290810b61036087015260a0890151810b61038087015260c0890151900b6103a086015260e0880151166103c08501526101008701516103e08501528601516104008401526101408601516104208401526101608601516152276104408501826150c0565b50610180860151816105a08501526152436105c08501826142be565b9250505061525d6102a08301856001600160a01b03169052565b6001600160a01b0383166102c0830152979650505050505050565b6000610100828403121561528b57600080fd5b615293613c8c565b9050815181526020820151602082015260408201516040820152606082015160608201526080820151608082015260a082015160a082015260c082015160c082015260e082015160e082015292915050565b6000806101208084860312156152fa57600080fd5b6153048585615278565b9250610100808501516001600160401b038082111561532257600080fd5b908601906102e0828903121561533757600080fd5b61533f613cd1565b61534883614a97565b815261535660208401614aa2565b60208201526040830151604082015261537160608401614a97565b606082015261538260808401614aa2565b608082015261539360a08401614aa2565b60a08201526153a460c08401614aa2565b60c08201526153b560e08401614a97565b60e0820152838301518482015284830151858201526101409450848301518582015261016094506153e889868501614abf565b858201526102c083015194508185111561540157600080fd5b61540d89868501614ec0565b61018082015280955050505050509250929050565b60006102e08083526154368184018a6142be565b9150506154466020830188614c23565b615454610140830187613e1f565b615462610240830186614a42565b6102a08201939093526001600160a01b03919091166102c090910152949350505050565b6000610100828403121561549957600080fd5b611ba48383615278565b60208082526006908201526510b7bbb732b960d11b604082015260600190565b60608101612a2182846145fa565b6000602082840312156154e357600080fd5b8151611ba481613b66565b6000610140825184526020830151602085015260408301516040850152606083015160608501526080830151615528608086018215159052565b5060a083015160a085015260c083015161554d60c08601826001600160a01b03169052565b5060e08301518160e086015261556582860182614782565b9150506101008084015161557d8287018260020b9052565b5050610120808401516155948287018260020b9052565b5090949350505050565b60006101806155ad8386614d10565b80610160840152612929818401856154ee565b600082601f8301126155d157600080fd5b81516155df6143518261430b565b8181528460208386010111156155f457600080fd5b612b2782602083016020870161475e565b6000610140828403121561561857600080fd5b615620613c69565b90508151815260208201516020820152604082015160408201526060820151606082015261565060808301614fee565b608082015260a082015160a082015261566b60c08301614a97565b60c082015260e08201516001600160401b0381111561568957600080fd5b615695848285016155c0565b60e0830152506101006156a9818401614aa2565b908201526101206156bb838201614aa2565b9082015292915050565b600080604083850312156156d857600080fd5b8251915060208301516001600160401b038111156156f557600080fd5b61498c85828601615605565b61570b8187614a42565b60e06060820152600061572160e08301876154ee565b828103608084015261573381876142be565b6001600160a01b0395861660a08501529390941660c09092019190915250949350505050565b6000806000806080858703121561576f57600080fd5b845193506020850151925060408501516001600160401b038082111561579457600080fd5b6157a088838901615605565b935060608701519150808211156157b657600080fd5b506157c387828801614ec0565b91505092959194509250565b6001600160a01b03868116825285166020820152600284900b604082015261012060608201819052600090615806838201866142be565b915050613872608083018480518252602081015160208301526040810151604083015260608101516060830152608081015160808301525050565b60608152600061585460608301866142be565b93151560208301525060029190910b604090910152919050565b60006020828403121561588057600080fd5b5051919050565b60408152600061589a60408301856142be565b828103602084015261292981856142be565b60006101208083526158c08184018b6154ee565b9150506158d06020830189614a42565b608082019690965260029490940b60a08501526001600160a01b0392831660c0850152911660e08301526101009091015292915050565b6000806040838503121561591a57600080fd5b505080516020909101519092909150565b6000600160ff1b820161594057615940614bd6565b5060000390565b85815260a06020820152600061596060a08301876154ee565b828103604084015261597281876142be565b60608401959095525050608001529392505050565b600281810b9083900b01627fffff8113627fffff1982121715612a2157612a21614bd6565b634e487b7160e01b600052603260045260246000fd5b6000808335601e198436030181126159d957600080fd5b8301803591506001600160401b038211156159f357600080fd5b602001915036819003821315615a0857600080fd5b9250929050565b600060018201615a2157615a21614bd6565b5060010190565b80820180821115612a2157612a21614bd6565b6001600160a01b038781168252861660208201528415156040820152600284900b60608201526000610140615a9e608084018680518252602081015160208301526040810151604083015260608101516060830152608081015160808301525050565b806101208401526116b0818401856142be565b600080600060608486031215615ac657600080fd5b83516001600160401b03811115615adc57600080fd5b615ae886828701614ec0565b93505060208401519150604084015190509250925092565b600060208284031215615b1257600080fd5b8151611ba481613d24565b6000610120615b2c838b6145fa565b6001600160a01b038916606084015260808301819052615b4e818401896142be565b96151560a0840152505060c081019390935260e0830191909152610100909101529392505050565b60008251615b8881846020870161475e565b9190910192915050565b602081526000611ba4602083018461478256fe416464726573733a206c6f772d6c6576656c2064656c65676174652063616c6c206661696c6564a2646970667358221220150147cade3ffb48ce9f23eff536d94b942721f305468ca881df2ec38a5a444264736f6c63430008150033",
    "linkReferences": {
      "src/MarginPositionHelper.sol": {
        "MarginPositionHelper": [
          {
            "start": 2311,
            "length": 20
          },
          {
            "start": 3472,
            "length": 20
          },
          {
            "start": 4100,
            "length": 20
          },
          {
            "start": 4380,
            "length": 20
          },
          {
            "start": 4568,
            "length": 20
          },
          {
            "start": 7722,
            "length": 20
          },
          {
            "start": 8132,
            "length": 20
          },
          {
            "start": 9146,
            "length": 20
          },
          {
            "start": 9334,
            "length": 20
          }
        ]
      },
      "src/PremiumComputer.sol": {
        "PremiumComputer": [
          {
            "start": 8309,
            "length": 20
          },
          {
            "start": 12540,
            "length": 20
          }
        ]
      },
      "src/Util.sol": {
        "Utils": [
          {
            "start": 3136,
            "length": 20
          },
          {
            "start": 3918,
            "length": 20
          },
          {
            "start": 8459,
            "length": 20
          },
          {
            "start": 8924,
            "length": 20
          },
          {
            "start": 12854,
            "length": 20
          }
        ]
      }
    }
  },
  "methodIdentifiers": {
    "PremiumDeposit(bytes32)": "5d4936ff",
    "addPosition((address,address,uint24),(uint256,uint256,uint256,uint256,bool,uint256,address,bytes,int24,int24),(int24,uint128,uint256,uint256,uint256,uint256)[])": "8be8efa2",
    "approveTokens(address,address)": "3eb4adab",
    "canForceClose(((address,bool,uint256,uint256,uint256,uint32,uint32,(int24,uint128,uint256,uint256,uint256,uint256)[]),uint256,uint256))": "afbc39eb",
    "canForceClose((address,address,uint24),((address,bool,uint256,uint256,uint256,uint32,uint32,(int24,uint128,uint256,uint256,uint256,uint256)[]),uint256,uint256))": "bc06b008",
    "cancelOrder(address,bool,bool)": "28ec7232",
    "checkPositionExists(address,address,bool)": "f2edf95a",
    "checkPremiumCondition(address,address,bool,uint256)": "20a672a2",
    "depositPremium((address,address,uint24),address,bool,uint256)": "dbe5f6cb",
    "forceClose((address,address,uint24),(address,bool,uint256,int24,int24))": "5277a324",
    "getBorrowInfo(address,address,bool)": "657b5a4b",
    "getOrderId(address,address,bool,bool)": "bfd4c2a5",
    "getPosition(address,address,bool)": "8c1395f8",
    "getPositionId(address,address,bool)": "f6f0ea89",
    "maxWithdrawablePremium((address,address,uint24),address,bool)": "2be197cf",
    "maxWithdrawablePremium(bytes32)": "86dacdb0",
    "multicall(bytes[])": "ac9650d8",
    "orders(bytes32)": "9c3f1e90",
    "payPremium((address,address,uint24),bool,uint256)": "de074f10",
    "positions(bytes32)": "514ea4bf",
    "rangeConditions(bool,int24,int24,int24,int24)": "a36b9168",
    "reducePosition((address,address,uint24),(bool,uint256,uint256,address,uint256,bytes32,int24,int24,uint256))": "0a2c5e29",
    "setAddPaused(bool)": "1fda89ef",
    "setForceClosePaused(bool)": "d42a397c",
    "setOwner(address)": "13af4035",
    "setReducePaused(bool)": "89a1c073",
    "submitOrder(address,bool,bool,uint256,uint256,uint256,uint256,uint256,uint256)": "228e062a",
    "withdrawPremium((address,address,uint24),bool,uint256)": "025df9e4"
  },
  "id": 39
}