{
  "abi": [
    {
      "inputs": [
        {
          "internalType": "address",
          "name": "pm",
          "type": "address"
        },
        {
          "internalType": "address",
          "name": "ex",
          "type": "address"
        },
        {
          "internalType": "address",
          "name": "uniswapFactory",
          "type": "address"
        }
      ],
      "stateMutability": "nonpayable",
      "type": "constructor"
    },
    {
      "inputs": [],
      "name": "T",
      "type": "error"
    },
    {
      "inputs": [
        {
          "internalType": "PositionId",
          "name": "",
          "type": "bytes32"
        }
      ],
      "name": "PremiumDeposit",
      "outputs": [
        {
          "internalType": "uint256",
          "name": "",
          "type": "uint256"
        }
      ],
      "stateMutability": "view",
      "type": "function"
    },
    {
      "inputs": [
        {
          "components": [
            {
              "internalType": "address",
              "name": "token0",
              "type": "address"
            },
            {
              "internalType": "address",
              "name": "token1",
              "type": "address"
            },
            {
              "internalType": "uint24",
              "name": "fee",
              "type": "uint24"
            }
          ],
          "internalType": "struct PoolKey",
          "name": "key",
          "type": "tuple"
        },
        {
          "components": [
            {
              "internalType": "uint256",
              "name": "margin",
              "type": "uint256"
            },
            {
              "internalType": "uint256",
              "name": "maxSlippage",
              "type": "uint256"
            },
            {
              "internalType": "uint256",
              "name": "minEstimatedSlippage",
              "type": "uint256"
            },
            {
              "internalType": "uint256",
              "name": "borrowAmount",
              "type": "uint256"
            },
            {
              "internalType": "bool",
              "name": "positionIsToken0",
              "type": "bool"
            },
            {
              "internalType": "uint256",
              "name": "executionOption",
              "type": "uint256"
            },
            {
              "internalType": "address",
              "name": "trader",
              "type": "address"
            },
            {
              "internalType": "uint256",
              "name": "minOutput",
              "type": "uint256"
            },
            {
              "internalType": "uint256",
              "name": "deadline",
              "type": "uint256"
            }
          ],
          "internalType": "struct AddParams",
          "name": "param",
          "type": "tuple"
        },
        {
          "components": [
            {
              "internalType": "int24",
              "name": "tick",
              "type": "int24"
            },
            {
              "internalType": "uint128",
              "name": "liquidity",
              "type": "uint128"
            },
            {
              "internalType": "uint256",
              "name": "premium",
              "type": "uint256"
            },
            {
              "internalType": "uint256",
              "name": "Urate",
              "type": "uint256"
            },
            {
              "internalType": "uint256",
              "name": "feeGrowthInside0LastX128",
              "type": "uint256"
            },
            {
              "internalType": "uint256",
              "name": "feeGrowthInside1LastX128",
              "type": "uint256"
            },
            {
              "internalType": "uint256",
              "name": "lastGrowth",
              "type": "uint256"
            }
          ],
          "internalType": "struct LiquidityLoan[]",
          "name": "borrowInfo",
          "type": "tuple[]"
        }
      ],
      "name": "addPosition",
      "outputs": [
        {
          "components": [
            {
              "components": [
                {
                  "internalType": "address",
                  "name": "pool",
                  "type": "address"
                },
                {
                  "internalType": "bool",
                  "name": "underAuction",
                  "type": "bool"
                },
                {
                  "internalType": "bool",
                  "name": "isToken0",
                  "type": "bool"
                },
                {
                  "internalType": "uint256",
                  "name": "totalDebtOutput",
                  "type": "uint256"
                },
                {
                  "internalType": "uint256",
                  "name": "totalDebtInput",
                  "type": "uint256"
                },
                {
                  "internalType": "uint256",
                  "name": "recentPremium",
                  "type": "uint256"
                },
                {
                  "internalType": "uint32",
                  "name": "openTime",
                  "type": "uint32"
                },
                {
                  "internalType": "uint32",
                  "name": "repayTime",
                  "type": "uint32"
                },
                {
                  "components": [
                    {
                      "internalType": "int24",
                      "name": "tick",
                      "type": "int24"
                    },
                    {
                      "internalType": "uint128",
                      "name": "liquidity",
                      "type": "uint128"
                    },
                    {
                      "internalType": "uint256",
                      "name": "premium",
                      "type": "uint256"
                    },
                    {
                      "internalType": "uint256",
                      "name": "Urate",
                      "type": "uint256"
                    },
                    {
                      "internalType": "uint256",
                      "name": "feeGrowthInside0LastX128",
                      "type": "uint256"
                    },
                    {
                      "internalType": "uint256",
                      "name": "feeGrowthInside1LastX128",
                      "type": "uint256"
                    },
                    {
                      "internalType": "uint256",
                      "name": "lastGrowth",
                      "type": "uint256"
                    }
                  ],
                  "internalType": "struct LiquidityLoan[]",
                  "name": "borrowInfo",
                  "type": "tuple[]"
                }
              ],
              "internalType": "struct Position",
              "name": "base",
              "type": "tuple"
            },
            {
              "internalType": "uint256",
              "name": "totalPosition",
              "type": "uint256"
            },
            {
              "internalType": "uint256",
              "name": "margin",
              "type": "uint256"
            }
          ],
          "internalType": "struct MarginPosition",
          "name": "",
          "type": "tuple"
        },
        {
          "internalType": "uint256",
          "name": "",
          "type": "uint256"
        }
      ],
      "stateMutability": "nonpayable",
      "type": "function"
    },
    {
      "inputs": [
        {
          "internalType": "address",
          "name": "token0",
          "type": "address"
        },
        {
          "internalType": "address",
          "name": "token1",
          "type": "address"
        }
      ],
      "name": "approveTokens",
      "outputs": [],
      "stateMutability": "nonpayable",
      "type": "function"
    },
    {
      "inputs": [
        {
          "components": [
            {
              "components": [
                {
                  "internalType": "address",
                  "name": "pool",
                  "type": "address"
                },
                {
                  "internalType": "bool",
                  "name": "underAuction",
                  "type": "bool"
                },
                {
                  "internalType": "bool",
                  "name": "isToken0",
                  "type": "bool"
                },
                {
                  "internalType": "uint256",
                  "name": "totalDebtOutput",
                  "type": "uint256"
                },
                {
                  "internalType": "uint256",
                  "name": "totalDebtInput",
                  "type": "uint256"
                },
                {
                  "internalType": "uint256",
                  "name": "recentPremium",
                  "type": "uint256"
                },
                {
                  "internalType": "uint32",
                  "name": "openTime",
                  "type": "uint32"
                },
                {
                  "internalType": "uint32",
                  "name": "repayTime",
                  "type": "uint32"
                },
                {
                  "components": [
                    {
                      "internalType": "int24",
                      "name": "tick",
                      "type": "int24"
                    },
                    {
                      "internalType": "uint128",
                      "name": "liquidity",
                      "type": "uint128"
                    },
                    {
                      "internalType": "uint256",
                      "name": "premium",
                      "type": "uint256"
                    },
                    {
                      "internalType": "uint256",
                      "name": "Urate",
                      "type": "uint256"
                    },
                    {
                      "internalType": "uint256",
                      "name": "feeGrowthInside0LastX128",
                      "type": "uint256"
                    },
                    {
                      "internalType": "uint256",
                      "name": "feeGrowthInside1LastX128",
                      "type": "uint256"
                    },
                    {
                      "internalType": "uint256",
                      "name": "lastGrowth",
                      "type": "uint256"
                    }
                  ],
                  "internalType": "struct LiquidityLoan[]",
                  "name": "borrowInfo",
                  "type": "tuple[]"
                }
              ],
              "internalType": "struct Position",
              "name": "base",
              "type": "tuple"
            },
            {
              "internalType": "uint256",
              "name": "totalPosition",
              "type": "uint256"
            },
            {
              "internalType": "uint256",
              "name": "margin",
              "type": "uint256"
            }
          ],
          "internalType": "struct MarginPosition",
          "name": "position",
          "type": "tuple"
        }
      ],
      "name": "canForceClose",
      "outputs": [
        {
          "internalType": "bool",
          "name": "",
          "type": "bool"
        }
      ],
      "stateMutability": "view",
      "type": "function"
    },
    {
      "inputs": [
        {
          "components": [
            {
              "internalType": "address",
              "name": "token0",
              "type": "address"
            },
            {
              "internalType": "address",
              "name": "token1",
              "type": "address"
            },
            {
              "internalType": "uint24",
              "name": "fee",
              "type": "uint24"
            }
          ],
          "internalType": "struct PoolKey",
          "name": "key",
          "type": "tuple"
        },
        {
          "internalType": "address",
          "name": "trader",
          "type": "address"
        },
        {
          "internalType": "bool",
          "name": "isToken0",
          "type": "bool"
        },
        {
          "internalType": "uint256",
          "name": "amount",
          "type": "uint256"
        }
      ],
      "name": "depositPremium",
      "outputs": [],
      "stateMutability": "nonpayable",
      "type": "function"
    },
    {
      "inputs": [
        {
          "internalType": "address",
          "name": "pool",
          "type": "address"
        },
        {
          "internalType": "address",
          "name": "trader",
          "type": "address"
        },
        {
          "internalType": "bool",
          "name": "positionIsToken0",
          "type": "bool"
        }
      ],
      "name": "getPosition",
      "outputs": [
        {
          "components": [
            {
              "components": [
                {
                  "internalType": "address",
                  "name": "pool",
                  "type": "address"
                },
                {
                  "internalType": "bool",
                  "name": "underAuction",
                  "type": "bool"
                },
                {
                  "internalType": "bool",
                  "name": "isToken0",
                  "type": "bool"
                },
                {
                  "internalType": "uint256",
                  "name": "totalDebtOutput",
                  "type": "uint256"
                },
                {
                  "internalType": "uint256",
                  "name": "totalDebtInput",
                  "type": "uint256"
                },
                {
                  "internalType": "uint256",
                  "name": "recentPremium",
                  "type": "uint256"
                },
                {
                  "internalType": "uint32",
                  "name": "openTime",
                  "type": "uint32"
                },
                {
                  "internalType": "uint32",
                  "name": "repayTime",
                  "type": "uint32"
                },
                {
                  "components": [
                    {
                      "internalType": "int24",
                      "name": "tick",
                      "type": "int24"
                    },
                    {
                      "internalType": "uint128",
                      "name": "liquidity",
                      "type": "uint128"
                    },
                    {
                      "internalType": "uint256",
                      "name": "premium",
                      "type": "uint256"
                    },
                    {
                      "internalType": "uint256",
                      "name": "Urate",
                      "type": "uint256"
                    },
                    {
                      "internalType": "uint256",
                      "name": "feeGrowthInside0LastX128",
                      "type": "uint256"
                    },
                    {
                      "internalType": "uint256",
                      "name": "feeGrowthInside1LastX128",
                      "type": "uint256"
                    },
                    {
                      "internalType": "uint256",
                      "name": "lastGrowth",
                      "type": "uint256"
                    }
                  ],
                  "internalType": "struct LiquidityLoan[]",
                  "name": "borrowInfo",
                  "type": "tuple[]"
                }
              ],
              "internalType": "struct Position",
              "name": "base",
              "type": "tuple"
            },
            {
              "internalType": "uint256",
              "name": "totalPosition",
              "type": "uint256"
            },
            {
              "internalType": "uint256",
              "name": "margin",
              "type": "uint256"
            }
          ],
          "internalType": "struct MarginPosition",
          "name": "",
          "type": "tuple"
        }
      ],
      "stateMutability": "view",
      "type": "function"
    },
    {
      "inputs": [
        {
          "internalType": "PositionId",
          "name": "id",
          "type": "bytes32"
        }
      ],
      "name": "maxWithdrawablePremium",
      "outputs": [
        {
          "internalType": "uint256",
          "name": "",
          "type": "uint256"
        }
      ],
      "stateMutability": "view",
      "type": "function"
    },
    {
      "inputs": [
        {
          "internalType": "bytes[]",
          "name": "data",
          "type": "bytes[]"
        }
      ],
      "name": "multicall",
      "outputs": [
        {
          "internalType": "bytes[]",
          "name": "results",
          "type": "bytes[]"
        }
      ],
      "stateMutability": "nonpayable",
      "type": "function"
    },
    {
      "inputs": [
        {
          "components": [
            {
              "internalType": "address",
              "name": "token0",
              "type": "address"
            },
            {
              "internalType": "address",
              "name": "token1",
              "type": "address"
            },
            {
              "internalType": "uint24",
              "name": "fee",
              "type": "uint24"
            }
          ],
          "internalType": "struct PoolKey",
          "name": "key",
          "type": "tuple"
        },
        {
          "internalType": "address",
          "name": "trader",
          "type": "address"
        },
        {
          "internalType": "bool",
          "name": "positionIsToken0",
          "type": "bool"
        }
      ],
      "name": "payPremium",
      "outputs": [
        {
          "internalType": "uint256",
          "name": "premiumOwed",
          "type": "uint256"
        }
      ],
      "stateMutability": "nonpayable",
      "type": "function"
    },
    {
      "inputs": [
        {
          "internalType": "PositionId",
          "name": "",
          "type": "bytes32"
        }
      ],
      "name": "positions",
      "outputs": [
        {
          "components": [
            {
              "internalType": "address",
              "name": "pool",
              "type": "address"
            },
            {
              "internalType": "bool",
              "name": "underAuction",
              "type": "bool"
            },
            {
              "internalType": "bool",
              "name": "isToken0",
              "type": "bool"
            },
            {
              "internalType": "uint256",
              "name": "totalDebtOutput",
              "type": "uint256"
            },
            {
              "internalType": "uint256",
              "name": "totalDebtInput",
              "type": "uint256"
            },
            {
              "internalType": "uint256",
              "name": "recentPremium",
              "type": "uint256"
            },
            {
              "internalType": "uint32",
              "name": "openTime",
              "type": "uint32"
            },
            {
              "internalType": "uint32",
              "name": "repayTime",
              "type": "uint32"
            },
            {
              "components": [
                {
                  "internalType": "int24",
                  "name": "tick",
                  "type": "int24"
                },
                {
                  "internalType": "uint128",
                  "name": "liquidity",
                  "type": "uint128"
                },
                {
                  "internalType": "uint256",
                  "name": "premium",
                  "type": "uint256"
                },
                {
                  "internalType": "uint256",
                  "name": "Urate",
                  "type": "uint256"
                },
                {
                  "internalType": "uint256",
                  "name": "feeGrowthInside0LastX128",
                  "type": "uint256"
                },
                {
                  "internalType": "uint256",
                  "name": "feeGrowthInside1LastX128",
                  "type": "uint256"
                },
                {
                  "internalType": "uint256",
                  "name": "lastGrowth",
                  "type": "uint256"
                }
              ],
              "internalType": "struct LiquidityLoan[]",
              "name": "borrowInfo",
              "type": "tuple[]"
            }
          ],
          "internalType": "struct Position",
          "name": "base",
          "type": "tuple"
        },
        {
          "internalType": "uint256",
          "name": "totalPosition",
          "type": "uint256"
        },
        {
          "internalType": "uint256",
          "name": "margin",
          "type": "uint256"
        }
      ],
      "stateMutability": "view",
      "type": "function"
    },
    {
      "inputs": [
        {
          "components": [
            {
              "internalType": "address",
              "name": "token0",
              "type": "address"
            },
            {
              "internalType": "address",
              "name": "token1",
              "type": "address"
            },
            {
              "internalType": "uint24",
              "name": "fee",
              "type": "uint24"
            }
          ],
          "internalType": "struct PoolKey",
          "name": "key",
          "type": "tuple"
        },
        {
          "components": [
            {
              "internalType": "bool",
              "name": "positionIsToken0",
              "type": "bool"
            },
            {
              "internalType": "uint256",
              "name": "reducePercentage",
              "type": "uint256"
            },
            {
              "internalType": "uint256",
              "name": "reduceAmount",
              "type": "uint256"
            },
            {
              "internalType": "uint256",
              "name": "maxSlippage",
              "type": "uint256"
            },
            {
              "internalType": "address",
              "name": "trader",
              "type": "address"
            },
            {
              "internalType": "uint256",
              "name": "executionOption",
              "type": "uint256"
            },
            {
              "internalType": "bytes32",
              "name": "executionData",
              "type": "bytes32"
            },
            {
              "internalType": "uint160",
              "name": "slippedPrice",
              "type": "uint160"
            },
            {
              "internalType": "uint256",
              "name": "deadline",
              "type": "uint256"
            }
          ],
          "internalType": "struct ReduceParam",
          "name": "param",
          "type": "tuple"
        }
      ],
      "name": "reducePosition",
      "outputs": [
        {
          "components": [
            {
              "internalType": "int256",
              "name": "amount0",
              "type": "int256"
            },
            {
              "internalType": "int256",
              "name": "amount1",
              "type": "int256"
            },
            {
              "internalType": "int256",
              "name": "PnL",
              "type": "int256"
            },
            {
              "internalType": "uint256",
              "name": "returnedAmount",
              "type": "uint256"
            },
            {
              "internalType": "uint256",
              "name": "repaidDebt0",
              "type": "uint256"
            },
            {
              "internalType": "uint256",
              "name": "repaidDebt1",
              "type": "uint256"
            },
            {
              "internalType": "uint256",
              "name": "premium",
              "type": "uint256"
            }
          ],
          "internalType": "struct ReduceReturn",
          "name": "",
          "type": "tuple"
        }
      ],
      "stateMutability": "nonpayable",
      "type": "function"
    },
    {
      "inputs": [
        {
          "components": [
            {
              "internalType": "address",
              "name": "token0",
              "type": "address"
            },
            {
              "internalType": "address",
              "name": "token1",
              "type": "address"
            },
            {
              "internalType": "uint24",
              "name": "fee",
              "type": "uint24"
            }
          ],
          "internalType": "struct PoolKey",
          "name": "key",
          "type": "tuple"
        },
        {
          "internalType": "bool",
          "name": "isToken0",
          "type": "bool"
        },
        {
          "internalType": "uint256",
          "name": "amount",
          "type": "uint256"
        }
      ],
      "name": "withdrawPremium",
      "outputs": [],
      "stateMutability": "nonpayable",
      "type": "function"
    }
  ],
  "bytecode": {
    "object": "0x608060405260016000553480156200001657600080fd5b5060405162005e3238038062005e328339810160408190526200003991620000a3565b600180546001600160a01b039485166001600160a01b03199182161790915560028054938516938216939093179092556003805483163317905560048054919093169116179055620000ed565b80516001600160a01b03811681146200009e57600080fd5b919050565b600080600060608486031215620000b957600080fd5b620000c48462000086565b9250620000d46020850162000086565b9150620000e46040850162000086565b90509250925092565b615d3580620000fd6000396000f3fe608060405234801561001057600080fd5b50600436106100b45760003560e01c806386dacdb01161007157806386dacdb0146101b65780638c1395f8146101cb578063ac9650d8146101eb578063d7ae317e1461020b578063dbe5f6cb1461022e578063ee2fc3361461024157600080fd5b8063025df9e4146100b957806326d1281c146100ce5780633eb4adab14610140578063514ea4bf146101535780635d4936ff146101755780637dc8b1a6146101a3575b600080fd5b6100cc6100c736600461499c565b610262565b005b6100e16100dc366004614af3565b6102ff565b6040516101379190600060e082019050825182526020830151602083015260408301516040830152606083015160608301526080830151608083015260a083015160a083015260c083015160c083015292915050565b60405180910390f35b6100cc61014e366004614bad565b61105f565b610166610161366004614be6565b61129e565b60405161013793929190614d33565b610195610183366004614be6565b60066020526000908152604090205481565b604051908152602001610137565b6101956101b1366004614d58565b6113e1565b6101956101c4366004614be6565b5060001990565b6101de6101d9366004614da2565b6117ee565b6040516101379190614e17565b6101fe6101f9366004614e2a565b611991565b6040516101379190614eee565b61021e61021936600461507e565b611a84565b6040519015158152602001610137565b6100cc61023c3660046151a5565b611aaa565b61025461024f3660046151f5565b611bd4565b6040516101379291906152d0565b6004546000906102949061028d906001600160a01b031661028836889003880188615305565b612c5e565b3385612d47565b90506102a4565b60405180910390fd5b600081815260066020526040812080548492906102c290849061536d565b909155506102f99050836102e5576102e06040860160208701615380565b6102f2565b6102f26020860186615380565b3384612d7d565b50505050565b61033f6040518060e00160405280600081526020016000815260200160008152602001600081526020016000815260200160008152602001600081525090565b8161010001518042111561038b5760405162461bcd60e51b8152602060048201526013602482015272151c985b9cd858dd1a5bdb881d1bdbc81bdb19606a1b604482015260640161029b565b61039361466b565b6103d36040518060e00160405280600081526020016000815260200160008152602001600081526020016000815260200160008152602001600081525090565b600154604051639525092360e01b81526001600160a01b03909116906395250923906104039089906004016153e4565b61018060405180830381865afa158015610421573d6000803e3d6000fd5b505050506040513d601f19601f820116820180604052508101906104459190615404565b60408086019190915260029190910b6020808601919091526001600160a01b03909216808552608088015188519251600094600594869461048a9490939092016154e7565b6040516020818303038152906040528051906020012081526020019081526020016000209050600081600601541180156104c8575060008660200151115b80156104e05750670de0b6b3a7640000866020015111155b6105125760405162461bcd60e51b8152602060048201526003602482015262706f7360e81b604482015260640161029b565b604080516101808101825282546001600160a01b0381166060830190815260ff600160a01b8304811615156080850152600160a81b909204909116151560a0830152600184015460c0830152600284015460e08301526003840154610100830152600484015463ffffffff808216610120850152600160201b9091041661014083015260058401805484516020828102820181019096528181526106739589958d95909489948694929386936101608701939092909160009084015b8282101561064f5760008481526020908190206040805160e081018252600686029092018054600281810b855263010000009091046001600160801b03168486015260018083015493850193909352810154606084015260038101546080840152600481015460a08401526005015460c083015290835290920191016105ce565b50505091525050815260068201546020820152600790910154604090910152612df5565b809750819450505082600001516001600160a01b0316633850c7bd6040518163ffffffff1660e01b815260040160e060405180830381865afa1580156106bd573d6000803e3d6000fd5b505050506040513d601f19601f820116820180604052508101906106e1919061551a565b5050505060029190910b60c0860152506001600160a01b031660a08401526040516337a6142160e01b815273__$d23a8dd93b7205fa6b646ffed38c165d68$__906337a6142190610739906005850190600401615633565b6040805180830381865af4158015610755573d6000803e3d6000fd5b505050506040513d601f19601f820116820180604052508101906107799190615646565b600290810b6101008601520b60e084015260a08301516060870151875160405163103d82bb60e11b81526001600160a01b03909316600484015260248301919091521515604482015273__$d23a8dd93b7205fa6b646ffed38c165d68$__9063207b057690606401602060405180830381865af41580156107fe573d6000803e3d6000fd5b505050506040513d601f19601f820116820180604052508101906108229190615675565b6001600160a01b031661012084015285511561088b578560e001516001600160a01b03168360a001516001600160a01b031610156108865760405162461bcd60e51b81526020600482015260016024820152607360f81b604482015260640161029b565b6108d9565b8560e001516001600160a01b03168360a001516001600160a01b031611156108d95760405162461bcd60e51b81526020600482015260016024820152607360f81b604482015260640161029b565b602086015160068201546108f591670de0b6b3a7640000612e4e565b60408701526020860151670de0b6b3a76400001461099657602086015160405163069b8a8b60e31b815273__$d23a8dd93b7205fa6b646ffed38c165d68$__916334dc54589161094c916005860191600401615692565b600060405180830381865af4158015610969573d6000803e3d6000fd5b505050506040513d6000823e601f3d908101601f191682016040526109919190810190615766565b610a3e565b6005810180546040805160208084028201810190925282815292919060009084015b82821015610a395760008481526020908190206040805160e081018252600686029092018054600281810b855263010000009091046001600160801b03168486015260018083015493850193909352810154606084015260038101546080840152600481015460a08401526005015460c083015290835290920191016109b8565b505050505b6102408401528551610a60578260e0015160020b8360c0015160020b12610a83565b8260200151836101000151610a75919061579a565b60020b8360c0015160020b12155b15610a9f57610a998387848a8560070154612f2c565b50610b72565b8551610acc578260200151836101000151610aba919061579a565b60020b8360c0015160020b1215610ade565b8260e0015160020b8360c0015160020b125b15610b0657610b0183610240015187848a85600001600101548660070154613668565b610b72565b606083015160c0015160208701516006830154610b2b91670de0b6b3a7640000612e4e565b14610b615760405162461bcd60e51b815260206004820152600660248201526521706172616d60d01b604482015260640161029b565b610b728387848a8560070154613838565b6060610d466040518061010001604052808a803603810190610b949190615305565b8152604080516101808101825286546001600160a01b0381166060830190815260ff600160a01b8304811615156080850152600160a81b909204909116151560a0830152600188015460c0830152600288015460e08301526003880154610100830152600488015463ffffffff808216610120850152600160201b9091041661014083015260058801805484516020828102820181019096528181529585019593948a94869493869361016087019360009084015b82821015610cca5760008481526020908190206040805160e081018252600686029092018054600281810b855263010000009091046001600160801b03168486015260018083015493850193909352810154606084015260038101546080840152600481015460a08401526005015460c08301529083529092019101610c49565b5050505081525050815260200160068201548152602001600782015481525050815260200186600001516001600160a01b0316815260200189608001516001600160a01b0316815260200189600001511515815260200186604001518152602001866020015160020b8152602001866102200151815250613cd2565b6101a0860182905260c0850191909152600154604051631f71cc1b60e21b81529192506001600160a01b031690637dc7306c90610d89908b9085906004016157f9565b600060405180830381865afa158015610da6573d6000803e3d6000fd5b505050506040513d6000823e601f3d908101601f19168201604052610dce9190810190615766565b9050816006015487604001511015610faa57604087015160068301805491909103905560208701516002830154610e1191670de0b6b3a764000090810390612e4e565b600283015560208701516001830154610e3691670de0b6b3a764000090810390612e4e565b600183015560208701516007830154610e5b91670de0b6b3a764000090810390612e4e565b6007830155815460ff60a01b1916825560005b8151811015610fa4578461024001518181518110610e8e57610e8e615819565b602002602001015160200151828281518110610eac57610eac615819565b60200260200101516020015103828281518110610ecb57610ecb615819565b6020026020010151602001906001600160801b031690816001600160801b031681525050818181518110610f0157610f01615819565b6020026020010151836000016005018281548110610f2157610f21615819565b600091825260209182902083516006909202018054928401516001600160801b03166301000000026001600160981b031990931662ffffff909216919091179190911781556040820151600180830191909155606083015160028301556080830151600383015560a0830151600483015560c09092015160059091015501610e6e565b50611051565b60056000856000015189608001518a60000151604051602001610fcf939291906154e7565b60408051601f19818403018152918152815160209283012083529082019290925201600090812080546001600160b01b031916815560018101829055600281018290556003810182905560048101805467ffffffffffffffff1916905590818161103c6005830182614725565b50506006820160009055600782016000905550505b5090935050505b5092915050565b6001546001600160a01b031633148061108257506002546001600160a01b031633145b6110b65760405162461bcd60e51b8152602060048201526005602482015264042c2eae8d60db1b604482015260640161029b565b60015460405163095ea7b360e01b81526001600160a01b03918216600482015260001960248201529083169063095ea7b3906044016020604051808303816000875af115801561110a573d6000803e3d6000fd5b505050506040513d601f19601f8201168201806040525081019061112e919061582f565b5060015460405163095ea7b360e01b81526001600160a01b03918216600482015260001960248201529082169063095ea7b3906044016020604051808303816000875af1158015611183573d6000803e3d6000fd5b505050506040513d601f19601f820116820180604052508101906111a7919061582f565b5060025460405163095ea7b360e01b81526001600160a01b03918216600482015260001960248201529083169063095ea7b3906044016020604051808303816000875af11580156111fc573d6000803e3d6000fd5b505050506040513d601f19601f82011682018060405250810190611220919061582f565b5060025460405163095ea7b360e01b81526001600160a01b03918216600482015260001960248201529082169063095ea7b3906044016020604051808303816000875af1158015611275573d6000803e3d6000fd5b505050506040513d601f19601f82011682018060405250810190611299919061582f565b505050565b600560208181526000928352604080842081516101208101835281546001600160a01b038116825260ff600160a01b82048116151583870152600160a81b909104161515818401526001820154606082015260028201546080820152600382015460a0820152600482015463ffffffff80821660c0840152600160201b9091041660e082015293810180548351818602810186019094528084529195869461010087019493919084015b828210156113c95760008481526020908190206040805160e081018252600686029092018054600281810b855263010000009091046001600160801b03168486015260018083015493850193909352810154606084015260038101546080840152600481015460a08401526005015460c08301529083529092019101611348565b50505091525050600682015460079092015490919083565b600154604051639525092360e01b81526000918291829182916001600160a01b039091169063952509239061141a908a906004016153e4565b61018060405180830381865afa158015611438573d6000803e3d6000fd5b505050506040513d601f19601f8201168201806040525081019061145c9190615404565b92509250925060006005600085898960405160200161147d939291906154e7565b60408051808303601f19018152918152815160209283012083529082019290925201600020600481015490915062015180906114c690600160201b900463ffffffff164261536d565b10156114fc5760405162461bcd60e51b81526020600482015260056024820152642174696d6560d81b604482015260640161029b565b60606116b86040518061010001604052808b80360381019061151e9190615305565b8152604080516101808101825286546001600160a01b0381166060830190815260ff600160a01b8304811615156080850152600160a81b909204909116151560a0830152600188015460c0830152600288015460e08301526003880154610100830152600488015463ffffffff808216610120850152600160201b9091041661014083015260058801805484516020828102820181019096528181529585019593948a94869493869361016087019360009084015b828210156116545760008481526020908190206040805160e081018252600686029092018054600281810b855263010000009091046001600160801b03168486015260018083015493850193909352810154606084015260038101546080840152600481015460a08401526005015460c083015290835290920191016115d3565b50505050815250508152602001600682015481526020016007820154815250508152602001876001600160a01b031681526020018a6001600160a01b0316815260200189151581526020018581526020018660020b81526020016000815250613cd2565b60048401805467ffffffff000000001916600160201b4263ffffffff160217905590965090506116ec600583016000614725565b60005b81518110156117e157600082828151811061170c5761170c615819565b6020026020010151602001516001600160801b031611156117cf578260000160050182828151811061174057611740615819565b60209081029190910181015182546001818101855560009485529383902082516006909202018054938301516001600160801b03166301000000026001600160981b031990941662ffffff90921691909117929092178255604081015192820192909255606082015160028201556080820151600382015560a0820151600482015560c0909101516005909101555b806117d98161584c565b9150506116ef565b5050505050509392505050565b6117f6614749565b6005600085858560405160200161180f939291906154e7565b60408051601f198184030181529181528151602092830120835282820193909352908201600090812083516101808101855281546001600160a01b0381166060830190815260ff600160a01b8304811615156080850152600160a81b909204909116151560a0830152600183015460c0830152600283015460e08301526003830154610100830152600483015463ffffffff808216610120850152600160201b909104166101408301526005830180548751818802810188019098528088529296939587959294879461016088019491939290919084015b828210156119685760008481526020908190206040805160e081018252600686029092018054600281810b855263010000009091046001600160801b03168486015260018083015493850193909352810154606084015260038101546080840152600481015460a08401526005015460c083015290835290920191016118e7565b5050509152505081526006820154602082015260079091015460409091015290505b9392505050565b6060816001600160401b038111156119ab576119ab6149dc565b6040519080825280602002602001820160405280156119de57816020015b60608152602001906001900390816119c95790505b50905060005b8281101561105857611a4e30858584818110611a0257611a02615819565b9050602002810190611a149190615865565b8080601f01602080910402602001604051908101604052809392919081815260200183838082843760009201919091525061410f92505050565b828281518110611a6057611a60615819565b60200260200101819052508080611a769061584c565b9150506119e4565b92915050565b805160e001516000906202a30090611aa29063ffffffff164261536d565b101592915050565b6001546000906001600160a01b0316631698ee82611acb6020880188615380565b611adb6040890160208a01615380565b611aeb60608a0160408b016158ab565b6040516001600160e01b031960e086901b1681526001600160a01b03938416600482015292909116602483015262ffffff166044820152606401602060405180830381865afa158015611b42573d6000803e3d6000fd5b505050506040513d601f19601f82011682018060405250810190611b669190615675565b90508160066000611b78848888612d47565b81526020019081526020016000206000828254611b9591906158c6565b90915550611bcd905083611bb557611bb06020870187615380565b611bc5565b611bc56040870160208801615380565b333085614134565b5050505050565b611bdc614749565b600083610100015180421115611c2a5760405162461bcd60e51b8152602060048201526013602482015272151c985b9cd858dd1a5bdb881d1bdbc81bdb19606a1b604482015260640161029b565b611c326147b0565b600154604051639525092360e01b81526001600160a01b0390911690639525092390611c62908a906004016153e4565b61018060405180830381865afa158015611c80573d6000803e3d6000fd5b505050506040513d601f19601f82011682018060405250810190611ca49190615404565b6101a084015260020b6101208301526001600160a01b03166060820152611ccb81876141b7565b809750819250505060006005600083606001518960c001518a60800151604051602001611cfa939291906154e7565b60405160208183030381529060405280519060200120815260200190815260200160002090508551600003611ded576001548751606089015160808a01516040808c0151905162ea50f560e41b81526001600160a01b0390951694630ea50f5094611d6d948f94919390926004016158d9565b6000604051808303816000875af1158015611d8c573d6000803e3d6000fd5b505050506040513d6000823e601f3d908101601f19168201604052611db4919081019061590a565b60e08701929092525060c085019190915260808901519097509050611ddd578160c00151611de3565b8160e001515b6060880152611f28565b60015460405163aa966e5560e01b81526001600160a01b039091169063aa966e5590611e1f908b908a906004016157f9565b6000604051808303816000875af1158015611e3e573d6000803e3d6000fd5b505050506040513d6000823e601f3d908101601f19168201604052611e669190810190615978565b60e085015260c0808501919091528801519096506001600160a01b03163314611f0957611eb8611ea4670de0b6b3a7640000655af3107a40006158c6565b606089015190670de0b6b3a7640000612e4e565b8760800151611ecb578260c00151611ed1565b8260e001515b1115611f095760405162461bcd60e51b815260206004820152600760248201526621626f72726f7760c81b604482015260640161029b565b8660800151611f1c578160c00151611f22565b8160e001515b60608801525b8660800151611f4c5760008260c00151118015611f47575060e0820151155b611f62565b60008260e00151118015611f62575060c0820151155b611f9f5760405162461bcd60e51b815260206004820152600e60248201526d1ddc9bdb99c8189bdc9c9bddd95960921b604482015260640161029b565b8660800151611fba57611fb56020890189615380565b611fca565b611fca6040890160208a01615380565b60c088015188516040516323b872dd60e01b81526001600160a01b03928316600482015230602482015260448101919091529116906323b872dd906064016020604051808303816000875af1158015612027573d6000803e3d6000fd5b505050506040513d601f19601f8201168201806040525081019061204b919061582f565b508660a0015160010361223b5781606001516001600160a01b0316633850c7bd6040518163ffffffff1660e01b815260040160e060405180830381865afa15801561209a573d6000803e3d6000fd5b505050506040513d601f19601f820116820180604052508101906120be919061551a565b505050506001600160a01b0392909216610140850181905260208a015160808b015160405163103d82bb60e11b81526004810193909352602483019190915215604482015273__$d23a8dd93b7205fa6b646ffed38c165d68$__925063207b05769150606401602060405180830381865af4158015612141573d6000803e3d6000fd5b505050506040513d601f19601f820116820180604052508101906121659190615675565b6001600160a01b0390811661016084015260025460608085015160808b0151918b01518b51939094169363c90050de93919215916121a391906158c6565b6101608701516121b660208f018f615380565b8e60200160208101906121c99190615380565b6040518763ffffffff1660e01b81526004016121ea969594939291906159c7565b60408051808303816000875af1158015612208573d6000803e3d6000fd5b505050506040513d601f19601f8201168201806040525081019061222c9190615a01565b60a0840152608083015261232c565b60a087015160021461232c578660a0015160030361232c578651606088015161226491906158c6565b825160c09081019190915260025460808901516020808601518651909401516001600160a01b039093169363e76001cc933393926122a4908f018f615380565b8e60200160208101906122b79190615380565b8961018001516040518863ffffffff1660e01b81526004016122df9796959493929190615a25565b60408051808303816000875af11580156122fd573d6000803e3d6000fd5b505050506040513d601f19601f820116820180604052508101906123219190615a01565b60a084015260808301525b60808701516101208301516040516341533fe760e01b815273__$d23a8dd93b7205fa6b646ffed38c165d68$__926341533fe792612370928b929190600401615a67565b602060405180830381865af415801561238d573d6000803e3d6000fd5b505050506040513d601f19601f820116820180604052508101906123b19190615a94565b6040830181905260808801516123d4578260a001516123cf90615aad565b6123e2565b82608001516123e290615aad565b101561241c5760405162461bcd60e51b815260206004820152600960248201526821617667507269636560b81b604482015260640161029b565b8660e00151876080015161243d578260a0015161243890615aad565b61244b565b826080015161244b90615aad565b10156124825760405162461bcd60e51b815260040161029b9060208082526004908201526310b6b4b760e11b604082015260600190565b6060820151610120830151604051633a814c7360e21b815273__$eacbb88ed4bd2af84aa4d43bcf675bcf7e$__9263ea0531cc926124c4928b90600401615ac9565b600060405180830381865af41580156124e1573d6000803e3d6000fd5b505050506040513d6000823e601f3d908101601f191682016040526125099190810190615766565b600154604051631f71cc1b60e21b81529197506001600160a01b031690637dc7306c9061253c908b908a906004016157f9565b600060405180830381865afa158015612559573d6000803e3d6000fd5b505050506040513d6000823e601f3d908101601f191682016040526125819190810190615766565b60058201549096501561286a5760606127646040518061010001604052808b8036038101906125b09190615305565b8152604080516101808101825286546001600160a01b0381166060830190815260ff600160a01b8304811615156080850152600160a81b909204909116151560a0830152600188015460c0830152600288015460e08301526003880154610100830152600488015463ffffffff808216610120850152600160201b9091041661014083015260058801805484516020828102820181019096528181529585019593948a94869493869361016087019360009084015b828210156126e65760008481526020908190206040805160e081018252600686029092018054600281810b855263010000009091046001600160801b03168486015260018083015493850193909352810154606084015260038101546080840152600481015460a08401526005015460c08301529083529092019101612665565b5050505081525050815260200160068201548152602001600782015481525050815260200185606001516001600160a01b031681526020018a60c001516001600160a01b031681526020018a6080015115158152602001856101a00151815260200185610120015160020b8152602001856101c00151815250613cd2565b610100850191909152600154604051631f71cc1b60e21b81529192506001600160a01b031690637dc7306c906127a0908c9085906004016157f9565b600060405180830381865afa1580156127bd573d6000803e3d6000fd5b505050506040513d6000823e601f3d908101601f191682016040526127e59190810190615766565b604051630612817160e31b815290915073__$d23a8dd93b7205fa6b646ffed38c165d68$__906330940b8890612821908a908590600401615afc565b600060405180830381865af415801561283e573d6000803e3d6000fd5b505050506040513d6000823e601f3d908101601f191682016040526128669190810190615766565b9650505b6101a082015160a00151606088015161288b91670de0b6b3a7640000612e4e565b600660006128a685606001518b60c001518c60800151612d47565b81526020019081526020016000205410156128ee5760405162461bcd60e51b8152602060048201526008602482015267217072656d69756d60c01b604482015260640161029b565b866080015115612913576080820151600682018054600092909203909101905561292a565b60a082015160068201805460009290920390910190555b865160078201805490910190556060808801516002830180549091019055604083015160018301805490910190556080880151825460048401805463ffffffff428116600160201b0267ffffffff000000001983168117909355948701516001600160a01b03166001600160a01b0319941515600160a81b0294909416600161ff0160a01b0319909316929092179290921784559082169116176000036129e35760048101805463ffffffff19164263ffffffff161790555b6005810154156129fb576129fb600582016000614725565b60005b8651811015612af0576000878281518110612a1b57612a1b615819565b6020026020010151602001516001600160801b03161115612ade5781600001600501878281518110612a4f57612a4f615819565b60209081029190910181015182546001818101855560009485529383902082516006909202018054938301516001600160801b03166301000000026001600160981b031990941662ffffff90921691909117929092178255604081015192820192909255606082015160028201556080820151600382015560a0820151600482015560c0909101516005909101555b80612ae88161584c565b9150506129fe565b5061010080830151604080516101808101825284546001600160a01b0381166060830190815260ff600160a01b8304811615156080850152600160a81b909204909116151560a0830152600186015460c0830152600286015460e0830152600386015494820194909452600485015463ffffffff808216610120840152600160201b9091041661014082015260058501805483516020828102820181019095528181528796939487948694909386936101608701939092919060009084015b82821015612c305760008481526020908190206040805160e081018252600686029092018054600281810b855263010000009091046001600160801b03168486015260018083015493850193909352810154606084015260038101546080840152600481015460a08401526005015460c08301529083529092019101612baf565b505050915250508152600682015460208201526007909101546040909101529a909950975050505050505050565b600081602001516001600160a01b031682600001516001600160a01b031610612c8657600080fd5b815160208084015160408086015181516001600160a01b0395861681860152949092168482015262ffffff90911660608085019190915281518085038201815260808501909252815191909201206001600160f81b031960a08401529085901b6bffffffffffffffffffffffff191660a183015260b58201527f738b4553433dba2a0d30477190a6acf518c43ca7350b2c2703484c9a04d0ea9360d582015260f50160408051601f1981840301815291905280516020909101209392505050565b6000838383604051602001612d5e939291906154e7565b6040516020818303038152906040528051906020012090509392505050565b600060405163a9059cbb60e01b8152836004820152826024820152602060006044836000895af13d15601f3d11600160005114161716915050806102f95760405162461bcd60e51b815260206004820152600f60248201526e1514905394d1915497d19052531151608a1b604482015260640161029b565b612dfd61466b565b6040805161012081018252600080825260208201819052918101829052606081018290526080810182905260a0810182905260c0810182905260e08101829052610100810191909152935093915050565b6000808060001985870985870292508281108382030391505080600003612e875760008411612e7c57600080fd5b50829004905061198a565b808411612ebf5760405162461bcd60e51b815260206004820152600660248201526536bab62234bb60d11b604482015260640161029b565b6000848688096000868103871696879004966002600389028118808a02820302808a02820302808a02820302808a02820302808a02820302808a02909103029181900381900460010186841190950394909402919094039290920491909117919091029150509392505050565b60008460a0015160010361310c576000612f6c8660000151612f52578760e00151614226565b8760200151886101000151612f67919061579a565b614226565b6002548851885160408a01519394506001600160a01b039092169263c90050de929081612fc257856001600160a01b03168c61012001516001600160a01b031611612fbc578b6101200151612fed565b85612fed565b856001600160a01b03168c61012001516001600160a01b031610612feb578b6101200151612fed565b855b612ffa60208b018b615380565b61300a60408c0160208d01615380565b6040518763ffffffff1660e01b815260040161302b969594939291906159c7565b60408051808303816000875af1158015613049573d6000803e3d6000fd5b505050506040513d601f19601f8201168201806040525081019061306d9190615a01565b61018089015261016088015285516130a5578661018001518660400151101561309a5785604001516130c7565b8661018001516130c7565b866101600151866040015110156130c05785604001516130c7565b8661016001515b604087018190526131065760405162461bcd60e51b8152602060048201526009602482015268216e6f72656475636560b81b604482015260640161029b565b506131de565b60a08501516002146131de578460a001516003036131de576002548551608088015160408801516001600160a01b039093169263e76001cc92339290159161315760208a018a615380565b61316760408b0160208c01615380565b8d61020001516040518863ffffffff1660e01b815260040161318f9796959493929190615a25565b60408051808303816000875af11580156131ad573d6000803e3d6000fd5b505050506040513d601f19601f820116820180604052508101906131d19190615a01565b6101808801526101608701525b8460a00151600114806131f557508460a001516002145b156132eb5785600001516001600160a01b0316633850c7bd6040518163ffffffff1660e01b815260040160e060405180830381865afa15801561323c573d6000803e3d6000fd5b505050506040513d601f19601f82011682018060405250810190613260919061551a565b5050505060029190910b60c08901525050845161328e578560e0015160020b8660c0015160020b13156132b1565b85602001518661010001516132a3919061579a565b60020b8660c0015160020b12155b6132eb5760405162461bcd60e51b815260206004820152600b60248201526a1d1a58dad0dc9bdcdcd95960aa1b604482015260640161029b565b6001546102408701516040516379378b4160e01b81526001600160a01b03909216916379378b4191613324918791903090600401615b21565b60408051808303816000875af1158015613342573d6000803e3d6000fd5b505050506040513d601f19601f820116820180604052508101906133669190615a01565b60a08601526080850152602085015160009061338c908490670de0b6b3a7640000612e4e565b8651909150156134ed576080850151156133b85760405162461bcd60e51b815260040161029b90615b59565b8460a0015187610180015160000310156134015760405162461bcd60e51b815260206004820152600a60248201526918db1bdcd94819985a5b60b21b604482015260640161029b565b60a085015161018088015101600081810360408801529082018103131561345857604085015161343b906000670de0b6b3a7640000612e4e565b9150613451826000670de0b6b3a7640000612e4e565b6102208801525b6134686040850160208601615380565b6080870151604080880151905163a9059cbb60e01b81526001600160a01b03928316600482015290859003602482015291169063a9059cbb906044016020604051808303816000875af11580156134c3573d6000803e3d6000fd5b505050506040513d601f19601f820116820180604052508101906134e7919061582f565b5061363d565b60a08501511561350f5760405162461bcd60e51b815260040161029b90615b59565b846080015187610160015160000310156135585760405162461bcd60e51b815260206004820152600a60248201526918db1bdcd94819985a5b60b21b604482015260640161029b565b60808501516101608801510160008181036040880152908201810313156135af576040850151613592906000670de0b6b3a7640000612e4e565b91506135a8826000670de0b6b3a7640000612e4e565b6102208801525b6135bc6020850185615380565b6080870151604080880151905163a9059cbb60e01b81526001600160a01b03928316600482015290859003602482015291169063a9059cbb906044016020604051808303816000875af1158015613617573d6000803e3d6000fd5b505050506040513d601f19601f8201168201806040525081019061363b919061582f565b505b6101608701518552610180909601516020850152604090930180519584019095039094525092915050565b6001546040516379378b4160e01b81526001600160a01b03909116906379378b419061369c9086908a903090600401615b21565b60408051808303816000875af11580156136ba573d6000803e3d6000fd5b505050506040513d601f19601f820116820180604052508101906136de9190615a01565b60a086015260808501528451156137165760a0840151156137115760405162461bcd60e51b815260040161029b90615b59565b613738565b6080840151156137385760405162461bcd60e51b815260040161029b90615b59565b6020850151613751908290670de0b6b3a7640000612e4e565b61375a90615aad565b6040850152845161376f578360a00151613775565b83608001515b8560400151613784919061536d565b606085015284516137a45761379f6040840160208501615380565b6137b1565b6137b16020840184615380565b6080860151606086015160405163a9059cbb60e01b81526001600160a01b039283166004820152602481019190915291169063a9059cbb906044016020604051808303816000875af115801561380b573d6000803e3d6000fd5b505050506040513d601f19601f8201168201806040525081019061382f919061582f565b50505050505050565b60808401516001600160a01b0316331480159061386357504285606001516040015163ffffffff1610155b6138985760405162461bcd60e51b815260206004820152600660248201526510b7b93232b960d11b604482015260640161029b565b610240850151602086015160c087015160a088015160405162aba2a960e31b815273__$d23a8dd93b7205fa6b646ffed38c165d68$__9463055d1548946138f0949193670de0b6b3a764000093919291600401615b78565b6040805180830381865af415801561390c573d6000803e3d6000fd5b505050506040513d601f19601f820116820180604052508101906139309190615a01565b6101e08701526101c08601526040840151608086015160009161395d9190670de0b6b3a764000090612e4e565b90506000613990670de0b6b3a764000083886000015161398257896101c00151613989565b896101e001515b9190612e4e565b60025487519192506001600160a01b03169063e76001cc9033908015906139bc578a6101c001516139c3565b8a6101e001515b856139d160208b018b615380565b6139e160408c0160208d01615380565b8e61020001516040518863ffffffff1660e01b8152600401613a099796959493929190615a25565b60408051808303816000875af1158015613a27573d6000803e3d6000fd5b505050506040513d601f19601f82011682018060405250810190613a4b9190615a01565b6101808901526101608801528551613a7957866101600151613a6c90615aad565b876101c001511115613a91565b866101800151613a8890615aad565b876101e0015111155b613ac25760405162461bcd60e51b8152602060048201526002602482015261333360f11b604482015260640161029b565b610160870151855261018087015160208601526001546102408801516040516379378b4160e01b81526001600160a01b03909216916379378b4191613b0e918891903090600401615b21565b60408051808303816000875af1158015613b2c573d6000803e3d6000fd5b505050506040513d601f19601f82011682018060405250810190613b509190615a01565b60a0870152608086018190526101c0880151148015613b775750866101e001518560a00151145b613bae5760405162461bcd60e51b8152602060048201526008602482015267726f756e64696e6760c01b604482015260640161029b565b6020860151613bc7908490670de0b6b3a7640000612e4e565b613bd090615aad565b60408601528551613bf5578460a00151876101800151613bf091906158c6565b613c0a565b8460800151876101600151613c0a91906158c6565b876060015160c00151613c1d919061536d565b60608601528551613c3d57613c386040850160208601615380565b613c4a565b613c4a6020850185615380565b6080870151606087015160405163a9059cbb60e01b81526001600160a01b039283166004820152602481019190915291169063a9059cbb906044016020604051808303816000875af1158015613ca4573d6000803e3d6000fd5b505050506040513d601f19601f82011682018060405250810190613cc8919061582f565b5050505050505050565b60006060604080840151600154608086015160c087015160a08801515160208901515161010001519551630d527ba960e01b8152600096879673__$eacbb88ed4bd2af84aa4d43bcf675bcf7e$__96630d527ba996613d459692956001600160a01b039092169490159390600401615bbd565b600060405180830381865af4158015613d62573d6000803e3d6000fd5b505050506040513d6000823e601f3d908101601f19168201604052613d8a9190810190615978565b60208801515161010001929092529250905060008115613fa257600086604001516001600160a01b0316633850c7bd6040518163ffffffff1660e01b815260040160e060405180830381865afa158015613de8573d6000803e3d6000fd5b505050506040513d601f19601f82011682018060405250810190613e0c919061551a565b5050505060808a015160405163103d82bb60e11b81526001600160a01b0385166004820152670e92596fd629000060248201529015604482015292935060009273__$d23a8dd93b7205fa6b646ffed38c165d68$__925063207b05769150606401602060405180830381865af4158015613e8a573d6000803e3d6000fd5b505050506040513d601f19601f82011682018060405250810190613eae9190615675565b8851805160209091015160025460408c015160808d01519495509293919260009283926001600160a01b03169163c90050de9115613eeb8c615aad565b8989896040518763ffffffff1660e01b8152600401613f0f969594939291906159c7565b60408051808303816000875af1158015613f2d573d6000803e3d6000fd5b505050506040513d601f19601f82011682018060405250810190613f519190615a01565b915091508b60800151613f645781613f66565b805b9650613f72878a6158c6565b9850613f9b8c6080015115613f875784613f89565b835b6001546001600160a01b03168a612d7d565b5050505050505b60008660800151613fb557865151613fbc565b8651602001515b90508360066000613fda8a604001518b606001518c60800151612d47565b81526020019081526020016000205410156140225760405162461bcd60e51b81526020600482015260086024820152670859195c1bdcda5d60c21b604482015260640161029b565b836006600061403e8a604001518b606001518c60800151612d47565b8152602080820192909252604090810160002080549390930390925560015489518a840151928b015151610100015160808c015160e08d01519551631537e25d60e11b81526001600160a01b0390941695632a6fc4ba956140a6959093929190600401615c38565b600060405180830381600087803b1580156140c057600080fd5b505af11580156140d4573d6000803e3d6000fd5b50506001546140f992508391506001600160a01b03166140f4858861536d565b612d7d565b5050506020909301515161010001519293915050565b606061198a8383604051806060016040528060278152602001615cd960279139614548565b60006040516323b872dd60e01b81528460048201528360248201528260448201526020600060648360008a5af13d15601f3d1160016000511416171691505080611bcd5760405162461bcd60e51b81526020600482015260146024820152731514905394d1915497d19493d357d1905253115160621b604482015260640161029b565b6141bf6147b0565b614219604051806101200160405280600081526020016000815260200160008152602001600081526020016000151581526020016000815260200160006001600160a01b0316815260200160008152602001600081525090565b50829050815b9250929050565b60008060008360020b1261423d578260020b614245565b8260020b6000035b9050620d89e881111561426b576040516315e4079d60e11b815260040160405180910390fd5b60008160011660000361428257600160801b614294565b6ffffcb933bd6fad37aa2d162d1a5940015b70ffffffffffffffffffffffffffffffffff16905060028216156142c8576ffff97272373d413259a46990580e213a0260801c5b60048216156142e7576ffff2e50f5f656932ef12357cf3c7fdcc0260801c5b6008821615614306576fffe5caca7e10e4e61c3624eaa0941cd00260801c5b6010821615614325576fffcb9843d60f6159c9db58835c9266440260801c5b6020821615614344576fff973b41fa98c081472e6896dfb254c00260801c5b6040821615614363576fff2ea16466c96a3843ec78b326b528610260801c5b6080821615614382576ffe5dee046a99a2a811c461f1969c30530260801c5b6101008216156143a2576ffcbe86c7900a88aedcffc83b479aa3a40260801c5b6102008216156143c2576ff987a7253ac413176f2b074cf7815e540260801c5b6104008216156143e2576ff3392b0822b70005940c7a398e4b70f30260801c5b610800821615614402576fe7159475a2c29b7443b29c7fa6e889d90260801c5b611000821615614422576fd097f3bdfd2022b8845ad8f792aa58250260801c5b612000821615614442576fa9f746462d870fdf8a65dc1f90e061e50260801c5b614000821615614462576f70d869a156d2a1b890bb3df62baf32f70260801c5b618000821615614482576f31be135f97d08fd981231505542fcfa60260801c5b620100008216156144a3576f09aa508b5b7a84e1c677de54f3e99bc90260801c5b620200008216156144c3576e5d6af8dedb81196699c329225ee6040260801c5b620400008216156144e2576d2216e584f5fa1ea926041bedfe980260801c5b620800008216156144ff576b048a170391f7dc42444e8fa20260801c5b60008460020b131561452057806000198161451c5761451c615c93565b0490505b600160201b810615614533576001614536565b60005b60ff16602082901c0192505050919050565b6060600080856001600160a01b0316856040516145659190615ca9565b600060405180830381855af49150503d80600081146145a0576040519150601f19603f3d011682016040523d82523d6000602084013e6145a5565b606091505b50915091506145b6868383876145c0565b9695505050505050565b6060831561462f578251600003614628576001600160a01b0385163b6146285760405162461bcd60e51b815260206004820152601d60248201527f416464726573733a2063616c6c20746f206e6f6e2d636f6e7472616374000000604482015260640161029b565b5081614639565b6146398383614641565b949350505050565b8151156146515781518083602001fd5b8060405162461bcd60e51b815260040161029b9190615cc5565b60408051610260810182526000808252602082015290810161468b614853565b81526020016146986148bd565b81526020016000815260200160006001600160a01b03168152602001600060020b8152602001600060020b8152602001600060020b815260200160006001600160a01b031681526020016000815260200160008152602001600081526020016000815260200160008152602001600081526020016000801916815260200160008152602001606081525090565b50805460008255600602906000526020600020908101906147469190614920565b50565b604080516101808101909152600060608083018281526080840183905260a0840183905260c0840183905260e08401839052610100840183905261012084018390526101408401929092526101608301528190815260200160008152602001600081525090565b604051806101e001604052806147c46148bd565b8152602001600081526020016000815260200160006001600160a01b031681526020016000815260200160008152602001600081526020016000815260200160008152602001600060020b815260200160006001600160a01b0316815260200160006001600160a01b0316815260200160008019168152602001614846614853565b8152602001600081525090565b6040518060c001604052806148906040518060a0016040528060008152602001600081526020016000815260200160008152602001600081525090565b8152602001600081526020016000815260200160008152602001600061ffff168152602001600081525090565b60408051610180810182526000610120820181815261014083018290526101608301829052825260208201819052918101829052606081018290526080810182905260a0810182905260c0810182905260e0810182905261010081019190915290565b5b808211156149625780546001600160981b03191681556000600182018190556002820181905560038201819055600482018190556005820155600601614921565b5090565b60006060828403121561497857600080fd5b50919050565b801515811461474657600080fd5b80356149978161497e565b919050565b600080600060a084860312156149b157600080fd5b6149bb8585614966565b925060608401356149cb8161497e565b929592945050506080919091013590565b634e487b7160e01b600052604160045260246000fd5b60405161012081016001600160401b0381118282101715614a1557614a156149dc565b60405290565b60405160e081016001600160401b0381118282101715614a1557614a156149dc565b604051606081016001600160401b0381118282101715614a1557614a156149dc565b60405160c081016001600160401b0381118282101715614a1557614a156149dc565b60405160a081016001600160401b0381118282101715614a1557614a156149dc565b604051601f8201601f191681016001600160401b0381118282101715614acb57614acb6149dc565b604052919050565b6001600160a01b038116811461474657600080fd5b803561499781614ad3565b600080828403610180811215614b0857600080fd5b614b128585614966565b925061012080605f1983011215614b2857600080fd5b614b306149f2565b9150614b3e6060860161498c565b82526080850135602083015260a0850135604083015260c08501356060830152614b6a60e08601614ae8565b60808301526101008086013560a08401528186013560c0840152614b916101408701614ae8565b60e0840152610160860135818401525050809150509250929050565b60008060408385031215614bc057600080fd5b8235614bcb81614ad3565b91506020830135614bdb81614ad3565b809150509250929050565b600060208284031215614bf857600080fd5b5035919050565b805160020b82526001600160801b03602082015116602083015260408101516040830152606081015160608301526080810151608083015260a081015160a083015260c081015160c08301525050565b600081518084526020808501945080840160005b83811015614c8957614c76878351614bff565b60e0969096019590820190600101614c63565b509495945050505050565b600061012060018060a01b0383511684526020830151614cb8602086018215159052565b506040830151614ccc604086018215159052565b50606083015160608501526080830151608085015260a083015160a085015260c0830151614d0260c086018263ffffffff169052565b5060e0830151614d1a60e086018263ffffffff169052565b506101008084015182828701526145b683870182614c4f565b606081526000614d466060830186614c94565b60208301949094525060400152919050565b600080600060a08486031215614d6d57600080fd5b614d778585614966565b92506060840135614d8781614ad3565b91506080840135614d978161497e565b809150509250925092565b600080600060608486031215614db757600080fd5b8335614dc281614ad3565b92506020840135614dd281614ad3565b91506040840135614d978161497e565b6000815160608452614df76060850182614c94565b905060208301516020850152604083015160408501528091505092915050565b60208152600061198a6020830184614de2565b60008060208385031215614e3d57600080fd5b82356001600160401b0380821115614e5457600080fd5b818501915085601f830112614e6857600080fd5b813581811115614e7757600080fd5b8660208260051b8501011115614e8c57600080fd5b60209290920196919550909350505050565b60005b83811015614eb9578181015183820152602001614ea1565b50506000910152565b60008151808452614eda816020860160208601614e9e565b601f01601f19169290920160200192915050565b6000602080830181845280855180835260408601915060408160051b870101925083870160005b82811015614f4357603f19888603018452614f31858351614ec2565b94509285019290850190600101614f15565b5092979650505050505050565b803563ffffffff8116811461499757600080fd5b60006001600160401b03821115614f7d57614f7d6149dc565b5060051b60200190565b8060020b811461474657600080fd5b6001600160801b038116811461474657600080fd5b600082601f830112614fbc57600080fd5b81356020614fd1614fcc83614f64565b614aa3565b82815260e09283028501820192828201919087851115614ff057600080fd5b8387015b858110156150715781818a03121561500c5760008081fd5b615014614a1b565b813561501f81614f87565b81528186013561502e81614f96565b8187015260408281013590820152606080830135908201526080808301359082015260a0808301359082015260c080830135908201528452928401928101614ff4565b5090979650505050505050565b60006020828403121561509057600080fd5b81356001600160401b03808211156150a757600080fd5b90830190606082860312156150bb57600080fd5b6150c3614a3d565b8235828111156150d257600080fd5b830161012081880312156150e557600080fd5b6150ed6149f2565b6150f682614ae8565b81526151046020830161498c565b60208201526151156040830161498c565b6040820152606082013560608201526080820135608082015260a082013560a082015261514460c08301614f50565b60c082015261515560e08301614f50565b60e0820152610100808301358581111561516e57600080fd5b61517a8a828601614fab565b8284015250508083525050602083013560208201526040830135604082015280935050505092915050565b60008060008060c085870312156151bb57600080fd5b6151c58686614966565b935060608501356151d581614ad3565b925060808501356151e58161497e565b9396929550929360a00135925050565b60008060008385036101a081121561520c57600080fd5b6152168686614966565b935061012080605f198301121561522c57600080fd5b6152346149f2565b9150606086013582526080860135602083015260a0860135604083015260c0860135606083015261526760e0870161498c565b60808301526101008087013560a0840152615283828801614ae8565b60c084015261014087013560e0840152610160870135908301525091506101808401356001600160401b038111156152ba57600080fd5b6152c686828701614fab565b9150509250925092565b6040815260006152e36040830185614de2565b90508260208301529392505050565b803562ffffff8116811461499757600080fd5b60006060828403121561531757600080fd5b61531f614a3d565b823561532a81614ad3565b8152602083013561533a81614ad3565b602082015261534b604084016152f2565b60408201529392505050565b634e487b7160e01b600052601160045260246000fd5b81810381811115611a7e57611a7e615357565b60006020828403121561539257600080fd5b813561198a81614ad3565b80356153a881614ad3565b6001600160a01b0390811683526020820135906153c482614ad3565b16602083015262ffffff6153da604083016152f2565b1660408301525050565b60608101611a7e828461539d565b805161ffff8116811461499757600080fd5b600080600083850361018081121561541b57600080fd5b845161542681614ad3565b602086015190945061543781614f87565b9250603f19016101408082121561544d57600080fd5b615455614a5f565b60a083121561546357600080fd5b61546b614a81565b925060408701518352606087015160208401526080870151604084015260a0870151606084015260c0870151608084015282815260e08701516020820152610100870151604082015261012087015160608201526154ca8288016153f2565b608082015261016087015160a08201528093505050509250925092565b6bffffffffffffffffffffffff19606094851b811682529290931b9091166014830152151560f81b602882015260290190565b600080600080600080600060e0888a03121561553557600080fd5b875161554081614ad3565b602089015190975061555181614f87565b955061555f604089016153f2565b945061556d606089016153f2565b935061557b608089016153f2565b925060a088015160ff8116811461559157600080fd5b60c08901519092506155a28161497e565b8091505092959891949750929550565b6000815480845260208085019450836000528060002060005b83811015614c89578154600281810b895260189190911c6001600160801b03168489015260018084015460408a015290830154606089015260038301546080890152600483015460a0890152600583015460c089015260e090970196600690920191016155cb565b60208152600061198a60208301846155b2565b6000806040838503121561565957600080fd5b825161566481614f87565b6020840151909250614bdb81614f87565b60006020828403121561568757600080fd5b815161198a81614ad3565b6040815260006152e360408301856155b2565b600082601f8301126156b657600080fd5b815160206156c6614fcc83614f64565b82815260e092830285018201928282019190878511156156e557600080fd5b8387015b858110156150715781818a0312156157015760008081fd5b615709614a1b565b815161571481614f87565b81528186015161572381614f96565b8187015260408281015190820152606080830151908201526080808301519082015260a0808301519082015260c0808301519082015284529284019281016156e9565b60006020828403121561577857600080fd5b81516001600160401b0381111561578e57600080fd5b614639848285016156a5565b600281810b9083900b01627fffff8113627fffff1982121715611a7e57611a7e615357565b600081518084526020808501945080840160005b83811015614c89576157e6878351614bff565b60e09690960195908201906001016157d3565b615803818461539d565b60806060820152600061463960808301846157bf565b634e487b7160e01b600052603260045260246000fd5b60006020828403121561584157600080fd5b815161198a8161497e565b60006001820161585e5761585e615357565b5060010190565b6000808335601e1984360301811261587c57600080fd5b8301803591506001600160401b0382111561589657600080fd5b60200191503681900382131561421f57600080fd5b6000602082840312156158bd57600080fd5b61198a826152f2565b80820180821115611a7e57611a7e615357565b60e081016158e7828861539d565b6060820195909552608081019390935290151560a083015260c090910152919050565b600080600080600060a0868803121561592257600080fd5b855161592d81614ad3565b8095505060208601519350604086015192506060860151915060808601516001600160401b0381111561595f57600080fd5b61596b888289016156a5565b9150509295509295909350565b60008060006060848603121561598d57600080fd5b83516001600160401b038111156159a357600080fd5b6159af868287016156a5565b93505060208401519150604084015190509250925092565b6001600160a01b0396871681529415156020860152604085019390935290841660608401528316608083015290911660a082015260c00190565b60008060408385031215615a1457600080fd5b505080516020909101519092909150565b6001600160a01b0397881681529515156020870152604086019490945260608501929092528416608084015290921660a082015260c081019190915260e00190565b606081526000615a7a60608301866157bf565b93151560208301525060029190910b604090910152919050565b600060208284031215615aa657600080fd5b5051919050565b6000600160ff1b8201615ac257615ac2615357565b5060000390565b60018060a01b03841681528260020b6020820152606060408201526000615af360608301846157bf565b95945050505050565b604081526000615b0f60408301856157bf565b8281036020840152615af381856157bf565b615b2b818561539d565b60a060608201526000615b4160a08301856157bf565b905060018060a01b0383166080830152949350505050565b602080825260059082015264085b5a5b9d60da1b604082015260600190565b60a081526000615b8b60a08301886157bf565b602083019690965250600293840b60408201529190920b60608201526001600160a01b03909116608090910152919050565b600061014060018060a01b03808a16845280891660208501525086151560408401528560020b606084015284516080840152602085015160a0840152604085015160c0840152606085015160e0840152608085015161010084015280610120840152615c2b818401856157bf565b9998505050505050505050565b600060018060a01b0380885116835280602089015116602084015262ffffff604089015116604084015280871660608401525060e06080830152615c7f60e08301866157bf565b93151560a08301525060c001529392505050565b634e487b7160e01b600052601260045260246000fd5b60008251615cbb818460208701614e9e565b9190910192915050565b60208152600061198a6020830184614ec256fe416464726573733a206c6f772d6c6576656c2064656c65676174652063616c6c206661696c6564a2646970667358221220e6d87e242869c248490b236ba03fd05ee64b925edf27dfc90557b939cb50d1a464736f6c63430008150033",
    "linkReferences": {
      "src/PremiumComputer.sol": {
        "PremiumComputer": [
          {
            "start": 9625,
            "length": 20
          },
          {
            "start": 15882,
            "length": 20
          }
        ]
      },
      "src/Util.sol": {
        "Utils": [
          {
            "start": 2059,
            "length": 20
          },
          {
            "start": 2241,
            "length": 20
          },
          {
            "start": 2590,
            "length": 20
          },
          {
            "start": 8706,
            "length": 20
          },
          {
            "start": 9283,
            "length": 20
          },
          {
            "start": 10484,
            "length": 20
          },
          {
            "start": 14776,
            "length": 20
          },
          {
            "start": 16203,
            "length": 20
          }
        ]
      }
    }
  },
  "methodIdentifiers": {
    "PremiumDeposit(bytes32)": "5d4936ff",
    "addPosition((address,address,uint24),(uint256,uint256,uint256,uint256,bool,uint256,address,uint256,uint256),(int24,uint128,uint256,uint256,uint256,uint256,uint256)[])": "ee2fc336",
    "approveTokens(address,address)": "3eb4adab",
    "canForceClose(((address,bool,bool,uint256,uint256,uint256,uint32,uint32,(int24,uint128,uint256,uint256,uint256,uint256,uint256)[]),uint256,uint256))": "d7ae317e",
    "depositPremium((address,address,uint24),address,bool,uint256)": "dbe5f6cb",
    "getPosition(address,address,bool)": "8c1395f8",
    "maxWithdrawablePremium(bytes32)": "86dacdb0",
    "multicall(bytes[])": "ac9650d8",
    "payPremium((address,address,uint24),address,bool)": "7dc8b1a6",
    "positions(bytes32)": "514ea4bf",
    "reducePosition((address,address,uint24),(bool,uint256,uint256,uint256,address,uint256,bytes32,uint160,uint256))": "26d1281c",
    "withdrawPremium((address,address,uint24),bool,uint256)": "025df9e4"
  },
  "id": 40
}