{
  "abi": [
    {
      "inputs": [
        {
          "internalType": "address",
          "name": "pm",
          "type": "address"
        },
        {
          "internalType": "address",
          "name": "ex",
          "type": "address"
        },
        {
          "internalType": "address",
          "name": "uniswapFactory",
          "type": "address"
        }
      ],
      "stateMutability": "nonpayable",
      "type": "constructor"
    },
    {
      "inputs": [],
      "name": "T",
      "type": "error"
    },
    {
      "inputs": [
        {
          "internalType": "PositionId",
          "name": "",
          "type": "bytes32"
        }
      ],
      "name": "PremiumDeposit",
      "outputs": [
        {
          "internalType": "uint256",
          "name": "",
          "type": "uint256"
        }
      ],
      "stateMutability": "view",
      "type": "function"
    },
    {
      "inputs": [
        {
          "components": [
            {
              "internalType": "address",
              "name": "token0",
              "type": "address"
            },
            {
              "internalType": "address",
              "name": "token1",
              "type": "address"
            },
            {
              "internalType": "uint24",
              "name": "fee",
              "type": "uint24"
            }
          ],
          "internalType": "struct PoolKey",
          "name": "key",
          "type": "tuple"
        },
        {
          "components": [
            {
              "internalType": "uint256",
              "name": "margin",
              "type": "uint256"
            },
            {
              "internalType": "uint256",
              "name": "maxSlippage",
              "type": "uint256"
            },
            {
              "internalType": "uint256",
              "name": "minEstimatedSlippage",
              "type": "uint256"
            },
            {
              "internalType": "uint256",
              "name": "borrowAmount",
              "type": "uint256"
            },
            {
              "internalType": "bool",
              "name": "positionIsToken0",
              "type": "bool"
            },
            {
              "internalType": "uint256",
              "name": "executionOption",
              "type": "uint256"
            },
            {
              "internalType": "address",
              "name": "trader",
              "type": "address"
            },
            {
              "internalType": "uint256",
              "name": "minOutput",
              "type": "uint256"
            },
            {
              "internalType": "uint256",
              "name": "deadline",
              "type": "uint256"
            }
          ],
          "internalType": "struct AddParams",
          "name": "param",
          "type": "tuple"
        },
        {
          "components": [
            {
              "internalType": "int24",
              "name": "tick",
              "type": "int24"
            },
            {
              "internalType": "uint128",
              "name": "liquidity",
              "type": "uint128"
            },
            {
              "internalType": "uint256",
              "name": "premium",
              "type": "uint256"
            },
            {
              "internalType": "uint256",
              "name": "Urate",
              "type": "uint256"
            },
            {
              "internalType": "uint256",
              "name": "feeGrowthInside0LastX128",
              "type": "uint256"
            },
            {
              "internalType": "uint256",
              "name": "feeGrowthInside1LastX128",
              "type": "uint256"
            },
            {
              "internalType": "uint256",
              "name": "lastGrowth",
              "type": "uint256"
            }
          ],
          "internalType": "struct LiquidityLoan[]",
          "name": "borrowInfo",
          "type": "tuple[]"
        }
      ],
      "name": "addPosition",
      "outputs": [
        {
          "components": [
            {
              "components": [
                {
                  "internalType": "address",
                  "name": "pool",
                  "type": "address"
                },
                {
                  "internalType": "bool",
                  "name": "underAuction",
                  "type": "bool"
                },
                {
                  "internalType": "bool",
                  "name": "isToken0",
                  "type": "bool"
                },
                {
                  "internalType": "uint256",
                  "name": "totalDebtOutput",
                  "type": "uint256"
                },
                {
                  "internalType": "uint256",
                  "name": "totalDebtInput",
                  "type": "uint256"
                },
                {
                  "internalType": "uint256",
                  "name": "recentPremium",
                  "type": "uint256"
                },
                {
                  "internalType": "uint32",
                  "name": "openTime",
                  "type": "uint32"
                },
                {
                  "internalType": "uint32",
                  "name": "repayTime",
                  "type": "uint32"
                },
                {
                  "components": [
                    {
                      "internalType": "int24",
                      "name": "tick",
                      "type": "int24"
                    },
                    {
                      "internalType": "uint128",
                      "name": "liquidity",
                      "type": "uint128"
                    },
                    {
                      "internalType": "uint256",
                      "name": "premium",
                      "type": "uint256"
                    },
                    {
                      "internalType": "uint256",
                      "name": "Urate",
                      "type": "uint256"
                    },
                    {
                      "internalType": "uint256",
                      "name": "feeGrowthInside0LastX128",
                      "type": "uint256"
                    },
                    {
                      "internalType": "uint256",
                      "name": "feeGrowthInside1LastX128",
                      "type": "uint256"
                    },
                    {
                      "internalType": "uint256",
                      "name": "lastGrowth",
                      "type": "uint256"
                    }
                  ],
                  "internalType": "struct LiquidityLoan[]",
                  "name": "borrowInfo",
                  "type": "tuple[]"
                }
              ],
              "internalType": "struct Position",
              "name": "base",
              "type": "tuple"
            },
            {
              "internalType": "uint256",
              "name": "totalPosition",
              "type": "uint256"
            },
            {
              "internalType": "uint256",
              "name": "margin",
              "type": "uint256"
            }
          ],
          "internalType": "struct MarginPosition",
          "name": "",
          "type": "tuple"
        },
        {
          "internalType": "uint256",
          "name": "",
          "type": "uint256"
        }
      ],
      "stateMutability": "nonpayable",
      "type": "function"
    },
    {
      "inputs": [
        {
          "internalType": "address",
          "name": "token0",
          "type": "address"
        },
        {
          "internalType": "address",
          "name": "token1",
          "type": "address"
        }
      ],
      "name": "approveTokens",
      "outputs": [],
      "stateMutability": "nonpayable",
      "type": "function"
    },
    {
      "inputs": [
        {
          "components": [
            {
              "components": [
                {
                  "internalType": "address",
                  "name": "pool",
                  "type": "address"
                },
                {
                  "internalType": "bool",
                  "name": "underAuction",
                  "type": "bool"
                },
                {
                  "internalType": "bool",
                  "name": "isToken0",
                  "type": "bool"
                },
                {
                  "internalType": "uint256",
                  "name": "totalDebtOutput",
                  "type": "uint256"
                },
                {
                  "internalType": "uint256",
                  "name": "totalDebtInput",
                  "type": "uint256"
                },
                {
                  "internalType": "uint256",
                  "name": "recentPremium",
                  "type": "uint256"
                },
                {
                  "internalType": "uint32",
                  "name": "openTime",
                  "type": "uint32"
                },
                {
                  "internalType": "uint32",
                  "name": "repayTime",
                  "type": "uint32"
                },
                {
                  "components": [
                    {
                      "internalType": "int24",
                      "name": "tick",
                      "type": "int24"
                    },
                    {
                      "internalType": "uint128",
                      "name": "liquidity",
                      "type": "uint128"
                    },
                    {
                      "internalType": "uint256",
                      "name": "premium",
                      "type": "uint256"
                    },
                    {
                      "internalType": "uint256",
                      "name": "Urate",
                      "type": "uint256"
                    },
                    {
                      "internalType": "uint256",
                      "name": "feeGrowthInside0LastX128",
                      "type": "uint256"
                    },
                    {
                      "internalType": "uint256",
                      "name": "feeGrowthInside1LastX128",
                      "type": "uint256"
                    },
                    {
                      "internalType": "uint256",
                      "name": "lastGrowth",
                      "type": "uint256"
                    }
                  ],
                  "internalType": "struct LiquidityLoan[]",
                  "name": "borrowInfo",
                  "type": "tuple[]"
                }
              ],
              "internalType": "struct Position",
              "name": "base",
              "type": "tuple"
            },
            {
              "internalType": "uint256",
              "name": "totalPosition",
              "type": "uint256"
            },
            {
              "internalType": "uint256",
              "name": "margin",
              "type": "uint256"
            }
          ],
          "internalType": "struct MarginPosition",
          "name": "position",
          "type": "tuple"
        }
      ],
      "name": "canForceClose",
      "outputs": [
        {
          "internalType": "bool",
          "name": "",
          "type": "bool"
        }
      ],
      "stateMutability": "view",
      "type": "function"
    },
    {
      "inputs": [
        {
          "internalType": "address",
          "name": "pool",
          "type": "address"
        },
        {
          "internalType": "address",
          "name": "trader",
          "type": "address"
        },
        {
          "internalType": "bool",
          "name": "positionIsToken0",
          "type": "bool"
        }
      ],
      "name": "getPosition",
      "outputs": [
        {
          "components": [
            {
              "components": [
                {
                  "internalType": "address",
                  "name": "pool",
                  "type": "address"
                },
                {
                  "internalType": "bool",
                  "name": "underAuction",
                  "type": "bool"
                },
                {
                  "internalType": "bool",
                  "name": "isToken0",
                  "type": "bool"
                },
                {
                  "internalType": "uint256",
                  "name": "totalDebtOutput",
                  "type": "uint256"
                },
                {
                  "internalType": "uint256",
                  "name": "totalDebtInput",
                  "type": "uint256"
                },
                {
                  "internalType": "uint256",
                  "name": "recentPremium",
                  "type": "uint256"
                },
                {
                  "internalType": "uint32",
                  "name": "openTime",
                  "type": "uint32"
                },
                {
                  "internalType": "uint32",
                  "name": "repayTime",
                  "type": "uint32"
                },
                {
                  "components": [
                    {
                      "internalType": "int24",
                      "name": "tick",
                      "type": "int24"
                    },
                    {
                      "internalType": "uint128",
                      "name": "liquidity",
                      "type": "uint128"
                    },
                    {
                      "internalType": "uint256",
                      "name": "premium",
                      "type": "uint256"
                    },
                    {
                      "internalType": "uint256",
                      "name": "Urate",
                      "type": "uint256"
                    },
                    {
                      "internalType": "uint256",
                      "name": "feeGrowthInside0LastX128",
                      "type": "uint256"
                    },
                    {
                      "internalType": "uint256",
                      "name": "feeGrowthInside1LastX128",
                      "type": "uint256"
                    },
                    {
                      "internalType": "uint256",
                      "name": "lastGrowth",
                      "type": "uint256"
                    }
                  ],
                  "internalType": "struct LiquidityLoan[]",
                  "name": "borrowInfo",
                  "type": "tuple[]"
                }
              ],
              "internalType": "struct Position",
              "name": "base",
              "type": "tuple"
            },
            {
              "internalType": "uint256",
              "name": "totalPosition",
              "type": "uint256"
            },
            {
              "internalType": "uint256",
              "name": "margin",
              "type": "uint256"
            }
          ],
          "internalType": "struct MarginPosition",
          "name": "",
          "type": "tuple"
        }
      ],
      "stateMutability": "view",
      "type": "function"
    },
    {
      "inputs": [
        {
          "internalType": "PositionId",
          "name": "id",
          "type": "bytes32"
        }
      ],
      "name": "maxWithdrawablePremium",
      "outputs": [
        {
          "internalType": "uint256",
          "name": "",
          "type": "uint256"
        }
      ],
      "stateMutability": "view",
      "type": "function"
    },
    {
      "inputs": [
        {
          "components": [
            {
              "internalType": "address",
              "name": "token0",
              "type": "address"
            },
            {
              "internalType": "address",
              "name": "token1",
              "type": "address"
            },
            {
              "internalType": "uint24",
              "name": "fee",
              "type": "uint24"
            }
          ],
          "internalType": "struct PoolKey",
          "name": "key",
          "type": "tuple"
        },
        {
          "internalType": "address",
          "name": "trader",
          "type": "address"
        },
        {
          "internalType": "bool",
          "name": "isToken0",
          "type": "bool"
        },
        {
          "internalType": "uint256",
          "name": "amount",
          "type": "uint256"
        },
        {
          "internalType": "bool",
          "name": "isDeposit",
          "type": "bool"
        }
      ],
      "name": "modifyPremium",
      "outputs": [],
      "stateMutability": "nonpayable",
      "type": "function"
    },
    {
      "inputs": [
        {
          "internalType": "bytes[]",
          "name": "data",
          "type": "bytes[]"
        }
      ],
      "name": "multicall",
      "outputs": [
        {
          "internalType": "bytes[]",
          "name": "results",
          "type": "bytes[]"
        }
      ],
      "stateMutability": "nonpayable",
      "type": "function"
    },
    {
      "inputs": [
        {
          "components": [
            {
              "internalType": "address",
              "name": "token0",
              "type": "address"
            },
            {
              "internalType": "address",
              "name": "token1",
              "type": "address"
            },
            {
              "internalType": "uint24",
              "name": "fee",
              "type": "uint24"
            }
          ],
          "internalType": "struct PoolKey",
          "name": "key",
          "type": "tuple"
        },
        {
          "internalType": "address",
          "name": "trader",
          "type": "address"
        },
        {
          "internalType": "bool",
          "name": "positionIsToken0",
          "type": "bool"
        }
      ],
      "name": "payPremium",
      "outputs": [
        {
          "internalType": "uint256",
          "name": "premiumOwed",
          "type": "uint256"
        }
      ],
      "stateMutability": "nonpayable",
      "type": "function"
    },
    {
      "inputs": [
        {
          "internalType": "PositionId",
          "name": "",
          "type": "bytes32"
        }
      ],
      "name": "positions",
      "outputs": [
        {
          "components": [
            {
              "internalType": "address",
              "name": "pool",
              "type": "address"
            },
            {
              "internalType": "bool",
              "name": "underAuction",
              "type": "bool"
            },
            {
              "internalType": "bool",
              "name": "isToken0",
              "type": "bool"
            },
            {
              "internalType": "uint256",
              "name": "totalDebtOutput",
              "type": "uint256"
            },
            {
              "internalType": "uint256",
              "name": "totalDebtInput",
              "type": "uint256"
            },
            {
              "internalType": "uint256",
              "name": "recentPremium",
              "type": "uint256"
            },
            {
              "internalType": "uint32",
              "name": "openTime",
              "type": "uint32"
            },
            {
              "internalType": "uint32",
              "name": "repayTime",
              "type": "uint32"
            },
            {
              "components": [
                {
                  "internalType": "int24",
                  "name": "tick",
                  "type": "int24"
                },
                {
                  "internalType": "uint128",
                  "name": "liquidity",
                  "type": "uint128"
                },
                {
                  "internalType": "uint256",
                  "name": "premium",
                  "type": "uint256"
                },
                {
                  "internalType": "uint256",
                  "name": "Urate",
                  "type": "uint256"
                },
                {
                  "internalType": "uint256",
                  "name": "feeGrowthInside0LastX128",
                  "type": "uint256"
                },
                {
                  "internalType": "uint256",
                  "name": "feeGrowthInside1LastX128",
                  "type": "uint256"
                },
                {
                  "internalType": "uint256",
                  "name": "lastGrowth",
                  "type": "uint256"
                }
              ],
              "internalType": "struct LiquidityLoan[]",
              "name": "borrowInfo",
              "type": "tuple[]"
            }
          ],
          "internalType": "struct Position",
          "name": "base",
          "type": "tuple"
        },
        {
          "internalType": "uint256",
          "name": "totalPosition",
          "type": "uint256"
        },
        {
          "internalType": "uint256",
          "name": "margin",
          "type": "uint256"
        }
      ],
      "stateMutability": "view",
      "type": "function"
    },
    {
      "inputs": [
        {
          "components": [
            {
              "internalType": "address",
              "name": "token0",
              "type": "address"
            },
            {
              "internalType": "address",
              "name": "token1",
              "type": "address"
            },
            {
              "internalType": "uint24",
              "name": "fee",
              "type": "uint24"
            }
          ],
          "internalType": "struct PoolKey",
          "name": "key",
          "type": "tuple"
        },
        {
          "components": [
            {
              "internalType": "bool",
              "name": "positionIsToken0",
              "type": "bool"
            },
            {
              "internalType": "uint256",
              "name": "reducePercentage",
              "type": "uint256"
            },
            {
              "internalType": "uint256",
              "name": "reduceAmount",
              "type": "uint256"
            },
            {
              "internalType": "uint256",
              "name": "maxSlippage",
              "type": "uint256"
            },
            {
              "internalType": "address",
              "name": "trader",
              "type": "address"
            },
            {
              "internalType": "uint256",
              "name": "executionOption",
              "type": "uint256"
            },
            {
              "internalType": "bytes32",
              "name": "executionData",
              "type": "bytes32"
            },
            {
              "internalType": "uint160",
              "name": "slippedPrice",
              "type": "uint160"
            },
            {
              "internalType": "uint256",
              "name": "deadline",
              "type": "uint256"
            }
          ],
          "internalType": "struct ReduceParam",
          "name": "param",
          "type": "tuple"
        }
      ],
      "name": "reducePosition",
      "outputs": [
        {
          "components": [
            {
              "internalType": "int256",
              "name": "amount0",
              "type": "int256"
            },
            {
              "internalType": "int256",
              "name": "amount1",
              "type": "int256"
            },
            {
              "internalType": "int256",
              "name": "PnL",
              "type": "int256"
            },
            {
              "internalType": "uint256",
              "name": "returnedAmount",
              "type": "uint256"
            },
            {
              "internalType": "uint256",
              "name": "repaidDebt0",
              "type": "uint256"
            },
            {
              "internalType": "uint256",
              "name": "repaidDebt1",
              "type": "uint256"
            },
            {
              "internalType": "uint256",
              "name": "premium",
              "type": "uint256"
            }
          ],
          "internalType": "struct ReduceReturn",
          "name": "",
          "type": "tuple"
        }
      ],
      "stateMutability": "nonpayable",
      "type": "function"
    }
  ],
  "bytecode": {
    "object": "0x60806040523480156200001157600080fd5b50604051620060ab380380620060ab83398101604081905262000034916200009e565b600080546001600160a01b039485166001600160a01b03199182161790915560018054938516938216939093179092556002805483163317905560038054919093169116179055620000e8565b80516001600160a01b03811681146200009957600080fd5b919050565b600080600060608486031215620000b457600080fd5b620000bf8462000081565b9250620000cf6020850162000081565b9150620000df6040850162000081565b90509250925092565b615fb380620000f86000396000f3fe608060405234801561001057600080fd5b50600436106100a95760003560e01c80637dc8b1a6116100715780637dc8b1a61461019857806386dacdb0146101ab5780638c1395f8146101c0578063ac9650d8146101e0578063d7ae317e14610200578063ee2fc3361461022357600080fd5b806309f068c5146100ae57806326d1281c146100c35780633eb4adab14610135578063514ea4bf146101485780635d4936ff1461016a575b600080fd5b6100c16100bc366004614a62565b610244565b005b6100d66100d1366004614bc0565b6103dc565b60405161012c9190600060e082019050825182526020830151602083015260408301516040830152606083015160608301526080830151608083015260a083015160a083015260c083015160c083015292915050565b60405180910390f35b6100c1610143366004614c7a565b611196565b61015b610156366004614cb3565b6113d5565b60405161012c93929190614e00565b61018a610178366004614cb3565b60056020526000908152604090205481565b60405190815260200161012c565b61018a6101a6366004614e25565b611518565b61018a6101b9366004614cb3565b5060001990565b6101d36101ce366004614e6f565b611921565b60405161012c9190614ee4565b6101f36101ee366004614ef7565b611ac4565b60405161012c9190614fbb565b61021361020e366004615154565b611bb8565b604051901515815260200161012c565b61023661023136600461527b565b611bde565b60405161012c929190615356565b600080546001600160a01b0316631698ee826102636020890189615378565b61027360408a0160208b01615378565b61028360608b0160408c016153a6565b6040516001600160e01b031960e086901b1681526001600160a01b03938416600482015292909116602483015262ffffff166044820152606401602060405180830381865afa1580156102da573d6000803e3d6000fd5b505050506040513d601f19601f820116820180604052508101906102fe91906153c3565b9050600061030d828787612ac1565b9050821561037057600081815260056020526040812080548692906103339084906153f6565b9091555061036b9050856103535761034e6020890189615378565b610363565b6103636040890160208a01615378565b333087612af7565b6103d3565b61037e565b60405180910390fd5b6000818152600560205260408120805486929061039c908490615409565b909155506103d39050856103bf576103ba6040890160208a01615378565b6103cc565b6103cc6020890189615378565b3386612b81565b50505050505050565b61041c6040518060e00160405280600081526020016000815260200160008152602001600081526020016000815260200160008152602001600081525090565b610424614711565b6104646040518060e00160405280600081526020016000815260200160008152602001600081526020016000815260200160008152602001600081525090565b600054604051639525092360e01b81526001600160a01b0390911690639525092390610494908890600401615467565b61018060405180830381865afa1580156104b2573d6000803e3d6000fd5b505050506040513d601f19601f820116820180604052508101906104d69190615487565b60408086019190915260029190910b6020808601919091526001600160a01b03909216808552608087015187519251600094600494869461051b94909390920161556a565b604051602081830303815290604052805190602001208152602001908152602001600020905060008160060154118015610559575060008560200151115b80156105715750670de0b6b3a7640000856020015111155b6105a35760405162461bcd60e51b8152602060048201526003602482015262706f7360e81b6044820152606401610375565b604080516101808101825282546001600160a01b0381166060830190815260ff600160a01b8304811615156080850152600160a81b909204909116151560a0830152600184015460c0830152600284015460e08301526003840154610100830152600484015463ffffffff808216610120850152600160201b9091041661014083015260058401805484516020828102820181019096528181526107049589958c95909489948694929386936101608701939092909160009084015b828210156106e05760008481526020908190206040805160e081018252600686029092018054600281810b855263010000009091046001600160801b03168486015260018083015493850193909352810154606084015260038101546080840152600481015460a08401526005015460c0830152908352909201910161065f565b50505091525050815260068201546020820152600790910154604090910152612bff565b809650819450505082600001516001600160a01b0316633850c7bd6040518163ffffffff1660e01b815260040160e060405180830381865afa15801561074e573d6000803e3d6000fd5b505050506040513d601f19601f8201168201806040525081019061077291906155a8565b5050505060029190910b60c0860152506001600160a01b031660a08401526040516337a6142160e01b815273__$d23a8dd93b7205fa6b646ffed38c165d68$__906337a61421906107ca9060058501906004016156c1565b6040805180830381865af41580156107e6573d6000803e3d6000fd5b505050506040513d601f19601f8201168201806040525081019061080a91906156d4565b600290810b6101008601520b60e084015260a08301516060860151865160405163103d82bb60e11b81526001600160a01b03909316600484015260248301919091521515604482015273__$d23a8dd93b7205fa6b646ffed38c165d68$__9063207b057690606401602060405180830381865af415801561088f573d6000803e3d6000fd5b505050506040513d601f19601f820116820180604052508101906108b391906153c3565b6001600160a01b031661012084015284511561091c578460e001516001600160a01b03168360a001516001600160a01b031610156109175760405162461bcd60e51b81526020600482015260016024820152607360f81b6044820152606401610375565b61096a565b8460e001516001600160a01b03168360a001516001600160a01b0316111561096a5760405162461bcd60e51b81526020600482015260016024820152607360f81b6044820152606401610375565b6020850151600682015461098691670de0b6b3a7640000612e8d565b60408601526020850151670de0b6b3a764000014610a2757602085015160405163069b8a8b60e31b815273__$d23a8dd93b7205fa6b646ffed38c165d68$__916334dc5458916109dd916005860191600401615703565b600060405180830381865af41580156109fa573d6000803e3d6000fd5b505050506040513d6000823e601f3d908101601f19168201604052610a2291908101906157d7565b610acf565b6005810180546040805160208084028201810190925282815292919060009084015b82821015610aca5760008481526020908190206040805160e081018252600686029092018054600281810b855263010000009091046001600160801b03168486015260018083015493850193909352810154606084015260038101546080840152600481015460a08401526005015460c08301529083529092019101610a49565b505050505b6102408401528451610af1578260e0015160020b8360c0015160020b12610b14565b8260200151836101000151610b06919061580b565b60020b8360c0015160020b12155b15610b3057610b2a838684898560070154612f6b565b50610c03565b8451610b5d578260200151836101000151610b4b919061580b565b60020b8360c0015160020b1215610b6f565b8260e0015160020b8360c0015160020b125b15610b9757610b92836102400151868489856000016001015486600701546135ab565b610c03565b606083015160c0015160208601516006830154610bbc91670de0b6b3a7640000612e8d565b14610bf25760405162461bcd60e51b815260206004820152600660248201526521706172616d60d01b6044820152606401610375565b610c03838684898560070154613772565b6060610dd760405180610100016040528089803603810190610c259190615830565b8152604080516101808101825286546001600160a01b0381166060830190815260ff600160a01b8304811615156080850152600160a81b909204909116151560a0830152600188015460c0830152600288015460e08301526003880154610100830152600488015463ffffffff808216610120850152600160201b9091041661014083015260058801805484516020828102820181019096528181529585019593948a94869493869361016087019360009084015b82821015610d5b5760008481526020908190206040805160e081018252600686029092018054600281810b855263010000009091046001600160801b03168486015260018083015493850193909352810154606084015260038101546080840152600481015460a08401526005015460c08301529083529092019101610cda565b5050505081525050815260200160068201548152602001600782015481525050815260200186600001516001600160a01b0316815260200188608001516001600160a01b0316815260200188600001511515815260200186604001518152602001866020015160020b8152602001866102200151815250613b49565b6101a0860182905260c0850191909152600054604051631f71cc1b60e21b81529192506001600160a01b031690637dc7306c90610e1a908a9085906004016158be565b600060405180830381865afa158015610e37573d6000803e3d6000fd5b505050506040513d6000823e601f3d908101601f19168201604052610e5f91908101906157d7565b90508160060154866040015110156110e257604086015160068301805491909103905560208601516002830154610ea291670de0b6b3a764000090810390612e8d565b600283015560208601516001830154610ec791670de0b6b3a764000090810390612e8d565b600183015560208601516007830154610eec91670de0b6b3a764000090810390612e8d565b6007830155815460ff60a01b1916825560005b81518110156110dc576000546005840180546001600160a01b0390921691637f8f1dda918b9185908110610f3557610f356158de565b60009182526020909120600690910201546040516001600160e01b031960e085901b168152610f6b929160020b906004016158f4565b6060604051808303816000875af1158015610f8a573d6000803e3d6000fd5b505050506040513d601f19601f82011682018060405250810190610fae9190615912565b508461024001518181518110610fc657610fc66158de565b602002602001015160200151828281518110610fe457610fe46158de565b60200260200101516020015103828281518110611003576110036158de565b6020026020010151602001906001600160801b031690816001600160801b031681525050818181518110611039576110396158de565b6020026020010151836000016005018281548110611059576110596158de565b600091825260209182902083516006909202018054928401516001600160801b03166301000000026001600160981b031990931662ffffff909216919091179190911781556040820151600180830191909155606083015160028301556080830151600383015560a0830151600483015560c09092015160059091015501610eff565b50611189565b600460008560000151886080015189600001516040516020016111079392919061556a565b60408051601f19818403018152918152815160209283012083529082019290925201600090812080546001600160b01b031916815560018101829055600281018290556003810182905560048101805467ffffffffffffffff1916905590818161117460058301826147cb565b50506006820160009055600782016000905550505b5090925050505b92915050565b6000546001600160a01b03163314806111b957506001546001600160a01b031633145b6111ed5760405162461bcd60e51b8152602060048201526005602482015264042c2eae8d60db1b6044820152606401610375565b60005460405163095ea7b360e01b81526001600160a01b03918216600482015260001960248201529083169063095ea7b3906044016020604051808303816000875af1158015611241573d6000803e3d6000fd5b505050506040513d601f19601f82011682018060405250810190611265919061594e565b5060005460405163095ea7b360e01b81526001600160a01b03918216600482015260001960248201529082169063095ea7b3906044016020604051808303816000875af11580156112ba573d6000803e3d6000fd5b505050506040513d601f19601f820116820180604052508101906112de919061594e565b5060015460405163095ea7b360e01b81526001600160a01b03918216600482015260001960248201529083169063095ea7b3906044016020604051808303816000875af1158015611333573d6000803e3d6000fd5b505050506040513d601f19601f82011682018060405250810190611357919061594e565b5060015460405163095ea7b360e01b81526001600160a01b03918216600482015260001960248201529082169063095ea7b3906044016020604051808303816000875af11580156113ac573d6000803e3d6000fd5b505050506040513d601f19601f820116820180604052508101906113d0919061594e565b505050565b600460208181526000928352604080842081516101208101835281546001600160a01b038116825260ff600160a01b82048116151583870152600160a81b909104161515818401526001820154606082015260028201546080820152600382015460a08201529381015463ffffffff80821660c0870152600160201b9091041660e08501526005810180548351818602810186019094528084529195869461010087019493919084015b828210156115005760008481526020908190206040805160e081018252600686029092018054600281810b855263010000009091046001600160801b03168486015260018083015493850193909352810154606084015260038101546080840152600481015460a08401526005015460c0830152908352909201910161147f565b50505091525050600682015460079092015490919083565b60008054604051639525092360e01b81528291829182916001600160a01b03169063952509239061154d908a90600401615467565b61018060405180830381865afa15801561156b573d6000803e3d6000fd5b505050506040513d601f19601f8201168201806040525081019061158f9190615487565b9250925092506000600460008589896040516020016115b09392919061556a565b60408051808303601f19018152918152815160209283012083529082019290925201600020600481015490915062015180906115f990600160201b900463ffffffff1642615409565b101561162f5760405162461bcd60e51b81526020600482015260056024820152642174696d6560d81b6044820152606401610375565b60606117eb6040518061010001604052808b8036038101906116519190615830565b8152604080516101808101825286546001600160a01b0381166060830190815260ff600160a01b8304811615156080850152600160a81b909204909116151560a0830152600188015460c0830152600288015460e08301526003880154610100830152600488015463ffffffff808216610120850152600160201b9091041661014083015260058801805484516020828102820181019096528181529585019593948a94869493869361016087019360009084015b828210156117875760008481526020908190206040805160e081018252600686029092018054600281810b855263010000009091046001600160801b03168486015260018083015493850193909352810154606084015260038101546080840152600481015460a08401526005015460c08301529083529092019101611706565b50505050815250508152602001600682015481526020016007820154815250508152602001876001600160a01b031681526020018a6001600160a01b0316815260200189151581526020018581526020018660020b81526020016000815250613b49565b60048401805467ffffffff000000001916600160201b4263ffffffff1602179055909650905061181f6005830160006147cb565b60005b815181101561191457600082828151811061183f5761183f6158de565b6020026020010151602001516001600160801b031611156119025782600001600501828281518110611873576118736158de565b60209081029190910181015182546001818101855560009485529383902082516006909202018054938301516001600160801b03166301000000026001600160981b031990941662ffffff90921691909117929092178255604081015192820192909255606082015160028201556080820151600382015560a0820151600482015560c0909101516005909101555b8061190c8161596b565b915050611822565b5050505050509392505050565b6119296147ef565b600460008585856040516020016119429392919061556a565b60408051601f198184030181529181528151602092830120835282820193909352908201600090812083516101808101855281546001600160a01b0381166060830190815260ff600160a01b8304811615156080850152600160a81b909204909116151560a0830152600183015460c0830152600283015460e08301526003830154610100830152600483015463ffffffff808216610120850152600160201b909104166101408301526005830180548751818802810188019098528088529296939587959294879461016088019491939290919084015b82821015611a9b5760008481526020908190206040805160e081018252600686029092018054600281810b855263010000009091046001600160801b03168486015260018083015493850193909352810154606084015260038101546080840152600481015460a08401526005015460c08301529083529092019101611a1a565b5050509152505081526006820154602082015260079091015460409091015290505b9392505050565b6060816001600160401b03811115611ade57611ade614ac9565b604051908082528060200260200182016040528015611b1157816020015b6060815260200190600190039081611afc5790505b50905060005b82811015611bb157611b8130858584818110611b3557611b356158de565b9050602002810190611b479190615984565b8080601f016020809104026020016040519081016040528093929190818152602001838380828437600092019190915250613fa692505050565b828281518110611b9357611b936158de565b60200260200101819052508080611ba99061596b565b915050611b17565b5092915050565b805160e001516000906202a30090611bd69063ffffffff1642615409565b101592915050565b611be66147ef565b6000611bf0614856565b600054604051639525092360e01b81526001600160a01b0390911690639525092390611c20908990600401615467565b61018060405180830381865afa158015611c3e573d6000803e3d6000fd5b505050506040513d601f19601f82011682018060405250810190611c629190615487565b6101a084015260020b6101208301526001600160a01b03166060820152611c898186613fcb565b809650819250505060006004600083606001518860c001518960800151604051602001611cb89392919061556a565b60405160208183030381529060405280519060200120815260200190815260200160002090508451600003611dab576000548651606088015160808901516040808b0151905162ea50f560e41b81526001600160a01b0390951694630ea50f5094611d2b948e94919390926004016159ca565b6000604051808303816000875af1158015611d4a573d6000803e3d6000fd5b505050506040513d6000823e601f3d908101601f19168201604052611d7291908101906159fb565b60e08701929092525060c085019190915260808801519096509050611d9b578160c00151611da1565b8160e001515b6060870152611ee6565b60005460405163aa966e5560e01b81526001600160a01b039091169063aa966e5590611ddd908a9089906004016158be565b6000604051808303816000875af1158015611dfc573d6000803e3d6000fd5b505050506040513d6000823e601f3d908101601f19168201604052611e249190810190615a69565b60e085015260c0808501919091528701519095506001600160a01b03163314611ec757611e76611e62670de0b6b3a7640000655af3107a40006153f6565b606088015190670de0b6b3a7640000612e8d565b8660800151611e89578260c00151611e8f565b8260e001515b1115611ec75760405162461bcd60e51b815260206004820152600760248201526621626f72726f7760c81b6044820152606401610375565b8560800151611eda578160c00151611ee0565b8160e001515b60608701525b8560800151611f0a5760008260c00151118015611f05575060e0820151155b611f20565b60008260e00151118015611f20575060c0820151155b611f5d5760405162461bcd60e51b815260206004820152600e60248201526d1ddc9bdb99c8189bdc9c9bddd95960921b6044820152606401610375565b8560800151611f7857611f736020880188615378565b611f88565b611f886040880160208901615378565b60c087015187516040516323b872dd60e01b81526001600160a01b03928316600482015230602482015260448101919091529116906323b872dd906064016020604051808303816000875af1158015611fe5573d6000803e3d6000fd5b505050506040513d601f19601f82011682018060405250810190612009919061594e565b508560a001516001036121f95781606001516001600160a01b0316633850c7bd6040518163ffffffff1660e01b815260040160e060405180830381865afa158015612058573d6000803e3d6000fd5b505050506040513d601f19601f8201168201806040525081019061207c91906155a8565b505050506001600160a01b03929092166101408501819052602089015160808a015160405163103d82bb60e11b81526004810193909352602483019190915215604482015273__$d23a8dd93b7205fa6b646ffed38c165d68$__925063207b05769150606401602060405180830381865af41580156120ff573d6000803e3d6000fd5b505050506040513d601f19601f8201168201806040525081019061212391906153c3565b6001600160a01b0390811661016084015260015460608085015160808a0151918a01518a51939094169363c90050de939192159161216191906153f6565b61016087015161217460208e018e615378565b8d60200160208101906121879190615378565b6040518763ffffffff1660e01b81526004016121a896959493929190615ab8565b60408051808303816000875af11580156121c6573d6000803e3d6000fd5b505050506040513d601f19601f820116820180604052508101906121ea9190615af2565b60a084015260808301526122ea565b60a08601516002146122ea578560a001516003036122ea578551606087015161222291906153f6565b825160c09081019190915260015460808801516020808601518651909401516001600160a01b039093169363e76001cc93339392612262908e018e615378565b8d60200160208101906122759190615378565b8961018001516040518863ffffffff1660e01b815260040161229d9796959493929190615b16565b60408051808303816000875af11580156122bb573d6000803e3d6000fd5b505050506040513d601f19601f820116820180604052508101906122df9190615af2565b60a084015260808301525b60808601516101208301516040516341533fe760e01b815273__$d23a8dd93b7205fa6b646ffed38c165d68$__926341533fe79261232e928a929190600401615b58565b602060405180830381865af415801561234b573d6000803e3d6000fd5b505050506040513d601f19601f8201168201806040525081019061236f9190615b85565b604083018190526080870151612392578260a0015161238d90615b9e565b6123a0565b82608001516123a090615b9e565b10156123da5760405162461bcd60e51b815260206004820152600960248201526821617667507269636560b81b6044820152606401610375565b6060820151610120830151604051633a814c7360e21b815273__$eacbb88ed4bd2af84aa4d43bcf675bcf7e$__9263ea0531cc9261241c928a90600401615bba565b600060405180830381865af4158015612439573d6000803e3d6000fd5b505050506040513d6000823e601f3d908101601f1916820160405261246191908101906157d7565b600054604051631f71cc1b60e21b81529196506001600160a01b031690637dc7306c90612494908a9089906004016158be565b600060405180830381865afa1580156124b1573d6000803e3d6000fd5b505050506040513d6000823e601f3d908101601f191682016040526124d991908101906157d7565b6005820154909550156127c25760606126bc6040518061010001604052808a8036038101906125089190615830565b8152604080516101808101825286546001600160a01b0381166060830190815260ff600160a01b8304811615156080850152600160a81b909204909116151560a0830152600188015460c0830152600288015460e08301526003880154610100830152600488015463ffffffff808216610120850152600160201b9091041661014083015260058801805484516020828102820181019096528181529585019593948a94869493869361016087019360009084015b8282101561263e5760008481526020908190206040805160e081018252600686029092018054600281810b855263010000009091046001600160801b03168486015260018083015493850193909352810154606084015260038101546080840152600481015460a08401526005015460c083015290835290920191016125bd565b5050505081525050815260200160068201548152602001600782015481525050815260200185606001516001600160a01b031681526020018960c001516001600160a01b03168152602001896080015115158152602001856101a00151815260200185610120015160020b8152602001856101c00151815250613b49565b610100850191909152600054604051631f71cc1b60e21b81529192506001600160a01b031690637dc7306c906126f8908b9085906004016158be565b600060405180830381865afa158015612715573d6000803e3d6000fd5b505050506040513d6000823e601f3d908101601f1916820160405261273d91908101906157d7565b604051630612817160e31b815290915073__$d23a8dd93b7205fa6b646ffed38c165d68$__906330940b88906127799089908590600401615bed565b600060405180830381865af4158015612796573d6000803e3d6000fd5b505050506040513d6000823e601f3d908101601f191682016040526127be91908101906157d7565b9550505b6101a082015160a0015160608701516127e391670de0b6b3a7640000612e8d565b600560006127fe85606001518a60c001518b60800151612ac1565b81526020019081526020016000205410156128465760405162461bcd60e51b8152602060048201526008602482015267217072656d69756d60c01b6044820152606401610375565b600481015463ffffffff166000036128af5760808601516060830151825460048401805463ffffffff191663ffffffff4216179055600161ff0160a01b031916600160a81b921515929092026001600160a01b031916919091176001600160a01b039091161781555b73__$6bb7f30903a8ad7085cc749a1e2b5ad3db$__63ce2f430982886000015189608001516128eb578560a001516128e690615b9e565b6128f9565b85608001516128f990615b9e565b8a606001518760400151428c6040518863ffffffff1660e01b81526004016129279796959493929190615c12565b60006040518083038186803b15801561293f57600080fd5b505af4158015612953573d6000803e3d6000fd5b50505061010080840151604080516101808101825285546001600160a01b0381166060830190815260ff600160a01b8304811615156080850152600160a81b909204909116151560a0830152600187015460c0830152600287015460e0830152600387015494820194909452600486015463ffffffff808216610120840152600160201b90910416610140820152600586018054835160208281028201810190955281815288975094959294879486949386936101608701939260009084015b82821015612a945760008481526020908190206040805160e081018252600686029092018054600281810b855263010000009091046001600160801b03168486015260018083015493850193909352810154606084015260038101546080840152600481015460a08401526005015460c08301529083529092019101612a13565b50505091525050815260068201546020820152600790910154604090910152999098509650505050505050565b6000838383604051602001612ad89392919061556a565b6040516020818303038152906040528051906020012090509392505050565b60006040516323b872dd60e01b81528460048201528360248201528260448201526020600060648360008a5af13d15601f3d1160016000511416171691505080612b7a5760405162461bcd60e51b81526020600482015260146024820152731514905394d1915497d19493d357d1905253115160621b6044820152606401610375565b5050505050565b600060405163a9059cbb60e01b8152836004820152826024820152602060006044836000895af13d15601f3d1160016000511416171691505080612bf95760405162461bcd60e51b815260206004820152600f60248201526e1514905394d1915497d19052531151608a1b6044820152606401610375565b50505050565b612c07614711565b6040805161012081018252600080825260208201819052918101829052606081018290526080810182905260a0810182905260c0810182905260e0810182905261010081019190915260808401516001600160a01b03163314612e4557845160808501518551604051612c8293929190600090602001615c5c565b60408051601f19818403018152918152815160209092019190912061020087018190526001549151632bbc239560e11b81526001600160a01b0390921691635778472a91612cd69160040190815260200190565b61016060405180830381865afa158015612cf4573d6000803e3d6000fd5b505050506040513d601f19601f82011682018060405250810190612d189190615cfb565b606086018190526080015115612e06574285606001516040015163ffffffff1610158015612d4a57508360a001516003145b612d7f5760405162461bcd60e51b81526004016103759060208082526004908201526374696d6560e01b604082015260600190565b612dee856060015160e00151600014612dcc57612dc786606001516060015163ffffffff1642612daf9190615409565b606088015160e0015190670de0b6b3a764000061420e565b612dd6565b670de0b6b3a76400005b60608701516080015190670de0b6b3a7640000612e8d565b6080860152606085015160c001516040850152612e84565b612e0f83611bb8565b612e405760405162461bcd60e51b8152602060048201526002602482015261331960f11b6044820152606401610375565b612e84565b82516020015115612e845760405162461bcd60e51b8152602060048201526009602482015268185d58dd1a5bdb995960ba1b6044820152606401610375565b50929391925050565b6000808060001985870985870292508281108382030391505080600003612ec65760008411612ebb57600080fd5b508290049050611abd565b808411612efe5760405162461bcd60e51b815260206004820152600660248201526536bab62234bb60d11b6044820152606401610375565b6000848688096000868103871696879004966002600389028118808a02820302808a02820302808a02820302808a02820302808a02820302808a02909103029181900381900460010186841190950394909402919094039290920491909117919091029150509392505050565b60008460a0015160010361314b576000612fab8660000151612f91578760e001516142cc565b8760200151886101000151612fa6919061580b565b6142cc565b6001548851885160408a01519394506001600160a01b039092169263c90050de92908161300157856001600160a01b03168c61012001516001600160a01b031611612ffb578b610120015161302c565b8561302c565b856001600160a01b03168c61012001516001600160a01b03161061302a578b610120015161302c565b855b61303960208b018b615378565b61304960408c0160208d01615378565b6040518763ffffffff1660e01b815260040161306a96959493929190615ab8565b60408051808303816000875af1158015613088573d6000803e3d6000fd5b505050506040513d601f19601f820116820180604052508101906130ac9190615af2565b61018089015261016088015285516130e457866101800151866040015110156130d9578560400151613106565b866101800151613106565b866101600151866040015110156130ff578560400151613106565b8661016001515b604087018190526131455760405162461bcd60e51b8152602060048201526009602482015268216e6f72656475636560b81b6044820152606401610375565b5061321d565b60a085015160021461321d578460a0015160030361321d576001548551608088015160408801516001600160a01b039093169263e76001cc92339290159161319660208a018a615378565b6131a660408b0160208c01615378565b8d61020001516040518863ffffffff1660e01b81526004016131ce9796959493929190615b16565b60408051808303816000875af11580156131ec573d6000803e3d6000fd5b505050506040513d601f19601f820116820180604052508101906132109190615af2565b6101808801526101608701525b8460a001516001148061323457508460a001516002145b1561332a5785600001516001600160a01b0316633850c7bd6040518163ffffffff1660e01b815260040160e060405180830381865afa15801561327b573d6000803e3d6000fd5b505050506040513d601f19601f8201168201806040525081019061329f91906155a8565b5050505060029190910b60c0890152505084516132cd578560e0015160020b8660c0015160020b13156132f0565b85602001518661010001516132e2919061580b565b60020b8660c0015160020b12155b61332a5760405162461bcd60e51b815260206004820152600b60248201526a1d1a58dad0dc9bdcdcd95960aa1b6044820152606401610375565b6000546102408701516040516379378b4160e01b81526001600160a01b03909216916379378b4191613363918791903090600401615d95565b60408051808303816000875af1158015613381573d6000803e3d6000fd5b505050506040513d601f19601f820116820180604052508101906133a59190615af2565b60a0860152608085015284511561343a576080840151156133d85760405162461bcd60e51b815260040161037590615dcd565b8360a0015186610180015160000310156134215760405162461bcd60e51b815260206004820152600a60248201526918db1bdcd94819985a5b60b21b6044820152606401610375565b60a08401516101808701510160000360408501526134ba565b60a08401511561345c5760405162461bcd60e51b815260040161037590615dcd565b836080015186610160015160000310156134a55760405162461bcd60e51b815260206004820152600a60248201526918db1bdcd94819985a5b60b21b6044820152606401610375565b60808401516101608701510160000360408501525b84516134d2576134cd6020840184615378565b6134e2565b6134e26040840160208501615378565b6080860151604080870151905163a9059cbb60e01b81526001600160a01b03928316600482015290849003602482015291169063a9059cbb906044016020604051808303816000875af115801561353d573d6000803e3d6000fd5b505050506040513d601f19601f82011682018060405250810190613561919061594e565b5061016086015184526101808601516020808601919091528501518190613592908490670de0b6b3a7640000612e8d565b0184604001818151039150818152505095945050505050565b6000546040516379378b4160e01b81526001600160a01b03909116906379378b41906135df9086908a903090600401615d95565b60408051808303816000875af11580156135fd573d6000803e3d6000fd5b505050506040513d601f19601f820116820180604052508101906136219190615af2565b60a086015260808501528451156136595760a0840151156136545760405162461bcd60e51b815260040161037590615dcd565b61367b565b60808401511561367b5760405162461bcd60e51b815260040161037590615dcd565b6020850151613694908290670de0b6b3a7640000612e8d565b61369d90615b9e565b604085015284516136b2578360a001516136b8565b83608001515b85604001516136c79190615409565b606085015284516136e7576136e26040840160208501615378565b6136f4565b6136f46020840184615378565b6080860151606086015160405163a9059cbb60e01b81526001600160a01b039283166004820152602481019190915291169063a9059cbb906044016020604051808303816000875af115801561374e573d6000803e3d6000fd5b505050506040513d601f19601f820116820180604052508101906103d3919061594e565b60808401516001600160a01b0316331480159061379d57504285606001516040015163ffffffff1610155b6137d25760405162461bcd60e51b815260206004820152600660248201526510b7b93232b960d11b6044820152606401610375565b610240850151602086015160c087015160a088015160405162aba2a960e31b815273__$d23a8dd93b7205fa6b646ffed38c165d68$__9463055d15489461382a949193670de0b6b3a764000093919291600401615dec565b6040805180830381865af4158015613846573d6000803e3d6000fd5b505050506040513d601f19601f8201168201806040525081019061386a9190615af2565b6101e08701526101c0860152604084015160808601516000916138bc91670de0b6b3a76400009161389d91908390612e8d565b87516138ae57886101c001516138b5565b886101e001515b9190612e8d565b60015486519192506001600160a01b03169063e76001cc9033908015906138e857896101c001516138ef565b896101e001515b856138fd60208a018a615378565b61390d60408b0160208c01615378565b8d61020001516040518863ffffffff1660e01b81526004016139359796959493929190615b16565b60408051808303816000875af1158015613953573d6000803e3d6000fd5b505050506040513d601f19601f820116820180604052508101906139779190615af2565b61018088015261016087015284516139a55785610160015161399890615b9e565b866101c0015111156139bd565b8561018001516139b490615b9e565b866101e0015111155b6139ee5760405162461bcd60e51b8152602060048201526002602482015261333360f11b6044820152606401610375565b610160860151845261018086015160208501526000546102408701516040516379378b4160e01b81526001600160a01b03909216916379378b4191613a3a918791903090600401615d95565b60408051808303816000875af1158015613a58573d6000803e3d6000fd5b505050506040513d601f19601f82011682018060405250810190613a7c9190615af2565b60a0860152608085018190526101c0870151148015613aa35750856101e001518460a00151145b613ada5760405162461bcd60e51b8152602060048201526008602482015267726f756e64696e6760c01b6044820152606401610375565b6020850151613af3908390670de0b6b3a7640000612e8d565b613afc90615b9e565b60408501528451613b21578360a00151866101800151613b1c91906153f6565b613b36565b8360800151866101600151613b3691906153f6565b866060015160c001516136c79190615409565b6000606060408084015160008054608087015160c088015160a08901515160208a01515161010001519651630d527ba960e01b81529496879673__$eacbb88ed4bd2af84aa4d43bcf675bcf7e$__96630d527ba996613bbe9692956001600160a01b0390911694921593909291600401615e31565b600060405180830381865af4158015613bdb573d6000803e3d6000fd5b505050506040513d6000823e601f3d908101601f19168201604052613c039190810190615a69565b60208801515161010001929092529250905060008115613e1b57600086604001516001600160a01b0316633850c7bd6040518163ffffffff1660e01b815260040160e060405180830381865afa158015613c61573d6000803e3d6000fd5b505050506040513d601f19601f82011682018060405250810190613c8591906155a8565b5050505060808a015160405163103d82bb60e11b81526001600160a01b0385166004820152670e92596fd629000060248201529015604482015292935060009273__$d23a8dd93b7205fa6b646ffed38c165d68$__925063207b05769150606401602060405180830381865af4158015613d03573d6000803e3d6000fd5b505050506040513d601f19601f82011682018060405250810190613d2791906153c3565b8851805160209091015160015460408c015160808d01519495509293919260009283926001600160a01b03169163c90050de9115613d648c615b9e565b8989896040518763ffffffff1660e01b8152600401613d8896959493929190615ab8565b60408051808303816000875af1158015613da6573d6000803e3d6000fd5b505050506040513d601f19601f82011682018060405250810190613dca9190615af2565b915091508b60800151613ddd5781613ddf565b805b9650613deb878a6153f6565b9850613e148c6080015115613e005784613e02565b835b6000546001600160a01b03168a612b81565b5050505050505b8260056000613e3789604001518a606001518b60800151612ac1565b8152602001908152602001600020541015613e7f5760405162461bcd60e51b81526020600482015260086024820152670859195c1bdcda5d60c21b6044820152606401610375565b8260056000613e9b89604001518a606001518b60800151612ac1565b81526020019081526020016000206000828254039250508190555060008054906101000a90046001600160a01b03166001600160a01b0316631653fc7d8760000151886040015189602001516000015161010001518a608001518b60e00151878a613f069190615409565b896040518863ffffffff1660e01b8152600401613f299796959493929190615e9f565b600060405180830381600087803b158015613f4357600080fd5b505af1158015613f57573d6000803e3d6000fd5b50505050613f918660800151613f6f57865151613f76565b8651602001515b6000546001600160a01b0316613f8c8487615409565b612b81565b50506020909301515161010001519293915050565b6060611abd8383604051806060016040528060278152602001615f57602791396145ee565b613fd3614856565b61402d604051806101200160405280600081526020016000815260200160008152602001600081526020016000151581526020016000815260200160006001600160a01b0316815260200160008152602001600081525090565b60c08301516001600160a01b031633146142015783606001518360c00151846080015160016040516020016140659493929190615c5c565b60408051601f19818403018152918152815160209092019190912061018086018190526001549151632bbc239560e11b81526001600160a01b0390921691635778472a916140b99160040190815260200190565b61016060405180830381865afa1580156140d7573d6000803e3d6000fd5b505050506040513d601f19601f820116820180604052508101906140fb9190615cfb565b808552604001514263ffffffff90911610156141425760405162461bcd60e51b815260206004820152600660248201526510b7b93232b960d11b6044820152606401610375565b8260a0015160031461417a5760405162461bcd60e51b81526020600482015260016024820152603360f91b6044820152606401610375565b835160e001516141dc90156141bd578451606001516141b8906141a39063ffffffff1642615409565b865160e0015190670de0b6b3a764000061420e565b6141c7565b670de0b6b3a76400005b85516080015190670de0b6b3a7640000612e8d565b602085015283516101000151808452845160c001516141fb9190615409565b60608401525b50829050815b9250929050565b60008380156142ae576001841680156142295785925061422d565b8392505b508260011c8460011c94505b84156142a8578560801c1561424d57600080fd5b8586028181018181101561426057600080fd5b859004965050600185161561429d57858302838782041461428657861561428657600080fd5b8181018181101561429657600080fd5b8590049350505b8460011c9450614239565b506142c4565b8380156142be57600092506142c2565b8392505b505b509392505050565b60008060008360020b126142e3578260020b6142eb565b8260020b6000035b9050620d89e8811115614311576040516315e4079d60e11b815260040160405180910390fd5b60008160011660000361432857600160801b61433a565b6ffffcb933bd6fad37aa2d162d1a5940015b70ffffffffffffffffffffffffffffffffff169050600282161561436e576ffff97272373d413259a46990580e213a0260801c5b600482161561438d576ffff2e50f5f656932ef12357cf3c7fdcc0260801c5b60088216156143ac576fffe5caca7e10e4e61c3624eaa0941cd00260801c5b60108216156143cb576fffcb9843d60f6159c9db58835c9266440260801c5b60208216156143ea576fff973b41fa98c081472e6896dfb254c00260801c5b6040821615614409576fff2ea16466c96a3843ec78b326b528610260801c5b6080821615614428576ffe5dee046a99a2a811c461f1969c30530260801c5b610100821615614448576ffcbe86c7900a88aedcffc83b479aa3a40260801c5b610200821615614468576ff987a7253ac413176f2b074cf7815e540260801c5b610400821615614488576ff3392b0822b70005940c7a398e4b70f30260801c5b6108008216156144a8576fe7159475a2c29b7443b29c7fa6e889d90260801c5b6110008216156144c8576fd097f3bdfd2022b8845ad8f792aa58250260801c5b6120008216156144e8576fa9f746462d870fdf8a65dc1f90e061e50260801c5b614000821615614508576f70d869a156d2a1b890bb3df62baf32f70260801c5b618000821615614528576f31be135f97d08fd981231505542fcfa60260801c5b62010000821615614549576f09aa508b5b7a84e1c677de54f3e99bc90260801c5b62020000821615614569576e5d6af8dedb81196699c329225ee6040260801c5b62040000821615614588576d2216e584f5fa1ea926041bedfe980260801c5b620800008216156145a5576b048a170391f7dc42444e8fa20260801c5b60008460020b13156145c65780600019816145c2576145c2615f11565b0490505b600160201b8106156145d95760016145dc565b60005b60ff16602082901c0192505050919050565b6060600080856001600160a01b03168560405161460b9190615f27565b600060405180830381855af49150503d8060008114614646576040519150601f19603f3d011682016040523d82523d6000602084013e61464b565b606091505b509150915061465c86838387614666565b9695505050505050565b606083156146d55782516000036146ce576001600160a01b0385163b6146ce5760405162461bcd60e51b815260206004820152601d60248201527f416464726573733a2063616c6c20746f206e6f6e2d636f6e74726163740000006044820152606401610375565b50816146df565b6146df83836146e7565b949350505050565b8151156146f75781518083602001fd5b8060405162461bcd60e51b81526004016103759190615f43565b6040805161026081018252600080825260208201529081016147316148f9565b815260200161473e614963565b81526020016000815260200160006001600160a01b03168152602001600060020b8152602001600060020b8152602001600060020b815260200160006001600160a01b031681526020016000815260200160008152602001600081526020016000815260200160008152602001600081526020016000801916815260200160008152602001606081525090565b50805460008255600602906000526020600020908101906147ec91906149c6565b50565b604080516101808101909152600060608083018281526080840183905260a0840183905260c0840183905260e08401839052610100840183905261012084018390526101408401929092526101608301528190815260200160008152602001600081525090565b604051806101e0016040528061486a614963565b8152602001600081526020016000815260200160006001600160a01b031681526020016000815260200160008152602001600081526020016000815260200160008152602001600060020b815260200160006001600160a01b0316815260200160006001600160a01b03168152602001600080191681526020016148ec6148f9565b8152602001600081525090565b6040518060c001604052806149366040518060a0016040528060008152602001600081526020016000815260200160008152602001600081525090565b8152602001600081526020016000815260200160008152602001600061ffff168152602001600081525090565b60408051610180810182526000610120820181815261014083018290526101608301829052825260208201819052918101829052606081018290526080810182905260a0810182905260c0810182905260e0810182905261010081019190915290565b5b80821115614a085780546001600160981b031916815560006001820181905560028201819055600382018190556004820181905560058201556006016149c7565b5090565b600060608284031215614a1e57600080fd5b50919050565b6001600160a01b03811681146147ec57600080fd5b8035614a4481614a24565b919050565b80151581146147ec57600080fd5b8035614a4481614a49565b600080600080600060e08688031215614a7a57600080fd5b614a848787614a0c565b94506060860135614a9481614a24565b93506080860135614aa481614a49565b925060a0860135915060c0860135614abb81614a49565b809150509295509295909350565b634e487b7160e01b600052604160045260246000fd5b60405161012081016001600160401b0381118282101715614b0257614b02614ac9565b60405290565b60405160e081016001600160401b0381118282101715614b0257614b02614ac9565b604051606081016001600160401b0381118282101715614b0257614b02614ac9565b60405160c081016001600160401b0381118282101715614b0257614b02614ac9565b60405160a081016001600160401b0381118282101715614b0257614b02614ac9565b604051601f8201601f191681016001600160401b0381118282101715614bb857614bb8614ac9565b604052919050565b600080828403610180811215614bd557600080fd5b614bdf8585614a0c565b925061012080605f1983011215614bf557600080fd5b614bfd614adf565b9150614c0b60608601614a57565b82526080850135602083015260a0850135604083015260c08501356060830152614c3760e08601614a39565b60808301526101008086013560a08401528186013560c0840152614c5e6101408701614a39565b60e0840152610160860135818401525050809150509250929050565b60008060408385031215614c8d57600080fd5b8235614c9881614a24565b91506020830135614ca881614a24565b809150509250929050565b600060208284031215614cc557600080fd5b5035919050565b805160020b82526001600160801b03602082015116602083015260408101516040830152606081015160608301526080810151608083015260a081015160a083015260c081015160c08301525050565b600081518084526020808501945080840160005b83811015614d5657614d43878351614ccc565b60e0969096019590820190600101614d30565b509495945050505050565b600061012060018060a01b0383511684526020830151614d85602086018215159052565b506040830151614d99604086018215159052565b50606083015160608501526080830151608085015260a083015160a085015260c0830151614dcf60c086018263ffffffff169052565b5060e0830151614de760e086018263ffffffff169052565b5061010080840151828287015261465c83870182614d1c565b606081526000614e136060830186614d61565b60208301949094525060400152919050565b600080600060a08486031215614e3a57600080fd5b614e448585614a0c565b92506060840135614e5481614a24565b91506080840135614e6481614a49565b809150509250925092565b600080600060608486031215614e8457600080fd5b8335614e8f81614a24565b92506020840135614e9f81614a24565b91506040840135614e6481614a49565b6000815160608452614ec46060850182614d61565b905060208301516020850152604083015160408501528091505092915050565b602081526000611abd6020830184614eaf565b60008060208385031215614f0a57600080fd5b82356001600160401b0380821115614f2157600080fd5b818501915085601f830112614f3557600080fd5b813581811115614f4457600080fd5b8660208260051b8501011115614f5957600080fd5b60209290920196919550909350505050565b60005b83811015614f86578181015183820152602001614f6e565b50506000910152565b60008151808452614fa7816020860160208601614f6b565b601f01601f19169290920160200192915050565b6000602080830181845280855180835260408601915060408160051b870101925083870160005b8281101561501057603f19888603018452614ffe858351614f8f565b94509285019290850190600101614fe2565b5092979650505050505050565b63ffffffff811681146147ec57600080fd5b8035614a448161501d565b60006001600160401b0382111561505357615053614ac9565b5060051b60200190565b8060020b81146147ec57600080fd5b6001600160801b03811681146147ec57600080fd5b600082601f83011261509257600080fd5b813560206150a76150a28361503a565b614b90565b82815260e092830285018201928282019190878511156150c657600080fd5b8387015b858110156151475781818a0312156150e25760008081fd5b6150ea614b08565b81356150f58161505d565b8152818601356151048161506c565b8187015260408281013590820152606080830135908201526080808301359082015260a0808301359082015260c0808301359082015284529284019281016150ca565b5090979650505050505050565b60006020828403121561516657600080fd5b81356001600160401b038082111561517d57600080fd5b908301906060828603121561519157600080fd5b615199614b2a565b8235828111156151a857600080fd5b830161012081880312156151bb57600080fd5b6151c3614adf565b6151cc82614a39565b81526151da60208301614a57565b60208201526151eb60408301614a57565b6040820152606082013560608201526080820135608082015260a082013560a082015261521a60c0830161502f565b60c082015261522b60e0830161502f565b60e0820152610100808301358581111561524457600080fd5b6152508a828601615081565b8284015250508083525050602083013560208201526040830135604082015280935050505092915050565b60008060008385036101a081121561529257600080fd5b61529c8686614a0c565b935061012080605f19830112156152b257600080fd5b6152ba614adf565b9150606086013582526080860135602083015260a0860135604083015260c086013560608301526152ed60e08701614a57565b60808301526101008087013560a0840152615309828801614a39565b60c084015261014087013560e0840152610160870135908301525091506101808401356001600160401b0381111561534057600080fd5b61534c86828701615081565b9150509250925092565b6040815260006153696040830185614eaf565b90508260208301529392505050565b60006020828403121561538a57600080fd5b8135611abd81614a24565b62ffffff811681146147ec57600080fd5b6000602082840312156153b857600080fd5b8135611abd81615395565b6000602082840312156153d557600080fd5b8151611abd81614a24565b634e487b7160e01b600052601160045260246000fd5b80820180821115611190576111906153e0565b81810381811115611190576111906153e0565b803561542781614a24565b6001600160a01b03908116835260208201359061544382614a24565b166020830152604081013561545781615395565b62ffffff81166040840152505050565b60608101611190828461541c565b805161ffff81168114614a4457600080fd5b600080600083850361018081121561549e57600080fd5b84516154a981614a24565b60208601519094506154ba8161505d565b9250603f1901610140808212156154d057600080fd5b6154d8614b4c565b60a08312156154e657600080fd5b6154ee614b6e565b925060408701518352606087015160208401526080870151604084015260a0870151606084015260c0870151608084015282815260e087015160208201526101008701516040820152610120870151606082015261554d828801615475565b608082015261016087015160a08201528093505050509250925092565b6bffffffffffffffffffffffff19606094851b811682529290931b9091166014830152151560f81b602882015260290190565b8051614a4481614a49565b600080600080600080600060e0888a0312156155c357600080fd5b87516155ce81614a24565b60208901519097506155df8161505d565b95506155ed60408901615475565b94506155fb60608901615475565b935061560960808901615475565b925060a088015160ff8116811461561f57600080fd5b60c089015190925061563081614a49565b8091505092959891949750929550565b6000815480845260208085019450836000528060002060005b83811015614d56578154600281810b895260189190911c6001600160801b03168489015260018084015460408a015290830154606089015260038301546080890152600483015460a0890152600583015460c089015260e09097019660069092019101615659565b602081526000611abd6020830184615640565b600080604083850312156156e757600080fd5b82516156f28161505d565b6020840151909250614ca88161505d565b6040815260006153696040830185615640565b600082601f83011261572757600080fd5b815160206157376150a28361503a565b82815260e0928302850182019282820191908785111561575657600080fd5b8387015b858110156151475781818a0312156157725760008081fd5b61577a614b08565b81516157858161505d565b8152818601516157948161506c565b8187015260408281015190820152606080830151908201526080808301519082015260a0808301519082015260c08083015190820152845292840192810161575a565b6000602082840312156157e957600080fd5b81516001600160401b038111156157ff57600080fd5b6146df84828501615716565b600281810b9083900b01627fffff8113627fffff1982121715611190576111906153e0565b60006060828403121561584257600080fd5b61584a614b2a565b823561585581614a24565b8152602083013561586581614a24565b6020820152604083013561587881615395565b60408201529392505050565b600081518084526020808501945080840160005b83811015614d56576158ab878351614ccc565b60e0969096019590820190600101615898565b6158c8818461541c565b6080606082015260006146df6080830184615884565b634e487b7160e01b600052603260045260246000fd5b60808101615902828561541c565b8260020b60608301529392505050565b60006060828403121561592457600080fd5b61592c614b2a565b8251815260208301516020820152604083015160408201528091505092915050565b60006020828403121561596057600080fd5b8151611abd81614a49565b60006001820161597d5761597d6153e0565b5060010190565b6000808335601e1984360301811261599b57600080fd5b8301803591506001600160401b038211156159b557600080fd5b60200191503681900382131561420757600080fd5b60e081016159d8828861541c565b6060820195909552608081019390935290151560a083015260c090910152919050565b600080600080600060a08688031215615a1357600080fd5b8551615a1e81614a24565b8095505060208601519350604086015192506060860151915060808601516001600160401b03811115615a5057600080fd5b615a5c88828901615716565b9150509295509295909350565b600080600060608486031215615a7e57600080fd5b83516001600160401b03811115615a9457600080fd5b615aa086828701615716565b93505060208401519150604084015190509250925092565b6001600160a01b0396871681529415156020860152604085019390935290841660608401528316608083015290911660a082015260c00190565b60008060408385031215615b0557600080fd5b505080516020909101519092909150565b6001600160a01b0397881681529515156020870152604086019490945260608501929092528416608084015290921660a082015260c081019190915260e00190565b606081526000615b6b6060830186615884565b93151560208301525060029190910b604090910152919050565b600060208284031215615b9757600080fd5b5051919050565b6000600160ff1b8201615bb357615bb36153e0565b5060000390565b60018060a01b03841681528260020b6020820152606060408201526000615be46060830184615884565b95945050505050565b604081526000615c006040830185615884565b8281036020840152615be48185615884565b87815286602082015285604082015284606082015283608082015263ffffffff831660a082015260e060c08201526000615c4f60e0830184615884565b9998505050505050505050565b6bffffffffffffffffffffffff19606095861b811682529390941b9092166014840152151560f890811b6028840152901515901b6029820152602a0190565b600060608284031215615cad57600080fd5b615cb5614b2a565b90508151615cc281614a24565b81526020820151615cd281614a24565b60208201526040820151615ce581615395565b604082015292915050565b8051614a448161501d565b60006101608284031215615d0e57600080fd5b615d16614adf565b615d208484615c9b565b8152615d2e6060840161559d565b6020820152615d3f60808401615cf0565b6040820152615d5060a08401615cf0565b606082015260c0830151608082015260e083015160a08201526101008084015160c083015261012084015160e083015261014084015181830152508091505092915050565b615d9f818561541c565b60a060608201526000615db560a0830185615884565b905060018060a01b0383166080830152949350505050565b602080825260059082015264085b5a5b9d60da1b604082015260600190565b60a081526000615dff60a0830188615884565b602083019690965250600293840b60408201529190920b60608201526001600160a01b03909116608090910152919050565b600061014060018060a01b03808a16845280891660208501525086151560408401528560020b606084015284516080840152602085015160a0840152604085015160c0840152606085015160e0840152608085015161010084015280610120840152615c4f81840185615884565b87516001600160a01b0390811682526020808a01518216908301526040808a015162ffffff16908301528716606082015261012060808201819052600090615ee983820189615884565b96151560a0840152505060c081019390935260e0830191909152610100909101529392505050565b634e487b7160e01b600052601260045260246000fd5b60008251615f39818460208701614f6b565b9190910192915050565b602081526000611abd6020830184614f8f56fe416464726573733a206c6f772d6c6576656c2064656c65676174652063616c6c206661696c6564a2646970667358221220662cb1ad8483cee35bafcb5be7d5b9a669b6b1e8d6e83f8001301a171656273564736f6c63430008150033",
    "linkReferences": {
      "src/PremiumComputer.sol": {
        "PremiumComputer": [
          {
            "start": 9452,
            "length": 20
          },
          {
            "start": 15484,
            "length": 20
          }
        ]
      },
      "src/Util.sol": {
        "Utils": [
          {
            "start": 2199,
            "length": 20
          },
          {
            "start": 2381,
            "length": 20
          },
          {
            "start": 2730,
            "length": 20
          },
          {
            "start": 8635,
            "length": 20
          },
          {
            "start": 9212,
            "length": 20
          },
          {
            "start": 10311,
            "length": 20
          },
          {
            "start": 14573,
            "length": 20
          },
          {
            "start": 15807,
            "length": 20
          }
        ]
      },
      "src/libraries/MarginPosition.sol": {
        "MarginPositionLib": [
          {
            "start": 10665,
            "length": 20
          }
        ]
      }
    }
  },
  "methodIdentifiers": {
    "PremiumDeposit(bytes32)": "5d4936ff",
    "addPosition((address,address,uint24),(uint256,uint256,uint256,uint256,bool,uint256,address,uint256,uint256),(int24,uint128,uint256,uint256,uint256,uint256,uint256)[])": "ee2fc336",
    "approveTokens(address,address)": "3eb4adab",
    "canForceClose(((address,bool,bool,uint256,uint256,uint256,uint32,uint32,(int24,uint128,uint256,uint256,uint256,uint256,uint256)[]),uint256,uint256))": "d7ae317e",
    "getPosition(address,address,bool)": "8c1395f8",
    "maxWithdrawablePremium(bytes32)": "86dacdb0",
    "modifyPremium((address,address,uint24),address,bool,uint256,bool)": "09f068c5",
    "multicall(bytes[])": "ac9650d8",
    "payPremium((address,address,uint24),address,bool)": "7dc8b1a6",
    "positions(bytes32)": "514ea4bf",
    "reducePosition((address,address,uint24),(bool,uint256,uint256,uint256,address,uint256,bytes32,uint160,uint256))": "26d1281c"
  },
  "id": 40
}