{
  "abi": [
    {
      "inputs": [],
      "name": "addReduceInvalidTick",
      "type": "error"
    },
    {
      "inputs": [],
      "name": "cantForceClose",
      "type": "error"
    },
    {
      "inputs": [],
      "name": "exceedMaxWithdrawablePremium",
      "type": "error"
    },
    {
      "inputs": [],
      "name": "noPosition",
      "type": "error"
    },
    {
      "anonymous": false,
      "inputs": [
        {
          "indexed": true,
          "internalType": "address",
          "name": "pool",
          "type": "address"
        },
        {
          "indexed": true,
          "internalType": "bool",
          "name": "positionIsToken0",
          "type": "bool"
        },
        {
          "indexed": true,
          "internalType": "address",
          "name": "trader",
          "type": "address"
        },
        {
          "indexed": false,
          "internalType": "uint256",
          "name": "forcedClosedAmount",
          "type": "uint256"
        },
        {
          "indexed": false,
          "internalType": "uint256",
          "name": "fillerPayAmount",
          "type": "uint256"
        },
        {
          "indexed": false,
          "internalType": "uint256",
          "name": "rangeCondition",
          "type": "uint256"
        }
      ],
      "name": "ForceClosed",
      "type": "event"
    },
    {
      "anonymous": false,
      "inputs": [
        {
          "indexed": false,
          "internalType": "uint8",
          "name": "version",
          "type": "uint8"
        }
      ],
      "name": "Initialized",
      "type": "event"
    },
    {
      "anonymous": false,
      "inputs": [
        {
          "indexed": true,
          "internalType": "address",
          "name": "pool",
          "type": "address"
        },
        {
          "indexed": true,
          "internalType": "bool",
          "name": "positionIsToken0",
          "type": "bool"
        },
        {
          "indexed": true,
          "internalType": "address",
          "name": "trader",
          "type": "address"
        },
        {
          "indexed": false,
          "internalType": "address",
          "name": "filler",
          "type": "address"
        },
        {
          "indexed": false,
          "internalType": "uint256",
          "name": "addedAmount",
          "type": "uint256"
        },
        {
          "indexed": false,
          "internalType": "uint256",
          "name": "marginAmount",
          "type": "uint256"
        },
        {
          "indexed": false,
          "internalType": "uint256",
          "name": "borrowAmount",
          "type": "uint256"
        },
        {
          "indexed": false,
          "internalType": "uint256",
          "name": "premiumPaid",
          "type": "uint256"
        },
        {
          "indexed": false,
          "internalType": "uint256",
          "name": "feePaid",
          "type": "uint256"
        }
      ],
      "name": "MarginPositionIncreased",
      "type": "event"
    },
    {
      "anonymous": false,
      "inputs": [
        {
          "indexed": true,
          "internalType": "address",
          "name": "pool",
          "type": "address"
        },
        {
          "indexed": true,
          "internalType": "bool",
          "name": "positionIsToken0",
          "type": "bool"
        },
        {
          "indexed": true,
          "internalType": "address",
          "name": "trader",
          "type": "address"
        },
        {
          "indexed": false,
          "internalType": "address",
          "name": "filler",
          "type": "address"
        },
        {
          "indexed": false,
          "internalType": "uint256",
          "name": "reduceAmount",
          "type": "uint256"
        },
        {
          "indexed": false,
          "internalType": "uint256",
          "name": "premiumPaid",
          "type": "uint256"
        },
        {
          "indexed": false,
          "internalType": "uint256",
          "name": "feePaid",
          "type": "uint256"
        }
      ],
      "name": "MarginPositionReduced",
      "type": "event"
    },
    {
      "anonymous": false,
      "inputs": [
        {
          "indexed": true,
          "internalType": "address",
          "name": "pool",
          "type": "address"
        },
        {
          "indexed": true,
          "internalType": "bool",
          "name": "positionIsToken0",
          "type": "bool"
        },
        {
          "indexed": true,
          "internalType": "address",
          "name": "trader",
          "type": "address"
        },
        {
          "indexed": false,
          "internalType": "bool",
          "name": "isAdd",
          "type": "bool"
        },
        {
          "indexed": false,
          "internalType": "uint256",
          "name": "deadline",
          "type": "uint256"
        },
        {
          "indexed": false,
          "internalType": "uint256",
          "name": "startOutput",
          "type": "uint256"
        },
        {
          "indexed": false,
          "internalType": "uint256",
          "name": "minOutput",
          "type": "uint256"
        },
        {
          "indexed": false,
          "internalType": "uint256",
          "name": "inputAmount",
          "type": "uint256"
        },
        {
          "indexed": false,
          "internalType": "uint256",
          "name": "decayRate",
          "type": "uint256"
        },
        {
          "indexed": false,
          "internalType": "uint256",
          "name": "margin",
          "type": "uint256"
        }
      ],
      "name": "OrderAdded",
      "type": "event"
    },
    {
      "anonymous": false,
      "inputs": [
        {
          "indexed": true,
          "internalType": "address",
          "name": "pool",
          "type": "address"
        },
        {
          "indexed": true,
          "internalType": "bool",
          "name": "positionIsToken0",
          "type": "bool"
        },
        {
          "indexed": true,
          "internalType": "address",
          "name": "trader",
          "type": "address"
        },
        {
          "indexed": false,
          "internalType": "bool",
          "name": "isAdd",
          "type": "bool"
        }
      ],
      "name": "OrderCanceled",
      "type": "event"
    },
    {
      "anonymous": false,
      "inputs": [
        {
          "indexed": true,
          "internalType": "address",
          "name": "payer",
          "type": "address"
        },
        {
          "indexed": true,
          "internalType": "address",
          "name": "pool",
          "type": "address"
        },
        {
          "indexed": false,
          "internalType": "bool",
          "name": "isToken1",
          "type": "bool"
        },
        {
          "indexed": false,
          "internalType": "uint256",
          "name": "amount",
          "type": "uint256"
        }
      ],
      "name": "PremiumDeposited",
      "type": "event"
    },
    {
      "anonymous": false,
      "inputs": [
        {
          "indexed": true,
          "internalType": "address",
          "name": "withdrawer",
          "type": "address"
        },
        {
          "indexed": true,
          "internalType": "address",
          "name": "pool",
          "type": "address"
        },
        {
          "indexed": false,
          "internalType": "bool",
          "name": "isToken1",
          "type": "bool"
        },
        {
          "indexed": false,
          "internalType": "uint256",
          "name": "amount",
          "type": "uint256"
        }
      ],
      "name": "PremiumWithdrawn",
      "type": "event"
    },
    {
      "inputs": [
        {
          "internalType": "PositionId",
          "name": "",
          "type": "bytes32"
        }
      ],
      "name": "PremiumDeposit",
      "outputs": [
        {
          "internalType": "uint256",
          "name": "",
          "type": "uint256"
        }
      ],
      "stateMutability": "view",
      "type": "function"
    },
    {
      "inputs": [
        {
          "internalType": "address",
          "name": "pm",
          "type": "address"
        },
        {
          "internalType": "address",
          "name": "ex",
          "type": "address"
        }
      ],
      "name": "_initialize",
      "outputs": [],
      "stateMutability": "nonpayable",
      "type": "function"
    },
    {
      "inputs": [
        {
          "components": [
            {
              "internalType": "address",
              "name": "token0",
              "type": "address"
            },
            {
              "internalType": "address",
              "name": "token1",
              "type": "address"
            },
            {
              "internalType": "uint24",
              "name": "fee",
              "type": "uint24"
            }
          ],
          "internalType": "struct PoolKey",
          "name": "key",
          "type": "tuple"
        },
        {
          "components": [
            {
              "internalType": "uint256",
              "name": "margin",
              "type": "uint256"
            },
            {
              "internalType": "uint256",
              "name": "minOutput",
              "type": "uint256"
            },
            {
              "internalType": "uint256",
              "name": "simulatedOutput",
              "type": "uint256"
            },
            {
              "internalType": "uint256",
              "name": "borrowAmount",
              "type": "uint256"
            },
            {
              "internalType": "bool",
              "name": "positionIsToken0",
              "type": "bool"
            },
            {
              "internalType": "uint256",
              "name": "executionOption",
              "type": "uint256"
            },
            {
              "internalType": "address",
              "name": "trader",
              "type": "address"
            },
            {
              "internalType": "bytes",
              "name": "executionData",
              "type": "bytes"
            },
            {
              "internalType": "int24",
              "name": "slippedTickMin",
              "type": "int24"
            },
            {
              "internalType": "int24",
              "name": "slippedTickMax",
              "type": "int24"
            }
          ],
          "internalType": "struct AddParams",
          "name": "param",
          "type": "tuple"
        },
        {
          "components": [
            {
              "internalType": "int24",
              "name": "tick",
              "type": "int24"
            },
            {
              "internalType": "uint128",
              "name": "liquidity",
              "type": "uint128"
            },
            {
              "internalType": "uint256",
              "name": "premium",
              "type": "uint256"
            },
            {
              "internalType": "uint256",
              "name": "feeGrowthInside0LastX128",
              "type": "uint256"
            },
            {
              "internalType": "uint256",
              "name": "feeGrowthInside1LastX128",
              "type": "uint256"
            },
            {
              "internalType": "uint256",
              "name": "lastGrowth",
              "type": "uint256"
            }
          ],
          "internalType": "struct LiquidityLoan[]",
          "name": "borrowInfo",
          "type": "tuple[]"
        }
      ],
      "name": "addPosition",
      "outputs": [
        {
          "components": [
            {
              "components": [
                {
                  "internalType": "address",
                  "name": "pool",
                  "type": "address"
                },
                {
                  "internalType": "bool",
                  "name": "isToken0",
                  "type": "bool"
                },
                {
                  "internalType": "uint256",
                  "name": "totalDebtOutput",
                  "type": "uint256"
                },
                {
                  "internalType": "uint256",
                  "name": "totalDebtInput",
                  "type": "uint256"
                },
                {
                  "internalType": "uint32",
                  "name": "lastPremiumPaymentTime",
                  "type": "uint32"
                },
                {
                  "internalType": "uint32",
                  "name": "openTime",
                  "type": "uint32"
                },
                {
                  "components": [
                    {
                      "internalType": "int24",
                      "name": "tick",
                      "type": "int24"
                    },
                    {
                      "internalType": "uint128",
                      "name": "liquidity",
                      "type": "uint128"
                    },
                    {
                      "internalType": "uint256",
                      "name": "premium",
                      "type": "uint256"
                    },
                    {
                      "internalType": "uint256",
                      "name": "feeGrowthInside0LastX128",
                      "type": "uint256"
                    },
                    {
                      "internalType": "uint256",
                      "name": "feeGrowthInside1LastX128",
                      "type": "uint256"
                    },
                    {
                      "internalType": "uint256",
                      "name": "lastGrowth",
                      "type": "uint256"
                    }
                  ],
                  "internalType": "struct LiquidityLoan[]",
                  "name": "borrowInfo",
                  "type": "tuple[]"
                }
              ],
              "internalType": "struct Position",
              "name": "base",
              "type": "tuple"
            },
            {
              "internalType": "uint256",
              "name": "totalPosition",
              "type": "uint256"
            },
            {
              "internalType": "uint256",
              "name": "margin",
              "type": "uint256"
            }
          ],
          "internalType": "struct MarginPosition",
          "name": "position",
          "type": "tuple"
        },
        {
          "internalType": "uint256",
          "name": "premiumOwed",
          "type": "uint256"
        },
        {
          "internalType": "uint256",
          "name": "fee",
          "type": "uint256"
        }
      ],
      "stateMutability": "nonpayable",
      "type": "function"
    },
    {
      "inputs": [
        {
          "internalType": "address",
          "name": "token0",
          "type": "address"
        },
        {
          "internalType": "address",
          "name": "token1",
          "type": "address"
        }
      ],
      "name": "approveTokens",
      "outputs": [],
      "stateMutability": "nonpayable",
      "type": "function"
    },
    {
      "inputs": [
        {
          "components": [
            {
              "internalType": "address",
              "name": "token0",
              "type": "address"
            },
            {
              "internalType": "address",
              "name": "token1",
              "type": "address"
            },
            {
              "internalType": "uint24",
              "name": "fee",
              "type": "uint24"
            }
          ],
          "internalType": "struct PoolKey",
          "name": "key",
          "type": "tuple"
        },
        {
          "components": [
            {
              "components": [
                {
                  "internalType": "address",
                  "name": "pool",
                  "type": "address"
                },
                {
                  "internalType": "bool",
                  "name": "isToken0",
                  "type": "bool"
                },
                {
                  "internalType": "uint256",
                  "name": "totalDebtOutput",
                  "type": "uint256"
                },
                {
                  "internalType": "uint256",
                  "name": "totalDebtInput",
                  "type": "uint256"
                },
                {
                  "internalType": "uint32",
                  "name": "lastPremiumPaymentTime",
                  "type": "uint32"
                },
                {
                  "internalType": "uint32",
                  "name": "openTime",
                  "type": "uint32"
                },
                {
                  "components": [
                    {
                      "internalType": "int24",
                      "name": "tick",
                      "type": "int24"
                    },
                    {
                      "internalType": "uint128",
                      "name": "liquidity",
                      "type": "uint128"
                    },
                    {
                      "internalType": "uint256",
                      "name": "premium",
                      "type": "uint256"
                    },
                    {
                      "internalType": "uint256",
                      "name": "feeGrowthInside0LastX128",
                      "type": "uint256"
                    },
                    {
                      "internalType": "uint256",
                      "name": "feeGrowthInside1LastX128",
                      "type": "uint256"
                    },
                    {
                      "internalType": "uint256",
                      "name": "lastGrowth",
                      "type": "uint256"
                    }
                  ],
                  "internalType": "struct LiquidityLoan[]",
                  "name": "borrowInfo",
                  "type": "tuple[]"
                }
              ],
              "internalType": "struct Position",
              "name": "base",
              "type": "tuple"
            },
            {
              "internalType": "uint256",
              "name": "totalPosition",
              "type": "uint256"
            },
            {
              "internalType": "uint256",
              "name": "margin",
              "type": "uint256"
            }
          ],
          "internalType": "struct MarginPosition",
          "name": "position",
          "type": "tuple"
        },
        {
          "internalType": "address",
          "name": "pool",
          "type": "address"
        },
        {
          "internalType": "address",
          "name": "trader",
          "type": "address"
        },
        {
          "internalType": "bool",
          "name": "positionIsToken0",
          "type": "bool"
        }
      ],
      "name": "canForceClose",
      "outputs": [
        {
          "internalType": "bool",
          "name": "",
          "type": "bool"
        }
      ],
      "stateMutability": "view",
      "type": "function"
    },
    {
      "inputs": [
        {
          "components": [
            {
              "components": [
                {
                  "internalType": "address",
                  "name": "pool",
                  "type": "address"
                },
                {
                  "internalType": "bool",
                  "name": "isToken0",
                  "type": "bool"
                },
                {
                  "internalType": "uint256",
                  "name": "totalDebtOutput",
                  "type": "uint256"
                },
                {
                  "internalType": "uint256",
                  "name": "totalDebtInput",
                  "type": "uint256"
                },
                {
                  "internalType": "uint32",
                  "name": "lastPremiumPaymentTime",
                  "type": "uint32"
                },
                {
                  "internalType": "uint32",
                  "name": "openTime",
                  "type": "uint32"
                },
                {
                  "components": [
                    {
                      "internalType": "int24",
                      "name": "tick",
                      "type": "int24"
                    },
                    {
                      "internalType": "uint128",
                      "name": "liquidity",
                      "type": "uint128"
                    },
                    {
                      "internalType": "uint256",
                      "name": "premium",
                      "type": "uint256"
                    },
                    {
                      "internalType": "uint256",
                      "name": "feeGrowthInside0LastX128",
                      "type": "uint256"
                    },
                    {
                      "internalType": "uint256",
                      "name": "feeGrowthInside1LastX128",
                      "type": "uint256"
                    },
                    {
                      "internalType": "uint256",
                      "name": "lastGrowth",
                      "type": "uint256"
                    }
                  ],
                  "internalType": "struct LiquidityLoan[]",
                  "name": "borrowInfo",
                  "type": "tuple[]"
                }
              ],
              "internalType": "struct Position",
              "name": "base",
              "type": "tuple"
            },
            {
              "internalType": "uint256",
              "name": "totalPosition",
              "type": "uint256"
            },
            {
              "internalType": "uint256",
              "name": "margin",
              "type": "uint256"
            }
          ],
          "internalType": "struct MarginPosition",
          "name": "position",
          "type": "tuple"
        }
      ],
      "name": "canForceClose",
      "outputs": [
        {
          "internalType": "bool",
          "name": "",
          "type": "bool"
        }
      ],
      "stateMutability": "view",
      "type": "function"
    },
    {
      "inputs": [
        {
          "internalType": "address",
          "name": "pool",
          "type": "address"
        },
        {
          "internalType": "bool",
          "name": "positionIsToken0",
          "type": "bool"
        },
        {
          "internalType": "bool",
          "name": "isAdd",
          "type": "bool"
        }
      ],
      "name": "cancelOrder",
      "outputs": [],
      "stateMutability": "nonpayable",
      "type": "function"
    },
    {
      "inputs": [
        {
          "internalType": "address",
          "name": "pool",
          "type": "address"
        },
        {
          "internalType": "address",
          "name": "borrower",
          "type": "address"
        },
        {
          "internalType": "bool",
          "name": "borrowedToken1",
          "type": "bool"
        }
      ],
      "name": "checkPositionExists",
      "outputs": [
        {
          "internalType": "bool",
          "name": "",
          "type": "bool"
        }
      ],
      "stateMutability": "view",
      "type": "function"
    },
    {
      "inputs": [
        {
          "components": [
            {
              "internalType": "address",
              "name": "token0",
              "type": "address"
            },
            {
              "internalType": "address",
              "name": "token1",
              "type": "address"
            },
            {
              "internalType": "uint24",
              "name": "fee",
              "type": "uint24"
            }
          ],
          "internalType": "struct PoolKey",
          "name": "key",
          "type": "tuple"
        },
        {
          "internalType": "address",
          "name": "trader",
          "type": "address"
        },
        {
          "internalType": "bool",
          "name": "borrowToken1",
          "type": "bool"
        },
        {
          "internalType": "uint256",
          "name": "amount",
          "type": "uint256"
        }
      ],
      "name": "depositPremium",
      "outputs": [],
      "stateMutability": "nonpayable",
      "type": "function"
    },
    {
      "inputs": [],
      "name": "executioner",
      "outputs": [
        {
          "internalType": "contract Executioner",
          "name": "",
          "type": "address"
        }
      ],
      "stateMutability": "view",
      "type": "function"
    },
    {
      "inputs": [
        {
          "components": [
            {
              "internalType": "address",
              "name": "token0",
              "type": "address"
            },
            {
              "internalType": "address",
              "name": "token1",
              "type": "address"
            },
            {
              "internalType": "uint24",
              "name": "fee",
              "type": "uint24"
            }
          ],
          "internalType": "struct PoolKey",
          "name": "key",
          "type": "tuple"
        },
        {
          "components": [
            {
              "internalType": "address",
              "name": "trader",
              "type": "address"
            },
            {
              "internalType": "bool",
              "name": "positionIsToken0",
              "type": "bool"
            },
            {
              "internalType": "uint256",
              "name": "fillerPayAmount",
              "type": "uint256"
            },
            {
              "internalType": "int24",
              "name": "slippedTickMin",
              "type": "int24"
            },
            {
              "internalType": "int24",
              "name": "slippedTickMax",
              "type": "int24"
            }
          ],
          "internalType": "struct ForceCloseParams",
          "name": "param",
          "type": "tuple"
        }
      ],
      "name": "forceClose",
      "outputs": [
        {
          "internalType": "uint256",
          "name": "premium",
          "type": "uint256"
        }
      ],
      "stateMutability": "nonpayable",
      "type": "function"
    },
    {
      "inputs": [
        {
          "internalType": "address",
          "name": "pool",
          "type": "address"
        },
        {
          "internalType": "address",
          "name": "borrower",
          "type": "address"
        },
        {
          "internalType": "bool",
          "name": "borrowedToken1",
          "type": "bool"
        }
      ],
      "name": "getBorrowInfo",
      "outputs": [
        {
          "components": [
            {
              "internalType": "int24",
              "name": "tick",
              "type": "int24"
            },
            {
              "internalType": "uint128",
              "name": "liquidity",
              "type": "uint128"
            },
            {
              "internalType": "uint256",
              "name": "premium",
              "type": "uint256"
            },
            {
              "internalType": "uint256",
              "name": "feeGrowthInside0LastX128",
              "type": "uint256"
            },
            {
              "internalType": "uint256",
              "name": "feeGrowthInside1LastX128",
              "type": "uint256"
            },
            {
              "internalType": "uint256",
              "name": "lastGrowth",
              "type": "uint256"
            }
          ],
          "internalType": "struct LiquidityLoan[]",
          "name": "",
          "type": "tuple[]"
        }
      ],
      "stateMutability": "view",
      "type": "function"
    },
    {
      "inputs": [
        {
          "internalType": "address",
          "name": "pool",
          "type": "address"
        },
        {
          "internalType": "address",
          "name": "trader",
          "type": "address"
        },
        {
          "internalType": "bool",
          "name": "positionIsToken0",
          "type": "bool"
        }
      ],
      "name": "getLastRepayTime",
      "outputs": [
        {
          "internalType": "uint32",
          "name": "",
          "type": "uint32"
        }
      ],
      "stateMutability": "view",
      "type": "function"
    },
    {
      "inputs": [
        {
          "internalType": "address",
          "name": "pool",
          "type": "address"
        },
        {
          "internalType": "address",
          "name": "trader",
          "type": "address"
        },
        {
          "internalType": "bool",
          "name": "positionIsToken0",
          "type": "bool"
        },
        {
          "internalType": "bool",
          "name": "isAdd",
          "type": "bool"
        }
      ],
      "name": "getOrderId",
      "outputs": [
        {
          "internalType": "bytes32",
          "name": "",
          "type": "bytes32"
        }
      ],
      "stateMutability": "pure",
      "type": "function"
    },
    {
      "inputs": [
        {
          "internalType": "address",
          "name": "pool",
          "type": "address"
        },
        {
          "internalType": "address",
          "name": "trader",
          "type": "address"
        },
        {
          "internalType": "bool",
          "name": "positionIsToken0",
          "type": "bool"
        }
      ],
      "name": "getPosition",
      "outputs": [
        {
          "components": [
            {
              "components": [
                {
                  "internalType": "address",
                  "name": "pool",
                  "type": "address"
                },
                {
                  "internalType": "bool",
                  "name": "isToken0",
                  "type": "bool"
                },
                {
                  "internalType": "uint256",
                  "name": "totalDebtOutput",
                  "type": "uint256"
                },
                {
                  "internalType": "uint256",
                  "name": "totalDebtInput",
                  "type": "uint256"
                },
                {
                  "internalType": "uint32",
                  "name": "lastPremiumPaymentTime",
                  "type": "uint32"
                },
                {
                  "internalType": "uint32",
                  "name": "openTime",
                  "type": "uint32"
                },
                {
                  "components": [
                    {
                      "internalType": "int24",
                      "name": "tick",
                      "type": "int24"
                    },
                    {
                      "internalType": "uint128",
                      "name": "liquidity",
                      "type": "uint128"
                    },
                    {
                      "internalType": "uint256",
                      "name": "premium",
                      "type": "uint256"
                    },
                    {
                      "internalType": "uint256",
                      "name": "feeGrowthInside0LastX128",
                      "type": "uint256"
                    },
                    {
                      "internalType": "uint256",
                      "name": "feeGrowthInside1LastX128",
                      "type": "uint256"
                    },
                    {
                      "internalType": "uint256",
                      "name": "lastGrowth",
                      "type": "uint256"
                    }
                  ],
                  "internalType": "struct LiquidityLoan[]",
                  "name": "borrowInfo",
                  "type": "tuple[]"
                }
              ],
              "internalType": "struct Position",
              "name": "base",
              "type": "tuple"
            },
            {
              "internalType": "uint256",
              "name": "totalPosition",
              "type": "uint256"
            },
            {
              "internalType": "uint256",
              "name": "margin",
              "type": "uint256"
            }
          ],
          "internalType": "struct MarginPosition",
          "name": "",
          "type": "tuple"
        }
      ],
      "stateMutability": "view",
      "type": "function"
    },
    {
      "inputs": [
        {
          "internalType": "address",
          "name": "pool",
          "type": "address"
        },
        {
          "internalType": "address",
          "name": "trader",
          "type": "address"
        },
        {
          "internalType": "bool",
          "name": "positionIsToken0",
          "type": "bool"
        }
      ],
      "name": "getPositionId",
      "outputs": [
        {
          "internalType": "PositionId",
          "name": "",
          "type": "bytes32"
        }
      ],
      "stateMutability": "pure",
      "type": "function"
    },
    {
      "inputs": [
        {
          "internalType": "address",
          "name": "pm",
          "type": "address"
        },
        {
          "internalType": "address",
          "name": "ex",
          "type": "address"
        }
      ],
      "name": "initialize",
      "outputs": [],
      "stateMutability": "nonpayable",
      "type": "function"
    },
    {
      "inputs": [
        {
          "components": [
            {
              "internalType": "address",
              "name": "token0",
              "type": "address"
            },
            {
              "internalType": "address",
              "name": "token1",
              "type": "address"
            },
            {
              "internalType": "uint24",
              "name": "fee",
              "type": "uint24"
            }
          ],
          "internalType": "struct PoolKey",
          "name": "key",
          "type": "tuple"
        },
        {
          "internalType": "address",
          "name": "borrower",
          "type": "address"
        },
        {
          "internalType": "bool",
          "name": "borrowedToken1",
          "type": "bool"
        }
      ],
      "name": "maxWithdrawablePremium",
      "outputs": [
        {
          "internalType": "uint256",
          "name": "maxWithdrawable",
          "type": "uint256"
        }
      ],
      "stateMutability": "view",
      "type": "function"
    },
    {
      "inputs": [
        {
          "internalType": "bytes[]",
          "name": "data",
          "type": "bytes[]"
        }
      ],
      "name": "multicall",
      "outputs": [
        {
          "internalType": "bytes[]",
          "name": "results",
          "type": "bytes[]"
        }
      ],
      "stateMutability": "nonpayable",
      "type": "function"
    },
    {
      "inputs": [
        {
          "internalType": "bytes32",
          "name": "",
          "type": "bytes32"
        }
      ],
      "name": "orders",
      "outputs": [
        {
          "components": [
            {
              "internalType": "address",
              "name": "token0",
              "type": "address"
            },
            {
              "internalType": "address",
              "name": "token1",
              "type": "address"
            },
            {
              "internalType": "uint24",
              "name": "fee",
              "type": "uint24"
            }
          ],
          "internalType": "struct PoolKey",
          "name": "key",
          "type": "tuple"
        },
        {
          "internalType": "bool",
          "name": "positionIsToken0",
          "type": "bool"
        },
        {
          "internalType": "uint32",
          "name": "auctionDeadline",
          "type": "uint32"
        },
        {
          "internalType": "uint32",
          "name": "auctionStartTime",
          "type": "uint32"
        },
        {
          "internalType": "uint256",
          "name": "startOutput",
          "type": "uint256"
        },
        {
          "internalType": "uint256",
          "name": "minOutput",
          "type": "uint256"
        },
        {
          "internalType": "uint256",
          "name": "inputAmount",
          "type": "uint256"
        },
        {
          "internalType": "uint256",
          "name": "decayRate",
          "type": "uint256"
        },
        {
          "internalType": "uint256",
          "name": "margin",
          "type": "uint256"
        }
      ],
      "stateMutability": "view",
      "type": "function"
    },
    {
      "inputs": [
        {
          "components": [
            {
              "internalType": "address",
              "name": "token0",
              "type": "address"
            },
            {
              "internalType": "address",
              "name": "token1",
              "type": "address"
            },
            {
              "internalType": "uint24",
              "name": "fee",
              "type": "uint24"
            }
          ],
          "internalType": "struct PoolKey",
          "name": "key",
          "type": "tuple"
        },
        {
          "internalType": "bool",
          "name": "payToken1",
          "type": "bool"
        },
        {
          "internalType": "uint256",
          "name": "depositAmount",
          "type": "uint256"
        }
      ],
      "name": "payPremium",
      "outputs": [
        {
          "internalType": "uint256",
          "name": "premiumOwed",
          "type": "uint256"
        }
      ],
      "stateMutability": "nonpayable",
      "type": "function"
    },
    {
      "inputs": [
        {
          "internalType": "PositionId",
          "name": "",
          "type": "bytes32"
        }
      ],
      "name": "positions",
      "outputs": [
        {
          "components": [
            {
              "internalType": "address",
              "name": "pool",
              "type": "address"
            },
            {
              "internalType": "bool",
              "name": "isToken0",
              "type": "bool"
            },
            {
              "internalType": "uint256",
              "name": "totalDebtOutput",
              "type": "uint256"
            },
            {
              "internalType": "uint256",
              "name": "totalDebtInput",
              "type": "uint256"
            },
            {
              "internalType": "uint32",
              "name": "lastPremiumPaymentTime",
              "type": "uint32"
            },
            {
              "internalType": "uint32",
              "name": "openTime",
              "type": "uint32"
            },
            {
              "components": [
                {
                  "internalType": "int24",
                  "name": "tick",
                  "type": "int24"
                },
                {
                  "internalType": "uint128",
                  "name": "liquidity",
                  "type": "uint128"
                },
                {
                  "internalType": "uint256",
                  "name": "premium",
                  "type": "uint256"
                },
                {
                  "internalType": "uint256",
                  "name": "feeGrowthInside0LastX128",
                  "type": "uint256"
                },
                {
                  "internalType": "uint256",
                  "name": "feeGrowthInside1LastX128",
                  "type": "uint256"
                },
                {
                  "internalType": "uint256",
                  "name": "lastGrowth",
                  "type": "uint256"
                }
              ],
              "internalType": "struct LiquidityLoan[]",
              "name": "borrowInfo",
              "type": "tuple[]"
            }
          ],
          "internalType": "struct Position",
          "name": "base",
          "type": "tuple"
        },
        {
          "internalType": "uint256",
          "name": "totalPosition",
          "type": "uint256"
        },
        {
          "internalType": "uint256",
          "name": "margin",
          "type": "uint256"
        }
      ],
      "stateMutability": "view",
      "type": "function"
    },
    {
      "inputs": [
        {
          "components": [
            {
              "internalType": "address",
              "name": "token0",
              "type": "address"
            },
            {
              "internalType": "address",
              "name": "token1",
              "type": "address"
            },
            {
              "internalType": "uint24",
              "name": "fee",
              "type": "uint24"
            }
          ],
          "internalType": "struct PoolKey",
          "name": "key",
          "type": "tuple"
        },
        {
          "components": [
            {
              "internalType": "bool",
              "name": "positionIsToken0",
              "type": "bool"
            },
            {
              "internalType": "uint256",
              "name": "reducePercentage",
              "type": "uint256"
            },
            {
              "internalType": "uint256",
              "name": "minOutput",
              "type": "uint256"
            },
            {
              "internalType": "address",
              "name": "trader",
              "type": "address"
            },
            {
              "internalType": "uint256",
              "name": "executionOption",
              "type": "uint256"
            },
            {
              "internalType": "bytes",
              "name": "executionData",
              "type": "bytes"
            },
            {
              "internalType": "int24",
              "name": "slippedTickMin",
              "type": "int24"
            },
            {
              "internalType": "int24",
              "name": "slippedTickMax",
              "type": "int24"
            },
            {
              "internalType": "uint256",
              "name": "reduceAmount",
              "type": "uint256"
            }
          ],
          "internalType": "struct ReduceParam",
          "name": "param",
          "type": "tuple"
        }
      ],
      "name": "reducePosition",
      "outputs": [
        {
          "components": [
            {
              "internalType": "int256",
              "name": "amount0",
              "type": "int256"
            },
            {
              "internalType": "int256",
              "name": "amount1",
              "type": "int256"
            },
            {
              "internalType": "int256",
              "name": "PnL",
              "type": "int256"
            },
            {
              "internalType": "uint256",
              "name": "returnedAmount",
              "type": "uint256"
            },
            {
              "internalType": "uint256",
              "name": "repaidDebt0",
              "type": "uint256"
            },
            {
              "internalType": "uint256",
              "name": "repaidDebt1",
              "type": "uint256"
            },
            {
              "internalType": "uint256",
              "name": "premium",
              "type": "uint256"
            },
            {
              "internalType": "uint256",
              "name": "profitFee",
              "type": "uint256"
            }
          ],
          "internalType": "struct ReduceReturn",
          "name": "",
          "type": "tuple"
        }
      ],
      "stateMutability": "nonpayable",
      "type": "function"
    },
    {
      "inputs": [
        {
          "internalType": "bool",
          "name": "addPaused",
          "type": "bool"
        }
      ],
      "name": "setAddPaused",
      "outputs": [],
      "stateMutability": "nonpayable",
      "type": "function"
    },
    {
      "inputs": [
        {
          "internalType": "address",
          "name": "executioner_",
          "type": "address"
        }
      ],
      "name": "setExecutioner",
      "outputs": [],
      "stateMutability": "nonpayable",
      "type": "function"
    },
    {
      "inputs": [
        {
          "internalType": "bool",
          "name": "forceClosePaused",
          "type": "bool"
        }
      ],
      "name": "setForceClosePaused",
      "outputs": [],
      "stateMutability": "nonpayable",
      "type": "function"
    },
    {
      "inputs": [
        {
          "internalType": "address",
          "name": "newOwner",
          "type": "address"
        }
      ],
      "name": "setOwner",
      "outputs": [],
      "stateMutability": "nonpayable",
      "type": "function"
    },
    {
      "inputs": [
        {
          "internalType": "address",
          "name": "poolManager_",
          "type": "address"
        }
      ],
      "name": "setPoolManager",
      "outputs": [],
      "stateMutability": "nonpayable",
      "type": "function"
    },
    {
      "inputs": [
        {
          "internalType": "bool",
          "name": "reducePaused",
          "type": "bool"
        }
      ],
      "name": "setReducePaused",
      "outputs": [],
      "stateMutability": "nonpayable",
      "type": "function"
    },
    {
      "inputs": [
        {
          "internalType": "address",
          "name": "pool",
          "type": "address"
        },
        {
          "internalType": "bool",
          "name": "positionIsToken0",
          "type": "bool"
        },
        {
          "internalType": "bool",
          "name": "isAdd",
          "type": "bool"
        },
        {
          "internalType": "uint256",
          "name": "deadline",
          "type": "uint256"
        },
        {
          "internalType": "uint256",
          "name": "startOutput",
          "type": "uint256"
        },
        {
          "internalType": "uint256",
          "name": "minOutput",
          "type": "uint256"
        },
        {
          "internalType": "uint256",
          "name": "inputAmount",
          "type": "uint256"
        },
        {
          "internalType": "uint256",
          "name": "decayRate",
          "type": "uint256"
        },
        {
          "internalType": "uint256",
          "name": "margin",
          "type": "uint256"
        }
      ],
      "name": "submitOrder",
      "outputs": [],
      "stateMutability": "nonpayable",
      "type": "function"
    },
    {
      "inputs": [
        {
          "components": [
            {
              "internalType": "address",
              "name": "token0",
              "type": "address"
            },
            {
              "internalType": "address",
              "name": "token1",
              "type": "address"
            },
            {
              "internalType": "uint24",
              "name": "fee",
              "type": "uint24"
            }
          ],
          "internalType": "struct PoolKey",
          "name": "key",
          "type": "tuple"
        },
        {
          "internalType": "bool",
          "name": "borrowToken1",
          "type": "bool"
        },
        {
          "internalType": "uint256",
          "name": "amount",
          "type": "uint256"
        }
      ],
      "name": "withdrawPremium",
      "outputs": [],
      "stateMutability": "nonpayable",
      "type": "function"
    }
  ],
  "bytecode": {
    "object": "0x608060405234801561001057600080fd5b50615fe380620000216000396000f3fe608060405234801561001057600080fd5b50600436106101e55760003560e01c80638be8efa21161010f578063dbe5f6cb116100a2578063efea328511610071578063efea328514610542578063f2edf95a14610555578063f6f0ea8914610568578063ff9912cd1461057b57600080fd5b8063dbe5f6cb146104de578063dc6ab02f146104f1578063de074f101461051c578063e5c9c2ed1461052f57600080fd5b8063b8541526116100de578063b85415261461046d578063bfd4c2a514610490578063d42a397c146104a3578063d93a9047146104b657600080fd5b80638be8efa2146103565780638c1395f8146103785780639c3f1e9014610398578063ac9650d81461044d57600080fd5b80633eb4adab116101875780635d4936ff116101565780635d4936ff146102f0578063657b5a4b146103105780637aef67151461033057806389a1c0731461034357600080fd5b80633eb4adab14610295578063485cc955146102a8578063514ea4bf146102bb5780635277a324146102dd57600080fd5b8063228e062a116101c3578063228e062a1461022557806327bd6f831461023857806328ec7232146102615780632be197cf1461027457600080fd5b8063025df9e4146101ea57806313af4035146101ff5780631fda89ef14610212575b600080fd5b6101fd6101f8366004613d1c565b61058f565b005b6101fd61020d366004613d7c565b6106f7565b6101fd610220366004613d99565b61074c565b6101fd610233366004613db6565b610794565b61024b610246366004613fe9565b61093f565b6040516102589190614127565b60405180910390f35b6101fd61026f366004614136565b61145b565b6102876102823660046141e7565b611547565b604051908152602001610258565b6101fd6102a3366004614226565b61164c565b6101fd6102b6366004614226565b611888565b6102ce6102c936600461425f565b61199c565b60405161025893929190614366565b6102876102eb36600461438b565b611abd565b6102876102fe36600461425f565b60046020526000908152604090205481565b61032361031e366004614442565b6120eb565b60405161025891906144b7565b6101fd61033e366004613d7c565b61224a565b6101fd610351366004613d99565b61229e565b6103696103643660046145c6565b6122e6565b60405161025893929190614716565b61038b610386366004614442565b612bdc565b6040516102589190614729565b6104386103a636600461425f565b600560208181526000928352604092839020835160608101855281546001600160a01b039081168252600183015490811693820193909352600160a01b90920462ffffff1693820193909352600283015460038401546004850154938501546006860154600790960154939560ff841695610100850463ffffffff908116966501000000000090960416949092919089565b60405161025899989796959493929190614768565b61046061045b3660046147bb565b612d37565b604051610258919061487f565b61048061047b3660046149da565b612e2c565b6040519015158152602001610258565b61028761049e366004614a62565b612eec565b6101fd6104b1366004613d99565b612f50565b6104c96104c4366004614442565b612f98565b60405163ffffffff9091168152602001610258565b6101fd6104ec366004614abe565b612fcb565b600154610504906001600160a01b031681565b6040516001600160a01b039091168152602001610258565b61028761052a366004613d1c565b613054565b6101fd61053d366004614226565b613261565b6101fd610550366004613d7c565b613318565b610480610563366004614442565b613364565b610287610576366004614442565b613392565b610480610589366004614b0e565b50600090565b60008054604051639525092360e01b8152620100009091046001600160a01b0316906395250923906105c5908790600401614b89565b6101c060405180830381865afa1580156105e3573d6000803e3d6000fd5b505050506040513d601f19601f820116820180604052508101906106079190614c7b565b505090506000610618823386613392565b90508261063461062d36889003880188614cc5565b3387611547565b101561065357604051632b869ad760e21b815260040160405180910390fd5b60008181526004602052604081208054859290610671908490614cf7565b909155506106a89050846106915761068c6020870187613d7c565b6106a1565b6106a16040870160208801613d7c565b33856133e8565b604080518515158152602081018590526001600160a01b0384169133917ffb7067681775f19340bbd7db267bcc1217b3d27bff5bfee90759622e8e028977910160405180910390a35050505050565b6002546001600160a01b0316331461072a5760405162461bcd60e51b815260040161072190614d0a565b60405180910390fd5b600280546001600160a01b0319166001600160a01b0392909216919091179055565b6002546001600160a01b031633146107765760405162461bcd60e51b815260040161072190614d0a565b60028054911515600160a01b0260ff60a01b19909216919091179055565b6003546001146107b65760405162461bcd60e51b815260040161072190614d2a565b60026003558661080757826107cc8a338b612bdc565b6020015110156108075760405162461bcd60e51b81526004016107219060208082526004908201526321706f7360e01b604082015260600190565b600560006108178b338c8c612eec565b81526020810191909152604090810160002090516319b5cb0360e01b81526004810191909152881515602482015260448101879052606481018690526084810185905260a4810184905260c4810183905260e4810182905273__$506f8190e26c635088963c8a0018e71746$__906319b5cb03906101040160006040518083038186803b1580156108a757600080fd5b505af41580156108bb573d6000803e3d6000fd5b5050604080518a15158152602081018a9052908101889052606081018790526080810186905260a0810185905260c081018490523392508a151591506001600160a01b038c16907f4c34e64fbcdd268148a9e26a3b2c922bd24162485ce0b2ba28e4ce57d9a2c33c9060e00160405180910390a45050600160035550505050505050565b610947613a62565b6003546001146109695760405162461bcd60e51b815260040161072190614d2a565b6002600381905554600160a81b900460ff16156109985760405162461bcd60e51b815260040161072190614d4e565b6109a0613aa7565b6109a8613a62565b600054604051639525092360e01b8152620100009091046001600160a01b0316906395250923906109dd908890600401614b89565b6101c060405180830381865afa1580156109fb573d6000803e3d6000fd5b505050506040513d601f19601f82011682018060405250810190610a1f9190614c7b565b61016085015260020b60208401526001600160a01b0316808352606085015185516000926006928492610a53929190613392565b815260200190815260200160002090508060050154600003610a885760405163081f715760e11b815260040160405180910390fd5b825160608601518651610a9e9291906000612eec565b6101a08401819052604051631759061d60e01b815273__$506f8190e26c635088963c8a0018e71746$__91631759061d91610ae2916005918a918791600401614e81565b606060405180830381865af4158015610aff573d6000803e3d6000fd5b505050506040513d601f19601f82011682018060405250810190610b239190614f3a565b6020880152610100808601919091526040808601929092528151908101909152606090610c5a9080610b5a368b90038b018b614cc5565b815260200184600001600401805480602002602001604051908101604052809291908181526020016000905b82821015610bfd5760008481526020908190206040805160c081018252600586029092018054600281810b855263010000009091046001600160801b031684860152600180830154938501939093528101546060840152600381015460808401526004015460a08301529083529092019101610b86565b50505050815260200186600001516001600160a01b0316815260200188606001516001600160a01b031681526020018860000151151581526020018661016001518152602001866020015160020b81526020016000815250613466565b60c08501919091526020870151909150670de0b6b3a764000014610d99576004820180546040805160208084028201810190925282815292919060009084015b82821015610d115760008481526020908190206040805160c081018252600586029092018054600281810b855263010000009091046001600160801b031684860152600180830154938501939093528101546060840152600381015460808401526004015460a08301529083529092019101610c9a565b50505050602087015160405163069b8a8b60e31b815273__$d23a8dd93b7205fa6b646ffed38c165d68$__926334dc545892610d4f92600401614f68565b600060405180830381865af4158015610d6c573d6000803e3d6000fd5b505050506040513d6000823e601f3d908101601f19168201604052610d949190810190615041565b610e37565b6004820180546040805160208084028201810190925282815292919060009084015b82821015610e325760008481526020908190206040805160c081018252600586029092018054600281810b855263010000009091046001600160801b031684860152600180830154938501939093528101546060840152600381015460808401526004015460a08301529083529092019101610dbb565b505050505b610180850152600682015461014085015260058201546101008501511015610ed8576101008401516020870151610180860151604051631b74fb1560e31b815273__$506f8190e26c635088963c8a0018e71746$__9363dba7d8a893610ea39388938890600401615075565b60006040518083038186803b158015610ebb57600080fd5b505af4158015610ecf573d6000803e3d6000fd5b50505050610f56565b835160608701518751600692600092610ef092613392565b81526020810191909152604001600090812080546001600160a81b0319168155600181018290556002810182905560038101805467ffffffffffffffff19169055908181610f416004830182613b21565b50506005820160009055600682016000905550505b83600001516001600160a01b0316633850c7bd6040518163ffffffff1660e01b815260040160e060405180830381865afa158015610f98573d6000803e3d6000fd5b505050506040513d601f19601f82011682018060405250810190610fbc91906150c3565b50505050600291820b608088018190526001600160a01b0390931660608801525060c0880151900b1380610ffd5750836080015160020b8660e0015160020b125b1561101b57604051631e6012f360e21b815260040160405180910390fd5b6101808401516040516337a6142160e01b815273__$d23a8dd93b7205fa6b646ffed38c165d68$__916337a614219161105791906004016144b7565b6040805180830381865af4158015611073573d6000803e3d6000fd5b505050506040513d601f19601f82011682018060405250810190611097919061515b565b600290810b60c0870181905291810b60a0870181905288516080880151602089015160405163146d722d60e31b8152921515600484015290840b60248301526044820194909452606481019190915291900b608482015260009073__$d23a8dd93b7205fa6b646ffed38c165d68$__9063a36b91689060a401602060405180830381865af415801561112d573d6000803e3d6000fd5b505050506040513d601f19601f82011682018060405250810190611151919061518a565b905080600103611282576001546000546040516337aaefd560e11b815273__$506f8190e26c635088963c8a0018e71746$__92636f55dfaa926111b2928c928a928f928d926001600160a01b0390811692620100009004169060040161522b565b600060405180830381865af41580156111cf573d6000803e3d6000fd5b505050506040513d6000823e601f3d908101601f191682016040526111f79190810190615436565b6101208101519096509094501561127d57865161125d906112245761121f60208a018a613d7c565b611234565b61123460408a0160208b01613d7c565b60025461012088015160e08801516001600160a01b03909216916112589190614cf7565b6133e8565b61127d61126f368a90038a018a614cc5565b885161012088015185613551565b6113d6565b8060020361133a5773__$506f8190e26c635088963c8a0018e71746$__63c132482686610180015189878c8a6101400151600060029054906101000a90046001600160a01b03168c61010001516040518863ffffffff1660e01b81526004016112f1979695949392919061557f565b61010060405180830381865af415801561130f573d6000803e3d6000fd5b505050506040513d601f19601f8201168201806040525081019061133391906155ef565b93506113d6565b600154600054604051630e4940a960e31b815273__$506f8190e26c635088963c8a0018e71746$__9263724a054892611391928c928a928f928d926001600160a01b0390811692620100009004169060040161522b565b61010060405180830381865af41580156113af573d6000803e3d6000fd5b505050506040513d601f19601f820116820180604052508101906113d391906155ef565b93505b6060808801518851875161010089015160c089015160e08a0151604080513381526020810194909452830191909152948101949094526001600160a01b03928316939115159216907f3aacf7844e8b88dda49c434b9ce8b132ed7fc860559882f088ff0c39f8fe98879060800160405180910390a45050600160035550949350505050565b60035460011461147d5760405162461bcd60e51b815260040161072190614d2a565b60026003556005600061149285338686612eec565b81526020808201929092526040908101600090812080546001600160a01b03191681556001810180546001600160b81b031916905560028101805468ffffffffffffffffff1916905560038101829055600481018290556005810182905560068101829055600701555182151581523391841515916001600160a01b038716917f761fde4703b3eb1ca92675208248e655ce58d6778c95e6e742ab9819a7f3d93d910160405180910390a45050600160035550565b60008054604051639525092360e01b815282918291620100009091046001600160a01b03169063952509239061158190899060040161560c565b6101c060405180830381865afa15801561159f573d6000803e3d6000fd5b505050506040513d601f19601f820116820180604052508101906115c39190614c7b565b925050915060006115d5838787612bdc565b90506000600460006115e8868a8a613392565b815260200190815260200160002054905060006116248460a00151670de0b6b3a76400008560000151606001516135ba9092919063ffffffff16565b90508082101561163557600061163f565b61163f8183614cf7565b9998505050505050505050565b6000546201000090046001600160a01b031633146116945760405162461bcd60e51b8152602060048201526005602482015264085c1bdbdb60da1b6044820152606401610721565b60005460405163095ea7b360e01b8152620100009091046001600160a01b039081166004830152600019602483015283169063095ea7b3906044016020604051808303816000875af11580156116ee573d6000803e3d6000fd5b505050506040513d601f19601f82011682018060405250810190611712919061561a565b5060005460405163095ea7b360e01b8152620100009091046001600160a01b039081166004830152600019602483015282169063095ea7b3906044016020604051808303816000875af115801561176d573d6000803e3d6000fd5b505050506040513d601f19601f82011682018060405250810190611791919061561a565b5060015460405163095ea7b360e01b81526001600160a01b03918216600482015260001960248201529083169063095ea7b3906044016020604051808303816000875af11580156117e6573d6000803e3d6000fd5b505050506040513d601f19601f8201168201806040525081019061180a919061561a565b5060015460405163095ea7b360e01b81526001600160a01b03918216600482015260001960248201529082169063095ea7b3906044016020604051808303816000875af115801561185f573d6000803e3d6000fd5b505050506040513d601f19601f82011682018060405250810190611883919061561a565b505050565b600054610100900460ff16158080156118a85750600054600160ff909116105b806118c25750303b1580156118c2575060005460ff166001145b6119255760405162461bcd60e51b815260206004820152602e60248201527f496e697469616c697a61626c653a20636f6e747261637420697320616c72656160448201526d191e481a5b9a5d1a585b1a5e995960921b6064820152608401610721565b6000805460ff191660011790558015611948576000805461ff0019166101001790555b6119528383613261565b8015611883576000805461ff0019169055604051600181527f7f26b83ff96e1f2b6a682f133852f6798a09c465da95921460cefb38474024989060200160405180910390a1505050565b6006602090815260009182526040808320815160e08101835281546001600160a01b0381168252600160a01b900460ff1615158185015260018201548184015260028201546060820152600382015463ffffffff80821660808401526401000000009091041660a082015260048201805484518187028101870190955280855292959194869460c08701949093909184015b82821015611aa55760008481526020908190206040805160c081018252600586029092018054600281810b855263010000009091046001600160801b031684860152600180830154938501939093528101546060840152600381015460808401526004015460a08301529083529092019101611a2e565b50505091525050600582015460069092015490919083565b6000600354600114611ae15760405162461bcd60e51b815260040161072190614d2a565b6002600381905554600160b01b900460ff1615611b105760405162461bcd60e51b815260040161072190614d4e565b611b18613b45565b600054604051639525092360e01b8152620100009091046001600160a01b031690639525092390611b4d908790600401614b89565b6101c060405180830381865afa158015611b6b573d6000803e3d6000fd5b505050506040513d601f19601f82011682018060405250810190611b8f9190614c7b565b604084015260020b6020808401919091526001600160a01b03909116808352845191850151611bbe9290612bdc565b60608201819052815184516020860151611bdd93889390929091612e2c565b611bfa576040516303144f8160e21b815260040160405180910390fd5b80600001516001600160a01b0316633850c7bd6040518163ffffffff1660e01b815260040160e060405180830381865afa158015611c3c573d6000803e3d6000fd5b505050506040513d601f19601f82011682018060405250810190611c6091906150c3565b50505050600291820b60a085018190526001600160a01b039093166080850152506060850151900b1380611ca157508060a0015160020b836080015160020b125b15611cbf57604051631e6012f360e21b815260040160405180910390fd5b60608101515160c0015160208085015160a08401519184015160405163374b7d3d60e11b815260009473__$d23a8dd93b7205fa6b646ffed38c165d68$__94636e96fa7a94611d15949293909290600401615637565b602060405180830381865af4158015611d32573d6000803e3d6000fd5b505050506040513d601f19601f82011682018060405250810190611d56919061518a565b905080600103611e0957606082015160208082015160408088015192880151935160c0015160015460005492516325d3777560e01b815273__$506f8190e26c635088963c8a0018e71746$__966325d3777596611dd4968e9690959194929391926001600160a01b039081169262010000909204169060040161566a565b60006040518083038186803b158015611dec57600080fd5b505af4158015611e00573d6000803e3d6000fd5b50505050611f57565b80600203611e74576060820151805160c001516020918201519186015160005460405163ad6c502560e01b815273__$506f8190e26c635088963c8a0018e71746$__9463ad6c502594611dd4948c94919390916201000090046001600160a01b0316906004016156c8565b73__$506f8190e26c635088963c8a0018e71746$__6382e824478684606001516000015160c00151856060015160200151886020015187602001518860a0015189608001518c60400151600160009054906101000a90046001600160a01b0316600060029054906101000a90046001600160a01b0316600260009054906101000a90046001600160a01b03166040518c63ffffffff1660e01b8152600401611f269b9a9998979695949392919061570e565b60006040518083038186803b158015611f3e57600080fd5b505af4158015611f52573d6000803e3d6000fd5b505050505b611fe160405180610100016040528087803603810190611f779190614cc5565b815260200184606001516000015160c00151815260200184600001516001600160a01b0316815260200186600001516001600160a01b0316815260200186602001511515815260200184604001518152602001846020015160020b81526020016000815250613698565b925060066000611ffe846000015187600001518860200151613392565b81526020810191909152604001600090812080546001600160a81b0319168155600181018290556002810182905560038101805467ffffffffffffffff1916905590818161204f6004830182613b21565b505060058201600090556006820160009055505083600001516001600160a01b03168460200151151583600001516001600160a01b03167f93eab6e8520a1442c72b300820e9791d361ae2fb3975f78306dd8c0f2a7e4d358560600151602001518860400151866040516120d6939291909283526020830191909152604082015260600190565b60405180910390a45050600160035592915050565b60606000600660006120fe878787613392565b81526020808201929092526040908101600090812082516101408101845281546001600160a01b03811660608301908152600160a01b90910460ff1615156080830152600183015460a0830152600283015460c0830152600383015463ffffffff80821660e08501526401000000009091041661010083015260048301805486518189028101890190975280875292969395879592948794610120880194929392909184015b8282101561221b5760008481526020908190206040805160c081018252600586029092018054600281810b855263010000009091046001600160801b031684860152600180830154938501939093528101546060840152600381015460808401526004015460a083015290835290920191016121a4565b505050915250508152600582015460208201526006909101546040909101525160c001519150505b9392505050565b6002546001600160a01b031633146122745760405162461bcd60e51b815260040161072190614d0a565b600080546001600160a01b03909216620100000262010000600160b01b0319909216919091179055565b6002546001600160a01b031633146122c85760405162461bcd60e51b815260040161072190614d0a565b60028054911515600160a81b0260ff60a81b19909216919091179055565b6122ee613b85565b6000806003546001146123135760405162461bcd60e51b815260040161072190614d2a565b6002600381905554600160a01b900460ff16156123425760405162461bcd60e51b815260040161072190614d4e565b61234a613bdc565b600054604051639525092360e01b8152620100009091046001600160a01b03169063952509239061237f908a90600401614b89565b6101c060405180830381865afa15801561239d573d6000803e3d6000fd5b505050506040513d601f19601f820116820180604052508101906123c19190614c7b565b604084015260020b60208301526001600160a01b031680825260c0870151608088015160009260069284926123f7929190613392565b81526020019081526020016000209050600573__$506f8190e26c635088963c8a0018e71746$__63d5d54e8a909161243e85600001518b60c001518c608001516001612eec565b8a6040518463ffffffff1660e01b815260040161245d9392919061583d565b600060405180830381865af415801561247a573d6000803e3d6000fd5b505050506040513d6000823e601f3d908101601f191682016040526124a2919081019061596a565b606084019190915260808101519097506124ea906124cc576124c760208a018a613d7c565b6124dc565b6124dc60408a0160208b01613d7c565b60c089015189513090613745565b600054600254604051632da526f160e01b815273__$506f8190e26c635088963c8a0018e71746$__92632da526f192612541928d928d928d92620100009092046001600160a01b03908116929116906004016159b0565b600060405180830381865af415801561255e573d6000803e3d6000fd5b505050506040513d6000823e601f3d908101601f191682016040526125869190810190615a08565b60808601929092528451600054602087015160408089015151905163cf2778e960e01b8152949d50949b5094975073__$eacbb88ed4bd2af84aa4d43bcf675bcf7e$__9463cf2778e9946125f094620100009093046001600160a01b0316928d9190600401615a7e565b600060405180830381865af415801561260d573d6000803e3d6000fd5b505050506040513d6000823e601f3d908101601f191682016040526126359190810190615041565b608088015160208401516040516341533fe760e01b815292985073__$d23a8dd93b7205fa6b646ffed38c165d68$__926341533fe792612679928b92600401615afa565b602060405180830381865af4158015612696573d6000803e3d6000fd5b505050506040513d601f19601f820116820180604052508101906126ba919061518a565b60e08301526126e16126d1368a90038a018a614cc5565b8860800151846080015189613551565b60048101541561289357606061280c6040518061010001604052808b80360381019061270d9190614cc5565b815260200184600001600401805480602002602001604051908101604052809291908181526020016000905b828210156127b05760008481526020908190206040805160c081018252600586029092018054600281810b855263010000009091046001600160801b031684860152600180830154938501939093528101546060840152600381015460808401526004015460a08301529083529092019101612739565b50505050815260200185600001516001600160a01b031681526020018a60c001516001600160a01b031681526020018a608001511515815260200185604001518152602001856020015160020b81526020016000815250613466565b604051630b7cb7c160e01b8152919650915073__$d23a8dd93b7205fa6b646ffed38c165d68$__90630b7cb7c19061284a908a908590600401615b27565b600060405180830381865af4158015612867573d6000803e3d6000fd5b505050506040513d6000823e601f3d908101601f1916820160405261288f9190810190615041565b9650505b73__$506f8190e26c635088963c8a0018e71746$__6386c6f9bb888a8560e001518660200151600160009054906101000a90046001600160a01b0316886000015189606001516040518863ffffffff1660e01b81526004016128fb9796959493929190615b4c565b6040805180830381865af4158015612917573d6000803e3d6000fd5b505050506040513d601f19601f8201168201806040525081019061293b9190615ba7565b60c084015260a083015260e0820151608088015173__$506f8190e26c635088963c8a0018e71746$__916341a95ff89184918b918b9190612989578760c0015161298490615bcb565b612997565b8760a0015161299790615bcb565b6040518663ffffffff1660e01b81526004016129b7959493929190615be7565b60006040518083038186803b1580156129cf57600080fd5b505af41580156129e3573d6000803e3d6000fd5b5050604080516101408101825284546001600160a01b03811660608301908152600160a01b90910460ff1615156080830152600186015460a0830152600286015460c0830152600386015463ffffffff80821660e085015264010000000090910416610100830152600486018054845160208083028201810190965281815293965087955086949293869361012087019391929060009084015b82821015612af45760008481526020908190206040805160c081018252600586029092018054600281810b855263010000009091046001600160801b031684860152600180830154938501939093528101546060840152600381015460808401526004015460a08301529083529092019101612a7d565b505050508152505081526020016005820154815260200160068201548152505094508660c001516001600160a01b03168760800151151583600001516001600160a01b03167f9162a397ba17d1e4988a59388b9744cf4bc003cf58486fda9f8c7c91a7af3fca338b60800151612b77578660c00151612b7290615bcb565b612b85565b8660a00151612b8590615bcb565b8c516060808f0151604080516001600160a01b0390961686526020860194909452928401919091528201526080810189905260a0810188905260c00160405180910390a45050600160038190555093509350939050565b612be4613b85565b60066000612bf3868686613392565b81526020808201929092526040908101600090812082516101408101845281546001600160a01b03811660608301908152600160a01b90910460ff1615156080830152600183015460a0830152600283015460c0830152600383015463ffffffff80821660e08501526401000000009091041661010083015260048301805486518189028101890190975280875292969395879592948794610120880194929392909184015b82821015612d105760008481526020908190206040805160c081018252600586029092018054600281810b855263010000009091046001600160801b031684860152600180830154938501939093528101546060840152600381015460808401526004015460a08301529083529092019101612c99565b50505091525050815260058201546020820152600690910154604090910152949350505050565b6060816001600160401b03811115612d5157612d51613e37565b604051908082528060200260200182016040528015612d8457816020015b6060815260200190600190039081612d6f5790505b50905060005b82811015612e2457612df430858584818110612da857612da8615c27565b9050602002810190612dba9190615c3d565b8080601f0160208091040260200160405190810160405280939291908181526020018383808284376000920191909152506137cf92505050565b828281518110612e0657612e06615c27565b60200260200101819052508080612e1c90615c8a565b915050612d8a565b505b92915050565b60008473__$506f8190e26c635088963c8a0018e71746$__63920f2f4090918885600060029054906101000a90046001600160a01b031660046000612e728c8c8c613392565b8152602001908152602001600020546040518663ffffffff1660e01b8152600401612ea1959493929190615ca3565b602060405180830381865af4158015612ebe573d6000803e3d6000fd5b505050506040513d601f19601f82011682018060405250810190612ee2919061561a565b9695505050505050565b6040516bffffffffffffffffffffffff19606086811b8216602084015285901b16603482015282151560f890811b6048830152821515901b6049820152600090604a016040516020818303038152906040528051906020012090505b949350505050565b6002546001600160a01b03163314612f7a5760405162461bcd60e51b815260040161072190614d0a565b60028054911515600160b01b0260ff60b01b19909216919091179055565b600060066000612fa9868686613392565b815260208101919091526040016000206003015463ffffffff16949350505050565b600054604051633518d43560e21b815273__$eacbb88ed4bd2af84aa4d43bcf675bcf7e$__9163d46350d49161301e91600491620100009091046001600160a01b03169089908990899089908601615d75565b60006040518083038186803b15801561303657600080fd5b505af415801561304a573d6000803e3d6000fd5b5050505050505050565b60006003546001146130785760405162461bcd60e51b815260040161072190614d2a565b600260035560008054604051639525092360e01b815282918291620100009091046001600160a01b0316906395250923906130b7908a90600401614b89565b6101c060405180830381865afa1580156130d5573d6000803e3d6000fd5b505050506040513d601f19601f820116820180604052508101906130f99190614c7b565b92509250925061310a833388613364565b61311a5760009350505050613255565b60006131278433896120eb565b90506131936040518061010001604052808a8036038101906131499190614cc5565b8152602001838152602001866001600160a01b03168152602001336001600160a01b0316815260200189151581526020018481526020018560020b81526020016000815250613466565b90955090506131a4843389846137f4565b6131d6876131be576131b960208a018a613d7c565b6131ce565b6131ce60408a0160208b01613d7c565b333089613745565b85600460006131e687338c613392565b815260200190815260200160002060008282546132039190615db9565b9091555050604080518815158152602081018890526001600160a01b0386169133917f3b362679889b553ed2e7ee099bd77d266648894e6562144e3791e108b0a2596e910160405180910390a3505050505b60016003559392505050565b600054610100900460ff166132cc5760405162461bcd60e51b815260206004820152602b60248201527f496e697469616c697a61626c653a20636f6e7472616374206973206e6f74206960448201526a6e697469616c697a696e6760a81b6064820152608401610721565b600080546001600160a01b03938416620100000262010000600160b01b031990911617905560018054919092166001600160a01b03199182161782556002805490911633179055600355565b6002546001600160a01b031633146133425760405162461bcd60e51b815260040161072190614d0a565b600180546001600160a01b0319166001600160a01b0392909216919091179055565b60008060066000613376878787613392565b8152602001908152602001600020600501541190509392505050565b6040516bffffffffffffffffffffffff19606085811b8216602084015284901b16603482015281151560f81b60488201526000906049016040516020818303038152906040528051906020012090509392505050565b600060405163a9059cbb60e01b8152836004820152826024820152602060006044836000895af13d15601f3d11600160005114161716915050806134605760405162461bcd60e51b815260206004820152600f60248201526e1514905394d1915497d19052531151608a1b6044820152606401610721565b50505050565b600060606000600473__$eacbb88ed4bd2af84aa4d43bcf675bcf7e$__6313c1af439091866134a2886040015189606001518a60800151612f98565b6000546001546040516001600160e01b031960e088901b1681526134df959493926001600160a01b03620100009091048116921690600401615e62565b600060405180830381865af41580156134fc573d6000803e3d6000fd5b505050506040513d6000823e601f3d908101601f191682016040526135249190810190615ea8565b60208601526040850151606086015160808701519293506135449261391b565b6020909301519293915050565b60005460405163fc6e9cbf60e01b8152620100009091046001600160a01b03169063fc6e9cbf9061358c908790859088908890600401615ee4565b600060405180830381600087803b1580156135a657600080fd5b505af115801561304a573d6000803e3d6000fd5b60008080600019858709858702925082811083820303915050806000036135f357600084116135e857600080fd5b508290049050612243565b80841161362b5760405162461bcd60e51b815260206004820152600660248201526536bab62234bb60d11b6044820152606401610721565b6000848688096000868103871696879004966002600389028118808a02820302808a02820302808a02820302808a02820302808a02820302808a02909103029181900381900460010186841190950394909402919094039290920491909117919091029150509392505050565b6000806136b2836040015184606001518560800151612f98565b600054604051630bc847bd60e01b815291925073__$eacbb88ed4bd2af84aa4d43bcf675bcf7e$__91630bc847bd91613704916004918891620100009091046001600160a01b03169087908401615f17565b602060405180830381865af4158015613721573d6000803e3d6000fd5b505050506040513d601f19601f82011682018060405250810190612243919061518a565b60006040516323b872dd60e01b81528460048201528360248201528260448201526020600060648360008a5af13d15601f3d11600160005114161716915050806137c85760405162461bcd60e51b81526020600482015260146024820152731514905394d1915497d19493d357d1905253115160621b6044820152606401610721565b5050505050565b60606122438383604051806060016040528060278152602001615f876027913961395b565b600060066000613805878787613392565b815260200190815260200160002090508060000160040160006138289190613b21565b60005b825181101561391357600083828151811061384857613848615c27565b6020026020010151602001516001600160801b03161115613901578160000160040183828151811061387c5761387c615c27565b60209081029190910181015182546001818101855560009485529383902082516005909202018054938301516001600160801b03166301000000026001600160981b031990941662ffffff90921691909117929092178255604081015192820192909255606082015160028201556080820151600382015560a0909101516004909101555b8061390b81615c8a565b91505061382b565b505050505050565b426006600061392b868686613392565b81526020810191909152604001600020600301805463ffffffff191663ffffffff92909216919091179055505050565b6060600080856001600160a01b0316856040516139789190615f57565b600060405180830381855af49150503d80600081146139b3576040519150601f19603f3d011682016040523d82523d6000602084013e6139b8565b606091505b5091509150612ee28683838760608315613a33578251600003613a2c576001600160a01b0385163b613a2c5760405162461bcd60e51b815260206004820152601d60248201527f416464726573733a2063616c6c20746f206e6f6e2d636f6e74726163740000006044820152606401610721565b5081612f48565b612f488383815115613a485781518083602001fd5b8060405162461bcd60e51b81526004016107219190615f73565b60405180610100016040528060008152602001600081526020016000815260200160008152602001600081526020016000815260200160008152602001600081525090565b604080516101c081018252600080825260208201819052918101829052606081018290526080810182905260a0810182905260c0810182905260e08101829052610100810182905261012081018290526101408101919091526101608101613b0d613c2f565b815260606020820152600060409091015290565b5080546000825560050290600052602060002090810190613b429190613ca7565b50565b6040805160c08101825260008082526020820152908101613b64613c2f565b8152602001613b71613b85565b815260006020820181905260409091015290565b604080516101408101909152600060608083018281526080840183905260a0840183905260c0840183905260e084018390526101008401929092526101208301528190815260200160008152602001600081525090565b604080516101208101825260008082526020820152908101613bfc613c2f565b81526020016000815260200160008152602001600081526020016000815260200160008152602001600080191681525090565b6040518060e00160405280613c736040518060c001604052806000815260200160008152602001600081526020016000815260200160008152602001600081525090565b8152602001600081526020016000815260200160008152602001600061ffff16815260200160008152602001600081525090565b5b80821115613ce25780546001600160981b031916815560006001820181905560028201819055600382018190556004820155600501613ca8565b5090565b600060608284031215613cf857600080fd5b50919050565b8015158114613b4257600080fd5b8035613d1781613cfe565b919050565b600080600060a08486031215613d3157600080fd5b613d3b8585613ce6565b92506060840135613d4b81613cfe565b929592945050506080919091013590565b6001600160a01b0381168114613b4257600080fd5b8035613d1781613d5c565b600060208284031215613d8e57600080fd5b813561224381613d5c565b600060208284031215613dab57600080fd5b813561224381613cfe565b60008060008060008060008060006101208a8c031215613dd557600080fd5b8935613de081613d5c565b985060208a0135613df081613cfe565b975060408a0135613e0081613cfe565b989b979a5097986060810135985060808101359760a0820135975060c0820135965060e08201359550610100909101359350915050565b634e487b7160e01b600052604160045260246000fd5b60405161012081016001600160401b0381118282101715613e7057613e70613e37565b60405290565b604051606081016001600160401b0381118282101715613e7057613e70613e37565b60405160c081016001600160401b0381118282101715613e7057613e70613e37565b60405161014081016001600160401b0381118282101715613e7057613e70613e37565b60405160e081016001600160401b0381118282101715613e7057613e70613e37565b6040516101c081016001600160401b0381118282101715613e7057613e70613e37565b604051601f8201601f191681016001600160401b0381118282101715613f4a57613f4a613e37565b604052919050565b60006001600160401b03821115613f6b57613f6b613e37565b50601f01601f191660200190565b600082601f830112613f8a57600080fd5b8135613f9d613f9882613f52565b613f22565b818152846020838601011115613fb257600080fd5b816020850160208301376000918101602001919091529392505050565b8060020b8114613b4257600080fd5b8035613d1781613fcf565b60008060808385031215613ffc57600080fd5b6140068484613ce6565b915060608301356001600160401b038082111561402257600080fd5b90840190610120828703121561403757600080fd5b61403f613e4d565b61404883613d0c565b8152602083013560208201526040830135604082015261406a60608401613d71565b60608201526080830135608082015260a08301358281111561408b57600080fd5b61409788828601613f79565b60a0830152506140a960c08401613fde565b60c08201526140ba60e08401613fde565b60e0820152610100915081830135828201528093505050509250929050565b805182526020810151602083015260408101516040830152606081015160608301526080810151608083015260a081015160a083015260c081015160c083015260e081015160e08301525050565b6101008101612e2682846140d9565b60008060006060848603121561414b57600080fd5b833561415681613d5c565b9250602084013561416681613cfe565b9150604084013561417681613cfe565b809150509250925092565b803562ffffff81168114613d1757600080fd5b6000606082840312156141a657600080fd5b6141ae613e76565b905081356141bb81613d5c565b815260208201356141cb81613d5c565b60208201526141dc60408301614181565b604082015292915050565b600080600060a084860312156141fc57600080fd5b6142068585614194565b9250606084013561421681613d5c565b9150608084013561417681613cfe565b6000806040838503121561423957600080fd5b823561424481613d5c565b9150602083013561425481613d5c565b809150509250929050565b60006020828403121561427157600080fd5b5035919050565b805160020b82526001600160801b03602082015116602083015260408101516040830152606081015160608301526080810151608083015260a081015160a08301525050565b600060e0830160018060a01b0383511684526020808401511515818601526040840151604086015260608401516060860152608084015163ffffffff80821660808801528060a08701511660a0880152505060c08085015160e082880152838151808652610100890191508483019550600092505b8083101561435a57614346828751614278565b948401946001929092019190830190614333565b50979650505050505050565b60608152600061437960608301866142be565b60208301949094525060400152919050565b6000808284036101008112156143a057600080fd5b6143aa8585613ce6565b925060a0605f19820112156143be57600080fd5b5060405160a081018181106001600160401b03821117156143e1576143e1613e37565b60405260608401356143f281613d5c565b8152608084013561440281613cfe565b602082015260a0840135604082015260c084013561441f81613fcf565b606082015260e084013561443281613fcf565b6080820152919491935090915050565b60008060006060848603121561445757600080fd5b833561446281613d5c565b9250602084013561416681613d5c565b600081518084526020808501945080840160005b838110156144ac57614499878351614278565b60c0969096019590820190600101614486565b509495945050505050565b6020815260006122436020830184614472565b60006001600160401b038211156144e3576144e3613e37565b5060051b60200190565b6001600160801b0381168114613b4257600080fd5b600082601f83011261451357600080fd5b81356020614523613f98836144ca565b82815260c0928302850182019282820191908785111561454257600080fd5b8387015b858110156145b95781818a03121561455e5760008081fd5b614566613e98565b813561457181613fcf565b815281860135614580816144ed565b8187015260408281013590820152606080830135908201526080808301359082015260a080830135908201528452928401928101614546565b5090979650505050505050565b600080600060a084860312156145db57600080fd5b6145e58585613ce6565b925060608401356001600160401b038082111561460157600080fd5b90850190610140828803121561461657600080fd5b61461e613eba565b8235815260208301356020820152604083013560408201526060830135606082015261464c60808401613d0c565b608082015260a083013560a082015261466760c08401613d71565b60c082015260e08301358281111561467e57600080fd5b61468a89828601613f79565b60e08301525061010061469e818501613fde565b908201526101206146b0848201613fde565b90820152935060808601359150808211156146ca57600080fd5b506146d786828701614502565b9150509250925092565b60008151606084526146f660608501826142be565b905060208301516020850152604083015160408501528091505092915050565b60608152600061437960608301866146e1565b60208152600061224360208301846146e1565b80516001600160a01b0390811683526020808301519091169083015260409081015162ffffff16910152565b6101608101614777828c61473c565b981515606082015263ffffffff97881660808201529590961660a086015260c085019390935260e08401919091526101008301526101208201526101400152919050565b600080602083850312156147ce57600080fd5b82356001600160401b03808211156147e557600080fd5b818501915085601f8301126147f957600080fd5b81358181111561480857600080fd5b8660208260051b850101111561481d57600080fd5b60209290920196919550909350505050565b60005b8381101561484a578181015183820152602001614832565b50506000910152565b6000815180845261486b81602086016020860161482f565b601f01601f19169290920160200192915050565b6000602080830181845280855180835260408601915060408160051b870101925083870160005b828110156148d457603f198886030184526148c2858351614853565b945092850192908501906001016148a6565b5092979650505050505050565b803563ffffffff81168114613d1757600080fd5b60006060828403121561490757600080fd5b61490f613e76565b905081356001600160401b038082111561492857600080fd5b9083019060e0828603121561493c57600080fd5b614944613edd565b61494d83613d71565b815261495b60208401613d0c565b60208201526040830135604082015260608301356060820152614980608084016148e1565b608082015261499160a084016148e1565b60a082015260c0830135828111156149a857600080fd5b6149b487828601614502565b60c083015250808452505050602082013560208201526040820135604082015292915050565b600080600080600060e086880312156149f257600080fd5b6149fc8787613ce6565b945060608601356001600160401b03811115614a1757600080fd5b614a23888289016148f5565b9450506080860135614a3481613d5c565b925060a0860135614a4481613d5c565b915060c0860135614a5481613cfe565b809150509295509295909350565b60008060008060808587031215614a7857600080fd5b8435614a8381613d5c565b93506020850135614a9381613d5c565b92506040850135614aa381613cfe565b91506060850135614ab381613cfe565b939692955090935050565b60008060008060c08587031215614ad457600080fd5b614ade8686613ce6565b93506060850135614aee81613d5c565b92506080850135614afe81613cfe565b9396929550929360a00135925050565b600060208284031215614b2057600080fd5b81356001600160401b03811115614b3657600080fd5b612f48848285016148f5565b8035614b4d81613d5c565b6001600160a01b039081168352602082013590614b6982613d5c565b16602083015262ffffff614b7f60408301614181565b1660408301525050565b60608101612e268284614b42565b8051613d1781613d5c565b8051613d1781613fcf565b805161ffff81168114613d1757600080fd5b6000818303610180811215614bd357600080fd5b614bdb613edd565b915060c0811215614beb57600080fd5b50614bf4613e98565b825181526020830151602082015260408301516040820152606083015160608201526080830151608082015260a083015160a08201528082525060c0820151602082015260e082015160408201526101008201516060820152614c5a6101208301614bad565b608082015261014082015160a082015261016082015160c082015292915050565b60008060006101c08486031215614c9157600080fd5b8351614c9c81613d5c565b6020850151909350614cad81613fcf565b9150614cbc8560408601614bbf565b90509250925092565b600060608284031215614cd757600080fd5b6122438383614194565b634e487b7160e01b600052601160045260246000fd5b81810381811115612e2657612e26614ce1565b60208082526006908201526510b7bbb732b960d11b604082015260600190565b6020808252600a90820152695245454e5452414e435960b01b604082015260600190565b6020808252600690820152651c185d5cd95960d21b604082015260600190565b600061012082511515845260208301516020850152604083015160408501526060830151614da760608601826001600160a01b03169052565b506080830151608085015260a08301518160a0860152614dc982860182614853565b91505060c0830151614de060c086018260020b9052565b5060e0830151614df560e086018260020b9052565b50610100928301519390920192909252919050565b6000815480845260208085019450836000528060002060005b838110156144ac578154600281810b895260189190911c6001600160801b03168489015260018084015460408a015290830154606089015260038301546080890152600483015460a089015260c09097019660059092019101614e23565b848152608060208201526000614e9a6080830186614d6e565b828103604084015260608152845460018060a01b0381166060830152614eca6080830160ff8360a01c1615159052565b50600185015460a0820152600285015460c0820152600385015463ffffffff80821660e0840152602082901c8116610100840152505060e0610120820152614f19610140820160048701614e0a565b60058601546020830152600690950154604090910152506060015292915050565b600080600060608486031215614f4f57600080fd5b8351925060208401519150604084015190509250925092565b604081526000614f7b6040830185614472565b90508260208301529392505050565b600082601f830112614f9b57600080fd5b81516020614fab613f98836144ca565b82815260c09283028501820192828201919087851115614fca57600080fd5b8387015b858110156145b95781818a031215614fe65760008081fd5b614fee613e98565b8151614ff981613fcf565b815281860151615008816144ed565b8187015260408281015190820152606080830151908201526080808301519082015260a080830151908201528452928401928101614fce565b60006020828403121561505357600080fd5b81516001600160401b0381111561506957600080fd5b612f4884828501614f8a565b85815284602082015283604082015260a06060820152600061509a60a0830185614472565b82810360808401526150ac8185614472565b98975050505050505050565b8051613d1781613cfe565b600080600080600080600060e0888a0312156150de57600080fd5b87516150e981613d5c565b60208901519097506150fa81613fcf565b955061510860408901614bad565b945061511660608901614bad565b935061512460808901614bad565b925060a088015160ff8116811461513a57600080fd5b60c089015190925061514b81613cfe565b8091505092959891949750929550565b6000806040838503121561516e57600080fd5b825161517981613fcf565b602084015190925061425481613fcf565b60006020828403121561519c57600080fd5b5051919050565b6151e3828251805182526020810151602083015260408101516040830152606081015160608301526080810151608083015260a081015160a08301525050565b602081015160c0830152604081015160e0830152606081015161010083015261ffff60808201511661012083015260a081015161014083015260c08101516101608301525050565b60006101e080835261523f8184018a614d6e565b905061524e60208401896140d9565b61012061525d81850189614b42565b6101808483038186015261032061527d848a516001600160a01b03169052565b6020890151615291602086018260020b9052565b506040890151604085015260608901516152b660608601826001600160a01b03169052565b5060808901516152cb608086018260020b9052565b5060a08901516152e060a086018260020b9052565b5060c08901516152f560c086018260020b9052565b5060e089015161531060e08601826001600160a01b03169052565b50610100808a01518186015250828901518385015261014092508289015183850152610160925082890151615347848601826151a3565b50818901519250806102e085015261536181850184614472565b925050506101a080880151610300840152819350615389818601886001600160a01b03169052565b5050506001600160a01b0383166101c0830152979650505050505050565b60006101008083850312156153bb57600080fd5b604051908101906001600160401b03821181831017156153dd576153dd613e37565b81604052809250835181526020840151602082015260408401516040820152606084015160608201526080840151608082015260a084015160a082015260c084015160c082015260e084015160e0820152505092915050565b60008061012080848603121561544b57600080fd5b61545585856153a7565b9250610100808501516001600160401b038082111561547357600080fd5b90860190610320828903121561548857600080fd5b615490613eff565b61549983614b97565b81526154a760208401614ba2565b6020820152604083015160408201526154c260608401614b97565b60608201526154d360808401614ba2565b60808201526154e460a08401614ba2565b60a08201526154f560c08401614ba2565b60c082015261550660e08401614b97565b60e08201528383015184820152848301518582015261014094508483015185820152610160945061553989868501614bbf565b858201526102e083015194508185111561555257600080fd5b61555e89868501614f8a565b6101808201526103008301516101a082015280955050505050509250929050565b60006102008083526155938184018b614472565b905082810360208401526155a7818a614d6e565b9150506155b760408301886140d9565b6155c5610140830187614b42565b6101a08201949094526001600160a01b03929092166101c08301526101e090910152949350505050565b6000610100828403121561560257600080fd5b61224383836153a7565b60608101612e26828461473c565b60006020828403121561562c57600080fd5b815161224381613cfe565b60808152600061564a6080830187614472565b941515602083015250600292830b6040820152910b606090910152919050565b6000610120615679838b614b42565b88606084015287608084015286151560a08401528060c084015261569f81840187614472565b6001600160a01b0395861660e08501529390941661010090920191909152509695505050505050565b6156d28187614b42565b60e0606082015260006156e860e0830187614472565b60808301959095525091151560a08301526001600160a01b031660c09091015292915050565b60006101a061571d838f614b42565b80606084015261572f8184018e614472565b608084019c909c52505097151560a0890152600296870b60c08901529490950b60e08701526001600160a01b039283166101008701526101208601919091528116610140850152918216610160840152166101809091015292915050565b60006101408251845260208301516020850152604083015160408501526060830151606085015260808301516157c7608086018215159052565b5060a083015160a085015260c08301516157ec60c08601826001600160a01b03169052565b5060e08301518160e086015261580482860182614853565b9150506101008084015161581c8287018260020b9052565b5050610120808401516158338287018260020b9052565b5090949350505050565b83815282602082015260606040820152600061585c606083018461578d565b95945050505050565b600082601f83011261587657600080fd5b8151615884613f9882613f52565b81815284602083860101111561589957600080fd5b612f4882602083016020870161482f565b600061014082840312156158bd57600080fd5b6158c5613eba565b9050815181526020820151602082015260408201516040820152606082015160608201526158f5608083016150b8565b608082015260a082015160a082015261591060c08301614b97565b60c082015260e08201516001600160401b0381111561592e57600080fd5b61593a84828501615865565b60e08301525061010061594e818401614ba2565b90820152610120615960838201614ba2565b9082015292915050565b6000806040838503121561597d57600080fd5b8251915060208301516001600160401b0381111561599a57600080fd5b6159a6858286016158aa565b9150509250929050565b6159ba8187614b42565b60e0606082015260006159d060e083018761578d565b82810360808401526159e28187614472565b6001600160a01b0395861660a08501529390941660c09092019190915250949350505050565b60008060008060808587031215615a1e57600080fd5b845193506020850151925060408501516001600160401b0380821115615a4357600080fd5b615a4f888389016158aa565b93506060870151915080821115615a6557600080fd5b50615a7287828801614f8a565b91505092959194509250565b6001600160a01b03868116825285166020820152600284900b604082015261014060608201819052600090615ab583820186614472565b915050612ee26080830184805182526020810151602083015260408101516040830152606081015160608301526080810151608083015260a081015160a08301525050565b606081526000615b0d6060830186614472565b93151560208301525060029190910b604090910152919050565b604081526000615b3a6040830185614472565b828103602084015261585c8185614472565b6000610120808352615b608184018b61578d565b915050615b706020830189614b42565b608082019690965260029490940b60a08501526001600160a01b0392831660c0850152911660e08301526101009091015292915050565b60008060408385031215615bba57600080fd5b505080516020909101519092909150565b6000600160ff1b8201615be057615be0614ce1565b5060000390565b85815260a060208201526000615c0060a083018761578d565b8281036040840152615c128187614472565b60608401959095525050608001529392505050565b634e487b7160e01b600052603260045260246000fd5b6000808335601e19843603018112615c5457600080fd5b8301803591506001600160401b03821115615c6e57600080fd5b602001915036819003821315615c8357600080fd5b9250929050565b600060018201615c9c57615c9c614ce1565b5060010190565b60e0815260008651606060e084015260018060a01b0381511661014084015260208101511515610160840152604081015161018084015260608101516101a084015263ffffffff6080820151166101c084015260a0810151615d0e6101e085018263ffffffff169052565b5060c0015160e0610200840152615d29610220840182614472565b60208981015161010086015260408a0151610120860152909250615d509150830187614b42565b93151560808201526001600160a01b039290921660a083015260c09091015292915050565b8681526001600160a01b038681166020830152610100820190615d9b6040840188614b42565b9490941660a082015291151560c083015260e0909101529392505050565b80820180821115612e2657612e26614ce1565b60006102a0615ddc84845161473c565b6020830151816060860152615df382860182614472565b915050604083015160018060a01b0380821660808701528060608601511660a087015250506080830151151560c085015260a0830151615e3660e08601826151a3565b5060c0830151615e4c61026086018260020b9052565b5060e08301516102808501528091505092915050565b85815260a060208201526000615e7b60a0830187615dcc565b63ffffffff959095166040830152506001600160a01b039283166060820152911660809091015292915050565b60008060408385031215615ebb57600080fd5b8251915060208301516001600160401b03811115615ed857600080fd5b6159a685828601614f8a565b615eee818661473c565b60c060608201526000615f0460c0830186614472565b93151560808301525060a0015292915050565b848152608060208201526000615f306080830186615dcc565b6001600160a01b039490941660408301525063ffffffff9190911660609091015292915050565b60008251615f6981846020870161482f565b9190910192915050565b602081526000612243602083018461485356fe416464726573733a206c6f772d6c6576656c2064656c65676174652063616c6c206661696c6564a2646970667358221220bad52ad739474fa82a2a26532a2328512633923f47e9d6241c21a80645616ab564736f6c63430008150033",
    "linkReferences": {
      "src/MarginPositionHelper.sol": {
        "MarginPositionHelper": [
          {
            "start": 2194,
            "length": 20
          },
          {
            "start": 2774,
            "length": 20
          },
          {
            "start": 3738,
            "length": 20
          },
          {
            "start": 4497,
            "length": 20
          },
          {
            "start": 4781,
            "length": 20
          },
          {
            "start": 4976,
            "length": 20
          },
          {
            "start": 7600,
            "length": 20
          },
          {
            "start": 7769,
            "length": 20
          },
          {
            "start": 7831,
            "length": 20
          },
          {
            "start": 9260,
            "length": 20
          },
          {
            "start": 9504,
            "length": 20
          },
          {
            "start": 10422,
            "length": 20
          },
          {
            "start": 10610,
            "length": 20
          },
          {
            "start": 11858,
            "length": 20
          }
        ]
      },
      "src/PremiumComputer.sol": {
        "PremiumComputer": [
          {
            "start": 9687,
            "length": 20
          },
          {
            "start": 12286,
            "length": 20
          },
          {
            "start": 13457,
            "length": 20
          },
          {
            "start": 14056,
            "length": 20
          }
        ]
      },
      "src/Util.sol": {
        "Utils": [
          {
            "start": 3402,
            "length": 20
          },
          {
            "start": 4177,
            "length": 20
          },
          {
            "start": 4372,
            "length": 20
          },
          {
            "start": 7435,
            "length": 20
          },
          {
            "start": 9842,
            "length": 20
          },
          {
            "start": 10305,
            "length": 20
          }
        ]
      }
    }
  },
  "methodIdentifiers": {
    "PremiumDeposit(bytes32)": "5d4936ff",
    "_initialize(address,address)": "e5c9c2ed",
    "addPosition((address,address,uint24),(uint256,uint256,uint256,uint256,bool,uint256,address,bytes,int24,int24),(int24,uint128,uint256,uint256,uint256,uint256)[])": "8be8efa2",
    "approveTokens(address,address)": "3eb4adab",
    "canForceClose(((address,bool,uint256,uint256,uint32,uint32,(int24,uint128,uint256,uint256,uint256,uint256)[]),uint256,uint256))": "ff9912cd",
    "canForceClose((address,address,uint24),((address,bool,uint256,uint256,uint32,uint32,(int24,uint128,uint256,uint256,uint256,uint256)[]),uint256,uint256),address,address,bool)": "b8541526",
    "cancelOrder(address,bool,bool)": "28ec7232",
    "checkPositionExists(address,address,bool)": "f2edf95a",
    "depositPremium((address,address,uint24),address,bool,uint256)": "dbe5f6cb",
    "executioner()": "dc6ab02f",
    "forceClose((address,address,uint24),(address,bool,uint256,int24,int24))": "5277a324",
    "getBorrowInfo(address,address,bool)": "657b5a4b",
    "getLastRepayTime(address,address,bool)": "d93a9047",
    "getOrderId(address,address,bool,bool)": "bfd4c2a5",
    "getPosition(address,address,bool)": "8c1395f8",
    "getPositionId(address,address,bool)": "f6f0ea89",
    "initialize(address,address)": "485cc955",
    "maxWithdrawablePremium((address,address,uint24),address,bool)": "2be197cf",
    "multicall(bytes[])": "ac9650d8",
    "orders(bytes32)": "9c3f1e90",
    "payPremium((address,address,uint24),bool,uint256)": "de074f10",
    "positions(bytes32)": "514ea4bf",
    "reducePosition((address,address,uint24),(bool,uint256,uint256,address,uint256,bytes,int24,int24,uint256))": "27bd6f83",
    "setAddPaused(bool)": "1fda89ef",
    "setExecutioner(address)": "efea3285",
    "setForceClosePaused(bool)": "d42a397c",
    "setOwner(address)": "13af4035",
    "setPoolManager(address)": "7aef6715",
    "setReducePaused(bool)": "89a1c073",
    "submitOrder(address,bool,bool,uint256,uint256,uint256,uint256,uint256,uint256)": "228e062a",
    "withdrawPremium((address,address,uint24),bool,uint256)": "025df9e4"
  },
  "id": 44
}