{
  "abi": [
    {
      "inputs": [
        {
          "internalType": "address",
          "name": "pm",
          "type": "address"
        },
        {
          "internalType": "address",
          "name": "ex",
          "type": "address"
        },
        {
          "internalType": "address",
          "name": "uniswapFactory",
          "type": "address"
        }
      ],
      "stateMutability": "nonpayable",
      "type": "constructor"
    },
    {
      "inputs": [],
      "name": "addReduceInvalidTick",
      "type": "error"
    },
    {
      "inputs": [],
      "name": "cantForceClose",
      "type": "error"
    },
    {
      "inputs": [],
      "name": "exceedMaxWithdrawablePremium",
      "type": "error"
    },
    {
      "inputs": [],
      "name": "incorrectReduce",
      "type": "error"
    },
    {
      "inputs": [],
      "name": "insufficientPremiumDeposit",
      "type": "error"
    },
    {
      "inputs": [],
      "name": "noPosition",
      "type": "error"
    },
    {
      "inputs": [],
      "name": "notEnoughPremiumDeposit",
      "type": "error"
    },
    {
      "anonymous": false,
      "inputs": [
        {
          "indexed": true,
          "internalType": "address",
          "name": "pool",
          "type": "address"
        },
        {
          "indexed": true,
          "internalType": "bool",
          "name": "positionIsToken0",
          "type": "bool"
        },
        {
          "indexed": true,
          "internalType": "address",
          "name": "trader",
          "type": "address"
        },
        {
          "indexed": false,
          "internalType": "uint256",
          "name": "forcedClosedAmount",
          "type": "uint256"
        },
        {
          "indexed": false,
          "internalType": "uint256",
          "name": "fillerPayAmount",
          "type": "uint256"
        },
        {
          "indexed": false,
          "internalType": "uint256",
          "name": "rangeCondition",
          "type": "uint256"
        }
      ],
      "name": "ForceClosed",
      "type": "event"
    },
    {
      "anonymous": false,
      "inputs": [
        {
          "indexed": true,
          "internalType": "address",
          "name": "pool",
          "type": "address"
        },
        {
          "indexed": true,
          "internalType": "bool",
          "name": "positionIsToken0",
          "type": "bool"
        },
        {
          "indexed": true,
          "internalType": "address",
          "name": "trader",
          "type": "address"
        },
        {
          "indexed": false,
          "internalType": "address",
          "name": "filler",
          "type": "address"
        },
        {
          "indexed": false,
          "internalType": "uint256",
          "name": "addedAmount",
          "type": "uint256"
        },
        {
          "indexed": false,
          "internalType": "uint256",
          "name": "marginAmount",
          "type": "uint256"
        },
        {
          "indexed": false,
          "internalType": "uint256",
          "name": "borrowAmount",
          "type": "uint256"
        },
        {
          "indexed": false,
          "internalType": "uint256",
          "name": "premiumPaid",
          "type": "uint256"
        },
        {
          "indexed": false,
          "internalType": "uint256",
          "name": "feePaid",
          "type": "uint256"
        }
      ],
      "name": "MarginPositionIncreased",
      "type": "event"
    },
    {
      "anonymous": false,
      "inputs": [
        {
          "indexed": true,
          "internalType": "address",
          "name": "pool",
          "type": "address"
        },
        {
          "indexed": true,
          "internalType": "bool",
          "name": "positionIsToken0",
          "type": "bool"
        },
        {
          "indexed": true,
          "internalType": "address",
          "name": "trader",
          "type": "address"
        },
        {
          "indexed": false,
          "internalType": "address",
          "name": "filler",
          "type": "address"
        },
        {
          "indexed": false,
          "internalType": "uint256",
          "name": "reducePercentage",
          "type": "uint256"
        },
        {
          "indexed": false,
          "internalType": "uint256",
          "name": "premiumPaid",
          "type": "uint256"
        },
        {
          "indexed": false,
          "internalType": "uint256",
          "name": "feePaid",
          "type": "uint256"
        }
      ],
      "name": "MarginPositionReduced",
      "type": "event"
    },
    {
      "anonymous": false,
      "inputs": [
        {
          "indexed": true,
          "internalType": "address",
          "name": "pool",
          "type": "address"
        },
        {
          "indexed": true,
          "internalType": "bool",
          "name": "positionIsToken0",
          "type": "bool"
        },
        {
          "indexed": true,
          "internalType": "address",
          "name": "trader",
          "type": "address"
        },
        {
          "indexed": false,
          "internalType": "bool",
          "name": "isAdd",
          "type": "bool"
        },
        {
          "indexed": false,
          "internalType": "uint256",
          "name": "deadline",
          "type": "uint256"
        },
        {
          "indexed": false,
          "internalType": "uint256",
          "name": "startOutput",
          "type": "uint256"
        },
        {
          "indexed": false,
          "internalType": "uint256",
          "name": "minOutput",
          "type": "uint256"
        },
        {
          "indexed": false,
          "internalType": "uint256",
          "name": "inputAmount",
          "type": "uint256"
        },
        {
          "indexed": false,
          "internalType": "uint256",
          "name": "decayRate",
          "type": "uint256"
        },
        {
          "indexed": false,
          "internalType": "uint256",
          "name": "margin",
          "type": "uint256"
        }
      ],
      "name": "OrderAdded",
      "type": "event"
    },
    {
      "anonymous": false,
      "inputs": [
        {
          "indexed": true,
          "internalType": "address",
          "name": "pool",
          "type": "address"
        },
        {
          "indexed": true,
          "internalType": "bool",
          "name": "positionIsToken0",
          "type": "bool"
        },
        {
          "indexed": true,
          "internalType": "address",
          "name": "trader",
          "type": "address"
        },
        {
          "indexed": false,
          "internalType": "bool",
          "name": "isAdd",
          "type": "bool"
        }
      ],
      "name": "OrderCanceled",
      "type": "event"
    },
    {
      "anonymous": false,
      "inputs": [
        {
          "indexed": true,
          "internalType": "address",
          "name": "payer",
          "type": "address"
        },
        {
          "indexed": true,
          "internalType": "address",
          "name": "pool",
          "type": "address"
        },
        {
          "indexed": false,
          "internalType": "bool",
          "name": "isToken1",
          "type": "bool"
        },
        {
          "indexed": false,
          "internalType": "uint256",
          "name": "amount",
          "type": "uint256"
        }
      ],
      "name": "PremiumDeposited",
      "type": "event"
    },
    {
      "anonymous": false,
      "inputs": [
        {
          "indexed": true,
          "internalType": "address",
          "name": "payer",
          "type": "address"
        },
        {
          "indexed": true,
          "internalType": "address",
          "name": "pool",
          "type": "address"
        },
        {
          "indexed": false,
          "internalType": "uint256",
          "name": "token0Amount",
          "type": "uint256"
        },
        {
          "indexed": false,
          "internalType": "uint256",
          "name": "token1Amount",
          "type": "uint256"
        },
        {
          "indexed": false,
          "internalType": "uint256",
          "name": "swappedAmount",
          "type": "uint256"
        }
      ],
      "name": "PremiumPaid",
      "type": "event"
    },
    {
      "anonymous": false,
      "inputs": [
        {
          "indexed": true,
          "internalType": "address",
          "name": "withdrawer",
          "type": "address"
        },
        {
          "indexed": true,
          "internalType": "address",
          "name": "pool",
          "type": "address"
        },
        {
          "indexed": false,
          "internalType": "bool",
          "name": "isToken1",
          "type": "bool"
        },
        {
          "indexed": false,
          "internalType": "uint256",
          "name": "amount",
          "type": "uint256"
        }
      ],
      "name": "PremiumWithdrawn",
      "type": "event"
    },
    {
      "inputs": [
        {
          "internalType": "PositionId",
          "name": "",
          "type": "bytes32"
        }
      ],
      "name": "PremiumDeposit",
      "outputs": [
        {
          "internalType": "uint256",
          "name": "",
          "type": "uint256"
        }
      ],
      "stateMutability": "view",
      "type": "function"
    },
    {
      "inputs": [
        {
          "components": [
            {
              "internalType": "address",
              "name": "token0",
              "type": "address"
            },
            {
              "internalType": "address",
              "name": "token1",
              "type": "address"
            },
            {
              "internalType": "uint24",
              "name": "fee",
              "type": "uint24"
            }
          ],
          "internalType": "struct PoolKey",
          "name": "key",
          "type": "tuple"
        },
        {
          "components": [
            {
              "internalType": "uint256",
              "name": "margin",
              "type": "uint256"
            },
            {
              "internalType": "uint256",
              "name": "minOutput",
              "type": "uint256"
            },
            {
              "internalType": "uint256",
              "name": "simulatedOutput",
              "type": "uint256"
            },
            {
              "internalType": "uint256",
              "name": "borrowAmount",
              "type": "uint256"
            },
            {
              "internalType": "bool",
              "name": "positionIsToken0",
              "type": "bool"
            },
            {
              "internalType": "uint256",
              "name": "executionOption",
              "type": "uint256"
            },
            {
              "internalType": "address",
              "name": "trader",
              "type": "address"
            },
            {
              "internalType": "bytes",
              "name": "executionData",
              "type": "bytes"
            },
            {
              "internalType": "int24",
              "name": "slippedTickMin",
              "type": "int24"
            },
            {
              "internalType": "int24",
              "name": "slippedTickMax",
              "type": "int24"
            }
          ],
          "internalType": "struct AddParams",
          "name": "param",
          "type": "tuple"
        },
        {
          "components": [
            {
              "internalType": "int24",
              "name": "tick",
              "type": "int24"
            },
            {
              "internalType": "uint128",
              "name": "liquidity",
              "type": "uint128"
            },
            {
              "internalType": "uint256",
              "name": "premium",
              "type": "uint256"
            },
            {
              "internalType": "uint256",
              "name": "feeGrowthInside0LastX128",
              "type": "uint256"
            },
            {
              "internalType": "uint256",
              "name": "feeGrowthInside1LastX128",
              "type": "uint256"
            },
            {
              "internalType": "uint256",
              "name": "lastGrowth",
              "type": "uint256"
            }
          ],
          "internalType": "struct LiquidityLoan[]",
          "name": "borrowInfo",
          "type": "tuple[]"
        }
      ],
      "name": "addPosition",
      "outputs": [
        {
          "components": [
            {
              "components": [
                {
                  "internalType": "address",
                  "name": "pool",
                  "type": "address"
                },
                {
                  "internalType": "bool",
                  "name": "isToken0",
                  "type": "bool"
                },
                {
                  "internalType": "uint256",
                  "name": "totalDebtOutput",
                  "type": "uint256"
                },
                {
                  "internalType": "uint256",
                  "name": "totalDebtInput",
                  "type": "uint256"
                },
                {
                  "internalType": "uint256",
                  "name": "recentPremium",
                  "type": "uint256"
                },
                {
                  "internalType": "uint32",
                  "name": "openTime",
                  "type": "uint32"
                },
                {
                  "internalType": "uint32",
                  "name": "repayTime",
                  "type": "uint32"
                },
                {
                  "components": [
                    {
                      "internalType": "int24",
                      "name": "tick",
                      "type": "int24"
                    },
                    {
                      "internalType": "uint128",
                      "name": "liquidity",
                      "type": "uint128"
                    },
                    {
                      "internalType": "uint256",
                      "name": "premium",
                      "type": "uint256"
                    },
                    {
                      "internalType": "uint256",
                      "name": "feeGrowthInside0LastX128",
                      "type": "uint256"
                    },
                    {
                      "internalType": "uint256",
                      "name": "feeGrowthInside1LastX128",
                      "type": "uint256"
                    },
                    {
                      "internalType": "uint256",
                      "name": "lastGrowth",
                      "type": "uint256"
                    }
                  ],
                  "internalType": "struct LiquidityLoan[]",
                  "name": "borrowInfo",
                  "type": "tuple[]"
                }
              ],
              "internalType": "struct Position",
              "name": "base",
              "type": "tuple"
            },
            {
              "internalType": "uint256",
              "name": "totalPosition",
              "type": "uint256"
            },
            {
              "internalType": "uint256",
              "name": "margin",
              "type": "uint256"
            }
          ],
          "internalType": "struct MarginPosition",
          "name": "position",
          "type": "tuple"
        },
        {
          "internalType": "uint256",
          "name": "premiumOwed",
          "type": "uint256"
        },
        {
          "internalType": "uint256",
          "name": "fee",
          "type": "uint256"
        }
      ],
      "stateMutability": "nonpayable",
      "type": "function"
    },
    {
      "inputs": [
        {
          "internalType": "address",
          "name": "token0",
          "type": "address"
        },
        {
          "internalType": "address",
          "name": "token1",
          "type": "address"
        }
      ],
      "name": "approveTokens",
      "outputs": [],
      "stateMutability": "nonpayable",
      "type": "function"
    },
    {
      "inputs": [
        {
          "components": [
            {
              "components": [
                {
                  "internalType": "address",
                  "name": "pool",
                  "type": "address"
                },
                {
                  "internalType": "bool",
                  "name": "isToken0",
                  "type": "bool"
                },
                {
                  "internalType": "uint256",
                  "name": "totalDebtOutput",
                  "type": "uint256"
                },
                {
                  "internalType": "uint256",
                  "name": "totalDebtInput",
                  "type": "uint256"
                },
                {
                  "internalType": "uint256",
                  "name": "recentPremium",
                  "type": "uint256"
                },
                {
                  "internalType": "uint32",
                  "name": "openTime",
                  "type": "uint32"
                },
                {
                  "internalType": "uint32",
                  "name": "repayTime",
                  "type": "uint32"
                },
                {
                  "components": [
                    {
                      "internalType": "int24",
                      "name": "tick",
                      "type": "int24"
                    },
                    {
                      "internalType": "uint128",
                      "name": "liquidity",
                      "type": "uint128"
                    },
                    {
                      "internalType": "uint256",
                      "name": "premium",
                      "type": "uint256"
                    },
                    {
                      "internalType": "uint256",
                      "name": "feeGrowthInside0LastX128",
                      "type": "uint256"
                    },
                    {
                      "internalType": "uint256",
                      "name": "feeGrowthInside1LastX128",
                      "type": "uint256"
                    },
                    {
                      "internalType": "uint256",
                      "name": "lastGrowth",
                      "type": "uint256"
                    }
                  ],
                  "internalType": "struct LiquidityLoan[]",
                  "name": "borrowInfo",
                  "type": "tuple[]"
                }
              ],
              "internalType": "struct Position",
              "name": "base",
              "type": "tuple"
            },
            {
              "internalType": "uint256",
              "name": "totalPosition",
              "type": "uint256"
            },
            {
              "internalType": "uint256",
              "name": "margin",
              "type": "uint256"
            }
          ],
          "internalType": "struct MarginPosition",
          "name": "position",
          "type": "tuple"
        }
      ],
      "name": "canForceClose",
      "outputs": [
        {
          "internalType": "bool",
          "name": "",
          "type": "bool"
        }
      ],
      "stateMutability": "view",
      "type": "function"
    },
    {
      "inputs": [
        {
          "components": [
            {
              "internalType": "address",
              "name": "token0",
              "type": "address"
            },
            {
              "internalType": "address",
              "name": "token1",
              "type": "address"
            },
            {
              "internalType": "uint24",
              "name": "fee",
              "type": "uint24"
            }
          ],
          "internalType": "struct PoolKey",
          "name": "key",
          "type": "tuple"
        },
        {
          "components": [
            {
              "components": [
                {
                  "internalType": "address",
                  "name": "pool",
                  "type": "address"
                },
                {
                  "internalType": "bool",
                  "name": "isToken0",
                  "type": "bool"
                },
                {
                  "internalType": "uint256",
                  "name": "totalDebtOutput",
                  "type": "uint256"
                },
                {
                  "internalType": "uint256",
                  "name": "totalDebtInput",
                  "type": "uint256"
                },
                {
                  "internalType": "uint256",
                  "name": "recentPremium",
                  "type": "uint256"
                },
                {
                  "internalType": "uint32",
                  "name": "openTime",
                  "type": "uint32"
                },
                {
                  "internalType": "uint32",
                  "name": "repayTime",
                  "type": "uint32"
                },
                {
                  "components": [
                    {
                      "internalType": "int24",
                      "name": "tick",
                      "type": "int24"
                    },
                    {
                      "internalType": "uint128",
                      "name": "liquidity",
                      "type": "uint128"
                    },
                    {
                      "internalType": "uint256",
                      "name": "premium",
                      "type": "uint256"
                    },
                    {
                      "internalType": "uint256",
                      "name": "feeGrowthInside0LastX128",
                      "type": "uint256"
                    },
                    {
                      "internalType": "uint256",
                      "name": "feeGrowthInside1LastX128",
                      "type": "uint256"
                    },
                    {
                      "internalType": "uint256",
                      "name": "lastGrowth",
                      "type": "uint256"
                    }
                  ],
                  "internalType": "struct LiquidityLoan[]",
                  "name": "borrowInfo",
                  "type": "tuple[]"
                }
              ],
              "internalType": "struct Position",
              "name": "base",
              "type": "tuple"
            },
            {
              "internalType": "uint256",
              "name": "totalPosition",
              "type": "uint256"
            },
            {
              "internalType": "uint256",
              "name": "margin",
              "type": "uint256"
            }
          ],
          "internalType": "struct MarginPosition",
          "name": "position",
          "type": "tuple"
        }
      ],
      "name": "canForceClose",
      "outputs": [
        {
          "internalType": "bool",
          "name": "",
          "type": "bool"
        }
      ],
      "stateMutability": "view",
      "type": "function"
    },
    {
      "inputs": [
        {
          "internalType": "address",
          "name": "pool",
          "type": "address"
        },
        {
          "internalType": "bool",
          "name": "positionIsToken0",
          "type": "bool"
        },
        {
          "internalType": "bool",
          "name": "isAdd",
          "type": "bool"
        }
      ],
      "name": "cancelOrder",
      "outputs": [],
      "stateMutability": "nonpayable",
      "type": "function"
    },
    {
      "inputs": [
        {
          "internalType": "address",
          "name": "pool",
          "type": "address"
        },
        {
          "internalType": "address",
          "name": "borrower",
          "type": "address"
        },
        {
          "internalType": "bool",
          "name": "borrowedToken1",
          "type": "bool"
        }
      ],
      "name": "checkPositionExists",
      "outputs": [
        {
          "internalType": "bool",
          "name": "",
          "type": "bool"
        }
      ],
      "stateMutability": "view",
      "type": "function"
    },
    {
      "inputs": [
        {
          "internalType": "address",
          "name": "pool",
          "type": "address"
        },
        {
          "internalType": "address",
          "name": "borrower",
          "type": "address"
        },
        {
          "internalType": "bool",
          "name": "borrowedToken1",
          "type": "bool"
        },
        {
          "internalType": "uint256",
          "name": "minPremiumDepositPercentage",
          "type": "uint256"
        }
      ],
      "name": "checkPremiumCondition",
      "outputs": [
        {
          "internalType": "bool",
          "name": "",
          "type": "bool"
        }
      ],
      "stateMutability": "view",
      "type": "function"
    },
    {
      "inputs": [
        {
          "components": [
            {
              "internalType": "address",
              "name": "token0",
              "type": "address"
            },
            {
              "internalType": "address",
              "name": "token1",
              "type": "address"
            },
            {
              "internalType": "uint24",
              "name": "fee",
              "type": "uint24"
            }
          ],
          "internalType": "struct PoolKey",
          "name": "key",
          "type": "tuple"
        },
        {
          "internalType": "address",
          "name": "trader",
          "type": "address"
        },
        {
          "internalType": "bool",
          "name": "borrowToken1",
          "type": "bool"
        },
        {
          "internalType": "uint256",
          "name": "amount",
          "type": "uint256"
        }
      ],
      "name": "depositPremium",
      "outputs": [],
      "stateMutability": "nonpayable",
      "type": "function"
    },
    {
      "inputs": [
        {
          "components": [
            {
              "internalType": "address",
              "name": "token0",
              "type": "address"
            },
            {
              "internalType": "address",
              "name": "token1",
              "type": "address"
            },
            {
              "internalType": "uint24",
              "name": "fee",
              "type": "uint24"
            }
          ],
          "internalType": "struct PoolKey",
          "name": "key",
          "type": "tuple"
        },
        {
          "components": [
            {
              "internalType": "address",
              "name": "trader",
              "type": "address"
            },
            {
              "internalType": "bool",
              "name": "positionIsToken0",
              "type": "bool"
            },
            {
              "internalType": "uint256",
              "name": "fillerPayAmount",
              "type": "uint256"
            },
            {
              "internalType": "int24",
              "name": "slippedTickMin",
              "type": "int24"
            },
            {
              "internalType": "int24",
              "name": "slippedTickMax",
              "type": "int24"
            }
          ],
          "internalType": "struct ForceCloseParams",
          "name": "param",
          "type": "tuple"
        }
      ],
      "name": "forceClose",
      "outputs": [],
      "stateMutability": "nonpayable",
      "type": "function"
    },
    {
      "inputs": [
        {
          "internalType": "address",
          "name": "pool",
          "type": "address"
        },
        {
          "internalType": "address",
          "name": "borrower",
          "type": "address"
        },
        {
          "internalType": "bool",
          "name": "borrowedToken1",
          "type": "bool"
        }
      ],
      "name": "getBorrowInfo",
      "outputs": [
        {
          "components": [
            {
              "internalType": "int24",
              "name": "tick",
              "type": "int24"
            },
            {
              "internalType": "uint128",
              "name": "liquidity",
              "type": "uint128"
            },
            {
              "internalType": "uint256",
              "name": "premium",
              "type": "uint256"
            },
            {
              "internalType": "uint256",
              "name": "feeGrowthInside0LastX128",
              "type": "uint256"
            },
            {
              "internalType": "uint256",
              "name": "feeGrowthInside1LastX128",
              "type": "uint256"
            },
            {
              "internalType": "uint256",
              "name": "lastGrowth",
              "type": "uint256"
            }
          ],
          "internalType": "struct LiquidityLoan[]",
          "name": "",
          "type": "tuple[]"
        }
      ],
      "stateMutability": "view",
      "type": "function"
    },
    {
      "inputs": [
        {
          "internalType": "address",
          "name": "pool",
          "type": "address"
        },
        {
          "internalType": "address",
          "name": "trader",
          "type": "address"
        },
        {
          "internalType": "bool",
          "name": "positionIsToken0",
          "type": "bool"
        },
        {
          "internalType": "bool",
          "name": "isAdd",
          "type": "bool"
        }
      ],
      "name": "getOrderId",
      "outputs": [
        {
          "internalType": "bytes32",
          "name": "",
          "type": "bytes32"
        }
      ],
      "stateMutability": "pure",
      "type": "function"
    },
    {
      "inputs": [
        {
          "internalType": "address",
          "name": "pool",
          "type": "address"
        },
        {
          "internalType": "address",
          "name": "trader",
          "type": "address"
        },
        {
          "internalType": "bool",
          "name": "positionIsToken0",
          "type": "bool"
        }
      ],
      "name": "getPosition",
      "outputs": [
        {
          "components": [
            {
              "components": [
                {
                  "internalType": "address",
                  "name": "pool",
                  "type": "address"
                },
                {
                  "internalType": "bool",
                  "name": "isToken0",
                  "type": "bool"
                },
                {
                  "internalType": "uint256",
                  "name": "totalDebtOutput",
                  "type": "uint256"
                },
                {
                  "internalType": "uint256",
                  "name": "totalDebtInput",
                  "type": "uint256"
                },
                {
                  "internalType": "uint256",
                  "name": "recentPremium",
                  "type": "uint256"
                },
                {
                  "internalType": "uint32",
                  "name": "openTime",
                  "type": "uint32"
                },
                {
                  "internalType": "uint32",
                  "name": "repayTime",
                  "type": "uint32"
                },
                {
                  "components": [
                    {
                      "internalType": "int24",
                      "name": "tick",
                      "type": "int24"
                    },
                    {
                      "internalType": "uint128",
                      "name": "liquidity",
                      "type": "uint128"
                    },
                    {
                      "internalType": "uint256",
                      "name": "premium",
                      "type": "uint256"
                    },
                    {
                      "internalType": "uint256",
                      "name": "feeGrowthInside0LastX128",
                      "type": "uint256"
                    },
                    {
                      "internalType": "uint256",
                      "name": "feeGrowthInside1LastX128",
                      "type": "uint256"
                    },
                    {
                      "internalType": "uint256",
                      "name": "lastGrowth",
                      "type": "uint256"
                    }
                  ],
                  "internalType": "struct LiquidityLoan[]",
                  "name": "borrowInfo",
                  "type": "tuple[]"
                }
              ],
              "internalType": "struct Position",
              "name": "base",
              "type": "tuple"
            },
            {
              "internalType": "uint256",
              "name": "totalPosition",
              "type": "uint256"
            },
            {
              "internalType": "uint256",
              "name": "margin",
              "type": "uint256"
            }
          ],
          "internalType": "struct MarginPosition",
          "name": "",
          "type": "tuple"
        }
      ],
      "stateMutability": "view",
      "type": "function"
    },
    {
      "inputs": [
        {
          "internalType": "address",
          "name": "pool",
          "type": "address"
        },
        {
          "internalType": "address",
          "name": "trader",
          "type": "address"
        },
        {
          "internalType": "bool",
          "name": "positionIsToken0",
          "type": "bool"
        }
      ],
      "name": "getPositionId",
      "outputs": [
        {
          "internalType": "PositionId",
          "name": "",
          "type": "bytes32"
        }
      ],
      "stateMutability": "pure",
      "type": "function"
    },
    {
      "inputs": [
        {
          "internalType": "PositionId",
          "name": "positionId",
          "type": "bytes32"
        }
      ],
      "name": "maxWithdrawablePremium",
      "outputs": [
        {
          "internalType": "uint256",
          "name": "",
          "type": "uint256"
        }
      ],
      "stateMutability": "view",
      "type": "function"
    },
    {
      "inputs": [
        {
          "internalType": "bytes[]",
          "name": "data",
          "type": "bytes[]"
        }
      ],
      "name": "multicall",
      "outputs": [
        {
          "internalType": "bytes[]",
          "name": "results",
          "type": "bytes[]"
        }
      ],
      "stateMutability": "nonpayable",
      "type": "function"
    },
    {
      "inputs": [
        {
          "internalType": "bytes32",
          "name": "",
          "type": "bytes32"
        }
      ],
      "name": "orders",
      "outputs": [
        {
          "components": [
            {
              "internalType": "address",
              "name": "token0",
              "type": "address"
            },
            {
              "internalType": "address",
              "name": "token1",
              "type": "address"
            },
            {
              "internalType": "uint24",
              "name": "fee",
              "type": "uint24"
            }
          ],
          "internalType": "struct PoolKey",
          "name": "key",
          "type": "tuple"
        },
        {
          "internalType": "bool",
          "name": "positionIsToken0",
          "type": "bool"
        },
        {
          "internalType": "uint32",
          "name": "auctionDeadline",
          "type": "uint32"
        },
        {
          "internalType": "uint32",
          "name": "auctionStartTime",
          "type": "uint32"
        },
        {
          "internalType": "uint256",
          "name": "startOutput",
          "type": "uint256"
        },
        {
          "internalType": "uint256",
          "name": "minOutput",
          "type": "uint256"
        },
        {
          "internalType": "uint256",
          "name": "inputAmount",
          "type": "uint256"
        },
        {
          "internalType": "uint256",
          "name": "decayRate",
          "type": "uint256"
        },
        {
          "internalType": "uint256",
          "name": "margin",
          "type": "uint256"
        }
      ],
      "stateMutability": "view",
      "type": "function"
    },
    {
      "inputs": [
        {
          "components": [
            {
              "internalType": "address",
              "name": "token0",
              "type": "address"
            },
            {
              "internalType": "address",
              "name": "token1",
              "type": "address"
            },
            {
              "internalType": "uint24",
              "name": "fee",
              "type": "uint24"
            }
          ],
          "internalType": "struct PoolKey",
          "name": "key",
          "type": "tuple"
        },
        {
          "internalType": "bool",
          "name": "payToken1",
          "type": "bool"
        },
        {
          "internalType": "uint256",
          "name": "depositAmount",
          "type": "uint256"
        }
      ],
      "name": "payPremium",
      "outputs": [
        {
          "internalType": "uint256",
          "name": "premiumOwed",
          "type": "uint256"
        }
      ],
      "stateMutability": "nonpayable",
      "type": "function"
    },
    {
      "inputs": [
        {
          "internalType": "PositionId",
          "name": "",
          "type": "bytes32"
        }
      ],
      "name": "positions",
      "outputs": [
        {
          "components": [
            {
              "internalType": "address",
              "name": "pool",
              "type": "address"
            },
            {
              "internalType": "bool",
              "name": "isToken0",
              "type": "bool"
            },
            {
              "internalType": "uint256",
              "name": "totalDebtOutput",
              "type": "uint256"
            },
            {
              "internalType": "uint256",
              "name": "totalDebtInput",
              "type": "uint256"
            },
            {
              "internalType": "uint256",
              "name": "recentPremium",
              "type": "uint256"
            },
            {
              "internalType": "uint32",
              "name": "openTime",
              "type": "uint32"
            },
            {
              "internalType": "uint32",
              "name": "repayTime",
              "type": "uint32"
            },
            {
              "components": [
                {
                  "internalType": "int24",
                  "name": "tick",
                  "type": "int24"
                },
                {
                  "internalType": "uint128",
                  "name": "liquidity",
                  "type": "uint128"
                },
                {
                  "internalType": "uint256",
                  "name": "premium",
                  "type": "uint256"
                },
                {
                  "internalType": "uint256",
                  "name": "feeGrowthInside0LastX128",
                  "type": "uint256"
                },
                {
                  "internalType": "uint256",
                  "name": "feeGrowthInside1LastX128",
                  "type": "uint256"
                },
                {
                  "internalType": "uint256",
                  "name": "lastGrowth",
                  "type": "uint256"
                }
              ],
              "internalType": "struct LiquidityLoan[]",
              "name": "borrowInfo",
              "type": "tuple[]"
            }
          ],
          "internalType": "struct Position",
          "name": "base",
          "type": "tuple"
        },
        {
          "internalType": "uint256",
          "name": "totalPosition",
          "type": "uint256"
        },
        {
          "internalType": "uint256",
          "name": "margin",
          "type": "uint256"
        }
      ],
      "stateMutability": "view",
      "type": "function"
    },
    {
      "inputs": [
        {
          "internalType": "bool",
          "name": "positionIsToken0",
          "type": "bool"
        },
        {
          "internalType": "int24",
          "name": "curTick",
          "type": "int24"
        },
        {
          "internalType": "int24",
          "name": "maxTick",
          "type": "int24"
        },
        {
          "internalType": "int24",
          "name": "minTick",
          "type": "int24"
        },
        {
          "internalType": "int24",
          "name": "tickDiscretization",
          "type": "int24"
        }
      ],
      "name": "rangeConditions",
      "outputs": [
        {
          "internalType": "uint256",
          "name": "",
          "type": "uint256"
        }
      ],
      "stateMutability": "pure",
      "type": "function"
    },
    {
      "inputs": [
        {
          "components": [
            {
              "internalType": "address",
              "name": "token0",
              "type": "address"
            },
            {
              "internalType": "address",
              "name": "token1",
              "type": "address"
            },
            {
              "internalType": "uint24",
              "name": "fee",
              "type": "uint24"
            }
          ],
          "internalType": "struct PoolKey",
          "name": "key",
          "type": "tuple"
        },
        {
          "components": [
            {
              "internalType": "bool",
              "name": "positionIsToken0",
              "type": "bool"
            },
            {
              "internalType": "uint256",
              "name": "reducePercentage",
              "type": "uint256"
            },
            {
              "internalType": "uint256",
              "name": "minOutput",
              "type": "uint256"
            },
            {
              "internalType": "address",
              "name": "trader",
              "type": "address"
            },
            {
              "internalType": "uint256",
              "name": "executionOption",
              "type": "uint256"
            },
            {
              "internalType": "bytes32",
              "name": "executionData",
              "type": "bytes32"
            },
            {
              "internalType": "int24",
              "name": "slippedTickMin",
              "type": "int24"
            },
            {
              "internalType": "int24",
              "name": "slippedTickMax",
              "type": "int24"
            },
            {
              "internalType": "uint256",
              "name": "reduceAmount",
              "type": "uint256"
            }
          ],
          "internalType": "struct ReduceParam",
          "name": "param",
          "type": "tuple"
        }
      ],
      "name": "reducePosition",
      "outputs": [
        {
          "components": [
            {
              "internalType": "int256",
              "name": "amount0",
              "type": "int256"
            },
            {
              "internalType": "int256",
              "name": "amount1",
              "type": "int256"
            },
            {
              "internalType": "int256",
              "name": "PnL",
              "type": "int256"
            },
            {
              "internalType": "uint256",
              "name": "returnedAmount",
              "type": "uint256"
            },
            {
              "internalType": "uint256",
              "name": "repaidDebt0",
              "type": "uint256"
            },
            {
              "internalType": "uint256",
              "name": "repaidDebt1",
              "type": "uint256"
            },
            {
              "internalType": "uint256",
              "name": "premium",
              "type": "uint256"
            },
            {
              "internalType": "uint256",
              "name": "profitFee",
              "type": "uint256"
            }
          ],
          "internalType": "struct ReduceReturn",
          "name": "",
          "type": "tuple"
        }
      ],
      "stateMutability": "nonpayable",
      "type": "function"
    },
    {
      "inputs": [
        {
          "internalType": "address",
          "name": "pool",
          "type": "address"
        },
        {
          "internalType": "bool",
          "name": "positionIsToken0",
          "type": "bool"
        },
        {
          "internalType": "bool",
          "name": "isAdd",
          "type": "bool"
        },
        {
          "internalType": "uint256",
          "name": "deadline",
          "type": "uint256"
        },
        {
          "internalType": "uint256",
          "name": "startOutput",
          "type": "uint256"
        },
        {
          "internalType": "uint256",
          "name": "minOutput",
          "type": "uint256"
        },
        {
          "internalType": "uint256",
          "name": "inputAmount",
          "type": "uint256"
        },
        {
          "internalType": "uint256",
          "name": "decayRate",
          "type": "uint256"
        },
        {
          "internalType": "uint256",
          "name": "margin",
          "type": "uint256"
        }
      ],
      "name": "submitOrder",
      "outputs": [],
      "stateMutability": "nonpayable",
      "type": "function"
    },
    {
      "inputs": [
        {
          "components": [
            {
              "internalType": "address",
              "name": "token0",
              "type": "address"
            },
            {
              "internalType": "address",
              "name": "token1",
              "type": "address"
            },
            {
              "internalType": "uint24",
              "name": "fee",
              "type": "uint24"
            }
          ],
          "internalType": "struct PoolKey",
          "name": "key",
          "type": "tuple"
        },
        {
          "internalType": "bool",
          "name": "borrowToken1",
          "type": "bool"
        },
        {
          "internalType": "uint256",
          "name": "amount",
          "type": "uint256"
        }
      ],
      "name": "withdrawPremium",
      "outputs": [],
      "stateMutability": "nonpayable",
      "type": "function"
    }
  ],
  "bytecode": {
    "object": "0x608060405260016000553480156200001657600080fd5b5060405162005fdb38038062005fdb8339810160408190526200003991620000a6565b600180546001600160a01b03199081166001600160a01b039586161790915560028054821693851693909317909255600480548316919093161790915560038054339216919091179055620000f0565b80516001600160a01b0381168114620000a157600080fd5b919050565b600080600060608486031215620000bc57600080fd5b620000c78462000089565b9250620000d76020850162000089565b9150620000e76040850162000089565b90509250925092565b615edb80620001006000396000f3fe608060405234801561001057600080fd5b506004361061014d5760003560e01c80638be8efa2116100c3578063bc06b0081161007c578063bc06b00814610418578063bfd4c2a51461042b578063dbe5f6cb1461043e578063de074f1014610451578063f2edf95a14610464578063f6f0ea891461047757600080fd5b80638be8efa2146102835780638c1395f8146102a55780639c3f1e90146102c5578063a36b9168146103d7578063ac9650d8146103ea578063afbc39eb1461040a57600080fd5b80633eb4adab116101155780633eb4adab146101d9578063514ea4bf146101ec5780635277a3241461020e5780635d4936ff14610221578063657b5a4b1461024f57806386dacdb01461026f57600080fd5b8063025df9e4146101525780630a2c5e291461016757806320a672a214610190578063228e062a146101b357806328ec7232146101c6575b600080fd5b610165610160366004613dfb565b61048a565b005b61017a610175366004613fd5565b6105d3565b60405161018791906140e4565b60405180910390f35b6101a361019e3660046140f3565b611202565b6040519015158152602001610187565b6101656101c1366004614144565b61128c565b6101656101d43660046141c5565b61144e565b6101656101e7366004614210565b61153b565b6101ff6101fa366004614249565b611765565b60405161018793929190614367565b61016561021c36600461438c565b611891565b61024161022f366004614249565b60056020526000908152604090205481565b604051908152602001610187565b61026261025d366004614426565b611e96565b6040516101879190614490565b61024161027d366004614249565b50600090565b61029661029136600461461c565b612000565b6040516101879392919061476c565b6102b86102b3366004614426565b6129df565b604051610187919061477f565b6103646102d3366004614249565b600660208181526000928352604092839020835160608101855281546001600160a01b039081168252600183015490811693820193909352600160a01b90920462ffffff1693820193909352600283015460038401546004850154600586015494860154600790960154939560ff841695610100850463ffffffff9081169665010000000000909604169490919089565b604080518a516001600160a01b0390811682526020808d0151909116908201529981015162ffffff16908a0152961515606089015263ffffffff95861660808901529490931660a087015260c086019190915260e085015261010084015261012083015261014082015261016001610187565b6102416103e5366004614792565b612b45565b6103fd6103f8366004614803565b612bbc565b60405161018791906148c7565b6101a361027d366004614a2d565b6101a3610426366004614a61565b612cb1565b610241610439366004614aaf565b612d55565b61016561044c366004614b0b565b612db9565b61024161045f366004613dfb565b612eea565b6101a3610472366004614426565b613111565b610241610485366004614426565b61313f565b600154604051639525092360e01b81526000916001600160a01b0316906395250923906104bb908790600401614bb5565b6101a060405180830381865afa1580156104d9573d6000803e3d6000fd5b505050506040513d601f19601f820116820180604052508101906104fd9190614c9c565b50509050600061050e82338661313f565b9050821561052f57604051632b869ad760e21b815260040160405180910390fd5b6000818152600560205260408120805485929061054d908490614cfc565b909155506105849050846105705761056b6040870160208801614d0f565b61057d565b61057d6020870187614d0f565b3385613195565b604080518515158152602081018590526001600160a01b0384169133917ffb7067681775f19340bbd7db267bcc1217b3d27bff5bfee90759622e8e028977910160405180910390a35050505050565b6105db613b91565b6000546001146106065760405162461bcd60e51b81526004016105fd90614d2c565b60405180910390fd5b6002600055610613613bd6565b61061b613b91565b600154604051639525092360e01b81526001600160a01b039091169063952509239061064b908890600401614bb5565b6101a060405180830381865afa158015610669573d6000803e3d6000fd5b505050506040513d601f19601f8201168201806040525081019061068d9190614c9c565b61016085015260020b60208401526001600160a01b03168083526060850151855160009260079284926106c192919061313f565b8152602001908152602001600020905080600601546000036106f65760405163081f715760e11b815260040160405180910390fd5b602085015115806107125750670de0b6b3a76400008560200151115b156107305760405163161e1b4160e11b815260040160405180910390fd5b73__$506f8190e26c635088963c8a0018e71746$__63e31e0ac686836006600061076989600001518c606001518d600001516000612d55565b81526020019081526020016000206040518463ffffffff1660e01b815260040161079593929190614ed7565b606060405180830381865af41580156107b2573d6000803e3d6000fd5b505050506040513d601f19601f820116820180604052508101906107d69190614f9d565b6020880152610100850152604084015260608501516001600160a01b0316331461087a578251606086015186516006926000926108139284612d55565b81526020810191909152604001600090812080546001600160a01b03191681556001810180546001600160b81b031916905560028101805468ffffffffffffffffff1916905560038101829055600481018290556005810182905560068101829055600701555b606061099c6040518061010001604052808980360381019061089c9190614fcb565b815260200184600001600501805480602002602001604051908101604052809291908181526020016000905b8282101561093f5760008481526020908190206040805160c081018252600586029092018054600281810b855263010000009091046001600160801b031684860152600180830154938501939093528101546060840152600381015460808401526004015460a083015290835290920191016108c8565b50505050815260200186600001516001600160a01b0316815260200188606001516001600160a01b031681526020018860000151151581526020018661016001518152602001866020015160020b81526020016000815250613213565b60c08501919091526020870151909150670de0b6b3a764000014610a4357602086015160405163069b8a8b60e31b815273__$d23a8dd93b7205fa6b646ffed38c165d68$__916334dc5458916109f991600587019160040161501d565b600060405180830381865af4158015610a16573d6000803e3d6000fd5b505050506040513d6000823e601f3d908101601f19168201604052610a3e91908101906150f6565b610ae1565b6005820180546040805160208084028201810190925282815292919060009084015b82821015610adc5760008481526020908190206040805160c081018252600586029092018054600281810b855263010000009091046001600160801b031684860152600180830154938501939093528101546060840152600381015460808401526004015460a08301529083529092019101610a65565b505050505b610180850152600782015461014085015260068201546101008701511015610d0357836101000151826006016000828254610b1c9190614cfc565b90915550506020860151610b5090610b3c90670de0b6b3a7640000614cfc565b600284015490670de0b6b3a7640000613731565b60028301556020860151610b8490610b7090670de0b6b3a7640000614cfc565b600184015490670de0b6b3a7640000613731565b60018301556020860151610bb890610ba490670de0b6b3a7640000614cfc565b600784015490670de0b6b3a7640000613731565b600783015560005b8151811015610cfd578461018001518181518110610be057610be061512a565b602002602001015160200151828281518110610bfe57610bfe61512a565b602002602001015160200151610c149190615140565b828281518110610c2657610c2661512a565b6020026020010151602001906001600160801b031690816001600160801b031681525050818181518110610c5c57610c5c61512a565b6020026020010151836000016005018281548110610c7c57610c7c61512a565b600091825260209182902083516005909202018054928401516001600160801b03166301000000026001600160981b031990931662ffffff9092169190911791909117815560408201516001820155606082015160028201556080820151600382015560a09091015160049091015580610cf581615160565b915050610bc0565b50610d88565b835160608701518751600792600092610d1b9261313f565b81526020810191909152604001600090812080546001600160a81b031916815560018101829055600281018290556003810182905560048101805467ffffffffffffffff19169055908181610d736005830182613c49565b50506006820160009055600782016000905550505b83600001516001600160a01b0316633850c7bd6040518163ffffffff1660e01b815260040160e060405180830381865afa158015610dca573d6000803e3d6000fd5b505050506040513d601f19601f82011682018060405250810190610dee9190615184565b50505050600291820b608088018190526001600160a01b0390931660608801525060c0880151900b1380610e2f5750836080015160020b8660e0015160020b125b15610e4d57604051631e6012f360e21b815260040160405180910390fd5b6040516337a6142160e01b815273__$d23a8dd93b7205fa6b646ffed38c165d68$__906337a6142190610e8790600586019060040161521c565b6040805180830381865af4158015610ea3573d6000803e3d6000fd5b505050506040513d601f19601f82011682018060405250810190610ec7919061522f565b600290810b60c0870181905291900b60a08601819052875160808701516020880151600094610ef7949091612b45565b905080600103611024576002546001546040516337aaefd560e11b815273__$506f8190e26c635088963c8a0018e71746$__92636f55dfaa92610f52928c928a928f928d926001600160a01b039081169216906004016152db565b600060405180830381865af4158015610f6f573d6000803e3d6000fd5b505050506040513d6000823e601f3d908101601f19168201604052610f979190810190615483565b6101208101519096509094501561101f578651610ffd90610fc457610fbf60208a018a614d0f565b610fd4565b610fd460408a0160208b01614d0f565b60035461012088015160e08801516001600160a01b0390921691610ff89190614cfc565b613195565b61101f61100f368a90038a018a614fcb565b865189516101208901518661380f565b61116b565b806002036110d55773__$506f8190e26c635088963c8a0018e71746$__634271c04786610180015189878c8a6101400151600160009054906101000a90046001600160a01b03166040518763ffffffff1660e01b815260040161108c969594939291906155c0565b61010060405180830381865af41580156110aa573d6000803e3d6000fd5b505050506040513d601f19601f820116820180604052508101906110ce9190615624565b935061116b565b600254600154604051630e4940a960e31b815273__$506f8190e26c635088963c8a0018e71746$__9263724a054892611126928c928a928f928d926001600160a01b039081169216906004016152db565b61010060405180830381865af4158015611144573d6000803e3d6000fd5b505050506040513d601f19601f820116820180604052508101906111689190615624565b93505b6060870151875186516001600160a01b039283169291151591167f3aacf7844e8b88dda49c434b9ce8b132ed7fc860559882f088ff0c39f8fe98873384146111b357336111b6565b60005b60208c81015160c08b015160e08c0151604080516001600160a01b0396909616865293850192909252838301526060830152519081900360800190a45050600160005550949350505050565b6000806112108686866129df565b80516060015190915061122c9084670de0b6b3a7640000613731565b6005600061123b89898961313f565b81526020019081526020016000205410156112835760405162461bcd60e51b8152602060048201526008602482015267217072656d69756d60c01b60448201526064016105fd565b50949350505050565b6000546001146112ae5760405162461bcd60e51b81526004016105fd90614d2c565b600260009081556112c08a338b6129df565b9050876113045783816020015110156113045760405162461bcd60e51b81526004016105fd9060208082526004908201526321706f7360e01b604082015260600190565b6000600660006113168d338e8e612d55565b81526020019081526020016000209050898160020160006101000a81548160ff021916908315150217905550878160020160016101000a81548163ffffffff021916908363ffffffff160217905550428160020160056101000a81548163ffffffff021916908363ffffffff160217905550858160040181905550868160030181905550848160050181905550838160060181905550828160070181905550336001600160a01b03168a15158c6001600160a01b03167f4c34e64fbcdd268148a9e26a3b2c922bd24162485ce0b2ba28e4ce57d9a2c33c8c8c8c8c8c8c8c60405161143497969594939291909615158752602087019590955260408601939093526060850191909152608084015260a083015260c082015260e00190565b60405180910390a450506001600055505050505050505050565b6000546001146114705760405162461bcd60e51b81526004016105fd90614d2c565b6002600090815560069061148685338686612d55565b81526020808201929092526040908101600090812080546001600160a01b03191681556001810180546001600160b81b031916905560028101805468ffffffffffffffffff1916905560038101829055600481018290556005810182905560068101829055600701555182151581523391841515916001600160a01b038716917f761fde4703b3eb1ca92675208248e655ce58d6778c95e6e742ab9819a7f3d93d910160405180910390a45050600160005550565b6001546001600160a01b0316331461157d5760405162461bcd60e51b8152602060048201526005602482015264085c1bdbdb60da1b60448201526064016105fd565b60015460405163095ea7b360e01b81526001600160a01b03918216600482015260001960248201529083169063095ea7b3906044016020604051808303816000875af11580156115d1573d6000803e3d6000fd5b505050506040513d601f19601f820116820180604052508101906115f59190615641565b5060015460405163095ea7b360e01b81526001600160a01b03918216600482015260001960248201529082169063095ea7b3906044016020604051808303816000875af115801561164a573d6000803e3d6000fd5b505050506040513d601f19601f8201168201806040525081019061166e9190615641565b5060025460405163095ea7b360e01b81526001600160a01b03918216600482015260001960248201529083169063095ea7b3906044016020604051808303816000875af11580156116c3573d6000803e3d6000fd5b505050506040513d601f19601f820116820180604052508101906116e79190615641565b5060025460405163095ea7b360e01b81526001600160a01b03918216600482015260001960248201529082169063095ea7b3906044016020604051808303816000875af115801561173c573d6000803e3d6000fd5b505050506040513d601f19601f820116820180604052508101906117609190615641565b505050565b600760209081526000918252604080832081516101008101835281546001600160a01b0381168252600160a01b900460ff161515818501526001820154818401526002820154606082015260038201546080820152600482015463ffffffff80821660a08401526401000000009091041660c082015260058201805484518187028101870190955280855292959194869460e08701949093909184015b828210156118795760008481526020908190206040805160c081018252600586029092018054600281810b855263010000009091046001600160801b031684860152600180830154938501939093528101546060840152600381015460808401526004015460a08301529083529092019101611802565b50505091525050600682015460079092015490919083565b6000546001146118b35760405162461bcd60e51b81526004016105fd90614d2c565b60026000908155600154604051639525092360e01b815282916001600160a01b0316906395250923906118ea908790600401614bb5565b6101a060405180830381865afa158015611908573d6000803e3d6000fd5b505050506040513d601f19601f8201168201806040525081019061192c9190614c9c565b5091509150600061194683856000015186602001516129df565b90506119528582612cb1565b61196f576040516303144f8160e21b815260040160405180910390fd5b80602001516000036119945760405163081f715760e11b815260040160405180910390fd5b6000836001600160a01b0316633850c7bd6040518163ffffffff1660e01b815260040160e060405180830381865afa1580156119d4573d6000803e3d6000fd5b505050506040513d601f19601f820116820180604052508101906119f89190615184565b5050865160e001516040516337a6142160e01b815294965060009550859473__$d23a8dd93b7205fa6b646ffed38c165d68$__94506337a614219350611a419250600401614490565b6040805180830381865af4158015611a5d573d6000803e3d6000fd5b505050506040513d601f19601f82011682018060405250810190611a81919061522f565b915091506000611a9888602001518584868a612b45565b90508360020b886060015160020b1380611abb57508360020b886080015160020b125b15611ad957604051631e6012f360e21b815260040160405180910390fd5b80600103611b975773__$506f8190e26c635088963c8a0018e71746$__6325d377758a87602001518b604001518c602001518a6000015160e00151600260009054906101000a90046001600160a01b0316600160009054906101000a90046001600160a01b03166040518863ffffffff1660e01b8152600401611b62979695949392919061565e565b60006040518083038186803b158015611b7a57600080fd5b505af4158015611b8e573d6000803e3d6000fd5b50505050611cd0565b80600203611c035773__$506f8190e26c635088963c8a0018e71746$__63ad6c50258a876000015160e0015188602001518c60200151600160009054906101000a90046001600160a01b03166040518663ffffffff1660e01b8152600401611b629594939291906156bc565b73__$506f8190e26c635088963c8a0018e71746$__63f245ffa58a876000015160e0015188602001518c602001518b8a8f60400151600260009054906101000a90046001600160a01b0316600160009054906101000a90046001600160a01b0316600360009054906101000a90046001600160a01b03166040518b63ffffffff1660e01b8152600401611c9f9a99989796959493929190615702565b60006040518083038186803b158015611cb757600080fd5b505af4158015611ccb573d6000803e3d6000fd5b505050505b60076000611ce7898b600001518c6020015161313f565b81526020810191909152604001600090812080546001600160a81b031916815560018101829055600281018290556003810182905560048101805467ffffffffffffffff19169055908181611d3f6005830182613c49565b505060068201600090556007820160009055505060005b855160e0015151811015611e1257600154865160e0015180516001600160a01b0390921691637f8f1dda918d9185908110611d9357611d9361512a565b6020026020010151600001516040518363ffffffff1660e01b8152600401611dbc929190615779565b6060604051808303816000875af1158015611ddb573d6000803e3d6000fd5b505050506040513d601f19601f82011682018060405250810190611dff9190615797565b5080611e0a81615160565b915050611d56565b5087600001516001600160a01b031688602001511515886001600160a01b03167f93eab6e8520a1442c72b300820e9791d361ae2fb3975f78306dd8c0f2a7e4d3588602001518c6040015186604051611e7e939291909283526020830191909152604082015260600190565b60405180910390a45050600160005550505050505050565b6060600060076000611ea987878761313f565b81526020808201929092526040908101600090812082516101608101845281546001600160a01b03811660608301908152600160a01b90910460ff1615156080830152600183015460a0830152600283015460c0830152600383015460e0830152600483015463ffffffff8082166101008501526401000000009091041661012083015260058301805486518189028101890190975280875292969395879592948794610140880194929392909184015b82821015611fd15760008481526020908190206040805160c081018252600586029092018054600281810b855263010000009091046001600160801b031684860152600180830154938501939093528101546060840152600381015460808401526004015460a08301529083529092019101611f5a565b505050915250508152600682015460208201526007909101546040909101525160e001519150505b9392505050565b612008613c6d565b60008060005460011461202d5760405162461bcd60e51b81526004016105fd90614d2c565b600260005561203a613ccc565b600154604051639525092360e01b81526001600160a01b039091169063952509239061206a908a90600401614bb5565b6101a060405180830381865afa158015612088573d6000803e3d6000fd5b505050506040513d601f19601f820116820180604052508101906120ac9190614c9c565b604084015260020b60208301526001600160a01b031680825260c0870151608088015160009260079284926120e292919061313f565b8152602001908152602001600020905073__$506f8190e26c635088963c8a0018e71746$__631fbfc2b16006600061212986600001518c60c001518d608001516001612d55565b8152602001908152602001600020896040518363ffffffff1660e01b8152600401612155929190615883565b600060405180830381865af4158015612172573d6000803e3d6000fd5b505050506040513d6000823e601f3d908101601f1916820160405261219a91908101906159aa565b606084019190915260c08101519097506001600160a01b0316331461223d57600660006121d684600001518a60c001518b608001516001612d55565b81526020810191909152604001600090812080546001600160a01b03191681556001810180546001600160b81b031916905560028101805468ffffffffffffffffff1916905560038101829055600481018290556005810182905560068101829055600701555b612279876080015161225b5761225660208a018a614d0f565b61226b565b61226b60408a0160208b01614d0f565b60c089015189513090613885565b600154600354604051632da526f160e01b815273__$506f8190e26c635088963c8a0018e71746$__92632da526f1926122ca928d928d928d926001600160a01b0392831692909116906004016159e6565b600060405180830381865af41580156122e7573d6000803e3d6000fd5b505050506040513d6000823e601f3d908101601f1916820160405261230f9190810190615a3e565b60808601929092528451600154602087015160408089015151905163cf2778e960e01b8152949d50949b5094975073__$eacbb88ed4bd2af84aa4d43bcf675bcf7e$__9463cf2778e994612374946001600160a01b03909316928d9190600401615ab4565b600060405180830381865af4158015612391573d6000803e3d6000fd5b505050506040513d6000823e601f3d908101601f191682016040526123b991908101906150f6565b608088015160208401516040516341533fe760e01b815292985073__$d23a8dd93b7205fa6b646ffed38c165d68$__926341533fe7926123fd928b92600401615b26565b602060405180830381865af415801561241a573d6000803e3d6000fd5b505050506040513d601f19601f8201168201806040525081019061243e9190615b53565b60e08301526005810154156125fc5760606125716040518061010001604052808b80360381019061246f9190614fcb565b815260200184600001600501805480602002602001604051908101604052809291908181526020016000905b828210156125125760008481526020908190206040805160c081018252600586029092018054600281810b855263010000009091046001600160801b031684860152600180830154938501939093528101546060840152600381015460808401526004015460a0830152908352909201910161249b565b50505050815260200185600001516001600160a01b031681526020018a60c001516001600160a01b031681526020018a608001511515815260200185604001518152602001856020015160020b81526020018560800151815250613213565b604051630612817160e31b8152919650915073__$d23a8dd93b7205fa6b646ffed38c165d68$__906330940b88906125af908a908590600401615b6c565b600060405180830381865af41580156125cc573d6000803e3d6000fd5b505050506040513d6000823e601f3d908101601f191682016040526125f491908101906150f6565b965050612620565b61262061260e368a90038a018a614fcb565b83516080808b0151908601518a61380f565b604082015160a00151606088015161264091670de0b6b3a7640000613731565b6005600061265b85600001518b60c001518c6080015161313f565b8152602001908152602001600020541015612689576040516357312bc960e01b815260040160405180910390fd5b73__$506f8190e26c635088963c8a0018e71746$__6386c6f9bb888a8560e001518660200151600260009054906101000a90046001600160a01b0316886000015189606001516040518863ffffffff1660e01b81526004016126f19796959493929190615b91565b6040805180830381865af415801561270d573d6000803e3d6000fd5b505050506040513d601f19601f820116820180604052508101906127319190615bec565b60c084015260a0830152608087015173__$506f8190e26c635088963c8a0018e71746$__906383277c249083908a908a90612779578660c0015161277490615c10565b612787565b8660a0015161278790615c10565b6040518563ffffffff1660e01b81526004016127a69493929190615c2c565b60006040518083038186803b1580156127be57600080fd5b505af41580156127d2573d6000803e3d6000fd5b5050604080516101608101825284546001600160a01b03811660608301908152600160a01b90910460ff1615156080830152600186015460a0830152600286015460c0830152600386015460e0830152600486015463ffffffff80821661010085015264010000000090910416610120830152600586018054845160208083028201810190965281815293965087955086949293869361014087019391929060009084015b828210156128ee5760008481526020908190206040805160c081018252600586029092018054600281810b855263010000009091046001600160801b031684860152600180830154938501939093528101546060840152600381015460808401526004015460a08301529083529092019101612877565b5050509152505081526006820154602082015260079091015460409091015260c0880151608089015184519297506001600160a01b039182169290151591167f9162a397ba17d1e4988a59388b9744cf4bc003cf58486fda9f8c7c91a7af3fca33841461295b573361295e565b60005b8b6080015161297a578660c0015161297590615c10565b612988565b8660a0015161298890615c10565b8c516060808f0151604080516001600160a01b0390961686526020860194909452928401919091528201526080810189905260a0810188905260c00160405180910390a45050600160008190555093509350939050565b6129e7613c6d565b600760006129f686868661313f565b81526020808201929092526040908101600090812082516101608101845281546001600160a01b03811660608301908152600160a01b90910460ff1615156080830152600183015460a0830152600283015460c0830152600383015460e0830152600483015463ffffffff8082166101008501526401000000009091041661012083015260058301805486518189028101890190975280875292969395879592948794610140880194929392909184015b82821015612b1e5760008481526020908190206040805160c081018252600586029092018054600281810b855263010000009091046001600160801b031684860152600180830154938501939093528101546060840152600381015460808401526004015460a08301529083529092019101612aa7565b50505091525050815260068201546020820152600790910154604090910152949350505050565b600085612b5a578260020b8560020b12612b6e565b612b648285615c69565b60020b8560020b12155b15612b7b57506001612bb3565b85612b9857612b8a8285615c69565b60020b8560020b1215612ba2565b8260020b8560020b125b15612baf57506002612bb3565b5060035b95945050505050565b6060816001600160401b03811115612bd657612bd6613e3b565b604051908082528060200260200182016040528015612c0957816020015b6060815260200190600190039081612bf45790505b50905060005b82811015612ca957612c7930858584818110612c2d57612c2d61512a565b9050602002810190612c3f9190615c8e565b8080601f01602080910402602001604051908101604052809392919081815260200183838082843760009201919091525061390f92505050565b828281518110612c8b57612c8b61512a565b60200260200101819052508080612ca190615160565b915050612c0f565b505b92915050565b600154604051639525092360e01b815260009182916001600160a01b0390911690639525092390612ce6908790600401614bb5565b6101a060405180830381865afa158015612d04573d6000803e3d6000fd5b505050506040513d601f19601f82011682018060405250810190612d289190614c9c565b925050508060c00151836000015160c0015163ffffffff1642612d4b9190614cfc565b1015949350505050565b6040516bffffffffffffffffffffffff19606086811b8216602084015285901b16603482015282151560f890811b6048830152821515901b6049820152600090604a016040516020818303038152906040528051906020012090505b949350505050565b600154604051639525092360e01b81526000916001600160a01b031690639525092390612dea908890600401614bb5565b6101a060405180830381865afa158015612e08573d6000803e3d6000fd5b505050506040513d601f19601f82011682018060405250810190612e2c9190614c9c565b505090506000612e3d82338661313f565b905082600560008381526020019081526020016000206000828254612e629190615cdb565b90915550612e9a905084612e8257612e7d6020880188614d0f565b612e92565b612e926040880160208901614d0f565b333086613885565b604080518515158152602081018590526001600160a01b0384169133917f3b362679889b553ed2e7ee099bd77d266648894e6562144e3791e108b0a2596e910160405180910390a3505050505050565b60008054600114612f0d5760405162461bcd60e51b81526004016105fd90614d2c565b60026000908155600154604051639525092360e01b8152829182916001600160a01b0390911690639525092390612f48908a90600401614bb5565b6101a060405180830381865afa158015612f66573d6000803e3d6000fd5b505050506040513d601f19601f82011682018060405250810190612f8a9190614c9c565b925092509250612f9b833388613111565b612fb85760405163081f715760e11b815260040160405180910390fd5b6000612fc5843389611e96565b90506130316040518061010001604052808a803603810190612fe79190614fcb565b8152602001838152602001866001600160a01b03168152602001336001600160a01b0316815260200189151581526020018481526020018560020b81526020016000815250613213565b909550905061304284338984613934565b856005600061305287338c61313f565b8152602001908152602001600020600082825461306f9190615cdb565b909155506130a790508761308f5761308a60208a018a614d0f565b61309f565b61309f60408a0160208b01614d0f565b333089613885565b6130b78433898560a00151611202565b50604080518815158152602081018890526001600160a01b0386169133917f3b362679889b553ed2e7ee099bd77d266648894e6562144e3791e108b0a2596e910160405180910390a3505060016000555090949350505050565b6000806007600061312387878761313f565b8152602001908152602001600020600601541190509392505050565b6040516bffffffffffffffffffffffff19606085811b8216602084015284901b16603482015281151560f81b60488201526000906049016040516020818303038152906040528051906020012090509392505050565b600060405163a9059cbb60e01b8152836004820152826024820152602060006044836000895af13d15601f3d116001600051141617169150508061320d5760405162461bcd60e51b815260206004820152600f60248201526e1514905394d1915497d19052531151608a1b60448201526064016105fd565b50505050565b6000606060008073__$eacbb88ed4bd2af84aa4d43bcf675bcf7e$__630d527ba98660400151600160009054906101000a90046001600160a01b03168860800151158960c001518a60a00151600001518b602001516040518763ffffffff1660e01b815260040161328996959493929190615cee565b600060405180830381865af41580156132a6573d6000803e3d6000fd5b505050506040513d6000823e601f3d908101601f191682016040526132ce9190810190615d71565b6020880192909252925090506000811561350c5760008087604001516001600160a01b0316633850c7bd6040518163ffffffff1660e01b815260040160e060405180830381865afa158015613327573d6000803e3d6000fd5b505050506040513d601f19601f8201168201806040525081019061334b9190615184565b50505060808c015160405163103d82bb60e11b81526001600160a01b0386166004820152670e92596fd629000060248201529015604482015293955091935060009273__$d23a8dd93b7205fa6b646ffed38c165d68$__925063207b05769150606401602060405180830381865af41580156133cb573d6000803e3d6000fd5b505050506040513d601f19601f820116820180604052508101906133ef9190615dc0565b8951805160209091015160025460408d015160808e01519495509293919260009283926001600160a01b03169163c90050de911561342c8d615c10565b6040516001600160e01b031960e086901b1681526001600160a01b039384166004820152911515602483015260448201528189166064820152818816608482015290861660a482015260c40160408051808303816000875af1158015613496573d6000803e3d6000fd5b505050506040513d601f19601f820116820180604052508101906134ba9190615bec565b915091508c608001516134cd57816134cf565b805b97506134db888b615cdb565b99506135048d60800151156134f057846134f2565b835b6001546001600160a01b03168b613195565b505050505050505b826005600061352889604001518a606001518b6080015161313f565b815260200190815260200160002054101561355657604051636e4a119b60e11b815260040160405180910390fd5b826005600061357289604001518a606001518b6080015161313f565b815260208082019290925260409081016000208054939093039092556001548851928901519189015160808a015160e08b01516001600160a01b039093169463fd8d019c949093909291906135c7888b614cfc565b896040518863ffffffff1660e01b81526004016135ea9796959493929190615ddd565b600060405180830381600087803b15801561360457600080fd5b505af1158015613618573d6000803e3d6000fd5b5050505060005b866020015151811015613665576000876020015182815181106136445761364461512a565b6020908102919091010151604001528061365d81615160565b91505061361f565b50613697866080015161367a57865151613681565b8651602001515b6001546001600160a01b0316610ff88487614cfc565b85604001516001600160a01b0316336001600160a01b03167fef39cf4d418744ce8441cdcbef9be73e8e133e5404246a8b82839b201dbf671988608001516136e8576136e38487614cfc565b6136ea565b845b89608001516136f95785613703565b6137038588614cfc565b604080519283526020830191909152810185905260600160405180910390a350506020909301519293915050565b600080806000198587098587029250828110838203039150508060000361376a576000841161375f57600080fd5b508290049050611ff9565b8084116137a25760405162461bcd60e51b815260206004820152600660248201526536bab62234bb60d11b60448201526064016105fd565b6000848688096000868103871696879004966002600389028118808a02820302808a02820302808a02820302808a02820302808a02820302808a02909103029181900381900460010186841190950394909402919094039290920491909117919091029150509392505050565b600154604051633f63406760e21b81526001600160a01b039091169063fd8d019c9061384c90889088908690899089906000908190600401615ddd565b600060405180830381600087803b15801561386657600080fd5b505af115801561387a573d6000803e3d6000fd5b505050505050505050565b60006040516323b872dd60e01b81528460048201528360248201528260448201526020600060648360008a5af13d15601f3d11600160005114161716915050806139085760405162461bcd60e51b81526020600482015260146024820152731514905394d1915497d19493d357d1905253115160621b60448201526064016105fd565b5050505050565b6060611ff98383604051806060016040528060278152602001615e7f60279139613a7b565b60006007600061394587878761313f565b815260200190815260200160002090508060000160050160006139689190613c49565b60005b8251811015613a535760008382815181106139885761398861512a565b6020026020010151602001516001600160801b03161115613a4157816000016005018382815181106139bc576139bc61512a565b60209081029190910181015182546001818101855560009485529383902082516005909202018054938301516001600160801b03166301000000026001600160981b031990941662ffffff90921691909117929092178255604081015192820192909255606082015160028201556080820151600382015560a0909101516004909101555b80613a4b81615160565b91505061396b565b50600401805467ffffffff0000000019166401000000004263ffffffff160217905550505050565b6060600080856001600160a01b031685604051613a989190615e4f565b600060405180830381855af49150503d8060008114613ad3576040519150601f19603f3d011682016040523d82523d6000602084013e613ad8565b606091505b5091509150613ae986838387613af3565b9695505050505050565b60608315613b62578251600003613b5b576001600160a01b0385163b613b5b5760405162461bcd60e51b815260206004820152601d60248201527f416464726573733a2063616c6c20746f206e6f6e2d636f6e747261637400000060448201526064016105fd565b5081612db1565b612db18383815115613b775781518083602001fd5b8060405162461bcd60e51b81526004016105fd9190615e6b565b60405180610100016040528060008152602001600081526020016000815260200160008152602001600081526020016000815260200160008152602001600081525090565b604080516101a081018252600080825260208201819052918101829052606081018290526080810182905260a0810182905260c0810182905260e08101829052610100810182905261012081018290526101408101919091526101608101613c3c613d15565b8152602001606081525090565b5080546000825560050290600052602060002090810190613c6a9190613d86565b50565b604080516101608101909152600060608083018281526080840183905260a0840183905260c0840183905260e0840183905261010084018390526101208401929092526101408301528190815260200160008152602001600081525090565b604080516101008101825260008082526020820152908101613cec613d15565b815260200160008152602001600081526020016000815260200160008152602001600081525090565b6040518060e00160405280613d526040518060a0016040528060008152602001600081526020016000815260200160008152602001600081525090565b8152602001600081526020016000815260200160008152602001600061ffff16815260200160008152602001600081525090565b5b80821115613dc15780546001600160981b031916815560006001820181905560028201819055600382018190556004820155600501613d87565b5090565b600060608284031215613dd757600080fd5b50919050565b8015158114613c6a57600080fd5b8035613df681613ddd565b919050565b600080600060a08486031215613e1057600080fd5b613e1a8585613dc5565b92506060840135613e2a81613ddd565b929592945050506080919091013590565b634e487b7160e01b600052604160045260246000fd5b60405161012081016001600160401b0381118282101715613e7457613e74613e3b565b60405290565b60405160a081016001600160401b0381118282101715613e7457613e74613e3b565b60405160c081016001600160401b0381118282101715613e7457613e74613e3b565b60405161014081016001600160401b0381118282101715613e7457613e74613e3b565b604051606081016001600160401b0381118282101715613e7457613e74613e3b565b60405161010081016001600160401b0381118282101715613e7457613e74613e3b565b60405160e081016001600160401b0381118282101715613e7457613e74613e3b565b6040516101a081016001600160401b0381118282101715613e7457613e74613e3b565b604051601f8201601f191681016001600160401b0381118282101715613f9357613f93613e3b565b604052919050565b6001600160a01b0381168114613c6a57600080fd5b8035613df681613f9b565b8060020b8114613c6a57600080fd5b8035613df681613fbb565b600080828403610180811215613fea57600080fd5b613ff48585613dc5565b925061012080605f198301121561400a57600080fd5b614012613e51565b915061402060608601613deb565b82526080850135602083015260a0850135604083015261404260c08601613fb0565b606083015260e085013560808301526101008086013560a0840152614068828701613fca565b60c084015261407a6101408701613fca565b60e0840152610160860135818401525050809150509250929050565b805182526020810151602083015260408101516040830152606081015160608301526080810151608083015260a081015160a083015260c081015160c083015260e081015160e08301525050565b6101008101612cab8284614096565b6000806000806080858703121561410957600080fd5b843561411481613f9b565b9350602085013561412481613f9b565b9250604085013561413481613ddd565b9396929550929360600135925050565b60008060008060008060008060006101208a8c03121561416357600080fd5b893561416e81613f9b565b985060208a013561417e81613ddd565b975060408a013561418e81613ddd565b989b979a5097986060810135985060808101359760a0820135975060c0820135965060e08201359550610100909101359350915050565b6000806000606084860312156141da57600080fd5b83356141e581613f9b565b925060208401356141f581613ddd565b9150604084013561420581613ddd565b809150509250925092565b6000806040838503121561422357600080fd5b823561422e81613f9b565b9150602083013561423e81613f9b565b809150509250929050565b60006020828403121561425b57600080fd5b5035919050565b805160020b82526001600160801b03602082015116602083015260408101516040830152606081015160608301526080810151608083015260a081015160a08301525050565b600081518084526020808501945080840160005b838110156142e2576142cf878351614262565b60c09690960195908201906001016142bc565b509495945050505050565b600061010060018060a01b03835116845260208301511515602085015260408301516040850152606083015160608501526080830151608085015263ffffffff60a08401511660a085015260c083015161434f60c086018263ffffffff169052565b5060e08301518160e0860152612bb3828601826142a8565b60608152600061437a60608301866142ed565b60208301949094525060400152919050565b6000808284036101008112156143a157600080fd5b6143ab8585613dc5565b925060a0605f19820112156143bf57600080fd5b506143c8613e7a565b60608401356143d681613f9b565b815260808401356143e681613ddd565b602082015260a0840135604082015260c084013561440381613fbb565b606082015260e084013561441681613fbb565b6080820152919491935090915050565b60008060006060848603121561443b57600080fd5b833561444681613f9b565b925060208401356141f581613f9b565b600081518084526020808501945080840160005b838110156142e25761447d878351614262565b60c096909601959082019060010161446a565b602081526000611ff96020830184614456565b60006001600160401b038211156144bc576144bc613e3b565b50601f01601f191660200190565b600082601f8301126144db57600080fd5b81356144ee6144e9826144a3565b613f6b565b81815284602083860101111561450357600080fd5b816020850160208301376000918101602001919091529392505050565b60006001600160401b0382111561453957614539613e3b565b5060051b60200190565b6001600160801b0381168114613c6a57600080fd5b600082601f83011261456957600080fd5b813560206145796144e983614520565b82815260c0928302850182019282820191908785111561459857600080fd5b8387015b8581101561460f5781818a0312156145b45760008081fd5b6145bc613e9c565b81356145c781613fbb565b8152818601356145d681614543565b8187015260408281013590820152606080830135908201526080808301359082015260a08083013590820152845292840192810161459c565b5090979650505050505050565b600080600060a0848603121561463157600080fd5b61463b8585613dc5565b925060608401356001600160401b038082111561465757600080fd5b90850190610140828803121561466c57600080fd5b614674613ebe565b823581526020830135602082015260408301356040820152606083013560608201526146a260808401613deb565b608082015260a083013560a08201526146bd60c08401613fb0565b60c082015260e0830135828111156146d457600080fd5b6146e0898286016144ca565b60e0830152506101006146f4818501613fca565b90820152610120614706848201613fca565b908201529350608086013591508082111561472057600080fd5b5061472d86828701614558565b9150509250925092565b600081516060845261474c60608501826142ed565b905060208301516020850152604083015160408501528091505092915050565b60608152600061437a6060830186614737565b602081526000611ff96020830184614737565b600080600080600060a086880312156147aa57600080fd5b85356147b581613ddd565b945060208601356147c581613fbb565b935060408601356147d581613fbb565b925060608601356147e581613fbb565b915060808601356147f581613fbb565b809150509295509295909350565b6000806020838503121561481657600080fd5b82356001600160401b038082111561482d57600080fd5b818501915085601f83011261484157600080fd5b81358181111561485057600080fd5b8660208260051b850101111561486557600080fd5b60209290920196919550909350505050565b60005b8381101561489257818101518382015260200161487a565b50506000910152565b600081518084526148b3816020860160208601614877565b601f01601f19169290920160200192915050565b6000602080830181845280855180835260408601915060408160051b870101925083870160005b8281101561491c57603f1988860301845261490a85835161489b565b945092850192908501906001016148ee565b5092979650505050505050565b803563ffffffff81168114613df657600080fd5b60006060828403121561494f57600080fd5b614957613ee1565b905081356001600160401b038082111561497057600080fd5b90830190610100828603121561498557600080fd5b61498d613f03565b61499683613fb0565b81526149a460208401613deb565b60208201526040830135604082015260608301356060820152608083013560808201526149d360a08401614929565b60a08201526149e460c08401614929565b60c082015260e0830135828111156149fb57600080fd5b614a0787828601614558565b60e083015250808452505050602082013560208201526040820135604082015292915050565b600060208284031215614a3f57600080fd5b81356001600160401b03811115614a5557600080fd5b612db18482850161493d565b60008060808385031215614a7457600080fd5b614a7e8484613dc5565b915060608301356001600160401b03811115614a9957600080fd5b614aa58582860161493d565b9150509250929050565b60008060008060808587031215614ac557600080fd5b8435614ad081613f9b565b93506020850135614ae081613f9b565b92506040850135614af081613ddd565b91506060850135614b0081613ddd565b939692955090935050565b60008060008060c08587031215614b2157600080fd5b614b2b8686613dc5565b93506060850135614b3b81613f9b565b92506080850135614b4b81613ddd565b9396929550929360a00135925050565b803562ffffff81168114613df657600080fd5b8035614b7981613f9b565b6001600160a01b039081168352602082013590614b9582613f9b565b16602083015262ffffff614bab60408301614b5b565b1660408301525050565b60608101612cab8284614b6e565b8051613df681613f9b565b8051613df681613fbb565b805161ffff81168114613df657600080fd5b6000818303610160811215614bff57600080fd5b614c07613f26565b915060a0811215614c1757600080fd5b50614c20613e7a565b82518152602083015160208201526040830151604082015260608301516060820152608083015160808201528082525060a0820151602082015260c0820151604082015260e08201516060820152614c7b6101008301614bd9565b608082015261012082015160a082015261014082015160c082015292915050565b60008060006101a08486031215614cb257600080fd5b8351614cbd81613f9b565b6020850151909350614cce81613fbb565b9150614cdd8560408601614beb565b90509250925092565b634e487b7160e01b600052601160045260246000fd5b81810381811115612cab57612cab614ce6565b600060208284031215614d2157600080fd5b8135611ff981613f9b565b6020808252600a90820152695245454e5452414e435960b01b604082015260600190565b805115158252602081015160208301526040810151604083015260018060a01b0360608201511660608301526080810151608083015260a081015160a083015260c0810151614da460c084018260020b9052565b5060e0810151614db960e084018260020b9052565b5061010090810151910152565b6000815480845260208085019450836000528060002060005b838110156142e2578154600281810b895260189190911c6001600160801b03168489015260018084015460408a015290830154606089015260038301546080890152600483015460a089015260c09097019660059092019101614ddf565b80546001600160a01b0390811683526001820154908116602084015260a01c62ffffff166040830152600281015460ff81161515606084015263ffffffff600882901c81166080850152614e9e60a08501828460281c1663ffffffff169052565b5050600381015460c0830152600481015460e0830152600581015461010083015260068101546101208301526007015461014090910152565b60006102a0614ee68387614d50565b610120830181905260609083015283546001600160a01b038116610300840152614f1b610320840160ff8360a01c1615159052565b50600184015461034083015260028401546103608301526003840154610380830152600484015463ffffffff8082166103a085015260209190911c166103c08301526101006103e0830152614f77610400830160058601614dc6565b60068501546102c084015260078501546102e08401529050612db1610140830184614e3d565b600080600060608486031215614fb257600080fd5b8351925060208401519150604084015190509250925092565b600060608284031215614fdd57600080fd5b614fe5613ee1565b8235614ff081613f9b565b8152602083013561500081613f9b565b602082015261501160408401614b5b565b60408201529392505050565b6040815260006150306040830185614dc6565b90508260208301529392505050565b600082601f83011261505057600080fd5b815160206150606144e983614520565b82815260c0928302850182019282820191908785111561507f57600080fd5b8387015b8581101561460f5781818a03121561509b5760008081fd5b6150a3613e9c565b81516150ae81613fbb565b8152818601516150bd81614543565b8187015260408281015190820152606080830151908201526080808301519082015260a080830151908201528452928401928101615083565b60006020828403121561510857600080fd5b81516001600160401b0381111561511e57600080fd5b612db18482850161503f565b634e487b7160e01b600052603260045260246000fd5b6001600160801b03828116828216039080821115612ca957612ca9614ce6565b60006001820161517257615172614ce6565b5060010190565b8051613df681613ddd565b600080600080600080600060e0888a03121561519f57600080fd5b87516151aa81613f9b565b60208901519097506151bb81613fbb565b95506151c960408901614bd9565b94506151d760608901614bd9565b93506151e560808901614bd9565b925060a088015160ff811681146151fb57600080fd5b60c089015190925061520c81613ddd565b8091505092959891949750929550565b602081526000611ff96020830184614dc6565b6000806040838503121561524257600080fd5b825161524d81613fbb565b602084015190925061423e81613fbb565b61529482825180518252602081015160208301526040810151604083015260608101516060830152608081015160808301525050565b602081015160a0830152604081015160c0830152606081015160e083015261ffff60808201511661010083015260a081015161012083015260c08101516101408301525050565b60006102e06152ea838a614d50565b6101206152f98185018a614096565b615307610220850189614b6e565b8161028085015261532382850188516001600160a01b03169052565b602087015161533861030086018260020b9052565b50604087015161032085015260608701516001600160a01b039081166103408601526080880151600290810b61036087015260a0890151810b61038087015260c0890151900b6103a086015260e0880151166103c08501526101008701516103e08501528601516104008401526101408601516104208401526101608601516153c561044085018261525e565b50610180860151816105a08501526153e16105c0850182614456565b925050506153fb6102a08301856001600160a01b03169052565b6001600160a01b0383166102c0830152979650505050505050565b6000610100828403121561542957600080fd5b615431613f03565b9050815181526020820151602082015260408201516040820152606082015160608201526080820151608082015260a082015160a082015260c082015160c082015260e082015160e082015292915050565b60008061012080848603121561549857600080fd5b6154a28585615416565b9250610100808501516001600160401b03808211156154c057600080fd5b908601906102e082890312156154d557600080fd5b6154dd613f48565b6154e683614bc3565b81526154f460208401614bce565b60208201526040830151604082015261550f60608401614bc3565b606082015261552060808401614bce565b608082015261553160a08401614bce565b60a082015261554260c08401614bce565b60c082015261555360e08401614bc3565b60e08201528383015184820152848301518582015261014094508483015185820152610160945061558689868501614beb565b858201526102c083015194508185111561559f57600080fd5b6155ab8986850161503f565b61018082015280955050505050509250929050565b60006102e08083526155d48184018a614456565b9150506155e46020830188614d50565b6155f2610140830187614096565b615600610240830186614b6e565b6102a08201939093526001600160a01b03919091166102c090910152949350505050565b6000610100828403121561563757600080fd5b611ff98383615416565b60006020828403121561565357600080fd5b8151611ff981613ddd565b600061012061566d838b614b6e565b88606084015287608084015286151560a08401528060c084015261569381840187614456565b6001600160a01b0395861660e08501529390941661010090920191909152509695505050505050565b6156c68187614b6e565b60e0606082015260006156dc60e0830187614456565b60808301959095525091151560a08301526001600160a01b031660c09091015292915050565b6000610180615711838e614b6e565b8060608401526157238184018d614456565b608084019b909b52505096151560a0880152600295860b60c08801529390940b60e08601526101008501919091526001600160a01b03908116610120850152918216610140840152166101609091015292915050565b608081016157878285614b6e565b8260020b60608301529392505050565b6000606082840312156157a957600080fd5b6157b1613ee1565b8251815260208301516020820152604083015160408201528091505092915050565b600061014082518452602083015160208501526040830151604085015260608301516060850152608083015161580d608086018215159052565b5060a083015160a085015260c083015161583260c08601826001600160a01b03169052565b5060e08301518160e086015261584a8286018261489b565b915050610100808401516158628287018260020b9052565b5050610120808401516158798287018260020b9052565b5090949350505050565b60006101806158928386614e3d565b80610160840152612bb3818401856157d3565b600082601f8301126158b657600080fd5b81516158c46144e9826144a3565b8181528460208386010111156158d957600080fd5b612db1826020830160208701614877565b600061014082840312156158fd57600080fd5b615905613ebe565b90508151815260208201516020820152604082015160408201526060820151606082015261593560808301615179565b608082015260a082015160a082015261595060c08301614bc3565b60c082015260e08201516001600160401b0381111561596e57600080fd5b61597a848285016158a5565b60e08301525061010061598e818401614bce565b908201526101206159a0838201614bce565b9082015292915050565b600080604083850312156159bd57600080fd5b8251915060208301516001600160401b038111156159da57600080fd5b614aa5858286016158ea565b6159f08187614b6e565b60e060608201526000615a0660e08301876157d3565b8281036080840152615a188187614456565b6001600160a01b0395861660a08501529390941660c09092019190915250949350505050565b60008060008060808587031215615a5457600080fd5b845193506020850151925060408501516001600160401b0380821115615a7957600080fd5b615a85888389016158ea565b93506060870151915080821115615a9b57600080fd5b50615aa88782880161503f565b91505092959194509250565b6001600160a01b03868116825285166020820152600284900b604082015261012060608201819052600090615aeb83820186614456565b915050613ae9608083018480518252602081015160208301526040810151604083015260608101516060830152608081015160808301525050565b606081526000615b396060830186614456565b93151560208301525060029190910b604090910152919050565b600060208284031215615b6557600080fd5b5051919050565b604081526000615b7f6040830185614456565b8281036020840152612bb38185614456565b6000610120808352615ba58184018b6157d3565b915050615bb56020830189614b6e565b608082019690965260029490940b60a08501526001600160a01b0392831660c0850152911660e08301526101009091015292915050565b60008060408385031215615bff57600080fd5b505080516020909101519092909150565b6000600160ff1b8201615c2557615c25614ce6565b5060000390565b848152608060208201526000615c4560808301866157d3565b8281036040840152615c578186614456565b91505082606083015295945050505050565b600281810b9083900b01627fffff8113627fffff1982121715612cab57612cab614ce6565b6000808335601e19843603018112615ca557600080fd5b8301803591506001600160401b03821115615cbf57600080fd5b602001915036819003821315615cd457600080fd5b9250929050565b80820180821115612cab57612cab614ce6565b6001600160a01b038781168252861660208201528415156040820152600284900b60608201526000610140615d51608084018680518252602081015160208301526040810151604083015260608101516060830152608081015160808301525050565b80610120840152615d6481840185614456565b9998505050505050505050565b600080600060608486031215615d8657600080fd5b83516001600160401b03811115615d9c57600080fd5b615da88682870161503f565b93505060208401519150604084015190509250925092565b600060208284031215615dd257600080fd5b8151611ff981613f9b565b87516001600160a01b0390811682526020808a01518216908301526040808a015162ffffff16908301528716606082015261012060808201819052600090615e2781840189614456565b96151560a0840152505060c081019390935260e0830191909152610100909101529392505050565b60008251615e61818460208701614877565b9190910192915050565b602081526000611ff9602083018461489b56fe416464726573733a206c6f772d6c6576656c2064656c65676174652063616c6c206661696c6564a2646970667358221220c5dc87778c01aa04c064caf45563d175d23def2e00add64e334c518be787c51064736f6c63430008150033",
    "linkReferences": {
      "src/MarginPositionHelper.sol": {
        "MarginPositionHelper": [
          {
            "start": 2098,
            "length": 20
          },
          {
            "start": 4118,
            "length": 20
          },
          {
            "start": 4398,
            "length": 20
          },
          {
            "start": 4586,
            "length": 20
          },
          {
            "start": 7139,
            "length": 20
          },
          {
            "start": 7329,
            "length": 20
          },
          {
            "start": 7429,
            "length": 20
          },
          {
            "start": 8692,
            "length": 20
          },
          {
            "start": 9102,
            "length": 20
          },
          {
            "start": 10123,
            "length": 20
          },
          {
            "start": 10306,
            "length": 20
          }
        ]
      },
      "src/PremiumComputer.sol": {
        "PremiumComputer": [
          {
            "start": 9279,
            "length": 20
          },
          {
            "start": 13084,
            "length": 20
          }
        ]
      },
      "src/Util.sol": {
        "Utils": [
          {
            "start": 2766,
            "length": 20
          },
          {
            "start": 3932,
            "length": 20
          },
          {
            "start": 6936,
            "length": 20
          },
          {
            "start": 9429,
            "length": 20
          },
          {
            "start": 9861,
            "length": 20
          },
          {
            "start": 13455,
            "length": 20
          }
        ]
      }
    }
  },
  "methodIdentifiers": {
    "PremiumDeposit(bytes32)": "5d4936ff",
    "addPosition((address,address,uint24),(uint256,uint256,uint256,uint256,bool,uint256,address,bytes,int24,int24),(int24,uint128,uint256,uint256,uint256,uint256)[])": "8be8efa2",
    "approveTokens(address,address)": "3eb4adab",
    "canForceClose(((address,bool,uint256,uint256,uint256,uint32,uint32,(int24,uint128,uint256,uint256,uint256,uint256)[]),uint256,uint256))": "afbc39eb",
    "canForceClose((address,address,uint24),((address,bool,uint256,uint256,uint256,uint32,uint32,(int24,uint128,uint256,uint256,uint256,uint256)[]),uint256,uint256))": "bc06b008",
    "cancelOrder(address,bool,bool)": "28ec7232",
    "checkPositionExists(address,address,bool)": "f2edf95a",
    "checkPremiumCondition(address,address,bool,uint256)": "20a672a2",
    "depositPremium((address,address,uint24),address,bool,uint256)": "dbe5f6cb",
    "forceClose((address,address,uint24),(address,bool,uint256,int24,int24))": "5277a324",
    "getBorrowInfo(address,address,bool)": "657b5a4b",
    "getOrderId(address,address,bool,bool)": "bfd4c2a5",
    "getPosition(address,address,bool)": "8c1395f8",
    "getPositionId(address,address,bool)": "f6f0ea89",
    "maxWithdrawablePremium(bytes32)": "86dacdb0",
    "multicall(bytes[])": "ac9650d8",
    "orders(bytes32)": "9c3f1e90",
    "payPremium((address,address,uint24),bool,uint256)": "de074f10",
    "positions(bytes32)": "514ea4bf",
    "rangeConditions(bool,int24,int24,int24,int24)": "a36b9168",
    "reducePosition((address,address,uint24),(bool,uint256,uint256,address,uint256,bytes32,int24,int24,uint256))": "0a2c5e29",
    "submitOrder(address,bool,bool,uint256,uint256,uint256,uint256,uint256,uint256)": "228e062a",
    "withdrawPremium((address,address,uint24),bool,uint256)": "025df9e4"
  },
  "id": 39
}