{
  "_format": "hh-sol-artifact-1",
  "contractName": "MarginFacility",
  "sourceName": "src/MarginFacility.sol",
  "abi": [
    {
      "inputs": [],
      "name": "addReduceInvalidTick",
      "type": "error"
    },
    {
      "inputs": [],
      "name": "cantForceClose",
      "type": "error"
    },
    {
      "anonymous": false,
      "inputs": [
        {
          "indexed": true,
          "internalType": "address",
          "name": "pool",
          "type": "address"
        },
        {
          "indexed": true,
          "internalType": "bool",
          "name": "positionIsToken0",
          "type": "bool"
        },
        {
          "indexed": true,
          "internalType": "address",
          "name": "trader",
          "type": "address"
        },
        {
          "indexed": false,
          "internalType": "uint256",
          "name": "forcedClosedAmount",
          "type": "uint256"
        },
        {
          "indexed": false,
          "internalType": "uint256",
          "name": "fillerPayAmount",
          "type": "uint256"
        },
        {
          "indexed": false,
          "internalType": "uint256",
          "name": "rangeCondition",
          "type": "uint256"
        }
      ],
      "name": "ForceClosed",
      "type": "event"
    },
    {
      "anonymous": false,
      "inputs": [
        {
          "indexed": false,
          "internalType": "uint8",
          "name": "version",
          "type": "uint8"
        }
      ],
      "name": "Initialized",
      "type": "event"
    },
    {
      "anonymous": false,
      "inputs": [
        {
          "indexed": true,
          "internalType": "address",
          "name": "pool",
          "type": "address"
        },
        {
          "indexed": true,
          "internalType": "bool",
          "name": "positionIsToken0",
          "type": "bool"
        },
        {
          "indexed": true,
          "internalType": "address",
          "name": "trader",
          "type": "address"
        },
        {
          "indexed": false,
          "internalType": "address",
          "name": "filler",
          "type": "address"
        },
        {
          "indexed": false,
          "internalType": "uint256",
          "name": "addedAmount",
          "type": "uint256"
        },
        {
          "indexed": false,
          "internalType": "uint256",
          "name": "marginAmount",
          "type": "uint256"
        },
        {
          "indexed": false,
          "internalType": "uint256",
          "name": "borrowAmount",
          "type": "uint256"
        },
        {
          "indexed": false,
          "internalType": "uint256",
          "name": "premiumPaid",
          "type": "uint256"
        },
        {
          "indexed": false,
          "internalType": "uint256",
          "name": "feePaid",
          "type": "uint256"
        }
      ],
      "name": "MarginPositionIncreased",
      "type": "event"
    },
    {
      "anonymous": false,
      "inputs": [
        {
          "indexed": true,
          "internalType": "address",
          "name": "pool",
          "type": "address"
        },
        {
          "indexed": true,
          "internalType": "bool",
          "name": "positionIsToken0",
          "type": "bool"
        },
        {
          "indexed": true,
          "internalType": "address",
          "name": "trader",
          "type": "address"
        },
        {
          "indexed": false,
          "internalType": "address",
          "name": "filler",
          "type": "address"
        },
        {
          "indexed": false,
          "internalType": "uint256",
          "name": "reduceAmount",
          "type": "uint256"
        },
        {
          "indexed": false,
          "internalType": "uint256",
          "name": "premiumPaid",
          "type": "uint256"
        },
        {
          "indexed": false,
          "internalType": "uint256",
          "name": "feePaid",
          "type": "uint256"
        }
      ],
      "name": "MarginPositionReduced",
      "type": "event"
    },
    {
      "anonymous": false,
      "inputs": [
        {
          "indexed": true,
          "internalType": "address",
          "name": "pool",
          "type": "address"
        },
        {
          "indexed": true,
          "internalType": "bool",
          "name": "positionIsToken0",
          "type": "bool"
        },
        {
          "indexed": true,
          "internalType": "address",
          "name": "trader",
          "type": "address"
        },
        {
          "indexed": false,
          "internalType": "bool",
          "name": "isAdd",
          "type": "bool"
        },
        {
          "indexed": false,
          "internalType": "uint256",
          "name": "deadline",
          "type": "uint256"
        },
        {
          "indexed": false,
          "internalType": "uint256",
          "name": "startOutput",
          "type": "uint256"
        },
        {
          "indexed": false,
          "internalType": "uint256",
          "name": "minOutput",
          "type": "uint256"
        },
        {
          "indexed": false,
          "internalType": "uint256",
          "name": "inputAmount",
          "type": "uint256"
        },
        {
          "indexed": false,
          "internalType": "uint256",
          "name": "decayRate",
          "type": "uint256"
        },
        {
          "indexed": false,
          "internalType": "uint256",
          "name": "margin",
          "type": "uint256"
        }
      ],
      "name": "OrderAdded",
      "type": "event"
    },
    {
      "anonymous": false,
      "inputs": [
        {
          "indexed": true,
          "internalType": "address",
          "name": "pool",
          "type": "address"
        },
        {
          "indexed": true,
          "internalType": "bool",
          "name": "positionIsToken0",
          "type": "bool"
        },
        {
          "indexed": true,
          "internalType": "address",
          "name": "trader",
          "type": "address"
        },
        {
          "indexed": false,
          "internalType": "bool",
          "name": "isAdd",
          "type": "bool"
        }
      ],
      "name": "OrderCanceled",
      "type": "event"
    },
    {
      "anonymous": false,
      "inputs": [
        {
          "indexed": true,
          "internalType": "address",
          "name": "payer",
          "type": "address"
        },
        {
          "indexed": true,
          "internalType": "address",
          "name": "pool",
          "type": "address"
        },
        {
          "indexed": false,
          "internalType": "bool",
          "name": "isToken1",
          "type": "bool"
        },
        {
          "indexed": false,
          "internalType": "uint256",
          "name": "amount",
          "type": "uint256"
        }
      ],
      "name": "PremiumDeposited",
      "type": "event"
    },
    {
      "anonymous": false,
      "inputs": [
        {
          "indexed": true,
          "internalType": "address",
          "name": "withdrawer",
          "type": "address"
        },
        {
          "indexed": true,
          "internalType": "address",
          "name": "pool",
          "type": "address"
        },
        {
          "indexed": false,
          "internalType": "bool",
          "name": "isToken1",
          "type": "bool"
        },
        {
          "indexed": false,
          "internalType": "uint256",
          "name": "amount",
          "type": "uint256"
        }
      ],
      "name": "PremiumWithdrawn",
      "type": "event"
    },
    {
      "inputs": [
        {
          "internalType": "PositionId",
          "name": "",
          "type": "bytes32"
        }
      ],
      "name": "PremiumDeposit",
      "outputs": [
        {
          "internalType": "uint256",
          "name": "",
          "type": "uint256"
        }
      ],
      "stateMutability": "view",
      "type": "function"
    },
    {
      "inputs": [
        {
          "internalType": "address",
          "name": "pm",
          "type": "address"
        },
        {
          "internalType": "address",
          "name": "ex",
          "type": "address"
        }
      ],
      "name": "_initialize",
      "outputs": [],
      "stateMutability": "nonpayable",
      "type": "function"
    },
    {
      "inputs": [
        {
          "components": [
            {
              "internalType": "address",
              "name": "token0",
              "type": "address"
            },
            {
              "internalType": "address",
              "name": "token1",
              "type": "address"
            },
            {
              "internalType": "uint24",
              "name": "fee",
              "type": "uint24"
            }
          ],
          "internalType": "struct PoolKey",
          "name": "key",
          "type": "tuple"
        },
        {
          "components": [
            {
              "internalType": "uint256",
              "name": "margin",
              "type": "uint256"
            },
            {
              "internalType": "uint256",
              "name": "minOutput",
              "type": "uint256"
            },
            {
              "internalType": "uint256",
              "name": "simulatedOutput",
              "type": "uint256"
            },
            {
              "internalType": "uint256",
              "name": "borrowAmount",
              "type": "uint256"
            },
            {
              "internalType": "bool",
              "name": "positionIsToken0",
              "type": "bool"
            },
            {
              "internalType": "uint256",
              "name": "executionOption",
              "type": "uint256"
            },
            {
              "internalType": "address",
              "name": "trader",
              "type": "address"
            },
            {
              "internalType": "bytes",
              "name": "executionData",
              "type": "bytes"
            },
            {
              "internalType": "int24",
              "name": "slippedTickMin",
              "type": "int24"
            },
            {
              "internalType": "int24",
              "name": "slippedTickMax",
              "type": "int24"
            }
          ],
          "internalType": "struct AddParams",
          "name": "param",
          "type": "tuple"
        },
        {
          "components": [
            {
              "internalType": "int24",
              "name": "tick",
              "type": "int24"
            },
            {
              "internalType": "uint128",
              "name": "liquidity",
              "type": "uint128"
            },
            {
              "internalType": "uint256",
              "name": "premium",
              "type": "uint256"
            },
            {
              "internalType": "uint256",
              "name": "feeGrowthInside0LastX128",
              "type": "uint256"
            },
            {
              "internalType": "uint256",
              "name": "feeGrowthInside1LastX128",
              "type": "uint256"
            },
            {
              "internalType": "uint256",
              "name": "lastGrowth",
              "type": "uint256"
            }
          ],
          "internalType": "struct LiquidityLoan[]",
          "name": "borrowInfo",
          "type": "tuple[]"
        }
      ],
      "name": "addPosition",
      "outputs": [
        {
          "components": [
            {
              "components": [
                {
                  "internalType": "address",
                  "name": "pool",
                  "type": "address"
                },
                {
                  "internalType": "bool",
                  "name": "isToken0",
                  "type": "bool"
                },
                {
                  "internalType": "uint256",
                  "name": "totalDebtOutput",
                  "type": "uint256"
                },
                {
                  "internalType": "uint256",
                  "name": "totalDebtInput",
                  "type": "uint256"
                },
                {
                  "internalType": "uint32",
                  "name": "lastPremiumPaymentTime",
                  "type": "uint32"
                },
                {
                  "internalType": "uint32",
                  "name": "openTime",
                  "type": "uint32"
                },
                {
                  "components": [
                    {
                      "internalType": "int24",
                      "name": "tick",
                      "type": "int24"
                    },
                    {
                      "internalType": "uint128",
                      "name": "liquidity",
                      "type": "uint128"
                    },
                    {
                      "internalType": "uint256",
                      "name": "premium",
                      "type": "uint256"
                    },
                    {
                      "internalType": "uint256",
                      "name": "feeGrowthInside0LastX128",
                      "type": "uint256"
                    },
                    {
                      "internalType": "uint256",
                      "name": "feeGrowthInside1LastX128",
                      "type": "uint256"
                    },
                    {
                      "internalType": "uint256",
                      "name": "lastGrowth",
                      "type": "uint256"
                    }
                  ],
                  "internalType": "struct LiquidityLoan[]",
                  "name": "borrowInfo",
                  "type": "tuple[]"
                }
              ],
              "internalType": "struct Position",
              "name": "base",
              "type": "tuple"
            },
            {
              "internalType": "uint256",
              "name": "totalPosition",
              "type": "uint256"
            },
            {
              "internalType": "uint256",
              "name": "margin",
              "type": "uint256"
            }
          ],
          "internalType": "struct MarginPosition",
          "name": "position",
          "type": "tuple"
        },
        {
          "internalType": "uint256",
          "name": "premiumOwed",
          "type": "uint256"
        },
        {
          "internalType": "uint256",
          "name": "fee",
          "type": "uint256"
        }
      ],
      "stateMutability": "nonpayable",
      "type": "function"
    },
    {
      "inputs": [
        {
          "internalType": "address",
          "name": "token0",
          "type": "address"
        },
        {
          "internalType": "address",
          "name": "token1",
          "type": "address"
        }
      ],
      "name": "approveTokens",
      "outputs": [],
      "stateMutability": "nonpayable",
      "type": "function"
    },
    {
      "inputs": [
        {
          "components": [
            {
              "internalType": "address",
              "name": "token0",
              "type": "address"
            },
            {
              "internalType": "address",
              "name": "token1",
              "type": "address"
            },
            {
              "internalType": "uint24",
              "name": "fee",
              "type": "uint24"
            }
          ],
          "internalType": "struct PoolKey",
          "name": "key",
          "type": "tuple"
        },
        {
          "components": [
            {
              "components": [
                {
                  "internalType": "address",
                  "name": "pool",
                  "type": "address"
                },
                {
                  "internalType": "bool",
                  "name": "isToken0",
                  "type": "bool"
                },
                {
                  "internalType": "uint256",
                  "name": "totalDebtOutput",
                  "type": "uint256"
                },
                {
                  "internalType": "uint256",
                  "name": "totalDebtInput",
                  "type": "uint256"
                },
                {
                  "internalType": "uint32",
                  "name": "lastPremiumPaymentTime",
                  "type": "uint32"
                },
                {
                  "internalType": "uint32",
                  "name": "openTime",
                  "type": "uint32"
                },
                {
                  "components": [
                    {
                      "internalType": "int24",
                      "name": "tick",
                      "type": "int24"
                    },
                    {
                      "internalType": "uint128",
                      "name": "liquidity",
                      "type": "uint128"
                    },
                    {
                      "internalType": "uint256",
                      "name": "premium",
                      "type": "uint256"
                    },
                    {
                      "internalType": "uint256",
                      "name": "feeGrowthInside0LastX128",
                      "type": "uint256"
                    },
                    {
                      "internalType": "uint256",
                      "name": "feeGrowthInside1LastX128",
                      "type": "uint256"
                    },
                    {
                      "internalType": "uint256",
                      "name": "lastGrowth",
                      "type": "uint256"
                    }
                  ],
                  "internalType": "struct LiquidityLoan[]",
                  "name": "borrowInfo",
                  "type": "tuple[]"
                }
              ],
              "internalType": "struct Position",
              "name": "base",
              "type": "tuple"
            },
            {
              "internalType": "uint256",
              "name": "totalPosition",
              "type": "uint256"
            },
            {
              "internalType": "uint256",
              "name": "margin",
              "type": "uint256"
            }
          ],
          "internalType": "struct MarginPosition",
          "name": "position",
          "type": "tuple"
        },
        {
          "internalType": "address",
          "name": "pool",
          "type": "address"
        },
        {
          "internalType": "address",
          "name": "trader",
          "type": "address"
        },
        {
          "internalType": "bool",
          "name": "positionIsToken0",
          "type": "bool"
        }
      ],
      "name": "canForceClose",
      "outputs": [
        {
          "internalType": "bool",
          "name": "",
          "type": "bool"
        }
      ],
      "stateMutability": "view",
      "type": "function"
    },
    {
      "inputs": [
        {
          "components": [
            {
              "components": [
                {
                  "internalType": "address",
                  "name": "pool",
                  "type": "address"
                },
                {
                  "internalType": "bool",
                  "name": "isToken0",
                  "type": "bool"
                },
                {
                  "internalType": "uint256",
                  "name": "totalDebtOutput",
                  "type": "uint256"
                },
                {
                  "internalType": "uint256",
                  "name": "totalDebtInput",
                  "type": "uint256"
                },
                {
                  "internalType": "uint32",
                  "name": "lastPremiumPaymentTime",
                  "type": "uint32"
                },
                {
                  "internalType": "uint32",
                  "name": "openTime",
                  "type": "uint32"
                },
                {
                  "components": [
                    {
                      "internalType": "int24",
                      "name": "tick",
                      "type": "int24"
                    },
                    {
                      "internalType": "uint128",
                      "name": "liquidity",
                      "type": "uint128"
                    },
                    {
                      "internalType": "uint256",
                      "name": "premium",
                      "type": "uint256"
                    },
                    {
                      "internalType": "uint256",
                      "name": "feeGrowthInside0LastX128",
                      "type": "uint256"
                    },
                    {
                      "internalType": "uint256",
                      "name": "feeGrowthInside1LastX128",
                      "type": "uint256"
                    },
                    {
                      "internalType": "uint256",
                      "name": "lastGrowth",
                      "type": "uint256"
                    }
                  ],
                  "internalType": "struct LiquidityLoan[]",
                  "name": "borrowInfo",
                  "type": "tuple[]"
                }
              ],
              "internalType": "struct Position",
              "name": "base",
              "type": "tuple"
            },
            {
              "internalType": "uint256",
              "name": "totalPosition",
              "type": "uint256"
            },
            {
              "internalType": "uint256",
              "name": "margin",
              "type": "uint256"
            }
          ],
          "internalType": "struct MarginPosition",
          "name": "position",
          "type": "tuple"
        }
      ],
      "name": "canForceClose",
      "outputs": [
        {
          "internalType": "bool",
          "name": "",
          "type": "bool"
        }
      ],
      "stateMutability": "view",
      "type": "function"
    },
    {
      "inputs": [
        {
          "internalType": "address",
          "name": "pool",
          "type": "address"
        },
        {
          "internalType": "bool",
          "name": "positionIsToken0",
          "type": "bool"
        },
        {
          "internalType": "bool",
          "name": "isAdd",
          "type": "bool"
        }
      ],
      "name": "cancelOrder",
      "outputs": [],
      "stateMutability": "nonpayable",
      "type": "function"
    },
    {
      "inputs": [
        {
          "internalType": "address",
          "name": "pool",
          "type": "address"
        },
        {
          "internalType": "address",
          "name": "borrower",
          "type": "address"
        },
        {
          "internalType": "bool",
          "name": "borrowedToken1",
          "type": "bool"
        }
      ],
      "name": "checkPositionExists",
      "outputs": [
        {
          "internalType": "bool",
          "name": "",
          "type": "bool"
        }
      ],
      "stateMutability": "view",
      "type": "function"
    },
    {
      "inputs": [
        {
          "components": [
            {
              "internalType": "address",
              "name": "token0",
              "type": "address"
            },
            {
              "internalType": "address",
              "name": "token1",
              "type": "address"
            },
            {
              "internalType": "uint24",
              "name": "fee",
              "type": "uint24"
            }
          ],
          "internalType": "struct PoolKey",
          "name": "key",
          "type": "tuple"
        },
        {
          "internalType": "address",
          "name": "trader",
          "type": "address"
        },
        {
          "internalType": "bool",
          "name": "borrowToken1",
          "type": "bool"
        },
        {
          "internalType": "uint256",
          "name": "amount",
          "type": "uint256"
        }
      ],
      "name": "depositPremium",
      "outputs": [],
      "stateMutability": "nonpayable",
      "type": "function"
    },
    {
      "inputs": [],
      "name": "executioner",
      "outputs": [
        {
          "internalType": "contract Executioner",
          "name": "",
          "type": "address"
        }
      ],
      "stateMutability": "view",
      "type": "function"
    },
    {
      "inputs": [
        {
          "components": [
            {
              "internalType": "address",
              "name": "token0",
              "type": "address"
            },
            {
              "internalType": "address",
              "name": "token1",
              "type": "address"
            },
            {
              "internalType": "uint24",
              "name": "fee",
              "type": "uint24"
            }
          ],
          "internalType": "struct PoolKey",
          "name": "key",
          "type": "tuple"
        },
        {
          "components": [
            {
              "internalType": "address",
              "name": "trader",
              "type": "address"
            },
            {
              "internalType": "bool",
              "name": "positionIsToken0",
              "type": "bool"
            },
            {
              "internalType": "uint256",
              "name": "fillerPayAmount",
              "type": "uint256"
            },
            {
              "internalType": "int24",
              "name": "slippedTickMin",
              "type": "int24"
            },
            {
              "internalType": "int24",
              "name": "slippedTickMax",
              "type": "int24"
            }
          ],
          "internalType": "struct ForceCloseParams",
          "name": "param",
          "type": "tuple"
        }
      ],
      "name": "forceClose",
      "outputs": [
        {
          "internalType": "uint256",
          "name": "premium",
          "type": "uint256"
        }
      ],
      "stateMutability": "nonpayable",
      "type": "function"
    },
    {
      "inputs": [
        {
          "internalType": "address",
          "name": "pool",
          "type": "address"
        },
        {
          "internalType": "address",
          "name": "borrower",
          "type": "address"
        },
        {
          "internalType": "bool",
          "name": "borrowedToken1",
          "type": "bool"
        }
      ],
      "name": "getBorrowInfo",
      "outputs": [
        {
          "components": [
            {
              "internalType": "int24",
              "name": "tick",
              "type": "int24"
            },
            {
              "internalType": "uint128",
              "name": "liquidity",
              "type": "uint128"
            },
            {
              "internalType": "uint256",
              "name": "premium",
              "type": "uint256"
            },
            {
              "internalType": "uint256",
              "name": "feeGrowthInside0LastX128",
              "type": "uint256"
            },
            {
              "internalType": "uint256",
              "name": "feeGrowthInside1LastX128",
              "type": "uint256"
            },
            {
              "internalType": "uint256",
              "name": "lastGrowth",
              "type": "uint256"
            }
          ],
          "internalType": "struct LiquidityLoan[]",
          "name": "",
          "type": "tuple[]"
        }
      ],
      "stateMutability": "view",
      "type": "function"
    },
    {
      "inputs": [
        {
          "internalType": "address",
          "name": "pool",
          "type": "address"
        },
        {
          "internalType": "address",
          "name": "trader",
          "type": "address"
        },
        {
          "internalType": "bool",
          "name": "positionIsToken0",
          "type": "bool"
        }
      ],
      "name": "getLastRepayTime",
      "outputs": [
        {
          "internalType": "uint32",
          "name": "",
          "type": "uint32"
        }
      ],
      "stateMutability": "view",
      "type": "function"
    },
    {
      "inputs": [
        {
          "internalType": "address",
          "name": "pool",
          "type": "address"
        },
        {
          "internalType": "address",
          "name": "trader",
          "type": "address"
        },
        {
          "internalType": "bool",
          "name": "positionIsToken0",
          "type": "bool"
        },
        {
          "internalType": "bool",
          "name": "isAdd",
          "type": "bool"
        }
      ],
      "name": "getOrderId",
      "outputs": [
        {
          "internalType": "bytes32",
          "name": "",
          "type": "bytes32"
        }
      ],
      "stateMutability": "pure",
      "type": "function"
    },
    {
      "inputs": [
        {
          "internalType": "address",
          "name": "pool",
          "type": "address"
        },
        {
          "internalType": "address",
          "name": "trader",
          "type": "address"
        },
        {
          "internalType": "bool",
          "name": "positionIsToken0",
          "type": "bool"
        }
      ],
      "name": "getPosition",
      "outputs": [
        {
          "components": [
            {
              "components": [
                {
                  "internalType": "address",
                  "name": "pool",
                  "type": "address"
                },
                {
                  "internalType": "bool",
                  "name": "isToken0",
                  "type": "bool"
                },
                {
                  "internalType": "uint256",
                  "name": "totalDebtOutput",
                  "type": "uint256"
                },
                {
                  "internalType": "uint256",
                  "name": "totalDebtInput",
                  "type": "uint256"
                },
                {
                  "internalType": "uint32",
                  "name": "lastPremiumPaymentTime",
                  "type": "uint32"
                },
                {
                  "internalType": "uint32",
                  "name": "openTime",
                  "type": "uint32"
                },
                {
                  "components": [
                    {
                      "internalType": "int24",
                      "name": "tick",
                      "type": "int24"
                    },
                    {
                      "internalType": "uint128",
                      "name": "liquidity",
                      "type": "uint128"
                    },
                    {
                      "internalType": "uint256",
                      "name": "premium",
                      "type": "uint256"
                    },
                    {
                      "internalType": "uint256",
                      "name": "feeGrowthInside0LastX128",
                      "type": "uint256"
                    },
                    {
                      "internalType": "uint256",
                      "name": "feeGrowthInside1LastX128",
                      "type": "uint256"
                    },
                    {
                      "internalType": "uint256",
                      "name": "lastGrowth",
                      "type": "uint256"
                    }
                  ],
                  "internalType": "struct LiquidityLoan[]",
                  "name": "borrowInfo",
                  "type": "tuple[]"
                }
              ],
              "internalType": "struct Position",
              "name": "base",
              "type": "tuple"
            },
            {
              "internalType": "uint256",
              "name": "totalPosition",
              "type": "uint256"
            },
            {
              "internalType": "uint256",
              "name": "margin",
              "type": "uint256"
            }
          ],
          "internalType": "struct MarginPosition",
          "name": "",
          "type": "tuple"
        }
      ],
      "stateMutability": "view",
      "type": "function"
    },
    {
      "inputs": [
        {
          "internalType": "address",
          "name": "pool",
          "type": "address"
        },
        {
          "internalType": "address",
          "name": "trader",
          "type": "address"
        },
        {
          "internalType": "bool",
          "name": "positionIsToken0",
          "type": "bool"
        }
      ],
      "name": "getPositionId",
      "outputs": [
        {
          "internalType": "PositionId",
          "name": "",
          "type": "bytes32"
        }
      ],
      "stateMutability": "pure",
      "type": "function"
    },
    {
      "inputs": [
        {
          "internalType": "address",
          "name": "pm",
          "type": "address"
        },
        {
          "internalType": "address",
          "name": "ex",
          "type": "address"
        }
      ],
      "name": "initialize",
      "outputs": [],
      "stateMutability": "nonpayable",
      "type": "function"
    },
    {
      "inputs": [
        {
          "internalType": "bytes[]",
          "name": "data",
          "type": "bytes[]"
        }
      ],
      "name": "multicall",
      "outputs": [
        {
          "internalType": "bytes[]",
          "name": "results",
          "type": "bytes[]"
        }
      ],
      "stateMutability": "nonpayable",
      "type": "function"
    },
    {
      "inputs": [
        {
          "internalType": "bytes32",
          "name": "",
          "type": "bytes32"
        }
      ],
      "name": "orders",
      "outputs": [
        {
          "components": [
            {
              "internalType": "address",
              "name": "token0",
              "type": "address"
            },
            {
              "internalType": "address",
              "name": "token1",
              "type": "address"
            },
            {
              "internalType": "uint24",
              "name": "fee",
              "type": "uint24"
            }
          ],
          "internalType": "struct PoolKey",
          "name": "key",
          "type": "tuple"
        },
        {
          "internalType": "bool",
          "name": "positionIsToken0",
          "type": "bool"
        },
        {
          "internalType": "uint32",
          "name": "auctionDeadline",
          "type": "uint32"
        },
        {
          "internalType": "uint32",
          "name": "auctionStartTime",
          "type": "uint32"
        },
        {
          "internalType": "uint256",
          "name": "startOutput",
          "type": "uint256"
        },
        {
          "internalType": "uint256",
          "name": "minOutput",
          "type": "uint256"
        },
        {
          "internalType": "uint256",
          "name": "inputAmount",
          "type": "uint256"
        },
        {
          "internalType": "uint256",
          "name": "decayRate",
          "type": "uint256"
        },
        {
          "internalType": "uint256",
          "name": "margin",
          "type": "uint256"
        }
      ],
      "stateMutability": "view",
      "type": "function"
    },
    {
      "inputs": [
        {
          "components": [
            {
              "internalType": "address",
              "name": "token0",
              "type": "address"
            },
            {
              "internalType": "address",
              "name": "token1",
              "type": "address"
            },
            {
              "internalType": "uint24",
              "name": "fee",
              "type": "uint24"
            }
          ],
          "internalType": "struct PoolKey",
          "name": "key",
          "type": "tuple"
        },
        {
          "internalType": "bool",
          "name": "payToken1",
          "type": "bool"
        },
        {
          "internalType": "uint256",
          "name": "depositAmount",
          "type": "uint256"
        }
      ],
      "name": "payPremium",
      "outputs": [
        {
          "internalType": "uint256",
          "name": "premiumOwed",
          "type": "uint256"
        }
      ],
      "stateMutability": "nonpayable",
      "type": "function"
    },
    {
      "inputs": [
        {
          "internalType": "PositionId",
          "name": "",
          "type": "bytes32"
        }
      ],
      "name": "positions",
      "outputs": [
        {
          "components": [
            {
              "internalType": "address",
              "name": "pool",
              "type": "address"
            },
            {
              "internalType": "bool",
              "name": "isToken0",
              "type": "bool"
            },
            {
              "internalType": "uint256",
              "name": "totalDebtOutput",
              "type": "uint256"
            },
            {
              "internalType": "uint256",
              "name": "totalDebtInput",
              "type": "uint256"
            },
            {
              "internalType": "uint32",
              "name": "lastPremiumPaymentTime",
              "type": "uint32"
            },
            {
              "internalType": "uint32",
              "name": "openTime",
              "type": "uint32"
            },
            {
              "components": [
                {
                  "internalType": "int24",
                  "name": "tick",
                  "type": "int24"
                },
                {
                  "internalType": "uint128",
                  "name": "liquidity",
                  "type": "uint128"
                },
                {
                  "internalType": "uint256",
                  "name": "premium",
                  "type": "uint256"
                },
                {
                  "internalType": "uint256",
                  "name": "feeGrowthInside0LastX128",
                  "type": "uint256"
                },
                {
                  "internalType": "uint256",
                  "name": "feeGrowthInside1LastX128",
                  "type": "uint256"
                },
                {
                  "internalType": "uint256",
                  "name": "lastGrowth",
                  "type": "uint256"
                }
              ],
              "internalType": "struct LiquidityLoan[]",
              "name": "borrowInfo",
              "type": "tuple[]"
            }
          ],
          "internalType": "struct Position",
          "name": "base",
          "type": "tuple"
        },
        {
          "internalType": "uint256",
          "name": "totalPosition",
          "type": "uint256"
        },
        {
          "internalType": "uint256",
          "name": "margin",
          "type": "uint256"
        }
      ],
      "stateMutability": "view",
      "type": "function"
    },
    {
      "inputs": [
        {
          "components": [
            {
              "internalType": "address",
              "name": "token0",
              "type": "address"
            },
            {
              "internalType": "address",
              "name": "token1",
              "type": "address"
            },
            {
              "internalType": "uint24",
              "name": "fee",
              "type": "uint24"
            }
          ],
          "internalType": "struct PoolKey",
          "name": "key",
          "type": "tuple"
        },
        {
          "components": [
            {
              "internalType": "bool",
              "name": "positionIsToken0",
              "type": "bool"
            },
            {
              "internalType": "uint256",
              "name": "reducePercentage",
              "type": "uint256"
            },
            {
              "internalType": "uint256",
              "name": "minOutput",
              "type": "uint256"
            },
            {
              "internalType": "address",
              "name": "trader",
              "type": "address"
            },
            {
              "internalType": "uint256",
              "name": "executionOption",
              "type": "uint256"
            },
            {
              "internalType": "bytes",
              "name": "executionData",
              "type": "bytes"
            },
            {
              "internalType": "int24",
              "name": "slippedTickMin",
              "type": "int24"
            },
            {
              "internalType": "int24",
              "name": "slippedTickMax",
              "type": "int24"
            },
            {
              "internalType": "uint256",
              "name": "reduceAmount",
              "type": "uint256"
            }
          ],
          "internalType": "struct ReduceParam",
          "name": "param",
          "type": "tuple"
        }
      ],
      "name": "reducePosition",
      "outputs": [
        {
          "components": [
            {
              "internalType": "int256",
              "name": "amount0",
              "type": "int256"
            },
            {
              "internalType": "int256",
              "name": "amount1",
              "type": "int256"
            },
            {
              "internalType": "int256",
              "name": "PnL",
              "type": "int256"
            },
            {
              "internalType": "uint256",
              "name": "returnedAmount",
              "type": "uint256"
            },
            {
              "internalType": "uint256",
              "name": "repaidDebt0",
              "type": "uint256"
            },
            {
              "internalType": "uint256",
              "name": "repaidDebt1",
              "type": "uint256"
            },
            {
              "internalType": "uint256",
              "name": "premium",
              "type": "uint256"
            },
            {
              "internalType": "uint256",
              "name": "profitFee",
              "type": "uint256"
            }
          ],
          "internalType": "struct ReduceReturn",
          "name": "",
          "type": "tuple"
        }
      ],
      "stateMutability": "nonpayable",
      "type": "function"
    },
    {
      "inputs": [
        {
          "internalType": "address",
          "name": "newOwner",
          "type": "address"
        }
      ],
      "name": "setOwner",
      "outputs": [],
      "stateMutability": "nonpayable",
      "type": "function"
    },
    {
      "inputs": [
        {
          "internalType": "bool",
          "name": "addPaused",
          "type": "bool"
        },
        {
          "internalType": "bool",
          "name": "reducePaused",
          "type": "bool"
        },
        {
          "internalType": "bool",
          "name": "forceClosePaused",
          "type": "bool"
        }
      ],
      "name": "setPauseConfig",
      "outputs": [],
      "stateMutability": "nonpayable",
      "type": "function"
    },
    {
      "inputs": [
        {
          "internalType": "address",
          "name": "poolManager_",
          "type": "address"
        },
        {
          "internalType": "address",
          "name": "executioner_",
          "type": "address"
        }
      ],
      "name": "setProtocolContracts",
      "outputs": [],
      "stateMutability": "nonpayable",
      "type": "function"
    },
    {
      "inputs": [
        {
          "internalType": "address",
          "name": "pool",
          "type": "address"
        },
        {
          "internalType": "bool",
          "name": "positionIsToken0",
          "type": "bool"
        },
        {
          "internalType": "bool",
          "name": "isAdd",
          "type": "bool"
        },
        {
          "internalType": "uint256",
          "name": "deadline",
          "type": "uint256"
        },
        {
          "internalType": "uint256",
          "name": "startOutput",
          "type": "uint256"
        },
        {
          "internalType": "uint256",
          "name": "minOutput",
          "type": "uint256"
        },
        {
          "internalType": "uint256",
          "name": "inputAmount",
          "type": "uint256"
        },
        {
          "internalType": "uint256",
          "name": "decayRate",
          "type": "uint256"
        },
        {
          "internalType": "uint256",
          "name": "margin",
          "type": "uint256"
        }
      ],
      "name": "submitOrder",
      "outputs": [],
      "stateMutability": "nonpayable",
      "type": "function"
    },
    {
      "inputs": [
        {
          "components": [
            {
              "internalType": "address",
              "name": "token0",
              "type": "address"
            },
            {
              "internalType": "address",
              "name": "token1",
              "type": "address"
            },
            {
              "internalType": "uint24",
              "name": "fee",
              "type": "uint24"
            }
          ],
          "internalType": "struct PoolKey",
          "name": "key",
          "type": "tuple"
        },
        {
          "internalType": "bool",
          "name": "borrowToken1",
          "type": "bool"
        },
        {
          "internalType": "uint256",
          "name": "amount",
          "type": "uint256"
        },
        {
          "internalType": "bool",
          "name": "isClose",
          "type": "bool"
        }
      ],
      "name": "withdrawPremium",
      "outputs": [],
      "stateMutability": "nonpayable",
      "type": "function"
    }
  ],
  "bytecode": "0x608060405234801561001057600080fd5b50615d1780620000216000396000f3fe608060405234801561001057600080fd5b50600436106101a95760003560e01c8063ac9650d8116100f9578063dc6ab02f11610097578063f2edf95a11610071578063f2edf95a146104ba578063f6f0ea89146104cd578063fee744d7146104e0578063ff9912cd146104f357600080fd5b8063dc6ab02f14610469578063de074f1014610494578063e5c9c2ed146104a757600080fd5b8063bcb92fa5116100d3578063bcb92fa514610408578063bfd4c2a51461041b578063d93a90471461042e578063dbe5f6cb1461045657600080fd5b8063ac9650d8146103b2578063b68e3c33146103d2578063b8541526146103e557600080fd5b8063514ea4bf11610166578063657b5a4b11610140578063657b5a4b1461029b5780638be8efa2146102bb5780638c1395f8146102dd5780639c3f1e90146102fd57600080fd5b8063514ea4bf146102385780635277a3241461025a5780635d4936ff1461027b57600080fd5b806313af4035146101ae578063228e062a146101c357806327bd6f83146101d657806328ec7232146101ff5780633eb4adab14610212578063485cc95514610225575b600080fd5b6101c16101bc366004613a5f565b610507565b005b6101c16101d1366004613a95565b61055c565b6101e96101e4366004613ce0565b610707565b6040516101f69190613e1e565b60405180910390f35b6101c161020d366004613e2d565b611240565b6101c1610220366004613e78565b61132c565b6101c1610233366004613e78565b611568565b61024b610246366004613eb1565b61167c565b6040516101f693929190613fb8565b61026d610268366004613fdd565b61179d565b6040519081526020016101f6565b61026d610289366004613eb1565b60046020526000908152604090205481565b6102ae6102a9366004614094565b611dcb565b6040516101f69190614109565b6102ce6102c9366004614218565b611f28565b6040516101f693929190614368565b6102f06102eb366004614094565b61281e565b6040516101f6919061437b565b61039d61030b366004613eb1565b600560208181526000928352604092839020835160608101855281546001600160a01b039081168252600183015490811693820193909352600160a01b90920462ffffff1693820193909352600283015460038401546004850154938501546006860154600790960154939560ff841695610100850463ffffffff908116966501000000000090960416949092919089565b6040516101f6999897969594939291906143ba565b6103c56103c036600461440d565b612979565b6040516101f691906144d1565b6101c16103e0366004613e78565b612a6e565b6103f86103f336600461462c565b612ad2565b60405190151581526020016101f6565b6101c16104163660046146b4565b612b92565b61026d610429366004614706565b612d37565b61044161043c366004614094565b612d9b565b60405163ffffffff90911681526020016101f6565b6101c1610464366004614757565b612dce565b60015461047c906001600160a01b031681565b6040516001600160a01b0390911681526020016101f6565b61026d6104a23660046147a7565b612e57565b6101c16104b5366004613e78565b613064565b6103f86104c8366004614094565b61311b565b61026d6104db366004614094565b613149565b6101c16104ee3660046147e7565b61319f565b6103f8610501366004614807565b50600090565b6002546001600160a01b0316331461053a5760405162461bcd60e51b81526004016105319061483b565b60405180910390fd5b600280546001600160a01b0319166001600160a01b0392909216919091179055565b60035460011461057e5760405162461bcd60e51b81526004016105319061485b565b6002600355866105cf57826105948a338b61281e565b6020015110156105cf5760405162461bcd60e51b81526004016105319060208082526004908201526321706f7360e01b604082015260600190565b600560006105df8b338c8c612d37565b81526020810191909152604090810160002090516319b5cb0360e01b81526004810191909152881515602482015260448101879052606481018690526084810185905260a4810184905260c4810183905260e4810182905273__$506f8190e26c635088963c8a0018e71746$__906319b5cb03906101040160006040518083038186803b15801561066f57600080fd5b505af4158015610683573d6000803e3d6000fd5b5050604080518a15158152602081018a9052908101889052606081018790526080810186905260a0810185905260c081018490523392508a151591506001600160a01b038c16907f4c34e64fbcdd268148a9e26a3b2c922bd24162485ce0b2ba28e4ce57d9a2c33c9060e00160405180910390a45050600160035550505050505050565b61070f6137b6565b6003546001146107315760405162461bcd60e51b81526004016105319061485b565b6002600381905554600160a81b900460ff16156107605760405162461bcd60e51b81526004016105319061487f565b6107686137fb565b6107706137b6565b600054604051639525092360e01b8152620100009091046001600160a01b0316906395250923906107a59088906004016148f9565b6101c060405180830381865afa1580156107c3573d6000803e3d6000fd5b505050506040513d601f19601f820116820180604052508101906107e791906149eb565b61016085015260020b60208401526001600160a01b031680835260608501518551600092600692849261081b929190613149565b81526020019081526020016000209050600081600501541161086d5760405162461bcd60e51b815260206004820152600b60248201526a3737903837b9b4ba34b7b760a91b6044820152606401610531565b8251606086015186516108839291906000612d37565b6101a08401819052604051631759061d60e01b815273__$506f8190e26c635088963c8a0018e71746$__91631759061d916108c7916005918a918791600401614b48565b606060405180830381865af41580156108e4573d6000803e3d6000fd5b505050506040513d601f19601f820116820180604052508101906109089190614c01565b6020880152610100808601919091526040808601929092528151908101909152606090610a3f908061093f368b90038b018b614c2f565b815260200184600001600401805480602002602001604051908101604052809291908181526020016000905b828210156109e25760008481526020908190206040805160c081018252600586029092018054600281810b855263010000009091046001600160801b031684860152600180830154938501939093528101546060840152600381015460808401526004015460a0830152908352909201910161096b565b50505050815260200186600001516001600160a01b0316815260200188606001516001600160a01b031681526020018860000151151581526020018661016001518152602001866020015160020b81526020016000815250613213565b60c08501919091526020870151909150670de0b6b3a764000014610b7e576004820180546040805160208084028201810190925282815292919060009084015b82821015610af65760008481526020908190206040805160c081018252600586029092018054600281810b855263010000009091046001600160801b031684860152600180830154938501939093528101546060840152600381015460808401526004015460a08301529083529092019101610a7f565b50505050602087015160405163069b8a8b60e31b815273__$d23a8dd93b7205fa6b646ffed38c165d68$__926334dc545892610b3492600401614c81565b600060405180830381865af4158015610b51573d6000803e3d6000fd5b505050506040513d6000823e601f3d908101601f19168201604052610b799190810190614d5a565b610c1c565b6004820180546040805160208084028201810190925282815292919060009084015b82821015610c175760008481526020908190206040805160c081018252600586029092018054600281810b855263010000009091046001600160801b031684860152600180830154938501939093528101546060840152600381015460808401526004015460a08301529083529092019101610ba0565b505050505b610180850152600682015461014085015260058201546101008501511015610cbd576101008401516020870151610180860151604051631b74fb1560e31b815273__$506f8190e26c635088963c8a0018e71746$__9363dba7d8a893610c889388938890600401614d8e565b60006040518083038186803b158015610ca057600080fd5b505af4158015610cb4573d6000803e3d6000fd5b50505050610d3b565b835160608701518751600692600092610cd592613149565b81526020810191909152604001600090812080546001600160a81b0319168155600181018290556002810182905560038101805467ffffffffffffffff19169055908181610d266004830182613875565b50506005820160009055600682016000905550505b83600001516001600160a01b0316633850c7bd6040518163ffffffff1660e01b815260040160e060405180830381865afa158015610d7d573d6000803e3d6000fd5b505050506040513d601f19601f82011682018060405250810190610da19190614ddc565b50505050600291820b608088018190526001600160a01b0390931660608801525060c0880151900b1380610de25750836080015160020b8660e0015160020b125b15610e0057604051631e6012f360e21b815260040160405180910390fd5b6101808401516040516337a6142160e01b815273__$d23a8dd93b7205fa6b646ffed38c165d68$__916337a6142191610e3c9190600401614109565b6040805180830381865af4158015610e58573d6000803e3d6000fd5b505050506040513d601f19601f82011682018060405250810190610e7c9190614e74565b600290810b60c0870181905291810b60a0870181905288516080880151602089015160405163146d722d60e31b8152921515600484015290840b60248301526044820194909452606481019190915291900b608482015260009073__$d23a8dd93b7205fa6b646ffed38c165d68$__9063a36b91689060a401602060405180830381865af4158015610f12573d6000803e3d6000fd5b505050506040513d601f19601f82011682018060405250810190610f369190614ea3565b905080600103611067576001546000546040516337aaefd560e11b815273__$506f8190e26c635088963c8a0018e71746$__92636f55dfaa92610f97928c928a928f928d926001600160a01b03908116926201000090041690600401614f44565b600060405180830381865af4158015610fb4573d6000803e3d6000fd5b505050506040513d6000823e601f3d908101601f19168201604052610fdc919081019061514f565b61012081015190965090945015611062578651611042906110095761100460208a018a613a5f565b611019565b61101960408a0160208b01613a5f565b60025461012088015160e08801516001600160a01b039092169161103d91906152ae565b6132fe565b611062611054368a90038a018a614c2f565b88516101208801518561337c565b6111bb565b8060020361111f5773__$506f8190e26c635088963c8a0018e71746$__63c132482686610180015189878c8a6101400151600060029054906101000a90046001600160a01b03168c61010001516040518863ffffffff1660e01b81526004016110d697969594939291906152c1565b61010060405180830381865af41580156110f4573d6000803e3d6000fd5b505050506040513d601f19601f820116820180604052508101906111189190615331565b93506111bb565b600154600054604051630e4940a960e31b815273__$506f8190e26c635088963c8a0018e71746$__9263724a054892611176928c928a928f928d926001600160a01b03908116926201000090041690600401614f44565b61010060405180830381865af4158015611194573d6000803e3d6000fd5b505050506040513d601f19601f820116820180604052508101906111b89190615331565b93505b6060808801518851875161010089015160c089015160e08a0151604080513381526020810194909452830191909152948101949094526001600160a01b03928316939115159216907f3aacf7844e8b88dda49c434b9ce8b132ed7fc860559882f088ff0c39f8fe98879060800160405180910390a45050600160035550949350505050565b6003546001146112625760405162461bcd60e51b81526004016105319061485b565b60026003556005600061127785338686612d37565b81526020808201929092526040908101600090812080546001600160a01b03191681556001810180546001600160b81b031916905560028101805468ffffffffffffffffff1916905560038101829055600481018290556005810182905560068101829055600701555182151581523391841515916001600160a01b038716917f761fde4703b3eb1ca92675208248e655ce58d6778c95e6e742ab9819a7f3d93d910160405180910390a45050600160035550565b6000546201000090046001600160a01b031633146113745760405162461bcd60e51b8152602060048201526005602482015264085c1bdbdb60da1b6044820152606401610531565b60005460405163095ea7b360e01b8152620100009091046001600160a01b039081166004830152600019602483015283169063095ea7b3906044016020604051808303816000875af11580156113ce573d6000803e3d6000fd5b505050506040513d601f19601f820116820180604052508101906113f2919061534e565b5060005460405163095ea7b360e01b8152620100009091046001600160a01b039081166004830152600019602483015282169063095ea7b3906044016020604051808303816000875af115801561144d573d6000803e3d6000fd5b505050506040513d601f19601f82011682018060405250810190611471919061534e565b5060015460405163095ea7b360e01b81526001600160a01b03918216600482015260001960248201529083169063095ea7b3906044016020604051808303816000875af11580156114c6573d6000803e3d6000fd5b505050506040513d601f19601f820116820180604052508101906114ea919061534e565b5060015460405163095ea7b360e01b81526001600160a01b03918216600482015260001960248201529082169063095ea7b3906044016020604051808303816000875af115801561153f573d6000803e3d6000fd5b505050506040513d601f19601f82011682018060405250810190611563919061534e565b505050565b600054610100900460ff16158080156115885750600054600160ff909116105b806115a25750303b1580156115a2575060005460ff166001145b6116055760405162461bcd60e51b815260206004820152602e60248201527f496e697469616c697a61626c653a20636f6e747261637420697320616c72656160448201526d191e481a5b9a5d1a585b1a5e995960921b6064820152608401610531565b6000805460ff191660011790558015611628576000805461ff0019166101001790555b6116328383613064565b8015611563576000805461ff0019169055604051600181527f7f26b83ff96e1f2b6a682f133852f6798a09c465da95921460cefb38474024989060200160405180910390a1505050565b6006602090815260009182526040808320815160e08101835281546001600160a01b0381168252600160a01b900460ff1615158185015260018201548184015260028201546060820152600382015463ffffffff80821660808401526401000000009091041660a082015260048201805484518187028101870190955280855292959194869460c08701949093909184015b828210156117855760008481526020908190206040805160c081018252600586029092018054600281810b855263010000009091046001600160801b031684860152600180830154938501939093528101546060840152600381015460808401526004015460a0830152908352909201910161170e565b50505091525050600582015460069092015490919083565b60006003546001146117c15760405162461bcd60e51b81526004016105319061485b565b6002600381905554600160b01b900460ff16156117f05760405162461bcd60e51b81526004016105319061487f565b6117f8613899565b600054604051639525092360e01b8152620100009091046001600160a01b03169063952509239061182d9087906004016148f9565b6101c060405180830381865afa15801561184b573d6000803e3d6000fd5b505050506040513d601f19601f8201168201806040525081019061186f91906149eb565b604084015260020b6020808401919091526001600160a01b0390911680835284519185015161189e929061281e565b606082018190528151845160208601516118bd93889390929091612ad2565b6118da576040516303144f8160e21b815260040160405180910390fd5b80600001516001600160a01b0316633850c7bd6040518163ffffffff1660e01b815260040160e060405180830381865afa15801561191c573d6000803e3d6000fd5b505050506040513d601f19601f820116820180604052508101906119409190614ddc565b50505050600291820b60a085018190526001600160a01b039093166080850152506060850151900b138061198157508060a0015160020b836080015160020b125b1561199f57604051631e6012f360e21b815260040160405180910390fd5b60608101515160c0015160208085015160a08401519184015160405163374b7d3d60e11b815260009473__$d23a8dd93b7205fa6b646ffed38c165d68$__94636e96fa7a946119f594929390929060040161536b565b602060405180830381865af4158015611a12573d6000803e3d6000fd5b505050506040513d601f19601f82011682018060405250810190611a369190614ea3565b905080600103611ae957606082015160208082015160408088015192880151935160c0015160015460005492516325d3777560e01b815273__$506f8190e26c635088963c8a0018e71746$__966325d3777596611ab4968e9690959194929391926001600160a01b039081169262010000909204169060040161539e565b60006040518083038186803b158015611acc57600080fd5b505af4158015611ae0573d6000803e3d6000fd5b50505050611c37565b80600203611b54576060820151805160c001516020918201519186015160005460405163ad6c502560e01b815273__$506f8190e26c635088963c8a0018e71746$__9463ad6c502594611ab4948c94919390916201000090046001600160a01b0316906004016153fc565b73__$506f8190e26c635088963c8a0018e71746$__6382e824478684606001516000015160c00151856060015160200151886020015187602001518860a0015189608001518c60400151600160009054906101000a90046001600160a01b0316600060029054906101000a90046001600160a01b0316600260009054906101000a90046001600160a01b03166040518c63ffffffff1660e01b8152600401611c069b9a99989796959493929190615442565b60006040518083038186803b158015611c1e57600080fd5b505af4158015611c32573d6000803e3d6000fd5b505050505b611cc160405180610100016040528087803603810190611c579190614c2f565b815260200184606001516000015160c00151815260200184600001516001600160a01b0316815260200186600001516001600160a01b0316815260200186602001511515815260200184604001518152602001846020015160020b815260200160008152506133e5565b925060066000611cde846000015187600001518860200151613149565b81526020810191909152604001600090812080546001600160a81b0319168155600181018290556002810182905560038101805467ffffffffffffffff19169055908181611d2f6004830182613875565b505060058201600090556006820160009055505083600001516001600160a01b03168460200151151583600001516001600160a01b03167f93eab6e8520a1442c72b300820e9791d361ae2fb3975f78306dd8c0f2a7e4d35856060015160200151886040015186604051611db6939291909283526020830191909152604082015260600190565b60405180910390a45050600160035592915050565b6060600060066000611dde878787613149565b81526020808201929092526040908101600090812082516101408101845281546001600160a01b03811660608301908152600160a01b90910460ff1615156080830152600183015460a0830152600283015460c0830152600383015463ffffffff80821660e08501526401000000009091041661010083015260048301805486518189028101890190975280875292969395879592948794610120880194929392909184015b82821015611efb5760008481526020908190206040805160c081018252600586029092018054600281810b855263010000009091046001600160801b031684860152600180830154938501939093528101546060840152600381015460808401526004015460a08301529083529092019101611e84565b505050915250508152600582015460208201526006909101546040909101525160c0015195945050505050565b611f306138d9565b600080600354600114611f555760405162461bcd60e51b81526004016105319061485b565b6002600381905554600160a01b900460ff1615611f845760405162461bcd60e51b81526004016105319061487f565b611f8c613930565b600054604051639525092360e01b8152620100009091046001600160a01b031690639525092390611fc1908a906004016148f9565b6101c060405180830381865afa158015611fdf573d6000803e3d6000fd5b505050506040513d601f19601f8201168201806040525081019061200391906149eb565b604084015260020b60208301526001600160a01b031680825260c087015160808801516000926006928492612039929190613149565b81526020019081526020016000209050600573__$506f8190e26c635088963c8a0018e71746$__63d5d54e8a909161208085600001518b60c001518c608001516001612d37565b8a6040518463ffffffff1660e01b815260040161209f93929190615571565b600060405180830381865af41580156120bc573d6000803e3d6000fd5b505050506040513d6000823e601f3d908101601f191682016040526120e4919081019061569e565b6060840191909152608081015190975061212c9061210e5761210960208a018a613a5f565b61211e565b61211e60408a0160208b01613a5f565b60c089015189513090613499565b600054600254604051632da526f160e01b815273__$506f8190e26c635088963c8a0018e71746$__92632da526f192612183928d928d928d92620100009092046001600160a01b03908116929116906004016156e4565b600060405180830381865af41580156121a0573d6000803e3d6000fd5b505050506040513d6000823e601f3d908101601f191682016040526121c8919081019061573c565b60808601929092528451600054602087015160408089015151905163cf2778e960e01b8152949d50949b5094975073__$eacbb88ed4bd2af84aa4d43bcf675bcf7e$__9463cf2778e99461223294620100009093046001600160a01b0316928d91906004016157b2565b600060405180830381865af415801561224f573d6000803e3d6000fd5b505050506040513d6000823e601f3d908101601f191682016040526122779190810190614d5a565b608088015160208401516040516341533fe760e01b815292985073__$d23a8dd93b7205fa6b646ffed38c165d68$__926341533fe7926122bb928b9260040161582e565b602060405180830381865af41580156122d8573d6000803e3d6000fd5b505050506040513d601f19601f820116820180604052508101906122fc9190614ea3565b60e0830152612323612313368a90038a018a614c2f565b886080015184608001518961337c565b6004810154156124d557606061244e6040518061010001604052808b80360381019061234f9190614c2f565b815260200184600001600401805480602002602001604051908101604052809291908181526020016000905b828210156123f25760008481526020908190206040805160c081018252600586029092018054600281810b855263010000009091046001600160801b031684860152600180830154938501939093528101546060840152600381015460808401526004015460a0830152908352909201910161237b565b50505050815260200185600001516001600160a01b031681526020018a60c001516001600160a01b031681526020018a608001511515815260200185604001518152602001856020015160020b81526020016000815250613213565b604051630b7cb7c160e01b8152919650915073__$d23a8dd93b7205fa6b646ffed38c165d68$__90630b7cb7c19061248c908a90859060040161585b565b600060405180830381865af41580156124a9573d6000803e3d6000fd5b505050506040513d6000823e601f3d908101601f191682016040526124d19190810190614d5a565b9650505b73__$506f8190e26c635088963c8a0018e71746$__6386c6f9bb888a8560e001518660200151600160009054906101000a90046001600160a01b0316886000015189606001516040518863ffffffff1660e01b815260040161253d9796959493929190615880565b6040805180830381865af4158015612559573d6000803e3d6000fd5b505050506040513d601f19601f8201168201806040525081019061257d91906158db565b60c084015260a083015260e0820151608088015173__$506f8190e26c635088963c8a0018e71746$__916341a95ff89184918b918b91906125cb578760c001516125c6906158ff565b6125d9565b8760a001516125d9906158ff565b6040518663ffffffff1660e01b81526004016125f995949392919061591b565b60006040518083038186803b15801561261157600080fd5b505af4158015612625573d6000803e3d6000fd5b5050604080516101408101825284546001600160a01b03811660608301908152600160a01b90910460ff1615156080830152600186015460a0830152600286015460c0830152600386015463ffffffff80821660e085015264010000000090910416610100830152600486018054845160208083028201810190965281815293965087955086949293869361012087019391929060009084015b828210156127365760008481526020908190206040805160c081018252600586029092018054600281810b855263010000009091046001600160801b031684860152600180830154938501939093528101546060840152600381015460808401526004015460a083015290835290920191016126bf565b505050508152505081526020016005820154815260200160068201548152505094508660c001516001600160a01b03168760800151151583600001516001600160a01b03167f9162a397ba17d1e4988a59388b9744cf4bc003cf58486fda9f8c7c91a7af3fca338b608001516127b9578660c001516127b4906158ff565b6127c7565b8660a001516127c7906158ff565b8c516060808f0151604080516001600160a01b0390961686526020860194909452928401919091528201526080810189905260a0810188905260c00160405180910390a45050600160038190555093509350939050565b6128266138d9565b60066000612835868686613149565b81526020808201929092526040908101600090812082516101408101845281546001600160a01b03811660608301908152600160a01b90910460ff1615156080830152600183015460a0830152600283015460c0830152600383015463ffffffff80821660e08501526401000000009091041661010083015260048301805486518189028101890190975280875292969395879592948794610120880194929392909184015b828210156129525760008481526020908190206040805160c081018252600586029092018054600281810b855263010000009091046001600160801b031684860152600180830154938501939093528101546060840152600381015460808401526004015460a083015290835290920191016128db565b50505091525050815260058201546020820152600690910154604090910152949350505050565b6060816001600160401b0381111561299357612993613b2e565b6040519080825280602002602001820160405280156129c657816020015b60608152602001906001900390816129b15790505b50905060005b82811015612a6657612a36308585848181106129ea576129ea61595b565b90506020028101906129fc9190615971565b8080601f01602080910402602001604051908101604052809392919081815260200183838082843760009201919091525061352392505050565b828281518110612a4857612a4861595b565b60200260200101819052508080612a5e906159be565b9150506129cc565b505b92915050565b6002546001600160a01b03163314612a985760405162461bcd60e51b81526004016105319061483b565b6000805462010000600160b01b031916620100006001600160a01b0394851602179055600180546001600160a01b03191691909216179055565b60008473__$506f8190e26c635088963c8a0018e71746$__63920f2f4090918885600060029054906101000a90046001600160a01b031660046000612b188c8c8c613149565b8152602001908152602001600020546040518663ffffffff1660e01b8152600401612b479594939291906159d7565b602060405180830381865af4158015612b64573d6000803e3d6000fd5b505050506040513d601f19601f82011682018060405250810190612b88919061534e565b9695505050505050565b60008054604051639525092360e01b8152620100009091046001600160a01b031690639525092390612bc89088906004016148f9565b6101c060405180830381865afa158015612be6573d6000803e3d6000fd5b505050506040513d601f19601f82011682018060405250810190612c0a91906149eb565b505090506000612c1b823387613149565b905082612c6b57600081815260046020526040902054841115612c6b5760405162461bcd60e51b81526020600482015260086024820152670859195c1bdcda5d60c21b6044820152606401610531565b6000818152600460205260409020548315612c9457600082815260046020526040812055612caa565b6000828152600460205260409020805486900390555b612ce686612cc457612cbf6020890189613a5f565b612cd4565b612cd46040890160208a01613a5f565b3386612ce057876132fe565b836132fe565b604080518715158152602081018790526001600160a01b0385169133917ffb7067681775f19340bbd7db267bcc1217b3d27bff5bfee90759622e8e028977910160405180910390a350505050505050565b6040516bffffffffffffffffffffffff19606086811b8216602084015285901b16603482015282151560f890811b6048830152821515901b6049820152600090604a016040516020818303038152906040528051906020012090505b949350505050565b600060066000612dac868686613149565b815260208101919091526040016000206003015463ffffffff16949350505050565b600054604051633518d43560e21b815273__$eacbb88ed4bd2af84aa4d43bcf675bcf7e$__9163d46350d491612e2191600491620100009091046001600160a01b03169089908990899089908601615aa9565b60006040518083038186803b158015612e3957600080fd5b505af4158015612e4d573d6000803e3d6000fd5b5050505050505050565b6000600354600114612e7b5760405162461bcd60e51b81526004016105319061485b565b600260035560008054604051639525092360e01b815282918291620100009091046001600160a01b031690639525092390612eba908a906004016148f9565b6101c060405180830381865afa158015612ed8573d6000803e3d6000fd5b505050506040513d601f19601f82011682018060405250810190612efc91906149eb565b925092509250612f0d83338861311b565b612f1d5760009350505050613058565b6000612f2a843389611dcb565b9050612f966040518061010001604052808a803603810190612f4c9190614c2f565b8152602001838152602001866001600160a01b03168152602001336001600160a01b0316815260200189151581526020018481526020018560020b81526020016000815250613213565b9095509050612fa784338984613548565b612fd987612fc157612fbc60208a018a613a5f565b612fd1565b612fd160408a0160208b01613a5f565b333089613499565b8560046000612fe987338c613149565b815260200190815260200160002060008282546130069190615aed565b9091555050604080518815158152602081018890526001600160a01b0386169133917f3b362679889b553ed2e7ee099bd77d266648894e6562144e3791e108b0a2596e910160405180910390a3505050505b60016003559392505050565b600054610100900460ff166130cf5760405162461bcd60e51b815260206004820152602b60248201527f496e697469616c697a61626c653a20636f6e7472616374206973206e6f74206960448201526a6e697469616c697a696e6760a81b6064820152608401610531565b600080546001600160a01b03938416620100000262010000600160b01b031990911617905560018054919092166001600160a01b03199182161782556002805490911633179055600355565b6000806006600061312d878787613149565b8152602001908152602001600020600501541190509392505050565b6040516bffffffffffffffffffffffff19606085811b8216602084015284901b16603482015281151560f81b60488201526000906049016040516020818303038152906040528051906020012090509392505050565b6002546001600160a01b031633146131c95760405162461bcd60e51b81526004016105319061483b565b60028054911515600160b01b0260ff60b01b19931515600160a81b0260ff60a81b19951515600160a01b029590951661ffff60a01b19909316929092179390931791909116179055565b600060606000600473__$eacbb88ed4bd2af84aa4d43bcf675bcf7e$__6313c1af4390918661324f886040015189606001518a60800151612d9b565b6000546001546040516001600160e01b031960e088901b16815261328c959493926001600160a01b03620100009091048116921690600401615b96565b600060405180830381865af41580156132a9573d6000803e3d6000fd5b505050506040513d6000823e601f3d908101601f191682016040526132d19190810190615bdc565b60208601526040850151606086015160808701519293506132f19261366f565b6020909301519293915050565b600060405163a9059cbb60e01b8152836004820152826024820152602060006044836000895af13d15601f3d11600160005114161716915050806133765760405162461bcd60e51b815260206004820152600f60248201526e1514905394d1915497d19052531151608a1b6044820152606401610531565b50505050565b60005460405163fc6e9cbf60e01b8152620100009091046001600160a01b03169063fc6e9cbf906133b7908790859088908890600401615c18565b600060405180830381600087803b1580156133d157600080fd5b505af1158015612e4d573d6000803e3d6000fd5b6000806133ff836040015184606001518560800151612d9b565b600054604051630bc847bd60e01b815291925073__$eacbb88ed4bd2af84aa4d43bcf675bcf7e$__91630bc847bd91613451916004918891620100009091046001600160a01b03169087908401615c4b565b602060405180830381865af415801561346e573d6000803e3d6000fd5b505050506040513d601f19601f820116820180604052508101906134929190614ea3565b9392505050565b60006040516323b872dd60e01b81528460048201528360248201528260448201526020600060648360008a5af13d15601f3d116001600051141617169150508061351c5760405162461bcd60e51b81526020600482015260146024820152731514905394d1915497d19493d357d1905253115160621b6044820152606401610531565b5050505050565b60606134928383604051806060016040528060278152602001615cbb602791396136af565b600060066000613559878787613149565b8152602001908152602001600020905080600001600401600061357c9190613875565b60005b825181101561366757600083828151811061359c5761359c61595b565b6020026020010151602001516001600160801b0316111561365557816000016004018382815181106135d0576135d061595b565b60209081029190910181015182546001818101855560009485529383902082516005909202018054938301516001600160801b03166301000000026001600160981b031990941662ffffff90921691909117929092178255604081015192820192909255606082015160028201556080820151600382015560a0909101516004909101555b8061365f816159be565b91505061357f565b505050505050565b426006600061367f868686613149565b81526020810191909152604001600020600301805463ffffffff191663ffffffff92909216919091179055505050565b6060600080856001600160a01b0316856040516136cc9190615c8b565b600060405180830381855af49150503d8060008114613707576040519150601f19603f3d011682016040523d82523d6000602084013e61370c565b606091505b5091509150612b888683838760608315613787578251600003613780576001600160a01b0385163b6137805760405162461bcd60e51b815260206004820152601d60248201527f416464726573733a2063616c6c20746f206e6f6e2d636f6e74726163740000006044820152606401610531565b5081612d93565b612d93838381511561379c5781518083602001fd5b8060405162461bcd60e51b81526004016105319190615ca7565b60405180610100016040528060008152602001600081526020016000815260200160008152602001600081526020016000815260200160008152602001600081525090565b604080516101c081018252600080825260208201819052918101829052606081018290526080810182905260a0810182905260c0810182905260e08101829052610100810182905261012081018290526101408101919091526101608101613861613983565b815260606020820152600060409091015290565b508054600082556005029060005260206000209081019061389691906139fb565b50565b6040805160c081018252600080825260208201529081016138b8613983565b81526020016138c56138d9565b815260006020820181905260409091015290565b604080516101408101909152600060608083018281526080840183905260a0840183905260c0840183905260e084018390526101008401929092526101208301528190815260200160008152602001600081525090565b604080516101208101825260008082526020820152908101613950613983565b81526020016000815260200160008152602001600081526020016000815260200160008152602001600080191681525090565b6040518060e001604052806139c76040518060c001604052806000815260200160008152602001600081526020016000815260200160008152602001600081525090565b8152602001600081526020016000815260200160008152602001600061ffff16815260200160008152602001600081525090565b5b80821115613a365780546001600160981b0319168155600060018201819055600282018190556003820181905560048201556005016139fc565b5090565b6001600160a01b038116811461389657600080fd5b8035613a5a81613a3a565b919050565b600060208284031215613a7157600080fd5b813561349281613a3a565b801515811461389657600080fd5b8035613a5a81613a7c565b60008060008060008060008060006101208a8c031215613ab457600080fd5b8935613abf81613a3a565b985060208a0135613acf81613a7c565b975060408a0135613adf81613a7c565b989b979a5097986060810135985060808101359760a0820135975060c0820135965060e08201359550610100909101359350915050565b600060608284031215613b2857600080fd5b50919050565b634e487b7160e01b600052604160045260246000fd5b60405161012081016001600160401b0381118282101715613b6757613b67613b2e565b60405290565b60405160c081016001600160401b0381118282101715613b6757613b67613b2e565b60405161014081016001600160401b0381118282101715613b6757613b67613b2e565b604051606081016001600160401b0381118282101715613b6757613b67613b2e565b60405160e081016001600160401b0381118282101715613b6757613b67613b2e565b6040516101c081016001600160401b0381118282101715613b6757613b67613b2e565b604051601f8201601f191681016001600160401b0381118282101715613c4157613c41613b2e565b604052919050565b60006001600160401b03821115613c6257613c62613b2e565b50601f01601f191660200190565b600082601f830112613c8157600080fd5b8135613c94613c8f82613c49565b613c19565b818152846020838601011115613ca957600080fd5b816020850160208301376000918101602001919091529392505050565b8060020b811461389657600080fd5b8035613a5a81613cc6565b60008060808385031215613cf357600080fd5b613cfd8484613b16565b915060608301356001600160401b0380821115613d1957600080fd5b908401906101208287031215613d2e57600080fd5b613d36613b44565b613d3f83613a8a565b81526020830135602082015260408301356040820152613d6160608401613a4f565b60608201526080830135608082015260a083013582811115613d8257600080fd5b613d8e88828601613c70565b60a083015250613da060c08401613cd5565b60c0820152613db160e08401613cd5565b60e0820152610100915081830135828201528093505050509250929050565b805182526020810151602083015260408101516040830152606081015160608301526080810151608083015260a081015160a083015260c081015160c083015260e081015160e08301525050565b6101008101612a688284613dd0565b600080600060608486031215613e4257600080fd5b8335613e4d81613a3a565b92506020840135613e5d81613a7c565b91506040840135613e6d81613a7c565b809150509250925092565b60008060408385031215613e8b57600080fd5b8235613e9681613a3a565b91506020830135613ea681613a3a565b809150509250929050565b600060208284031215613ec357600080fd5b5035919050565b805160020b82526001600160801b03602082015116602083015260408101516040830152606081015160608301526080810151608083015260a081015160a08301525050565b600060e0830160018060a01b0383511684526020808401511515818601526040840151604086015260608401516060860152608084015163ffffffff80821660808801528060a08701511660a0880152505060c08085015160e082880152838151808652610100890191508483019550600092505b80831015613fac57613f98828751613eca565b948401946001929092019190830190613f85565b50979650505050505050565b606081526000613fcb6060830186613f10565b60208301949094525060400152919050565b600080828403610100811215613ff257600080fd5b613ffc8585613b16565b925060a0605f198201121561401057600080fd5b5060405160a081018181106001600160401b038211171561403357614033613b2e565b604052606084013561404481613a3a565b8152608084013561405481613a7c565b602082015260a0840135604082015260c084013561407181613cc6565b606082015260e084013561408481613cc6565b6080820152919491935090915050565b6000806000606084860312156140a957600080fd5b83356140b481613a3a565b92506020840135613e5d81613a3a565b600081518084526020808501945080840160005b838110156140fe576140eb878351613eca565b60c09690960195908201906001016140d8565b509495945050505050565b60208152600061349260208301846140c4565b60006001600160401b0382111561413557614135613b2e565b5060051b60200190565b6001600160801b038116811461389657600080fd5b600082601f83011261416557600080fd5b81356020614175613c8f8361411c565b82815260c0928302850182019282820191908785111561419457600080fd5b8387015b8581101561420b5781818a0312156141b05760008081fd5b6141b8613b6d565b81356141c381613cc6565b8152818601356141d28161413f565b8187015260408281013590820152606080830135908201526080808301359082015260a080830135908201528452928401928101614198565b5090979650505050505050565b600080600060a0848603121561422d57600080fd5b6142378585613b16565b925060608401356001600160401b038082111561425357600080fd5b90850190610140828803121561426857600080fd5b614270613b8f565b8235815260208301356020820152604083013560408201526060830135606082015261429e60808401613a8a565b608082015260a083013560a08201526142b960c08401613a4f565b60c082015260e0830135828111156142d057600080fd5b6142dc89828601613c70565b60e0830152506101006142f0818501613cd5565b90820152610120614302848201613cd5565b908201529350608086013591508082111561431c57600080fd5b5061432986828701614154565b9150509250925092565b60008151606084526143486060850182613f10565b905060208301516020850152604083015160408501528091505092915050565b606081526000613fcb6060830186614333565b6020815260006134926020830184614333565b80516001600160a01b0390811683526020808301519091169083015260409081015162ffffff16910152565b61016081016143c9828c61438e565b981515606082015263ffffffff97881660808201529590961660a086015260c085019390935260e08401919091526101008301526101208201526101400152919050565b6000806020838503121561442057600080fd5b82356001600160401b038082111561443757600080fd5b818501915085601f83011261444b57600080fd5b81358181111561445a57600080fd5b8660208260051b850101111561446f57600080fd5b60209290920196919550909350505050565b60005b8381101561449c578181015183820152602001614484565b50506000910152565b600081518084526144bd816020860160208601614481565b601f01601f19169290920160200192915050565b6000602080830181845280855180835260408601915060408160051b870101925083870160005b8281101561452657603f198886030184526145148583516144a5565b945092850192908501906001016144f8565b5092979650505050505050565b803563ffffffff81168114613a5a57600080fd5b60006060828403121561455957600080fd5b614561613bb2565b905081356001600160401b038082111561457a57600080fd5b9083019060e0828603121561458e57600080fd5b614596613bd4565b61459f83613a4f565b81526145ad60208401613a8a565b602082015260408301356040820152606083013560608201526145d260808401614533565b60808201526145e360a08401614533565b60a082015260c0830135828111156145fa57600080fd5b61460687828601614154565b60c083015250808452505050602082013560208201526040820135604082015292915050565b600080600080600060e0868803121561464457600080fd5b61464e8787613b16565b945060608601356001600160401b0381111561466957600080fd5b61467588828901614547565b945050608086013561468681613a3a565b925060a086013561469681613a3a565b915060c08601356146a681613a7c565b809150509295509295909350565b60008060008060c085870312156146ca57600080fd5b6146d48686613b16565b935060608501356146e481613a7c565b92506080850135915060a08501356146fb81613a7c565b939692955090935050565b6000806000806080858703121561471c57600080fd5b843561472781613a3a565b9350602085013561473781613a3a565b9250604085013561474781613a7c565b915060608501356146fb81613a7c565b60008060008060c0858703121561476d57600080fd5b6147778686613b16565b9350606085013561478781613a3a565b9250608085013561479781613a7c565b9396929550929360a00135925050565b600080600060a084860312156147bc57600080fd5b6147c68585613b16565b925060608401356147d681613a7c565b929592945050506080919091013590565b6000806000606084860312156147fc57600080fd5b8335613e4d81613a7c565b60006020828403121561481957600080fd5b81356001600160401b0381111561482f57600080fd5b612d9384828501614547565b60208082526006908201526510b7bbb732b960d11b604082015260600190565b6020808252600a90820152695245454e5452414e435960b01b604082015260600190565b6020808252600690820152651c185d5cd95960d21b604082015260600190565b803562ffffff81168114613a5a57600080fd5b80356148bd81613a3a565b6001600160a01b0390811683526020820135906148d982613a3a565b16602083015262ffffff6148ef6040830161489f565b1660408301525050565b60608101612a6882846148b2565b8051613a5a81613a3a565b8051613a5a81613cc6565b805161ffff81168114613a5a57600080fd5b600081830361018081121561494357600080fd5b61494b613bd4565b915060c081121561495b57600080fd5b50614964613b6d565b825181526020830151602082015260408301516040820152606083015160608201526080830151608082015260a083015160a08201528082525060c0820151602082015260e0820151604082015261010082015160608201526149ca610120830161491d565b608082015261014082015160a082015261016082015160c082015292915050565b60008060006101c08486031215614a0157600080fd5b8351614a0c81613a3a565b6020850151909350614a1d81613cc6565b9150614a2c856040860161492f565b90509250925092565b600061012082511515845260208301516020850152604083015160408501526060830151614a6e60608601826001600160a01b03169052565b506080830151608085015260a08301518160a0860152614a90828601826144a5565b91505060c0830151614aa760c086018260020b9052565b5060e0830151614abc60e086018260020b9052565b50610100928301519390920192909252919050565b6000815480845260208085019450836000528060002060005b838110156140fe578154600281810b895260189190911c6001600160801b03168489015260018084015460408a015290830154606089015260038301546080890152600483015460a089015260c09097019660059092019101614aea565b848152608060208201526000614b616080830186614a35565b828103604084015260608152845460018060a01b0381166060830152614b916080830160ff8360a01c1615159052565b50600185015460a0820152600285015460c0820152600385015463ffffffff80821660e0840152602082901c8116610100840152505060e0610120820152614be0610140820160048701614ad1565b60058601546020830152600690950154604090910152506060015292915050565b600080600060608486031215614c1657600080fd5b8351925060208401519150604084015190509250925092565b600060608284031215614c4157600080fd5b614c49613bb2565b8235614c5481613a3a565b81526020830135614c6481613a3a565b6020820152614c756040840161489f565b60408201529392505050565b604081526000614c9460408301856140c4565b90508260208301529392505050565b600082601f830112614cb457600080fd5b81516020614cc4613c8f8361411c565b82815260c09283028501820192828201919087851115614ce357600080fd5b8387015b8581101561420b5781818a031215614cff5760008081fd5b614d07613b6d565b8151614d1281613cc6565b815281860151614d218161413f565b8187015260408281015190820152606080830151908201526080808301519082015260a080830151908201528452928401928101614ce7565b600060208284031215614d6c57600080fd5b81516001600160401b03811115614d8257600080fd5b612d9384828501614ca3565b85815284602082015283604082015260a060608201526000614db360a08301856140c4565b8281036080840152614dc581856140c4565b98975050505050505050565b8051613a5a81613a7c565b600080600080600080600060e0888a031215614df757600080fd5b8751614e0281613a3a565b6020890151909750614e1381613cc6565b9550614e216040890161491d565b9450614e2f6060890161491d565b9350614e3d6080890161491d565b925060a088015160ff81168114614e5357600080fd5b60c0890151909250614e6481613a7c565b8091505092959891949750929550565b60008060408385031215614e8757600080fd5b8251614e9281613cc6565b6020840151909250613ea681613cc6565b600060208284031215614eb557600080fd5b5051919050565b614efc828251805182526020810151602083015260408101516040830152606081015160608301526080810151608083015260a081015160a08301525050565b602081015160c0830152604081015160e0830152606081015161010083015261ffff60808201511661012083015260a081015161014083015260c08101516101608301525050565b60006101e0808352614f588184018a614a35565b9050614f676020840189613dd0565b610120614f76818501896148b2565b61018084830381860152610320614f96848a516001600160a01b03169052565b6020890151614faa602086018260020b9052565b50604089015160408501526060890151614fcf60608601826001600160a01b03169052565b506080890151614fe4608086018260020b9052565b5060a0890151614ff960a086018260020b9052565b5060c089015161500e60c086018260020b9052565b5060e089015161502960e08601826001600160a01b03169052565b50610100808a0151818601525082890151838501526101409250828901518385015261016092508289015161506084860182614ebc565b50818901519250806102e085015261507a818501846140c4565b925050506101a0808801516103008401528193506150a2818601886001600160a01b03169052565b5050506001600160a01b0383166101c0830152979650505050505050565b60006101008083850312156150d457600080fd5b604051908101906001600160401b03821181831017156150f6576150f6613b2e565b81604052809250835181526020840151602082015260408401516040820152606084015160608201526080840151608082015260a084015160a082015260c084015160c082015260e084015160e0820152505092915050565b60008061012080848603121561516457600080fd5b61516e85856150c0565b9250610100808501516001600160401b038082111561518c57600080fd5b9086019061032082890312156151a157600080fd5b6151a9613bf6565b6151b283614907565b81526151c060208401614912565b6020820152604083015160408201526151db60608401614907565b60608201526151ec60808401614912565b60808201526151fd60a08401614912565b60a082015261520e60c08401614912565b60c082015261521f60e08401614907565b60e0820152838301518482015284830151858201526101409450848301518582015261016094506152528986850161492f565b858201526102e083015194508185111561526b57600080fd5b61527789868501614ca3565b6101808201526103008301516101a082015280955050505050509250929050565b634e487b7160e01b600052601160045260246000fd5b81810381811115612a6857612a68615298565b60006102008083526152d58184018b6140c4565b905082810360208401526152e9818a614a35565b9150506152f96040830188613dd0565b6153076101408301876148b2565b6101a08201949094526001600160a01b03929092166101c08301526101e090910152949350505050565b6000610100828403121561534457600080fd5b61349283836150c0565b60006020828403121561536057600080fd5b815161349281613a7c565b60808152600061537e60808301876140c4565b941515602083015250600292830b6040820152910b606090910152919050565b60006101206153ad838b6148b2565b88606084015287608084015286151560a08401528060c08401526153d3818401876140c4565b6001600160a01b0395861660e08501529390941661010090920191909152509695505050505050565b61540681876148b2565b60e06060820152600061541c60e08301876140c4565b60808301959095525091151560a08301526001600160a01b031660c09091015292915050565b60006101a0615451838f6148b2565b8060608401526154638184018e6140c4565b608084019c909c52505097151560a0890152600296870b60c08901529490950b60e08701526001600160a01b039283166101008701526101208601919091528116610140850152918216610160840152166101809091015292915050565b60006101408251845260208301516020850152604083015160408501526060830151606085015260808301516154fb608086018215159052565b5060a083015160a085015260c083015161552060c08601826001600160a01b03169052565b5060e08301518160e0860152615538828601826144a5565b915050610100808401516155508287018260020b9052565b5050610120808401516155678287018260020b9052565b5090949350505050565b83815282602082015260606040820152600061559060608301846154c1565b95945050505050565b600082601f8301126155aa57600080fd5b81516155b8613c8f82613c49565b8181528460208386010111156155cd57600080fd5b612d93826020830160208701614481565b600061014082840312156155f157600080fd5b6155f9613b8f565b90508151815260208201516020820152604082015160408201526060820151606082015261562960808301614dd1565b608082015260a082015160a082015261564460c08301614907565b60c082015260e08201516001600160401b0381111561566257600080fd5b61566e84828501615599565b60e083015250610100615682818401614912565b90820152610120615694838201614912565b9082015292915050565b600080604083850312156156b157600080fd5b8251915060208301516001600160401b038111156156ce57600080fd5b6156da858286016155de565b9150509250929050565b6156ee81876148b2565b60e06060820152600061570460e08301876154c1565b828103608084015261571681876140c4565b6001600160a01b0395861660a08501529390941660c09092019190915250949350505050565b6000806000806080858703121561575257600080fd5b845193506020850151925060408501516001600160401b038082111561577757600080fd5b615783888389016155de565b9350606087015191508082111561579957600080fd5b506157a687828801614ca3565b91505092959194509250565b6001600160a01b03868116825285166020820152600284900b6040820152610140606082018190526000906157e9838201866140c4565b915050612b886080830184805182526020810151602083015260408101516040830152606081015160608301526080810151608083015260a081015160a08301525050565b60608152600061584160608301866140c4565b93151560208301525060029190910b604090910152919050565b60408152600061586e60408301856140c4565b828103602084015261559081856140c4565b60006101208083526158948184018b6154c1565b9150506158a460208301896148b2565b608082019690965260029490940b60a08501526001600160a01b0392831660c0850152911660e08301526101009091015292915050565b600080604083850312156158ee57600080fd5b505080516020909101519092909150565b6000600160ff1b820161591457615914615298565b5060000390565b85815260a06020820152600061593460a08301876154c1565b828103604084015261594681876140c4565b60608401959095525050608001529392505050565b634e487b7160e01b600052603260045260246000fd5b6000808335601e1984360301811261598857600080fd5b8301803591506001600160401b038211156159a257600080fd5b6020019150368190038213156159b757600080fd5b9250929050565b6000600182016159d0576159d0615298565b5060010190565b60e0815260008651606060e084015260018060a01b0381511661014084015260208101511515610160840152604081015161018084015260608101516101a084015263ffffffff6080820151166101c084015260a0810151615a426101e085018263ffffffff169052565b5060c0015160e0610200840152615a5d6102208401826140c4565b60208981015161010086015260408a0151610120860152909250615a8491508301876148b2565b93151560808201526001600160a01b039290921660a083015260c09091015292915050565b8681526001600160a01b038681166020830152610100820190615acf60408401886148b2565b9490941660a082015291151560c083015260e0909101529392505050565b80820180821115612a6857612a68615298565b60006102a0615b1084845161438e565b6020830151816060860152615b27828601826140c4565b915050604083015160018060a01b0380821660808701528060608601511660a087015250506080830151151560c085015260a0830151615b6a60e0860182614ebc565b5060c0830151615b8061026086018260020b9052565b5060e08301516102808501528091505092915050565b85815260a060208201526000615baf60a0830187615b00565b63ffffffff959095166040830152506001600160a01b039283166060820152911660809091015292915050565b60008060408385031215615bef57600080fd5b8251915060208301516001600160401b03811115615c0c57600080fd5b6156da85828601614ca3565b615c22818661438e565b60c060608201526000615c3860c08301866140c4565b93151560808301525060a0015292915050565b848152608060208201526000615c646080830186615b00565b6001600160a01b039490941660408301525063ffffffff9190911660609091015292915050565b60008251615c9d818460208701614481565b9190910192915050565b60208152600061349260208301846144a556fe416464726573733a206c6f772d6c6576656c2064656c65676174652063616c6c206661696c6564a2646970667358221220cec49b9257017093210ca32e964bbce452522699c74c0ba72ba9636cdbe1bc5764736f6c63430008120033",
  "linkReferences": {
    "src/MarginPositionHelper.sol": {
      "MarginPositionHelper": [
        {
          "length": 20,
          "start": 1626
        },
        {
          "length": 20,
          "start": 2235
        },
        {
          "length": 20,
          "start": 3199
        },
        {
          "length": 20,
          "start": 3958
        },
        {
          "length": 20,
          "start": 4242
        },
        {
          "length": 20,
          "start": 4437
        },
        {
          "length": 20,
          "start": 6800
        },
        {
          "length": 20,
          "start": 6969
        },
        {
          "length": 20,
          "start": 7031
        },
        {
          "length": 20,
          "start": 8302
        },
        {
          "length": 20,
          "start": 8546
        },
        {
          "length": 20,
          "start": 9464
        },
        {
          "length": 20,
          "start": 9652
        },
        {
          "length": 20,
          "start": 11000
        }
      ]
    },
    "src/PremiumComputer.sol": {
      "PremiumComputer": [
        {
          "length": 20,
          "start": 8729
        },
        {
          "length": 20,
          "start": 11777
        },
        {
          "length": 20,
          "start": 12862
        },
        {
          "length": 20,
          "start": 13365
        }
      ]
    },
    "src/Util.sol": {
      "Utils": [
        {
          "length": 20,
          "start": 2863
        },
        {
          "length": 20,
          "start": 3638
        },
        {
          "length": 20,
          "start": 3833
        },
        {
          "length": 20,
          "start": 6635
        },
        {
          "length": 20,
          "start": 8884
        },
        {
          "length": 20,
          "start": 9347
        }
      ]
    }
  },
  "deployedLinkReferences": {
    "src/MarginPositionHelper.sol": {
      "MarginPositionHelper": [
        {
          "length": 20,
          "start": 1593
        },
        {
          "length": 20,
          "start": 2202
        },
        {
          "length": 20,
          "start": 3166
        },
        {
          "length": 20,
          "start": 3925
        },
        {
          "length": 20,
          "start": 4209
        },
        {
          "length": 20,
          "start": 4404
        },
        {
          "length": 20,
          "start": 6767
        },
        {
          "length": 20,
          "start": 6936
        },
        {
          "length": 20,
          "start": 6998
        },
        {
          "length": 20,
          "start": 8269
        },
        {
          "length": 20,
          "start": 8513
        },
        {
          "length": 20,
          "start": 9431
        },
        {
          "length": 20,
          "start": 9619
        },
        {
          "length": 20,
          "start": 10967
        }
      ]
    },
    "src/PremiumComputer.sol": {
      "PremiumComputer": [
        {
          "length": 20,
          "start": 8696
        },
        {
          "length": 20,
          "start": 11744
        },
        {
          "length": 20,
          "start": 12829
        },
        {
          "length": 20,
          "start": 13332
        }
      ]
    },
    "src/Util.sol": {
      "Utils": [
        {
          "length": 20,
          "start": 2830
        },
        {
          "length": 20,
          "start": 3605
        },
        {
          "length": 20,
          "start": 3800
        },
        {
          "length": 20,
          "start": 6602
        },
        {
          "length": 20,
          "start": 8851
        },
        {
          "length": 20,
          "start": 9314
        }
      ]
    }
  }
}