{
  "abi": [
    {
      "inputs": [
        {
          "internalType": "address",
          "name": "pm",
          "type": "address"
        },
        {
          "internalType": "address",
          "name": "ex",
          "type": "address"
        },
        {
          "internalType": "address",
          "name": "uniswapFactory",
          "type": "address"
        }
      ],
      "stateMutability": "nonpayable",
      "type": "constructor"
    },
    {
      "inputs": [],
      "name": "addReduceInvalidTick",
      "type": "error"
    },
    {
      "inputs": [],
      "name": "cantForceClose",
      "type": "error"
    },
    {
      "inputs": [],
      "name": "exceedMaxWithdrawablePremium",
      "type": "error"
    },
    {
      "inputs": [],
      "name": "noPosition",
      "type": "error"
    },
    {
      "anonymous": false,
      "inputs": [
        {
          "indexed": true,
          "internalType": "address",
          "name": "pool",
          "type": "address"
        },
        {
          "indexed": true,
          "internalType": "bool",
          "name": "positionIsToken0",
          "type": "bool"
        },
        {
          "indexed": true,
          "internalType": "address",
          "name": "trader",
          "type": "address"
        },
        {
          "indexed": false,
          "internalType": "uint256",
          "name": "forcedClosedAmount",
          "type": "uint256"
        },
        {
          "indexed": false,
          "internalType": "uint256",
          "name": "fillerPayAmount",
          "type": "uint256"
        },
        {
          "indexed": false,
          "internalType": "uint256",
          "name": "rangeCondition",
          "type": "uint256"
        }
      ],
      "name": "ForceClosed",
      "type": "event"
    },
    {
      "anonymous": false,
      "inputs": [
        {
          "indexed": true,
          "internalType": "address",
          "name": "pool",
          "type": "address"
        },
        {
          "indexed": true,
          "internalType": "bool",
          "name": "positionIsToken0",
          "type": "bool"
        },
        {
          "indexed": true,
          "internalType": "address",
          "name": "trader",
          "type": "address"
        },
        {
          "indexed": false,
          "internalType": "address",
          "name": "filler",
          "type": "address"
        },
        {
          "indexed": false,
          "internalType": "uint256",
          "name": "addedAmount",
          "type": "uint256"
        },
        {
          "indexed": false,
          "internalType": "uint256",
          "name": "marginAmount",
          "type": "uint256"
        },
        {
          "indexed": false,
          "internalType": "uint256",
          "name": "borrowAmount",
          "type": "uint256"
        },
        {
          "indexed": false,
          "internalType": "uint256",
          "name": "premiumPaid",
          "type": "uint256"
        },
        {
          "indexed": false,
          "internalType": "uint256",
          "name": "feePaid",
          "type": "uint256"
        }
      ],
      "name": "MarginPositionIncreased",
      "type": "event"
    },
    {
      "anonymous": false,
      "inputs": [
        {
          "indexed": true,
          "internalType": "address",
          "name": "pool",
          "type": "address"
        },
        {
          "indexed": true,
          "internalType": "bool",
          "name": "positionIsToken0",
          "type": "bool"
        },
        {
          "indexed": true,
          "internalType": "address",
          "name": "trader",
          "type": "address"
        },
        {
          "indexed": false,
          "internalType": "address",
          "name": "filler",
          "type": "address"
        },
        {
          "indexed": false,
          "internalType": "uint256",
          "name": "reducePercentage",
          "type": "uint256"
        },
        {
          "indexed": false,
          "internalType": "uint256",
          "name": "premiumPaid",
          "type": "uint256"
        },
        {
          "indexed": false,
          "internalType": "uint256",
          "name": "feePaid",
          "type": "uint256"
        }
      ],
      "name": "MarginPositionReduced",
      "type": "event"
    },
    {
      "anonymous": false,
      "inputs": [
        {
          "indexed": true,
          "internalType": "address",
          "name": "pool",
          "type": "address"
        },
        {
          "indexed": true,
          "internalType": "bool",
          "name": "positionIsToken0",
          "type": "bool"
        },
        {
          "indexed": true,
          "internalType": "address",
          "name": "trader",
          "type": "address"
        },
        {
          "indexed": false,
          "internalType": "bool",
          "name": "isAdd",
          "type": "bool"
        },
        {
          "indexed": false,
          "internalType": "uint256",
          "name": "deadline",
          "type": "uint256"
        },
        {
          "indexed": false,
          "internalType": "uint256",
          "name": "startOutput",
          "type": "uint256"
        },
        {
          "indexed": false,
          "internalType": "uint256",
          "name": "minOutput",
          "type": "uint256"
        },
        {
          "indexed": false,
          "internalType": "uint256",
          "name": "inputAmount",
          "type": "uint256"
        },
        {
          "indexed": false,
          "internalType": "uint256",
          "name": "decayRate",
          "type": "uint256"
        },
        {
          "indexed": false,
          "internalType": "uint256",
          "name": "margin",
          "type": "uint256"
        }
      ],
      "name": "OrderAdded",
      "type": "event"
    },
    {
      "anonymous": false,
      "inputs": [
        {
          "indexed": true,
          "internalType": "address",
          "name": "pool",
          "type": "address"
        },
        {
          "indexed": true,
          "internalType": "bool",
          "name": "positionIsToken0",
          "type": "bool"
        },
        {
          "indexed": true,
          "internalType": "address",
          "name": "trader",
          "type": "address"
        },
        {
          "indexed": false,
          "internalType": "bool",
          "name": "isAdd",
          "type": "bool"
        }
      ],
      "name": "OrderCanceled",
      "type": "event"
    },
    {
      "anonymous": false,
      "inputs": [
        {
          "indexed": true,
          "internalType": "address",
          "name": "payer",
          "type": "address"
        },
        {
          "indexed": true,
          "internalType": "address",
          "name": "pool",
          "type": "address"
        },
        {
          "indexed": false,
          "internalType": "bool",
          "name": "isToken1",
          "type": "bool"
        },
        {
          "indexed": false,
          "internalType": "uint256",
          "name": "amount",
          "type": "uint256"
        }
      ],
      "name": "PremiumDeposited",
      "type": "event"
    },
    {
      "anonymous": false,
      "inputs": [
        {
          "indexed": true,
          "internalType": "address",
          "name": "withdrawer",
          "type": "address"
        },
        {
          "indexed": true,
          "internalType": "address",
          "name": "pool",
          "type": "address"
        },
        {
          "indexed": false,
          "internalType": "bool",
          "name": "isToken1",
          "type": "bool"
        },
        {
          "indexed": false,
          "internalType": "uint256",
          "name": "amount",
          "type": "uint256"
        }
      ],
      "name": "PremiumWithdrawn",
      "type": "event"
    },
    {
      "inputs": [
        {
          "internalType": "PositionId",
          "name": "",
          "type": "bytes32"
        }
      ],
      "name": "PremiumDeposit",
      "outputs": [
        {
          "internalType": "uint256",
          "name": "",
          "type": "uint256"
        }
      ],
      "stateMutability": "view",
      "type": "function"
    },
    {
      "inputs": [
        {
          "components": [
            {
              "internalType": "address",
              "name": "token0",
              "type": "address"
            },
            {
              "internalType": "address",
              "name": "token1",
              "type": "address"
            },
            {
              "internalType": "uint24",
              "name": "fee",
              "type": "uint24"
            }
          ],
          "internalType": "struct PoolKey",
          "name": "key",
          "type": "tuple"
        },
        {
          "components": [
            {
              "internalType": "uint256",
              "name": "margin",
              "type": "uint256"
            },
            {
              "internalType": "uint256",
              "name": "minOutput",
              "type": "uint256"
            },
            {
              "internalType": "uint256",
              "name": "simulatedOutput",
              "type": "uint256"
            },
            {
              "internalType": "uint256",
              "name": "borrowAmount",
              "type": "uint256"
            },
            {
              "internalType": "bool",
              "name": "positionIsToken0",
              "type": "bool"
            },
            {
              "internalType": "uint256",
              "name": "executionOption",
              "type": "uint256"
            },
            {
              "internalType": "address",
              "name": "trader",
              "type": "address"
            },
            {
              "internalType": "bytes",
              "name": "executionData",
              "type": "bytes"
            },
            {
              "internalType": "int24",
              "name": "slippedTickMin",
              "type": "int24"
            },
            {
              "internalType": "int24",
              "name": "slippedTickMax",
              "type": "int24"
            }
          ],
          "internalType": "struct AddParams",
          "name": "param",
          "type": "tuple"
        },
        {
          "components": [
            {
              "internalType": "int24",
              "name": "tick",
              "type": "int24"
            },
            {
              "internalType": "uint128",
              "name": "liquidity",
              "type": "uint128"
            },
            {
              "internalType": "uint256",
              "name": "premium",
              "type": "uint256"
            },
            {
              "internalType": "uint256",
              "name": "feeGrowthInside0LastX128",
              "type": "uint256"
            },
            {
              "internalType": "uint256",
              "name": "feeGrowthInside1LastX128",
              "type": "uint256"
            },
            {
              "internalType": "uint256",
              "name": "lastGrowth",
              "type": "uint256"
            }
          ],
          "internalType": "struct LiquidityLoan[]",
          "name": "borrowInfo",
          "type": "tuple[]"
        }
      ],
      "name": "addPosition",
      "outputs": [
        {
          "components": [
            {
              "components": [
                {
                  "internalType": "address",
                  "name": "pool",
                  "type": "address"
                },
                {
                  "internalType": "bool",
                  "name": "isToken0",
                  "type": "bool"
                },
                {
                  "internalType": "uint256",
                  "name": "totalDebtOutput",
                  "type": "uint256"
                },
                {
                  "internalType": "uint256",
                  "name": "totalDebtInput",
                  "type": "uint256"
                },
                {
                  "internalType": "uint32",
                  "name": "lastPremiumPaymentTime",
                  "type": "uint32"
                },
                {
                  "internalType": "uint32",
                  "name": "openTime",
                  "type": "uint32"
                },
                {
                  "components": [
                    {
                      "internalType": "int24",
                      "name": "tick",
                      "type": "int24"
                    },
                    {
                      "internalType": "uint128",
                      "name": "liquidity",
                      "type": "uint128"
                    },
                    {
                      "internalType": "uint256",
                      "name": "premium",
                      "type": "uint256"
                    },
                    {
                      "internalType": "uint256",
                      "name": "feeGrowthInside0LastX128",
                      "type": "uint256"
                    },
                    {
                      "internalType": "uint256",
                      "name": "feeGrowthInside1LastX128",
                      "type": "uint256"
                    },
                    {
                      "internalType": "uint256",
                      "name": "lastGrowth",
                      "type": "uint256"
                    }
                  ],
                  "internalType": "struct LiquidityLoan[]",
                  "name": "borrowInfo",
                  "type": "tuple[]"
                }
              ],
              "internalType": "struct Position",
              "name": "base",
              "type": "tuple"
            },
            {
              "internalType": "uint256",
              "name": "totalPosition",
              "type": "uint256"
            },
            {
              "internalType": "uint256",
              "name": "margin",
              "type": "uint256"
            }
          ],
          "internalType": "struct MarginPosition",
          "name": "position",
          "type": "tuple"
        },
        {
          "internalType": "uint256",
          "name": "premiumOwed",
          "type": "uint256"
        },
        {
          "internalType": "uint256",
          "name": "fee",
          "type": "uint256"
        }
      ],
      "stateMutability": "nonpayable",
      "type": "function"
    },
    {
      "inputs": [
        {
          "internalType": "address",
          "name": "token0",
          "type": "address"
        },
        {
          "internalType": "address",
          "name": "token1",
          "type": "address"
        }
      ],
      "name": "approveTokens",
      "outputs": [],
      "stateMutability": "nonpayable",
      "type": "function"
    },
    {
      "inputs": [
        {
          "components": [
            {
              "internalType": "address",
              "name": "token0",
              "type": "address"
            },
            {
              "internalType": "address",
              "name": "token1",
              "type": "address"
            },
            {
              "internalType": "uint24",
              "name": "fee",
              "type": "uint24"
            }
          ],
          "internalType": "struct PoolKey",
          "name": "key",
          "type": "tuple"
        },
        {
          "components": [
            {
              "components": [
                {
                  "internalType": "address",
                  "name": "pool",
                  "type": "address"
                },
                {
                  "internalType": "bool",
                  "name": "isToken0",
                  "type": "bool"
                },
                {
                  "internalType": "uint256",
                  "name": "totalDebtOutput",
                  "type": "uint256"
                },
                {
                  "internalType": "uint256",
                  "name": "totalDebtInput",
                  "type": "uint256"
                },
                {
                  "internalType": "uint32",
                  "name": "lastPremiumPaymentTime",
                  "type": "uint32"
                },
                {
                  "internalType": "uint32",
                  "name": "openTime",
                  "type": "uint32"
                },
                {
                  "components": [
                    {
                      "internalType": "int24",
                      "name": "tick",
                      "type": "int24"
                    },
                    {
                      "internalType": "uint128",
                      "name": "liquidity",
                      "type": "uint128"
                    },
                    {
                      "internalType": "uint256",
                      "name": "premium",
                      "type": "uint256"
                    },
                    {
                      "internalType": "uint256",
                      "name": "feeGrowthInside0LastX128",
                      "type": "uint256"
                    },
                    {
                      "internalType": "uint256",
                      "name": "feeGrowthInside1LastX128",
                      "type": "uint256"
                    },
                    {
                      "internalType": "uint256",
                      "name": "lastGrowth",
                      "type": "uint256"
                    }
                  ],
                  "internalType": "struct LiquidityLoan[]",
                  "name": "borrowInfo",
                  "type": "tuple[]"
                }
              ],
              "internalType": "struct Position",
              "name": "base",
              "type": "tuple"
            },
            {
              "internalType": "uint256",
              "name": "totalPosition",
              "type": "uint256"
            },
            {
              "internalType": "uint256",
              "name": "margin",
              "type": "uint256"
            }
          ],
          "internalType": "struct MarginPosition",
          "name": "position",
          "type": "tuple"
        },
        {
          "internalType": "address",
          "name": "pool",
          "type": "address"
        },
        {
          "internalType": "address",
          "name": "trader",
          "type": "address"
        },
        {
          "internalType": "bool",
          "name": "positionIsToken0",
          "type": "bool"
        }
      ],
      "name": "canForceClose",
      "outputs": [
        {
          "internalType": "bool",
          "name": "",
          "type": "bool"
        }
      ],
      "stateMutability": "view",
      "type": "function"
    },
    {
      "inputs": [
        {
          "components": [
            {
              "components": [
                {
                  "internalType": "address",
                  "name": "pool",
                  "type": "address"
                },
                {
                  "internalType": "bool",
                  "name": "isToken0",
                  "type": "bool"
                },
                {
                  "internalType": "uint256",
                  "name": "totalDebtOutput",
                  "type": "uint256"
                },
                {
                  "internalType": "uint256",
                  "name": "totalDebtInput",
                  "type": "uint256"
                },
                {
                  "internalType": "uint32",
                  "name": "lastPremiumPaymentTime",
                  "type": "uint32"
                },
                {
                  "internalType": "uint32",
                  "name": "openTime",
                  "type": "uint32"
                },
                {
                  "components": [
                    {
                      "internalType": "int24",
                      "name": "tick",
                      "type": "int24"
                    },
                    {
                      "internalType": "uint128",
                      "name": "liquidity",
                      "type": "uint128"
                    },
                    {
                      "internalType": "uint256",
                      "name": "premium",
                      "type": "uint256"
                    },
                    {
                      "internalType": "uint256",
                      "name": "feeGrowthInside0LastX128",
                      "type": "uint256"
                    },
                    {
                      "internalType": "uint256",
                      "name": "feeGrowthInside1LastX128",
                      "type": "uint256"
                    },
                    {
                      "internalType": "uint256",
                      "name": "lastGrowth",
                      "type": "uint256"
                    }
                  ],
                  "internalType": "struct LiquidityLoan[]",
                  "name": "borrowInfo",
                  "type": "tuple[]"
                }
              ],
              "internalType": "struct Position",
              "name": "base",
              "type": "tuple"
            },
            {
              "internalType": "uint256",
              "name": "totalPosition",
              "type": "uint256"
            },
            {
              "internalType": "uint256",
              "name": "margin",
              "type": "uint256"
            }
          ],
          "internalType": "struct MarginPosition",
          "name": "position",
          "type": "tuple"
        }
      ],
      "name": "canForceClose",
      "outputs": [
        {
          "internalType": "bool",
          "name": "",
          "type": "bool"
        }
      ],
      "stateMutability": "view",
      "type": "function"
    },
    {
      "inputs": [
        {
          "internalType": "address",
          "name": "pool",
          "type": "address"
        },
        {
          "internalType": "bool",
          "name": "positionIsToken0",
          "type": "bool"
        },
        {
          "internalType": "bool",
          "name": "isAdd",
          "type": "bool"
        }
      ],
      "name": "cancelOrder",
      "outputs": [],
      "stateMutability": "nonpayable",
      "type": "function"
    },
    {
      "inputs": [
        {
          "internalType": "address",
          "name": "pool",
          "type": "address"
        },
        {
          "internalType": "address",
          "name": "borrower",
          "type": "address"
        },
        {
          "internalType": "bool",
          "name": "borrowedToken1",
          "type": "bool"
        }
      ],
      "name": "checkPositionExists",
      "outputs": [
        {
          "internalType": "bool",
          "name": "",
          "type": "bool"
        }
      ],
      "stateMutability": "view",
      "type": "function"
    },
    {
      "inputs": [
        {
          "internalType": "address",
          "name": "pool",
          "type": "address"
        },
        {
          "internalType": "address",
          "name": "borrower",
          "type": "address"
        },
        {
          "internalType": "bool",
          "name": "borrowedToken1",
          "type": "bool"
        },
        {
          "internalType": "uint256",
          "name": "minPremiumDepositPercentage",
          "type": "uint256"
        }
      ],
      "name": "checkPremiumCondition",
      "outputs": [
        {
          "internalType": "bool",
          "name": "",
          "type": "bool"
        }
      ],
      "stateMutability": "view",
      "type": "function"
    },
    {
      "inputs": [
        {
          "components": [
            {
              "internalType": "address",
              "name": "token0",
              "type": "address"
            },
            {
              "internalType": "address",
              "name": "token1",
              "type": "address"
            },
            {
              "internalType": "uint24",
              "name": "fee",
              "type": "uint24"
            }
          ],
          "internalType": "struct PoolKey",
          "name": "key",
          "type": "tuple"
        },
        {
          "internalType": "address",
          "name": "trader",
          "type": "address"
        },
        {
          "internalType": "bool",
          "name": "borrowToken1",
          "type": "bool"
        },
        {
          "internalType": "uint256",
          "name": "amount",
          "type": "uint256"
        }
      ],
      "name": "depositPremium",
      "outputs": [],
      "stateMutability": "nonpayable",
      "type": "function"
    },
    {
      "inputs": [],
      "name": "executioner",
      "outputs": [
        {
          "internalType": "contract Executioner",
          "name": "",
          "type": "address"
        }
      ],
      "stateMutability": "view",
      "type": "function"
    },
    {
      "inputs": [
        {
          "components": [
            {
              "internalType": "address",
              "name": "token0",
              "type": "address"
            },
            {
              "internalType": "address",
              "name": "token1",
              "type": "address"
            },
            {
              "internalType": "uint24",
              "name": "fee",
              "type": "uint24"
            }
          ],
          "internalType": "struct PoolKey",
          "name": "key",
          "type": "tuple"
        },
        {
          "components": [
            {
              "internalType": "address",
              "name": "trader",
              "type": "address"
            },
            {
              "internalType": "bool",
              "name": "positionIsToken0",
              "type": "bool"
            },
            {
              "internalType": "uint256",
              "name": "fillerPayAmount",
              "type": "uint256"
            },
            {
              "internalType": "int24",
              "name": "slippedTickMin",
              "type": "int24"
            },
            {
              "internalType": "int24",
              "name": "slippedTickMax",
              "type": "int24"
            }
          ],
          "internalType": "struct ForceCloseParams",
          "name": "param",
          "type": "tuple"
        }
      ],
      "name": "forceClose",
      "outputs": [
        {
          "internalType": "uint256",
          "name": "premium",
          "type": "uint256"
        }
      ],
      "stateMutability": "nonpayable",
      "type": "function"
    },
    {
      "inputs": [
        {
          "internalType": "address",
          "name": "pool",
          "type": "address"
        },
        {
          "internalType": "address",
          "name": "borrower",
          "type": "address"
        },
        {
          "internalType": "bool",
          "name": "borrowedToken1",
          "type": "bool"
        }
      ],
      "name": "getBorrowInfo",
      "outputs": [
        {
          "components": [
            {
              "internalType": "int24",
              "name": "tick",
              "type": "int24"
            },
            {
              "internalType": "uint128",
              "name": "liquidity",
              "type": "uint128"
            },
            {
              "internalType": "uint256",
              "name": "premium",
              "type": "uint256"
            },
            {
              "internalType": "uint256",
              "name": "feeGrowthInside0LastX128",
              "type": "uint256"
            },
            {
              "internalType": "uint256",
              "name": "feeGrowthInside1LastX128",
              "type": "uint256"
            },
            {
              "internalType": "uint256",
              "name": "lastGrowth",
              "type": "uint256"
            }
          ],
          "internalType": "struct LiquidityLoan[]",
          "name": "",
          "type": "tuple[]"
        }
      ],
      "stateMutability": "view",
      "type": "function"
    },
    {
      "inputs": [
        {
          "internalType": "address",
          "name": "pool",
          "type": "address"
        },
        {
          "internalType": "address",
          "name": "trader",
          "type": "address"
        },
        {
          "internalType": "bool",
          "name": "positionIsToken0",
          "type": "bool"
        }
      ],
      "name": "getLastRepayTime",
      "outputs": [
        {
          "internalType": "uint32",
          "name": "",
          "type": "uint32"
        }
      ],
      "stateMutability": "view",
      "type": "function"
    },
    {
      "inputs": [
        {
          "internalType": "address",
          "name": "pool",
          "type": "address"
        },
        {
          "internalType": "address",
          "name": "trader",
          "type": "address"
        },
        {
          "internalType": "bool",
          "name": "positionIsToken0",
          "type": "bool"
        },
        {
          "internalType": "bool",
          "name": "isAdd",
          "type": "bool"
        }
      ],
      "name": "getOrderId",
      "outputs": [
        {
          "internalType": "bytes32",
          "name": "",
          "type": "bytes32"
        }
      ],
      "stateMutability": "pure",
      "type": "function"
    },
    {
      "inputs": [
        {
          "internalType": "address",
          "name": "pool",
          "type": "address"
        },
        {
          "internalType": "address",
          "name": "trader",
          "type": "address"
        },
        {
          "internalType": "bool",
          "name": "positionIsToken0",
          "type": "bool"
        }
      ],
      "name": "getPosition",
      "outputs": [
        {
          "components": [
            {
              "components": [
                {
                  "internalType": "address",
                  "name": "pool",
                  "type": "address"
                },
                {
                  "internalType": "bool",
                  "name": "isToken0",
                  "type": "bool"
                },
                {
                  "internalType": "uint256",
                  "name": "totalDebtOutput",
                  "type": "uint256"
                },
                {
                  "internalType": "uint256",
                  "name": "totalDebtInput",
                  "type": "uint256"
                },
                {
                  "internalType": "uint32",
                  "name": "lastPremiumPaymentTime",
                  "type": "uint32"
                },
                {
                  "internalType": "uint32",
                  "name": "openTime",
                  "type": "uint32"
                },
                {
                  "components": [
                    {
                      "internalType": "int24",
                      "name": "tick",
                      "type": "int24"
                    },
                    {
                      "internalType": "uint128",
                      "name": "liquidity",
                      "type": "uint128"
                    },
                    {
                      "internalType": "uint256",
                      "name": "premium",
                      "type": "uint256"
                    },
                    {
                      "internalType": "uint256",
                      "name": "feeGrowthInside0LastX128",
                      "type": "uint256"
                    },
                    {
                      "internalType": "uint256",
                      "name": "feeGrowthInside1LastX128",
                      "type": "uint256"
                    },
                    {
                      "internalType": "uint256",
                      "name": "lastGrowth",
                      "type": "uint256"
                    }
                  ],
                  "internalType": "struct LiquidityLoan[]",
                  "name": "borrowInfo",
                  "type": "tuple[]"
                }
              ],
              "internalType": "struct Position",
              "name": "base",
              "type": "tuple"
            },
            {
              "internalType": "uint256",
              "name": "totalPosition",
              "type": "uint256"
            },
            {
              "internalType": "uint256",
              "name": "margin",
              "type": "uint256"
            }
          ],
          "internalType": "struct MarginPosition",
          "name": "",
          "type": "tuple"
        }
      ],
      "stateMutability": "view",
      "type": "function"
    },
    {
      "inputs": [
        {
          "internalType": "address",
          "name": "pool",
          "type": "address"
        },
        {
          "internalType": "address",
          "name": "trader",
          "type": "address"
        },
        {
          "internalType": "bool",
          "name": "positionIsToken0",
          "type": "bool"
        }
      ],
      "name": "getPositionId",
      "outputs": [
        {
          "internalType": "PositionId",
          "name": "",
          "type": "bytes32"
        }
      ],
      "stateMutability": "pure",
      "type": "function"
    },
    {
      "inputs": [
        {
          "components": [
            {
              "internalType": "address",
              "name": "token0",
              "type": "address"
            },
            {
              "internalType": "address",
              "name": "token1",
              "type": "address"
            },
            {
              "internalType": "uint24",
              "name": "fee",
              "type": "uint24"
            }
          ],
          "internalType": "struct PoolKey",
          "name": "key",
          "type": "tuple"
        },
        {
          "internalType": "address",
          "name": "borrower",
          "type": "address"
        },
        {
          "internalType": "bool",
          "name": "borrowedToken1",
          "type": "bool"
        }
      ],
      "name": "maxWithdrawablePremium",
      "outputs": [
        {
          "internalType": "uint256",
          "name": "maxWithdrawable",
          "type": "uint256"
        }
      ],
      "stateMutability": "view",
      "type": "function"
    },
    {
      "inputs": [
        {
          "internalType": "bytes[]",
          "name": "data",
          "type": "bytes[]"
        }
      ],
      "name": "multicall",
      "outputs": [
        {
          "internalType": "bytes[]",
          "name": "results",
          "type": "bytes[]"
        }
      ],
      "stateMutability": "nonpayable",
      "type": "function"
    },
    {
      "inputs": [
        {
          "internalType": "bytes32",
          "name": "",
          "type": "bytes32"
        }
      ],
      "name": "orders",
      "outputs": [
        {
          "components": [
            {
              "internalType": "address",
              "name": "token0",
              "type": "address"
            },
            {
              "internalType": "address",
              "name": "token1",
              "type": "address"
            },
            {
              "internalType": "uint24",
              "name": "fee",
              "type": "uint24"
            }
          ],
          "internalType": "struct PoolKey",
          "name": "key",
          "type": "tuple"
        },
        {
          "internalType": "bool",
          "name": "positionIsToken0",
          "type": "bool"
        },
        {
          "internalType": "uint32",
          "name": "auctionDeadline",
          "type": "uint32"
        },
        {
          "internalType": "uint32",
          "name": "auctionStartTime",
          "type": "uint32"
        },
        {
          "internalType": "uint256",
          "name": "startOutput",
          "type": "uint256"
        },
        {
          "internalType": "uint256",
          "name": "minOutput",
          "type": "uint256"
        },
        {
          "internalType": "uint256",
          "name": "inputAmount",
          "type": "uint256"
        },
        {
          "internalType": "uint256",
          "name": "decayRate",
          "type": "uint256"
        },
        {
          "internalType": "uint256",
          "name": "margin",
          "type": "uint256"
        }
      ],
      "stateMutability": "view",
      "type": "function"
    },
    {
      "inputs": [
        {
          "components": [
            {
              "internalType": "address",
              "name": "token0",
              "type": "address"
            },
            {
              "internalType": "address",
              "name": "token1",
              "type": "address"
            },
            {
              "internalType": "uint24",
              "name": "fee",
              "type": "uint24"
            }
          ],
          "internalType": "struct PoolKey",
          "name": "key",
          "type": "tuple"
        },
        {
          "internalType": "bool",
          "name": "payToken1",
          "type": "bool"
        },
        {
          "internalType": "uint256",
          "name": "depositAmount",
          "type": "uint256"
        }
      ],
      "name": "payPremium",
      "outputs": [
        {
          "internalType": "uint256",
          "name": "premiumOwed",
          "type": "uint256"
        }
      ],
      "stateMutability": "nonpayable",
      "type": "function"
    },
    {
      "inputs": [
        {
          "internalType": "PositionId",
          "name": "",
          "type": "bytes32"
        }
      ],
      "name": "positions",
      "outputs": [
        {
          "components": [
            {
              "internalType": "address",
              "name": "pool",
              "type": "address"
            },
            {
              "internalType": "bool",
              "name": "isToken0",
              "type": "bool"
            },
            {
              "internalType": "uint256",
              "name": "totalDebtOutput",
              "type": "uint256"
            },
            {
              "internalType": "uint256",
              "name": "totalDebtInput",
              "type": "uint256"
            },
            {
              "internalType": "uint32",
              "name": "lastPremiumPaymentTime",
              "type": "uint32"
            },
            {
              "internalType": "uint32",
              "name": "openTime",
              "type": "uint32"
            },
            {
              "components": [
                {
                  "internalType": "int24",
                  "name": "tick",
                  "type": "int24"
                },
                {
                  "internalType": "uint128",
                  "name": "liquidity",
                  "type": "uint128"
                },
                {
                  "internalType": "uint256",
                  "name": "premium",
                  "type": "uint256"
                },
                {
                  "internalType": "uint256",
                  "name": "feeGrowthInside0LastX128",
                  "type": "uint256"
                },
                {
                  "internalType": "uint256",
                  "name": "feeGrowthInside1LastX128",
                  "type": "uint256"
                },
                {
                  "internalType": "uint256",
                  "name": "lastGrowth",
                  "type": "uint256"
                }
              ],
              "internalType": "struct LiquidityLoan[]",
              "name": "borrowInfo",
              "type": "tuple[]"
            }
          ],
          "internalType": "struct Position",
          "name": "base",
          "type": "tuple"
        },
        {
          "internalType": "uint256",
          "name": "totalPosition",
          "type": "uint256"
        },
        {
          "internalType": "uint256",
          "name": "margin",
          "type": "uint256"
        }
      ],
      "stateMutability": "view",
      "type": "function"
    },
    {
      "inputs": [
        {
          "components": [
            {
              "internalType": "address",
              "name": "token0",
              "type": "address"
            },
            {
              "internalType": "address",
              "name": "token1",
              "type": "address"
            },
            {
              "internalType": "uint24",
              "name": "fee",
              "type": "uint24"
            }
          ],
          "internalType": "struct PoolKey",
          "name": "key",
          "type": "tuple"
        },
        {
          "components": [
            {
              "internalType": "bool",
              "name": "positionIsToken0",
              "type": "bool"
            },
            {
              "internalType": "uint256",
              "name": "reducePercentage",
              "type": "uint256"
            },
            {
              "internalType": "uint256",
              "name": "minOutput",
              "type": "uint256"
            },
            {
              "internalType": "address",
              "name": "trader",
              "type": "address"
            },
            {
              "internalType": "uint256",
              "name": "executionOption",
              "type": "uint256"
            },
            {
              "internalType": "bytes",
              "name": "executionData",
              "type": "bytes"
            },
            {
              "internalType": "int24",
              "name": "slippedTickMin",
              "type": "int24"
            },
            {
              "internalType": "int24",
              "name": "slippedTickMax",
              "type": "int24"
            },
            {
              "internalType": "uint256",
              "name": "reduceAmount",
              "type": "uint256"
            }
          ],
          "internalType": "struct ReduceParam",
          "name": "param",
          "type": "tuple"
        }
      ],
      "name": "reducePosition",
      "outputs": [
        {
          "components": [
            {
              "internalType": "int256",
              "name": "amount0",
              "type": "int256"
            },
            {
              "internalType": "int256",
              "name": "amount1",
              "type": "int256"
            },
            {
              "internalType": "int256",
              "name": "PnL",
              "type": "int256"
            },
            {
              "internalType": "uint256",
              "name": "returnedAmount",
              "type": "uint256"
            },
            {
              "internalType": "uint256",
              "name": "repaidDebt0",
              "type": "uint256"
            },
            {
              "internalType": "uint256",
              "name": "repaidDebt1",
              "type": "uint256"
            },
            {
              "internalType": "uint256",
              "name": "premium",
              "type": "uint256"
            },
            {
              "internalType": "uint256",
              "name": "profitFee",
              "type": "uint256"
            }
          ],
          "internalType": "struct ReduceReturn",
          "name": "",
          "type": "tuple"
        }
      ],
      "stateMutability": "nonpayable",
      "type": "function"
    },
    {
      "inputs": [
        {
          "internalType": "bool",
          "name": "addPaused",
          "type": "bool"
        }
      ],
      "name": "setAddPaused",
      "outputs": [],
      "stateMutability": "nonpayable",
      "type": "function"
    },
    {
      "inputs": [
        {
          "internalType": "bool",
          "name": "forceClosePaused",
          "type": "bool"
        }
      ],
      "name": "setForceClosePaused",
      "outputs": [],
      "stateMutability": "nonpayable",
      "type": "function"
    },
    {
      "inputs": [
        {
          "internalType": "address",
          "name": "newOwner",
          "type": "address"
        }
      ],
      "name": "setOwner",
      "outputs": [],
      "stateMutability": "nonpayable",
      "type": "function"
    },
    {
      "inputs": [
        {
          "internalType": "bool",
          "name": "reducePaused",
          "type": "bool"
        }
      ],
      "name": "setReducePaused",
      "outputs": [],
      "stateMutability": "nonpayable",
      "type": "function"
    },
    {
      "inputs": [
        {
          "internalType": "address",
          "name": "pool",
          "type": "address"
        },
        {
          "internalType": "bool",
          "name": "positionIsToken0",
          "type": "bool"
        },
        {
          "internalType": "bool",
          "name": "isAdd",
          "type": "bool"
        },
        {
          "internalType": "uint256",
          "name": "deadline",
          "type": "uint256"
        },
        {
          "internalType": "uint256",
          "name": "startOutput",
          "type": "uint256"
        },
        {
          "internalType": "uint256",
          "name": "minOutput",
          "type": "uint256"
        },
        {
          "internalType": "uint256",
          "name": "inputAmount",
          "type": "uint256"
        },
        {
          "internalType": "uint256",
          "name": "decayRate",
          "type": "uint256"
        },
        {
          "internalType": "uint256",
          "name": "margin",
          "type": "uint256"
        }
      ],
      "name": "submitOrder",
      "outputs": [],
      "stateMutability": "nonpayable",
      "type": "function"
    },
    {
      "inputs": [
        {
          "components": [
            {
              "internalType": "address",
              "name": "token0",
              "type": "address"
            },
            {
              "internalType": "address",
              "name": "token1",
              "type": "address"
            },
            {
              "internalType": "uint24",
              "name": "fee",
              "type": "uint24"
            }
          ],
          "internalType": "struct PoolKey",
          "name": "key",
          "type": "tuple"
        },
        {
          "internalType": "bool",
          "name": "borrowToken1",
          "type": "bool"
        },
        {
          "internalType": "uint256",
          "name": "amount",
          "type": "uint256"
        }
      ],
      "name": "withdrawPremium",
      "outputs": [],
      "stateMutability": "nonpayable",
      "type": "function"
    }
  ],
  "bytecode": {
    "object": "0x608060405260016000553480156200001657600080fd5b5060405162005e7e38038062005e7e8339810160408190526200003991620000a6565b600180546001600160a01b03199081166001600160a01b039586161790915560028054821693851693909317909255600480548316919093161790915560038054339216919091179055620000f0565b80516001600160a01b0381168114620000a157600080fd5b919050565b600080600060608486031215620000bc57600080fd5b620000c78462000089565b9250620000d76020850162000089565b9150620000e76040850162000089565b90509250925092565b615d7e80620001006000396000f3fe608060405234801561001057600080fd5b50600436106101c45760003560e01c80638be8efa2116100f9578063d93a904711610097578063de074f1011610071578063de074f10146104e3578063f2edf95a146104f6578063f6f0ea8914610509578063ff9912cd1461051c57600080fd5b8063d93a90471461047d578063dbe5f6cb146104a5578063dc6ab02f146104b857600080fd5b8063ac9650d8116100d3578063ac9650d814610424578063b854152614610444578063bfd4c2a514610457578063d42a397c1461046a57600080fd5b80638be8efa21461032e5780638c1395f8146103505780639c3f1e901461037057600080fd5b80632be197cf116101665780635277a324116101405780635277a324146102c85780635d4936ff146102db578063657b5a4b146102fb57806389a1c0731461031b57600080fd5b80632be197cf146102725780633eb4adab14610293578063514ea4bf146102a657600080fd5b806320a672a2116101a257806320a672a214610204578063228e062a1461022c57806327bd6f831461023f57806328ec72321461025f57600080fd5b8063025df9e4146101c957806313af4035146101de5780631fda89ef146101f1575b600080fd5b6101dc6101d7366004613a66565b610530565b005b6101dc6101ec366004613ac6565b610693565b6101dc6101ff366004613ae3565b6106e8565b610217610212366004613b00565b610730565b60405190151581526020015b60405180910390f35b6101dc61023a366004613b51565b6107b5565b61025261024d366004613d84565b610960565b6040516102239190613ec2565b6101dc61026d366004613ed1565b611468565b610285610280366004613f82565b611555565b604051908152602001610223565b6101dc6102a1366004613fc1565b611655565b6102b96102b4366004613ffa565b61187f565b60405161022393929190614101565b6102856102d6366004614126565b6119a0565b6102856102e9366004613ffa565b60056020526000908152604090205481565b61030e6103093660046141dd565b611fbc565b6040516102239190614252565b6101dc610329366004613ae3565b61211b565b61034161033c366004614361565b612163565b604051610223939291906144b1565b61036361035e3660046141dd565b612a49565b60405161022391906144c4565b61040f61037e366004613ffa565b600660208181526000928352604092839020835160608101855281546001600160a01b039081168252600183015490811693820193909352600160a01b90920462ffffff1693820193909352600283015460038401546004850154600586015494860154600790960154939560ff841695610100850463ffffffff9081169665010000000000909604169490919089565b60405161022399989796959493929190614503565b610437610432366004614556565b612ba4565b604051610223919061461a565b610217610452366004614775565b612c99565b6102856104653660046147fd565b612d52565b6101dc610478366004613ae3565b612db5565b61049061048b3660046141dd565b612dfd565b60405163ffffffff9091168152602001610223565b6101dc6104b3366004614859565b612e30565b6002546104cb906001600160a01b031681565b6040516001600160a01b039091168152602001610223565b6102856104f1366004613a66565b612eb5565b6102176105043660046141dd565b6130bd565b6102856105173660046141dd565b6130eb565b61021761052a3660046148a9565b50600090565b600154604051639525092360e01b81526000916001600160a01b031690639525092390610561908790600401614924565b6101c060405180830381865afa15801561057f573d6000803e3d6000fd5b505050506040513d601f19601f820116820180604052508101906105a39190614a16565b5050905060006105b48233866130eb565b9050826105d06105c936889003880188614a60565b3387611555565b10156105ef57604051632b869ad760e21b815260040160405180910390fd5b6000818152600560205260408120805485929061060d908490614a92565b9091555061064490508461062d576106286020870187613ac6565b61063d565b61063d6040870160208801613ac6565b3385613141565b604080518515158152602081018590526001600160a01b0384169133917ffb7067681775f19340bbd7db267bcc1217b3d27bff5bfee90759622e8e028977910160405180910390a35050505050565b6003546001600160a01b031633146106c65760405162461bcd60e51b81526004016106bd90614aa5565b60405180910390fd5b600380546001600160a01b0319166001600160a01b0392909216919091179055565b6003546001600160a01b031633146107125760405162461bcd60e51b81526004016106bd90614aa5565b60048054911515600160a01b0260ff60a01b19909216919091179055565b600061075682670de0b6b3a764000061074a888888612a49565b516060015191906131bf565b600560006107658888886130eb565b81526020019081526020016000205410156107ad5760405162461bcd60e51b8152602060048201526008602482015267217072656d69756d60c01b60448201526064016106bd565b949350505050565b6000546001146107d75760405162461bcd60e51b81526004016106bd90614ac5565b60026000558661082857826107ed8a338b612a49565b6020015110156108285760405162461bcd60e51b81526004016106bd9060208082526004908201526321706f7360e01b604082015260600190565b600660006108388b338c8c612d52565b81526020810191909152604090810160002090516319b5cb0360e01b81526004810191909152881515602482015260448101879052606481018690526084810185905260a4810184905260c4810183905260e4810182905273__$506f8190e26c635088963c8a0018e71746$__906319b5cb03906101040160006040518083038186803b1580156108c857600080fd5b505af41580156108dc573d6000803e3d6000fd5b5050604080518a15158152602081018a9052908101889052606081018790526080810186905260a0810185905260c081018490523392508a151591506001600160a01b038c16907f4c34e64fbcdd268148a9e26a3b2c922bd24162485ce0b2ba28e4ce57d9a2c33c9060e00160405180910390a45050600160005550505050505050565b6109686137ac565b60005460011461098a5760405162461bcd60e51b81526004016106bd90614ac5565b6002600055600454600160a81b900460ff16156109b95760405162461bcd60e51b81526004016106bd90614ae9565b6109c16137f1565b6109c96137ac565b600154604051639525092360e01b81526001600160a01b03909116906395250923906109f9908890600401614924565b6101c060405180830381865afa158015610a17573d6000803e3d6000fd5b505050506040513d601f19601f82011682018060405250810190610a3b9190614a16565b61016085015260020b60208401526001600160a01b0316808352606085015185516000926007928492610a6f9291906130eb565b815260200190815260200160002090508060050154600003610aa45760405163081f715760e11b815260040160405180910390fd5b825160608601518651610aba9291906000612d52565b6101a08401819052604051631759061d60e01b815273__$506f8190e26c635088963c8a0018e71746$__91631759061d91610afe916006918a918791600401614c1c565b606060405180830381865af4158015610b1b573d6000803e3d6000fd5b505050506040513d601f19601f82011682018060405250810190610b3f9190614cd5565b6020880152610100808601919091526040808601929092528151908101909152606090610c769080610b76368b90038b018b614a60565b815260200184600001600401805480602002602001604051908101604052809291908181526020016000905b82821015610c195760008481526020908190206040805160c081018252600586029092018054600281810b855263010000009091046001600160801b031684860152600180830154938501939093528101546060840152600381015460808401526004015460a08301529083529092019101610ba2565b50505050815260200186600001516001600160a01b0316815260200188606001516001600160a01b031681526020018860000151151581526020018661016001518152602001866020015160020b8152602001600081525061329d565b60c08501919091526020870151909150670de0b6b3a764000014610db5576004820180546040805160208084028201810190925282815292919060009084015b82821015610d2d5760008481526020908190206040805160c081018252600586029092018054600281810b855263010000009091046001600160801b031684860152600180830154938501939093528101546060840152600381015460808401526004015460a08301529083529092019101610cb6565b50505050602087015160405163069b8a8b60e31b815273__$d23a8dd93b7205fa6b646ffed38c165d68$__926334dc545892610d6b92600401614d03565b600060405180830381865af4158015610d88573d6000803e3d6000fd5b505050506040513d6000823e601f3d908101601f19168201604052610db09190810190614ddc565b610e53565b6004820180546040805160208084028201810190925282815292919060009084015b82821015610e4e5760008481526020908190206040805160c081018252600586029092018054600281810b855263010000009091046001600160801b031684860152600180830154938501939093528101546060840152600381015460808401526004015460a08301529083529092019101610dd7565b505050505b610180850152600682015461014085015260058201546101008501511015610ef4576101008401516020870151610180860151604051631b74fb1560e31b815273__$506f8190e26c635088963c8a0018e71746$__9363dba7d8a893610ebf9388938890600401614e10565b60006040518083038186803b158015610ed757600080fd5b505af4158015610eeb573d6000803e3d6000fd5b50505050610f72565b835160608701518751600792600092610f0c926130eb565b81526020810191909152604001600090812080546001600160a81b0319168155600181018290556002810182905560038101805467ffffffffffffffff19169055908181610f5d600483018261386b565b50506005820160009055600682016000905550505b83600001516001600160a01b0316633850c7bd6040518163ffffffff1660e01b815260040160e060405180830381865afa158015610fb4573d6000803e3d6000fd5b505050506040513d601f19601f82011682018060405250810190610fd89190614e5e565b50505050600291820b608088018190526001600160a01b0390931660608801525060c0880151900b13806110195750836080015160020b8660e0015160020b125b1561103757604051631e6012f360e21b815260040160405180910390fd5b6101808401516040516337a6142160e01b815273__$d23a8dd93b7205fa6b646ffed38c165d68$__916337a61421916110739190600401614252565b6040805180830381865af415801561108f573d6000803e3d6000fd5b505050506040513d601f19601f820116820180604052508101906110b39190614ef6565b600290810b60c0870181905291810b60a0870181905288516080880151602089015160405163146d722d60e31b8152921515600484015290840b60248301526044820194909452606481019190915291900b608482015260009073__$d23a8dd93b7205fa6b646ffed38c165d68$__9063a36b91689060a401602060405180830381865af4158015611149573d6000803e3d6000fd5b505050506040513d601f19601f8201168201806040525081019061116d9190614f25565b905080600103611298576002546001546040516337aaefd560e11b815273__$506f8190e26c635088963c8a0018e71746$__92636f55dfaa926111c8928c928a928f928d926001600160a01b03908116921690600401614fc6565b600060405180830381865af41580156111e5573d6000803e3d6000fd5b505050506040513d6000823e601f3d908101601f1916820160405261120d91908101906151d1565b610120810151909650909450156112935786516112739061123a5761123560208a018a613ac6565b61124a565b61124a60408a0160208b01613ac6565b60035461012088015160e08801516001600160a01b039092169161126e9190614a92565b613141565b611293611285368a90038a018a614a60565b885161012088015185613382565b6113e6565b806002036113505773__$506f8190e26c635088963c8a0018e71746$__63c132482686610180015189878c8a6101400151600160009054906101000a90046001600160a01b03168c61010001516040518863ffffffff1660e01b8152600401611307979695949392919061531a565b61010060405180830381865af4158015611325573d6000803e3d6000fd5b505050506040513d601f19601f82011682018060405250810190611349919061538a565b93506113e6565b600254600154604051630e4940a960e31b815273__$506f8190e26c635088963c8a0018e71746$__9263724a0548926113a1928c928a928f928d926001600160a01b03908116921690600401614fc6565b61010060405180830381865af41580156113bf573d6000803e3d6000fd5b505050506040513d601f19601f820116820180604052508101906113e3919061538a565b93505b606080880151885187516020808c015160c08a015160e08b0151604080513381529485019390935291830152948101949094526001600160a01b03928316939115159216907f3aacf7844e8b88dda49c434b9ce8b132ed7fc860559882f088ff0c39f8fe98879060800160405180910390a45050600160005550949350505050565b60005460011461148a5760405162461bcd60e51b81526004016106bd90614ac5565b600260009081556006906114a085338686612d52565b81526020808201929092526040908101600090812080546001600160a01b03191681556001810180546001600160b81b031916905560028101805468ffffffffffffffffff1916905560038101829055600481018290556005810182905560068101829055600701555182151581523391841515916001600160a01b038716917f761fde4703b3eb1ca92675208248e655ce58d6778c95e6e742ab9819a7f3d93d910160405180910390a45050600160005550565b600154604051639525092360e01b8152600091829182916001600160a01b03169063952509239061158a9089906004016153a7565b6101c060405180830381865afa1580156115a8573d6000803e3d6000fd5b505050506040513d601f19601f820116820180604052508101906115cc9190614a16565b925050915060006115de838787612a49565b90506000600560006115f1868a8a6130eb565b8152602001908152602001600020549050600061162d8460a00151670de0b6b3a76400008560000151606001516131bf9092919063ffffffff16565b90508082101561163e576000611648565b6116488183614a92565b9998505050505050505050565b6001546001600160a01b031633146116975760405162461bcd60e51b8152602060048201526005602482015264085c1bdbdb60da1b60448201526064016106bd565b60015460405163095ea7b360e01b81526001600160a01b03918216600482015260001960248201529083169063095ea7b3906044016020604051808303816000875af11580156116eb573d6000803e3d6000fd5b505050506040513d601f19601f8201168201806040525081019061170f91906153b5565b5060015460405163095ea7b360e01b81526001600160a01b03918216600482015260001960248201529082169063095ea7b3906044016020604051808303816000875af1158015611764573d6000803e3d6000fd5b505050506040513d601f19601f8201168201806040525081019061178891906153b5565b5060025460405163095ea7b360e01b81526001600160a01b03918216600482015260001960248201529083169063095ea7b3906044016020604051808303816000875af11580156117dd573d6000803e3d6000fd5b505050506040513d601f19601f8201168201806040525081019061180191906153b5565b5060025460405163095ea7b360e01b81526001600160a01b03918216600482015260001960248201529082169063095ea7b3906044016020604051808303816000875af1158015611856573d6000803e3d6000fd5b505050506040513d601f19601f8201168201806040525081019061187a91906153b5565b505050565b6007602090815260009182526040808320815160e08101835281546001600160a01b0381168252600160a01b900460ff1615158185015260018201548184015260028201546060820152600382015463ffffffff80821660808401526401000000009091041660a082015260048201805484518187028101870190955280855292959194869460c08701949093909184015b828210156119885760008481526020908190206040805160c081018252600586029092018054600281810b855263010000009091046001600160801b031684860152600180830154938501939093528101546060840152600381015460808401526004015460a08301529083529092019101611911565b50505091525050600582015460069092015490919083565b600080546001146119c35760405162461bcd60e51b81526004016106bd90614ac5565b6002600055600454600160b01b900460ff16156119f25760405162461bcd60e51b81526004016106bd90614ae9565b6119fa61388f565b600154604051639525092360e01b81526001600160a01b0390911690639525092390611a2a908790600401614924565b6101c060405180830381865afa158015611a48573d6000803e3d6000fd5b505050506040513d601f19601f82011682018060405250810190611a6c9190614a16565b604084015260020b6020808401919091526001600160a01b03909116808352845191850151611a9b9290612a49565b60608201819052815184516020860151611aba93889390929091612c99565b611ad7576040516303144f8160e21b815260040160405180910390fd5b80600001516001600160a01b0316633850c7bd6040518163ffffffff1660e01b815260040160e060405180830381865afa158015611b19573d6000803e3d6000fd5b505050506040513d601f19601f82011682018060405250810190611b3d9190614e5e565b50505050600291820b60a085018190526001600160a01b039093166080850152506060850151900b1380611b7e57508060a0015160020b836080015160020b125b15611b9c57604051631e6012f360e21b815260040160405180910390fd5b60608101515160c0015160208085015160a08401519184015160405163374b7d3d60e11b815260009473__$d23a8dd93b7205fa6b646ffed38c165d68$__94636e96fa7a94611bf29492939092906004016153d2565b602060405180830381865af4158015611c0f573d6000803e3d6000fd5b505050506040513d601f19601f82011682018060405250810190611c339190614f25565b905080600103611ce057606082015160208082015160408088015192880151935160c0015160025460015492516325d3777560e01b815273__$506f8190e26c635088963c8a0018e71746$__966325d3777596611cab968e9690959194929391926001600160a01b0390811692911690600401615405565b60006040518083038186803b158015611cc357600080fd5b505af4158015611cd7573d6000803e3d6000fd5b50505050611e28565b80600203611d45576060820151805160c001516020918201519186015160015460405163ad6c502560e01b815273__$506f8190e26c635088963c8a0018e71746$__9463ad6c502594611cab948c94919390916001600160a01b031690600401615463565b73__$506f8190e26c635088963c8a0018e71746$__6382e824478684606001516000015160c00151856060015160200151886020015187602001518860a0015189608001518c60400151600260009054906101000a90046001600160a01b0316600160009054906101000a90046001600160a01b0316600360009054906101000a90046001600160a01b03166040518c63ffffffff1660e01b8152600401611df79b9a999897969594939291906154a9565b60006040518083038186803b158015611e0f57600080fd5b505af4158015611e23573d6000803e3d6000fd5b505050505b611eb260405180610100016040528087803603810190611e489190614a60565b815260200184606001516000015160c00151815260200184600001516001600160a01b0316815260200186600001516001600160a01b0316815260200186602001511515815260200184604001518152602001846020015160020b815260200160008152506133e6565b925060076000611ecf8460000151876000015188602001516130eb565b81526020810191909152604001600090812080546001600160a81b0319168155600181018290556002810182905560038101805467ffffffffffffffff19169055908181611f20600483018261386b565b505060058201600090556006820160009055505083600001516001600160a01b03168460200151151583600001516001600160a01b03167f93eab6e8520a1442c72b300820e9791d361ae2fb3975f78306dd8c0f2a7e4d35856060015160200151886040015186604051611fa7939291909283526020830191909152604082015260600190565b60405180910390a45050600160005592915050565b6060600060076000611fcf8787876130eb565b81526020808201929092526040908101600090812082516101408101845281546001600160a01b03811660608301908152600160a01b90910460ff1615156080830152600183015460a0830152600283015460c0830152600383015463ffffffff80821660e08501526401000000009091041661010083015260048301805486518189028101890190975280875292969395879592948794610120880194929392909184015b828210156120ec5760008481526020908190206040805160c081018252600586029092018054600281810b855263010000009091046001600160801b031684860152600180830154938501939093528101546060840152600381015460808401526004015460a08301529083529092019101612075565b505050915250508152600582015460208201526006909101546040909101525160c001519150505b9392505050565b6003546001600160a01b031633146121455760405162461bcd60e51b81526004016106bd90614aa5565b60048054911515600160a81b0260ff60a81b19909216919091179055565b61216b6138cf565b6000806000546001146121905760405162461bcd60e51b81526004016106bd90614ac5565b6002600055600454600160a01b900460ff16156121bf5760405162461bcd60e51b81526004016106bd90614ae9565b6121c7613926565b600154604051639525092360e01b81526001600160a01b03909116906395250923906121f7908a90600401614924565b6101c060405180830381865afa158015612215573d6000803e3d6000fd5b505050506040513d601f19601f820116820180604052508101906122399190614a16565b604084015260020b60208301526001600160a01b031680825260c08701516080880151600092600792849261226f9291906130eb565b81526020019081526020016000209050600673__$506f8190e26c635088963c8a0018e71746$__63d5d54e8a90916122b685600001518b60c001518c608001516001612d52565b8a6040518463ffffffff1660e01b81526004016122d5939291906155d8565b600060405180830381865af41580156122f2573d6000803e3d6000fd5b505050506040513d6000823e601f3d908101601f1916820160405261231a9190810190615705565b60608401919091526080810151909750612362906123445761233f60208a018a613ac6565b612354565b61235460408a0160208b01613ac6565b60c08901518951309061348f565b600154600354604051632da526f160e01b815273__$506f8190e26c635088963c8a0018e71746$__92632da526f1926123b3928d928d928d926001600160a01b03928316929091169060040161574b565b600060405180830381865af41580156123d0573d6000803e3d6000fd5b505050506040513d6000823e601f3d908101601f191682016040526123f891908101906157a3565b60808601929092528451600154602087015160408089015151905163cf2778e960e01b8152949d50949b5094975073__$eacbb88ed4bd2af84aa4d43bcf675bcf7e$__9463cf2778e99461245d946001600160a01b03909316928d9190600401615819565b600060405180830381865af415801561247a573d6000803e3d6000fd5b505050506040513d6000823e601f3d908101601f191682016040526124a29190810190614ddc565b608088015160208401516040516341533fe760e01b815292985073__$d23a8dd93b7205fa6b646ffed38c165d68$__926341533fe7926124e6928b92600401615895565b602060405180830381865af4158015612503573d6000803e3d6000fd5b505050506040513d601f19601f820116820180604052508101906125279190614f25565b60e083015261254e61253e368a90038a018a614a60565b8860800151846080015189613382565b6004810154156127005760606126796040518061010001604052808b80360381019061257a9190614a60565b815260200184600001600401805480602002602001604051908101604052809291908181526020016000905b8282101561261d5760008481526020908190206040805160c081018252600586029092018054600281810b855263010000009091046001600160801b031684860152600180830154938501939093528101546060840152600381015460808401526004015460a083015290835290920191016125a6565b50505050815260200185600001516001600160a01b031681526020018a60c001516001600160a01b031681526020018a608001511515815260200185604001518152602001856020015160020b8152602001600081525061329d565b604051630b7cb7c160e01b8152919650915073__$d23a8dd93b7205fa6b646ffed38c165d68$__90630b7cb7c1906126b7908a9085906004016158c2565b600060405180830381865af41580156126d4573d6000803e3d6000fd5b505050506040513d6000823e601f3d908101601f191682016040526126fc9190810190614ddc565b9650505b73__$506f8190e26c635088963c8a0018e71746$__6386c6f9bb888a8560e001518660200151600260009054906101000a90046001600160a01b0316886000015189606001516040518863ffffffff1660e01b815260040161276897969594939291906158e7565b6040805180830381865af4158015612784573d6000803e3d6000fd5b505050506040513d601f19601f820116820180604052508101906127a89190615942565b60c084015260a083015260e0820151608088015173__$506f8190e26c635088963c8a0018e71746$__916341a95ff89184918b918b91906127f6578760c001516127f190615966565b612804565b8760a0015161280490615966565b6040518663ffffffff1660e01b8152600401612824959493929190615982565b60006040518083038186803b15801561283c57600080fd5b505af4158015612850573d6000803e3d6000fd5b5050604080516101408101825284546001600160a01b03811660608301908152600160a01b90910460ff1615156080830152600186015460a0830152600286015460c0830152600386015463ffffffff80821660e085015264010000000090910416610100830152600486018054845160208083028201810190965281815293965087955086949293869361012087019391929060009084015b828210156129615760008481526020908190206040805160c081018252600586029092018054600281810b855263010000009091046001600160801b031684860152600180830154938501939093528101546060840152600381015460808401526004015460a083015290835290920191016128ea565b505050508152505081526020016005820154815260200160068201548152505094508660c001516001600160a01b03168760800151151583600001516001600160a01b03167f9162a397ba17d1e4988a59388b9744cf4bc003cf58486fda9f8c7c91a7af3fca338b608001516129e4578660c001516129df90615966565b6129f2565b8660a001516129f290615966565b8c516060808f0151604080516001600160a01b0390961686526020860194909452928401919091528201526080810189905260a0810188905260c00160405180910390a45050600160008190555093509350939050565b612a516138cf565b60076000612a608686866130eb565b81526020808201929092526040908101600090812082516101408101845281546001600160a01b03811660608301908152600160a01b90910460ff1615156080830152600183015460a0830152600283015460c0830152600383015463ffffffff80821660e08501526401000000009091041661010083015260048301805486518189028101890190975280875292969395879592948794610120880194929392909184015b82821015612b7d5760008481526020908190206040805160c081018252600586029092018054600281810b855263010000009091046001600160801b031684860152600180830154938501939093528101546060840152600381015460808401526004015460a08301529083529092019101612b06565b50505091525050815260058201546020820152600690910154604090910152949350505050565b6060816001600160401b03811115612bbe57612bbe613bd2565b604051908082528060200260200182016040528015612bf157816020015b6060815260200190600190039081612bdc5790505b50905060005b82811015612c9157612c6130858584818110612c1557612c156159c2565b9050602002810190612c2791906159d8565b8080601f01602080910402602001604051908101604052809392919081815260200183838082843760009201919091525061351992505050565b828281518110612c7357612c736159c2565b60200260200101819052508080612c8990615a25565b915050612bf7565b505b92915050565b60015460009073__$506f8190e26c635088963c8a0018e71746$__9063920f2f40908790899086906001600160a01b0316600587612cd88c8c866130eb565b8152602001908152602001600020546040518663ffffffff1660e01b8152600401612d07959493929190615a3e565b602060405180830381865af4158015612d24573d6000803e3d6000fd5b505050506040513d601f19601f82011682018060405250810190612d4891906153b5565b9695505050505050565b6040516bffffffffffffffffffffffff19606086811b8216602084015285901b16603482015282151560f890811b6048830152821515901b6049820152600090604a01604051602081830303815290604052805190602001209050949350505050565b6003546001600160a01b03163314612ddf5760405162461bcd60e51b81526004016106bd90614aa5565b60048054911515600160b01b0260ff60b01b19909216919091179055565b600060076000612e0e8686866130eb565b815260208101919091526040016000206003015463ffffffff16949350505050565b600154604051633518d43560e21b815273__$eacbb88ed4bd2af84aa4d43bcf675bcf7e$__9163d46350d491612e7f916005916001600160a01b03909116908990899089908990600401615b10565b60006040518083038186803b158015612e9757600080fd5b505af4158015612eab573d6000803e3d6000fd5b5050505050505050565b60008054600114612ed85760405162461bcd60e51b81526004016106bd90614ac5565b60026000908155600154604051639525092360e01b8152829182916001600160a01b0390911690639525092390612f13908a90600401614924565b6101c060405180830381865afa158015612f31573d6000803e3d6000fd5b505050506040513d601f19601f82011682018060405250810190612f559190614a16565b925092509250612f668333886130bd565b612f7657600093505050506130b1565b6000612f83843389611fbc565b9050612fef6040518061010001604052808a803603810190612fa59190614a60565b8152602001838152602001866001600160a01b03168152602001336001600160a01b0316815260200189151581526020018481526020018560020b8152602001600081525061329d565b90955090506130008433898461353e565b6130328761301a5761301560208a018a613ac6565b61302a565b61302a60408a0160208b01613ac6565b33308961348f565b856005600061304287338c6130eb565b8152602001908152602001600020600082825461305f9190615b54565b9091555050604080518815158152602081018890526001600160a01b0386169133917f3b362679889b553ed2e7ee099bd77d266648894e6562144e3791e108b0a2596e910160405180910390a3505050505b60016000559392505050565b600080600760006130cf8787876130eb565b8152602001908152602001600020600501541190509392505050565b6040516bffffffffffffffffffffffff19606085811b8216602084015284901b16603482015281151560f81b60488201526000906049016040516020818303038152906040528051906020012090509392505050565b600060405163a9059cbb60e01b8152836004820152826024820152602060006044836000895af13d15601f3d11600160005114161716915050806131b95760405162461bcd60e51b815260206004820152600f60248201526e1514905394d1915497d19052531151608a1b60448201526064016106bd565b50505050565b60008080600019858709858702925082811083820303915050806000036131f857600084116131ed57600080fd5b508290049050612114565b8084116132305760405162461bcd60e51b815260206004820152600660248201526536bab62234bb60d11b60448201526064016106bd565b6000848688096000868103871696879004966002600389028118808a02820302808a02820302808a02820302808a02820302808a02820302808a02909103029181900381900460010186841190950394909402919094039290920491909117919091029150509392505050565b600060606000600573__$eacbb88ed4bd2af84aa4d43bcf675bcf7e$__6313c1af439091866132d9886040015189606001518a60800151612dfd565b6001546002546040516001600160e01b031960e088901b168152613310959493926001600160a01b03908116921690600401615bfd565b600060405180830381865af415801561332d573d6000803e3d6000fd5b505050506040513d6000823e601f3d908101601f191682016040526133559190810190615c43565b602086015260408501516060860151608087015192935061337592613665565b6020909301519293915050565b60015460405163fc6e9cbf60e01b81526001600160a01b039091169063fc6e9cbf906133b8908790859088908890600401615c7f565b600060405180830381600087803b1580156133d257600080fd5b505af1158015612eab573d6000803e3d6000fd5b600080613400836040015184606001518560800151612dfd565b600154604051630bc847bd60e01b815291925073__$eacbb88ed4bd2af84aa4d43bcf675bcf7e$__91630bc847bd9161344e9160059188916001600160a01b03909116908790600401615cb2565b602060405180830381865af415801561346b573d6000803e3d6000fd5b505050506040513d601f19601f820116820180604052508101906121149190614f25565b60006040516323b872dd60e01b81528460048201528360248201528260448201526020600060648360008a5af13d15601f3d11600160005114161716915050806135125760405162461bcd60e51b81526020600482015260146024820152731514905394d1915497d19493d357d1905253115160621b60448201526064016106bd565b5050505050565b60606121148383604051806060016040528060278152602001615d22602791396136a5565b60006007600061354f8787876130eb565b81526020019081526020016000209050806000016004016000613572919061386b565b60005b825181101561365d576000838281518110613592576135926159c2565b6020026020010151602001516001600160801b0316111561364b57816000016004018382815181106135c6576135c66159c2565b60209081029190910181015182546001818101855560009485529383902082516005909202018054938301516001600160801b03166301000000026001600160981b031990941662ffffff90921691909117929092178255604081015192820192909255606082015160028201556080820151600382015560a0909101516004909101555b8061365581615a25565b915050613575565b505050505050565b42600760006136758686866130eb565b81526020810191909152604001600020600301805463ffffffff191663ffffffff92909216919091179055505050565b6060600080856001600160a01b0316856040516136c29190615cf2565b600060405180830381855af49150503d80600081146136fd576040519150601f19603f3d011682016040523d82523d6000602084013e613702565b606091505b5091509150612d48868383876060831561377d578251600003613776576001600160a01b0385163b6137765760405162461bcd60e51b815260206004820152601d60248201527f416464726573733a2063616c6c20746f206e6f6e2d636f6e747261637400000060448201526064016106bd565b50816107ad565b6107ad83838151156137925781518083602001fd5b8060405162461bcd60e51b81526004016106bd9190615d0e565b60405180610100016040528060008152602001600081526020016000815260200160008152602001600081526020016000815260200160008152602001600081525090565b604080516101c081018252600080825260208201819052918101829052606081018290526080810182905260a0810182905260c0810182905260e08101829052610100810182905261012081018290526101408101919091526101608101613857613979565b815260606020820152600060409091015290565b508054600082556005029060005260206000209081019061388c91906139f1565b50565b6040805160c081018252600080825260208201529081016138ae613979565b81526020016138bb6138cf565b815260006020820181905260409091015290565b604080516101408101909152600060608083018281526080840183905260a0840183905260c0840183905260e084018390526101008401929092526101208301528190815260200160008152602001600081525090565b604080516101208101825260008082526020820152908101613946613979565b81526020016000815260200160008152602001600081526020016000815260200160008152602001600080191681525090565b6040518060e001604052806139bd6040518060c001604052806000815260200160008152602001600081526020016000815260200160008152602001600081525090565b8152602001600081526020016000815260200160008152602001600061ffff16815260200160008152602001600081525090565b5b80821115613a2c5780546001600160981b0319168155600060018201819055600282018190556003820181905560048201556005016139f2565b5090565b600060608284031215613a4257600080fd5b50919050565b801515811461388c57600080fd5b8035613a6181613a48565b919050565b600080600060a08486031215613a7b57600080fd5b613a858585613a30565b92506060840135613a9581613a48565b929592945050506080919091013590565b6001600160a01b038116811461388c57600080fd5b8035613a6181613aa6565b600060208284031215613ad857600080fd5b813561211481613aa6565b600060208284031215613af557600080fd5b813561211481613a48565b60008060008060808587031215613b1657600080fd5b8435613b2181613aa6565b93506020850135613b3181613aa6565b92506040850135613b4181613a48565b9396929550929360600135925050565b60008060008060008060008060006101208a8c031215613b7057600080fd5b8935613b7b81613aa6565b985060208a0135613b8b81613a48565b975060408a0135613b9b81613a48565b989b979a5097986060810135985060808101359760a0820135975060c0820135965060e08201359550610100909101359350915050565b634e487b7160e01b600052604160045260246000fd5b60405161012081016001600160401b0381118282101715613c0b57613c0b613bd2565b60405290565b604051606081016001600160401b0381118282101715613c0b57613c0b613bd2565b60405160c081016001600160401b0381118282101715613c0b57613c0b613bd2565b60405161014081016001600160401b0381118282101715613c0b57613c0b613bd2565b60405160e081016001600160401b0381118282101715613c0b57613c0b613bd2565b6040516101c081016001600160401b0381118282101715613c0b57613c0b613bd2565b604051601f8201601f191681016001600160401b0381118282101715613ce557613ce5613bd2565b604052919050565b60006001600160401b03821115613d0657613d06613bd2565b50601f01601f191660200190565b600082601f830112613d2557600080fd5b8135613d38613d3382613ced565b613cbd565b818152846020838601011115613d4d57600080fd5b816020850160208301376000918101602001919091529392505050565b8060020b811461388c57600080fd5b8035613a6181613d6a565b60008060808385031215613d9757600080fd5b613da18484613a30565b915060608301356001600160401b0380821115613dbd57600080fd5b908401906101208287031215613dd257600080fd5b613dda613be8565b613de383613a56565b81526020830135602082015260408301356040820152613e0560608401613abb565b60608201526080830135608082015260a083013582811115613e2657600080fd5b613e3288828601613d14565b60a083015250613e4460c08401613d79565b60c0820152613e5560e08401613d79565b60e0820152610100915081830135828201528093505050509250929050565b805182526020810151602083015260408101516040830152606081015160608301526080810151608083015260a081015160a083015260c081015160c083015260e081015160e08301525050565b6101008101612c938284613e74565b600080600060608486031215613ee657600080fd5b8335613ef181613aa6565b92506020840135613f0181613a48565b91506040840135613f1181613a48565b809150509250925092565b803562ffffff81168114613a6157600080fd5b600060608284031215613f4157600080fd5b613f49613c11565b90508135613f5681613aa6565b81526020820135613f6681613aa6565b6020820152613f7760408301613f1c565b604082015292915050565b600080600060a08486031215613f9757600080fd5b613fa18585613f2f565b92506060840135613fb181613aa6565b91506080840135613f1181613a48565b60008060408385031215613fd457600080fd5b8235613fdf81613aa6565b91506020830135613fef81613aa6565b809150509250929050565b60006020828403121561400c57600080fd5b5035919050565b805160020b82526001600160801b03602082015116602083015260408101516040830152606081015160608301526080810151608083015260a081015160a08301525050565b600060e0830160018060a01b0383511684526020808401511515818601526040840151604086015260608401516060860152608084015163ffffffff80821660808801528060a08701511660a0880152505060c08085015160e082880152838151808652610100890191508483019550600092505b808310156140f5576140e1828751614013565b9484019460019290920191908301906140ce565b50979650505050505050565b6060815260006141146060830186614059565b60208301949094525060400152919050565b60008082840361010081121561413b57600080fd5b6141458585613a30565b925060a0605f198201121561415957600080fd5b5060405160a081018181106001600160401b038211171561417c5761417c613bd2565b604052606084013561418d81613aa6565b8152608084013561419d81613a48565b602082015260a0840135604082015260c08401356141ba81613d6a565b606082015260e08401356141cd81613d6a565b6080820152919491935090915050565b6000806000606084860312156141f257600080fd5b83356141fd81613aa6565b92506020840135613f0181613aa6565b600081518084526020808501945080840160005b8381101561424757614234878351614013565b60c0969096019590820190600101614221565b509495945050505050565b602081526000612114602083018461420d565b60006001600160401b0382111561427e5761427e613bd2565b5060051b60200190565b6001600160801b038116811461388c57600080fd5b600082601f8301126142ae57600080fd5b813560206142be613d3383614265565b82815260c092830285018201928282019190878511156142dd57600080fd5b8387015b858110156143545781818a0312156142f95760008081fd5b614301613c33565b813561430c81613d6a565b81528186013561431b81614288565b8187015260408281013590820152606080830135908201526080808301359082015260a0808301359082015284529284019281016142e1565b5090979650505050505050565b600080600060a0848603121561437657600080fd5b6143808585613a30565b925060608401356001600160401b038082111561439c57600080fd5b9085019061014082880312156143b157600080fd5b6143b9613c55565b823581526020830135602082015260408301356040820152606083013560608201526143e760808401613a56565b608082015260a083013560a082015261440260c08401613abb565b60c082015260e08301358281111561441957600080fd5b61442589828601613d14565b60e083015250610100614439818501613d79565b9082015261012061444b848201613d79565b908201529350608086013591508082111561446557600080fd5b506144728682870161429d565b9150509250925092565b60008151606084526144916060850182614059565b905060208301516020850152604083015160408501528091505092915050565b606081526000614114606083018661447c565b602081526000612114602083018461447c565b80516001600160a01b0390811683526020808301519091169083015260409081015162ffffff16910152565b6101608101614512828c6144d7565b981515606082015263ffffffff97881660808201529590961660a086015260c085019390935260e08401919091526101008301526101208201526101400152919050565b6000806020838503121561456957600080fd5b82356001600160401b038082111561458057600080fd5b818501915085601f83011261459457600080fd5b8135818111156145a357600080fd5b8660208260051b85010111156145b857600080fd5b60209290920196919550909350505050565b60005b838110156145e55781810151838201526020016145cd565b50506000910152565b600081518084526146068160208601602086016145ca565b601f01601f19169290920160200192915050565b6000602080830181845280855180835260408601915060408160051b870101925083870160005b8281101561466f57603f1988860301845261465d8583516145ee565b94509285019290850190600101614641565b5092979650505050505050565b803563ffffffff81168114613a6157600080fd5b6000606082840312156146a257600080fd5b6146aa613c11565b905081356001600160401b03808211156146c357600080fd5b9083019060e082860312156146d757600080fd5b6146df613c78565b6146e883613abb565b81526146f660208401613a56565b6020820152604083013560408201526060830135606082015261471b6080840161467c565b608082015261472c60a0840161467c565b60a082015260c08301358281111561474357600080fd5b61474f8782860161429d565b60c083015250808452505050602082013560208201526040820135604082015292915050565b600080600080600060e0868803121561478d57600080fd5b6147978787613a30565b945060608601356001600160401b038111156147b257600080fd5b6147be88828901614690565b94505060808601356147cf81613aa6565b925060a08601356147df81613aa6565b915060c08601356147ef81613a48565b809150509295509295909350565b6000806000806080858703121561481357600080fd5b843561481e81613aa6565b9350602085013561482e81613aa6565b9250604085013561483e81613a48565b9150606085013561484e81613a48565b939692955090935050565b60008060008060c0858703121561486f57600080fd5b6148798686613a30565b9350606085013561488981613aa6565b9250608085013561489981613a48565b9396929550929360a00135925050565b6000602082840312156148bb57600080fd5b81356001600160401b038111156148d157600080fd5b6107ad84828501614690565b80356148e881613aa6565b6001600160a01b03908116835260208201359061490482613aa6565b16602083015262ffffff61491a60408301613f1c565b1660408301525050565b60608101612c9382846148dd565b8051613a6181613aa6565b8051613a6181613d6a565b805161ffff81168114613a6157600080fd5b600081830361018081121561496e57600080fd5b614976613c78565b915060c081121561498657600080fd5b5061498f613c33565b825181526020830151602082015260408301516040820152606083015160608201526080830151608082015260a083015160a08201528082525060c0820151602082015260e0820151604082015261010082015160608201526149f56101208301614948565b608082015261014082015160a082015261016082015160c082015292915050565b60008060006101c08486031215614a2c57600080fd5b8351614a3781613aa6565b6020850151909350614a4881613d6a565b9150614a57856040860161495a565b90509250925092565b600060608284031215614a7257600080fd5b6121148383613f2f565b634e487b7160e01b600052601160045260246000fd5b81810381811115612c9357612c93614a7c565b60208082526006908201526510b7bbb732b960d11b604082015260600190565b6020808252600a90820152695245454e5452414e435960b01b604082015260600190565b6020808252600690820152651c185d5cd95960d21b604082015260600190565b600061012082511515845260208301516020850152604083015160408501526060830151614b4260608601826001600160a01b03169052565b506080830151608085015260a08301518160a0860152614b64828601826145ee565b91505060c0830151614b7b60c086018260020b9052565b5060e0830151614b9060e086018260020b9052565b50610100928301519390920192909252919050565b6000815480845260208085019450836000528060002060005b83811015614247578154600281810b895260189190911c6001600160801b03168489015260018084015460408a015290830154606089015260038301546080890152600483015460a089015260c09097019660059092019101614bbe565b848152608060208201526000614c356080830186614b09565b828103604084015260608152845460018060a01b0381166060830152614c656080830160ff8360a01c1615159052565b50600185015460a0820152600285015460c0820152600385015463ffffffff80821660e0840152602082901c8116610100840152505060e0610120820152614cb4610140820160048701614ba5565b60058601546020830152600690950154604090910152506060015292915050565b600080600060608486031215614cea57600080fd5b8351925060208401519150604084015190509250925092565b604081526000614d16604083018561420d565b90508260208301529392505050565b600082601f830112614d3657600080fd5b81516020614d46613d3383614265565b82815260c09283028501820192828201919087851115614d6557600080fd5b8387015b858110156143545781818a031215614d815760008081fd5b614d89613c33565b8151614d9481613d6a565b815281860151614da381614288565b8187015260408281015190820152606080830151908201526080808301519082015260a080830151908201528452928401928101614d69565b600060208284031215614dee57600080fd5b81516001600160401b03811115614e0457600080fd5b6107ad84828501614d25565b85815284602082015283604082015260a060608201526000614e3560a083018561420d565b8281036080840152614e47818561420d565b98975050505050505050565b8051613a6181613a48565b600080600080600080600060e0888a031215614e7957600080fd5b8751614e8481613aa6565b6020890151909750614e9581613d6a565b9550614ea360408901614948565b9450614eb160608901614948565b9350614ebf60808901614948565b925060a088015160ff81168114614ed557600080fd5b60c0890151909250614ee681613a48565b8091505092959891949750929550565b60008060408385031215614f0957600080fd5b8251614f1481613d6a565b6020840151909250613fef81613d6a565b600060208284031215614f3757600080fd5b5051919050565b614f7e828251805182526020810151602083015260408101516040830152606081015160608301526080810151608083015260a081015160a08301525050565b602081015160c0830152604081015160e0830152606081015161010083015261ffff60808201511661012083015260a081015161014083015260c08101516101608301525050565b60006101e0808352614fda8184018a614b09565b9050614fe96020840189613e74565b610120614ff8818501896148dd565b61018084830381860152610320615018848a516001600160a01b03169052565b602089015161502c602086018260020b9052565b5060408901516040850152606089015161505160608601826001600160a01b03169052565b506080890151615066608086018260020b9052565b5060a089015161507b60a086018260020b9052565b5060c089015161509060c086018260020b9052565b5060e08901516150ab60e08601826001600160a01b03169052565b50610100808a015181860152508289015183850152610140925082890151838501526101609250828901516150e284860182614f3e565b50818901519250806102e08501526150fc8185018461420d565b925050506101a080880151610300840152819350615124818601886001600160a01b03169052565b5050506001600160a01b0383166101c0830152979650505050505050565b600061010080838503121561515657600080fd5b604051908101906001600160401b038211818310171561517857615178613bd2565b81604052809250835181526020840151602082015260408401516040820152606084015160608201526080840151608082015260a084015160a082015260c084015160c082015260e084015160e0820152505092915050565b6000806101208084860312156151e657600080fd5b6151f08585615142565b9250610100808501516001600160401b038082111561520e57600080fd5b90860190610320828903121561522357600080fd5b61522b613c9a565b61523483614932565b81526152426020840161493d565b60208201526040830151604082015261525d60608401614932565b606082015261526e6080840161493d565b608082015261527f60a0840161493d565b60a082015261529060c0840161493d565b60c08201526152a160e08401614932565b60e0820152838301518482015284830151858201526101409450848301518582015261016094506152d48986850161495a565b858201526102e08301519450818511156152ed57600080fd5b6152f989868501614d25565b6101808201526103008301516101a082015280955050505050509250929050565b600061020080835261532e8184018b61420d565b90508281036020840152615342818a614b09565b9150506153526040830188613e74565b6153606101408301876148dd565b6101a08201949094526001600160a01b03929092166101c08301526101e090910152949350505050565b6000610100828403121561539d57600080fd5b6121148383615142565b60608101612c9382846144d7565b6000602082840312156153c757600080fd5b815161211481613a48565b6080815260006153e5608083018761420d565b941515602083015250600292830b6040820152910b606090910152919050565b6000610120615414838b6148dd565b88606084015287608084015286151560a08401528060c084015261543a8184018761420d565b6001600160a01b0395861660e08501529390941661010090920191909152509695505050505050565b61546d81876148dd565b60e06060820152600061548360e083018761420d565b60808301959095525091151560a08301526001600160a01b031660c09091015292915050565b60006101a06154b8838f6148dd565b8060608401526154ca8184018e61420d565b608084019c909c52505097151560a0890152600296870b60c08901529490950b60e08701526001600160a01b039283166101008701526101208601919091528116610140850152918216610160840152166101809091015292915050565b6000610140825184526020830151602085015260408301516040850152606083015160608501526080830151615562608086018215159052565b5060a083015160a085015260c083015161558760c08601826001600160a01b03169052565b5060e08301518160e086015261559f828601826145ee565b915050610100808401516155b78287018260020b9052565b5050610120808401516155ce8287018260020b9052565b5090949350505050565b8381528260208201526060604082015260006155f76060830184615528565b95945050505050565b600082601f83011261561157600080fd5b815161561f613d3382613ced565b81815284602083860101111561563457600080fd5b6107ad8260208301602087016145ca565b6000610140828403121561565857600080fd5b615660613c55565b90508151815260208201516020820152604082015160408201526060820151606082015261569060808301614e53565b608082015260a082015160a08201526156ab60c08301614932565b60c082015260e08201516001600160401b038111156156c957600080fd5b6156d584828501615600565b60e0830152506101006156e981840161493d565b908201526101206156fb83820161493d565b9082015292915050565b6000806040838503121561571857600080fd5b8251915060208301516001600160401b0381111561573557600080fd5b61574185828601615645565b9150509250929050565b61575581876148dd565b60e06060820152600061576b60e0830187615528565b828103608084015261577d818761420d565b6001600160a01b0395861660a08501529390941660c09092019190915250949350505050565b600080600080608085870312156157b957600080fd5b845193506020850151925060408501516001600160401b03808211156157de57600080fd5b6157ea88838901615645565b9350606087015191508082111561580057600080fd5b5061580d87828801614d25565b91505092959194509250565b6001600160a01b03868116825285166020820152600284900b6040820152610140606082018190526000906158508382018661420d565b915050612d486080830184805182526020810151602083015260408101516040830152606081015160608301526080810151608083015260a081015160a08301525050565b6060815260006158a8606083018661420d565b93151560208301525060029190910b604090910152919050565b6040815260006158d5604083018561420d565b82810360208401526155f7818561420d565b60006101208083526158fb8184018b615528565b91505061590b60208301896148dd565b608082019690965260029490940b60a08501526001600160a01b0392831660c0850152911660e08301526101009091015292915050565b6000806040838503121561595557600080fd5b505080516020909101519092909150565b6000600160ff1b820161597b5761597b614a7c565b5060000390565b85815260a06020820152600061599b60a0830187615528565b82810360408401526159ad818761420d565b60608401959095525050608001529392505050565b634e487b7160e01b600052603260045260246000fd5b6000808335601e198436030181126159ef57600080fd5b8301803591506001600160401b03821115615a0957600080fd5b602001915036819003821315615a1e57600080fd5b9250929050565b600060018201615a3757615a37614a7c565b5060010190565b60e0815260008651606060e084015260018060a01b0381511661014084015260208101511515610160840152604081015161018084015260608101516101a084015263ffffffff6080820151166101c084015260a0810151615aa96101e085018263ffffffff169052565b5060c0015160e0610200840152615ac461022084018261420d565b60208981015161010086015260408a0151610120860152909250615aeb91508301876148dd565b93151560808201526001600160a01b039290921660a083015260c09091015292915050565b8681526001600160a01b038681166020830152610100820190615b3660408401886148dd565b9490941660a082015291151560c083015260e0909101529392505050565b80820180821115612c9357612c93614a7c565b60006102a0615b778484516144d7565b6020830151816060860152615b8e8286018261420d565b915050604083015160018060a01b0380821660808701528060608601511660a087015250506080830151151560c085015260a0830151615bd160e0860182614f3e565b5060c0830151615be761026086018260020b9052565b5060e08301516102808501528091505092915050565b85815260a060208201526000615c1660a0830187615b67565b63ffffffff959095166040830152506001600160a01b039283166060820152911660809091015292915050565b60008060408385031215615c5657600080fd5b8251915060208301516001600160401b03811115615c7357600080fd5b61574185828601614d25565b615c8981866144d7565b60c060608201526000615c9f60c083018661420d565b93151560808301525060a0015292915050565b848152608060208201526000615ccb6080830186615b67565b6001600160a01b039490941660408301525063ffffffff9190911660609091015292915050565b60008251615d048184602087016145ca565b9190910192915050565b60208152600061211460208301846145ee56fe416464726573733a206c6f772d6c6576656c2064656c65676174652063616c6c206661696c6564a26469706673582212201dc1bccac5ef8f451544b36d217b23b092c746beedf31170f180556ca735281c64736f6c63430008150033",
    "linkReferences": {
      "src/MarginPositionHelper.sol": {
        "MarginPositionHelper": [
          {
            "start": 2450,
            "length": 20
          },
          {
            "start": 3025,
            "length": 20
          },
          {
            "start": 3989,
            "length": 20
          },
          {
            "start": 4748,
            "length": 20
          },
          {
            "start": 5026,
            "length": 20
          },
          {
            "start": 5221,
            "length": 20
          },
          {
            "start": 7532,
            "length": 20
          },
          {
            "start": 7695,
            "length": 20
          },
          {
            "start": 7751,
            "length": 20
          },
          {
            "start": 9091,
            "length": 20
          },
          {
            "start": 9335,
            "length": 20
          },
          {
            "start": 10242,
            "length": 20
          },
          {
            "start": 10430,
            "length": 20
          },
          {
            "start": 11681,
            "length": 20
          }
        ]
      },
      "src/PremiumComputer.sol": {
        "PremiumComputer": [
          {
            "start": 9512,
            "length": 20
          },
          {
            "start": 12098,
            "length": 20
          },
          {
            "start": 13223,
            "length": 20
          },
          {
            "start": 13589,
            "length": 20
          }
        ]
      },
      "src/Util.sol": {
        "Utils": [
          {
            "start": 3653,
            "length": 20
          },
          {
            "start": 4428,
            "length": 20
          },
          {
            "start": 4623,
            "length": 20
          },
          {
            "start": 7367,
            "length": 20
          },
          {
            "start": 9662,
            "length": 20
          },
          {
            "start": 10125,
            "length": 20
          }
        ]
      }
    }
  },
  "methodIdentifiers": {
    "PremiumDeposit(bytes32)": "5d4936ff",
    "addPosition((address,address,uint24),(uint256,uint256,uint256,uint256,bool,uint256,address,bytes,int24,int24),(int24,uint128,uint256,uint256,uint256,uint256)[])": "8be8efa2",
    "approveTokens(address,address)": "3eb4adab",
    "canForceClose(((address,bool,uint256,uint256,uint32,uint32,(int24,uint128,uint256,uint256,uint256,uint256)[]),uint256,uint256))": "ff9912cd",
    "canForceClose((address,address,uint24),((address,bool,uint256,uint256,uint32,uint32,(int24,uint128,uint256,uint256,uint256,uint256)[]),uint256,uint256),address,address,bool)": "b8541526",
    "cancelOrder(address,bool,bool)": "28ec7232",
    "checkPositionExists(address,address,bool)": "f2edf95a",
    "checkPremiumCondition(address,address,bool,uint256)": "20a672a2",
    "depositPremium((address,address,uint24),address,bool,uint256)": "dbe5f6cb",
    "executioner()": "dc6ab02f",
    "forceClose((address,address,uint24),(address,bool,uint256,int24,int24))": "5277a324",
    "getBorrowInfo(address,address,bool)": "657b5a4b",
    "getLastRepayTime(address,address,bool)": "d93a9047",
    "getOrderId(address,address,bool,bool)": "bfd4c2a5",
    "getPosition(address,address,bool)": "8c1395f8",
    "getPositionId(address,address,bool)": "f6f0ea89",
    "maxWithdrawablePremium((address,address,uint24),address,bool)": "2be197cf",
    "multicall(bytes[])": "ac9650d8",
    "orders(bytes32)": "9c3f1e90",
    "payPremium((address,address,uint24),bool,uint256)": "de074f10",
    "positions(bytes32)": "514ea4bf",
    "reducePosition((address,address,uint24),(bool,uint256,uint256,address,uint256,bytes,int24,int24,uint256))": "27bd6f83",
    "setAddPaused(bool)": "1fda89ef",
    "setForceClosePaused(bool)": "d42a397c",
    "setOwner(address)": "13af4035",
    "setReducePaused(bool)": "89a1c073",
    "submitOrder(address,bool,bool,uint256,uint256,uint256,uint256,uint256,uint256)": "228e062a",
    "withdrawPremium((address,address,uint24),bool,uint256)": "025df9e4"
  },
  "id": 42
}