{
  "abi": [
    {
      "inputs": [],
      "name": "addReduceInvalidTick",
      "type": "error"
    },
    {
      "inputs": [],
      "name": "cantForceClose",
      "type": "error"
    },
    {
      "anonymous": false,
      "inputs": [
        {
          "indexed": true,
          "internalType": "address",
          "name": "pool",
          "type": "address"
        },
        {
          "indexed": true,
          "internalType": "bool",
          "name": "positionIsToken0",
          "type": "bool"
        },
        {
          "indexed": true,
          "internalType": "address",
          "name": "trader",
          "type": "address"
        },
        {
          "indexed": false,
          "internalType": "uint256",
          "name": "forcedClosedAmount",
          "type": "uint256"
        },
        {
          "indexed": false,
          "internalType": "uint256",
          "name": "fillerPayAmount",
          "type": "uint256"
        },
        {
          "indexed": false,
          "internalType": "uint256",
          "name": "rangeCondition",
          "type": "uint256"
        }
      ],
      "name": "ForceClosed",
      "type": "event"
    },
    {
      "anonymous": false,
      "inputs": [
        {
          "indexed": false,
          "internalType": "uint8",
          "name": "version",
          "type": "uint8"
        }
      ],
      "name": "Initialized",
      "type": "event"
    },
    {
      "anonymous": false,
      "inputs": [
        {
          "indexed": true,
          "internalType": "address",
          "name": "pool",
          "type": "address"
        },
        {
          "indexed": true,
          "internalType": "bool",
          "name": "positionIsToken0",
          "type": "bool"
        },
        {
          "indexed": true,
          "internalType": "address",
          "name": "trader",
          "type": "address"
        },
        {
          "indexed": false,
          "internalType": "address",
          "name": "filler",
          "type": "address"
        },
        {
          "indexed": false,
          "internalType": "uint256",
          "name": "addedAmount",
          "type": "uint256"
        },
        {
          "indexed": false,
          "internalType": "uint256",
          "name": "marginAmount",
          "type": "uint256"
        },
        {
          "indexed": false,
          "internalType": "uint256",
          "name": "borrowAmount",
          "type": "uint256"
        },
        {
          "indexed": false,
          "internalType": "uint256",
          "name": "premiumPaid",
          "type": "uint256"
        },
        {
          "indexed": false,
          "internalType": "uint256",
          "name": "feePaid",
          "type": "uint256"
        }
      ],
      "name": "MarginPositionIncreased",
      "type": "event"
    },
    {
      "anonymous": false,
      "inputs": [
        {
          "indexed": true,
          "internalType": "address",
          "name": "pool",
          "type": "address"
        },
        {
          "indexed": true,
          "internalType": "bool",
          "name": "positionIsToken0",
          "type": "bool"
        },
        {
          "indexed": true,
          "internalType": "address",
          "name": "trader",
          "type": "address"
        },
        {
          "indexed": false,
          "internalType": "address",
          "name": "filler",
          "type": "address"
        },
        {
          "indexed": false,
          "internalType": "uint256",
          "name": "reduceAmount",
          "type": "uint256"
        },
        {
          "indexed": false,
          "internalType": "uint256",
          "name": "premiumPaid",
          "type": "uint256"
        },
        {
          "indexed": false,
          "internalType": "uint256",
          "name": "feePaid",
          "type": "uint256"
        }
      ],
      "name": "MarginPositionReduced",
      "type": "event"
    },
    {
      "anonymous": false,
      "inputs": [
        {
          "indexed": true,
          "internalType": "address",
          "name": "pool",
          "type": "address"
        },
        {
          "indexed": true,
          "internalType": "bool",
          "name": "positionIsToken0",
          "type": "bool"
        },
        {
          "indexed": true,
          "internalType": "address",
          "name": "trader",
          "type": "address"
        },
        {
          "indexed": false,
          "internalType": "bool",
          "name": "isAdd",
          "type": "bool"
        },
        {
          "indexed": false,
          "internalType": "uint256",
          "name": "deadline",
          "type": "uint256"
        },
        {
          "indexed": false,
          "internalType": "uint256",
          "name": "startOutput",
          "type": "uint256"
        },
        {
          "indexed": false,
          "internalType": "uint256",
          "name": "minOutput",
          "type": "uint256"
        },
        {
          "indexed": false,
          "internalType": "uint256",
          "name": "inputAmount",
          "type": "uint256"
        },
        {
          "indexed": false,
          "internalType": "uint256",
          "name": "decayRate",
          "type": "uint256"
        },
        {
          "indexed": false,
          "internalType": "uint256",
          "name": "margin",
          "type": "uint256"
        }
      ],
      "name": "OrderAdded",
      "type": "event"
    },
    {
      "anonymous": false,
      "inputs": [
        {
          "indexed": true,
          "internalType": "address",
          "name": "pool",
          "type": "address"
        },
        {
          "indexed": true,
          "internalType": "bool",
          "name": "positionIsToken0",
          "type": "bool"
        },
        {
          "indexed": true,
          "internalType": "address",
          "name": "trader",
          "type": "address"
        },
        {
          "indexed": false,
          "internalType": "bool",
          "name": "isAdd",
          "type": "bool"
        }
      ],
      "name": "OrderCanceled",
      "type": "event"
    },
    {
      "anonymous": false,
      "inputs": [
        {
          "indexed": true,
          "internalType": "address",
          "name": "payer",
          "type": "address"
        },
        {
          "indexed": true,
          "internalType": "address",
          "name": "pool",
          "type": "address"
        },
        {
          "indexed": false,
          "internalType": "bool",
          "name": "isToken1",
          "type": "bool"
        },
        {
          "indexed": false,
          "internalType": "uint256",
          "name": "amount",
          "type": "uint256"
        }
      ],
      "name": "PremiumDeposited",
      "type": "event"
    },
    {
      "anonymous": false,
      "inputs": [
        {
          "indexed": true,
          "internalType": "address",
          "name": "withdrawer",
          "type": "address"
        },
        {
          "indexed": true,
          "internalType": "address",
          "name": "pool",
          "type": "address"
        },
        {
          "indexed": false,
          "internalType": "bool",
          "name": "isToken1",
          "type": "bool"
        },
        {
          "indexed": false,
          "internalType": "uint256",
          "name": "amount",
          "type": "uint256"
        }
      ],
      "name": "PremiumWithdrawn",
      "type": "event"
    },
    {
      "inputs": [
        {
          "internalType": "PositionId",
          "name": "",
          "type": "bytes32"
        }
      ],
      "name": "PremiumDeposit",
      "outputs": [
        {
          "internalType": "uint256",
          "name": "",
          "type": "uint256"
        }
      ],
      "stateMutability": "view",
      "type": "function"
    },
    {
      "inputs": [
        {
          "internalType": "address",
          "name": "pm",
          "type": "address"
        },
        {
          "internalType": "address",
          "name": "ex",
          "type": "address"
        }
      ],
      "name": "_initialize",
      "outputs": [],
      "stateMutability": "nonpayable",
      "type": "function"
    },
    {
      "inputs": [
        {
          "components": [
            {
              "internalType": "address",
              "name": "token0",
              "type": "address"
            },
            {
              "internalType": "address",
              "name": "token1",
              "type": "address"
            },
            {
              "internalType": "uint24",
              "name": "fee",
              "type": "uint24"
            }
          ],
          "internalType": "struct PoolKey",
          "name": "key",
          "type": "tuple"
        },
        {
          "components": [
            {
              "internalType": "uint256",
              "name": "margin",
              "type": "uint256"
            },
            {
              "internalType": "uint256",
              "name": "minOutput",
              "type": "uint256"
            },
            {
              "internalType": "uint256",
              "name": "simulatedOutput",
              "type": "uint256"
            },
            {
              "internalType": "uint256",
              "name": "borrowAmount",
              "type": "uint256"
            },
            {
              "internalType": "bool",
              "name": "positionIsToken0",
              "type": "bool"
            },
            {
              "internalType": "uint256",
              "name": "executionOption",
              "type": "uint256"
            },
            {
              "internalType": "address",
              "name": "trader",
              "type": "address"
            },
            {
              "internalType": "bytes",
              "name": "executionData",
              "type": "bytes"
            },
            {
              "internalType": "int24",
              "name": "slippedTickMin",
              "type": "int24"
            },
            {
              "internalType": "int24",
              "name": "slippedTickMax",
              "type": "int24"
            }
          ],
          "internalType": "struct AddParams",
          "name": "param",
          "type": "tuple"
        },
        {
          "components": [
            {
              "internalType": "int24",
              "name": "tick",
              "type": "int24"
            },
            {
              "internalType": "uint128",
              "name": "liquidity",
              "type": "uint128"
            },
            {
              "internalType": "uint256",
              "name": "premium",
              "type": "uint256"
            },
            {
              "internalType": "uint256",
              "name": "feeGrowthInside0LastX128",
              "type": "uint256"
            },
            {
              "internalType": "uint256",
              "name": "feeGrowthInside1LastX128",
              "type": "uint256"
            },
            {
              "internalType": "uint256",
              "name": "lastGrowth",
              "type": "uint256"
            }
          ],
          "internalType": "struct LiquidityLoan[]",
          "name": "borrowInfo",
          "type": "tuple[]"
        }
      ],
      "name": "addPosition",
      "outputs": [
        {
          "components": [
            {
              "components": [
                {
                  "internalType": "address",
                  "name": "pool",
                  "type": "address"
                },
                {
                  "internalType": "bool",
                  "name": "isToken0",
                  "type": "bool"
                },
                {
                  "internalType": "uint256",
                  "name": "totalDebtOutput",
                  "type": "uint256"
                },
                {
                  "internalType": "uint256",
                  "name": "totalDebtInput",
                  "type": "uint256"
                },
                {
                  "internalType": "uint32",
                  "name": "lastPremiumPaymentTime",
                  "type": "uint32"
                },
                {
                  "internalType": "uint32",
                  "name": "openTime",
                  "type": "uint32"
                },
                {
                  "components": [
                    {
                      "internalType": "int24",
                      "name": "tick",
                      "type": "int24"
                    },
                    {
                      "internalType": "uint128",
                      "name": "liquidity",
                      "type": "uint128"
                    },
                    {
                      "internalType": "uint256",
                      "name": "premium",
                      "type": "uint256"
                    },
                    {
                      "internalType": "uint256",
                      "name": "feeGrowthInside0LastX128",
                      "type": "uint256"
                    },
                    {
                      "internalType": "uint256",
                      "name": "feeGrowthInside1LastX128",
                      "type": "uint256"
                    },
                    {
                      "internalType": "uint256",
                      "name": "lastGrowth",
                      "type": "uint256"
                    }
                  ],
                  "internalType": "struct LiquidityLoan[]",
                  "name": "borrowInfo",
                  "type": "tuple[]"
                }
              ],
              "internalType": "struct Position",
              "name": "base",
              "type": "tuple"
            },
            {
              "internalType": "uint256",
              "name": "totalPosition",
              "type": "uint256"
            },
            {
              "internalType": "uint256",
              "name": "margin",
              "type": "uint256"
            }
          ],
          "internalType": "struct MarginPosition",
          "name": "position",
          "type": "tuple"
        },
        {
          "internalType": "uint256",
          "name": "premiumOwed",
          "type": "uint256"
        },
        {
          "internalType": "uint256",
          "name": "fee",
          "type": "uint256"
        }
      ],
      "stateMutability": "nonpayable",
      "type": "function"
    },
    {
      "inputs": [
        {
          "internalType": "address",
          "name": "token0",
          "type": "address"
        },
        {
          "internalType": "address",
          "name": "token1",
          "type": "address"
        }
      ],
      "name": "approveTokens",
      "outputs": [],
      "stateMutability": "nonpayable",
      "type": "function"
    },
    {
      "inputs": [
        {
          "components": [
            {
              "internalType": "address",
              "name": "token0",
              "type": "address"
            },
            {
              "internalType": "address",
              "name": "token1",
              "type": "address"
            },
            {
              "internalType": "uint24",
              "name": "fee",
              "type": "uint24"
            }
          ],
          "internalType": "struct PoolKey",
          "name": "key",
          "type": "tuple"
        },
        {
          "components": [
            {
              "components": [
                {
                  "internalType": "address",
                  "name": "pool",
                  "type": "address"
                },
                {
                  "internalType": "bool",
                  "name": "isToken0",
                  "type": "bool"
                },
                {
                  "internalType": "uint256",
                  "name": "totalDebtOutput",
                  "type": "uint256"
                },
                {
                  "internalType": "uint256",
                  "name": "totalDebtInput",
                  "type": "uint256"
                },
                {
                  "internalType": "uint32",
                  "name": "lastPremiumPaymentTime",
                  "type": "uint32"
                },
                {
                  "internalType": "uint32",
                  "name": "openTime",
                  "type": "uint32"
                },
                {
                  "components": [
                    {
                      "internalType": "int24",
                      "name": "tick",
                      "type": "int24"
                    },
                    {
                      "internalType": "uint128",
                      "name": "liquidity",
                      "type": "uint128"
                    },
                    {
                      "internalType": "uint256",
                      "name": "premium",
                      "type": "uint256"
                    },
                    {
                      "internalType": "uint256",
                      "name": "feeGrowthInside0LastX128",
                      "type": "uint256"
                    },
                    {
                      "internalType": "uint256",
                      "name": "feeGrowthInside1LastX128",
                      "type": "uint256"
                    },
                    {
                      "internalType": "uint256",
                      "name": "lastGrowth",
                      "type": "uint256"
                    }
                  ],
                  "internalType": "struct LiquidityLoan[]",
                  "name": "borrowInfo",
                  "type": "tuple[]"
                }
              ],
              "internalType": "struct Position",
              "name": "base",
              "type": "tuple"
            },
            {
              "internalType": "uint256",
              "name": "totalPosition",
              "type": "uint256"
            },
            {
              "internalType": "uint256",
              "name": "margin",
              "type": "uint256"
            }
          ],
          "internalType": "struct MarginPosition",
          "name": "position",
          "type": "tuple"
        },
        {
          "internalType": "address",
          "name": "pool",
          "type": "address"
        },
        {
          "internalType": "address",
          "name": "trader",
          "type": "address"
        },
        {
          "internalType": "bool",
          "name": "positionIsToken0",
          "type": "bool"
        }
      ],
      "name": "canForceClose",
      "outputs": [
        {
          "internalType": "bool",
          "name": "",
          "type": "bool"
        }
      ],
      "stateMutability": "view",
      "type": "function"
    },
    {
      "inputs": [
        {
          "components": [
            {
              "components": [
                {
                  "internalType": "address",
                  "name": "pool",
                  "type": "address"
                },
                {
                  "internalType": "bool",
                  "name": "isToken0",
                  "type": "bool"
                },
                {
                  "internalType": "uint256",
                  "name": "totalDebtOutput",
                  "type": "uint256"
                },
                {
                  "internalType": "uint256",
                  "name": "totalDebtInput",
                  "type": "uint256"
                },
                {
                  "internalType": "uint32",
                  "name": "lastPremiumPaymentTime",
                  "type": "uint32"
                },
                {
                  "internalType": "uint32",
                  "name": "openTime",
                  "type": "uint32"
                },
                {
                  "components": [
                    {
                      "internalType": "int24",
                      "name": "tick",
                      "type": "int24"
                    },
                    {
                      "internalType": "uint128",
                      "name": "liquidity",
                      "type": "uint128"
                    },
                    {
                      "internalType": "uint256",
                      "name": "premium",
                      "type": "uint256"
                    },
                    {
                      "internalType": "uint256",
                      "name": "feeGrowthInside0LastX128",
                      "type": "uint256"
                    },
                    {
                      "internalType": "uint256",
                      "name": "feeGrowthInside1LastX128",
                      "type": "uint256"
                    },
                    {
                      "internalType": "uint256",
                      "name": "lastGrowth",
                      "type": "uint256"
                    }
                  ],
                  "internalType": "struct LiquidityLoan[]",
                  "name": "borrowInfo",
                  "type": "tuple[]"
                }
              ],
              "internalType": "struct Position",
              "name": "base",
              "type": "tuple"
            },
            {
              "internalType": "uint256",
              "name": "totalPosition",
              "type": "uint256"
            },
            {
              "internalType": "uint256",
              "name": "margin",
              "type": "uint256"
            }
          ],
          "internalType": "struct MarginPosition",
          "name": "position",
          "type": "tuple"
        }
      ],
      "name": "canForceClose",
      "outputs": [
        {
          "internalType": "bool",
          "name": "",
          "type": "bool"
        }
      ],
      "stateMutability": "view",
      "type": "function"
    },
    {
      "inputs": [
        {
          "internalType": "address",
          "name": "pool",
          "type": "address"
        },
        {
          "internalType": "bool",
          "name": "positionIsToken0",
          "type": "bool"
        },
        {
          "internalType": "bool",
          "name": "isAdd",
          "type": "bool"
        }
      ],
      "name": "cancelOrder",
      "outputs": [],
      "stateMutability": "nonpayable",
      "type": "function"
    },
    {
      "inputs": [
        {
          "internalType": "address",
          "name": "pool",
          "type": "address"
        },
        {
          "internalType": "address",
          "name": "borrower",
          "type": "address"
        },
        {
          "internalType": "bool",
          "name": "borrowedToken1",
          "type": "bool"
        }
      ],
      "name": "checkPositionExists",
      "outputs": [
        {
          "internalType": "bool",
          "name": "",
          "type": "bool"
        }
      ],
      "stateMutability": "view",
      "type": "function"
    },
    {
      "inputs": [
        {
          "components": [
            {
              "internalType": "address",
              "name": "token0",
              "type": "address"
            },
            {
              "internalType": "address",
              "name": "token1",
              "type": "address"
            },
            {
              "internalType": "uint24",
              "name": "fee",
              "type": "uint24"
            }
          ],
          "internalType": "struct PoolKey",
          "name": "key",
          "type": "tuple"
        },
        {
          "internalType": "address",
          "name": "trader",
          "type": "address"
        },
        {
          "internalType": "bool",
          "name": "borrowToken1",
          "type": "bool"
        },
        {
          "internalType": "uint256",
          "name": "amount",
          "type": "uint256"
        }
      ],
      "name": "depositPremium",
      "outputs": [],
      "stateMutability": "nonpayable",
      "type": "function"
    },
    {
      "inputs": [],
      "name": "executioner",
      "outputs": [
        {
          "internalType": "contract Executioner",
          "name": "",
          "type": "address"
        }
      ],
      "stateMutability": "view",
      "type": "function"
    },
    {
      "inputs": [
        {
          "components": [
            {
              "internalType": "address",
              "name": "token0",
              "type": "address"
            },
            {
              "internalType": "address",
              "name": "token1",
              "type": "address"
            },
            {
              "internalType": "uint24",
              "name": "fee",
              "type": "uint24"
            }
          ],
          "internalType": "struct PoolKey",
          "name": "key",
          "type": "tuple"
        },
        {
          "components": [
            {
              "internalType": "address",
              "name": "trader",
              "type": "address"
            },
            {
              "internalType": "bool",
              "name": "positionIsToken0",
              "type": "bool"
            },
            {
              "internalType": "uint256",
              "name": "fillerPayAmount",
              "type": "uint256"
            },
            {
              "internalType": "int24",
              "name": "slippedTickMin",
              "type": "int24"
            },
            {
              "internalType": "int24",
              "name": "slippedTickMax",
              "type": "int24"
            }
          ],
          "internalType": "struct ForceCloseParams",
          "name": "param",
          "type": "tuple"
        }
      ],
      "name": "forceClose",
      "outputs": [
        {
          "internalType": "uint256",
          "name": "premium",
          "type": "uint256"
        }
      ],
      "stateMutability": "nonpayable",
      "type": "function"
    },
    {
      "inputs": [
        {
          "internalType": "address",
          "name": "pool",
          "type": "address"
        },
        {
          "internalType": "address",
          "name": "borrower",
          "type": "address"
        },
        {
          "internalType": "bool",
          "name": "borrowedToken1",
          "type": "bool"
        }
      ],
      "name": "getBorrowInfo",
      "outputs": [
        {
          "components": [
            {
              "internalType": "int24",
              "name": "tick",
              "type": "int24"
            },
            {
              "internalType": "uint128",
              "name": "liquidity",
              "type": "uint128"
            },
            {
              "internalType": "uint256",
              "name": "premium",
              "type": "uint256"
            },
            {
              "internalType": "uint256",
              "name": "feeGrowthInside0LastX128",
              "type": "uint256"
            },
            {
              "internalType": "uint256",
              "name": "feeGrowthInside1LastX128",
              "type": "uint256"
            },
            {
              "internalType": "uint256",
              "name": "lastGrowth",
              "type": "uint256"
            }
          ],
          "internalType": "struct LiquidityLoan[]",
          "name": "",
          "type": "tuple[]"
        }
      ],
      "stateMutability": "view",
      "type": "function"
    },
    {
      "inputs": [
        {
          "internalType": "address",
          "name": "pool",
          "type": "address"
        },
        {
          "internalType": "address",
          "name": "trader",
          "type": "address"
        },
        {
          "internalType": "bool",
          "name": "positionIsToken0",
          "type": "bool"
        }
      ],
      "name": "getLastRepayTime",
      "outputs": [
        {
          "internalType": "uint32",
          "name": "",
          "type": "uint32"
        }
      ],
      "stateMutability": "view",
      "type": "function"
    },
    {
      "inputs": [
        {
          "internalType": "address",
          "name": "pool",
          "type": "address"
        },
        {
          "internalType": "address",
          "name": "trader",
          "type": "address"
        },
        {
          "internalType": "bool",
          "name": "positionIsToken0",
          "type": "bool"
        },
        {
          "internalType": "bool",
          "name": "isAdd",
          "type": "bool"
        }
      ],
      "name": "getOrderId",
      "outputs": [
        {
          "internalType": "bytes32",
          "name": "",
          "type": "bytes32"
        }
      ],
      "stateMutability": "pure",
      "type": "function"
    },
    {
      "inputs": [
        {
          "internalType": "address",
          "name": "pool",
          "type": "address"
        },
        {
          "internalType": "address",
          "name": "trader",
          "type": "address"
        },
        {
          "internalType": "bool",
          "name": "positionIsToken0",
          "type": "bool"
        }
      ],
      "name": "getPosition",
      "outputs": [
        {
          "components": [
            {
              "components": [
                {
                  "internalType": "address",
                  "name": "pool",
                  "type": "address"
                },
                {
                  "internalType": "bool",
                  "name": "isToken0",
                  "type": "bool"
                },
                {
                  "internalType": "uint256",
                  "name": "totalDebtOutput",
                  "type": "uint256"
                },
                {
                  "internalType": "uint256",
                  "name": "totalDebtInput",
                  "type": "uint256"
                },
                {
                  "internalType": "uint32",
                  "name": "lastPremiumPaymentTime",
                  "type": "uint32"
                },
                {
                  "internalType": "uint32",
                  "name": "openTime",
                  "type": "uint32"
                },
                {
                  "components": [
                    {
                      "internalType": "int24",
                      "name": "tick",
                      "type": "int24"
                    },
                    {
                      "internalType": "uint128",
                      "name": "liquidity",
                      "type": "uint128"
                    },
                    {
                      "internalType": "uint256",
                      "name": "premium",
                      "type": "uint256"
                    },
                    {
                      "internalType": "uint256",
                      "name": "feeGrowthInside0LastX128",
                      "type": "uint256"
                    },
                    {
                      "internalType": "uint256",
                      "name": "feeGrowthInside1LastX128",
                      "type": "uint256"
                    },
                    {
                      "internalType": "uint256",
                      "name": "lastGrowth",
                      "type": "uint256"
                    }
                  ],
                  "internalType": "struct LiquidityLoan[]",
                  "name": "borrowInfo",
                  "type": "tuple[]"
                }
              ],
              "internalType": "struct Position",
              "name": "base",
              "type": "tuple"
            },
            {
              "internalType": "uint256",
              "name": "totalPosition",
              "type": "uint256"
            },
            {
              "internalType": "uint256",
              "name": "margin",
              "type": "uint256"
            }
          ],
          "internalType": "struct MarginPosition",
          "name": "",
          "type": "tuple"
        }
      ],
      "stateMutability": "view",
      "type": "function"
    },
    {
      "inputs": [
        {
          "internalType": "address",
          "name": "pool",
          "type": "address"
        },
        {
          "internalType": "address",
          "name": "trader",
          "type": "address"
        },
        {
          "internalType": "bool",
          "name": "positionIsToken0",
          "type": "bool"
        }
      ],
      "name": "getPositionId",
      "outputs": [
        {
          "internalType": "PositionId",
          "name": "",
          "type": "bytes32"
        }
      ],
      "stateMutability": "pure",
      "type": "function"
    },
    {
      "inputs": [
        {
          "internalType": "address",
          "name": "pm",
          "type": "address"
        },
        {
          "internalType": "address",
          "name": "ex",
          "type": "address"
        }
      ],
      "name": "initialize",
      "outputs": [],
      "stateMutability": "nonpayable",
      "type": "function"
    },
    {
      "inputs": [
        {
          "internalType": "bytes[]",
          "name": "data",
          "type": "bytes[]"
        }
      ],
      "name": "multicall",
      "outputs": [
        {
          "internalType": "bytes[]",
          "name": "results",
          "type": "bytes[]"
        }
      ],
      "stateMutability": "nonpayable",
      "type": "function"
    },
    {
      "inputs": [
        {
          "internalType": "bytes32",
          "name": "",
          "type": "bytes32"
        }
      ],
      "name": "orders",
      "outputs": [
        {
          "components": [
            {
              "internalType": "address",
              "name": "token0",
              "type": "address"
            },
            {
              "internalType": "address",
              "name": "token1",
              "type": "address"
            },
            {
              "internalType": "uint24",
              "name": "fee",
              "type": "uint24"
            }
          ],
          "internalType": "struct PoolKey",
          "name": "key",
          "type": "tuple"
        },
        {
          "internalType": "bool",
          "name": "positionIsToken0",
          "type": "bool"
        },
        {
          "internalType": "uint32",
          "name": "auctionDeadline",
          "type": "uint32"
        },
        {
          "internalType": "uint32",
          "name": "auctionStartTime",
          "type": "uint32"
        },
        {
          "internalType": "uint256",
          "name": "startOutput",
          "type": "uint256"
        },
        {
          "internalType": "uint256",
          "name": "minOutput",
          "type": "uint256"
        },
        {
          "internalType": "uint256",
          "name": "inputAmount",
          "type": "uint256"
        },
        {
          "internalType": "uint256",
          "name": "decayRate",
          "type": "uint256"
        },
        {
          "internalType": "uint256",
          "name": "margin",
          "type": "uint256"
        }
      ],
      "stateMutability": "view",
      "type": "function"
    },
    {
      "inputs": [
        {
          "components": [
            {
              "internalType": "address",
              "name": "token0",
              "type": "address"
            },
            {
              "internalType": "address",
              "name": "token1",
              "type": "address"
            },
            {
              "internalType": "uint24",
              "name": "fee",
              "type": "uint24"
            }
          ],
          "internalType": "struct PoolKey",
          "name": "key",
          "type": "tuple"
        },
        {
          "internalType": "bool",
          "name": "payToken1",
          "type": "bool"
        },
        {
          "internalType": "uint256",
          "name": "depositAmount",
          "type": "uint256"
        }
      ],
      "name": "payPremium",
      "outputs": [
        {
          "internalType": "uint256",
          "name": "premiumOwed",
          "type": "uint256"
        }
      ],
      "stateMutability": "nonpayable",
      "type": "function"
    },
    {
      "inputs": [
        {
          "internalType": "PositionId",
          "name": "",
          "type": "bytes32"
        }
      ],
      "name": "positions",
      "outputs": [
        {
          "components": [
            {
              "internalType": "address",
              "name": "pool",
              "type": "address"
            },
            {
              "internalType": "bool",
              "name": "isToken0",
              "type": "bool"
            },
            {
              "internalType": "uint256",
              "name": "totalDebtOutput",
              "type": "uint256"
            },
            {
              "internalType": "uint256",
              "name": "totalDebtInput",
              "type": "uint256"
            },
            {
              "internalType": "uint32",
              "name": "lastPremiumPaymentTime",
              "type": "uint32"
            },
            {
              "internalType": "uint32",
              "name": "openTime",
              "type": "uint32"
            },
            {
              "components": [
                {
                  "internalType": "int24",
                  "name": "tick",
                  "type": "int24"
                },
                {
                  "internalType": "uint128",
                  "name": "liquidity",
                  "type": "uint128"
                },
                {
                  "internalType": "uint256",
                  "name": "premium",
                  "type": "uint256"
                },
                {
                  "internalType": "uint256",
                  "name": "feeGrowthInside0LastX128",
                  "type": "uint256"
                },
                {
                  "internalType": "uint256",
                  "name": "feeGrowthInside1LastX128",
                  "type": "uint256"
                },
                {
                  "internalType": "uint256",
                  "name": "lastGrowth",
                  "type": "uint256"
                }
              ],
              "internalType": "struct LiquidityLoan[]",
              "name": "borrowInfo",
              "type": "tuple[]"
            }
          ],
          "internalType": "struct Position",
          "name": "base",
          "type": "tuple"
        },
        {
          "internalType": "uint256",
          "name": "totalPosition",
          "type": "uint256"
        },
        {
          "internalType": "uint256",
          "name": "margin",
          "type": "uint256"
        }
      ],
      "stateMutability": "view",
      "type": "function"
    },
    {
      "inputs": [
        {
          "components": [
            {
              "internalType": "address",
              "name": "token0",
              "type": "address"
            },
            {
              "internalType": "address",
              "name": "token1",
              "type": "address"
            },
            {
              "internalType": "uint24",
              "name": "fee",
              "type": "uint24"
            }
          ],
          "internalType": "struct PoolKey",
          "name": "key",
          "type": "tuple"
        },
        {
          "components": [
            {
              "internalType": "bool",
              "name": "positionIsToken0",
              "type": "bool"
            },
            {
              "internalType": "uint256",
              "name": "reducePercentage",
              "type": "uint256"
            },
            {
              "internalType": "uint256",
              "name": "minOutput",
              "type": "uint256"
            },
            {
              "internalType": "address",
              "name": "trader",
              "type": "address"
            },
            {
              "internalType": "uint256",
              "name": "executionOption",
              "type": "uint256"
            },
            {
              "internalType": "bytes",
              "name": "executionData",
              "type": "bytes"
            },
            {
              "internalType": "int24",
              "name": "slippedTickMin",
              "type": "int24"
            },
            {
              "internalType": "int24",
              "name": "slippedTickMax",
              "type": "int24"
            },
            {
              "internalType": "uint256",
              "name": "reduceAmount",
              "type": "uint256"
            }
          ],
          "internalType": "struct ReduceParam",
          "name": "param",
          "type": "tuple"
        }
      ],
      "name": "reducePosition",
      "outputs": [
        {
          "components": [
            {
              "internalType": "int256",
              "name": "amount0",
              "type": "int256"
            },
            {
              "internalType": "int256",
              "name": "amount1",
              "type": "int256"
            },
            {
              "internalType": "int256",
              "name": "PnL",
              "type": "int256"
            },
            {
              "internalType": "uint256",
              "name": "returnedAmount",
              "type": "uint256"
            },
            {
              "internalType": "uint256",
              "name": "repaidDebt0",
              "type": "uint256"
            },
            {
              "internalType": "uint256",
              "name": "repaidDebt1",
              "type": "uint256"
            },
            {
              "internalType": "uint256",
              "name": "premium",
              "type": "uint256"
            },
            {
              "internalType": "uint256",
              "name": "profitFee",
              "type": "uint256"
            }
          ],
          "internalType": "struct ReduceReturn",
          "name": "",
          "type": "tuple"
        }
      ],
      "stateMutability": "nonpayable",
      "type": "function"
    },
    {
      "inputs": [
        {
          "internalType": "address",
          "name": "newOwner",
          "type": "address"
        }
      ],
      "name": "setOwner",
      "outputs": [],
      "stateMutability": "nonpayable",
      "type": "function"
    },
    {
      "inputs": [
        {
          "internalType": "bool",
          "name": "addPaused",
          "type": "bool"
        },
        {
          "internalType": "bool",
          "name": "reducePaused",
          "type": "bool"
        },
        {
          "internalType": "bool",
          "name": "forceClosePaused",
          "type": "bool"
        }
      ],
      "name": "setPauseConfig",
      "outputs": [],
      "stateMutability": "nonpayable",
      "type": "function"
    },
    {
      "inputs": [
        {
          "internalType": "address",
          "name": "poolManager_",
          "type": "address"
        },
        {
          "internalType": "address",
          "name": "executioner_",
          "type": "address"
        }
      ],
      "name": "setProtocolContracts",
      "outputs": [],
      "stateMutability": "nonpayable",
      "type": "function"
    },
    {
      "inputs": [
        {
          "internalType": "address",
          "name": "pool",
          "type": "address"
        },
        {
          "internalType": "bool",
          "name": "positionIsToken0",
          "type": "bool"
        },
        {
          "internalType": "bool",
          "name": "isAdd",
          "type": "bool"
        },
        {
          "internalType": "uint256",
          "name": "deadline",
          "type": "uint256"
        },
        {
          "internalType": "uint256",
          "name": "startOutput",
          "type": "uint256"
        },
        {
          "internalType": "uint256",
          "name": "minOutput",
          "type": "uint256"
        },
        {
          "internalType": "uint256",
          "name": "inputAmount",
          "type": "uint256"
        },
        {
          "internalType": "uint256",
          "name": "decayRate",
          "type": "uint256"
        },
        {
          "internalType": "uint256",
          "name": "margin",
          "type": "uint256"
        }
      ],
      "name": "submitOrder",
      "outputs": [],
      "stateMutability": "nonpayable",
      "type": "function"
    },
    {
      "inputs": [
        {
          "components": [
            {
              "internalType": "address",
              "name": "token0",
              "type": "address"
            },
            {
              "internalType": "address",
              "name": "token1",
              "type": "address"
            },
            {
              "internalType": "uint24",
              "name": "fee",
              "type": "uint24"
            }
          ],
          "internalType": "struct PoolKey",
          "name": "key",
          "type": "tuple"
        },
        {
          "internalType": "bool",
          "name": "borrowToken1",
          "type": "bool"
        },
        {
          "internalType": "uint256",
          "name": "amount",
          "type": "uint256"
        }
      ],
      "name": "withdrawPremium",
      "outputs": [],
      "stateMutability": "nonpayable",
      "type": "function"
    }
  ],
  "bytecode": {
    "object": "0x608060405234801561001057600080fd5b50615c9180620000216000396000f3fe608060405234801561001057600080fd5b50600436106101a95760003560e01c80639c3f1e90116100f9578063dc6ab02f11610097578063f2edf95a11610071578063f2edf95a146104ba578063f6f0ea89146104cd578063fee744d7146104e0578063ff9912cd146104f357600080fd5b8063dc6ab02f14610469578063de074f1014610494578063e5c9c2ed146104a757600080fd5b8063b8541526116100d3578063b8541526146103f8578063bfd4c2a51461041b578063d93a90471461042e578063dbe5f6cb1461045657600080fd5b80639c3f1e9014610310578063ac9650d8146103c5578063b68e3c33146103e557600080fd5b8063485cc955116101665780635d4936ff116101405780635d4936ff1461028e578063657b5a4b146102ae5780638be8efa2146102ce5780638c1395f8146102f057600080fd5b8063485cc95514610238578063514ea4bf1461024b5780635277a3241461026d57600080fd5b8063025df9e4146101ae57806313af4035146101c3578063228e062a146101d657806327bd6f83146101e957806328ec7232146102125780633eb4adab14610225575b600080fd5b6101c16101bc366004613a31565b610507565b005b6101c16101d1366004613a91565b610676565b6101c16101e4366004613aae565b6106c2565b6101fc6101f7366004613ce1565b61086d565b6040516102099190613e1f565b60405180910390f35b6101c1610220366004613e2e565b6113a6565b6101c1610233366004613e79565b611492565b6101c1610246366004613e79565b6116ce565b61025e610259366004613eb2565b6117e2565b60405161020993929190613fb9565b61028061027b366004613fde565b611903565b604051908152602001610209565b61028061029c366004613eb2565b60046020526000908152604090205481565b6102c16102bc366004614095565b611f31565b604051610209919061410a565b6102e16102dc366004614219565b61208e565b60405161020993929190614369565b6103036102fe366004614095565b612984565b604051610209919061437c565b6103b061031e366004613eb2565b600560208181526000928352604092839020835160608101855281546001600160a01b039081168252600183015490811693820193909352600160a01b90920462ffffff1693820193909352600283015460038401546004850154938501546006860154600790960154939560ff841695610100850463ffffffff908116966501000000000090960416949092919089565b604051610209999897969594939291906143bb565b6103d86103d336600461440e565b612adf565b60405161020991906144d2565b6101c16103f3366004613e79565b612bd4565b61040b61040636600461462d565b612c38565b6040519015158152602001610209565b6102806104293660046146b5565b612cf8565b61044161043c366004614095565b612d5c565b60405163ffffffff9091168152602001610209565b6101c1610464366004614711565b612d8f565b60015461047c906001600160a01b031681565b6040516001600160a01b039091168152602001610209565b6102806104a2366004613a31565b612e18565b6101c16104b5366004613e79565b613025565b61040b6104c8366004614095565b6130dc565b6102806104db366004614095565b61310a565b6101c16104ee366004614761565b613160565b61040b610501366004614781565b50600090565b60008054604051639525092360e01b8152620100009091046001600160a01b03169063952509239061053d90879060040161480f565b6101c060405180830381865afa15801561055b573d6000803e3d6000fd5b505050506040513d601f19601f8201168201806040525081019061057f9190614901565b50509050600061059082338661310a565b6000818152600460205260409020549091508311156105e15760405162461bcd60e51b81526020600482015260086024820152670859195c1bdcda5d60c21b60448201526064015b60405180910390fd5b600081815260046020526040902080548490039055610627846106105761060b6020870187613a91565b610620565b6106206040870160208801613a91565b33856131d4565b604080518515158152602081018590526001600160a01b0384169133917ffb7067681775f19340bbd7db267bcc1217b3d27bff5bfee90759622e8e028977910160405180910390a35050505050565b6002546001600160a01b031633146106a05760405162461bcd60e51b81526004016105d89061494b565b600280546001600160a01b0319166001600160a01b0392909216919091179055565b6003546001146106e45760405162461bcd60e51b81526004016105d89061496b565b60026003558661073557826106fa8a338b612984565b6020015110156107355760405162461bcd60e51b81526004016105d89060208082526004908201526321706f7360e01b604082015260600190565b600560006107458b338c8c612cf8565b81526020810191909152604090810160002090516319b5cb0360e01b81526004810191909152881515602482015260448101879052606481018690526084810185905260a4810184905260c4810183905260e4810182905273__$506f8190e26c635088963c8a0018e71746$__906319b5cb03906101040160006040518083038186803b1580156107d557600080fd5b505af41580156107e9573d6000803e3d6000fd5b5050604080518a15158152602081018a9052908101889052606081018790526080810186905260a0810185905260c081018490523392508a151591506001600160a01b038c16907f4c34e64fbcdd268148a9e26a3b2c922bd24162485ce0b2ba28e4ce57d9a2c33c9060e00160405180910390a45050600160035550505050505050565b610875613777565b6003546001146108975760405162461bcd60e51b81526004016105d89061496b565b6002600381905554600160a81b900460ff16156108c65760405162461bcd60e51b81526004016105d89061498f565b6108ce6137bc565b6108d6613777565b600054604051639525092360e01b8152620100009091046001600160a01b03169063952509239061090b90889060040161480f565b6101c060405180830381865afa158015610929573d6000803e3d6000fd5b505050506040513d601f19601f8201168201806040525081019061094d9190614901565b61016085015260020b60208401526001600160a01b031680835260608501518551600092600692849261098192919061310a565b8152602001908152602001600020905060008160050154116109d35760405162461bcd60e51b815260206004820152600b60248201526a3737903837b9b4ba34b7b760a91b60448201526064016105d8565b8251606086015186516109e99291906000612cf8565b6101a08401819052604051631759061d60e01b815273__$506f8190e26c635088963c8a0018e71746$__91631759061d91610a2d916005918a918791600401614ac2565b606060405180830381865af4158015610a4a573d6000803e3d6000fd5b505050506040513d601f19601f82011682018060405250810190610a6e9190614b7b565b6020880152610100808601919091526040808601929092528151908101909152606090610ba59080610aa5368b90038b018b614ba9565b815260200184600001600401805480602002602001604051908101604052809291908181526020016000905b82821015610b485760008481526020908190206040805160c081018252600586029092018054600281810b855263010000009091046001600160801b031684860152600180830154938501939093528101546060840152600381015460808401526004015460a08301529083529092019101610ad1565b50505050815260200186600001516001600160a01b0316815260200188606001516001600160a01b031681526020018860000151151581526020018661016001518152602001866020015160020b81526020016000815250613252565b60c08501919091526020870151909150670de0b6b3a764000014610ce4576004820180546040805160208084028201810190925282815292919060009084015b82821015610c5c5760008481526020908190206040805160c081018252600586029092018054600281810b855263010000009091046001600160801b031684860152600180830154938501939093528101546060840152600381015460808401526004015460a08301529083529092019101610be5565b50505050602087015160405163069b8a8b60e31b815273__$d23a8dd93b7205fa6b646ffed38c165d68$__926334dc545892610c9a92600401614bfb565b600060405180830381865af4158015610cb7573d6000803e3d6000fd5b505050506040513d6000823e601f3d908101601f19168201604052610cdf9190810190614cd4565b610d82565b6004820180546040805160208084028201810190925282815292919060009084015b82821015610d7d5760008481526020908190206040805160c081018252600586029092018054600281810b855263010000009091046001600160801b031684860152600180830154938501939093528101546060840152600381015460808401526004015460a08301529083529092019101610d06565b505050505b610180850152600682015461014085015260058201546101008501511015610e23576101008401516020870151610180860151604051631b74fb1560e31b815273__$506f8190e26c635088963c8a0018e71746$__9363dba7d8a893610dee9388938890600401614d08565b60006040518083038186803b158015610e0657600080fd5b505af4158015610e1a573d6000803e3d6000fd5b50505050610ea1565b835160608701518751600692600092610e3b9261310a565b81526020810191909152604001600090812080546001600160a81b0319168155600181018290556002810182905560038101805467ffffffffffffffff19169055908181610e8c6004830182613836565b50506005820160009055600682016000905550505b83600001516001600160a01b0316633850c7bd6040518163ffffffff1660e01b815260040160e060405180830381865afa158015610ee3573d6000803e3d6000fd5b505050506040513d601f19601f82011682018060405250810190610f079190614d56565b50505050600291820b608088018190526001600160a01b0390931660608801525060c0880151900b1380610f485750836080015160020b8660e0015160020b125b15610f6657604051631e6012f360e21b815260040160405180910390fd5b6101808401516040516337a6142160e01b815273__$d23a8dd93b7205fa6b646ffed38c165d68$__916337a6142191610fa2919060040161410a565b6040805180830381865af4158015610fbe573d6000803e3d6000fd5b505050506040513d601f19601f82011682018060405250810190610fe29190614dee565b600290810b60c0870181905291810b60a0870181905288516080880151602089015160405163146d722d60e31b8152921515600484015290840b60248301526044820194909452606481019190915291900b608482015260009073__$d23a8dd93b7205fa6b646ffed38c165d68$__9063a36b91689060a401602060405180830381865af4158015611078573d6000803e3d6000fd5b505050506040513d601f19601f8201168201806040525081019061109c9190614e1d565b9050806001036111cd576001546000546040516337aaefd560e11b815273__$506f8190e26c635088963c8a0018e71746$__92636f55dfaa926110fd928c928a928f928d926001600160a01b03908116926201000090041690600401614ebe565b600060405180830381865af415801561111a573d6000803e3d6000fd5b505050506040513d6000823e601f3d908101601f1916820160405261114291908101906150c9565b610120810151909650909450156111c85786516111a89061116f5761116a60208a018a613a91565b61117f565b61117f60408a0160208b01613a91565b60025461012088015160e08801516001600160a01b03909216916111a39190615228565b6131d4565b6111c86111ba368a90038a018a614ba9565b88516101208801518561333d565b611321565b806002036112855773__$506f8190e26c635088963c8a0018e71746$__63c132482686610180015189878c8a6101400151600060029054906101000a90046001600160a01b03168c61010001516040518863ffffffff1660e01b815260040161123c979695949392919061523b565b61010060405180830381865af415801561125a573d6000803e3d6000fd5b505050506040513d601f19601f8201168201806040525081019061127e91906152ab565b9350611321565b600154600054604051630e4940a960e31b815273__$506f8190e26c635088963c8a0018e71746$__9263724a0548926112dc928c928a928f928d926001600160a01b03908116926201000090041690600401614ebe565b61010060405180830381865af41580156112fa573d6000803e3d6000fd5b505050506040513d601f19601f8201168201806040525081019061131e91906152ab565b93505b6060808801518851875161010089015160c089015160e08a0151604080513381526020810194909452830191909152948101949094526001600160a01b03928316939115159216907f3aacf7844e8b88dda49c434b9ce8b132ed7fc860559882f088ff0c39f8fe98879060800160405180910390a45050600160035550949350505050565b6003546001146113c85760405162461bcd60e51b81526004016105d89061496b565b6002600355600560006113dd85338686612cf8565b81526020808201929092526040908101600090812080546001600160a01b03191681556001810180546001600160b81b031916905560028101805468ffffffffffffffffff1916905560038101829055600481018290556005810182905560068101829055600701555182151581523391841515916001600160a01b038716917f761fde4703b3eb1ca92675208248e655ce58d6778c95e6e742ab9819a7f3d93d910160405180910390a45050600160035550565b6000546201000090046001600160a01b031633146114da5760405162461bcd60e51b8152602060048201526005602482015264085c1bdbdb60da1b60448201526064016105d8565b60005460405163095ea7b360e01b8152620100009091046001600160a01b039081166004830152600019602483015283169063095ea7b3906044016020604051808303816000875af1158015611534573d6000803e3d6000fd5b505050506040513d601f19601f8201168201806040525081019061155891906152c8565b5060005460405163095ea7b360e01b8152620100009091046001600160a01b039081166004830152600019602483015282169063095ea7b3906044016020604051808303816000875af11580156115b3573d6000803e3d6000fd5b505050506040513d601f19601f820116820180604052508101906115d791906152c8565b5060015460405163095ea7b360e01b81526001600160a01b03918216600482015260001960248201529083169063095ea7b3906044016020604051808303816000875af115801561162c573d6000803e3d6000fd5b505050506040513d601f19601f8201168201806040525081019061165091906152c8565b5060015460405163095ea7b360e01b81526001600160a01b03918216600482015260001960248201529082169063095ea7b3906044016020604051808303816000875af11580156116a5573d6000803e3d6000fd5b505050506040513d601f19601f820116820180604052508101906116c991906152c8565b505050565b600054610100900460ff16158080156116ee5750600054600160ff909116105b806117085750303b158015611708575060005460ff166001145b61176b5760405162461bcd60e51b815260206004820152602e60248201527f496e697469616c697a61626c653a20636f6e747261637420697320616c72656160448201526d191e481a5b9a5d1a585b1a5e995960921b60648201526084016105d8565b6000805460ff19166001179055801561178e576000805461ff0019166101001790555b6117988383613025565b80156116c9576000805461ff0019169055604051600181527f7f26b83ff96e1f2b6a682f133852f6798a09c465da95921460cefb38474024989060200160405180910390a1505050565b6006602090815260009182526040808320815160e08101835281546001600160a01b0381168252600160a01b900460ff1615158185015260018201548184015260028201546060820152600382015463ffffffff80821660808401526401000000009091041660a082015260048201805484518187028101870190955280855292959194869460c08701949093909184015b828210156118eb5760008481526020908190206040805160c081018252600586029092018054600281810b855263010000009091046001600160801b031684860152600180830154938501939093528101546060840152600381015460808401526004015460a08301529083529092019101611874565b50505091525050600582015460069092015490919083565b60006003546001146119275760405162461bcd60e51b81526004016105d89061496b565b6002600381905554600160b01b900460ff16156119565760405162461bcd60e51b81526004016105d89061498f565b61195e61385a565b600054604051639525092360e01b8152620100009091046001600160a01b03169063952509239061199390879060040161480f565b6101c060405180830381865afa1580156119b1573d6000803e3d6000fd5b505050506040513d601f19601f820116820180604052508101906119d59190614901565b604084015260020b6020808401919091526001600160a01b03909116808352845191850151611a049290612984565b60608201819052815184516020860151611a2393889390929091612c38565b611a40576040516303144f8160e21b815260040160405180910390fd5b80600001516001600160a01b0316633850c7bd6040518163ffffffff1660e01b815260040160e060405180830381865afa158015611a82573d6000803e3d6000fd5b505050506040513d601f19601f82011682018060405250810190611aa69190614d56565b50505050600291820b60a085018190526001600160a01b039093166080850152506060850151900b1380611ae757508060a0015160020b836080015160020b125b15611b0557604051631e6012f360e21b815260040160405180910390fd5b60608101515160c0015160208085015160a08401519184015160405163374b7d3d60e11b815260009473__$d23a8dd93b7205fa6b646ffed38c165d68$__94636e96fa7a94611b5b9492939092906004016152e5565b602060405180830381865af4158015611b78573d6000803e3d6000fd5b505050506040513d601f19601f82011682018060405250810190611b9c9190614e1d565b905080600103611c4f57606082015160208082015160408088015192880151935160c0015160015460005492516325d3777560e01b815273__$506f8190e26c635088963c8a0018e71746$__966325d3777596611c1a968e9690959194929391926001600160a01b0390811692620100009092041690600401615318565b60006040518083038186803b158015611c3257600080fd5b505af4158015611c46573d6000803e3d6000fd5b50505050611d9d565b80600203611cba576060820151805160c001516020918201519186015160005460405163ad6c502560e01b815273__$506f8190e26c635088963c8a0018e71746$__9463ad6c502594611c1a948c94919390916201000090046001600160a01b031690600401615376565b73__$506f8190e26c635088963c8a0018e71746$__6382e824478684606001516000015160c00151856060015160200151886020015187602001518860a0015189608001518c60400151600160009054906101000a90046001600160a01b0316600060029054906101000a90046001600160a01b0316600260009054906101000a90046001600160a01b03166040518c63ffffffff1660e01b8152600401611d6c9b9a999897969594939291906153bc565b60006040518083038186803b158015611d8457600080fd5b505af4158015611d98573d6000803e3d6000fd5b505050505b611e2760405180610100016040528087803603810190611dbd9190614ba9565b815260200184606001516000015160c00151815260200184600001516001600160a01b0316815260200186600001516001600160a01b0316815260200186602001511515815260200184604001518152602001846020015160020b815260200160008152506133a6565b925060066000611e4484600001518760000151886020015161310a565b81526020810191909152604001600090812080546001600160a81b0319168155600181018290556002810182905560038101805467ffffffffffffffff19169055908181611e956004830182613836565b505060058201600090556006820160009055505083600001516001600160a01b03168460200151151583600001516001600160a01b03167f93eab6e8520a1442c72b300820e9791d361ae2fb3975f78306dd8c0f2a7e4d35856060015160200151886040015186604051611f1c939291909283526020830191909152604082015260600190565b60405180910390a45050600160035592915050565b6060600060066000611f4487878761310a565b81526020808201929092526040908101600090812082516101408101845281546001600160a01b03811660608301908152600160a01b90910460ff1615156080830152600183015460a0830152600283015460c0830152600383015463ffffffff80821660e08501526401000000009091041661010083015260048301805486518189028101890190975280875292969395879592948794610120880194929392909184015b828210156120615760008481526020908190206040805160c081018252600586029092018054600281810b855263010000009091046001600160801b031684860152600180830154938501939093528101546060840152600381015460808401526004015460a08301529083529092019101611fea565b505050915250508152600582015460208201526006909101546040909101525160c0015195945050505050565b61209661389a565b6000806003546001146120bb5760405162461bcd60e51b81526004016105d89061496b565b6002600381905554600160a01b900460ff16156120ea5760405162461bcd60e51b81526004016105d89061498f565b6120f26138f1565b600054604051639525092360e01b8152620100009091046001600160a01b031690639525092390612127908a9060040161480f565b6101c060405180830381865afa158015612145573d6000803e3d6000fd5b505050506040513d601f19601f820116820180604052508101906121699190614901565b604084015260020b60208301526001600160a01b031680825260c08701516080880151600092600692849261219f92919061310a565b81526020019081526020016000209050600573__$506f8190e26c635088963c8a0018e71746$__63d5d54e8a90916121e685600001518b60c001518c608001516001612cf8565b8a6040518463ffffffff1660e01b8152600401612205939291906154eb565b600060405180830381865af4158015612222573d6000803e3d6000fd5b505050506040513d6000823e601f3d908101601f1916820160405261224a9190810190615618565b60608401919091526080810151909750612292906122745761226f60208a018a613a91565b612284565b61228460408a0160208b01613a91565b60c08901518951309061345a565b600054600254604051632da526f160e01b815273__$506f8190e26c635088963c8a0018e71746$__92632da526f1926122e9928d928d928d92620100009092046001600160a01b039081169291169060040161565e565b600060405180830381865af4158015612306573d6000803e3d6000fd5b505050506040513d6000823e601f3d908101601f1916820160405261232e91908101906156b6565b60808601929092528451600054602087015160408089015151905163cf2778e960e01b8152949d50949b5094975073__$eacbb88ed4bd2af84aa4d43bcf675bcf7e$__9463cf2778e99461239894620100009093046001600160a01b0316928d919060040161572c565b600060405180830381865af41580156123b5573d6000803e3d6000fd5b505050506040513d6000823e601f3d908101601f191682016040526123dd9190810190614cd4565b608088015160208401516040516341533fe760e01b815292985073__$d23a8dd93b7205fa6b646ffed38c165d68$__926341533fe792612421928b926004016157a8565b602060405180830381865af415801561243e573d6000803e3d6000fd5b505050506040513d601f19601f820116820180604052508101906124629190614e1d565b60e0830152612489612479368a90038a018a614ba9565b886080015184608001518961333d565b60048101541561263b5760606125b46040518061010001604052808b8036038101906124b59190614ba9565b815260200184600001600401805480602002602001604051908101604052809291908181526020016000905b828210156125585760008481526020908190206040805160c081018252600586029092018054600281810b855263010000009091046001600160801b031684860152600180830154938501939093528101546060840152600381015460808401526004015460a083015290835290920191016124e1565b50505050815260200185600001516001600160a01b031681526020018a60c001516001600160a01b031681526020018a608001511515815260200185604001518152602001856020015160020b81526020016000815250613252565b604051630b7cb7c160e01b8152919650915073__$d23a8dd93b7205fa6b646ffed38c165d68$__90630b7cb7c1906125f2908a9085906004016157d5565b600060405180830381865af415801561260f573d6000803e3d6000fd5b505050506040513d6000823e601f3d908101601f191682016040526126379190810190614cd4565b9650505b73__$506f8190e26c635088963c8a0018e71746$__6386c6f9bb888a8560e001518660200151600160009054906101000a90046001600160a01b0316886000015189606001516040518863ffffffff1660e01b81526004016126a397969594939291906157fa565b6040805180830381865af41580156126bf573d6000803e3d6000fd5b505050506040513d601f19601f820116820180604052508101906126e39190615855565b60c084015260a083015260e0820151608088015173__$506f8190e26c635088963c8a0018e71746$__916341a95ff89184918b918b9190612731578760c0015161272c90615879565b61273f565b8760a0015161273f90615879565b6040518663ffffffff1660e01b815260040161275f959493929190615895565b60006040518083038186803b15801561277757600080fd5b505af415801561278b573d6000803e3d6000fd5b5050604080516101408101825284546001600160a01b03811660608301908152600160a01b90910460ff1615156080830152600186015460a0830152600286015460c0830152600386015463ffffffff80821660e085015264010000000090910416610100830152600486018054845160208083028201810190965281815293965087955086949293869361012087019391929060009084015b8282101561289c5760008481526020908190206040805160c081018252600586029092018054600281810b855263010000009091046001600160801b031684860152600180830154938501939093528101546060840152600381015460808401526004015460a08301529083529092019101612825565b505050508152505081526020016005820154815260200160068201548152505094508660c001516001600160a01b03168760800151151583600001516001600160a01b03167f9162a397ba17d1e4988a59388b9744cf4bc003cf58486fda9f8c7c91a7af3fca338b6080015161291f578660c0015161291a90615879565b61292d565b8660a0015161292d90615879565b8c516060808f0151604080516001600160a01b0390961686526020860194909452928401919091528201526080810189905260a0810188905260c00160405180910390a45050600160038190555093509350939050565b61298c61389a565b6006600061299b86868661310a565b81526020808201929092526040908101600090812082516101408101845281546001600160a01b03811660608301908152600160a01b90910460ff1615156080830152600183015460a0830152600283015460c0830152600383015463ffffffff80821660e08501526401000000009091041661010083015260048301805486518189028101890190975280875292969395879592948794610120880194929392909184015b82821015612ab85760008481526020908190206040805160c081018252600586029092018054600281810b855263010000009091046001600160801b031684860152600180830154938501939093528101546060840152600381015460808401526004015460a08301529083529092019101612a41565b50505091525050815260058201546020820152600690910154604090910152949350505050565b6060816001600160401b03811115612af957612af9613b2f565b604051908082528060200260200182016040528015612b2c57816020015b6060815260200190600190039081612b175790505b50905060005b82811015612bcc57612b9c30858584818110612b5057612b506158d5565b9050602002810190612b6291906158eb565b8080601f0160208091040260200160405190810160405280939291908181526020018383808284376000920191909152506134e492505050565b828281518110612bae57612bae6158d5565b60200260200101819052508080612bc490615938565b915050612b32565b505b92915050565b6002546001600160a01b03163314612bfe5760405162461bcd60e51b81526004016105d89061494b565b6000805462010000600160b01b031916620100006001600160a01b0394851602179055600180546001600160a01b03191691909216179055565b60008473__$506f8190e26c635088963c8a0018e71746$__63920f2f4090918885600060029054906101000a90046001600160a01b031660046000612c7e8c8c8c61310a565b8152602001908152602001600020546040518663ffffffff1660e01b8152600401612cad959493929190615951565b602060405180830381865af4158015612cca573d6000803e3d6000fd5b505050506040513d601f19601f82011682018060405250810190612cee91906152c8565b9695505050505050565b6040516bffffffffffffffffffffffff19606086811b8216602084015285901b16603482015282151560f890811b6048830152821515901b6049820152600090604a016040516020818303038152906040528051906020012090505b949350505050565b600060066000612d6d86868661310a565b815260208101919091526040016000206003015463ffffffff16949350505050565b600054604051633518d43560e21b815273__$eacbb88ed4bd2af84aa4d43bcf675bcf7e$__9163d46350d491612de291600491620100009091046001600160a01b03169089908990899089908601615a23565b60006040518083038186803b158015612dfa57600080fd5b505af4158015612e0e573d6000803e3d6000fd5b5050505050505050565b6000600354600114612e3c5760405162461bcd60e51b81526004016105d89061496b565b600260035560008054604051639525092360e01b815282918291620100009091046001600160a01b031690639525092390612e7b908a9060040161480f565b6101c060405180830381865afa158015612e99573d6000803e3d6000fd5b505050506040513d601f19601f82011682018060405250810190612ebd9190614901565b925092509250612ece8333886130dc565b612ede5760009350505050613019565b6000612eeb843389611f31565b9050612f576040518061010001604052808a803603810190612f0d9190614ba9565b8152602001838152602001866001600160a01b03168152602001336001600160a01b0316815260200189151581526020018481526020018560020b81526020016000815250613252565b9095509050612f6884338984613509565b612f9a87612f8257612f7d60208a018a613a91565b612f92565b612f9260408a0160208b01613a91565b33308961345a565b8560046000612faa87338c61310a565b81526020019081526020016000206000828254612fc79190615a67565b9091555050604080518815158152602081018890526001600160a01b0386169133917f3b362679889b553ed2e7ee099bd77d266648894e6562144e3791e108b0a2596e910160405180910390a3505050505b60016003559392505050565b600054610100900460ff166130905760405162461bcd60e51b815260206004820152602b60248201527f496e697469616c697a61626c653a20636f6e7472616374206973206e6f74206960448201526a6e697469616c697a696e6760a81b60648201526084016105d8565b600080546001600160a01b03938416620100000262010000600160b01b031990911617905560018054919092166001600160a01b03199182161782556002805490911633179055600355565b600080600660006130ee87878761310a565b8152602001908152602001600020600501541190509392505050565b6040516bffffffffffffffffffffffff19606085811b8216602084015284901b16603482015281151560f81b60488201526000906049016040516020818303038152906040528051906020012090509392505050565b6002546001600160a01b0316331461318a5760405162461bcd60e51b81526004016105d89061494b565b60028054911515600160b01b0260ff60b01b19931515600160a81b0260ff60a81b19951515600160a01b029590951661ffff60a01b19909316929092179390931791909116179055565b600060405163a9059cbb60e01b8152836004820152826024820152602060006044836000895af13d15601f3d116001600051141617169150508061324c5760405162461bcd60e51b815260206004820152600f60248201526e1514905394d1915497d19052531151608a1b60448201526064016105d8565b50505050565b600060606000600473__$eacbb88ed4bd2af84aa4d43bcf675bcf7e$__6313c1af4390918661328e886040015189606001518a60800151612d5c565b6000546001546040516001600160e01b031960e088901b1681526132cb959493926001600160a01b03620100009091048116921690600401615b10565b600060405180830381865af41580156132e8573d6000803e3d6000fd5b505050506040513d6000823e601f3d908101601f191682016040526133109190810190615b56565b602086015260408501516060860151608087015192935061333092613630565b6020909301519293915050565b60005460405163fc6e9cbf60e01b8152620100009091046001600160a01b03169063fc6e9cbf90613378908790859088908890600401615b92565b600060405180830381600087803b15801561339257600080fd5b505af1158015612e0e573d6000803e3d6000fd5b6000806133c0836040015184606001518560800151612d5c565b600054604051630bc847bd60e01b815291925073__$eacbb88ed4bd2af84aa4d43bcf675bcf7e$__91630bc847bd91613412916004918891620100009091046001600160a01b03169087908401615bc5565b602060405180830381865af415801561342f573d6000803e3d6000fd5b505050506040513d601f19601f820116820180604052508101906134539190614e1d565b9392505050565b60006040516323b872dd60e01b81528460048201528360248201528260448201526020600060648360008a5af13d15601f3d11600160005114161716915050806134dd5760405162461bcd60e51b81526020600482015260146024820152731514905394d1915497d19493d357d1905253115160621b60448201526064016105d8565b5050505050565b60606134538383604051806060016040528060278152602001615c3560279139613670565b60006006600061351a87878761310a565b8152602001908152602001600020905080600001600401600061353d9190613836565b60005b825181101561362857600083828151811061355d5761355d6158d5565b6020026020010151602001516001600160801b031611156136165781600001600401838281518110613591576135916158d5565b60209081029190910181015182546001818101855560009485529383902082516005909202018054938301516001600160801b03166301000000026001600160981b031990941662ffffff90921691909117929092178255604081015192820192909255606082015160028201556080820151600382015560a0909101516004909101555b8061362081615938565b915050613540565b505050505050565b426006600061364086868661310a565b81526020810191909152604001600020600301805463ffffffff191663ffffffff92909216919091179055505050565b6060600080856001600160a01b03168560405161368d9190615c05565b600060405180830381855af49150503d80600081146136c8576040519150601f19603f3d011682016040523d82523d6000602084013e6136cd565b606091505b5091509150612cee8683838760608315613748578251600003613741576001600160a01b0385163b6137415760405162461bcd60e51b815260206004820152601d60248201527f416464726573733a2063616c6c20746f206e6f6e2d636f6e747261637400000060448201526064016105d8565b5081612d54565b612d54838381511561375d5781518083602001fd5b8060405162461bcd60e51b81526004016105d89190615c21565b60405180610100016040528060008152602001600081526020016000815260200160008152602001600081526020016000815260200160008152602001600081525090565b604080516101c081018252600080825260208201819052918101829052606081018290526080810182905260a0810182905260c0810182905260e08101829052610100810182905261012081018290526101408101919091526101608101613822613944565b815260606020820152600060409091015290565b508054600082556005029060005260206000209081019061385791906139bc565b50565b6040805160c08101825260008082526020820152908101613879613944565b815260200161388661389a565b815260006020820181905260409091015290565b604080516101408101909152600060608083018281526080840183905260a0840183905260c0840183905260e084018390526101008401929092526101208301528190815260200160008152602001600081525090565b604080516101208101825260008082526020820152908101613911613944565b81526020016000815260200160008152602001600081526020016000815260200160008152602001600080191681525090565b6040518060e001604052806139886040518060c001604052806000815260200160008152602001600081526020016000815260200160008152602001600081525090565b8152602001600081526020016000815260200160008152602001600061ffff16815260200160008152602001600081525090565b5b808211156139f75780546001600160981b0319168155600060018201819055600282018190556003820181905560048201556005016139bd565b5090565b600060608284031215613a0d57600080fd5b50919050565b801515811461385757600080fd5b8035613a2c81613a13565b919050565b600080600060a08486031215613a4657600080fd5b613a5085856139fb565b92506060840135613a6081613a13565b929592945050506080919091013590565b6001600160a01b038116811461385757600080fd5b8035613a2c81613a71565b600060208284031215613aa357600080fd5b813561345381613a71565b60008060008060008060008060006101208a8c031215613acd57600080fd5b8935613ad881613a71565b985060208a0135613ae881613a13565b975060408a0135613af881613a13565b989b979a5097986060810135985060808101359760a0820135975060c0820135965060e08201359550610100909101359350915050565b634e487b7160e01b600052604160045260246000fd5b60405161012081016001600160401b0381118282101715613b6857613b68613b2f565b60405290565b60405160c081016001600160401b0381118282101715613b6857613b68613b2f565b60405161014081016001600160401b0381118282101715613b6857613b68613b2f565b604051606081016001600160401b0381118282101715613b6857613b68613b2f565b60405160e081016001600160401b0381118282101715613b6857613b68613b2f565b6040516101c081016001600160401b0381118282101715613b6857613b68613b2f565b604051601f8201601f191681016001600160401b0381118282101715613c4257613c42613b2f565b604052919050565b60006001600160401b03821115613c6357613c63613b2f565b50601f01601f191660200190565b600082601f830112613c8257600080fd5b8135613c95613c9082613c4a565b613c1a565b818152846020838601011115613caa57600080fd5b816020850160208301376000918101602001919091529392505050565b8060020b811461385757600080fd5b8035613a2c81613cc7565b60008060808385031215613cf457600080fd5b613cfe84846139fb565b915060608301356001600160401b0380821115613d1a57600080fd5b908401906101208287031215613d2f57600080fd5b613d37613b45565b613d4083613a21565b81526020830135602082015260408301356040820152613d6260608401613a86565b60608201526080830135608082015260a083013582811115613d8357600080fd5b613d8f88828601613c71565b60a083015250613da160c08401613cd6565b60c0820152613db260e08401613cd6565b60e0820152610100915081830135828201528093505050509250929050565b805182526020810151602083015260408101516040830152606081015160608301526080810151608083015260a081015160a083015260c081015160c083015260e081015160e08301525050565b6101008101612bce8284613dd1565b600080600060608486031215613e4357600080fd5b8335613e4e81613a71565b92506020840135613e5e81613a13565b91506040840135613e6e81613a13565b809150509250925092565b60008060408385031215613e8c57600080fd5b8235613e9781613a71565b91506020830135613ea781613a71565b809150509250929050565b600060208284031215613ec457600080fd5b5035919050565b805160020b82526001600160801b03602082015116602083015260408101516040830152606081015160608301526080810151608083015260a081015160a08301525050565b600060e0830160018060a01b0383511684526020808401511515818601526040840151604086015260608401516060860152608084015163ffffffff80821660808801528060a08701511660a0880152505060c08085015160e082880152838151808652610100890191508483019550600092505b80831015613fad57613f99828751613ecb565b948401946001929092019190830190613f86565b50979650505050505050565b606081526000613fcc6060830186613f11565b60208301949094525060400152919050565b600080828403610100811215613ff357600080fd5b613ffd85856139fb565b925060a0605f198201121561401157600080fd5b5060405160a081018181106001600160401b038211171561403457614034613b2f565b604052606084013561404581613a71565b8152608084013561405581613a13565b602082015260a0840135604082015260c084013561407281613cc7565b606082015260e084013561408581613cc7565b6080820152919491935090915050565b6000806000606084860312156140aa57600080fd5b83356140b581613a71565b92506020840135613e5e81613a71565b600081518084526020808501945080840160005b838110156140ff576140ec878351613ecb565b60c09690960195908201906001016140d9565b509495945050505050565b60208152600061345360208301846140c5565b60006001600160401b0382111561413657614136613b2f565b5060051b60200190565b6001600160801b038116811461385757600080fd5b600082601f83011261416657600080fd5b81356020614176613c908361411d565b82815260c0928302850182019282820191908785111561419557600080fd5b8387015b8581101561420c5781818a0312156141b15760008081fd5b6141b9613b6e565b81356141c481613cc7565b8152818601356141d381614140565b8187015260408281013590820152606080830135908201526080808301359082015260a080830135908201528452928401928101614199565b5090979650505050505050565b600080600060a0848603121561422e57600080fd5b61423885856139fb565b925060608401356001600160401b038082111561425457600080fd5b90850190610140828803121561426957600080fd5b614271613b90565b8235815260208301356020820152604083013560408201526060830135606082015261429f60808401613a21565b608082015260a083013560a08201526142ba60c08401613a86565b60c082015260e0830135828111156142d157600080fd5b6142dd89828601613c71565b60e0830152506101006142f1818501613cd6565b90820152610120614303848201613cd6565b908201529350608086013591508082111561431d57600080fd5b5061432a86828701614155565b9150509250925092565b60008151606084526143496060850182613f11565b905060208301516020850152604083015160408501528091505092915050565b606081526000613fcc6060830186614334565b6020815260006134536020830184614334565b80516001600160a01b0390811683526020808301519091169083015260409081015162ffffff16910152565b61016081016143ca828c61438f565b981515606082015263ffffffff97881660808201529590961660a086015260c085019390935260e08401919091526101008301526101208201526101400152919050565b6000806020838503121561442157600080fd5b82356001600160401b038082111561443857600080fd5b818501915085601f83011261444c57600080fd5b81358181111561445b57600080fd5b8660208260051b850101111561447057600080fd5b60209290920196919550909350505050565b60005b8381101561449d578181015183820152602001614485565b50506000910152565b600081518084526144be816020860160208601614482565b601f01601f19169290920160200192915050565b6000602080830181845280855180835260408601915060408160051b870101925083870160005b8281101561452757603f198886030184526145158583516144a6565b945092850192908501906001016144f9565b5092979650505050505050565b803563ffffffff81168114613a2c57600080fd5b60006060828403121561455a57600080fd5b614562613bb3565b905081356001600160401b038082111561457b57600080fd5b9083019060e0828603121561458f57600080fd5b614597613bd5565b6145a083613a86565b81526145ae60208401613a21565b602082015260408301356040820152606083013560608201526145d360808401614534565b60808201526145e460a08401614534565b60a082015260c0830135828111156145fb57600080fd5b61460787828601614155565b60c083015250808452505050602082013560208201526040820135604082015292915050565b600080600080600060e0868803121561464557600080fd5b61464f87876139fb565b945060608601356001600160401b0381111561466a57600080fd5b61467688828901614548565b945050608086013561468781613a71565b925060a086013561469781613a71565b915060c08601356146a781613a13565b809150509295509295909350565b600080600080608085870312156146cb57600080fd5b84356146d681613a71565b935060208501356146e681613a71565b925060408501356146f681613a13565b9150606085013561470681613a13565b939692955090935050565b60008060008060c0858703121561472757600080fd5b61473186866139fb565b9350606085013561474181613a71565b9250608085013561475181613a13565b9396929550929360a00135925050565b60008060006060848603121561477657600080fd5b8335613e4e81613a13565b60006020828403121561479357600080fd5b81356001600160401b038111156147a957600080fd5b612d5484828501614548565b803562ffffff81168114613a2c57600080fd5b80356147d381613a71565b6001600160a01b0390811683526020820135906147ef82613a71565b16602083015262ffffff614805604083016147b5565b1660408301525050565b60608101612bce82846147c8565b8051613a2c81613a71565b8051613a2c81613cc7565b805161ffff81168114613a2c57600080fd5b600081830361018081121561485957600080fd5b614861613bd5565b915060c081121561487157600080fd5b5061487a613b6e565b825181526020830151602082015260408301516040820152606083015160608201526080830151608082015260a083015160a08201528082525060c0820151602082015260e0820151604082015261010082015160608201526148e06101208301614833565b608082015261014082015160a082015261016082015160c082015292915050565b60008060006101c0848603121561491757600080fd5b835161492281613a71565b602085015190935061493381613cc7565b91506149428560408601614845565b90509250925092565b60208082526006908201526510b7bbb732b960d11b604082015260600190565b6020808252600a90820152695245454e5452414e435960b01b604082015260600190565b6020808252600690820152651c185d5cd95960d21b604082015260600190565b6000610120825115158452602083015160208501526040830151604085015260608301516149e860608601826001600160a01b03169052565b506080830151608085015260a08301518160a0860152614a0a828601826144a6565b91505060c0830151614a2160c086018260020b9052565b5060e0830151614a3660e086018260020b9052565b50610100928301519390920192909252919050565b6000815480845260208085019450836000528060002060005b838110156140ff578154600281810b895260189190911c6001600160801b03168489015260018084015460408a015290830154606089015260038301546080890152600483015460a089015260c09097019660059092019101614a64565b848152608060208201526000614adb60808301866149af565b828103604084015260608152845460018060a01b0381166060830152614b0b6080830160ff8360a01c1615159052565b50600185015460a0820152600285015460c0820152600385015463ffffffff80821660e0840152602082901c8116610100840152505060e0610120820152614b5a610140820160048701614a4b565b60058601546020830152600690950154604090910152506060015292915050565b600080600060608486031215614b9057600080fd5b8351925060208401519150604084015190509250925092565b600060608284031215614bbb57600080fd5b614bc3613bb3565b8235614bce81613a71565b81526020830135614bde81613a71565b6020820152614bef604084016147b5565b60408201529392505050565b604081526000614c0e60408301856140c5565b90508260208301529392505050565b600082601f830112614c2e57600080fd5b81516020614c3e613c908361411d565b82815260c09283028501820192828201919087851115614c5d57600080fd5b8387015b8581101561420c5781818a031215614c795760008081fd5b614c81613b6e565b8151614c8c81613cc7565b815281860151614c9b81614140565b8187015260408281015190820152606080830151908201526080808301519082015260a080830151908201528452928401928101614c61565b600060208284031215614ce657600080fd5b81516001600160401b03811115614cfc57600080fd5b612d5484828501614c1d565b85815284602082015283604082015260a060608201526000614d2d60a08301856140c5565b8281036080840152614d3f81856140c5565b98975050505050505050565b8051613a2c81613a13565b600080600080600080600060e0888a031215614d7157600080fd5b8751614d7c81613a71565b6020890151909750614d8d81613cc7565b9550614d9b60408901614833565b9450614da960608901614833565b9350614db760808901614833565b925060a088015160ff81168114614dcd57600080fd5b60c0890151909250614dde81613a13565b8091505092959891949750929550565b60008060408385031215614e0157600080fd5b8251614e0c81613cc7565b6020840151909250613ea781613cc7565b600060208284031215614e2f57600080fd5b5051919050565b614e76828251805182526020810151602083015260408101516040830152606081015160608301526080810151608083015260a081015160a08301525050565b602081015160c0830152604081015160e0830152606081015161010083015261ffff60808201511661012083015260a081015161014083015260c08101516101608301525050565b60006101e0808352614ed28184018a6149af565b9050614ee16020840189613dd1565b610120614ef0818501896147c8565b61018084830381860152610320614f10848a516001600160a01b03169052565b6020890151614f24602086018260020b9052565b50604089015160408501526060890151614f4960608601826001600160a01b03169052565b506080890151614f5e608086018260020b9052565b5060a0890151614f7360a086018260020b9052565b5060c0890151614f8860c086018260020b9052565b5060e0890151614fa360e08601826001600160a01b03169052565b50610100808a01518186015250828901518385015261014092508289015183850152610160925082890151614fda84860182614e36565b50818901519250806102e0850152614ff4818501846140c5565b925050506101a08088015161030084015281935061501c818601886001600160a01b03169052565b5050506001600160a01b0383166101c0830152979650505050505050565b600061010080838503121561504e57600080fd5b604051908101906001600160401b038211818310171561507057615070613b2f565b81604052809250835181526020840151602082015260408401516040820152606084015160608201526080840151608082015260a084015160a082015260c084015160c082015260e084015160e0820152505092915050565b6000806101208084860312156150de57600080fd5b6150e8858561503a565b9250610100808501516001600160401b038082111561510657600080fd5b90860190610320828903121561511b57600080fd5b615123613bf7565b61512c8361481d565b815261513a60208401614828565b6020820152604083015160408201526151556060840161481d565b606082015261516660808401614828565b608082015261517760a08401614828565b60a082015261518860c08401614828565b60c082015261519960e0840161481d565b60e0820152838301518482015284830151858201526101409450848301518582015261016094506151cc89868501614845565b858201526102e08301519450818511156151e557600080fd5b6151f189868501614c1d565b6101808201526103008301516101a082015280955050505050509250929050565b634e487b7160e01b600052601160045260246000fd5b81810381811115612bce57612bce615212565b600061020080835261524f8184018b6140c5565b90508281036020840152615263818a6149af565b9150506152736040830188613dd1565b6152816101408301876147c8565b6101a08201949094526001600160a01b03929092166101c08301526101e090910152949350505050565b600061010082840312156152be57600080fd5b613453838361503a565b6000602082840312156152da57600080fd5b815161345381613a13565b6080815260006152f860808301876140c5565b941515602083015250600292830b6040820152910b606090910152919050565b6000610120615327838b6147c8565b88606084015287608084015286151560a08401528060c084015261534d818401876140c5565b6001600160a01b0395861660e08501529390941661010090920191909152509695505050505050565b61538081876147c8565b60e06060820152600061539660e08301876140c5565b60808301959095525091151560a08301526001600160a01b031660c09091015292915050565b60006101a06153cb838f6147c8565b8060608401526153dd8184018e6140c5565b608084019c909c52505097151560a0890152600296870b60c08901529490950b60e08701526001600160a01b039283166101008701526101208601919091528116610140850152918216610160840152166101809091015292915050565b6000610140825184526020830151602085015260408301516040850152606083015160608501526080830151615475608086018215159052565b5060a083015160a085015260c083015161549a60c08601826001600160a01b03169052565b5060e08301518160e08601526154b2828601826144a6565b915050610100808401516154ca8287018260020b9052565b5050610120808401516154e18287018260020b9052565b5090949350505050565b83815282602082015260606040820152600061550a606083018461543b565b95945050505050565b600082601f83011261552457600080fd5b8151615532613c9082613c4a565b81815284602083860101111561554757600080fd5b612d54826020830160208701614482565b6000610140828403121561556b57600080fd5b615573613b90565b9050815181526020820151602082015260408201516040820152606082015160608201526155a360808301614d4b565b608082015260a082015160a08201526155be60c0830161481d565b60c082015260e08201516001600160401b038111156155dc57600080fd5b6155e884828501615513565b60e0830152506101006155fc818401614828565b9082015261012061560e838201614828565b9082015292915050565b6000806040838503121561562b57600080fd5b8251915060208301516001600160401b0381111561564857600080fd5b61565485828601615558565b9150509250929050565b61566881876147c8565b60e06060820152600061567e60e083018761543b565b828103608084015261569081876140c5565b6001600160a01b0395861660a08501529390941660c09092019190915250949350505050565b600080600080608085870312156156cc57600080fd5b845193506020850151925060408501516001600160401b03808211156156f157600080fd5b6156fd88838901615558565b9350606087015191508082111561571357600080fd5b5061572087828801614c1d565b91505092959194509250565b6001600160a01b03868116825285166020820152600284900b604082015261014060608201819052600090615763838201866140c5565b915050612cee6080830184805182526020810151602083015260408101516040830152606081015160608301526080810151608083015260a081015160a08301525050565b6060815260006157bb60608301866140c5565b93151560208301525060029190910b604090910152919050565b6040815260006157e860408301856140c5565b828103602084015261550a81856140c5565b600061012080835261580e8184018b61543b565b91505061581e60208301896147c8565b608082019690965260029490940b60a08501526001600160a01b0392831660c0850152911660e08301526101009091015292915050565b6000806040838503121561586857600080fd5b505080516020909101519092909150565b6000600160ff1b820161588e5761588e615212565b5060000390565b85815260a0602082015260006158ae60a083018761543b565b82810360408401526158c081876140c5565b60608401959095525050608001529392505050565b634e487b7160e01b600052603260045260246000fd5b6000808335601e1984360301811261590257600080fd5b8301803591506001600160401b0382111561591c57600080fd5b60200191503681900382131561593157600080fd5b9250929050565b60006001820161594a5761594a615212565b5060010190565b60e0815260008651606060e084015260018060a01b0381511661014084015260208101511515610160840152604081015161018084015260608101516101a084015263ffffffff6080820151166101c084015260a08101516159bc6101e085018263ffffffff169052565b5060c0015160e06102008401526159d76102208401826140c5565b60208981015161010086015260408a01516101208601529092506159fe91508301876147c8565b93151560808201526001600160a01b039290921660a083015260c09091015292915050565b8681526001600160a01b038681166020830152610100820190615a4960408401886147c8565b9490941660a082015291151560c083015260e0909101529392505050565b80820180821115612bce57612bce615212565b60006102a0615a8a84845161438f565b6020830151816060860152615aa1828601826140c5565b915050604083015160018060a01b0380821660808701528060608601511660a087015250506080830151151560c085015260a0830151615ae460e0860182614e36565b5060c0830151615afa61026086018260020b9052565b5060e08301516102808501528091505092915050565b85815260a060208201526000615b2960a0830187615a7a565b63ffffffff959095166040830152506001600160a01b039283166060820152911660809091015292915050565b60008060408385031215615b6957600080fd5b8251915060208301516001600160401b03811115615b8657600080fd5b61565485828601614c1d565b615b9c818661438f565b60c060608201526000615bb260c08301866140c5565b93151560808301525060a0015292915050565b848152608060208201526000615bde6080830186615a7a565b6001600160a01b039490941660408301525063ffffffff9190911660609091015292915050565b60008251615c17818460208701614482565b9190910192915050565b60208152600061345360208301846144a656fe416464726573733a206c6f772d6c6576656c2064656c65676174652063616c6c206661696c6564a2646970667358221220f5ee32850663ab8d3772aea2e4ccecb1b0701af4ffb5aa41d47183d7c31ec6c164736f6c63430008150033",
    "linkReferences": {
      "src/MarginPositionHelper.sol": {
        "MarginPositionHelper": [
          {
            "start": 1984,
            "length": 20
          },
          {
            "start": 2593,
            "length": 20
          },
          {
            "start": 3557,
            "length": 20
          },
          {
            "start": 4316,
            "length": 20
          },
          {
            "start": 4600,
            "length": 20
          },
          {
            "start": 4795,
            "length": 20
          },
          {
            "start": 7158,
            "length": 20
          },
          {
            "start": 7327,
            "length": 20
          },
          {
            "start": 7389,
            "length": 20
          },
          {
            "start": 8660,
            "length": 20
          },
          {
            "start": 8904,
            "length": 20
          },
          {
            "start": 9822,
            "length": 20
          },
          {
            "start": 10010,
            "length": 20
          },
          {
            "start": 11358,
            "length": 20
          }
        ]
      },
      "src/PremiumComputer.sol": {
        "PremiumComputer": [
          {
            "start": 9087,
            "length": 20
          },
          {
            "start": 11714,
            "length": 20
          },
          {
            "start": 12925,
            "length": 20
          },
          {
            "start": 13302,
            "length": 20
          }
        ]
      },
      "src/Util.sol": {
        "Utils": [
          {
            "start": 3221,
            "length": 20
          },
          {
            "start": 3996,
            "length": 20
          },
          {
            "start": 4191,
            "length": 20
          },
          {
            "start": 6993,
            "length": 20
          },
          {
            "start": 9242,
            "length": 20
          },
          {
            "start": 9705,
            "length": 20
          }
        ]
      }
    }
  },
  "methodIdentifiers": {
    "PremiumDeposit(bytes32)": "5d4936ff",
    "_initialize(address,address)": "e5c9c2ed",
    "addPosition((address,address,uint24),(uint256,uint256,uint256,uint256,bool,uint256,address,bytes,int24,int24),(int24,uint128,uint256,uint256,uint256,uint256)[])": "8be8efa2",
    "approveTokens(address,address)": "3eb4adab",
    "canForceClose(((address,bool,uint256,uint256,uint32,uint32,(int24,uint128,uint256,uint256,uint256,uint256)[]),uint256,uint256))": "ff9912cd",
    "canForceClose((address,address,uint24),((address,bool,uint256,uint256,uint32,uint32,(int24,uint128,uint256,uint256,uint256,uint256)[]),uint256,uint256),address,address,bool)": "b8541526",
    "cancelOrder(address,bool,bool)": "28ec7232",
    "checkPositionExists(address,address,bool)": "f2edf95a",
    "depositPremium((address,address,uint24),address,bool,uint256)": "dbe5f6cb",
    "executioner()": "dc6ab02f",
    "forceClose((address,address,uint24),(address,bool,uint256,int24,int24))": "5277a324",
    "getBorrowInfo(address,address,bool)": "657b5a4b",
    "getLastRepayTime(address,address,bool)": "d93a9047",
    "getOrderId(address,address,bool,bool)": "bfd4c2a5",
    "getPosition(address,address,bool)": "8c1395f8",
    "getPositionId(address,address,bool)": "f6f0ea89",
    "initialize(address,address)": "485cc955",
    "multicall(bytes[])": "ac9650d8",
    "orders(bytes32)": "9c3f1e90",
    "payPremium((address,address,uint24),bool,uint256)": "de074f10",
    "positions(bytes32)": "514ea4bf",
    "reducePosition((address,address,uint24),(bool,uint256,uint256,address,uint256,bytes,int24,int24,uint256))": "27bd6f83",
    "setOwner(address)": "13af4035",
    "setPauseConfig(bool,bool,bool)": "fee744d7",
    "setProtocolContracts(address,address)": "b68e3c33",
    "submitOrder(address,bool,bool,uint256,uint256,uint256,uint256,uint256,uint256)": "228e062a",
    "withdrawPremium((address,address,uint24),bool,uint256)": "025df9e4"
  },
  "id": 45
}