{
  "_format": "hh-sol-artifact-1",
  "contractName": "NonfungiblePositionManager",
  "sourceName": "src/periphery/NonfungiblePositionManager.sol",
  "abi": [
    {
      "inputs": [],
      "name": "T",
      "type": "error"
    },
    {
      "anonymous": false,
      "inputs": [
        {
          "indexed": true,
          "internalType": "address",
          "name": "owner",
          "type": "address"
        },
        {
          "indexed": true,
          "internalType": "address",
          "name": "approved",
          "type": "address"
        },
        {
          "indexed": true,
          "internalType": "uint256",
          "name": "tokenId",
          "type": "uint256"
        }
      ],
      "name": "Approval",
      "type": "event"
    },
    {
      "anonymous": false,
      "inputs": [
        {
          "indexed": true,
          "internalType": "address",
          "name": "owner",
          "type": "address"
        },
        {
          "indexed": true,
          "internalType": "address",
          "name": "operator",
          "type": "address"
        },
        {
          "indexed": false,
          "internalType": "bool",
          "name": "approved",
          "type": "bool"
        }
      ],
      "name": "ApprovalForAll",
      "type": "event"
    },
    {
      "anonymous": false,
      "inputs": [
        {
          "indexed": true,
          "internalType": "uint256",
          "name": "tokenId",
          "type": "uint256"
        },
        {
          "indexed": false,
          "internalType": "address",
          "name": "recipient",
          "type": "address"
        },
        {
          "indexed": false,
          "internalType": "uint256",
          "name": "amount0",
          "type": "uint256"
        },
        {
          "indexed": false,
          "internalType": "uint256",
          "name": "amount1",
          "type": "uint256"
        }
      ],
      "name": "Collect",
      "type": "event"
    },
    {
      "anonymous": false,
      "inputs": [
        {
          "indexed": true,
          "internalType": "uint256",
          "name": "tokenId",
          "type": "uint256"
        },
        {
          "indexed": false,
          "internalType": "uint128",
          "name": "liquidity",
          "type": "uint128"
        },
        {
          "indexed": false,
          "internalType": "uint256",
          "name": "amount0",
          "type": "uint256"
        },
        {
          "indexed": false,
          "internalType": "uint256",
          "name": "amount1",
          "type": "uint256"
        }
      ],
      "name": "DecreaseLiquidity",
      "type": "event"
    },
    {
      "anonymous": false,
      "inputs": [
        {
          "indexed": true,
          "internalType": "uint256",
          "name": "tokenId",
          "type": "uint256"
        },
        {
          "indexed": false,
          "internalType": "uint128",
          "name": "liquidity",
          "type": "uint128"
        },
        {
          "indexed": false,
          "internalType": "uint256",
          "name": "amount0",
          "type": "uint256"
        },
        {
          "indexed": false,
          "internalType": "uint256",
          "name": "amount1",
          "type": "uint256"
        }
      ],
      "name": "IncreaseLiquidity",
      "type": "event"
    },
    {
      "anonymous": false,
      "inputs": [
        {
          "indexed": false,
          "internalType": "uint8",
          "name": "version",
          "type": "uint8"
        }
      ],
      "name": "Initialized",
      "type": "event"
    },
    {
      "anonymous": false,
      "inputs": [
        {
          "indexed": true,
          "internalType": "address",
          "name": "from",
          "type": "address"
        },
        {
          "indexed": true,
          "internalType": "address",
          "name": "to",
          "type": "address"
        },
        {
          "indexed": true,
          "internalType": "uint256",
          "name": "tokenId",
          "type": "uint256"
        }
      ],
      "name": "Transfer",
      "type": "event"
    },
    {
      "inputs": [
        {
          "internalType": "address",
          "name": "to",
          "type": "address"
        },
        {
          "internalType": "uint256",
          "name": "tokenId",
          "type": "uint256"
        }
      ],
      "name": "approve",
      "outputs": [],
      "stateMutability": "nonpayable",
      "type": "function"
    },
    {
      "inputs": [
        {
          "internalType": "address",
          "name": "owner",
          "type": "address"
        }
      ],
      "name": "balanceOf",
      "outputs": [
        {
          "internalType": "uint256",
          "name": "",
          "type": "uint256"
        }
      ],
      "stateMutability": "view",
      "type": "function"
    },
    {
      "inputs": [
        {
          "internalType": "uint256",
          "name": "tokenId",
          "type": "uint256"
        }
      ],
      "name": "burn",
      "outputs": [
        {
          "internalType": "bool",
          "name": "",
          "type": "bool"
        }
      ],
      "stateMutability": "nonpayable",
      "type": "function"
    },
    {
      "inputs": [
        {
          "components": [
            {
              "internalType": "uint256",
              "name": "tokenId",
              "type": "uint256"
            },
            {
              "internalType": "address",
              "name": "recipient",
              "type": "address"
            }
          ],
          "internalType": "struct NonfungiblePositionManager.CollectParams",
          "name": "params",
          "type": "tuple"
        }
      ],
      "name": "collect",
      "outputs": [
        {
          "internalType": "uint256",
          "name": "tokensOwed0",
          "type": "uint256"
        },
        {
          "internalType": "uint256",
          "name": "tokensOwed1",
          "type": "uint256"
        }
      ],
      "stateMutability": "nonpayable",
      "type": "function"
    },
    {
      "inputs": [
        {
          "components": [
            {
              "internalType": "uint256",
              "name": "tokenId",
              "type": "uint256"
            },
            {
              "internalType": "uint128",
              "name": "liquidity",
              "type": "uint128"
            },
            {
              "internalType": "uint256",
              "name": "amount0Min",
              "type": "uint256"
            },
            {
              "internalType": "uint256",
              "name": "amount1Min",
              "type": "uint256"
            },
            {
              "internalType": "uint256",
              "name": "deadline",
              "type": "uint256"
            }
          ],
          "internalType": "struct NonfungiblePositionManager.DecreaseLiquidityParams",
          "name": "params",
          "type": "tuple"
        }
      ],
      "name": "decreaseLiquidity",
      "outputs": [
        {
          "internalType": "uint256",
          "name": "amount0",
          "type": "uint256"
        },
        {
          "internalType": "uint256",
          "name": "amount1",
          "type": "uint256"
        }
      ],
      "stateMutability": "nonpayable",
      "type": "function"
    },
    {
      "inputs": [
        {
          "internalType": "uint256",
          "name": "tokenId",
          "type": "uint256"
        }
      ],
      "name": "fetchLatestTotalFeeGrowth",
      "outputs": [
        {
          "internalType": "uint256",
          "name": "totalFeeGrowthInside0LastX128",
          "type": "uint256"
        },
        {
          "internalType": "uint256",
          "name": "totalFeeGrowthInside1LastX128",
          "type": "uint256"
        }
      ],
      "stateMutability": "view",
      "type": "function"
    },
    {
      "inputs": [
        {
          "internalType": "uint256",
          "name": "tokenId",
          "type": "uint256"
        }
      ],
      "name": "getApproved",
      "outputs": [
        {
          "internalType": "address",
          "name": "",
          "type": "address"
        }
      ],
      "stateMutability": "view",
      "type": "function"
    },
    {
      "inputs": [
        {
          "components": [
            {
              "internalType": "uint256",
              "name": "tokenId",
              "type": "uint256"
            },
            {
              "internalType": "uint256",
              "name": "amount0Max",
              "type": "uint256"
            },
            {
              "internalType": "uint256",
              "name": "amount1Max",
              "type": "uint256"
            },
            {
              "internalType": "uint256",
              "name": "amount0Desired",
              "type": "uint256"
            },
            {
              "internalType": "uint256",
              "name": "amount1Desired",
              "type": "uint256"
            },
            {
              "internalType": "uint256",
              "name": "amount0Min",
              "type": "uint256"
            },
            {
              "internalType": "uint256",
              "name": "amount1Min",
              "type": "uint256"
            },
            {
              "internalType": "uint256",
              "name": "deadline",
              "type": "uint256"
            }
          ],
          "internalType": "struct NonfungiblePositionManager.IncreaseLiquidityParams",
          "name": "params",
          "type": "tuple"
        }
      ],
      "name": "increaseLiquidity",
      "outputs": [
        {
          "internalType": "uint128",
          "name": "liquidity",
          "type": "uint128"
        },
        {
          "internalType": "uint256",
          "name": "amount0",
          "type": "uint256"
        },
        {
          "internalType": "uint256",
          "name": "amount1",
          "type": "uint256"
        }
      ],
      "stateMutability": "nonpayable",
      "type": "function"
    },
    {
      "inputs": [
        {
          "internalType": "address",
          "name": "_poolManager",
          "type": "address"
        }
      ],
      "name": "initialize",
      "outputs": [],
      "stateMutability": "nonpayable",
      "type": "function"
    },
    {
      "inputs": [
        {
          "internalType": "address",
          "name": "owner",
          "type": "address"
        },
        {
          "internalType": "address",
          "name": "operator",
          "type": "address"
        }
      ],
      "name": "isApprovedForAll",
      "outputs": [
        {
          "internalType": "bool",
          "name": "",
          "type": "bool"
        }
      ],
      "stateMutability": "view",
      "type": "function"
    },
    {
      "inputs": [
        {
          "components": [
            {
              "internalType": "address",
              "name": "token0",
              "type": "address"
            },
            {
              "internalType": "address",
              "name": "token1",
              "type": "address"
            },
            {
              "internalType": "uint24",
              "name": "fee",
              "type": "uint24"
            },
            {
              "internalType": "int24",
              "name": "tickLower",
              "type": "int24"
            },
            {
              "internalType": "int24",
              "name": "tickUpper",
              "type": "int24"
            },
            {
              "internalType": "uint256",
              "name": "amount0Max",
              "type": "uint256"
            },
            {
              "internalType": "uint256",
              "name": "amount1Max",
              "type": "uint256"
            },
            {
              "internalType": "uint256",
              "name": "amount0Desired",
              "type": "uint256"
            },
            {
              "internalType": "uint256",
              "name": "amount1Desired",
              "type": "uint256"
            },
            {
              "internalType": "uint256",
              "name": "amount0Min",
              "type": "uint256"
            },
            {
              "internalType": "uint256",
              "name": "amount1Min",
              "type": "uint256"
            },
            {
              "internalType": "address",
              "name": "recipient",
              "type": "address"
            },
            {
              "internalType": "uint256",
              "name": "deadline",
              "type": "uint256"
            }
          ],
          "internalType": "struct NonfungiblePositionManager.MintParams",
          "name": "params",
          "type": "tuple"
        }
      ],
      "name": "mint",
      "outputs": [
        {
          "internalType": "uint256",
          "name": "tokenId",
          "type": "uint256"
        },
        {
          "internalType": "uint256",
          "name": "amount0",
          "type": "uint256"
        },
        {
          "internalType": "uint256",
          "name": "amount1",
          "type": "uint256"
        },
        {
          "internalType": "uint128",
          "name": "liquidity",
          "type": "uint128"
        }
      ],
      "stateMutability": "nonpayable",
      "type": "function"
    },
    {
      "inputs": [
        {
          "internalType": "bytes[]",
          "name": "data",
          "type": "bytes[]"
        }
      ],
      "name": "multicall",
      "outputs": [
        {
          "internalType": "bytes[]",
          "name": "results",
          "type": "bytes[]"
        }
      ],
      "stateMutability": "nonpayable",
      "type": "function"
    },
    {
      "inputs": [],
      "name": "name",
      "outputs": [
        {
          "internalType": "string",
          "name": "",
          "type": "string"
        }
      ],
      "stateMutability": "view",
      "type": "function"
    },
    {
      "inputs": [
        {
          "internalType": "uint256",
          "name": "tokenId",
          "type": "uint256"
        }
      ],
      "name": "ownerOf",
      "outputs": [
        {
          "internalType": "address",
          "name": "",
          "type": "address"
        }
      ],
      "stateMutability": "view",
      "type": "function"
    },
    {
      "inputs": [
        {
          "internalType": "uint256",
          "name": "tokenId",
          "type": "uint256"
        }
      ],
      "name": "positions",
      "outputs": [
        {
          "internalType": "address",
          "name": "owner",
          "type": "address"
        },
        {
          "internalType": "address",
          "name": "token0",
          "type": "address"
        },
        {
          "internalType": "address",
          "name": "token1",
          "type": "address"
        },
        {
          "internalType": "uint24",
          "name": "fee",
          "type": "uint24"
        },
        {
          "internalType": "int24",
          "name": "tickLower",
          "type": "int24"
        },
        {
          "internalType": "int24",
          "name": "tickUpper",
          "type": "int24"
        },
        {
          "internalType": "uint128",
          "name": "liquidity",
          "type": "uint128"
        },
        {
          "internalType": "uint256",
          "name": "feeGrowthInside0LastX128",
          "type": "uint256"
        },
        {
          "internalType": "uint256",
          "name": "feeGrowthInside1LastX128",
          "type": "uint256"
        },
        {
          "internalType": "uint128",
          "name": "tokensOwed0",
          "type": "uint128"
        },
        {
          "internalType": "uint128",
          "name": "tokensOwed1",
          "type": "uint128"
        }
      ],
      "stateMutability": "view",
      "type": "function"
    },
    {
      "inputs": [
        {
          "internalType": "address",
          "name": "from",
          "type": "address"
        },
        {
          "internalType": "address",
          "name": "to",
          "type": "address"
        },
        {
          "internalType": "uint256",
          "name": "tokenId",
          "type": "uint256"
        }
      ],
      "name": "safeTransferFrom",
      "outputs": [],
      "stateMutability": "nonpayable",
      "type": "function"
    },
    {
      "inputs": [
        {
          "internalType": "address",
          "name": "from",
          "type": "address"
        },
        {
          "internalType": "address",
          "name": "to",
          "type": "address"
        },
        {
          "internalType": "uint256",
          "name": "tokenId",
          "type": "uint256"
        },
        {
          "internalType": "bytes",
          "name": "data",
          "type": "bytes"
        }
      ],
      "name": "safeTransferFrom",
      "outputs": [],
      "stateMutability": "nonpayable",
      "type": "function"
    },
    {
      "inputs": [
        {
          "internalType": "address",
          "name": "operator",
          "type": "address"
        },
        {
          "internalType": "bool",
          "name": "approved",
          "type": "bool"
        }
      ],
      "name": "setApprovalForAll",
      "outputs": [],
      "stateMutability": "nonpayable",
      "type": "function"
    },
    {
      "inputs": [
        {
          "internalType": "bytes4",
          "name": "interfaceId",
          "type": "bytes4"
        }
      ],
      "name": "supportsInterface",
      "outputs": [
        {
          "internalType": "bool",
          "name": "",
          "type": "bool"
        }
      ],
      "stateMutability": "view",
      "type": "function"
    },
    {
      "inputs": [],
      "name": "symbol",
      "outputs": [
        {
          "internalType": "string",
          "name": "",
          "type": "string"
        }
      ],
      "stateMutability": "view",
      "type": "function"
    },
    {
      "inputs": [
        {
          "internalType": "uint256",
          "name": "index",
          "type": "uint256"
        }
      ],
      "name": "tokenByIndex",
      "outputs": [
        {
          "internalType": "uint256",
          "name": "",
          "type": "uint256"
        }
      ],
      "stateMutability": "view",
      "type": "function"
    },
    {
      "inputs": [
        {
          "internalType": "address",
          "name": "owner",
          "type": "address"
        },
        {
          "internalType": "uint256",
          "name": "index",
          "type": "uint256"
        }
      ],
      "name": "tokenOfOwnerByIndex",
      "outputs": [
        {
          "internalType": "uint256",
          "name": "",
          "type": "uint256"
        }
      ],
      "stateMutability": "view",
      "type": "function"
    },
    {
      "inputs": [
        {
          "internalType": "uint256",
          "name": "tokenId",
          "type": "uint256"
        }
      ],
      "name": "tokenURI",
      "outputs": [
        {
          "internalType": "string",
          "name": "",
          "type": "string"
        }
      ],
      "stateMutability": "view",
      "type": "function"
    },
    {
      "inputs": [],
      "name": "totalSupply",
      "outputs": [
        {
          "internalType": "uint256",
          "name": "",
          "type": "uint256"
        }
      ],
      "stateMutability": "view",
      "type": "function"
    },
    {
      "inputs": [
        {
          "internalType": "address",
          "name": "from",
          "type": "address"
        },
        {
          "internalType": "address",
          "name": "to",
          "type": "address"
        },
        {
          "internalType": "uint256",
          "name": "tokenId",
          "type": "uint256"
        }
      ],
      "name": "transferFrom",
      "outputs": [],
      "stateMutability": "nonpayable",
      "type": "function"
    },
    {
      "inputs": [
        {
          "internalType": "int256",
          "name": "amount0Delta",
          "type": "int256"
        },
        {
          "internalType": "int256",
          "name": "amount1Delta",
          "type": "int256"
        },
        {
          "internalType": "bytes",
          "name": "data",
          "type": "bytes"
        }
      ],
      "name": "uniswapV3SwapCallback",
      "outputs": [],
      "stateMutability": "nonpayable",
      "type": "function"
    },
    {
      "inputs": [
        {
          "components": [
            {
              "internalType": "address",
              "name": "token0",
              "type": "address"
            },
            {
              "internalType": "address",
              "name": "token1",
              "type": "address"
            },
            {
              "internalType": "uint24",
              "name": "fee",
              "type": "uint24"
            }
          ],
          "internalType": "struct PoolKey",
          "name": "key",
          "type": "tuple"
        },
        {
          "internalType": "address",
          "name": "tokenProvided",
          "type": "address"
        },
        {
          "internalType": "uint256",
          "name": "tokenAmount",
          "type": "uint256"
        },
        {
          "internalType": "int24",
          "name": "lower",
          "type": "int24"
        },
        {
          "internalType": "int24",
          "name": "upper",
          "type": "int24"
        },
        {
          "internalType": "int24",
          "name": "maxSlippage",
          "type": "int24"
        }
      ],
      "name": "zapAndMint",
      "outputs": [
        {
          "components": [
            {
              "internalType": "uint256",
              "name": "tokenId",
              "type": "uint256"
            },
            {
              "internalType": "uint256",
              "name": "amount1In",
              "type": "uint256"
            },
            {
              "internalType": "uint256",
              "name": "amount0In",
              "type": "uint256"
            },
            {
              "internalType": "uint128",
              "name": "liquidity",
              "type": "uint128"
            },
            {
              "internalType": "uint256",
              "name": "token0Out",
              "type": "uint256"
            },
            {
              "internalType": "uint256",
              "name": "token1Out",
              "type": "uint256"
            }
          ],
          "internalType": "struct NonfungiblePositionManager.ZapReturnVars",
          "name": "returnVars",
          "type": "tuple"
        }
      ],
      "stateMutability": "nonpayable",
      "type": "function"
    }
  ],
  "bytecode": "0x608060405234801561001057600080fd5b50615c1580620000216000396000f3fe608060405234801561001057600080fd5b50600436106101a95760003560e01c806370a08231116100f9578063c4d66de811610097578063e85d0daf11610071578063e85d0daf14610593578063e985e9c5146105a6578063efee9426146105e2578063fa461e331461061e57600080fd5b8063c4d66de814610535578063c87b56dd14610548578063d8e3af1f1461055b57600080fd5b8063a22cb465116100d3578063a22cb465146104dc578063ac9650d8146104ef578063b88d4fde1461050f578063c181596c1461052257600080fd5b806370a082311461033f57806395d89b411461035257806399fbab881461035a57600080fd5b806323b872dd1161016657806342966c681161014057806342966c681461029e5780634f6ccce7146102b15780636352211e146102c4578063696d2fa4146102d757600080fd5b806323b872dd146102655780632f745c591461027857806342842e0e1461028b57600080fd5b806301ffc9a7146101ae57806306fdde03146101d6578063081812fc146101eb578063095ea7b3146102165780630c49ccbe1461022b57806318160ddd14610253575b600080fd5b6101c16101bc366004614b82565b610631565b60405190151581526020015b60405180910390f35b6101de61065c565b6040516101cd9190614bef565b6101fe6101f9366004614c02565b6106ee565b6040516001600160a01b0390911681526020016101cd565b610229610224366004614c30565b610715565b005b61023e610239366004614c5c565b61082f565b604080519283526020830191909152016101cd565b6099545b6040519081526020016101cd565b610229610273366004614c6e565b610c5b565b610257610286366004614c30565b610c8c565b610229610299366004614c6e565b610d22565b6101c16102ac366004614c02565b610d3d565b6102576102bf366004614c02565b610e8c565b6101fe6102d2366004614c02565b610f1f565b6102ea6102e5366004614d23565b610f7f565b6040516101cd9190600060c0820190508251825260208301516020830152604083015160408301526001600160801b0360608401511660608301526080830151608083015260a083015160a083015292915050565b61025761034d366004614df3565b611cb9565b6101de611d3f565b61045f610368366004614c02565b600081815260ca6020908152604080832081516101008101835281546001600160a01b038082168352600160a01b808304600290810b858901908152600160b81b909404810b8588019081526001808801546001600160801b039081166060808a01918252948a015460808a0190815260038b015460a08b019081526004909b015480841660c08c01908152600160801b90910490931660e08b019081529e8e5260c98d529c8b90208b519586018c52805488168087529301549687169b85018c90529490950462ffffff169290980182905294519351945191519851955192519951939a96999798909794969195909490939091565b604080516001600160a01b039c8d1681529a8c1660208c01529a9098169989019990995262ffffff9095166060880152600293840b60808801529190920b60a08601526001600160801b0391821660c086015260e085015261010084019190915292831661012083015291909116610140820152610160016101cd565b6102296104ea366004614e1e565b611d4e565b6105026104fd366004614e57565b611d5d565b6040516101cd9190614ecc565b61022961051d366004614f2e565b611e52565b61023e610530366004614c02565b611e8a565b610229610543366004614df3565b611fdb565b6101de610556366004614c02565b612168565b61056e610569366004614ff2565b6121dc565b604080516001600160801b0390941684526020840192909252908201526060016101cd565b61023e6105a1366004615005565b61248f565b6101c16105b4366004615017565b6001600160a01b039182166000908152606a6020908152604080832093909416825291909152205460ff1690565b6105f56105f0366004615045565b61288f565b604080519485526020850193909352918301526001600160801b031660608201526080016101cd565b61022961062c366004615058565b612caf565b60006001600160e01b0319821663780e9d6360e01b1480610656575061065682612e5d565b92915050565b60606065805461066b906150d8565b80601f0160208091040260200160405190810160405280929190818152602001828054610697906150d8565b80156106e45780601f106106b9576101008083540402835291602001916106e4565b820191906000526020600020905b8154815290600101906020018083116106c757829003601f168201915b5050505050905090565b60006106f982612ead565b506000908152606960205260409020546001600160a01b031690565b600061072082610f1f565b9050806001600160a01b0316836001600160a01b0316036107925760405162461bcd60e51b815260206004820152602160248201527f4552433732313a20617070726f76616c20746f2063757272656e74206f776e656044820152603960f91b60648201526084015b60405180910390fd5b336001600160a01b03821614806107ae57506107ae81336105b4565b6108205760405162461bcd60e51b815260206004820152603d60248201527f4552433732313a20617070726f76652063616c6c6572206973206e6f7420746f60448201527f6b656e206f776e6572206f7220617070726f76656420666f7220616c6c0000006064820152608401610789565b61082a8383612f0f565b505050565b600080823561083e3382612f7d565b61085a5760405162461bcd60e51b81526004016107899061510c565b8360800135804211156108a55760405162461bcd60e51b8152602060048201526013602482015272151c985b9cd858dd1a5bdb881d1bdbc81bdb19606a1b6044820152606401610789565b60006108b76040870160208801615147565b6001600160801b0316116108f65760405162461bcd60e51b815260040161078990602080825260049082015263306c697160e01b604082015260600190565b8435600081815260c960209081526040808320815160608101835281546001600160a01b03908116825260019283015490811682860152600160a01b900462ffffff168184015294845260ca835292819020928301546001600160801b031691610964918a01908a01615147565b6001600160801b0316816001600160801b031610156109ab5760405162461bcd60e51b8152602060048201526003602482015262706f7360e81b6044820152606401610789565b60cc5482546001600160a01b039091169063abf978e4908590600160a01b8104600290810b91600160b81b9004900b6109ea60408e0160208f01615147565b6040518563ffffffff1660e01b8152600401610a099493929190615190565b60408051808303816000875af1158015610a27573d6000803e3d6000fd5b505050506040513d601f19601f82011682018060405250810190610a4b91906151c8565b909750955060408801358710801590610a68575087606001358610155b610aa55760405162461bcd60e51b815260206004820152600e60248201526d736c69707061676520636865636b60901b6044820152606401610789565b600080610ab28a35611e8a565b9150915088610ade856002015484610aca9190615202565b856001600160801b0316600160801b612ffc565b610ae89190615215565b600485018054600090610b059084906001600160801b0316615215565b92506101000a8154816001600160801b0302191690836001600160801b0316021790555087610b3d856003015483610aca9190615202565b610b479190615215565b600485018054601090610b6b908490600160801b90046001600160801b0316615215565b82546001600160801b039182166101009390930a9283029190920219909116179055506002840182905560038401819055610bac60408b0160208c01615147565b600185018054600090610bc99084906001600160801b0316615235565b92506101000a8154816001600160801b0302191690836001600160801b0316021790555089600001357f26f6a048ee9138f2c0ce266f322cb99228e8d619ae2bff30c67f8dcf9d2377b48b6020016020810190610c269190615147565b604080516001600160801b039092168252602082018d905281018b90526060015b60405180910390a250505050505050915091565b610c653382612f7d565b610c815760405162461bcd60e51b815260040161078990615255565b61082a8383836130da565b6000610c9783611cb9565b8210610cf95760405162461bcd60e51b815260206004820152602b60248201527f455243373231456e756d657261626c653a206f776e657220696e646578206f7560448201526a74206f6620626f756e647360a81b6064820152608401610789565b506001600160a01b03919091166000908152609760209081526040808320938352929052205490565b61082a83838360405180602001604052806000815250611e52565b600081610d4a3382612f7d565b610d665760405162461bcd60e51b81526004016107899061510c565b600083815260ca602090815260409182902082516101008101845281546001600160a01b0381168252600160a01b8104600290810b94830194909452600160b81b9004830b9381019390935260018101546001600160801b0390811660608501819052928201546080850152600382015460a085015260049091015480821660c0850152600160801b90041660e0830152606410801590610e12575060c08101516001600160801b0316155b8015610e29575060e08101516001600160801b0316155b610e37576000925050610e86565b600084815260ca6020526040812080546001600160d01b03191681556001810180546001600160801b0319169055600281018290556003810182905560040155610e808461324b565b60019250505b50919050565b6000610e9760995490565b8210610efa5760405162461bcd60e51b815260206004820152602c60248201527f455243373231456e756d657261626c653a20676c6f62616c20696e646578206f60448201526b7574206f6620626f756e647360a01b6064820152608401610789565b60998281548110610f0d57610f0d6152a2565b90600052602060002001549050919050565b6000818152606760205260408120546001600160a01b0316806106565760405162461bcd60e51b8152602060048201526018602482015277115490cdcc8c4e881a5b9d985b1a59081d1bdad95b88125160421b6044820152606401610789565b610fc16040518060c0016040528060008152602001600081526020016000815260200160006001600160801b0316815260200160008152602001600081525090565b6040805161014081018252600080825260208201819052918101829052606081018290526080810182905260a0810182905260c0810182905260e08101829052610100810182905261012081019190915287516001600160a01b0390811688821614825260cc54895160208b01516040808d01519051630b4c774160e11b81529390941693631698ee829361105b939291906004016152b8565b602060405180830381865afa158015611078573d6000803e3d6000fd5b505050506040513d601f19601f8201168201806040525081019061109c91906152e0565b6001600160a01b039081166101208301526040516323b872dd60e01b815233600482015230602482015260448101889052908816906323b872dd906064016020604051808303816000875af11580156110f9573d6000803e3d6000fd5b505050506040513d601f19601f8201168201806040525081019061111d91906152fd565b508061012001516001600160a01b0316633850c7bd6040518163ffffffff1660e01b815260040160e060405180830381865afa158015611161573d6000803e3d6000fd5b505050506040513d601f19601f82011682018060405250810190611185919061532c565b5050505060029190910b60208085019190915260cc548b518c8301516040808f015190516001600160a01b039094169650636519768895506111cd94929391929091016152b8565b604051602081830303815290604052805190602001206040518263ffffffff1660e01b815260040161120191815260200190565b602060405180830381865afa15801561121e573d6000803e3d6000fd5b505050506040513d601f19601f8201168201806040525081019061124291906153c4565b60020b60408201528051156112ac576112a761126182602001516132ee565b6112978360400151846040015188866020015161127e91906153e1565b611288919061541c565b6112929190615456565b6132ee565b6112a260028a615476565b613611565b6112e9565b6112e96112cc8260400151836040015188856020015161127e919061548a565b6112d983602001516132ee565b6112e460028a615476565b613684565b6001600160801b03166060820152602081015161134d90611309906132ee565b6113268360400151846040015189866020015161127e919061548a565b6113438460400151856040015189876020015161127e91906153e1565b84606001516136ba565b60a0830152608082015280511561156a57608081015161136d9087615202565b8160c00181815250506000886000015190506000896020015190506000808461012001516001600160a01b031663128acb083060018860c001516113ba8c8b60200151611292919061548a565b604080516001600160a01b038c811660208301528b168183015281518082038301815260608201928390526001600160e01b031960e089901b169092526114089594939291906064016154af565b60408051808303816000875af1158015611426573d6000803e3d6000fd5b505050506040513d601f19601f8201168201806040525081019061144a91906151c8565b915091508461012001516001600160a01b0316633850c7bd6040518163ffffffff1660e01b815260040160e060405180830381865afa158015611491573d6000803e3d6000fd5b505050506040513d601f19601f820116820180604052508101906114b5919061532c565b5050505060029190910b6020880152506114d09050816154f5565b61010086015260c0850182905260408501516020860151611514916114fc91819061127e908e9061548a565b61150987602001516132ee565b876101000151613684565b6001600160801b03166060860152602085015161155b90611534906132ee565b611551876040015188604001518c8a6020015161127e91906153e1565b8760600151613756565b60e08601525061177092505050565b60a08101516115799087615202565b8160c00181815250506000886000015190506000896020015190506000808461012001516001600160a01b031663128acb083060008860c001516115c68c8b6020015161129291906153e1565b604080516001600160a01b038c811660208301528b168183015281518082038301815260608201928390526001600160e01b031960e089901b169092526116149594939291906064016154af565b60408051808303816000875af1158015611632573d6000803e3d6000fd5b505050506040513d601f19601f8201168201806040525081019061165691906151c8565b915091508461012001516001600160a01b0316633850c7bd6040518163ffffffff1660e01b815260040160e060405180830381865afa15801561169d573d6000803e3d6000fd5b505050506040513d601f19601f820116820180604052508101906116c1919061532c565b5050505060029190910b6020880152506116dc9050826154f5565b60e086015260c085018190526020850151611721906116fa906132ee565b611717876040015188604001518c8a6020015161127e91906153e1565b8760e00151613611565b6001600160801b03166060860152604085015160208601516117659161174e91819061127e908e9061548a565b61175b87602001516132ee565b87606001516137c9565b610100860152505050505b875160405163095ea7b360e01b81526001600160a01b039091169063095ea7b3906117a390309060001990600401615511565b6020604051808303816000875af11580156117c2573d6000803e3d6000fd5b505050506040513d601f19601f820116820180604052508101906117e691906152fd565b5087602001516001600160a01b031663095ea7b3306000196040518363ffffffff1660e01b815260040161181b929190615511565b6020604051808303816000875af115801561183a573d6000803e3d6000fd5b505050506040513d601f19601f8201168201806040525081019061185e91906152fd565b50306001600160a01b031663efee9426604051806101a001604052808b600001516001600160a01b031681526020018b602001516001600160a01b031681526020018b6040015162ffffff168152602001846040015185604001518a87602001516118c9919061548a565b6118d3919061541c565b6118dd9190615456565b60020b8152602001846040015185604001518987602001516118ff91906153e1565b611909919061541c565b6119139190615456565b60020b81526020018460e00151815260200184610100015181526020016103e88560e001516103e3611945919061552a565b61194f9190615476565b81526020016103e88561010001516103e361196a919061552a565b6119749190615476565b815260200160648560e00151606361198c919061552a565b6119969190615476565b8152602001606485610100015160636119af919061552a565b6119b99190615476565b8152336020820152600019604091820152516001600160e01b031960e084901b1681526119e99190600401615541565b6080604051808303816000875af1158015611a08573d6000803e3d6000fd5b505050506040513d601f19601f82011682018060405250810190611a2c9190615614565b6001600160801b03166060860152602085015260408401528252805115611b8257604082015160c0820151611a619088615202565b611a6b9190615202565b60808301526020820151610100820151611a859190615202565b60a08301528751608083015160405163a9059cbb60e01b81526001600160a01b039092169163a9059cbb91611abf91339190600401615511565b6020604051808303816000875af1158015611ade573d6000803e3d6000fd5b505050506040513d601f19601f82011682018060405250810190611b0291906152fd565b5087602001516001600160a01b031663a9059cbb338460a001516040518363ffffffff1660e01b8152600401611b39929190615511565b6020604051808303816000875af1158015611b58573d6000803e3d6000fd5b505050506040513d601f19601f82011682018060405250810190611b7c91906152fd565b50611cae565b602082015160c0820151611b969088615202565b611ba09190615202565b60a0830152604082015160e0820151611bb99190615202565b60808301819052885160405163a9059cbb60e01b81526001600160a01b039091169163a9059cbb91611bef913391600401615511565b6020604051808303816000875af1158015611c0e573d6000803e3d6000fd5b505050506040513d601f19601f82011682018060405250810190611c3291906152fd565b5087602001516001600160a01b031663a9059cbb338460a001516040518363ffffffff1660e01b8152600401611c69929190615511565b6020604051808303816000875af1158015611c88573d6000803e3d6000fd5b505050506040513d601f19601f82011682018060405250810190611cac91906152fd565b505b509695505050505050565b60006001600160a01b038216611d235760405162461bcd60e51b815260206004820152602960248201527f4552433732313a2061646472657373207a65726f206973206e6f7420612076616044820152683634b21037bbb732b960b91b6064820152608401610789565b506001600160a01b031660009081526068602052604090205490565b60606066805461066b906150d8565b611d59338383613813565b5050565b60608167ffffffffffffffff811115611d7857611d78614caf565b604051908082528060200260200182016040528015611dab57816020015b6060815260200190600190039081611d965790505b50905060005b82811015611e4b57611e1b30858584818110611dcf57611dcf6152a2565b9050602002810190611de19190615655565b8080601f0160208091040260200160405190810160405280939291908181526020018383808284376000920191909152506138e192505050565b828281518110611e2d57611e2d6152a2565b60200260200101819052508080611e43906156a3565b915050611db1565b5092915050565b611e5c3383612f7d565b611e785760405162461bcd60e51b815260040161078990615255565b611e8484848484613906565b50505050565b600081815260ca6020908152604080832081516101008101835281546001600160a01b038082168352600160a01b808304600290810b858901908152600160b81b909404810b8588019081526001808801546001600160801b039081166060808a0191909152938901546080890152600389015460a089015260049889015480821660c08a0152600160801b90041660e08801528b8b5260c98a52888b2089519384018a528054861684520154808516998301999099529190970462ffffff168787015260cc5492519051955163a840465560e01b81528897949694958895949093169363a840465593611f859388939092913091016156bc565b60a060405180830381865afa158015611fa2573d6000803e3d6000fd5b505050506040513d601f19601f82011682018060405250810190611fc691906156f4565b80516020909101519097909650945050505050565b600054610100900460ff1615808015611ffb5750600054600160ff909116105b806120155750303b158015612015575060005460ff166001145b6120785760405162461bcd60e51b815260206004820152602e60248201527f496e697469616c697a61626c653a20636f6e747261637420697320616c72656160448201526d191e481a5b9a5d1a585b1a5e995960921b6064820152608401610789565b6000805460ff19166001179055801561209b576000805461ff0019166101001790555b6120eb6040518060400160405280601081526020016f131a5b5a5d1b195cdcc813140813919560821b8152506040518060400160405280600681526020016513135513919560d21b815250613939565b60cd8054336001600160a01b03199182161790915560cc80549091166001600160a01b0384161790556001600160b01b0160cb558015611d59576000805461ff0019169055604051600181527f7f26b83ff96e1f2b6a682f133852f6798a09c465da95921460cefb38474024989060200160405180910390a15050565b606061217382612ead565b600061218a60408051602081019091526000815290565b905060008151116121aa57604051806020016040528060008152506121d5565b806121b48461396a565b6040516020016121c592919061577c565b6040516020818303038152906040525b9392505050565b60008060008360e001358042111561222c5760405162461bcd60e51b8152602060048201526013602482015272151c985b9cd858dd1a5bdb881d1bdbc81bdb19606a1b6044820152606401610789565b8435600081815260c96020908152604080832081516060808201845282546001600160a01b03908116835260019093015480841683870190815262ffffff600160a01b92839004811685880190815299895260ca88529786902086516101808101885285518716815291518616828901529851909716878601528754938416878301528304600290810b608080890191909152600160b81b909404900b60a080880191909152948c013560c080880191909152938c013560e08701528b0135610100860152908a0135610120850152918901356101408401528801356101608301529190612319906139fd565b509197509550935060008061232e8935611e8a565b9150915061235d8360020154836123459190615202565b60018501546001600160801b0316600160801b612ffc565b60048401805460009061237a9084906001600160801b0316615215565b92506101000a8154816001600160801b0302191690836001600160801b031602179055506123b18360030154826123459190615202565b6004840180546010906123d5908490600160801b90046001600160801b0316615215565b82546101009290920a6001600160801b0381810219909316918316021790915560028501849055600385018390556001850180548b9350909160009161241d91859116615215565b82546101009290920a6001600160801b0381810219909316918316021790915560408051918b168252602082018a905281018890528a3591507f3067048beee31b25b2f1681f88dac838c8bba36af25bfb2b7cf7473a5847e35f9060600160405180910390a250505050509193909250565b600080823561249e3382612f7d565b6124ba5760405162461bcd60e51b81526004016107899061510c565b8335600090815260ca6020908152604080832060c98352818420825160608101845281546001600160a01b03908116825260019283015490811695820195909552600160a01b90940462ffffff16928401929092526004810154918101546001600160801b038084169850600160801b90930483169650909391829116156126545760cc548454604051632afe5e3960e21b81526001600160a01b039092169163abf978e491612589918791600160a01b8104600290810b92600160b81b909204900b90600090600401615190565b60408051808303816000875af11580156125a7573d6000803e3d6000fd5b505050506040513d601f19601f820116820180604052508101906125cb91906151c8565b506125d890508835611e8a565b60028601549193509150612608906125f09084615202565b60018601546001600160801b0316600160801b612ffc565b61261b906001600160801b0316886157ab565b96506126308460030154826125f09190615202565b612643906001600160801b0316876157ab565b600285018390556003850182905595505b60cc5484546040516319fa103360e01b81526001600160a01b03909216916319fa10339161269e918791600160a01b8104600290810b92600160b81b909204900b906004016157be565b60408051808303816000875af11580156126bc573d6000803e3d6000fd5b505050506040513d601f19601f820116820180604052508101906126e091906157e6565b505082516040516370a0823160e01b81523060048201526000916001600160a01b0316906370a0823190602401602060405180830381865afa15801561272a573d6000803e3d6000fd5b505050506040513d601f19601f8201168201806040525081019061274e9190615815565b60208501516040516370a0823160e01b81523060048201529192506000916001600160a01b03909116906370a0823190602401602060405180830381865afa15801561279e573d6000803e3d6000fd5b505050506040513d601f19601f820116820180604052508101906127c29190615815565b60006004880155905088156127ff578189116127de57886127e0565b815b85519099506127ff906127f960408d0160208e01614df3565b8b613ff6565b8715612837578088116128125787612814565b805b975061283785602001518b60200160208101906128319190614df3565b8a613ff6565b89357f40d0efd1a53d60ecbf40971b9daf7dc90178c3aadc7aab1765632738fa8b8f0161286a60408d0160208e01614df3565b604080516001600160a01b039092168252602082018d905281018b9052606001610c47565b60008080808080806128a76040890160208a01614df3565b6001600160a01b03166128bd60208a018a614df3565b6001600160a01b0316106128ed576128db6040890160208a01614df3565b6128e860208a018a614df3565b61290a565b6128fa6020890189614df3565b61290a60408a0160208b01614df3565b915091506129ea604051806101800160405280846001600160a01b03168152602001836001600160a01b031681526020018a604001602081019061294e919061582e565b62ffffff16815260200161296a6101808c016101608d01614df3565b6001600160a01b0316815260200161298860808c0160608d01615849565b60020b81526020016129a060a08c0160808d01615849565b60020b81526020018a60a0013581526020018a60c0013581526020018a60e0013581526020018a610100013581526020018a610120013581526020018a61014001358152506139fd565b91985096509094509250612a57612a096101808a016101608b01614df3565b60cb80546001600160b01b0316906000612a2283615866565b91906101000a8154816001600160b01b0302191690836001600160b01b031602179055506001600160b01b0316985088614100565b60408051610100810190915280612a766101808b016101608c01614df3565b6001600160a01b03168152602001612a9460808b0160608c01615849565b60020b8152602001612aac60a08b0160808c01615849565b600290810b82526001600160801b03808816602080850191909152600060408086018290526060808701839052608080880184905260a09788018490528f845260ca855292829020885181548a8701518b86015162ffffff908116600160b81b0262ffffff60b81b1991909216600160a01b026001600160b81b03199093166001600160a01b03948516179290921791909116178255898301516001830180549189166001600160801b0319909216919091179055938901519681019690965595870151600386015560c087015160e0909701518416600160801b0296909316959095176004909301929092558051808401825286851681529385169184019190915282810191612bc291908c01908c0161582e565b62ffffff908116909152600089815260c960209081526040808320855181546001600160a01b0319166001600160a01b039182161782559286015160019091018054969092015192166001600160b81b031990951694909417600160a01b91909316029190911790915580612c3689611e8a565b60008b815260ca60209081526040918290206002810185905560030183905581516001600160801b038b1681529081018c90529081018a9052919350915089907f3067048beee31b25b2f1681f88dac838c8bba36af25bfb2b7cf7473a5847e35f9060600160405180910390a250505050509193509193565b60cc5460405163089ca8dd60e01b81523360048201526001600160a01b039091169063089ca8dd90602401602060405180830381865afa158015612cf7573d6000803e3d6000fd5b505050506040513d601f19601f82011682018060405250810190612d1b91906152fd565b612d4f5760405162461bcd60e51b8152602060048201526005602482015264085c1bdbdb60da1b6044820152606401610789565b600080612d5e83850185615017565b915091506000861315612de25760405163a9059cbb60e01b81526001600160a01b0383169063a9059cbb90612d999033908a90600401615511565b6020604051808303816000875af1158015612db8573d6000803e3d6000fd5b505050506040513d601f19601f82011682018060405250810190612ddc91906152fd565b50612e55565b60405163a9059cbb60e01b81526001600160a01b0382169063a9059cbb90612e109033908990600401615511565b6020604051808303816000875af1158015612e2f573d6000803e3d6000fd5b505050506040513d601f19601f82011682018060405250810190612e5391906152fd565b505b505050505050565b60006001600160e01b031982166380ac58cd60e01b1480612e8e57506001600160e01b03198216635b5e139f60e01b145b8061065657506301ffc9a760e01b6001600160e01b0319831614610656565b6000818152606760205260409020546001600160a01b0316612f0c5760405162461bcd60e51b8152602060048201526018602482015277115490cdcc8c4e881a5b9d985b1a59081d1bdad95b88125160421b6044820152606401610789565b50565b600081815260696020526040902080546001600160a01b0319166001600160a01b0384169081179091558190612f4482610f1f565b6001600160a01b03167f8c5be1e5ebec7d5bd14f71427d1e84f3dd0314c0f7b2291e5b200ac8c7c3b92560405160405180910390a45050565b600080612f8983610f1f565b9050806001600160a01b0316846001600160a01b03161480612fd057506001600160a01b038082166000908152606a602090815260408083209388168352929052205460ff165b80612ff45750836001600160a01b0316612fe9846106ee565b6001600160a01b0316145b949350505050565b6000808060001985870985870292508281108382030391505080600003613035576000841161302a57600080fd5b5082900490506121d5565b80841161306d5760405162461bcd60e51b815260206004820152600660248201526536bab62234bb60d11b6044820152606401610789565b6000848688096000868103871696879004966002600389028118808a02820302808a02820302808a02820302808a02820302808a02820302808a02909103029181900381900460010186841190950394909402919094039290920491909117919091029150509392505050565b826001600160a01b03166130ed82610f1f565b6001600160a01b0316146131135760405162461bcd60e51b815260040161078990615894565b6001600160a01b0382166131755760405162461bcd60e51b8152602060048201526024808201527f4552433732313a207472616e7366657220746f20746865207a65726f206164646044820152637265737360e01b6064820152608401610789565b6131828383836001614299565b826001600160a01b031661319582610f1f565b6001600160a01b0316146131bb5760405162461bcd60e51b815260040161078990615894565b600081815260696020908152604080832080546001600160a01b03199081169091556001600160a01b0387811680865260688552838620805460001901905590871680865283862080546001019055868652606790945282852080549092168417909155905184937fddf252ad1be2c89b69c2b068fc378daa952ba7f163c4a11628f55a4df523b3ef91a4505050565b600061325682610f1f565b9050613266816000846001614299565b61326f82610f1f565b600083815260696020908152604080832080546001600160a01b03199081169091556001600160a01b0385168085526068845282852080546000190190558785526067909352818420805490911690555192935084927fddf252ad1be2c89b69c2b068fc378daa952ba7f163c4a11628f55a4df523b3ef908390a45050565b60008060008360020b12613305578260020b61330d565b8260020b6000035b9050620d89e8811115613333576040516315e4079d60e11b815260040160405180910390fd5b60008160011660000361334a57600160801b61335c565b6ffffcb933bd6fad37aa2d162d1a5940015b70ffffffffffffffffffffffffffffffffff1690506002821615613390576ffff97272373d413259a46990580e213a0260801c5b60048216156133af576ffff2e50f5f656932ef12357cf3c7fdcc0260801c5b60088216156133ce576fffe5caca7e10e4e61c3624eaa0941cd00260801c5b60108216156133ed576fffcb9843d60f6159c9db58835c9266440260801c5b602082161561340c576fff973b41fa98c081472e6896dfb254c00260801c5b604082161561342b576fff2ea16466c96a3843ec78b326b528610260801c5b608082161561344a576ffe5dee046a99a2a811c461f1969c30530260801c5b61010082161561346a576ffcbe86c7900a88aedcffc83b479aa3a40260801c5b61020082161561348a576ff987a7253ac413176f2b074cf7815e540260801c5b6104008216156134aa576ff3392b0822b70005940c7a398e4b70f30260801c5b6108008216156134ca576fe7159475a2c29b7443b29c7fa6e889d90260801c5b6110008216156134ea576fd097f3bdfd2022b8845ad8f792aa58250260801c5b61200082161561350a576fa9f746462d870fdf8a65dc1f90e061e50260801c5b61400082161561352a576f70d869a156d2a1b890bb3df62baf32f70260801c5b61800082161561354a576f31be135f97d08fd981231505542fcfa60260801c5b6201000082161561356b576f09aa508b5b7a84e1c677de54f3e99bc90260801c5b6202000082161561358b576e5d6af8dedb81196699c329225ee6040260801c5b620400008216156135aa576d2216e584f5fa1ea926041bedfe980260801c5b620800008216156135c7576b048a170391f7dc42444e8fa20260801c5b60008460020b13156135e85780600019816135e4576135e4615406565b0490505b6401000000008106156135fc5760016135ff565b60005b60ff16602082901c0192505050919050565b6000826001600160a01b0316846001600160a01b03161115613631579192915b6000613654856001600160a01b0316856001600160a01b0316600160601b612ffc565b905061367b613676848361366889896158d9565b6001600160a01b0316612ffc565b6143c6565b95945050505050565b6000826001600160a01b0316846001600160a01b031611156136a4579192915b612ff461367683600160601b61366888886158d9565b600080836001600160a01b0316856001600160a01b031611156136db579293925b846001600160a01b0316866001600160a01b031611613706576136ff858585613756565b915061374d565b836001600160a01b0316866001600160a01b0316101561373f5761372b868585613756565b91506137388587856137c9565b905061374d565b61374a8585856137c9565b90505b94509492505050565b6000826001600160a01b0316846001600160a01b03161115613776579192915b6001600160a01b0384166137bf6fffffffffffffffffffffffffffffffff60601b606085901b166137a787876158d9565b6001600160a01b0316866001600160a01b0316612ffc565b612ff49190615476565b6000826001600160a01b0316846001600160a01b031611156137e9579192915b612ff46001600160801b03831661380086866158d9565b6001600160a01b0316600160601b612ffc565b816001600160a01b0316836001600160a01b0316036138745760405162461bcd60e51b815260206004820152601960248201527f4552433732313a20617070726f766520746f2063616c6c6572000000000000006044820152606401610789565b6001600160a01b038381166000818152606a6020908152604080832094871680845294825291829020805460ff191686151590811790915591519182527f17307eab39ab6107e8899845ad3d59bd9653f200f220920489ca2b5937696c31910160405180910390a3505050565b60606121d58383604051806060016040528060278152602001615bb9602791396143e1565b6139118484846130da565b61391d84848484614459565b611e845760405162461bcd60e51b8152600401610789906158f9565b600054610100900460ff166139605760405162461bcd60e51b81526004016107899061594b565b611d59828261455a565b606060006139778361459a565b600101905060008167ffffffffffffffff81111561399757613997614caf565b6040519080825280601f01601f1916602001820160405280156139c1576020820181803683370190505b5090508181016020015b600019016f181899199a1a9b1b9c1cb0b131b232b360811b600a86061a8153600a85049450846139cb57509392505050565b6000806000808460a0015160020b856080015160020b12613a515760405162461bcd60e51b815260206004820152600e60248201526d151250d2d4d7d49155915494d15160921b6044820152606401610789565b60cc54855160208701516040808901519051630b4c774160e11b81526001600160a01b0390941693631698ee8293613a8f93909290916004016152b8565b602060405180830381865afa158015613aac573d6000803e3d6000fd5b505050506040513d601f19601f82011682018060405250810190613ad091906152e0565b60cc5486516020808901516040808b015190519596506000956001600160a01b0390951694636519768894613b099490939291016152b8565b604051602081830303815290604052805190602001206040518263ffffffff1660e01b8152600401613b3d91815260200190565b602060405180830381865afa158015613b5a573d6000803e3d6000fd5b505050506040513d601f19601f82011682018060405250810190613b7e91906153c4565b9050808660800151613b909190615996565b60020b158015613bb05750808660a00151613bab9190615996565b60020b155b613bf25760405162461bcd60e51b81526020600482015260136024820152725449434b535f4e4f545f444956495349424c4560681b6044820152606401610789565b6000826001600160a01b0316633850c7bd6040518163ffffffff1660e01b815260040160e060405180830381865afa158015613c32573d6000803e3d6000fd5b505050506040513d601f19601f82011682018060405250810190613c56919061532c565b50505050505090506000613c6d88608001516132ee565b90506000613c7e8960a001516132ee565b9050816001600160a01b0316836001600160a01b031611613cb057613ca982828b6101000151614672565b9750613d2f565b806001600160a01b0316836001600160a01b03161015613d1c576000613cdc84838c6101000151614672565b90506000613cf084868d610120015161471c565b9050806001600160801b0316826001600160801b031610613d115780613d13565b815b99505050613d2f565b613d2c82828b610120015161471c565b97505b50505050613d47856000015133308860c00151614752565b613d5b856020015133308860e00151614752565b845160cc5460c087015160405163095ea7b360e01b81526001600160a01b039384169363095ea7b393613d9393911691600401615511565b6020604051808303816000875af1158015613db2573d6000803e3d6000fd5b505050506040513d601f19601f82011682018060405250810190613dd691906152fd565b50602085015160cc5460e087015160405163095ea7b360e01b81526001600160a01b039384169363095ea7b393613e1293911691600401615511565b6020604051808303816000875af1158015613e31573d6000803e3d6000fd5b505050506040513d601f19601f82011682018060405250810190613e5591906152fd565b5060cc546040805160608101825287516001600160a01b0390811682526020808a01518216908301528883015162ffffff1682840152608089015160a08a01519351635c48cfd360e11b8152919094169363b8919fa693613ebd93928a9030906004016159b8565b60408051808303816000875af1158015613edb573d6000803e3d6000fd5b505050506040513d601f19601f82011682018060405250810190613eff91906151c8565b60c08701519194509250831015613f2e57613f2e856000015133858860c00151613f299190615202565b613ff6565b818560e001511115613f5357613f53856020015133848860e00151613f299190615202565b613f89604051806040016040528060098152602001680fcfcfdb5a5b9d195960ba1b815250856001600160801b03168585614854565b8461014001518310158015613fa357508461016001518210155b613fef5760405162461bcd60e51b815260206004820152601d60248201527f494e53554646494349454e545f4c49515549444954595f4d494e5445440000006044820152606401610789565b9193509193565b600080846001600160a01b031663a9059cbb60e01b858560405160240161401e929190615511565b60408051601f198184030181529181526020820180516001600160e01b03166001600160e01b031990941693909317909252905161405c9190615a01565b6000604051808303816000865af19150503d8060008114614099576040519150601f19603f3d011682016040523d82523d6000602084013e61409e565b606091505b50915091508180156140c85750805115806140c85750808060200190518101906140c891906152fd565b6140f95760405162461bcd60e51b815260206004820152600260248201526114d560f21b6044820152606401610789565b5050505050565b6001600160a01b0382166141565760405162461bcd60e51b815260206004820181905260248201527f4552433732313a206d696e7420746f20746865207a65726f20616464726573736044820152606401610789565b6000818152606760205260409020546001600160a01b0316156141bb5760405162461bcd60e51b815260206004820152601c60248201527f4552433732313a20746f6b656e20616c7265616479206d696e746564000000006044820152606401610789565b6141c9600083836001614299565b6000818152606760205260409020546001600160a01b03161561422e5760405162461bcd60e51b815260206004820152601c60248201527f4552433732313a20746f6b656e20616c7265616479206d696e746564000000006044820152606401610789565b6001600160a01b038216600081815260686020908152604080832080546001019055848352606790915280822080546001600160a01b0319168417905551839291907fddf252ad1be2c89b69c2b068fc378daa952ba7f163c4a11628f55a4df523b3ef908290a45050565b60018111156143085760405162461bcd60e51b815260206004820152603560248201527f455243373231456e756d657261626c653a20636f6e7365637574697665207472604482015274185b9cd9995c9cc81b9bdd081cdd5c1c1bdc9d1959605a1b6064820152608401610789565b816001600160a01b0385166143645761435f81609980546000838152609a60205260408120829055600182018355919091527f72a152ddfb8e864297c917af52ea6c1c68aead0fee1a62673fcc7e0c94979d000155565b614387565b836001600160a01b0316856001600160a01b03161461438757614387858261489d565b6001600160a01b0384166143a35761439e8161493a565b6140f9565b846001600160a01b0316846001600160a01b0316146140f9576140f984826149e9565b806001600160801b03811681146143dc57600080fd5b919050565b6060600080856001600160a01b0316856040516143fe9190615a01565b600060405180830381855af49150503d8060008114614439576040519150601f19603f3d011682016040523d82523d6000602084013e61443e565b606091505b509150915061444f86838387614a2d565b9695505050505050565b60006001600160a01b0384163b1561454f57604051630a85bd0160e11b81526001600160a01b0385169063150b7a029061449d903390899088908890600401615a1d565b6020604051808303816000875af19250505080156144d8575060408051601f3d908101601f191682019092526144d591810190615a50565b60015b614535573d808015614506576040519150601f19603f3d011682016040523d82523d6000602084013e61450b565b606091505b50805160000361452d5760405162461bcd60e51b8152600401610789906158f9565b805181602001fd5b6001600160e01b031916630a85bd0160e11b149050612ff4565b506001949350505050565b600054610100900460ff166145815760405162461bcd60e51b81526004016107899061594b565b606561458d8382615ab3565b50606661082a8282615ab3565b60008072184f03e93ff9f4daa797ed6e38ed64bf6a1f0160401b83106145d95772184f03e93ff9f4daa797ed6e38ed64bf6a1f0160401b830492506040015b6d04ee2d6d415b85acef81000000008310614605576d04ee2d6d415b85acef8100000000830492506020015b662386f26fc10000831061462357662386f26fc10000830492506010015b6305f5e100831061463b576305f5e100830492506008015b612710831061464f57612710830492506004015b60648310614661576064830492506002015b600a83106106565760010192915050565b6000826001600160a01b0316846001600160a01b03161115614692579192915b60006146b5856001600160a01b0316856001600160a01b0316600160601b614aa6565b905080156146ea576146e26146dd84836146cf89896158d9565b6001600160a01b0316614aa6565b614ae0565b9150506121d5565b6146e26146dd614708856001600160a01b0389166146cf8a8a6158d9565b866001600160a01b0316600160601b614aa6565b6000826001600160a01b0316846001600160a01b0316111561473c579192915b612ff46146dd83600160601b6146cf88886158d9565b604080516001600160a01b0385811660248301528481166044830152606480830185905283518084039091018152608490920183526020820180516001600160e01b03166323b872dd60e01b17905291516000928392908816916147b69190615a01565b6000604051808303816000865af19150503d80600081146147f3576040519150601f19603f3d011682016040523d82523d6000602084013e6147f8565b606091505b509150915081801561482257508051158061482257508080602001905181019061482291906152fd565b612e555760405162461bcd60e51b815260206004820152600360248201526229aa2360e91b6044820152606401610789565b611e848484848460405160240161486e9493929190615b73565b60408051601f198184030181529190526020810180516001600160e01b03166304772b3360e11b179052614b21565b600060016148aa84611cb9565b6148b49190615202565b600083815260986020526040902054909150808214614907576001600160a01b03841660009081526097602090815260408083208584528252808320548484528184208190558352609890915290208190555b5060009182526098602090815260408084208490556001600160a01b039094168352609781528383209183525290812055565b60995460009061494c90600190615202565b6000838152609a602052604081205460998054939450909284908110614974576149746152a2565b906000526020600020015490508060998381548110614995576149956152a2565b6000918252602080832090910192909255828152609a909152604080822084905585825281205560998054806149cd576149cd615ba2565b6001900381819060005260206000200160009055905550505050565b60006149f483611cb9565b6001600160a01b039093166000908152609760209081526040808320868452825280832085905593825260989052919091209190915550565b60608315614a9c578251600003614a95576001600160a01b0385163b614a955760405162461bcd60e51b815260206004820152601d60248201527f416464726573733a2063616c6c20746f206e6f6e2d636f6e74726163740000006044820152606401610789565b5081612ff4565b612ff48383614b42565b6000808060001985870985870292508281108382030391505080600003614ad4576000841161302a57600080fd5b80841161306d57600080fd5b806001600160801b03811681146143dc5760405162461bcd60e51b81526020600482015260056024820152640858d85cdd60da1b6044820152606401610789565b80516a636f6e736f6c652e6c6f67602083016000808483855afa5050505050565b815115614b525781518083602001fd5b8060405162461bcd60e51b81526004016107899190614bef565b6001600160e01b031981168114612f0c57600080fd5b600060208284031215614b9457600080fd5b81356121d581614b6c565b60005b83811015614bba578181015183820152602001614ba2565b50506000910152565b60008151808452614bdb816020860160208601614b9f565b601f01601f19169290920160200192915050565b6020815260006121d56020830184614bc3565b600060208284031215614c1457600080fd5b5035919050565b6001600160a01b0381168114612f0c57600080fd5b60008060408385031215614c4357600080fd5b8235614c4e81614c1b565b946020939093013593505050565b600060a08284031215610e8657600080fd5b600080600060608486031215614c8357600080fd5b8335614c8e81614c1b565b92506020840135614c9e81614c1b565b929592945050506040919091013590565b634e487b7160e01b600052604160045260246000fd5b604051601f8201601f1916810167ffffffffffffffff81118282101715614cee57614cee614caf565b604052919050565b803562ffffff811681146143dc57600080fd5b8060020b8114612f0c57600080fd5b80356143dc81614d09565b600080600080600080868803610100811215614d3e57600080fd5b6060811215614d4c57600080fd5b506040516060810181811067ffffffffffffffff82111715614d7057614d70614caf565b6040528735614d7e81614c1b565b81526020880135614d8e81614c1b565b6020820152614d9f60408901614cf6565b604082015295506060870135614db481614c1b565b94506080870135935060a0870135614dcb81614d09565b9250614dd960c08801614d18565b9150614de760e08801614d18565b90509295509295509295565b600060208284031215614e0557600080fd5b81356121d581614c1b565b8015158114612f0c57600080fd5b60008060408385031215614e3157600080fd5b8235614e3c81614c1b565b91506020830135614e4c81614e10565b809150509250929050565b60008060208385031215614e6a57600080fd5b823567ffffffffffffffff80821115614e8257600080fd5b818501915085601f830112614e9657600080fd5b813581811115614ea557600080fd5b8660208260051b8501011115614eba57600080fd5b60209290920196919550909350505050565b6000602080830181845280855180835260408601915060408160051b870101925083870160005b82811015614f2157603f19888603018452614f0f858351614bc3565b94509285019290850190600101614ef3565b5092979650505050505050565b60008060008060808587031215614f4457600080fd5b8435614f4f81614c1b565b9350602085810135614f6081614c1b565b935060408601359250606086013567ffffffffffffffff80821115614f8457600080fd5b818801915088601f830112614f9857600080fd5b813581811115614faa57614faa614caf565b614fbc601f8201601f19168501614cc5565b91508082528984828501011115614fd257600080fd5b808484018584013760008482840101525080935050505092959194509250565b60006101008284031215610e8657600080fd5b600060408284031215610e8657600080fd5b6000806040838503121561502a57600080fd5b823561503581614c1b565b91506020830135614e4c81614c1b565b60006101a08284031215610e8657600080fd5b6000806000806060858703121561506e57600080fd5b8435935060208501359250604085013567ffffffffffffffff8082111561509457600080fd5b818701915087601f8301126150a857600080fd5b8135818111156150b757600080fd5b8860208285010111156150c957600080fd5b95989497505060200194505050565b600181811c908216806150ec57607f821691505b602082108103610e8657634e487b7160e01b600052602260045260246000fd5b6020808252600c908201526b139bdd08185c1c1c9bdd995960a21b604082015260600190565b6001600160801b0381168114612f0c57600080fd5b60006020828403121561515957600080fd5b81356121d581615132565b80516001600160a01b0390811683526020808301519091169083015260409081015162ffffff16910152565b60c0810161519e8287615164565b8460020b60608301528360020b60808301526001600160801b03831660a083015295945050505050565b600080604083850312156151db57600080fd5b505080516020909101519092909150565b634e487b7160e01b600052601160045260246000fd5b81810381811115610656576106566151ec565b6001600160801b03818116838216019080821115611e4b57611e4b6151ec565b6001600160801b03828116828216039080821115611e4b57611e4b6151ec565b6020808252602d908201527f4552433732313a2063616c6c6572206973206e6f7420746f6b656e206f776e6560408201526c1c881bdc88185c1c1c9bdd9959609a1b606082015260800190565b634e487b7160e01b600052603260045260246000fd5b6001600160a01b03938416815291909216602082015262ffffff909116604082015260600190565b6000602082840312156152f257600080fd5b81516121d581614c1b565b60006020828403121561530f57600080fd5b81516121d581614e10565b805161ffff811681146143dc57600080fd5b600080600080600080600060e0888a03121561534757600080fd5b875161535281614c1b565b602089015190975061536381614d09565b95506153716040890161531a565b945061537f6060890161531a565b935061538d6080890161531a565b925060a088015160ff811681146153a357600080fd5b60c08901519092506153b481614e10565b8091505092959891949750929550565b6000602082840312156153d657600080fd5b81516121d581614d09565b600281810b9083900b01627fffff8113627fffff1982121715610656576106566151ec565b634e487b7160e01b600052601260045260246000fd5b60008160020b8360020b8061543357615433615406565b627fffff1982146000198214161561544d5761544d6151ec565b90059392505050565b60008260020b8260020b028060020b9150808214611e4b57611e4b6151ec565b60008261548557615485615406565b500490565b600282810b9082900b03627fffff198112627fffff82131715610656576106566151ec565b6001600160a01b0386811682528515156020830152604082018590528316606082015260a0608082018190526000906154ea90830184614bc3565b979650505050505050565b6000600160ff1b820161550a5761550a6151ec565b5060000390565b6001600160a01b03929092168252602082015260400190565b8082028115828204841417610656576106566151ec565b81516001600160a01b031681526101a08101602083015161556d60208401826001600160a01b03169052565b506040830151615584604084018262ffffff169052565b506060830151615599606084018260020b9052565b5060808301516155ae608084018260020b9052565b5060a0838101519083015260c0808401519083015260e08084015190830152610100808401519083015261012080840151908301526101408084015190830152610160808401516001600160a01b03811682850152505061018092830151919092015290565b6000806000806080858703121561562a57600080fd5b845193506020850151925060408501519150606085015161564a81615132565b939692955090935050565b6000808335601e1984360301811261566c57600080fd5b83018035915067ffffffffffffffff82111561568757600080fd5b60200191503681900382131561569c57600080fd5b9250929050565b6000600182016156b5576156b56151ec565b5060010190565b60c081016156ca8287615164565b600294850b60608301529290930b60808401526001600160a01b031660a090920191909152919050565b600060a0828403121561570657600080fd5b60405160a0810181811067ffffffffffffffff8211171561572957615729614caf565b80604052508251815260208301516020820152604083015161574a81615132565b6040820152606083015161575d81615132565b6060820152608083015161577081615132565b60808201529392505050565b6000835161578e818460208801614b9f565b8351908301906157a2818360208801614b9f565b01949350505050565b80820180821115610656576106566151ec565b60a081016157cc8286615164565b8360020b60608301528260020b6080830152949350505050565b600080604083850312156157f957600080fd5b825161580481615132565b6020840151909250614e4c81615132565b60006020828403121561582757600080fd5b5051919050565b60006020828403121561584057600080fd5b6121d582614cf6565b60006020828403121561585b57600080fd5b81356121d581614d09565b60006001600160b01b038281166002600160b01b0319810161588a5761588a6151ec565b6001019392505050565b60208082526025908201527f4552433732313a207472616e736665722066726f6d20696e636f72726563742060408201526437bbb732b960d91b606082015260800190565b6001600160a01b03828116828216039080821115611e4b57611e4b6151ec565b60208082526032908201527f4552433732313a207472616e7366657220746f206e6f6e20455243373231526560408201527131b2b4bb32b91034b6b83632b6b2b73a32b960711b606082015260800190565b6020808252602b908201527f496e697469616c697a61626c653a20636f6e7472616374206973206e6f74206960408201526a6e697469616c697a696e6760a81b606082015260800190565b60008260020b806159a9576159a9615406565b808360020b0791505092915050565b60e081016159c68288615164565b600295860b60608301529390940b60808501526001600160801b039190911660a08401526001600160a01b031660c090920191909152919050565b60008251615a13818460208701614b9f565b9190910192915050565b6001600160a01b038581168252841660208201526040810183905260806060820181905260009061444f90830184614bc3565b600060208284031215615a6257600080fd5b81516121d581614b6c565b601f82111561082a57600081815260208120601f850160051c81016020861015615a945750805b601f850160051c820191505b81811015612e5557828155600101615aa0565b815167ffffffffffffffff811115615acd57615acd614caf565b615ae181615adb84546150d8565b84615a6d565b602080601f831160018114615b165760008415615afe5750858301515b600019600386901b1c1916600185901b178555612e55565b600085815260208120601f198616915b82811015615b4557888601518255948401946001909101908401615b26565b5085821015615b635787850151600019600388901b60f8161c191681555b5050505050600190811b01905550565b608081526000615b866080830187614bc3565b6020830195909552506040810192909252606090910152919050565b634e487b7160e01b600052603160045260246000fdfe416464726573733a206c6f772d6c6576656c2064656c65676174652063616c6c206661696c6564a2646970667358221220ffb6a6145af0bd9bc092c4aabf5d0dc55433d92a35dba96bf0cedb5d1334ccd164736f6c63430008120033",
  "linkReferences": {},
  "deployedLinkReferences": {}
}