{
  "abi": [
    {
      "inputs": [
        {
          "internalType": "address",
          "name": "_poolManager",
          "type": "address"
        },
        {
          "internalType": "address",
          "name": "_factory",
          "type": "address"
        }
      ],
      "stateMutability": "nonpayable",
      "type": "constructor"
    },
    {
      "inputs": [],
      "name": "T",
      "type": "error"
    },
    {
      "anonymous": false,
      "inputs": [
        {
          "indexed": true,
          "internalType": "address",
          "name": "owner",
          "type": "address"
        },
        {
          "indexed": true,
          "internalType": "address",
          "name": "approved",
          "type": "address"
        },
        {
          "indexed": true,
          "internalType": "uint256",
          "name": "tokenId",
          "type": "uint256"
        }
      ],
      "name": "Approval",
      "type": "event"
    },
    {
      "anonymous": false,
      "inputs": [
        {
          "indexed": true,
          "internalType": "address",
          "name": "owner",
          "type": "address"
        },
        {
          "indexed": true,
          "internalType": "address",
          "name": "operator",
          "type": "address"
        },
        {
          "indexed": false,
          "internalType": "bool",
          "name": "approved",
          "type": "bool"
        }
      ],
      "name": "ApprovalForAll",
      "type": "event"
    },
    {
      "anonymous": false,
      "inputs": [
        {
          "indexed": true,
          "internalType": "uint256",
          "name": "tokenId",
          "type": "uint256"
        },
        {
          "indexed": false,
          "internalType": "address",
          "name": "recipient",
          "type": "address"
        },
        {
          "indexed": false,
          "internalType": "uint256",
          "name": "amount0",
          "type": "uint256"
        },
        {
          "indexed": false,
          "internalType": "uint256",
          "name": "amount1",
          "type": "uint256"
        }
      ],
      "name": "Collect",
      "type": "event"
    },
    {
      "anonymous": false,
      "inputs": [
        {
          "indexed": true,
          "internalType": "uint256",
          "name": "tokenId",
          "type": "uint256"
        },
        {
          "indexed": false,
          "internalType": "uint128",
          "name": "liquidity",
          "type": "uint128"
        },
        {
          "indexed": false,
          "internalType": "uint256",
          "name": "amount0",
          "type": "uint256"
        },
        {
          "indexed": false,
          "internalType": "uint256",
          "name": "amount1",
          "type": "uint256"
        }
      ],
      "name": "DecreaseLiquidity",
      "type": "event"
    },
    {
      "anonymous": false,
      "inputs": [
        {
          "indexed": true,
          "internalType": "uint256",
          "name": "tokenId",
          "type": "uint256"
        },
        {
          "indexed": false,
          "internalType": "uint128",
          "name": "liquidity",
          "type": "uint128"
        },
        {
          "indexed": false,
          "internalType": "uint256",
          "name": "amount0",
          "type": "uint256"
        },
        {
          "indexed": false,
          "internalType": "uint256",
          "name": "amount1",
          "type": "uint256"
        }
      ],
      "name": "IncreaseLiquidity",
      "type": "event"
    },
    {
      "anonymous": false,
      "inputs": [
        {
          "indexed": true,
          "internalType": "address",
          "name": "from",
          "type": "address"
        },
        {
          "indexed": true,
          "internalType": "address",
          "name": "to",
          "type": "address"
        },
        {
          "indexed": true,
          "internalType": "uint256",
          "name": "tokenId",
          "type": "uint256"
        }
      ],
      "name": "Transfer",
      "type": "event"
    },
    {
      "inputs": [
        {
          "internalType": "address",
          "name": "to",
          "type": "address"
        },
        {
          "internalType": "uint256",
          "name": "tokenId",
          "type": "uint256"
        }
      ],
      "name": "approve",
      "outputs": [],
      "stateMutability": "nonpayable",
      "type": "function"
    },
    {
      "inputs": [
        {
          "internalType": "address",
          "name": "owner",
          "type": "address"
        }
      ],
      "name": "balanceOf",
      "outputs": [
        {
          "internalType": "uint256",
          "name": "",
          "type": "uint256"
        }
      ],
      "stateMutability": "view",
      "type": "function"
    },
    {
      "inputs": [
        {
          "internalType": "uint256",
          "name": "tokenId",
          "type": "uint256"
        }
      ],
      "name": "burn",
      "outputs": [],
      "stateMutability": "nonpayable",
      "type": "function"
    },
    {
      "inputs": [
        {
          "components": [
            {
              "internalType": "uint256",
              "name": "tokenId",
              "type": "uint256"
            },
            {
              "internalType": "address",
              "name": "recipient",
              "type": "address"
            }
          ],
          "internalType": "struct INonfungiblePositionManager.CollectParams",
          "name": "params",
          "type": "tuple"
        }
      ],
      "name": "collect",
      "outputs": [
        {
          "internalType": "uint256",
          "name": "tokensOwed0",
          "type": "uint256"
        },
        {
          "internalType": "uint256",
          "name": "tokensOwed1",
          "type": "uint256"
        }
      ],
      "stateMutability": "nonpayable",
      "type": "function"
    },
    {
      "inputs": [
        {
          "components": [
            {
              "internalType": "uint256",
              "name": "tokenId",
              "type": "uint256"
            },
            {
              "internalType": "uint128",
              "name": "liquidity",
              "type": "uint128"
            },
            {
              "internalType": "uint256",
              "name": "amount0Min",
              "type": "uint256"
            },
            {
              "internalType": "uint256",
              "name": "amount1Min",
              "type": "uint256"
            },
            {
              "internalType": "uint256",
              "name": "deadline",
              "type": "uint256"
            }
          ],
          "internalType": "struct INonfungiblePositionManager.DecreaseLiquidityParams",
          "name": "params",
          "type": "tuple"
        }
      ],
      "name": "decreaseLiquidity",
      "outputs": [
        {
          "internalType": "uint256",
          "name": "amount0",
          "type": "uint256"
        },
        {
          "internalType": "uint256",
          "name": "amount1",
          "type": "uint256"
        }
      ],
      "stateMutability": "nonpayable",
      "type": "function"
    },
    {
      "inputs": [],
      "name": "factory",
      "outputs": [
        {
          "internalType": "address",
          "name": "",
          "type": "address"
        }
      ],
      "stateMutability": "view",
      "type": "function"
    },
    {
      "inputs": [
        {
          "internalType": "uint256",
          "name": "tokenId",
          "type": "uint256"
        }
      ],
      "name": "fetchLatestTotalFeeGrowth",
      "outputs": [
        {
          "internalType": "uint256",
          "name": "totalFeeGrowthInside0LastX128",
          "type": "uint256"
        },
        {
          "internalType": "uint256",
          "name": "totalFeeGrowthInside1LastX128",
          "type": "uint256"
        }
      ],
      "stateMutability": "view",
      "type": "function"
    },
    {
      "inputs": [
        {
          "internalType": "uint256",
          "name": "tokenId",
          "type": "uint256"
        }
      ],
      "name": "getApproved",
      "outputs": [
        {
          "internalType": "address",
          "name": "",
          "type": "address"
        }
      ],
      "stateMutability": "view",
      "type": "function"
    },
    {
      "inputs": [
        {
          "components": [
            {
              "internalType": "uint256",
              "name": "tokenId",
              "type": "uint256"
            },
            {
              "internalType": "int24",
              "name": "tickUpper",
              "type": "int24"
            },
            {
              "internalType": "uint256",
              "name": "amount0Max",
              "type": "uint256"
            },
            {
              "internalType": "uint256",
              "name": "amount1Max",
              "type": "uint256"
            },
            {
              "internalType": "uint256",
              "name": "amount0Desired",
              "type": "uint256"
            },
            {
              "internalType": "uint256",
              "name": "amount1Desired",
              "type": "uint256"
            },
            {
              "internalType": "uint256",
              "name": "amount0Min",
              "type": "uint256"
            },
            {
              "internalType": "uint256",
              "name": "amount1Min",
              "type": "uint256"
            },
            {
              "internalType": "uint256",
              "name": "deadline",
              "type": "uint256"
            }
          ],
          "internalType": "struct INonfungiblePositionManager.IncreaseLiquidityParams",
          "name": "params",
          "type": "tuple"
        }
      ],
      "name": "increaseLiquidity",
      "outputs": [
        {
          "internalType": "uint128",
          "name": "liquidity",
          "type": "uint128"
        },
        {
          "internalType": "uint256",
          "name": "amount0",
          "type": "uint256"
        },
        {
          "internalType": "uint256",
          "name": "amount1",
          "type": "uint256"
        }
      ],
      "stateMutability": "nonpayable",
      "type": "function"
    },
    {
      "inputs": [
        {
          "internalType": "address",
          "name": "owner",
          "type": "address"
        },
        {
          "internalType": "address",
          "name": "operator",
          "type": "address"
        }
      ],
      "name": "isApprovedForAll",
      "outputs": [
        {
          "internalType": "bool",
          "name": "",
          "type": "bool"
        }
      ],
      "stateMutability": "view",
      "type": "function"
    },
    {
      "inputs": [
        {
          "components": [
            {
              "internalType": "address",
              "name": "token0",
              "type": "address"
            },
            {
              "internalType": "address",
              "name": "token1",
              "type": "address"
            },
            {
              "internalType": "uint24",
              "name": "fee",
              "type": "uint24"
            },
            {
              "internalType": "int24",
              "name": "tickLower",
              "type": "int24"
            },
            {
              "internalType": "int24",
              "name": "tickUpper",
              "type": "int24"
            },
            {
              "internalType": "uint256",
              "name": "amount0Max",
              "type": "uint256"
            },
            {
              "internalType": "uint256",
              "name": "amount1Max",
              "type": "uint256"
            },
            {
              "internalType": "uint256",
              "name": "amount0Desired",
              "type": "uint256"
            },
            {
              "internalType": "uint256",
              "name": "amount1Desired",
              "type": "uint256"
            },
            {
              "internalType": "uint256",
              "name": "amount0Min",
              "type": "uint256"
            },
            {
              "internalType": "uint256",
              "name": "amount1Min",
              "type": "uint256"
            },
            {
              "internalType": "address",
              "name": "recipient",
              "type": "address"
            },
            {
              "internalType": "uint256",
              "name": "deadline",
              "type": "uint256"
            }
          ],
          "internalType": "struct INonfungiblePositionManager.MintParams",
          "name": "params",
          "type": "tuple"
        }
      ],
      "name": "mint",
      "outputs": [
        {
          "internalType": "uint256",
          "name": "tokenId",
          "type": "uint256"
        },
        {
          "internalType": "uint256",
          "name": "amount0",
          "type": "uint256"
        },
        {
          "internalType": "uint256",
          "name": "amount1",
          "type": "uint256"
        },
        {
          "internalType": "uint128",
          "name": "liquidity",
          "type": "uint128"
        }
      ],
      "stateMutability": "nonpayable",
      "type": "function"
    },
    {
      "inputs": [
        {
          "internalType": "bytes[]",
          "name": "data",
          "type": "bytes[]"
        }
      ],
      "name": "multicall",
      "outputs": [
        {
          "internalType": "bytes[]",
          "name": "results",
          "type": "bytes[]"
        }
      ],
      "stateMutability": "nonpayable",
      "type": "function"
    },
    {
      "inputs": [],
      "name": "name",
      "outputs": [
        {
          "internalType": "string",
          "name": "",
          "type": "string"
        }
      ],
      "stateMutability": "view",
      "type": "function"
    },
    {
      "inputs": [
        {
          "internalType": "uint256",
          "name": "tokenId",
          "type": "uint256"
        }
      ],
      "name": "ownerOf",
      "outputs": [
        {
          "internalType": "address",
          "name": "",
          "type": "address"
        }
      ],
      "stateMutability": "view",
      "type": "function"
    },
    {
      "inputs": [
        {
          "internalType": "uint256",
          "name": "tokenId",
          "type": "uint256"
        }
      ],
      "name": "positions",
      "outputs": [
        {
          "internalType": "address",
          "name": "owner",
          "type": "address"
        },
        {
          "internalType": "address",
          "name": "token0",
          "type": "address"
        },
        {
          "internalType": "address",
          "name": "token1",
          "type": "address"
        },
        {
          "internalType": "uint24",
          "name": "fee",
          "type": "uint24"
        },
        {
          "internalType": "int24",
          "name": "tickLower",
          "type": "int24"
        },
        {
          "internalType": "int24",
          "name": "tickUpper",
          "type": "int24"
        },
        {
          "internalType": "uint128",
          "name": "liquidity",
          "type": "uint128"
        },
        {
          "internalType": "uint256",
          "name": "feeGrowthInside0LastX128",
          "type": "uint256"
        },
        {
          "internalType": "uint256",
          "name": "feeGrowthInside1LastX128",
          "type": "uint256"
        },
        {
          "internalType": "uint128",
          "name": "tokensOwed0",
          "type": "uint128"
        },
        {
          "internalType": "uint128",
          "name": "tokensOwed1",
          "type": "uint128"
        }
      ],
      "stateMutability": "view",
      "type": "function"
    },
    {
      "inputs": [
        {
          "internalType": "address",
          "name": "from",
          "type": "address"
        },
        {
          "internalType": "address",
          "name": "to",
          "type": "address"
        },
        {
          "internalType": "uint256",
          "name": "tokenId",
          "type": "uint256"
        }
      ],
      "name": "safeTransferFrom",
      "outputs": [],
      "stateMutability": "nonpayable",
      "type": "function"
    },
    {
      "inputs": [
        {
          "internalType": "address",
          "name": "from",
          "type": "address"
        },
        {
          "internalType": "address",
          "name": "to",
          "type": "address"
        },
        {
          "internalType": "uint256",
          "name": "tokenId",
          "type": "uint256"
        },
        {
          "internalType": "bytes",
          "name": "data",
          "type": "bytes"
        }
      ],
      "name": "safeTransferFrom",
      "outputs": [],
      "stateMutability": "nonpayable",
      "type": "function"
    },
    {
      "inputs": [
        {
          "internalType": "address",
          "name": "operator",
          "type": "address"
        },
        {
          "internalType": "bool",
          "name": "approved",
          "type": "bool"
        }
      ],
      "name": "setApprovalForAll",
      "outputs": [],
      "stateMutability": "nonpayable",
      "type": "function"
    },
    {
      "inputs": [
        {
          "internalType": "bytes4",
          "name": "interfaceId",
          "type": "bytes4"
        }
      ],
      "name": "supportsInterface",
      "outputs": [
        {
          "internalType": "bool",
          "name": "",
          "type": "bool"
        }
      ],
      "stateMutability": "view",
      "type": "function"
    },
    {
      "inputs": [],
      "name": "symbol",
      "outputs": [
        {
          "internalType": "string",
          "name": "",
          "type": "string"
        }
      ],
      "stateMutability": "view",
      "type": "function"
    },
    {
      "inputs": [
        {
          "internalType": "uint256",
          "name": "index",
          "type": "uint256"
        }
      ],
      "name": "tokenByIndex",
      "outputs": [
        {
          "internalType": "uint256",
          "name": "",
          "type": "uint256"
        }
      ],
      "stateMutability": "view",
      "type": "function"
    },
    {
      "inputs": [
        {
          "internalType": "address",
          "name": "owner",
          "type": "address"
        },
        {
          "internalType": "uint256",
          "name": "index",
          "type": "uint256"
        }
      ],
      "name": "tokenOfOwnerByIndex",
      "outputs": [
        {
          "internalType": "uint256",
          "name": "",
          "type": "uint256"
        }
      ],
      "stateMutability": "view",
      "type": "function"
    },
    {
      "inputs": [
        {
          "internalType": "uint256",
          "name": "tokenId",
          "type": "uint256"
        }
      ],
      "name": "tokenURI",
      "outputs": [
        {
          "internalType": "string",
          "name": "",
          "type": "string"
        }
      ],
      "stateMutability": "view",
      "type": "function"
    },
    {
      "inputs": [],
      "name": "totalSupply",
      "outputs": [
        {
          "internalType": "uint256",
          "name": "",
          "type": "uint256"
        }
      ],
      "stateMutability": "view",
      "type": "function"
    },
    {
      "inputs": [
        {
          "internalType": "address",
          "name": "from",
          "type": "address"
        },
        {
          "internalType": "address",
          "name": "to",
          "type": "address"
        },
        {
          "internalType": "uint256",
          "name": "tokenId",
          "type": "uint256"
        }
      ],
      "name": "transferFrom",
      "outputs": [],
      "stateMutability": "nonpayable",
      "type": "function"
    }
  ],
  "bytecode": {
    "object": "0x60a0604052760100000000000000000000000000000000000000000001600c553480156200002c57600080fd5b50604051620045a0380380620045a08339810160408190526200004f91620000e6565b604080518082018252600a8082526904c4d54204e4654204c560b41b6020808401829052845180860190955291845290830152906000620000918382620001c3565b506001620000a08282620001c3565b5050600d80546001600160a01b0319166001600160a01b0394851617905550166080526200028f565b80516001600160a01b0381168114620000e157600080fd5b919050565b60008060408385031215620000fa57600080fd5b6200010583620000c9565b91506200011560208401620000c9565b90509250929050565b634e487b7160e01b600052604160045260246000fd5b600181811c908216806200014957607f821691505b6020821081036200016a57634e487b7160e01b600052602260045260246000fd5b50919050565b601f821115620001be57600081815260208120601f850160051c81016020861015620001995750805b601f850160051c820191505b81811015620001ba57828155600101620001a5565b5050505b505050565b81516001600160401b03811115620001df57620001df6200011e565b620001f781620001f0845462000134565b8462000170565b602080601f8311600181146200022f5760008415620002165750858301515b600019600386901b1c1916600185901b178555620001ba565b600085815260208120601f198616915b8281101562000260578886015182559484019460019091019084016200023f565b50858210156200027f5787850151600019600388901b60f8161c191681555b5050505050600190811b01905550565b6080516142f5620002ab60003960006104d401526142f56000f3fe608060405234801561001057600080fd5b50600436106101735760003560e01c80636352211e116100de578063b88d4fde11610097578063c87b56dd11610071578063c87b56dd146104f6578063e85d0daf14610509578063e985e9c51461051c578063efee94261461055857600080fd5b8063b88d4fde146104a9578063c181596c146104bc578063c45a0155146104cf57600080fd5b80636352211e146102c657806370a08231146102d957806395d89b41146102ec57806399fbab88146102f4578063a22cb46514610476578063ac9650d81461048957600080fd5b806318160ddd1161013057806318160ddd1461025557806323b872dd146102675780632f745c591461027a57806342842e0e1461028d57806342966c68146102a05780634f6ccce7146102b357600080fd5b806301ffc9a71461017857806304b9de50146101a057806306fdde03146101d8578063081812fc146101ed578063095ea7b3146102185780630c49ccbe1461022d575b600080fd5b61018b6101863660046137b8565b610594565b60405190151581526020015b60405180910390f35b6101b36101ae3660046137d5565b6105e6565b604080516001600160801b039094168452602084019290925290820152606001610197565b6101e06108a9565b604051610197919061383e565b6102006101fb366004613851565b61093b565b6040516001600160a01b039091168152602001610197565b61022b61022636600461387f565b610962565b005b61024061023b3660046138ab565b610a77565b60408051928352602083019190915201610197565b6008545b604051908152602001610197565b61022b6102753660046138bd565b610ea2565b61025961028836600461387f565b610ed3565b61022b61029b3660046138bd565b610f69565b61022b6102ae366004613851565b610f84565b6102596102c1366004613851565b6110ee565b6102006102d4366004613851565b611181565b6102596102e73660046138fe565b6111e1565b6101e0611267565b6103f9610302366004613851565b6000818152600b6020908152604080832081516101008101835281546001600160a01b038082168352600160a01b808304600290810b858901908152600160b81b909404810b8588019081526001808801546001600160801b039081166060808a01918252948a015460808a0190815260038b015460a08b019081526004909b015480841660c08c01908152600160801b90910490931660e08b019081529e8e52600a8d529c8b90208b519586018c52805488168087529301549687169b85018c90529490950462ffffff169290980182905294519351945191519851955192519951939a96999798909794969195909490939091565b604080516001600160a01b039c8d1681529a8c1660208c01529a9098169989019990995262ffffff9095166060880152600293840b60808801529190920b60a08601526001600160801b0391821660c086015260e08501526101008401919091529283166101208301529190911661014082015261016001610197565b61022b610484366004613929565b611276565b61049c610497366004613962565b611285565b60405161019791906139d7565b61022b6104b7366004613a80565b61137a565b6102406104ca366004613851565b6113b2565b6102007f000000000000000000000000000000000000000000000000000000000000000081565b6101e0610504366004613851565b611503565b610240610517366004613b44565b611577565b61018b61052a366004613b56565b6001600160a01b03918216600090815260056020908152604080832093909416825291909152205460ff1690565b61056b610566366004613b84565b6119e5565b604080519485526020850193909352918301526001600160801b03166060820152608001610197565b60006001600160e01b031982166380ac58cd60e01b14806105c557506001600160e01b03198216635b5e139f60e01b145b806105e057506301ffc9a760e01b6001600160e01b03198316145b92915050565b60008060008361010001358042111561063c5760405162461bcd60e51b8152602060048201526013602482015272151c985b9cd858dd1a5bdb881d1bdbc81bdb19606a1b60448201526064015b60405180910390fd5b84356000818152600a6020908152604080832081516060808201845282546001600160a01b03908116835260019093015480841683870190815262ffffff600160a01b928390048116858801908152998952600b8852978690208651610180810188528551871681529151861697820197909752975190961687850152845492831687820152948204600290810b608080890191909152600160b81b909304900b60a080880191909152928b013560c080880191909152948b013560e080880191909152918b0135610100870152918a01356101208601529289013561014085015291880135610160840152909161073390611e17565b509197506000915081905061074889356113b2565b9150915061077783600201548361075f9190613bad565b60018501546001600160801b0316600160801b612365565b6004840180546000906107949084906001600160801b0316613bc0565b92506101000a8154816001600160801b0302191690836001600160801b031602179055506107cb83600301548261075f9190613bad565b6004840180546010906107ef908490600160801b90046001600160801b0316613bc0565b82546101009290920a6001600160801b0381810219909316918316021790915560028501849055600385018390556001850180548b9350909160009161083791859116613bc0565b82546101009290920a6001600160801b0381810219909316918316021790915560408051918b168252602082018a905281018890528a3591507f3067048beee31b25b2f1681f88dac838c8bba36af25bfb2b7cf7473a5847e35f9060600160405180910390a250505050509193909250565b6060600080546108b890613be0565b80601f01602080910402602001604051908101604052809291908181526020018280546108e490613be0565b80156109315780601f1061090657610100808354040283529160200191610931565b820191906000526020600020905b81548152906001019060200180831161091457829003601f168201915b5050505050905090565b600061094682612443565b506000908152600460205260409020546001600160a01b031690565b600061096d82611181565b9050806001600160a01b0316836001600160a01b0316036109da5760405162461bcd60e51b815260206004820152602160248201527f4552433732313a20617070726f76616c20746f2063757272656e74206f776e656044820152603960f91b6064820152608401610633565b336001600160a01b03821614806109f657506109f6813361052a565b610a685760405162461bcd60e51b815260206004820152603d60248201527f4552433732313a20617070726f76652063616c6c6572206973206e6f7420746f60448201527f6b656e206f776e6572206f7220617070726f76656420666f7220616c6c0000006064820152608401610633565b610a7283836124a5565b505050565b6000808235610a863382612513565b610aa25760405162461bcd60e51b815260040161063390613c14565b836080013580421115610aed5760405162461bcd60e51b8152602060048201526013602482015272151c985b9cd858dd1a5bdb881d1bdbc81bdb19606a1b6044820152606401610633565b6000610aff6040870160208801613c4f565b6001600160801b031611610b3e5760405162461bcd60e51b815260040161063390602080825260049082015263306c697160e01b604082015260600190565b84356000818152600a60209081526040808320815160608101835281546001600160a01b03908116825260019283015490811682860152600160a01b900462ffffff1681840152948452600b835292819020928301546001600160801b031691610bac918a01908a01613c4f565b6001600160801b0316816001600160801b03161015610bf35760405162461bcd60e51b8152602060048201526003602482015262706f7360e81b6044820152606401610633565b600d5482546001600160a01b039091169063abf978e4908590600160a01b8104600290810b91600160b81b9004900b610c3260408e0160208f01613c4f565b6040518563ffffffff1660e01b8152600401610c519493929190613c98565b60408051808303816000875af1158015610c6f573d6000803e3d6000fd5b505050506040513d601f19601f82011682018060405250810190610c939190613cd0565b909750955060408801358710801590610cb0575087606001358610155b610ced5760405162461bcd60e51b815260206004820152600e60248201526d736c69707061676520636865636b60901b6044820152606401610633565b600080610cfa8a356113b2565b9150915088610d26856002015484610d129190613bad565b856001600160801b0316600160801b612365565b610d309190613bc0565b600485018054600090610d4d9084906001600160801b0316613bc0565b92506101000a8154816001600160801b0302191690836001600160801b0316021790555087610d85856003015483610d129190613bad565b610d8f9190613bc0565b600485018054601090610db3908490600160801b90046001600160801b0316613bc0565b82546001600160801b039182166101009390930a9283029190920219909116179055506002840182905560038401819055610df460408b0160208c01613c4f565b600185018054600090610e119084906001600160801b0316613cf4565b92506101000a8154816001600160801b0302191690836001600160801b0316021790555089600001357f26f6a048ee9138f2c0ce266f322cb99228e8d619ae2bff30c67f8dcf9d2377b48b6020016020810190610e6e9190613c4f565b604080516001600160801b039092168252602082018d905281018b905260600160405180910390a250505050505050915091565b610eac3382612513565b610ec85760405162461bcd60e51b815260040161063390613d14565b610a72838383612592565b6000610ede836111e1565b8210610f405760405162461bcd60e51b815260206004820152602b60248201527f455243373231456e756d657261626c653a206f776e657220696e646578206f7560448201526a74206f6620626f756e647360a81b6064820152608401610633565b506001600160a01b03919091166000908152600660209081526040808320938352929052205490565b610a728383836040518060200160405280600081525061137a565b80610f8f3382612513565b610fab5760405162461bcd60e51b815260040161063390613c14565b6000828152600b602090815260409182902082516101008101845281546001600160a01b0381168252600160a01b8104600290810b94830194909452600160b81b9004830b9381019390935260018101546001600160801b0390811660608501819052928201546080850152600382015460a085015260049091015480821660c0850152600160801b90041660e0830152158015611054575060c08101516001600160801b0316155b801561106b575060e08101516001600160801b0316155b6110a55760405162461bcd60e51b815260206004820152600b60248201526a139bdd0818db19585c995960aa1b6044820152606401610633565b6000838152600b6020526040812080546001600160d01b03191681556001810180546001600160801b0319169055600281018290556003810182905560040155610a7283612703565b60006110f960085490565b821061115c5760405162461bcd60e51b815260206004820152602c60248201527f455243373231456e756d657261626c653a20676c6f62616c20696e646578206f60448201526b7574206f6620626f756e647360a01b6064820152608401610633565b6008828154811061116f5761116f613d61565b90600052602060002001549050919050565b6000818152600260205260408120546001600160a01b0316806105e05760405162461bcd60e51b8152602060048201526018602482015277115490cdcc8c4e881a5b9d985b1a59081d1bdad95b88125160421b6044820152606401610633565b60006001600160a01b03821661124b5760405162461bcd60e51b815260206004820152602960248201527f4552433732313a2061646472657373207a65726f206973206e6f7420612076616044820152683634b21037bbb732b960b91b6064820152608401610633565b506001600160a01b031660009081526003602052604090205490565b6060600180546108b890613be0565b6112813383836127a6565b5050565b60608167ffffffffffffffff8111156112a0576112a0613a39565b6040519080825280602002602001820160405280156112d357816020015b60608152602001906001900390816112be5790505b50905060005b8281101561137357611343308585848181106112f7576112f7613d61565b90506020028101906113099190613d77565b8080601f01602080910402602001604051908101604052809392919081815260200183838082843760009201919091525061287492505050565b82828151811061135557611355613d61565b6020026020010181905250808061136b90613dc5565b9150506112d9565b5092915050565b6113843383612513565b6113a05760405162461bcd60e51b815260040161063390613d14565b6113ac84848484612899565b50505050565b6000818152600b6020908152604080832081516101008101835281546001600160a01b038082168352600160a01b808304600290810b858901908152600160b81b909404810b8588019081526001808801546001600160801b039081166060808a0191909152938901546080890152600389015460a089015260049889015480821660c08a0152600160801b90041660e08801528b8b52600a8a52888b2089519384018a528054861684520154808516998301999099529190970462ffffff1687870152600d5492519051955163a840465560e01b81528897949694958895949093169363a8404655936114ad938893909291309101613dde565b60a060405180830381865afa1580156114ca573d6000803e3d6000fd5b505050506040513d601f19601f820116820180604052508101906114ee9190613e16565b80516020909101519097909650945050505050565b606061150e82612443565b600061152560408051602081019091526000815290565b905060008151116115455760405180602001604052806000815250611570565b8061154f846128cc565b604051602001611560929190613e9e565b6040516020818303038152906040525b9392505050565b60008082356115863382612513565b6115a25760405162461bcd60e51b815260040161063390613c14565b83356000908152600b60209081526040808320600a8352818420825160608101845281546001600160a01b03908116825260019283015490811695820195909552600160a01b90940462ffffff16928401929092526004810154918101546001600160801b038084169850600160801b909304831696509093918291161561173c57600d548454604051632afe5e3960e21b81526001600160a01b039092169163abf978e491611671918791600160a01b8104600290810b92600160b81b909204900b90600090600401613c98565b60408051808303816000875af115801561168f573d6000803e3d6000fd5b505050506040513d601f19601f820116820180604052508101906116b39190613cd0565b506116c0905088356113b2565b600286015491935091506116f0906116d89084613bad565b60018601546001600160801b0316600160801b612365565b611703906001600160801b031688613ecd565b96506117188460030154826116d89190613bad565b61172b906001600160801b031687613ecd565b600285018390556003850182905595505b600d5484546040516319fa103360e01b81526001600160a01b03909216916319fa103391611786918791600160a01b8104600290810b92600160b81b909204900b90600401613ee0565b60408051808303816000875af11580156117a4573d6000803e3d6000fd5b505050506040513d601f19601f820116820180604052508101906117c89190613f08565b505082516040516370a0823160e01b81523060048201526000916001600160a01b0316906370a0823190602401602060405180830381865afa158015611812573d6000803e3d6000fd5b505050506040513d601f19601f820116820180604052508101906118369190613f37565b60208501516040516370a0823160e01b81523060048201529192506000916001600160a01b03909116906370a0823190602401602060405180830381865afa158015611886573d6000803e3d6000fd5b505050506040513d601f19601f820116820180604052508101906118aa9190613f37565b90508189116118ba5760006118c4565b6118c4828a613bad565b6004870180546001600160801b0319166001600160801b03929092169190911790558088116118f45760006118fe565b6118fe8189613bad565b6004870180546001600160801b03928316600160801b02921691909117905581891161192a578861192c565b815b985080881161193b578761193d565b805b855190985061195f9250905061195960408b0160208c016138fe565b8961295f565b611980836020015189602001602081019061197a91906138fe565b8861295f565b87357f40d0efd1a53d60ecbf40971b9daf7dc90178c3aadc7aab1765632738fa8b8f016119b360408b0160208c016138fe565b604080516001600160a01b039092168252602082018b9052810189905260600160405180910390a25050505050915091565b6000806000806000611aea604051806101800160405280886000016020810190611a0f91906138fe565b6001600160a01b03168152602001886020016020810190611a3091906138fe565b6001600160a01b03168152602001611a4e60608a0160408b01613f50565b62ffffff168152602001611a6a6101808a016101608b016138fe565b6001600160a01b03168152602001611a8860808a0160608b01613f84565b60020b8152602001611aa060a08a0160808b01613f84565b60020b81526020018860a0013581526020018860c0013581526020018860e00135815260200188610100013581526020018861012001358152602001886101400135815250611e17565b91965094509092509050611b57611b09610180880161016089016138fe565b600c80546001600160b01b0316906000611b2283613fa1565b91906101000a8154816001600160b01b0302191690836001600160b01b031602179055506001600160b01b0316965086612a5f565b600080611b63876113b2565b9150915060405180610100016040528089610160016020810190611b8791906138fe565b6001600160a01b03168152602001611ba560808b0160608c01613f84565b60020b8152602001611bbd60a08b0160808c01613f84565b600290810b82526001600160801b03878116602080850191909152604080850188905260608086018890526000608080880182905260a09788018290528f8252600b8552838220895181548b8801518c8801516001600160a01b039093166001600160b81b031990921691909117600160a01b62ffffff928316021762ffffff60b81b1916600160b81b9190921602178155928901516001840180546001600160801b0319169188169190911790558801519582019590955594860151600386015560c086015160e090960151958316600160801b969093169590950291909117600490930192909255918291611cb8918c01908c016138fe565b6001600160a01b0316611cce60208c018c6138fe565b6001600160a01b031610611cfe57611cec60408b0160208c016138fe565b611cf960208c018c6138fe565b611d1b565b611d0b60208b018b6138fe565b611d1b60408c0160208d016138fe565b915091506040518060600160405280836001600160a01b03168152602001826001600160a01b031681526020018b6040016020810190611d5b9190613f50565b62ffffff90811690915260008b8152600a6020908152604091829020845181546001600160a01b039182166001600160a01b0319909116178255858301516001909201805496850151909516600160a01b026001600160b81b03199096169116179390931790915580516001600160801b03891681529182018a9052810188905289907f3067048beee31b25b2f1681f88dac838c8bba36af25bfb2b7cf7473a5847e35f9060600160405180910390a250505050509193509193565b6000806000808460a0015160020b856080015160020b12611e6b5760405162461bcd60e51b815260206004820152600e60248201526d151250d2d4d7d49155915494d15160921b6044820152606401610633565b600d54855160208701516040808901519051630b4c774160e11b81526001600160a01b039384166004820152918316602483015262ffffff166044820152911690631698ee8290606401602060405180830381865afa158015611ed2573d6000803e3d6000fd5b505050506040513d601f19601f82011682018060405250810190611ef69190613fcf565b600d5486516020808901516040808b015181516001600160a01b03958616948101949094529184169083015262ffffff166060820152929350600092911690636519768890608001604051602081830303815290604052805190602001206040518263ffffffff1660e01b8152600401611f7291815260200190565b602060405180830381865afa158015611f8f573d6000803e3d6000fd5b505050506040513d601f19601f82011682018060405250810190611fb39190613fec565b9050808660800151611fc5919061401f565b60020b158015611fe55750808660a00151611fe0919061401f565b60020b155b6120275760405162461bcd60e51b81526020600482015260136024820152725449434b535f4e4f545f444956495349424c4560681b6044820152606401610633565b6000826001600160a01b0316633850c7bd6040518163ffffffff1660e01b815260040160e060405180830381865afa158015612067573d6000803e3d6000fd5b505050506040513d601f19601f8201168201806040525081019061208b9190614061565b505050505050905060006120a28860800151612bf8565b905060006120b38960a00151612bf8565b90506120cc8383838c61014001518d6101600151612f1b565b9750505050506120e6856000015133308860c00151612fc1565b6120fa856020015133308860e00151612fc1565b8451600d5460c087015160405163095ea7b360e01b81526001600160a01b039283166004820152602481019190915291169063095ea7b3906044016020604051808303816000875af1158015612154573d6000803e3d6000fd5b505050506040513d601f19601f8201168201806040525081019061217891906140f9565b506020850151600d5460e087015160405163095ea7b360e01b81526001600160a01b039283166004820152602481019190915291169063095ea7b3906044016020604051808303816000875af11580156121d6573d6000803e3d6000fd5b505050506040513d601f19601f820116820180604052508101906121fa91906140f9565b50600d546040805160608101825287516001600160a01b0390811682526020808a01518216908301528883015162ffffff1682840152608089015160a08a01519351635c48cfd360e11b8152919094169363b8919fa69361226293928a903090600401614116565b60408051808303816000875af1158015612280573d6000803e3d6000fd5b505050506040513d601f19601f820116820180604052508101906122a49190613cd0565b60c087015191945092508310156122d3576122d3856000015133858860c001516122ce9190613bad565b61295f565b818560e0015111156122f8576122f8856020015133848860e001516122ce9190613bad565b846101400151831015801561231257508461016001518210155b61235e5760405162461bcd60e51b815260206004820152601d60248201527f494e53554646494349454e545f4c49515549444954595f4d494e5445440000006044820152606401610633565b9193509193565b600080806000198587098587029250828110838203039150508060000361239e576000841161239357600080fd5b508290049050611570565b8084116123d65760405162461bcd60e51b815260206004820152600660248201526536bab62234bb60d11b6044820152606401610633565b6000848688096000868103871696879004966002600389028118808a02820302808a02820302808a02820302808a02820302808a02820302808a02909103029181900381900460010186841190950394909402919094039290920491909117919091029150509392505050565b6000818152600260205260409020546001600160a01b03166124a25760405162461bcd60e51b8152602060048201526018602482015277115490cdcc8c4e881a5b9d985b1a59081d1bdad95b88125160421b6044820152606401610633565b50565b600081815260046020526040902080546001600160a01b0319166001600160a01b03841690811790915581906124da82611181565b6001600160a01b03167f8c5be1e5ebec7d5bd14f71427d1e84f3dd0314c0f7b2291e5b200ac8c7c3b92560405160405180910390a45050565b60008061251f83611181565b9050806001600160a01b0316846001600160a01b0316148061256657506001600160a01b0380821660009081526005602090815260408083209388168352929052205460ff165b8061258a5750836001600160a01b031661257f8461093b565b6001600160a01b0316145b949350505050565b826001600160a01b03166125a582611181565b6001600160a01b0316146125cb5760405162461bcd60e51b81526004016106339061415f565b6001600160a01b03821661262d5760405162461bcd60e51b8152602060048201526024808201527f4552433732313a207472616e7366657220746f20746865207a65726f206164646044820152637265737360e01b6064820152608401610633565b61263a83838360016130cb565b826001600160a01b031661264d82611181565b6001600160a01b0316146126735760405162461bcd60e51b81526004016106339061415f565b600081815260046020908152604080832080546001600160a01b03199081169091556001600160a01b0387811680865260038552838620805460001901905590871680865283862080546001019055868652600290945282852080549092168417909155905184937fddf252ad1be2c89b69c2b068fc378daa952ba7f163c4a11628f55a4df523b3ef91a4505050565b600061270e82611181565b905061271e8160008460016130cb565b61272782611181565b600083815260046020908152604080832080546001600160a01b03199081169091556001600160a01b0385168085526003845282852080546000190190558785526002909352818420805490911690555192935084927fddf252ad1be2c89b69c2b068fc378daa952ba7f163c4a11628f55a4df523b3ef908390a45050565b816001600160a01b0316836001600160a01b0316036128075760405162461bcd60e51b815260206004820152601960248201527f4552433732313a20617070726f766520746f2063616c6c6572000000000000006044820152606401610633565b6001600160a01b03838116600081815260056020908152604080832094871680845294825291829020805460ff191686151590811790915591519182527f17307eab39ab6107e8899845ad3d59bd9653f200f220920489ca2b5937696c31910160405180910390a3505050565b60606115708383604051806060016040528060278152602001614299602791396131f8565b6128a4848484612592565b6128b084848484613270565b6113ac5760405162461bcd60e51b8152600401610633906141a4565b606060006128d983613371565b600101905060008167ffffffffffffffff8111156128f9576128f9613a39565b6040519080825280601f01601f191660200182016040528015612923576020820181803683370190505b5090508181016020015b600019016f181899199a1a9b1b9c1cb0b131b232b360811b600a86061a8153600a850494508461292d57509392505050565b604080516001600160a01b038481166024830152604480830185905283518084039091018152606490920183526020820180516001600160e01b031663a9059cbb60e01b17905291516000928392908716916129bb91906141f6565b6000604051808303816000865af19150503d80600081146129f8576040519150601f19603f3d011682016040523d82523d6000602084013e6129fd565b606091505b5091509150818015612a27575080511580612a27575080806020019051810190612a2791906140f9565b612a585760405162461bcd60e51b815260206004820152600260248201526114d560f21b6044820152606401610633565b5050505050565b6001600160a01b038216612ab55760405162461bcd60e51b815260206004820181905260248201527f4552433732313a206d696e7420746f20746865207a65726f20616464726573736044820152606401610633565b6000818152600260205260409020546001600160a01b031615612b1a5760405162461bcd60e51b815260206004820152601c60248201527f4552433732313a20746f6b656e20616c7265616479206d696e746564000000006044820152606401610633565b612b286000838360016130cb565b6000818152600260205260409020546001600160a01b031615612b8d5760405162461bcd60e51b815260206004820152601c60248201527f4552433732313a20746f6b656e20616c7265616479206d696e746564000000006044820152606401610633565b6001600160a01b038216600081815260036020908152604080832080546001019055848352600290915280822080546001600160a01b0319168417905551839291907fddf252ad1be2c89b69c2b068fc378daa952ba7f163c4a11628f55a4df523b3ef908290a45050565b60008060008360020b12612c0f578260020b612c17565b8260020b6000035b9050620d89e8811115612c3d576040516315e4079d60e11b815260040160405180910390fd5b600081600116600003612c5457600160801b612c66565b6ffffcb933bd6fad37aa2d162d1a5940015b70ffffffffffffffffffffffffffffffffff1690506002821615612c9a576ffff97272373d413259a46990580e213a0260801c5b6004821615612cb9576ffff2e50f5f656932ef12357cf3c7fdcc0260801c5b6008821615612cd8576fffe5caca7e10e4e61c3624eaa0941cd00260801c5b6010821615612cf7576fffcb9843d60f6159c9db58835c9266440260801c5b6020821615612d16576fff973b41fa98c081472e6896dfb254c00260801c5b6040821615612d35576fff2ea16466c96a3843ec78b326b528610260801c5b6080821615612d54576ffe5dee046a99a2a811c461f1969c30530260801c5b610100821615612d74576ffcbe86c7900a88aedcffc83b479aa3a40260801c5b610200821615612d94576ff987a7253ac413176f2b074cf7815e540260801c5b610400821615612db4576ff3392b0822b70005940c7a398e4b70f30260801c5b610800821615612dd4576fe7159475a2c29b7443b29c7fa6e889d90260801c5b611000821615612df4576fd097f3bdfd2022b8845ad8f792aa58250260801c5b612000821615612e14576fa9f746462d870fdf8a65dc1f90e061e50260801c5b614000821615612e34576f70d869a156d2a1b890bb3df62baf32f70260801c5b618000821615612e54576f31be135f97d08fd981231505542fcfa60260801c5b62010000821615612e75576f09aa508b5b7a84e1c677de54f3e99bc90260801c5b62020000821615612e95576e5d6af8dedb81196699c329225ee6040260801c5b62040000821615612eb4576d2216e584f5fa1ea926041bedfe980260801c5b62080000821615612ed1576b048a170391f7dc42444e8fa20260801c5b60008460020b1315612ef2578060001981612eee57612eee614009565b0490505b640100000000810615612f06576001612f09565b60005b60ff16602082901c0192505050919050565b6000846001600160a01b0316866001600160a01b031611612f4857612f41858585613449565b9050612fb8565b836001600160a01b0316866001600160a01b03161015612faa576000612f6f878686613449565b90506000612f7e8789866134f3565b9050806001600160801b0316826001600160801b031610612f9f5780612fa1565b815b92505050612fb8565b612fb58585846134f3565b90505b95945050505050565b604080516001600160a01b0385811660248301528481166044830152606480830185905283518084039091018152608490920183526020820180516001600160e01b03166323b872dd60e01b179052915160009283929088169161302591906141f6565b6000604051808303816000865af19150503d8060008114613062576040519150601f19603f3d011682016040523d82523d6000602084013e613067565b606091505b509150915081801561309157508051158061309157508080602001905181019061309191906140f9565b6130c35760405162461bcd60e51b815260206004820152600360248201526229aa2360e91b6044820152606401610633565b505050505050565b600181111561313a5760405162461bcd60e51b815260206004820152603560248201527f455243373231456e756d657261626c653a20636f6e7365637574697665207472604482015274185b9cd9995c9cc81b9bdd081cdd5c1c1bdc9d1959605a1b6064820152608401610633565b816001600160a01b0385166131965761319181600880546000838152600960205260408120829055600182018355919091527ff3f7a9fe364faab93b216da50a3214154f22a0a2b415b23a84c8169e8b636ee30155565b6131b9565b836001600160a01b0316856001600160a01b0316146131b9576131b98582613529565b6001600160a01b0384166131d5576131d0816135c6565b612a58565b846001600160a01b0316846001600160a01b031614612a5857612a588482613675565b6060600080856001600160a01b03168560405161321591906141f6565b600060405180830381855af49150503d8060008114613250576040519150601f19603f3d011682016040523d82523d6000602084013e613255565b606091505b5091509150613266868383876136b9565b9695505050505050565b60006001600160a01b0384163b1561336657604051630a85bd0160e11b81526001600160a01b0385169063150b7a02906132b4903390899088908890600401614212565b6020604051808303816000875af19250505080156132ef575060408051601f3d908101601f191682019092526132ec91810190614245565b60015b61334c573d80801561331d576040519150601f19603f3d011682016040523d82523d6000602084013e613322565b606091505b5080516000036133445760405162461bcd60e51b8152600401610633906141a4565b805181602001fd5b6001600160e01b031916630a85bd0160e11b14905061258a565b506001949350505050565b60008072184f03e93ff9f4daa797ed6e38ed64bf6a1f0160401b83106133b05772184f03e93ff9f4daa797ed6e38ed64bf6a1f0160401b830492506040015b6d04ee2d6d415b85acef810000000083106133dc576d04ee2d6d415b85acef8100000000830492506020015b662386f26fc1000083106133fa57662386f26fc10000830492506010015b6305f5e1008310613412576305f5e100830492506008015b612710831061342657612710830492506004015b60648310613438576064830492506002015b600a83106105e05760010192915050565b6000826001600160a01b0316846001600160a01b03161115613469579192915b600061348c856001600160a01b0316856001600160a01b0316600160601b612365565b905080156134c1576134b96134b484836134a68989614262565b6001600160a01b0316612365565b613732565b915050611570565b6134b96134b46134df856001600160a01b0389166134a68a8a614262565b866001600160a01b0316600160601b612365565b6000826001600160a01b0316846001600160a01b03161115613513579192915b61258a6134b483600160601b6134a68888614262565b60006001613536846111e1565b6135409190613bad565b600083815260076020526040902054909150808214613593576001600160a01b03841660009081526006602090815260408083208584528252808320548484528184208190558352600790915290208190555b5060009182526007602090815260408084208490556001600160a01b039094168352600681528383209183525290812055565b6008546000906135d890600190613bad565b6000838152600960205260408120546008805493945090928490811061360057613600613d61565b90600052602060002001549050806008838154811061362157613621613d61565b600091825260208083209091019290925582815260099091526040808220849055858252812055600880548061365957613659614282565b6001900381819060005260206000200160009055905550505050565b6000613680836111e1565b6001600160a01b039093166000908152600660209081526040808320868452825280832085905593825260079052919091209190915550565b60608315613728578251600003613721576001600160a01b0385163b6137215760405162461bcd60e51b815260206004820152601d60248201527f416464726573733a2063616c6c20746f206e6f6e2d636f6e74726163740000006044820152606401610633565b508161258a565b61258a8383613778565b806001600160801b03811681146137735760405162461bcd60e51b81526020600482015260056024820152640858d85cdd60da1b6044820152606401610633565b919050565b8151156137885781518083602001fd5b8060405162461bcd60e51b8152600401610633919061383e565b6001600160e01b0319811681146124a257600080fd5b6000602082840312156137ca57600080fd5b8135611570816137a2565b600061012082840312156137e857600080fd5b50919050565b60005b838110156138095781810151838201526020016137f1565b50506000910152565b6000815180845261382a8160208601602086016137ee565b601f01601f19169290920160200192915050565b6020815260006115706020830184613812565b60006020828403121561386357600080fd5b5035919050565b6001600160a01b03811681146124a257600080fd5b6000806040838503121561389257600080fd5b823561389d8161386a565b946020939093013593505050565b600060a082840312156137e857600080fd5b6000806000606084860312156138d257600080fd5b83356138dd8161386a565b925060208401356138ed8161386a565b929592945050506040919091013590565b60006020828403121561391057600080fd5b81356115708161386a565b80151581146124a257600080fd5b6000806040838503121561393c57600080fd5b82356139478161386a565b915060208301356139578161391b565b809150509250929050565b6000806020838503121561397557600080fd5b823567ffffffffffffffff8082111561398d57600080fd5b818501915085601f8301126139a157600080fd5b8135818111156139b057600080fd5b8660208260051b85010111156139c557600080fd5b60209290920196919550909350505050565b6000602080830181845280855180835260408601915060408160051b870101925083870160005b82811015613a2c57603f19888603018452613a1a858351613812565b945092850192908501906001016139fe565b5092979650505050505050565b634e487b7160e01b600052604160045260246000fd5b604051601f8201601f1916810167ffffffffffffffff81118282101715613a7857613a78613a39565b604052919050565b60008060008060808587031215613a9657600080fd5b8435613aa18161386a565b9350602085810135613ab28161386a565b935060408601359250606086013567ffffffffffffffff80821115613ad657600080fd5b818801915088601f830112613aea57600080fd5b813581811115613afc57613afc613a39565b613b0e601f8201601f19168501613a4f565b91508082528984828501011115613b2457600080fd5b808484018584013760008482840101525080935050505092959194509250565b6000604082840312156137e857600080fd5b60008060408385031215613b6957600080fd5b8235613b748161386a565b915060208301356139578161386a565b60006101a082840312156137e857600080fd5b634e487b7160e01b600052601160045260246000fd5b818103818111156105e0576105e0613b97565b6001600160801b0381811683821601908082111561137357611373613b97565b600181811c90821680613bf457607f821691505b6020821081036137e857634e487b7160e01b600052602260045260246000fd5b6020808252600c908201526b139bdd08185c1c1c9bdd995960a21b604082015260600190565b6001600160801b03811681146124a257600080fd5b600060208284031215613c6157600080fd5b813561157081613c3a565b80516001600160a01b0390811683526020808301519091169083015260409081015162ffffff16910152565b60c08101613ca68287613c6c565b8460020b60608301528360020b60808301526001600160801b03831660a083015295945050505050565b60008060408385031215613ce357600080fd5b505080516020909101519092909150565b6001600160801b0382811682821603908082111561137357611373613b97565b6020808252602d908201527f4552433732313a2063616c6c6572206973206e6f7420746f6b656e206f776e6560408201526c1c881bdc88185c1c1c9bdd9959609a1b606082015260800190565b634e487b7160e01b600052603260045260246000fd5b6000808335601e19843603018112613d8e57600080fd5b83018035915067ffffffffffffffff821115613da957600080fd5b602001915036819003821315613dbe57600080fd5b9250929050565b600060018201613dd757613dd7613b97565b5060010190565b60c08101613dec8287613c6c565b600294850b60608301529290930b60808401526001600160a01b031660a090920191909152919050565b600060a08284031215613e2857600080fd5b60405160a0810181811067ffffffffffffffff82111715613e4b57613e4b613a39565b806040525082518152602083015160208201526040830151613e6c81613c3a565b60408201526060830151613e7f81613c3a565b60608201526080830151613e9281613c3a565b60808201529392505050565b60008351613eb08184602088016137ee565b835190830190613ec48183602088016137ee565b01949350505050565b808201808211156105e0576105e0613b97565b60a08101613eee8286613c6c565b8360020b60608301528260020b6080830152949350505050565b60008060408385031215613f1b57600080fd5b8251613f2681613c3a565b602084015190925061395781613c3a565b600060208284031215613f4957600080fd5b5051919050565b600060208284031215613f6257600080fd5b813562ffffff8116811461157057600080fd5b8060020b81146124a257600080fd5b600060208284031215613f9657600080fd5b813561157081613f75565b60006001600160b01b038281166002600160b01b03198101613fc557613fc5613b97565b6001019392505050565b600060208284031215613fe157600080fd5b81516115708161386a565b600060208284031215613ffe57600080fd5b815161157081613f75565b634e487b7160e01b600052601260045260246000fd5b60008260020b8061404057634e487b7160e01b600052601260045260246000fd5b808360020b0791505092915050565b805161ffff8116811461377357600080fd5b600080600080600080600060e0888a03121561407c57600080fd5b87516140878161386a565b602089015190975061409881613f75565b95506140a66040890161404f565b94506140b46060890161404f565b93506140c26080890161404f565b925060a088015160ff811681146140d857600080fd5b60c08901519092506140e98161391b565b8091505092959891949750929550565b60006020828403121561410b57600080fd5b81516115708161391b565b60e081016141248288613c6c565b600295860b60608301529390940b60808501526001600160801b039190911660a08401526001600160a01b031660c090920191909152919050565b60208082526025908201527f4552433732313a207472616e736665722066726f6d20696e636f72726563742060408201526437bbb732b960d91b606082015260800190565b60208082526032908201527f4552433732313a207472616e7366657220746f206e6f6e20455243373231526560408201527131b2b4bb32b91034b6b83632b6b2b73a32b960711b606082015260800190565b600082516142088184602087016137ee565b9190910192915050565b6001600160a01b0385811682528416602082015260408101839052608060608201819052600090612fb590830184613812565b60006020828403121561425757600080fd5b8151611570816137a2565b6001600160a01b0382811682821603908082111561137357611373613b97565b634e487b7160e01b600052603160045260246000fdfe416464726573733a206c6f772d6c6576656c2064656c65676174652063616c6c206661696c6564a2646970667358221220015e4dda8cdf16377c447a47cf38e90c8e874254b3981c08df4c8d098bad859364736f6c63430008150033",
    "linkReferences": {}
  },
  "methodIdentifiers": {
    "approve(address,uint256)": "095ea7b3",
    "balanceOf(address)": "70a08231",
    "burn(uint256)": "42966c68",
    "collect((uint256,address))": "e85d0daf",
    "decreaseLiquidity((uint256,uint128,uint256,uint256,uint256))": "0c49ccbe",
    "factory()": "c45a0155",
    "fetchLatestTotalFeeGrowth(uint256)": "c181596c",
    "getApproved(uint256)": "081812fc",
    "increaseLiquidity((uint256,int24,uint256,uint256,uint256,uint256,uint256,uint256,uint256))": "04b9de50",
    "isApprovedForAll(address,address)": "e985e9c5",
    "mint((address,address,uint24,int24,int24,uint256,uint256,uint256,uint256,uint256,uint256,address,uint256))": "efee9426",
    "multicall(bytes[])": "ac9650d8",
    "name()": "06fdde03",
    "ownerOf(uint256)": "6352211e",
    "positions(uint256)": "99fbab88",
    "safeTransferFrom(address,address,uint256)": "42842e0e",
    "safeTransferFrom(address,address,uint256,bytes)": "b88d4fde",
    "setApprovalForAll(address,bool)": "a22cb465",
    "supportsInterface(bytes4)": "01ffc9a7",
    "symbol()": "95d89b41",
    "tokenByIndex(uint256)": "4f6ccce7",
    "tokenOfOwnerByIndex(address,uint256)": "2f745c59",
    "tokenURI(uint256)": "c87b56dd",
    "totalSupply()": "18160ddd",
    "transferFrom(address,address,uint256)": "23b872dd"
  },
  "id": 62
}