{
  "abi": [
    {
      "inputs": [
        {
          "internalType": "address",
          "name": "_poolManager",
          "type": "address"
        },
        {
          "internalType": "address",
          "name": "_factory",
          "type": "address"
        }
      ],
      "stateMutability": "nonpayable",
      "type": "constructor"
    },
    {
      "inputs": [],
      "name": "T",
      "type": "error"
    },
    {
      "anonymous": false,
      "inputs": [
        {
          "indexed": true,
          "internalType": "address",
          "name": "owner",
          "type": "address"
        },
        {
          "indexed": true,
          "internalType": "address",
          "name": "approved",
          "type": "address"
        },
        {
          "indexed": true,
          "internalType": "uint256",
          "name": "tokenId",
          "type": "uint256"
        }
      ],
      "name": "Approval",
      "type": "event"
    },
    {
      "anonymous": false,
      "inputs": [
        {
          "indexed": true,
          "internalType": "address",
          "name": "owner",
          "type": "address"
        },
        {
          "indexed": true,
          "internalType": "address",
          "name": "operator",
          "type": "address"
        },
        {
          "indexed": false,
          "internalType": "bool",
          "name": "approved",
          "type": "bool"
        }
      ],
      "name": "ApprovalForAll",
      "type": "event"
    },
    {
      "anonymous": false,
      "inputs": [
        {
          "indexed": true,
          "internalType": "address",
          "name": "from",
          "type": "address"
        },
        {
          "indexed": true,
          "internalType": "address",
          "name": "to",
          "type": "address"
        },
        {
          "indexed": true,
          "internalType": "uint256",
          "name": "tokenId",
          "type": "uint256"
        }
      ],
      "name": "Transfer",
      "type": "event"
    },
    {
      "inputs": [
        {
          "internalType": "address",
          "name": "to",
          "type": "address"
        },
        {
          "internalType": "uint256",
          "name": "tokenId",
          "type": "uint256"
        }
      ],
      "name": "approve",
      "outputs": [],
      "stateMutability": "nonpayable",
      "type": "function"
    },
    {
      "inputs": [
        {
          "internalType": "address",
          "name": "owner",
          "type": "address"
        }
      ],
      "name": "balanceOf",
      "outputs": [
        {
          "internalType": "uint256",
          "name": "",
          "type": "uint256"
        }
      ],
      "stateMutability": "view",
      "type": "function"
    },
    {
      "inputs": [
        {
          "components": [
            {
              "internalType": "uint256",
              "name": "tokenId",
              "type": "uint256"
            },
            {
              "internalType": "address",
              "name": "recipient",
              "type": "address"
            }
          ],
          "internalType": "struct INonfungiblePositionManager.CollectParams",
          "name": "params",
          "type": "tuple"
        }
      ],
      "name": "collect",
      "outputs": [
        {
          "internalType": "uint256",
          "name": "amount0",
          "type": "uint256"
        },
        {
          "internalType": "uint256",
          "name": "amount1",
          "type": "uint256"
        }
      ],
      "stateMutability": "nonpayable",
      "type": "function"
    },
    {
      "inputs": [
        {
          "components": [
            {
              "internalType": "uint256",
              "name": "tokenId",
              "type": "uint256"
            },
            {
              "internalType": "uint128",
              "name": "liquidity",
              "type": "uint128"
            },
            {
              "internalType": "uint256",
              "name": "amount0Min",
              "type": "uint256"
            },
            {
              "internalType": "uint256",
              "name": "amount1Min",
              "type": "uint256"
            },
            {
              "internalType": "uint256",
              "name": "deadline",
              "type": "uint256"
            }
          ],
          "internalType": "struct INonfungiblePositionManager.DecreaseLiquidityParams",
          "name": "params",
          "type": "tuple"
        }
      ],
      "name": "decreaseLiquidity",
      "outputs": [
        {
          "internalType": "uint256",
          "name": "amount0",
          "type": "uint256"
        },
        {
          "internalType": "uint256",
          "name": "amount1",
          "type": "uint256"
        }
      ],
      "stateMutability": "nonpayable",
      "type": "function"
    },
    {
      "inputs": [],
      "name": "factory",
      "outputs": [
        {
          "internalType": "address",
          "name": "",
          "type": "address"
        }
      ],
      "stateMutability": "view",
      "type": "function"
    },
    {
      "inputs": [
        {
          "internalType": "uint256",
          "name": "tokenId",
          "type": "uint256"
        }
      ],
      "name": "fetchLatestTotalFeeGrowth",
      "outputs": [
        {
          "internalType": "uint256",
          "name": "totalFeeGrowthInside0LastX128",
          "type": "uint256"
        },
        {
          "internalType": "uint256",
          "name": "totalFeeGrowthInside1LastX128",
          "type": "uint256"
        }
      ],
      "stateMutability": "view",
      "type": "function"
    },
    {
      "inputs": [
        {
          "internalType": "uint256",
          "name": "tokenId",
          "type": "uint256"
        }
      ],
      "name": "getApproved",
      "outputs": [
        {
          "internalType": "address",
          "name": "",
          "type": "address"
        }
      ],
      "stateMutability": "view",
      "type": "function"
    },
    {
      "inputs": [
        {
          "components": [
            {
              "internalType": "uint256",
              "name": "tokenId",
              "type": "uint256"
            },
            {
              "internalType": "uint256",
              "name": "amount0Desired",
              "type": "uint256"
            },
            {
              "internalType": "uint256",
              "name": "amount1Desired",
              "type": "uint256"
            },
            {
              "internalType": "uint256",
              "name": "amount0Min",
              "type": "uint256"
            },
            {
              "internalType": "uint256",
              "name": "amount1Min",
              "type": "uint256"
            },
            {
              "internalType": "uint256",
              "name": "deadline",
              "type": "uint256"
            }
          ],
          "internalType": "struct INonfungiblePositionManager.IncreaseLiquidityParams",
          "name": "params",
          "type": "tuple"
        }
      ],
      "name": "increaseLiquidity",
      "outputs": [
        {
          "internalType": "uint128",
          "name": "liquidity",
          "type": "uint128"
        },
        {
          "internalType": "uint256",
          "name": "amount0",
          "type": "uint256"
        },
        {
          "internalType": "uint256",
          "name": "amount1",
          "type": "uint256"
        }
      ],
      "stateMutability": "nonpayable",
      "type": "function"
    },
    {
      "inputs": [
        {
          "internalType": "address",
          "name": "owner",
          "type": "address"
        },
        {
          "internalType": "address",
          "name": "operator",
          "type": "address"
        }
      ],
      "name": "isApprovedForAll",
      "outputs": [
        {
          "internalType": "bool",
          "name": "",
          "type": "bool"
        }
      ],
      "stateMutability": "view",
      "type": "function"
    },
    {
      "inputs": [
        {
          "components": [
            {
              "internalType": "address",
              "name": "token0",
              "type": "address"
            },
            {
              "internalType": "address",
              "name": "token1",
              "type": "address"
            },
            {
              "internalType": "uint24",
              "name": "fee",
              "type": "uint24"
            },
            {
              "internalType": "int24",
              "name": "tickLower",
              "type": "int24"
            },
            {
              "internalType": "int24",
              "name": "tickUpper",
              "type": "int24"
            },
            {
              "internalType": "uint256",
              "name": "amount0Desired",
              "type": "uint256"
            },
            {
              "internalType": "uint256",
              "name": "amount1Desired",
              "type": "uint256"
            },
            {
              "internalType": "uint256",
              "name": "amount0Min",
              "type": "uint256"
            },
            {
              "internalType": "uint256",
              "name": "amount1Min",
              "type": "uint256"
            },
            {
              "internalType": "address",
              "name": "recipient",
              "type": "address"
            },
            {
              "internalType": "uint256",
              "name": "deadline",
              "type": "uint256"
            }
          ],
          "internalType": "struct INonfungiblePositionManager.MintParams",
          "name": "params",
          "type": "tuple"
        }
      ],
      "name": "mint",
      "outputs": [
        {
          "internalType": "uint256",
          "name": "tokenId",
          "type": "uint256"
        },
        {
          "internalType": "uint256",
          "name": "amount0",
          "type": "uint256"
        },
        {
          "internalType": "uint256",
          "name": "amount1",
          "type": "uint256"
        },
        {
          "internalType": "uint128",
          "name": "liquidity",
          "type": "uint128"
        }
      ],
      "stateMutability": "nonpayable",
      "type": "function"
    },
    {
      "inputs": [
        {
          "internalType": "bytes[]",
          "name": "data",
          "type": "bytes[]"
        }
      ],
      "name": "multicall",
      "outputs": [
        {
          "internalType": "bytes[]",
          "name": "results",
          "type": "bytes[]"
        }
      ],
      "stateMutability": "nonpayable",
      "type": "function"
    },
    {
      "inputs": [],
      "name": "name",
      "outputs": [
        {
          "internalType": "string",
          "name": "",
          "type": "string"
        }
      ],
      "stateMutability": "view",
      "type": "function"
    },
    {
      "inputs": [
        {
          "internalType": "uint256",
          "name": "tokenId",
          "type": "uint256"
        }
      ],
      "name": "ownerOf",
      "outputs": [
        {
          "internalType": "address",
          "name": "",
          "type": "address"
        }
      ],
      "stateMutability": "view",
      "type": "function"
    },
    {
      "inputs": [
        {
          "internalType": "uint256",
          "name": "tokenId",
          "type": "uint256"
        }
      ],
      "name": "positions",
      "outputs": [
        {
          "internalType": "address",
          "name": "owner",
          "type": "address"
        },
        {
          "internalType": "address",
          "name": "token0",
          "type": "address"
        },
        {
          "internalType": "address",
          "name": "token1",
          "type": "address"
        },
        {
          "internalType": "uint24",
          "name": "fee",
          "type": "uint24"
        },
        {
          "internalType": "int24",
          "name": "tickLower",
          "type": "int24"
        },
        {
          "internalType": "int24",
          "name": "tickUpper",
          "type": "int24"
        },
        {
          "internalType": "uint128",
          "name": "liquidity",
          "type": "uint128"
        },
        {
          "internalType": "uint256",
          "name": "feeGrowthInside0LastX128",
          "type": "uint256"
        },
        {
          "internalType": "uint256",
          "name": "feeGrowthInside1LastX128",
          "type": "uint256"
        },
        {
          "internalType": "uint128",
          "name": "tokensOwed0",
          "type": "uint128"
        },
        {
          "internalType": "uint128",
          "name": "tokensOwed1",
          "type": "uint128"
        }
      ],
      "stateMutability": "view",
      "type": "function"
    },
    {
      "inputs": [
        {
          "internalType": "address",
          "name": "from",
          "type": "address"
        },
        {
          "internalType": "address",
          "name": "to",
          "type": "address"
        },
        {
          "internalType": "uint256",
          "name": "tokenId",
          "type": "uint256"
        }
      ],
      "name": "safeTransferFrom",
      "outputs": [],
      "stateMutability": "nonpayable",
      "type": "function"
    },
    {
      "inputs": [
        {
          "internalType": "address",
          "name": "from",
          "type": "address"
        },
        {
          "internalType": "address",
          "name": "to",
          "type": "address"
        },
        {
          "internalType": "uint256",
          "name": "tokenId",
          "type": "uint256"
        },
        {
          "internalType": "bytes",
          "name": "data",
          "type": "bytes"
        }
      ],
      "name": "safeTransferFrom",
      "outputs": [],
      "stateMutability": "nonpayable",
      "type": "function"
    },
    {
      "inputs": [
        {
          "internalType": "address",
          "name": "operator",
          "type": "address"
        },
        {
          "internalType": "bool",
          "name": "approved",
          "type": "bool"
        }
      ],
      "name": "setApprovalForAll",
      "outputs": [],
      "stateMutability": "nonpayable",
      "type": "function"
    },
    {
      "inputs": [
        {
          "internalType": "bytes4",
          "name": "interfaceId",
          "type": "bytes4"
        }
      ],
      "name": "supportsInterface",
      "outputs": [
        {
          "internalType": "bool",
          "name": "",
          "type": "bool"
        }
      ],
      "stateMutability": "view",
      "type": "function"
    },
    {
      "inputs": [],
      "name": "symbol",
      "outputs": [
        {
          "internalType": "string",
          "name": "",
          "type": "string"
        }
      ],
      "stateMutability": "view",
      "type": "function"
    },
    {
      "inputs": [
        {
          "internalType": "uint256",
          "name": "index",
          "type": "uint256"
        }
      ],
      "name": "tokenByIndex",
      "outputs": [
        {
          "internalType": "uint256",
          "name": "",
          "type": "uint256"
        }
      ],
      "stateMutability": "view",
      "type": "function"
    },
    {
      "inputs": [
        {
          "internalType": "address",
          "name": "owner",
          "type": "address"
        },
        {
          "internalType": "uint256",
          "name": "index",
          "type": "uint256"
        }
      ],
      "name": "tokenOfOwnerByIndex",
      "outputs": [
        {
          "internalType": "uint256",
          "name": "",
          "type": "uint256"
        }
      ],
      "stateMutability": "view",
      "type": "function"
    },
    {
      "inputs": [
        {
          "internalType": "uint256",
          "name": "tokenId",
          "type": "uint256"
        }
      ],
      "name": "tokenURI",
      "outputs": [
        {
          "internalType": "string",
          "name": "",
          "type": "string"
        }
      ],
      "stateMutability": "view",
      "type": "function"
    },
    {
      "inputs": [],
      "name": "totalSupply",
      "outputs": [
        {
          "internalType": "uint256",
          "name": "",
          "type": "uint256"
        }
      ],
      "stateMutability": "view",
      "type": "function"
    },
    {
      "inputs": [
        {
          "internalType": "address",
          "name": "from",
          "type": "address"
        },
        {
          "internalType": "address",
          "name": "to",
          "type": "address"
        },
        {
          "internalType": "uint256",
          "name": "tokenId",
          "type": "uint256"
        }
      ],
      "name": "transferFrom",
      "outputs": [],
      "stateMutability": "nonpayable",
      "type": "function"
    }
  ],
  "bytecode": {
    "object": "0x60a0604052760100000000000000000000000000000000000000000001600c553480156200002c57600080fd5b5060405162003e0a38038062003e0a8339810160408190526200004f91620000e6565b604080518082018252600a8082526904c4d54204e4654204c560b41b6020808401829052845180860190955291845290830152906000620000918382620001c3565b506001620000a08282620001c3565b5050600d80546001600160a01b0319166001600160a01b0394851617905550166080526200028f565b80516001600160a01b0381168114620000e157600080fd5b919050565b60008060408385031215620000fa57600080fd5b6200010583620000c9565b91506200011560208401620000c9565b90509250929050565b634e487b7160e01b600052604160045260246000fd5b600181811c908216806200014957607f821691505b6020821081036200016a57634e487b7160e01b600052602260045260246000fd5b50919050565b601f821115620001be57600081815260208120601f850160051c81016020861015620001995750805b601f850160051c820191505b81811015620001ba57828155600101620001a5565b5050505b505050565b81516001600160401b03811115620001df57620001df6200011e565b620001f781620001f0845462000134565b8462000170565b602080601f8311600181146200022f5760008415620002165750858301515b600019600386901b1c1916600185901b178555620001ba565b600085815260208120601f198616915b8281101562000260578886015182559484019460019091019084016200023f565b50858210156200027f5787850151600019600388901b60f8161c191681555b5050505050600190811b01905550565b608051613b58620002b2600039600081816104e20152611cdd0152613b586000f3fe608060405234801561001057600080fd5b50600436106101585760003560e01c806370a08231116100c3578063b88d4fde1161007c578063b88d4fde146104b7578063c181596c146104ca578063c45a0155146104dd578063c87b56dd14610504578063e85d0daf14610517578063e985e9c51461052a57600080fd5b806370a08231146102ab57806388316456146102be57806395d89b41146102fa57806399fbab8814610302578063a22cb46514610484578063ac9650d81461049757600080fd5b8063219f5d1711610115578063219f5d171461021457806323b872dd1461024c5780632f745c591461025f57806342842e0e146102725780634f6ccce7146102855780636352211e1461029857600080fd5b806301ffc9a71461015d57806306fdde0314610185578063081812fc1461019a578063095ea7b3146101c55780630c49ccbe146101da57806318160ddd14610202575b600080fd5b61017061016b366004613082565b610566565b60405190151581526020015b60405180910390f35b61018d6105b8565b60405161017c91906130ef565b6101ad6101a8366004613102565b61064a565b6040516001600160a01b03909116815260200161017c565b6101d86101d3366004613130565b610671565b005b6101ed6101e836600461315c565b61078b565b6040805192835260208301919091520161017c565b6008545b60405190815260200161017c565b610227610222366004613174565b610a99565b604080516001600160801b03909416845260208401929092529082015260600161017c565b6101d861025a366004613186565b610e21565b61020661026d366004613130565b610e52565b6101d8610280366004613186565b610ee8565b610206610293366004613102565b610f03565b6101ad6102a6366004613102565b610f96565b6102066102b93660046131c7565b610ff6565b6102d16102cc3660046131e4565b61107c565b604080519485526020850193909352918301526001600160801b0316606082015260800161017c565b61018d61133e565b610407610310366004613102565b6000818152600b6020908152604080832081516101008101835281546001600160a01b038082168352600160a01b808304600290810b858901908152600160b81b909404810b8588019081526001808801546001600160801b039081166060808a01918252948a015460808a0190815260038b015460a08b019081526004909b015480841660c08c01908152600160801b90910490931660e08b019081529e8e52600a8d529c8b90208b519586018c52805488168087529301549687169b85018c90529490950462ffffff169290980182905294519351945191519851955192519951939a96999798909794969195909490939091565b604080516001600160a01b039c8d1681529a8c1660208c01529a9098169989019990995262ffffff9095166060880152600293840b60808801529190920b60a08601526001600160801b0391821660c086015260e0850152610100840191909152928316610120830152919091166101408201526101600161017c565b6101d8610492366004613205565b61134d565b6104aa6104a536600461323e565b61135c565b60405161017c91906132b3565b6101d86104c536600461335c565b611451565b6101ed6104d8366004613102565b611489565b6101ad7f000000000000000000000000000000000000000000000000000000000000000081565b61018d610512366004613102565b6115da565b6101ed610525366004613420565b61164e565b610170610538366004613432565b6001600160a01b03918216600090815260056020908152604080832093909416825291909152205460ff1690565b60006001600160e01b031982166380ac58cd60e01b148061059757506001600160e01b03198216635b5e139f60e01b145b806105b257506301ffc9a760e01b6001600160e01b03198316145b92915050565b6060600080546105c790613460565b80601f01602080910402602001604051908101604052809291908181526020018280546105f390613460565b80156106405780601f1061061557610100808354040283529160200191610640565b820191906000526020600020905b81548152906001019060200180831161062357829003601f168201915b5050505050905090565b600061065582611a57565b506000908152600460205260409020546001600160a01b031690565b600061067c82610f96565b9050806001600160a01b0316836001600160a01b0316036106ee5760405162461bcd60e51b815260206004820152602160248201527f4552433732313a20617070726f76616c20746f2063757272656e74206f776e656044820152603960f91b60648201526084015b60405180910390fd5b336001600160a01b038216148061070a575061070a8133610538565b61077c5760405162461bcd60e51b815260206004820152603d60248201527f4552433732313a20617070726f76652063616c6c6572206973206e6f7420746f60448201527f6b656e206f776e6572206f7220617070726f76656420666f7220616c6c00000060648201526084016106e5565b6107868383611ab9565b505050565b600080823561079a3382611b27565b6107d55760405162461bcd60e51b815260206004820152600c60248201526b139bdd08185c1c1c9bdd995960a21b60448201526064016106e5565b8360800135804211156108205760405162461bcd60e51b8152602060048201526013602482015272151c985b9cd858dd1a5bdb881d1bdbc81bdb19606a1b60448201526064016106e5565b84356000818152600a6020908152604080832081516060808201845282546001600160a01b0390811683526001938401548082168488015262ffffff600160a01b918290041684870152978752600b86529584902084516101008101865281548089168252988904600290810b828901819052600160b81b909a04810b828801819052958301546001600160801b03908116948301949094528201546080820152600382015460a082015260049091015480831660c0830152600160801b900490911660e0820152600d5491969095919091169363abf978e49387939161090b918e01908e016134a9565b6040518563ffffffff1660e01b815260040161092a94939291906134f2565b60408051808303816000875af1158015610948573d6000803e3d6000fd5b505050506040513d601f19601f8201168201806040525081019061096c919061352a565b909650945060408701358610801590610989575086606001358510155b6109c65760405162461bcd60e51b815260206004820152600e60248201526d736c69707061676520636865636b60901b60448201526064016106e5565b6000806109d38935611489565b91509150610a028360800151836109ea9190613564565b84606001516001600160801b0316600160801b611ba6565b8360c001818151610a139190613577565b6001600160801b031690525060a0830151610a32906109ea9083613564565b8360e001818151610a439190613577565b6001600160801b03169052506080830182905260a08301819052610a6d60408a0160208b016134a9565b83606001818151610a7e9190613597565b6001600160801b031690525096989597509495505050505050565b60008060008360a0013580421115610ae95760405162461bcd60e51b8152602060048201526013602482015272151c985b9cd858dd1a5bdb881d1bdbc81bdb19606a1b60448201526064016106e5565b6000600a6000876000013581526020019081526020016000206040518060600160405290816000820160009054906101000a90046001600160a01b03166001600160a01b03166001600160a01b031681526020016001820160009054906101000a90046001600160a01b03166001600160a01b03166001600160a01b031681526020016001820160149054906101000a900462ffffff1662ffffff1662ffffff168152505090506000600b600088600001358152602001908152602001600020604051806101000160405290816000820160009054906101000a90046001600160a01b03166001600160a01b03166001600160a01b031681526020016000820160149054906101000a900460020b60020b60020b81526020016000820160179054906101000a900460020b60020b60020b81526020016001820160009054906101000a90046001600160801b03166001600160801b03166001600160801b0316815260200160028201548152602001600382015481526020016004820160009054906101000a90046001600160801b03166001600160801b03166001600160801b031681526020016004820160109054906101000a90046001600160801b03166001600160801b03166001600160801b0316815250509050610d6c60405180610160016040528084600001516001600160a01b0316815260200184602001516001600160a01b03168152602001846040015162ffffff16815260200183600001516001600160a01b03168152602001336001600160a01b03168152602001836020015160020b8152602001836040015160020b81526020018960200135815260200189604001358152602001896060013581526020018960800135815250611c84565b5091975060009150819050610d818935611489565b91509150610d988360800151836109ea9190613564565b8360c001818151610da99190613577565b6001600160801b031690525060a0830151610dc8906109ea9083613564565b8360e001818151610dd99190613577565b6001600160801b03169052506080830182905260a08301819052606083018051899190610e07908390613577565b6001600160801b0316905250969895975093955050505050565b610e2b3382611b27565b610e475760405162461bcd60e51b81526004016106e5906135b7565b610786838383612066565b6000610e5d83610ff6565b8210610ebf5760405162461bcd60e51b815260206004820152602b60248201527f455243373231456e756d657261626c653a206f776e657220696e646578206f7560448201526a74206f6620626f756e647360a81b60648201526084016106e5565b506001600160a01b03919091166000908152600660209081526040808320938352929052205490565b61078683838360405180602001604052806000815250611451565b6000610f0e60085490565b8210610f715760405162461bcd60e51b815260206004820152602c60248201527f455243373231456e756d657261626c653a20676c6f62616c20696e646578206f60448201526b7574206f6620626f756e647360a01b60648201526084016106e5565b60088281548110610f8457610f84613604565b90600052602060002001549050919050565b6000818152600260205260408120546001600160a01b0316806105b25760405162461bcd60e51b8152602060048201526018602482015277115490cdcc8c4e881a5b9d985b1a59081d1bdad95b88125160421b60448201526064016106e5565b60006001600160a01b0382166110605760405162461bcd60e51b815260206004820152602960248201527f4552433732313a2061646472657373207a65726f206973206e6f7420612076616044820152683634b21037bbb732b960b91b60648201526084016106e5565b506001600160a01b031660009081526003602052604090205490565b60008060008060006111716040518061016001604052808860000160208101906110a691906131c7565b6001600160a01b031681526020018860200160208101906110c791906131c7565b6001600160a01b031681526020016110e560608a0160408b0161361a565b62ffffff1681526020016111016101408a016101208b016131c7565b6001600160a01b0316815233602082015260400161112560808a0160608b0161364e565b60020b815260200161113d60a08a0160808b0161364e565b60020b81526020018860a0013581526020018860c0013581526020018860e001358152602001886101000135815250611c84565b919650945090925090506111de611190610140880161012089016131c7565b600c80546001600160b01b03169060006111a98361366b565b91906101000a8154816001600160b01b0302191690836001600160b01b031602179055506001600160b01b03169650866121d7565b6000806111ea87611489565b915091506040518061010001604052808961012001602081019061120e91906131c7565b6001600160a01b0316815260200161122c60808b0160608c0161364e565b60020b815260200161124460a08b0160808c0161364e565b600290810b82526001600160801b038781166020808501919091526040808501979097526060808501969096526000608080860182905260a09586018290528d8252600b8352908890208651815493880151998801516001600160a01b039091166001600160b81b031990941693909317600160a01b62ffffff9a8b16021762ffffff60b81b1916600160b81b9990931698909802919091178755948401516001870180546fffffffffffffffffffffffffffffffff19169183169190911790559383015190850155810151600384015560c081015160e090910151908216600160801b9190921602176004909101555092949193509190565b6060600180546105c790613460565b611358338383612370565b5050565b60608167ffffffffffffffff81111561137757611377613315565b6040519080825280602002602001820160405280156113aa57816020015b60608152602001906001900390816113955790505b50905060005b8281101561144a5761141a308585848181106113ce576113ce613604565b90506020028101906113e09190613699565b8080601f01602080910402602001604051908101604052809392919081815260200183838082843760009201919091525061243e92505050565b82828151811061142c5761142c613604565b60200260200101819052508080611442906136e7565b9150506113b0565b5092915050565b61145b3383611b27565b6114775760405162461bcd60e51b81526004016106e5906135b7565b61148384848484612463565b50505050565b6000818152600b6020908152604080832081516101008101835281546001600160a01b038082168352600160a01b808304600290810b858901908152600160b81b909404810b8588019081526001808801546001600160801b039081166060808a0191909152938901546080890152600389015460a089015260049889015480821660c08a0152600160801b90041660e08801528b8b52600a8a52888b2089519384018a528054861684520154808516998301999099529190970462ffffff1687870152600d5492519051955163a840465560e01b81528897949694958895949093169363a840465593611584938893909291309101613700565b60a060405180830381865afa1580156115a1573d6000803e3d6000fd5b505050506040513d601f19601f820116820180604052508101906115c59190613738565b80516020909101519097909650945050505050565b60606115e582611a57565b60006115fc60408051602081019091526000815290565b9050600081511161161c5760405180602001604052806000815250611647565b8061162684612496565b6040516020016116379291906137c0565b6040516020818303038152906040525b9392505050565b600080823561165d3382611b27565b6116985760405162461bcd60e51b815260206004820152600c60248201526b139bdd08185c1c1c9bdd995960a21b60448201526064016106e5565b83356000818152600b6020908152604080832081516101008101835281546001600160a01b038082168352600160a01b808304600290810b85890152600160b81b909304830b848701526001808601546001600160801b039081166060808801918252958801546080880152600388015460a088015260049097015480821660c08801908152600160801b909104821660e088019081529b8b52600a8a52888b2089519687018a528054861687529092015493841698850198909852910462ffffff16948201949094529251955191519095929492939192918291161561186f57600d5460208701516040808901519051632afe5e3960e21b81526001600160a01b039093169263abf978e4926117b6928a926000906004016134f2565b60408051808303816000875af11580156117d4573d6000803e3d6000fd5b505050506040513d601f19601f820116820180604052508101906117f8919061352a565b5061180590508a35611489565b608088015191935091506118359061181d9084613564565b87606001516001600160801b0316600160801b611ba6565b61183f9085613577565b93506118548660a001518261181d9190613564565b61185e9084613577565b6080870183905260a0870182905292505b600d54602087015160408089015190516319fa103360e01b81526001600160a01b03909316926319fa1033926118a9928a926004016137ef565b60408051808303816000875af11580156118c7573d6000803e3d6000fd5b505050506040513d601f19601f820116820180604052508101906118eb9190613817565b86516001600160801b039283169b50911698506001600160a01b031663a9059cbb61191c60408d0160208e016131c7565b6040516001600160e01b031960e084901b1681526001600160a01b0390911660048201526001600160801b03871660248201526044016020604051808303816000875af1158015611971573d6000803e3d6000fd5b505050506040513d601f19601f820116820180604052508101906119959190613846565b5084602001516001600160a01b031663a9059cbb8b60200160208101906119bc91906131c7565b6040516001600160e01b031960e084901b1681526001600160a01b0390911660048201526001600160801b03861660248201526044016020604051808303816000875af1158015611a11573d6000803e3d6000fd5b505050506040513d601f19601f82011682018060405250810190611a359190613846565b5050600060c0860181905260e090950194909452509496939550929350505050565b6000818152600260205260409020546001600160a01b0316611ab65760405162461bcd60e51b8152602060048201526018602482015277115490cdcc8c4e881a5b9d985b1a59081d1bdad95b88125160421b60448201526064016106e5565b50565b600081815260046020526040902080546001600160a01b0319166001600160a01b0384169081179091558190611aee82610f96565b6001600160a01b03167f8c5be1e5ebec7d5bd14f71427d1e84f3dd0314c0f7b2291e5b200ac8c7c3b92560405160405180910390a45050565b600080611b3383610f96565b9050806001600160a01b0316846001600160a01b03161480611b7a57506001600160a01b0380821660009081526005602090815260408083209388168352929052205460ff165b80611b9e5750836001600160a01b0316611b938461064a565b6001600160a01b0316145b949350505050565b6000808060001985870985870292508281108382030391505080600003611bdf5760008411611bd457600080fd5b508290049050611647565b808411611c175760405162461bcd60e51b815260206004820152600660248201526536bab62234bb60d11b60448201526064016106e5565b6000848688096000868103871696879004966002600389028118808a02820302808a02820302808a02820302808a02820302808a02820302808a02909103029181900381900460010186841190950394909402919094039290920491909117919091029150509392505050565b6000806000808460c0015160020b8560a0015160020b12611cd85760405162461bcd60e51b815260206004820152600e60248201526d151250d2d4d7d49155915494d15160921b60448201526064016106e5565b611d3f7f0000000000000000000000000000000000000000000000000000000000000000604051806060016040528088600001516001600160a01b0316815260200188602001516001600160a01b03168152602001886040015162ffffff16815250612529565b600d5486516020808901516040808b015181516001600160a01b03958616948101949094529184169083015262ffffff166060820152929350600092911690636519768890608001604051602081830303815290604052805190602001206040518263ffffffff1660e01b8152600401611dbb91815260200190565b602060405180830381865afa158015611dd8573d6000803e3d6000fd5b505050506040513d601f19601f82011682018060405250810190611dfc9190613863565b9050808660a00151611e0e9190613896565b60020b158015611e2e5750808660c00151611e299190613896565b60020b155b611e705760405162461bcd60e51b81526020600482015260136024820152725449434b535f4e4f545f444956495349424c4560681b60448201526064016106e5565b6000826001600160a01b0316633850c7bd6040518163ffffffff1660e01b815260040160e060405180830381865afa158015611eb0573d6000803e3d6000fd5b505050506040513d601f19601f82011682018060405250810190611ed491906138d8565b50505050505090506000611eeb8860a00151612612565b90506000611efc8960c00151612612565b9050611f148383838c60e001518d6101000151612935565b975050505050600d60009054906101000a90046001600160a01b03166001600160a01b031663d7d3ed6a604051806060016040528088600001516001600160a01b0316815260200188602001516001600160a01b03168152602001886040015162ffffff168152508760a001518860c00151888a606001518b608001516040518763ffffffff1660e01b8152600401611fb296959493929190613970565b60408051808303816000875af1158015611fd0573d6000803e3d6000fd5b505050506040513d601f19601f82011682018060405250810190611ff4919061352a565b6101208701519194509250831080159061201357508461014001518210155b61205f5760405162461bcd60e51b815260206004820152601d60248201527f494e53554646494349454e545f4c49515549444954595f4d494e54454400000060448201526064016106e5565b9193509193565b826001600160a01b031661207982610f96565b6001600160a01b03161461209f5760405162461bcd60e51b81526004016106e5906139c2565b6001600160a01b0382166121015760405162461bcd60e51b8152602060048201526024808201527f4552433732313a207472616e7366657220746f20746865207a65726f206164646044820152637265737360e01b60648201526084016106e5565b61210e83838360016129f9565b826001600160a01b031661212182610f96565b6001600160a01b0316146121475760405162461bcd60e51b81526004016106e5906139c2565b600081815260046020908152604080832080546001600160a01b03199081169091556001600160a01b0387811680865260038552838620805460001901905590871680865283862080546001019055868652600290945282852080549092168417909155905184937fddf252ad1be2c89b69c2b068fc378daa952ba7f163c4a11628f55a4df523b3ef91a4505050565b6001600160a01b03821661222d5760405162461bcd60e51b815260206004820181905260248201527f4552433732313a206d696e7420746f20746865207a65726f206164647265737360448201526064016106e5565b6000818152600260205260409020546001600160a01b0316156122925760405162461bcd60e51b815260206004820152601c60248201527f4552433732313a20746f6b656e20616c7265616479206d696e7465640000000060448201526064016106e5565b6122a06000838360016129f9565b6000818152600260205260409020546001600160a01b0316156123055760405162461bcd60e51b815260206004820152601c60248201527f4552433732313a20746f6b656e20616c7265616479206d696e7465640000000060448201526064016106e5565b6001600160a01b038216600081815260036020908152604080832080546001019055848352600290915280822080546001600160a01b0319168417905551839291907fddf252ad1be2c89b69c2b068fc378daa952ba7f163c4a11628f55a4df523b3ef908290a45050565b816001600160a01b0316836001600160a01b0316036123d15760405162461bcd60e51b815260206004820152601960248201527f4552433732313a20617070726f766520746f2063616c6c65720000000000000060448201526064016106e5565b6001600160a01b03838116600081815260056020908152604080832094871680845294825291829020805460ff191686151590811790915591519182527f17307eab39ab6107e8899845ad3d59bd9653f200f220920489ca2b5937696c31910160405180910390a3505050565b60606116478383604051806060016040528060278152602001613afc60279139612b2d565b61246e848484612066565b61247a84848484612ba5565b6114835760405162461bcd60e51b81526004016106e590613a07565b606060006124a383612ca6565b600101905060008167ffffffffffffffff8111156124c3576124c3613315565b6040519080825280601f01601f1916602001820160405280156124ed576020820181803683370190505b5090508181016020015b600019016f181899199a1a9b1b9c1cb0b131b232b360811b600a86061a8153600a85049450846124f757509392505050565b600081602001516001600160a01b031682600001516001600160a01b03161061255157600080fd5b815160208084015160408086015181516001600160a01b0395861681860152949092168482015262ffffff90911660608085019190915281518085038201815260808501909252815191909201206001600160f81b031960a08401529085901b6bffffffffffffffffffffffff191660a183015260b58201527fe34f199b19b2b4f47f68442619d555527d244f78a3297ea89325f843f87b8b5460d582015260f50160408051601f1981840301815291905280516020909101209392505050565b60008060008360020b12612629578260020b612631565b8260020b6000035b9050620d89e8811115612657576040516315e4079d60e11b815260040160405180910390fd5b60008160011660000361266e57600160801b612680565b6ffffcb933bd6fad37aa2d162d1a5940015b70ffffffffffffffffffffffffffffffffff16905060028216156126b4576ffff97272373d413259a46990580e213a0260801c5b60048216156126d3576ffff2e50f5f656932ef12357cf3c7fdcc0260801c5b60088216156126f2576fffe5caca7e10e4e61c3624eaa0941cd00260801c5b6010821615612711576fffcb9843d60f6159c9db58835c9266440260801c5b6020821615612730576fff973b41fa98c081472e6896dfb254c00260801c5b604082161561274f576fff2ea16466c96a3843ec78b326b528610260801c5b608082161561276e576ffe5dee046a99a2a811c461f1969c30530260801c5b61010082161561278e576ffcbe86c7900a88aedcffc83b479aa3a40260801c5b6102008216156127ae576ff987a7253ac413176f2b074cf7815e540260801c5b6104008216156127ce576ff3392b0822b70005940c7a398e4b70f30260801c5b6108008216156127ee576fe7159475a2c29b7443b29c7fa6e889d90260801c5b61100082161561280e576fd097f3bdfd2022b8845ad8f792aa58250260801c5b61200082161561282e576fa9f746462d870fdf8a65dc1f90e061e50260801c5b61400082161561284e576f70d869a156d2a1b890bb3df62baf32f70260801c5b61800082161561286e576f31be135f97d08fd981231505542fcfa60260801c5b6201000082161561288f576f09aa508b5b7a84e1c677de54f3e99bc90260801c5b620200008216156128af576e5d6af8dedb81196699c329225ee6040260801c5b620400008216156128ce576d2216e584f5fa1ea926041bedfe980260801c5b620800008216156128eb576b048a170391f7dc42444e8fa20260801c5b60008460020b131561290c57806000198161290857612908613880565b0490505b640100000000810615612920576001612923565b60005b60ff16602082901c0192505050919050565b6000836001600160a01b0316856001600160a01b03161115612955579293925b846001600160a01b0316866001600160a01b03161161298057612979858585612d7e565b90506129f0565b836001600160a01b0316866001600160a01b031610156129e25760006129a7878686612d7e565b905060006129b6878986612de8565b9050806001600160801b0316826001600160801b0316106129d757806129d9565b815b925050506129f0565b6129ed858584612de8565b90505b95945050505050565b6001811115612a685760405162461bcd60e51b815260206004820152603560248201527f455243373231456e756d657261626c653a20636f6e7365637574697665207472604482015274185b9cd9995c9cc81b9bdd081cdd5c1c1bdc9d1959605a1b60648201526084016106e5565b816001600160a01b038516612ac457612abf81600880546000838152600960205260408120829055600182018355919091527ff3f7a9fe364faab93b216da50a3214154f22a0a2b415b23a84c8169e8b636ee30155565b612ae7565b836001600160a01b0316856001600160a01b031614612ae757612ae78582612e1e565b6001600160a01b038416612b0357612afe81612ebb565b612b26565b846001600160a01b0316846001600160a01b031614612b2657612b268482612f6a565b5050505050565b6060600080856001600160a01b031685604051612b4a9190613a59565b600060405180830381855af49150503d8060008114612b85576040519150601f19603f3d011682016040523d82523d6000602084013e612b8a565b606091505b5091509150612b9b86838387612fae565b9695505050505050565b60006001600160a01b0384163b15612c9b57604051630a85bd0160e11b81526001600160a01b0385169063150b7a0290612be9903390899088908890600401613a75565b6020604051808303816000875af1925050508015612c24575060408051601f3d908101601f19168201909252612c2191810190613aa8565b60015b612c81573d808015612c52576040519150601f19603f3d011682016040523d82523d6000602084013e612c57565b606091505b508051600003612c795760405162461bcd60e51b81526004016106e590613a07565b805181602001fd5b6001600160e01b031916630a85bd0160e11b149050611b9e565b506001949350505050565b60008072184f03e93ff9f4daa797ed6e38ed64bf6a1f0160401b8310612ce55772184f03e93ff9f4daa797ed6e38ed64bf6a1f0160401b830492506040015b6d04ee2d6d415b85acef81000000008310612d11576d04ee2d6d415b85acef8100000000830492506020015b662386f26fc100008310612d2f57662386f26fc10000830492506010015b6305f5e1008310612d47576305f5e100830492506008015b6127108310612d5b57612710830492506004015b60648310612d6d576064830492506002015b600a83106105b25760010192915050565b6000826001600160a01b0316846001600160a01b03161115612d9e579192915b6000612dc1856001600160a01b0316856001600160a01b0316600160601b611ba6565b90506129f0612de38483612dd58989613ac5565b6001600160a01b0316611ba6565b613027565b6000826001600160a01b0316846001600160a01b03161115612e08579192915b611b9e612de383600160601b612dd58888613ac5565b60006001612e2b84610ff6565b612e359190613564565b600083815260076020526040902054909150808214612e88576001600160a01b03841660009081526006602090815260408083208584528252808320548484528184208190558352600790915290208190555b5060009182526007602090815260408084208490556001600160a01b039094168352600681528383209183525290812055565b600854600090612ecd90600190613564565b60008381526009602052604081205460088054939450909284908110612ef557612ef5613604565b906000526020600020015490508060088381548110612f1657612f16613604565b6000918252602080832090910192909255828152600990915260408082208490558582528120556008805480612f4e57612f4e613ae5565b6001900381819060005260206000200160009055905550505050565b6000612f7583610ff6565b6001600160a01b039093166000908152600660209081526040808320868452825280832085905593825260079052919091209190915550565b6060831561301d578251600003613016576001600160a01b0385163b6130165760405162461bcd60e51b815260206004820152601d60248201527f416464726573733a2063616c6c20746f206e6f6e2d636f6e747261637400000060448201526064016106e5565b5081611b9e565b611b9e8383613042565b806001600160801b038116811461303d57600080fd5b919050565b8151156130525781518083602001fd5b8060405162461bcd60e51b81526004016106e591906130ef565b6001600160e01b031981168114611ab657600080fd5b60006020828403121561309457600080fd5b81356116478161306c565b60005b838110156130ba5781810151838201526020016130a2565b50506000910152565b600081518084526130db81602086016020860161309f565b601f01601f19169290920160200192915050565b60208152600061164760208301846130c3565b60006020828403121561311457600080fd5b5035919050565b6001600160a01b0381168114611ab657600080fd5b6000806040838503121561314357600080fd5b823561314e8161311b565b946020939093013593505050565b600060a0828403121561316e57600080fd5b50919050565b600060c0828403121561316e57600080fd5b60008060006060848603121561319b57600080fd5b83356131a68161311b565b925060208401356131b68161311b565b929592945050506040919091013590565b6000602082840312156131d957600080fd5b81356116478161311b565b6000610160828403121561316e57600080fd5b8015158114611ab657600080fd5b6000806040838503121561321857600080fd5b82356132238161311b565b91506020830135613233816131f7565b809150509250929050565b6000806020838503121561325157600080fd5b823567ffffffffffffffff8082111561326957600080fd5b818501915085601f83011261327d57600080fd5b81358181111561328c57600080fd5b8660208260051b85010111156132a157600080fd5b60209290920196919550909350505050565b6000602080830181845280855180835260408601915060408160051b870101925083870160005b8281101561330857603f198886030184526132f68583516130c3565b945092850192908501906001016132da565b5092979650505050505050565b634e487b7160e01b600052604160045260246000fd5b604051601f8201601f1916810167ffffffffffffffff8111828210171561335457613354613315565b604052919050565b6000806000806080858703121561337257600080fd5b843561337d8161311b565b935060208581013561338e8161311b565b935060408601359250606086013567ffffffffffffffff808211156133b257600080fd5b818801915088601f8301126133c657600080fd5b8135818111156133d8576133d8613315565b6133ea601f8201601f1916850161332b565b9150808252898482850101111561340057600080fd5b808484018584013760008482840101525080935050505092959194509250565b60006040828403121561316e57600080fd5b6000806040838503121561344557600080fd5b82356134508161311b565b915060208301356132338161311b565b600181811c9082168061347457607f821691505b60208210810361316e57634e487b7160e01b600052602260045260246000fd5b6001600160801b0381168114611ab657600080fd5b6000602082840312156134bb57600080fd5b813561164781613494565b80516001600160a01b0390811683526020808301519091169083015260409081015162ffffff16910152565b60c0810161350082876134c6565b8460020b60608301528360020b60808301526001600160801b03831660a083015295945050505050565b6000806040838503121561353d57600080fd5b505080516020909101519092909150565b634e487b7160e01b600052601160045260246000fd5b818103818111156105b2576105b261354e565b6001600160801b0381811683821601908082111561144a5761144a61354e565b6001600160801b0382811682821603908082111561144a5761144a61354e565b6020808252602d908201527f4552433732313a2063616c6c6572206973206e6f7420746f6b656e206f776e6560408201526c1c881bdc88185c1c1c9bdd9959609a1b606082015260800190565b634e487b7160e01b600052603260045260246000fd5b60006020828403121561362c57600080fd5b813562ffffff8116811461164757600080fd5b8060020b8114611ab657600080fd5b60006020828403121561366057600080fd5b81356116478161363f565b60006001600160b01b038281166002600160b01b0319810161368f5761368f61354e565b6001019392505050565b6000808335601e198436030181126136b057600080fd5b83018035915067ffffffffffffffff8211156136cb57600080fd5b6020019150368190038213156136e057600080fd5b9250929050565b6000600182016136f9576136f961354e565b5060010190565b60c0810161370e82876134c6565b600294850b60608301529290930b60808401526001600160a01b031660a090920191909152919050565b600060a0828403121561374a57600080fd5b60405160a0810181811067ffffffffffffffff8211171561376d5761376d613315565b80604052508251815260208301516020820152604083015161378e81613494565b604082015260608301516137a181613494565b606082015260808301516137b481613494565b60808201529392505050565b600083516137d281846020880161309f565b8351908301906137e681836020880161309f565b01949350505050565b60a081016137fd82866134c6565b8360020b60608301528260020b6080830152949350505050565b6000806040838503121561382a57600080fd5b825161383581613494565b602084015190925061323381613494565b60006020828403121561385857600080fd5b8151611647816131f7565b60006020828403121561387557600080fd5b81516116478161363f565b634e487b7160e01b600052601260045260246000fd5b60008260020b806138b757634e487b7160e01b600052601260045260246000fd5b808360020b0791505092915050565b805161ffff8116811461303d57600080fd5b600080600080600080600060e0888a0312156138f357600080fd5b87516138fe8161311b565b602089015190975061390f8161363f565b955061391d604089016138c6565b945061392b606089016138c6565b9350613939608089016138c6565b925060a088015160ff8116811461394f57600080fd5b60c0890151909250613960816131f7565b8091505092959891949750929550565b610100810161397f82896134c6565b600296870b60608301529490950b60808601526001600160801b039290921660a08501526001600160a01b0390811660c08501521660e090920191909152919050565b60208082526025908201527f4552433732313a207472616e736665722066726f6d20696e636f72726563742060408201526437bbb732b960d91b606082015260800190565b60208082526032908201527f4552433732313a207472616e7366657220746f206e6f6e20455243373231526560408201527131b2b4bb32b91034b6b83632b6b2b73a32b960711b606082015260800190565b60008251613a6b81846020870161309f565b9190910192915050565b6001600160a01b03858116825284166020820152604081018390526080606082018190526000906129ed908301846130c3565b600060208284031215613aba57600080fd5b81516116478161306c565b6001600160a01b0382811682821603908082111561144a5761144a61354e565b634e487b7160e01b600052603160045260246000fdfe416464726573733a206c6f772d6c6576656c2064656c65676174652063616c6c206661696c6564a264697066735822122095f9cc98e993e0958cd86e9f38b63d5659d11d5e538ca05716b5c62b28cb8eef64736f6c63430008150033",
    "linkReferences": {}
  },
  "methodIdentifiers": {
    "approve(address,uint256)": "095ea7b3",
    "balanceOf(address)": "70a08231",
    "collect((uint256,address))": "e85d0daf",
    "decreaseLiquidity((uint256,uint128,uint256,uint256,uint256))": "0c49ccbe",
    "factory()": "c45a0155",
    "fetchLatestTotalFeeGrowth(uint256)": "c181596c",
    "getApproved(uint256)": "081812fc",
    "increaseLiquidity((uint256,uint256,uint256,uint256,uint256,uint256))": "219f5d17",
    "isApprovedForAll(address,address)": "e985e9c5",
    "mint((address,address,uint24,int24,int24,uint256,uint256,uint256,uint256,address,uint256))": "88316456",
    "multicall(bytes[])": "ac9650d8",
    "name()": "06fdde03",
    "ownerOf(uint256)": "6352211e",
    "positions(uint256)": "99fbab88",
    "safeTransferFrom(address,address,uint256)": "42842e0e",
    "safeTransferFrom(address,address,uint256,bytes)": "b88d4fde",
    "setApprovalForAll(address,bool)": "a22cb465",
    "supportsInterface(bytes4)": "01ffc9a7",
    "symbol()": "95d89b41",
    "tokenByIndex(uint256)": "4f6ccce7",
    "tokenOfOwnerByIndex(address,uint256)": "2f745c59",
    "tokenURI(uint256)": "c87b56dd",
    "totalSupply()": "18160ddd",
    "transferFrom(address,address,uint256)": "23b872dd"
  },
  "id": 61
}