{
  "abi": [
    {
      "inputs": [
        {
          "internalType": "address",
          "name": "_poolManager",
          "type": "address"
        },
        {
          "internalType": "address",
          "name": "_factory",
          "type": "address"
        }
      ],
      "stateMutability": "nonpayable",
      "type": "constructor"
    },
    {
      "inputs": [],
      "name": "T",
      "type": "error"
    },
    {
      "anonymous": false,
      "inputs": [
        {
          "indexed": true,
          "internalType": "address",
          "name": "owner",
          "type": "address"
        },
        {
          "indexed": true,
          "internalType": "address",
          "name": "approved",
          "type": "address"
        },
        {
          "indexed": true,
          "internalType": "uint256",
          "name": "tokenId",
          "type": "uint256"
        }
      ],
      "name": "Approval",
      "type": "event"
    },
    {
      "anonymous": false,
      "inputs": [
        {
          "indexed": true,
          "internalType": "address",
          "name": "owner",
          "type": "address"
        },
        {
          "indexed": true,
          "internalType": "address",
          "name": "operator",
          "type": "address"
        },
        {
          "indexed": false,
          "internalType": "bool",
          "name": "approved",
          "type": "bool"
        }
      ],
      "name": "ApprovalForAll",
      "type": "event"
    },
    {
      "anonymous": false,
      "inputs": [
        {
          "indexed": true,
          "internalType": "uint256",
          "name": "tokenId",
          "type": "uint256"
        },
        {
          "indexed": false,
          "internalType": "address",
          "name": "recipient",
          "type": "address"
        },
        {
          "indexed": false,
          "internalType": "uint256",
          "name": "amount0",
          "type": "uint256"
        },
        {
          "indexed": false,
          "internalType": "uint256",
          "name": "amount1",
          "type": "uint256"
        }
      ],
      "name": "Collect",
      "type": "event"
    },
    {
      "anonymous": false,
      "inputs": [
        {
          "indexed": true,
          "internalType": "uint256",
          "name": "tokenId",
          "type": "uint256"
        },
        {
          "indexed": false,
          "internalType": "uint128",
          "name": "liquidity",
          "type": "uint128"
        },
        {
          "indexed": false,
          "internalType": "uint256",
          "name": "amount0",
          "type": "uint256"
        },
        {
          "indexed": false,
          "internalType": "uint256",
          "name": "amount1",
          "type": "uint256"
        }
      ],
      "name": "DecreaseLiquidity",
      "type": "event"
    },
    {
      "anonymous": false,
      "inputs": [
        {
          "indexed": true,
          "internalType": "uint256",
          "name": "tokenId",
          "type": "uint256"
        },
        {
          "indexed": false,
          "internalType": "uint128",
          "name": "liquidity",
          "type": "uint128"
        },
        {
          "indexed": false,
          "internalType": "uint256",
          "name": "amount0",
          "type": "uint256"
        },
        {
          "indexed": false,
          "internalType": "uint256",
          "name": "amount1",
          "type": "uint256"
        }
      ],
      "name": "IncreaseLiquidity",
      "type": "event"
    },
    {
      "anonymous": false,
      "inputs": [
        {
          "indexed": true,
          "internalType": "address",
          "name": "from",
          "type": "address"
        },
        {
          "indexed": true,
          "internalType": "address",
          "name": "to",
          "type": "address"
        },
        {
          "indexed": true,
          "internalType": "uint256",
          "name": "tokenId",
          "type": "uint256"
        }
      ],
      "name": "Transfer",
      "type": "event"
    },
    {
      "inputs": [
        {
          "internalType": "address",
          "name": "to",
          "type": "address"
        },
        {
          "internalType": "uint256",
          "name": "tokenId",
          "type": "uint256"
        }
      ],
      "name": "approve",
      "outputs": [],
      "stateMutability": "nonpayable",
      "type": "function"
    },
    {
      "inputs": [
        {
          "internalType": "address",
          "name": "owner",
          "type": "address"
        }
      ],
      "name": "balanceOf",
      "outputs": [
        {
          "internalType": "uint256",
          "name": "",
          "type": "uint256"
        }
      ],
      "stateMutability": "view",
      "type": "function"
    },
    {
      "inputs": [
        {
          "internalType": "uint256",
          "name": "tokenId",
          "type": "uint256"
        }
      ],
      "name": "burn",
      "outputs": [],
      "stateMutability": "nonpayable",
      "type": "function"
    },
    {
      "inputs": [
        {
          "components": [
            {
              "internalType": "uint256",
              "name": "tokenId",
              "type": "uint256"
            },
            {
              "internalType": "address",
              "name": "recipient",
              "type": "address"
            }
          ],
          "internalType": "struct INonfungiblePositionManager.CollectParams",
          "name": "params",
          "type": "tuple"
        }
      ],
      "name": "collect",
      "outputs": [
        {
          "internalType": "uint256",
          "name": "tokensOwed0",
          "type": "uint256"
        },
        {
          "internalType": "uint256",
          "name": "tokensOwed1",
          "type": "uint256"
        }
      ],
      "stateMutability": "nonpayable",
      "type": "function"
    },
    {
      "inputs": [
        {
          "components": [
            {
              "internalType": "uint256",
              "name": "tokenId",
              "type": "uint256"
            },
            {
              "internalType": "uint128",
              "name": "liquidity",
              "type": "uint128"
            },
            {
              "internalType": "uint256",
              "name": "amount0Min",
              "type": "uint256"
            },
            {
              "internalType": "uint256",
              "name": "amount1Min",
              "type": "uint256"
            },
            {
              "internalType": "uint256",
              "name": "deadline",
              "type": "uint256"
            }
          ],
          "internalType": "struct INonfungiblePositionManager.DecreaseLiquidityParams",
          "name": "params",
          "type": "tuple"
        }
      ],
      "name": "decreaseLiquidity",
      "outputs": [
        {
          "internalType": "uint256",
          "name": "amount0",
          "type": "uint256"
        },
        {
          "internalType": "uint256",
          "name": "amount1",
          "type": "uint256"
        }
      ],
      "stateMutability": "nonpayable",
      "type": "function"
    },
    {
      "inputs": [],
      "name": "factory",
      "outputs": [
        {
          "internalType": "address",
          "name": "",
          "type": "address"
        }
      ],
      "stateMutability": "view",
      "type": "function"
    },
    {
      "inputs": [
        {
          "internalType": "uint256",
          "name": "tokenId",
          "type": "uint256"
        }
      ],
      "name": "fetchLatestTotalFeeGrowth",
      "outputs": [
        {
          "internalType": "uint256",
          "name": "totalFeeGrowthInside0LastX128",
          "type": "uint256"
        },
        {
          "internalType": "uint256",
          "name": "totalFeeGrowthInside1LastX128",
          "type": "uint256"
        }
      ],
      "stateMutability": "view",
      "type": "function"
    },
    {
      "inputs": [
        {
          "internalType": "uint256",
          "name": "tokenId",
          "type": "uint256"
        }
      ],
      "name": "getApproved",
      "outputs": [
        {
          "internalType": "address",
          "name": "",
          "type": "address"
        }
      ],
      "stateMutability": "view",
      "type": "function"
    },
    {
      "inputs": [
        {
          "components": [
            {
              "internalType": "uint256",
              "name": "tokenId",
              "type": "uint256"
            },
            {
              "internalType": "uint256",
              "name": "amount0Max",
              "type": "uint256"
            },
            {
              "internalType": "uint256",
              "name": "amount1Max",
              "type": "uint256"
            },
            {
              "internalType": "uint256",
              "name": "amount0Desired",
              "type": "uint256"
            },
            {
              "internalType": "uint256",
              "name": "amount1Desired",
              "type": "uint256"
            },
            {
              "internalType": "uint256",
              "name": "amount0Min",
              "type": "uint256"
            },
            {
              "internalType": "uint256",
              "name": "amount1Min",
              "type": "uint256"
            },
            {
              "internalType": "uint256",
              "name": "deadline",
              "type": "uint256"
            }
          ],
          "internalType": "struct INonfungiblePositionManager.IncreaseLiquidityParams",
          "name": "params",
          "type": "tuple"
        }
      ],
      "name": "increaseLiquidity",
      "outputs": [
        {
          "internalType": "uint128",
          "name": "liquidity",
          "type": "uint128"
        },
        {
          "internalType": "uint256",
          "name": "amount0",
          "type": "uint256"
        },
        {
          "internalType": "uint256",
          "name": "amount1",
          "type": "uint256"
        }
      ],
      "stateMutability": "nonpayable",
      "type": "function"
    },
    {
      "inputs": [
        {
          "internalType": "address",
          "name": "owner",
          "type": "address"
        },
        {
          "internalType": "address",
          "name": "operator",
          "type": "address"
        }
      ],
      "name": "isApprovedForAll",
      "outputs": [
        {
          "internalType": "bool",
          "name": "",
          "type": "bool"
        }
      ],
      "stateMutability": "view",
      "type": "function"
    },
    {
      "inputs": [
        {
          "components": [
            {
              "internalType": "address",
              "name": "token0",
              "type": "address"
            },
            {
              "internalType": "address",
              "name": "token1",
              "type": "address"
            },
            {
              "internalType": "uint24",
              "name": "fee",
              "type": "uint24"
            },
            {
              "internalType": "int24",
              "name": "tickLower",
              "type": "int24"
            },
            {
              "internalType": "int24",
              "name": "tickUpper",
              "type": "int24"
            },
            {
              "internalType": "uint256",
              "name": "amount0Max",
              "type": "uint256"
            },
            {
              "internalType": "uint256",
              "name": "amount1Max",
              "type": "uint256"
            },
            {
              "internalType": "uint256",
              "name": "amount0Desired",
              "type": "uint256"
            },
            {
              "internalType": "uint256",
              "name": "amount1Desired",
              "type": "uint256"
            },
            {
              "internalType": "uint256",
              "name": "amount0Min",
              "type": "uint256"
            },
            {
              "internalType": "uint256",
              "name": "amount1Min",
              "type": "uint256"
            },
            {
              "internalType": "address",
              "name": "recipient",
              "type": "address"
            },
            {
              "internalType": "uint256",
              "name": "deadline",
              "type": "uint256"
            }
          ],
          "internalType": "struct INonfungiblePositionManager.MintParams",
          "name": "params",
          "type": "tuple"
        }
      ],
      "name": "mint",
      "outputs": [
        {
          "internalType": "uint256",
          "name": "tokenId",
          "type": "uint256"
        },
        {
          "internalType": "uint256",
          "name": "amount0",
          "type": "uint256"
        },
        {
          "internalType": "uint256",
          "name": "amount1",
          "type": "uint256"
        },
        {
          "internalType": "uint128",
          "name": "liquidity",
          "type": "uint128"
        }
      ],
      "stateMutability": "nonpayable",
      "type": "function"
    },
    {
      "inputs": [
        {
          "internalType": "bytes[]",
          "name": "data",
          "type": "bytes[]"
        }
      ],
      "name": "multicall",
      "outputs": [
        {
          "internalType": "bytes[]",
          "name": "results",
          "type": "bytes[]"
        }
      ],
      "stateMutability": "nonpayable",
      "type": "function"
    },
    {
      "inputs": [],
      "name": "name",
      "outputs": [
        {
          "internalType": "string",
          "name": "",
          "type": "string"
        }
      ],
      "stateMutability": "view",
      "type": "function"
    },
    {
      "inputs": [
        {
          "internalType": "uint256",
          "name": "tokenId",
          "type": "uint256"
        }
      ],
      "name": "ownerOf",
      "outputs": [
        {
          "internalType": "address",
          "name": "",
          "type": "address"
        }
      ],
      "stateMutability": "view",
      "type": "function"
    },
    {
      "inputs": [
        {
          "internalType": "uint256",
          "name": "tokenId",
          "type": "uint256"
        }
      ],
      "name": "positions",
      "outputs": [
        {
          "internalType": "address",
          "name": "owner",
          "type": "address"
        },
        {
          "internalType": "address",
          "name": "token0",
          "type": "address"
        },
        {
          "internalType": "address",
          "name": "token1",
          "type": "address"
        },
        {
          "internalType": "uint24",
          "name": "fee",
          "type": "uint24"
        },
        {
          "internalType": "int24",
          "name": "tickLower",
          "type": "int24"
        },
        {
          "internalType": "int24",
          "name": "tickUpper",
          "type": "int24"
        },
        {
          "internalType": "uint128",
          "name": "liquidity",
          "type": "uint128"
        },
        {
          "internalType": "uint256",
          "name": "feeGrowthInside0LastX128",
          "type": "uint256"
        },
        {
          "internalType": "uint256",
          "name": "feeGrowthInside1LastX128",
          "type": "uint256"
        },
        {
          "internalType": "uint128",
          "name": "tokensOwed0",
          "type": "uint128"
        },
        {
          "internalType": "uint128",
          "name": "tokensOwed1",
          "type": "uint128"
        }
      ],
      "stateMutability": "view",
      "type": "function"
    },
    {
      "inputs": [
        {
          "internalType": "address",
          "name": "from",
          "type": "address"
        },
        {
          "internalType": "address",
          "name": "to",
          "type": "address"
        },
        {
          "internalType": "uint256",
          "name": "tokenId",
          "type": "uint256"
        }
      ],
      "name": "safeTransferFrom",
      "outputs": [],
      "stateMutability": "nonpayable",
      "type": "function"
    },
    {
      "inputs": [
        {
          "internalType": "address",
          "name": "from",
          "type": "address"
        },
        {
          "internalType": "address",
          "name": "to",
          "type": "address"
        },
        {
          "internalType": "uint256",
          "name": "tokenId",
          "type": "uint256"
        },
        {
          "internalType": "bytes",
          "name": "data",
          "type": "bytes"
        }
      ],
      "name": "safeTransferFrom",
      "outputs": [],
      "stateMutability": "nonpayable",
      "type": "function"
    },
    {
      "inputs": [
        {
          "internalType": "address",
          "name": "operator",
          "type": "address"
        },
        {
          "internalType": "bool",
          "name": "approved",
          "type": "bool"
        }
      ],
      "name": "setApprovalForAll",
      "outputs": [],
      "stateMutability": "nonpayable",
      "type": "function"
    },
    {
      "inputs": [
        {
          "internalType": "bytes4",
          "name": "interfaceId",
          "type": "bytes4"
        }
      ],
      "name": "supportsInterface",
      "outputs": [
        {
          "internalType": "bool",
          "name": "",
          "type": "bool"
        }
      ],
      "stateMutability": "view",
      "type": "function"
    },
    {
      "inputs": [],
      "name": "symbol",
      "outputs": [
        {
          "internalType": "string",
          "name": "",
          "type": "string"
        }
      ],
      "stateMutability": "view",
      "type": "function"
    },
    {
      "inputs": [
        {
          "internalType": "uint256",
          "name": "index",
          "type": "uint256"
        }
      ],
      "name": "tokenByIndex",
      "outputs": [
        {
          "internalType": "uint256",
          "name": "",
          "type": "uint256"
        }
      ],
      "stateMutability": "view",
      "type": "function"
    },
    {
      "inputs": [
        {
          "internalType": "address",
          "name": "owner",
          "type": "address"
        },
        {
          "internalType": "uint256",
          "name": "index",
          "type": "uint256"
        }
      ],
      "name": "tokenOfOwnerByIndex",
      "outputs": [
        {
          "internalType": "uint256",
          "name": "",
          "type": "uint256"
        }
      ],
      "stateMutability": "view",
      "type": "function"
    },
    {
      "inputs": [
        {
          "internalType": "uint256",
          "name": "tokenId",
          "type": "uint256"
        }
      ],
      "name": "tokenURI",
      "outputs": [
        {
          "internalType": "string",
          "name": "",
          "type": "string"
        }
      ],
      "stateMutability": "view",
      "type": "function"
    },
    {
      "inputs": [],
      "name": "totalSupply",
      "outputs": [
        {
          "internalType": "uint256",
          "name": "",
          "type": "uint256"
        }
      ],
      "stateMutability": "view",
      "type": "function"
    },
    {
      "inputs": [
        {
          "internalType": "address",
          "name": "from",
          "type": "address"
        },
        {
          "internalType": "address",
          "name": "to",
          "type": "address"
        },
        {
          "internalType": "uint256",
          "name": "tokenId",
          "type": "uint256"
        }
      ],
      "name": "transferFrom",
      "outputs": [],
      "stateMutability": "nonpayable",
      "type": "function"
    }
  ],
  "bytecode": {
    "object": "0x60a0604052760100000000000000000000000000000000000000000001600c553480156200002c57600080fd5b50604051620047ed380380620047ed8339810160408190526200004f91620000e6565b604080518082018252600a8082526904c4d54204e4654204c560b41b6020808401829052845180860190955291845290830152906000620000918382620001c3565b506001620000a08282620001c3565b5050600d80546001600160a01b0319166001600160a01b0394851617905550166080526200028f565b80516001600160a01b0381168114620000e157600080fd5b919050565b60008060408385031215620000fa57600080fd5b6200010583620000c9565b91506200011560208401620000c9565b90509250929050565b634e487b7160e01b600052604160045260246000fd5b600181811c908216806200014957607f821691505b6020821081036200016a57634e487b7160e01b600052602260045260246000fd5b50919050565b601f821115620001be57600081815260208120601f850160051c81016020861015620001995750805b601f850160051c820191505b81811015620001ba57828155600101620001a5565b5050505b505050565b81516001600160401b03811115620001df57620001df6200011e565b620001f781620001f0845462000134565b8462000170565b602080601f8311600181146200022f5760008415620002165750858301515b600019600386901b1c1916600185901b178555620001ba565b600085815260208120601f198616915b8281101562000260578886015182559484019460019091019084016200023f565b50858210156200027f5787850151600019600388901b60f8161c191681555b5050505050600190811b01905550565b608051614542620002ab600039600061049c01526145426000f3fe608060405234801561001057600080fd5b50600436106101735760003560e01c806370a08231116100de578063c181596c11610097578063d8e3af1f11610071578063d8e3af1f146104d1578063e85d0daf14610509578063e985e9c51461051c578063efee94261461055857600080fd5b8063c181596c14610484578063c45a015514610497578063c87b56dd146104be57600080fd5b806370a08231146102a157806395d89b41146102b457806399fbab88146102bc578063a22cb4651461043e578063ac9650d814610451578063b88d4fde1461047157600080fd5b806323b872dd1161013057806323b872dd1461022f5780632f745c591461024257806342842e0e1461025557806342966c68146102685780634f6ccce71461027b5780636352211e1461028e57600080fd5b806301ffc9a71461017857806306fdde03146101a0578063081812fc146101b5578063095ea7b3146101e05780630c49ccbe146101f557806318160ddd1461021d575b600080fd5b61018b6101863660046139be565b610594565b60405190151581526020015b60405180910390f35b6101a86105e6565b6040516101979190613a2b565b6101c86101c3366004613a3e565b610678565b6040516001600160a01b039091168152602001610197565b6101f36101ee366004613a6c565b61069f565b005b610208610203366004613a98565b6107b9565b60408051928352602083019190915201610197565b6008545b604051908152602001610197565b6101f361023d366004613ab0565b610be4565b610221610250366004613a6c565b610c15565b6101f3610263366004613ab0565b610cab565b6101f3610276366004613a3e565b610cc6565b610221610289366004613a3e565b610e30565b6101c861029c366004613a3e565b610ec3565b6102216102af366004613af1565b610f23565b6101a8610fa9565b6103c16102ca366004613a3e565b6000818152600b6020908152604080832081516101008101835281546001600160a01b038082168352600160a01b808304600290810b858901908152600160b81b909404810b8588019081526001808801546001600160801b039081166060808a01918252948a015460808a0190815260038b015460a08b019081526004909b015480841660c08c01908152600160801b90910490931660e08b019081529e8e52600a8d529c8b90208b519586018c52805488168087529301549687169b85018c90529490950462ffffff169290980182905294519351945191519851955192519951939a96999798909794969195909490939091565b604080516001600160a01b039c8d1681529a8c1660208c01529a9098169989019990995262ffffff9095166060880152600293840b60808801529190920b60a08601526001600160801b0391821660c086015260e08501526101008401919091529283166101208301529190911661014082015261016001610197565b6101f361044c366004613b1c565b610fb8565b61046461045f366004613b55565b610fc7565b6040516101979190613bca565b6101f361047f366004613c73565b6110bc565b610208610492366004613a3e565b6110f4565b6101c87f000000000000000000000000000000000000000000000000000000000000000081565b6101a86104cc366004613a3e565b611245565b6104e46104df366004613d37565b6112b9565b604080516001600160801b039094168452602084019290925290820152606001610197565b610208610517366004613d4a565b61156c565b61018b61052a366004613d5c565b6001600160a01b03918216600090815260056020908152604080832093909416825291909152205460ff1690565b61056b610566366004613d8a565b6119da565b604080519485526020850193909352918301526001600160801b03166060820152608001610197565b60006001600160e01b031982166380ac58cd60e01b14806105c557506001600160e01b03198216635b5e139f60e01b145b806105e057506301ffc9a760e01b6001600160e01b03198316145b92915050565b6060600080546105f590613d9d565b80601f016020809104026020016040519081016040528092919081815260200182805461062190613d9d565b801561066e5780601f106106435761010080835404028352916020019161066e565b820191906000526020600020905b81548152906001019060200180831161065157829003601f168201915b5050505050905090565b600061068382611e6f565b506000908152600460205260409020546001600160a01b031690565b60006106aa82610ec3565b9050806001600160a01b0316836001600160a01b03160361071c5760405162461bcd60e51b815260206004820152602160248201527f4552433732313a20617070726f76616c20746f2063757272656e74206f776e656044820152603960f91b60648201526084015b60405180910390fd5b336001600160a01b03821614806107385750610738813361052a565b6107aa5760405162461bcd60e51b815260206004820152603d60248201527f4552433732313a20617070726f76652063616c6c6572206973206e6f7420746f60448201527f6b656e206f776e6572206f7220617070726f76656420666f7220616c6c0000006064820152608401610713565b6107b48383611ed1565b505050565b60008082356107c83382611f3f565b6107e45760405162461bcd60e51b815260040161071390613dd1565b83608001358042111561082f5760405162461bcd60e51b8152602060048201526013602482015272151c985b9cd858dd1a5bdb881d1bdbc81bdb19606a1b6044820152606401610713565b60006108416040870160208801613e0c565b6001600160801b0316116108805760405162461bcd60e51b815260040161071390602080825260049082015263306c697160e01b604082015260600190565b84356000818152600a60209081526040808320815160608101835281546001600160a01b03908116825260019283015490811682860152600160a01b900462ffffff1681840152948452600b835292819020928301546001600160801b0316916108ee918a01908a01613e0c565b6001600160801b0316816001600160801b031610156109355760405162461bcd60e51b8152602060048201526003602482015262706f7360e81b6044820152606401610713565b600d5482546001600160a01b039091169063abf978e4908590600160a01b8104600290810b91600160b81b9004900b61097460408e0160208f01613e0c565b6040518563ffffffff1660e01b81526004016109939493929190613e55565b60408051808303816000875af11580156109b1573d6000803e3d6000fd5b505050506040513d601f19601f820116820180604052508101906109d59190613e8d565b9097509550604088013587108015906109f2575087606001358610155b610a2f5760405162461bcd60e51b815260206004820152600e60248201526d736c69707061676520636865636b60901b6044820152606401610713565b600080610a3c8a356110f4565b9150915088610a68856002015484610a549190613ec7565b856001600160801b0316600160801b611fbe565b610a729190613eda565b600485018054600090610a8f9084906001600160801b0316613eda565b92506101000a8154816001600160801b0302191690836001600160801b0316021790555087610ac7856003015483610a549190613ec7565b610ad19190613eda565b600485018054601090610af5908490600160801b90046001600160801b0316613eda565b82546001600160801b039182166101009390930a9283029190920219909116179055506002840182905560038401819055610b3660408b0160208c01613e0c565b600185018054600090610b539084906001600160801b0316613efa565b92506101000a8154816001600160801b0302191690836001600160801b0316021790555089600001357f26f6a048ee9138f2c0ce266f322cb99228e8d619ae2bff30c67f8dcf9d2377b48b6020016020810190610bb09190613e0c565b604080516001600160801b039092168252602082018d905281018b905260600160405180910390a250505050505050915091565b610bee3382611f3f565b610c0a5760405162461bcd60e51b815260040161071390613f1a565b6107b483838361209c565b6000610c2083610f23565b8210610c825760405162461bcd60e51b815260206004820152602b60248201527f455243373231456e756d657261626c653a206f776e657220696e646578206f7560448201526a74206f6620626f756e647360a81b6064820152608401610713565b506001600160a01b03919091166000908152600660209081526040808320938352929052205490565b6107b4838383604051806020016040528060008152506110bc565b80610cd13382611f3f565b610ced5760405162461bcd60e51b815260040161071390613dd1565b6000828152600b602090815260409182902082516101008101845281546001600160a01b0381168252600160a01b8104600290810b94830194909452600160b81b9004830b9381019390935260018101546001600160801b0390811660608501819052928201546080850152600382015460a085015260049091015480821660c0850152600160801b90041660e0830152158015610d96575060c08101516001600160801b0316155b8015610dad575060e08101516001600160801b0316155b610de75760405162461bcd60e51b815260206004820152600b60248201526a139bdd0818db19585c995960aa1b6044820152606401610713565b6000838152600b6020526040812080546001600160d01b03191681556001810180546001600160801b03191690556002810182905560038101829055600401556107b48361220d565b6000610e3b60085490565b8210610e9e5760405162461bcd60e51b815260206004820152602c60248201527f455243373231456e756d657261626c653a20676c6f62616c20696e646578206f60448201526b7574206f6620626f756e647360a01b6064820152608401610713565b60088281548110610eb157610eb1613f67565b90600052602060002001549050919050565b6000818152600260205260408120546001600160a01b0316806105e05760405162461bcd60e51b8152602060048201526018602482015277115490cdcc8c4e881a5b9d985b1a59081d1bdad95b88125160421b6044820152606401610713565b60006001600160a01b038216610f8d5760405162461bcd60e51b815260206004820152602960248201527f4552433732313a2061646472657373207a65726f206973206e6f7420612076616044820152683634b21037bbb732b960b91b6064820152608401610713565b506001600160a01b031660009081526003602052604090205490565b6060600180546105f590613d9d565b610fc33383836122b0565b5050565b60608167ffffffffffffffff811115610fe257610fe2613c2c565b60405190808252806020026020018201604052801561101557816020015b60608152602001906001900390816110005790505b50905060005b828110156110b5576110853085858481811061103957611039613f67565b905060200281019061104b9190613f7d565b8080601f01602080910402602001604051908101604052809392919081815260200183838082843760009201919091525061237e92505050565b82828151811061109757611097613f67565b602002602001018190525080806110ad90613fcb565b91505061101b565b5092915050565b6110c63383611f3f565b6110e25760405162461bcd60e51b815260040161071390613f1a565b6110ee848484846123a3565b50505050565b6000818152600b6020908152604080832081516101008101835281546001600160a01b038082168352600160a01b808304600290810b858901908152600160b81b909404810b8588019081526001808801546001600160801b039081166060808a0191909152938901546080890152600389015460a089015260049889015480821660c08a0152600160801b90041660e08801528b8b52600a8a52888b2089519384018a528054861684520154808516998301999099529190970462ffffff1687870152600d5492519051955163a840465560e01b81528897949694958895949093169363a8404655936111ef938893909291309101613fe4565b60a060405180830381865afa15801561120c573d6000803e3d6000fd5b505050506040513d601f19601f82011682018060405250810190611230919061401c565b80516020909101519097909650945050505050565b606061125082611e6f565b600061126760408051602081019091526000815290565b9050600081511161128757604051806020016040528060008152506112b2565b80611291846123d6565b6040516020016112a29291906140a4565b6040516020818303038152906040525b9392505050565b60008060008360e00135804211156113095760405162461bcd60e51b8152602060048201526013602482015272151c985b9cd858dd1a5bdb881d1bdbc81bdb19606a1b6044820152606401610713565b84356000818152600a6020908152604080832081516060808201845282546001600160a01b03908116835260019093015480841683870190815262ffffff600160a01b928390048116858801908152998952600b88529786902086516101808101885285518716815291518616828901529851909716878601528754938416878301528304600290810b608080890191909152600160b81b909404900b60a080880191909152948c013560c080880191909152938c013560e08701528b0135610100860152908a01356101208501529189013561014084015288013561016083015291906113f690612469565b509197506000915081905061140b89356110f4565b9150915061143a8360020154836114229190613ec7565b60018501546001600160801b0316600160801b611fbe565b6004840180546000906114579084906001600160801b0316613eda565b92506101000a8154816001600160801b0302191690836001600160801b0316021790555061148e8360030154826114229190613ec7565b6004840180546010906114b2908490600160801b90046001600160801b0316613eda565b82546101009290920a6001600160801b0381810219909316918316021790915560028501849055600385018390556001850180548b935090916000916114fa91859116613eda565b82546101009290920a6001600160801b0381810219909316918316021790915560408051918b168252602082018a905281018890528a3591507f3067048beee31b25b2f1681f88dac838c8bba36af25bfb2b7cf7473a5847e35f9060600160405180910390a250505050509193909250565b600080823561157b3382611f3f565b6115975760405162461bcd60e51b815260040161071390613dd1565b83356000908152600b60209081526040808320600a8352818420825160608101845281546001600160a01b03908116825260019283015490811695820195909552600160a01b90940462ffffff16928401929092526004810154918101546001600160801b038084169850600160801b909304831696509093918291161561173157600d548454604051632afe5e3960e21b81526001600160a01b039092169163abf978e491611666918791600160a01b8104600290810b92600160b81b909204900b90600090600401613e55565b60408051808303816000875af1158015611684573d6000803e3d6000fd5b505050506040513d601f19601f820116820180604052508101906116a89190613e8d565b506116b5905088356110f4565b600286015491935091506116e5906116cd9084613ec7565b60018601546001600160801b0316600160801b611fbe565b6116f8906001600160801b0316886140d3565b965061170d8460030154826116cd9190613ec7565b611720906001600160801b0316876140d3565b600285018390556003850182905595505b600d5484546040516319fa103360e01b81526001600160a01b03909216916319fa10339161177b918791600160a01b8104600290810b92600160b81b909204900b906004016140e6565b60408051808303816000875af1158015611799573d6000803e3d6000fd5b505050506040513d601f19601f820116820180604052508101906117bd919061410e565b505082516040516370a0823160e01b81523060048201526000916001600160a01b0316906370a0823190602401602060405180830381865afa158015611807573d6000803e3d6000fd5b505050506040513d601f19601f8201168201806040525081019061182b919061413d565b60208501516040516370a0823160e01b81523060048201529192506000916001600160a01b03909116906370a0823190602401602060405180830381865afa15801561187b573d6000803e3d6000fd5b505050506040513d601f19601f8201168201806040525081019061189f919061413d565b90508189116118af5760006118b9565b6118b9828a613ec7565b6004870180546001600160801b0319166001600160801b03929092169190911790558088116118e95760006118f3565b6118f38189613ec7565b6004870180546001600160801b03928316600160801b02921691909117905581891161191f5788611921565b815b98508088116119305787611932565b805b85519098506119549250905061194e60408b0160208c01613af1565b89612b10565b611975836020015189602001602081019061196f9190613af1565b88612b10565b87357f40d0efd1a53d60ecbf40971b9daf7dc90178c3aadc7aab1765632738fa8b8f016119a860408b0160208c01613af1565b604080516001600160a01b039092168252602082018b9052810189905260600160405180910390a25050505050915091565b60008080808080806119f26040890160208a01613af1565b6001600160a01b0316611a0860208a018a613af1565b6001600160a01b031610611a3857611a266040890160208a01613af1565b611a3360208a018a613af1565b611a55565b611a456020890189613af1565b611a5560408a0160208b01613af1565b91509150611b35604051806101800160405280846001600160a01b03168152602001836001600160a01b031681526020018a6040016020810190611a999190614156565b62ffffff168152602001611ab56101808c016101608d01613af1565b6001600160a01b03168152602001611ad360808c0160608d0161418a565b60020b8152602001611aeb60a08c0160808d0161418a565b60020b81526020018a60a0013581526020018a60c0013581526020018a60e0013581526020018a610100013581526020018a610120013581526020018a6101400135815250612469565b91985096509094509250611ba2611b546101808a016101608b01613af1565b600c80546001600160b01b0316906000611b6d836141a7565b91906101000a8154816001600160b01b0302191690836001600160b01b031602179055506001600160b01b0316985088612c10565b600080611bae896110f4565b915091506040518061010001604052808b610160016020810190611bd29190613af1565b6001600160a01b03168152602001611bf060808d0160608e0161418a565b60020b8152602001611c0860a08d0160808e0161418a565b60020b8152602001876001600160801b0316815260200183815260200182815260200160006001600160801b0316815260200160006001600160801b0316815250600b60008b815260200190815260200160002060008201518160000160006101000a8154816001600160a01b0302191690836001600160a01b0316021790555060208201518160000160146101000a81548162ffffff021916908360020b62ffffff16021790555060408201518160000160176101000a81548162ffffff021916908360020b62ffffff16021790555060608201518160010160006101000a8154816001600160801b0302191690836001600160801b031602179055506080820151816002015560a0820151816003015560c08201518160040160006101000a8154816001600160801b0302191690836001600160801b0316021790555060e08201518160040160106101000a8154816001600160801b0302191690836001600160801b031602179055509050506040518060600160405280856001600160a01b03168152602001846001600160a01b031681526020018b6040016020810190611db39190614156565b62ffffff90811690915260008b8152600a6020908152604091829020845181546001600160a01b039182166001600160a01b0319909116178255858301516001909201805496850151909516600160a01b026001600160b81b03199096169116179390931790915580516001600160801b03891681529182018a9052810188905289907f3067048beee31b25b2f1681f88dac838c8bba36af25bfb2b7cf7473a5847e35f9060600160405180910390a250505050509193509193565b6000818152600260205260409020546001600160a01b0316611ece5760405162461bcd60e51b8152602060048201526018602482015277115490cdcc8c4e881a5b9d985b1a59081d1bdad95b88125160421b6044820152606401610713565b50565b600081815260046020526040902080546001600160a01b0319166001600160a01b0384169081179091558190611f0682610ec3565b6001600160a01b03167f8c5be1e5ebec7d5bd14f71427d1e84f3dd0314c0f7b2291e5b200ac8c7c3b92560405160405180910390a45050565b600080611f4b83610ec3565b9050806001600160a01b0316846001600160a01b03161480611f9257506001600160a01b0380821660009081526005602090815260408083209388168352929052205460ff165b80611fb65750836001600160a01b0316611fab84610678565b6001600160a01b0316145b949350505050565b6000808060001985870985870292508281108382030391505080600003611ff75760008411611fec57600080fd5b5082900490506112b2565b80841161202f5760405162461bcd60e51b815260206004820152600660248201526536bab62234bb60d11b6044820152606401610713565b6000848688096000868103871696879004966002600389028118808a02820302808a02820302808a02820302808a02820302808a02820302808a02909103029181900381900460010186841190950394909402919094039290920491909117919091029150509392505050565b826001600160a01b03166120af82610ec3565b6001600160a01b0316146120d55760405162461bcd60e51b8152600401610713906141d5565b6001600160a01b0382166121375760405162461bcd60e51b8152602060048201526024808201527f4552433732313a207472616e7366657220746f20746865207a65726f206164646044820152637265737360e01b6064820152608401610713565b6121448383836001612da9565b826001600160a01b031661215782610ec3565b6001600160a01b03161461217d5760405162461bcd60e51b8152600401610713906141d5565b600081815260046020908152604080832080546001600160a01b03199081169091556001600160a01b0387811680865260038552838620805460001901905590871680865283862080546001019055868652600290945282852080549092168417909155905184937fddf252ad1be2c89b69c2b068fc378daa952ba7f163c4a11628f55a4df523b3ef91a4505050565b600061221882610ec3565b9050612228816000846001612da9565b61223182610ec3565b600083815260046020908152604080832080546001600160a01b03199081169091556001600160a01b0385168085526003845282852080546000190190558785526002909352818420805490911690555192935084927fddf252ad1be2c89b69c2b068fc378daa952ba7f163c4a11628f55a4df523b3ef908390a45050565b816001600160a01b0316836001600160a01b0316036123115760405162461bcd60e51b815260206004820152601960248201527f4552433732313a20617070726f766520746f2063616c6c6572000000000000006044820152606401610713565b6001600160a01b03838116600081815260056020908152604080832094871680845294825291829020805460ff191686151590811790915591519182527f17307eab39ab6107e8899845ad3d59bd9653f200f220920489ca2b5937696c31910160405180910390a3505050565b60606112b283836040518060600160405280602781526020016144e660279139612ed6565b6123ae84848461209c565b6123ba84848484612f4e565b6110ee5760405162461bcd60e51b81526004016107139061421a565b606060006123e38361304f565b600101905060008167ffffffffffffffff81111561240357612403613c2c565b6040519080825280601f01601f19166020018201604052801561242d576020820181803683370190505b5090508181016020015b600019016f181899199a1a9b1b9c1cb0b131b232b360811b600a86061a8153600a850494508461243757509392505050565b6000806000808460a0015160020b856080015160020b126124bd5760405162461bcd60e51b815260206004820152600e60248201526d151250d2d4d7d49155915494d15160921b6044820152606401610713565b600d54855160208701516040808901519051630b4c774160e11b81526001600160a01b039384166004820152918316602483015262ffffff166044820152911690631698ee8290606401602060405180830381865afa158015612524573d6000803e3d6000fd5b505050506040513d601f19601f820116820180604052508101906125489190614282565b600d5486516020808901516040808b015181516001600160a01b03958616948101949094529184169083015262ffffff166060820152929350600092911690636519768890608001604051602081830303815290604052805190602001206040518263ffffffff1660e01b81526004016125c491815260200190565b602060405180830381865afa1580156125e1573d6000803e3d6000fd5b505050506040513d601f19601f82011682018060405250810190612605919061429f565b905080866080015161261791906142bc565b60020b1580156126375750808660a0015161263291906142bc565b60020b155b6126795760405162461bcd60e51b81526020600482015260136024820152725449434b535f4e4f545f444956495349424c4560681b6044820152606401610713565b6000826001600160a01b0316633850c7bd6040518163ffffffff1660e01b815260040160e060405180830381865afa1580156126b9573d6000803e3d6000fd5b505050506040513d601f19601f820116820180604052508101906126dd91906142fe565b505050505050905060006126f48860800151613127565b905060006127058960a00151613127565b9050612737604051806040016040528060038152602001623bba3360e91b8152508a61010001518b610120015161344a565b61275d836001600160a01b0316836001600160a01b0316836001600160a01b0316613491565b816001600160a01b0316836001600160a01b03161161278d5761278682828b61010001516134df565b9750612845565b806001600160a01b0316836001600160a01b031610156128325760006127b984838c61010001516134df565b905060006127cd84868d6101200151613589565b9050612808604051806040016040528060048152602001636c69717560e01b815250836001600160801b0316836001600160801b031661344a565b806001600160801b0316826001600160801b0316106128275780612829565b815b99505050612845565b61284282828b6101200151613589565b97505b5050505061287d604051806040016040528060098152602001686c697175696469747960b81b815250856001600160801b03166135bf565b612891856000015133308860c00151613604565b6128a5856020015133308860e00151613604565b8451600d5460c087015160405163095ea7b360e01b81526001600160a01b039283166004820152602481019190915291169063095ea7b3906044016020604051808303816000875af11580156128ff573d6000803e3d6000fd5b505050506040513d601f19601f820116820180604052508101906129239190614396565b506020850151600d5460e087015160405163095ea7b360e01b81526001600160a01b039283166004820152602481019190915291169063095ea7b3906044016020604051808303816000875af1158015612981573d6000803e3d6000fd5b505050506040513d601f19601f820116820180604052508101906129a59190614396565b50600d546040805160608101825287516001600160a01b0390811682526020808a01518216908301528883015162ffffff1682840152608089015160a08a01519351635c48cfd360e11b8152919094169363b8919fa693612a0d93928a9030906004016143b3565b60408051808303816000875af1158015612a2b573d6000803e3d6000fd5b505050506040513d601f19601f82011682018060405250810190612a4f9190613e8d565b60c08701519194509250831015612a7e57612a7e856000015133858860c00151612a799190613ec7565b612b10565b818560e001511115612aa357612aa3856020015133848860e00151612a799190613ec7565b8461014001518310158015612abd57508461016001518210155b612b095760405162461bcd60e51b815260206004820152601d60248201527f494e53554646494349454e545f4c49515549444954595f4d494e5445440000006044820152606401610713565b9193509193565b604080516001600160a01b038481166024830152604480830185905283518084039091018152606490920183526020820180516001600160e01b031663a9059cbb60e01b1790529151600092839290871691612b6c91906143fc565b6000604051808303816000865af19150503d8060008114612ba9576040519150601f19603f3d011682016040523d82523d6000602084013e612bae565b606091505b5091509150818015612bd8575080511580612bd8575080806020019051810190612bd89190614396565b612c095760405162461bcd60e51b815260206004820152600260248201526114d560f21b6044820152606401610713565b5050505050565b6001600160a01b038216612c665760405162461bcd60e51b815260206004820181905260248201527f4552433732313a206d696e7420746f20746865207a65726f20616464726573736044820152606401610713565b6000818152600260205260409020546001600160a01b031615612ccb5760405162461bcd60e51b815260206004820152601c60248201527f4552433732313a20746f6b656e20616c7265616479206d696e746564000000006044820152606401610713565b612cd9600083836001612da9565b6000818152600260205260409020546001600160a01b031615612d3e5760405162461bcd60e51b815260206004820152601c60248201527f4552433732313a20746f6b656e20616c7265616479206d696e746564000000006044820152606401610713565b6001600160a01b038216600081815260036020908152604080832080546001019055848352600290915280822080546001600160a01b0319168417905551839291907fddf252ad1be2c89b69c2b068fc378daa952ba7f163c4a11628f55a4df523b3ef908290a45050565b6001811115612e185760405162461bcd60e51b815260206004820152603560248201527f455243373231456e756d657261626c653a20636f6e7365637574697665207472604482015274185b9cd9995c9cc81b9bdd081cdd5c1c1bdc9d1959605a1b6064820152608401610713565b816001600160a01b038516612e7457612e6f81600880546000838152600960205260408120829055600182018355919091527ff3f7a9fe364faab93b216da50a3214154f22a0a2b415b23a84c8169e8b636ee30155565b612e97565b836001600160a01b0316856001600160a01b031614612e9757612e97858261370e565b6001600160a01b038416612eb357612eae816137ab565b612c09565b846001600160a01b0316846001600160a01b031614612c0957612c09848261385a565b6060600080856001600160a01b031685604051612ef391906143fc565b600060405180830381855af49150503d8060008114612f2e576040519150601f19603f3d011682016040523d82523d6000602084013e612f33565b606091505b5091509150612f448683838761389e565b9695505050505050565b60006001600160a01b0384163b1561304457604051630a85bd0160e11b81526001600160a01b0385169063150b7a0290612f92903390899088908890600401614418565b6020604051808303816000875af1925050508015612fcd575060408051601f3d908101601f19168201909252612fca9181019061444b565b60015b61302a573d808015612ffb576040519150601f19603f3d011682016040523d82523d6000602084013e613000565b606091505b5080516000036130225760405162461bcd60e51b81526004016107139061421a565b805181602001fd5b6001600160e01b031916630a85bd0160e11b149050611fb6565b506001949350505050565b60008072184f03e93ff9f4daa797ed6e38ed64bf6a1f0160401b831061308e5772184f03e93ff9f4daa797ed6e38ed64bf6a1f0160401b830492506040015b6d04ee2d6d415b85acef810000000083106130ba576d04ee2d6d415b85acef8100000000830492506020015b662386f26fc1000083106130d857662386f26fc10000830492506010015b6305f5e10083106130f0576305f5e100830492506008015b612710831061310457612710830492506004015b60648310613116576064830492506002015b600a83106105e05760010192915050565b60008060008360020b1261313e578260020b613146565b8260020b6000035b9050620d89e881111561316c576040516315e4079d60e11b815260040160405180910390fd5b60008160011660000361318357600160801b613195565b6ffffcb933bd6fad37aa2d162d1a5940015b70ffffffffffffffffffffffffffffffffff16905060028216156131c9576ffff97272373d413259a46990580e213a0260801c5b60048216156131e8576ffff2e50f5f656932ef12357cf3c7fdcc0260801c5b6008821615613207576fffe5caca7e10e4e61c3624eaa0941cd00260801c5b6010821615613226576fffcb9843d60f6159c9db58835c9266440260801c5b6020821615613245576fff973b41fa98c081472e6896dfb254c00260801c5b6040821615613264576fff2ea16466c96a3843ec78b326b528610260801c5b6080821615613283576ffe5dee046a99a2a811c461f1969c30530260801c5b6101008216156132a3576ffcbe86c7900a88aedcffc83b479aa3a40260801c5b6102008216156132c3576ff987a7253ac413176f2b074cf7815e540260801c5b6104008216156132e3576ff3392b0822b70005940c7a398e4b70f30260801c5b610800821615613303576fe7159475a2c29b7443b29c7fa6e889d90260801c5b611000821615613323576fd097f3bdfd2022b8845ad8f792aa58250260801c5b612000821615613343576fa9f746462d870fdf8a65dc1f90e061e50260801c5b614000821615613363576f70d869a156d2a1b890bb3df62baf32f70260801c5b618000821615613383576f31be135f97d08fd981231505542fcfa60260801c5b620100008216156133a4576f09aa508b5b7a84e1c677de54f3e99bc90260801c5b620200008216156133c4576e5d6af8dedb81196699c329225ee6040260801c5b620400008216156133e3576d2216e584f5fa1ea926041bedfe980260801c5b62080000821615613400576b048a170391f7dc42444e8fa20260801c5b60008460020b131561342157806000198161341d5761341d61426c565b0490505b640100000000810615613435576001613438565b60005b60ff16602082901c0192505050919050565b6107b483838360405160240161346293929190614468565b60408051601f198184030181529190526020810180516001600160e01b031663969cdd0360e01b179052613917565b6040516024810184905260448101839052606481018290526107b49060840160408051601f198184030181529190526020810180516001600160e01b03166339e0829d60e21b179052613917565b6000826001600160a01b0316846001600160a01b031611156134ff579192915b6000613522856001600160a01b0316856001600160a01b0316600160601b611fbe565b905080156135575761354f61354a848361353c898961448d565b6001600160a01b0316611fbe565b613938565b9150506112b2565b61354f61354a613575856001600160a01b03891661353c8a8a61448d565b866001600160a01b0316600160601b611fbe565b6000826001600160a01b0316846001600160a01b031611156135a9579192915b611fb661354a83600160601b61353c888861448d565b610fc382826040516024016135d59291906144ad565b60408051601f198184030181529190526020810180516001600160e01b03166309710a9d60e41b179052613917565b604080516001600160a01b0385811660248301528481166044830152606480830185905283518084039091018152608490920183526020820180516001600160e01b03166323b872dd60e01b179052915160009283929088169161366891906143fc565b6000604051808303816000865af19150503d80600081146136a5576040519150601f19603f3d011682016040523d82523d6000602084013e6136aa565b606091505b50915091508180156136d45750805115806136d45750808060200190518101906136d49190614396565b6137065760405162461bcd60e51b815260206004820152600360248201526229aa2360e91b6044820152606401610713565b505050505050565b6000600161371b84610f23565b6137259190613ec7565b600083815260076020526040902054909150808214613778576001600160a01b03841660009081526006602090815260408083208584528252808320548484528184208190558352600790915290208190555b5060009182526007602090815260408084208490556001600160a01b039094168352600681528383209183525290812055565b6008546000906137bd90600190613ec7565b600083815260096020526040812054600880549394509092849081106137e5576137e5613f67565b90600052602060002001549050806008838154811061380657613806613f67565b600091825260208083209091019290925582815260099091526040808220849055858252812055600880548061383e5761383e6144cf565b6001900381819060005260206000200160009055905550505050565b600061386583610f23565b6001600160a01b039093166000908152600660209081526040808320868452825280832085905593825260079052919091209190915550565b6060831561390d578251600003613906576001600160a01b0385163b6139065760405162461bcd60e51b815260206004820152601d60248201527f416464726573733a2063616c6c20746f206e6f6e2d636f6e74726163740000006044820152606401610713565b5081611fb6565b611fb6838361397e565b80516a636f6e736f6c652e6c6f67602083016000808483855afa5050505050565b806001600160801b03811681146139795760405162461bcd60e51b81526020600482015260056024820152640858d85cdd60da1b6044820152606401610713565b919050565b81511561398e5781518083602001fd5b8060405162461bcd60e51b81526004016107139190613a2b565b6001600160e01b031981168114611ece57600080fd5b6000602082840312156139d057600080fd5b81356112b2816139a8565b60005b838110156139f65781810151838201526020016139de565b50506000910152565b60008151808452613a178160208601602086016139db565b601f01601f19169290920160200192915050565b6020815260006112b260208301846139ff565b600060208284031215613a5057600080fd5b5035919050565b6001600160a01b0381168114611ece57600080fd5b60008060408385031215613a7f57600080fd5b8235613a8a81613a57565b946020939093013593505050565b600060a08284031215613aaa57600080fd5b50919050565b600080600060608486031215613ac557600080fd5b8335613ad081613a57565b92506020840135613ae081613a57565b929592945050506040919091013590565b600060208284031215613b0357600080fd5b81356112b281613a57565b8015158114611ece57600080fd5b60008060408385031215613b2f57600080fd5b8235613b3a81613a57565b91506020830135613b4a81613b0e565b809150509250929050565b60008060208385031215613b6857600080fd5b823567ffffffffffffffff80821115613b8057600080fd5b818501915085601f830112613b9457600080fd5b813581811115613ba357600080fd5b8660208260051b8501011115613bb857600080fd5b60209290920196919550909350505050565b6000602080830181845280855180835260408601915060408160051b870101925083870160005b82811015613c1f57603f19888603018452613c0d8583516139ff565b94509285019290850190600101613bf1565b5092979650505050505050565b634e487b7160e01b600052604160045260246000fd5b604051601f8201601f1916810167ffffffffffffffff81118282101715613c6b57613c6b613c2c565b604052919050565b60008060008060808587031215613c8957600080fd5b8435613c9481613a57565b9350602085810135613ca581613a57565b935060408601359250606086013567ffffffffffffffff80821115613cc957600080fd5b818801915088601f830112613cdd57600080fd5b813581811115613cef57613cef613c2c565b613d01601f8201601f19168501613c42565b91508082528984828501011115613d1757600080fd5b808484018584013760008482840101525080935050505092959194509250565b60006101008284031215613aaa57600080fd5b600060408284031215613aaa57600080fd5b60008060408385031215613d6f57600080fd5b8235613d7a81613a57565b91506020830135613b4a81613a57565b60006101a08284031215613aaa57600080fd5b600181811c90821680613db157607f821691505b602082108103613aaa57634e487b7160e01b600052602260045260246000fd5b6020808252600c908201526b139bdd08185c1c1c9bdd995960a21b604082015260600190565b6001600160801b0381168114611ece57600080fd5b600060208284031215613e1e57600080fd5b81356112b281613df7565b80516001600160a01b0390811683526020808301519091169083015260409081015162ffffff16910152565b60c08101613e638287613e29565b8460020b60608301528360020b60808301526001600160801b03831660a083015295945050505050565b60008060408385031215613ea057600080fd5b505080516020909101519092909150565b634e487b7160e01b600052601160045260246000fd5b818103818111156105e0576105e0613eb1565b6001600160801b038181168382160190808211156110b5576110b5613eb1565b6001600160801b038281168282160390808211156110b5576110b5613eb1565b6020808252602d908201527f4552433732313a2063616c6c6572206973206e6f7420746f6b656e206f776e6560408201526c1c881bdc88185c1c1c9bdd9959609a1b606082015260800190565b634e487b7160e01b600052603260045260246000fd5b6000808335601e19843603018112613f9457600080fd5b83018035915067ffffffffffffffff821115613faf57600080fd5b602001915036819003821315613fc457600080fd5b9250929050565b600060018201613fdd57613fdd613eb1565b5060010190565b60c08101613ff28287613e29565b600294850b60608301529290930b60808401526001600160a01b031660a090920191909152919050565b600060a0828403121561402e57600080fd5b60405160a0810181811067ffffffffffffffff8211171561405157614051613c2c565b80604052508251815260208301516020820152604083015161407281613df7565b6040820152606083015161408581613df7565b6060820152608083015161409881613df7565b60808201529392505050565b600083516140b68184602088016139db565b8351908301906140ca8183602088016139db565b01949350505050565b808201808211156105e0576105e0613eb1565b60a081016140f48286613e29565b8360020b60608301528260020b6080830152949350505050565b6000806040838503121561412157600080fd5b825161412c81613df7565b6020840151909250613b4a81613df7565b60006020828403121561414f57600080fd5b5051919050565b60006020828403121561416857600080fd5b813562ffffff811681146112b257600080fd5b8060020b8114611ece57600080fd5b60006020828403121561419c57600080fd5b81356112b28161417b565b60006001600160b01b038281166002600160b01b031981016141cb576141cb613eb1565b6001019392505050565b60208082526025908201527f4552433732313a207472616e736665722066726f6d20696e636f72726563742060408201526437bbb732b960d91b606082015260800190565b60208082526032908201527f4552433732313a207472616e7366657220746f206e6f6e20455243373231526560408201527131b2b4bb32b91034b6b83632b6b2b73a32b960711b606082015260800190565b634e487b7160e01b600052601260045260246000fd5b60006020828403121561429457600080fd5b81516112b281613a57565b6000602082840312156142b157600080fd5b81516112b28161417b565b60008260020b806142dd57634e487b7160e01b600052601260045260246000fd5b808360020b0791505092915050565b805161ffff8116811461397957600080fd5b600080600080600080600060e0888a03121561431957600080fd5b875161432481613a57565b60208901519097506143358161417b565b9550614343604089016142ec565b9450614351606089016142ec565b935061435f608089016142ec565b925060a088015160ff8116811461437557600080fd5b60c089015190925061438681613b0e565b8091505092959891949750929550565b6000602082840312156143a857600080fd5b81516112b281613b0e565b60e081016143c18288613e29565b600295860b60608301529390940b60808501526001600160801b039190911660a08401526001600160a01b031660c090920191909152919050565b6000825161440e8184602087016139db565b9190910192915050565b6001600160a01b0385811682528416602082015260408101839052608060608201819052600090612f44908301846139ff565b60006020828403121561445d57600080fd5b81516112b2816139a8565b60608152600061447b60608301866139ff565b60208301949094525060400152919050565b6001600160a01b038281168282160390808211156110b5576110b5613eb1565b6040815260006144c060408301856139ff565b90508260208301529392505050565b634e487b7160e01b600052603160045260246000fdfe416464726573733a206c6f772d6c6576656c2064656c65676174652063616c6c206661696c6564a264697066735822122007542ffbf90cc250522bdf39a9db138d28683a285ce82585cd85f21ba3c0bed664736f6c63430008150033",
    "linkReferences": {}
  },
  "methodIdentifiers": {
    "approve(address,uint256)": "095ea7b3",
    "balanceOf(address)": "70a08231",
    "burn(uint256)": "42966c68",
    "collect((uint256,address))": "e85d0daf",
    "decreaseLiquidity((uint256,uint128,uint256,uint256,uint256))": "0c49ccbe",
    "factory()": "c45a0155",
    "fetchLatestTotalFeeGrowth(uint256)": "c181596c",
    "getApproved(uint256)": "081812fc",
    "increaseLiquidity((uint256,uint256,uint256,uint256,uint256,uint256,uint256,uint256))": "d8e3af1f",
    "isApprovedForAll(address,address)": "e985e9c5",
    "mint((address,address,uint24,int24,int24,uint256,uint256,uint256,uint256,uint256,uint256,address,uint256))": "efee9426",
    "multicall(bytes[])": "ac9650d8",
    "name()": "06fdde03",
    "ownerOf(uint256)": "6352211e",
    "positions(uint256)": "99fbab88",
    "safeTransferFrom(address,address,uint256)": "42842e0e",
    "safeTransferFrom(address,address,uint256,bytes)": "b88d4fde",
    "setApprovalForAll(address,bool)": "a22cb465",
    "supportsInterface(bytes4)": "01ffc9a7",
    "symbol()": "95d89b41",
    "tokenByIndex(uint256)": "4f6ccce7",
    "tokenOfOwnerByIndex(address,uint256)": "2f745c59",
    "tokenURI(uint256)": "c87b56dd",
    "totalSupply()": "18160ddd",
    "transferFrom(address,address,uint256)": "23b872dd"
  },
  "id": 63
}