{
  "_format": "hh-sol-artifact-1",
  "contractName": "NonfungiblePositionManager",
  "sourceName": "src/periphery/NonfungiblePositionManager.sol",
  "abi": [
    {
      "inputs": [
        {
          "internalType": "address",
          "name": "_poolManager",
          "type": "address"
        },
        {
          "internalType": "address",
          "name": "_factory",
          "type": "address"
        }
      ],
      "stateMutability": "nonpayable",
      "type": "constructor"
    },
    {
      "inputs": [],
      "name": "T",
      "type": "error"
    },
    {
      "anonymous": false,
      "inputs": [
        {
          "indexed": true,
          "internalType": "address",
          "name": "owner",
          "type": "address"
        },
        {
          "indexed": true,
          "internalType": "address",
          "name": "approved",
          "type": "address"
        },
        {
          "indexed": true,
          "internalType": "uint256",
          "name": "tokenId",
          "type": "uint256"
        }
      ],
      "name": "Approval",
      "type": "event"
    },
    {
      "anonymous": false,
      "inputs": [
        {
          "indexed": true,
          "internalType": "address",
          "name": "owner",
          "type": "address"
        },
        {
          "indexed": true,
          "internalType": "address",
          "name": "operator",
          "type": "address"
        },
        {
          "indexed": false,
          "internalType": "bool",
          "name": "approved",
          "type": "bool"
        }
      ],
      "name": "ApprovalForAll",
      "type": "event"
    },
    {
      "anonymous": false,
      "inputs": [
        {
          "indexed": true,
          "internalType": "address",
          "name": "from",
          "type": "address"
        },
        {
          "indexed": true,
          "internalType": "address",
          "name": "to",
          "type": "address"
        },
        {
          "indexed": true,
          "internalType": "uint256",
          "name": "tokenId",
          "type": "uint256"
        }
      ],
      "name": "Transfer",
      "type": "event"
    },
    {
      "inputs": [
        {
          "internalType": "address",
          "name": "to",
          "type": "address"
        },
        {
          "internalType": "uint256",
          "name": "tokenId",
          "type": "uint256"
        }
      ],
      "name": "approve",
      "outputs": [],
      "stateMutability": "nonpayable",
      "type": "function"
    },
    {
      "inputs": [
        {
          "internalType": "address",
          "name": "owner",
          "type": "address"
        }
      ],
      "name": "balanceOf",
      "outputs": [
        {
          "internalType": "uint256",
          "name": "",
          "type": "uint256"
        }
      ],
      "stateMutability": "view",
      "type": "function"
    },
    {
      "inputs": [
        {
          "components": [
            {
              "internalType": "uint256",
              "name": "tokenId",
              "type": "uint256"
            },
            {
              "internalType": "address",
              "name": "recipient",
              "type": "address"
            }
          ],
          "internalType": "struct INonfungiblePositionManager.CollectParams",
          "name": "params",
          "type": "tuple"
        }
      ],
      "name": "collect",
      "outputs": [
        {
          "internalType": "uint256",
          "name": "amount0",
          "type": "uint256"
        },
        {
          "internalType": "uint256",
          "name": "amount1",
          "type": "uint256"
        }
      ],
      "stateMutability": "nonpayable",
      "type": "function"
    },
    {
      "inputs": [
        {
          "components": [
            {
              "internalType": "uint256",
              "name": "tokenId",
              "type": "uint256"
            },
            {
              "internalType": "uint128",
              "name": "liquidity",
              "type": "uint128"
            },
            {
              "internalType": "uint256",
              "name": "amount0Min",
              "type": "uint256"
            },
            {
              "internalType": "uint256",
              "name": "amount1Min",
              "type": "uint256"
            },
            {
              "internalType": "uint256",
              "name": "deadline",
              "type": "uint256"
            }
          ],
          "internalType": "struct INonfungiblePositionManager.DecreaseLiquidityParams",
          "name": "params",
          "type": "tuple"
        }
      ],
      "name": "decreaseLiquidity",
      "outputs": [
        {
          "internalType": "uint256",
          "name": "amount0",
          "type": "uint256"
        },
        {
          "internalType": "uint256",
          "name": "amount1",
          "type": "uint256"
        }
      ],
      "stateMutability": "nonpayable",
      "type": "function"
    },
    {
      "inputs": [],
      "name": "factory",
      "outputs": [
        {
          "internalType": "address",
          "name": "",
          "type": "address"
        }
      ],
      "stateMutability": "view",
      "type": "function"
    },
    {
      "inputs": [
        {
          "internalType": "uint256",
          "name": "tokenId",
          "type": "uint256"
        }
      ],
      "name": "getApproved",
      "outputs": [
        {
          "internalType": "address",
          "name": "",
          "type": "address"
        }
      ],
      "stateMutability": "view",
      "type": "function"
    },
    {
      "inputs": [
        {
          "components": [
            {
              "internalType": "uint256",
              "name": "tokenId",
              "type": "uint256"
            },
            {
              "internalType": "uint256",
              "name": "amount0Desired",
              "type": "uint256"
            },
            {
              "internalType": "uint256",
              "name": "amount1Desired",
              "type": "uint256"
            },
            {
              "internalType": "uint256",
              "name": "amount0Min",
              "type": "uint256"
            },
            {
              "internalType": "uint256",
              "name": "amount1Min",
              "type": "uint256"
            },
            {
              "internalType": "uint256",
              "name": "deadline",
              "type": "uint256"
            }
          ],
          "internalType": "struct INonfungiblePositionManager.IncreaseLiquidityParams",
          "name": "params",
          "type": "tuple"
        }
      ],
      "name": "increaseLiquidity",
      "outputs": [
        {
          "internalType": "uint128",
          "name": "liquidity",
          "type": "uint128"
        },
        {
          "internalType": "uint256",
          "name": "amount0",
          "type": "uint256"
        },
        {
          "internalType": "uint256",
          "name": "amount1",
          "type": "uint256"
        }
      ],
      "stateMutability": "nonpayable",
      "type": "function"
    },
    {
      "inputs": [
        {
          "internalType": "address",
          "name": "owner",
          "type": "address"
        },
        {
          "internalType": "address",
          "name": "operator",
          "type": "address"
        }
      ],
      "name": "isApprovedForAll",
      "outputs": [
        {
          "internalType": "bool",
          "name": "",
          "type": "bool"
        }
      ],
      "stateMutability": "view",
      "type": "function"
    },
    {
      "inputs": [
        {
          "components": [
            {
              "internalType": "address",
              "name": "token0",
              "type": "address"
            },
            {
              "internalType": "address",
              "name": "token1",
              "type": "address"
            },
            {
              "internalType": "uint24",
              "name": "fee",
              "type": "uint24"
            },
            {
              "internalType": "int24",
              "name": "tickLower",
              "type": "int24"
            },
            {
              "internalType": "int24",
              "name": "tickUpper",
              "type": "int24"
            },
            {
              "internalType": "uint256",
              "name": "amount0Desired",
              "type": "uint256"
            },
            {
              "internalType": "uint256",
              "name": "amount1Desired",
              "type": "uint256"
            },
            {
              "internalType": "uint256",
              "name": "amount0Min",
              "type": "uint256"
            },
            {
              "internalType": "uint256",
              "name": "amount1Min",
              "type": "uint256"
            },
            {
              "internalType": "address",
              "name": "recipient",
              "type": "address"
            },
            {
              "internalType": "uint256",
              "name": "deadline",
              "type": "uint256"
            }
          ],
          "internalType": "struct INonfungiblePositionManager.MintParams",
          "name": "params",
          "type": "tuple"
        }
      ],
      "name": "mint",
      "outputs": [
        {
          "internalType": "uint256",
          "name": "tokenId",
          "type": "uint256"
        },
        {
          "internalType": "uint256",
          "name": "amount0",
          "type": "uint256"
        },
        {
          "internalType": "uint256",
          "name": "amount1",
          "type": "uint256"
        },
        {
          "internalType": "uint128",
          "name": "liquidity",
          "type": "uint128"
        }
      ],
      "stateMutability": "nonpayable",
      "type": "function"
    },
    {
      "inputs": [],
      "name": "name",
      "outputs": [
        {
          "internalType": "string",
          "name": "",
          "type": "string"
        }
      ],
      "stateMutability": "view",
      "type": "function"
    },
    {
      "inputs": [
        {
          "internalType": "uint256",
          "name": "tokenId",
          "type": "uint256"
        }
      ],
      "name": "ownerOf",
      "outputs": [
        {
          "internalType": "address",
          "name": "",
          "type": "address"
        }
      ],
      "stateMutability": "view",
      "type": "function"
    },
    {
      "inputs": [
        {
          "internalType": "uint256",
          "name": "tokenId",
          "type": "uint256"
        }
      ],
      "name": "positions",
      "outputs": [
        {
          "components": [
            {
              "internalType": "uint256",
              "name": "totalFeeGrowthInside0LastX128",
              "type": "uint256"
            },
            {
              "internalType": "uint256",
              "name": "totalFeeGrowthInside1LastX128",
              "type": "uint256"
            },
            {
              "internalType": "uint128",
              "name": "amount",
              "type": "uint128"
            },
            {
              "internalType": "uint128",
              "name": "tokensOwed0",
              "type": "uint128"
            },
            {
              "internalType": "uint128",
              "name": "tokensOwed1",
              "type": "uint128"
            }
          ],
          "internalType": "struct UniswapPosition",
          "name": "",
          "type": "tuple"
        }
      ],
      "stateMutability": "nonpayable",
      "type": "function"
    },
    {
      "inputs": [
        {
          "internalType": "address",
          "name": "from",
          "type": "address"
        },
        {
          "internalType": "address",
          "name": "to",
          "type": "address"
        },
        {
          "internalType": "uint256",
          "name": "tokenId",
          "type": "uint256"
        }
      ],
      "name": "safeTransferFrom",
      "outputs": [],
      "stateMutability": "nonpayable",
      "type": "function"
    },
    {
      "inputs": [
        {
          "internalType": "address",
          "name": "from",
          "type": "address"
        },
        {
          "internalType": "address",
          "name": "to",
          "type": "address"
        },
        {
          "internalType": "uint256",
          "name": "tokenId",
          "type": "uint256"
        },
        {
          "internalType": "bytes",
          "name": "data",
          "type": "bytes"
        }
      ],
      "name": "safeTransferFrom",
      "outputs": [],
      "stateMutability": "nonpayable",
      "type": "function"
    },
    {
      "inputs": [
        {
          "internalType": "address",
          "name": "operator",
          "type": "address"
        },
        {
          "internalType": "bool",
          "name": "approved",
          "type": "bool"
        }
      ],
      "name": "setApprovalForAll",
      "outputs": [],
      "stateMutability": "nonpayable",
      "type": "function"
    },
    {
      "inputs": [
        {
          "internalType": "bytes4",
          "name": "interfaceId",
          "type": "bytes4"
        }
      ],
      "name": "supportsInterface",
      "outputs": [
        {
          "internalType": "bool",
          "name": "",
          "type": "bool"
        }
      ],
      "stateMutability": "view",
      "type": "function"
    },
    {
      "inputs": [],
      "name": "symbol",
      "outputs": [
        {
          "internalType": "string",
          "name": "",
          "type": "string"
        }
      ],
      "stateMutability": "view",
      "type": "function"
    },
    {
      "inputs": [
        {
          "internalType": "uint256",
          "name": "index",
          "type": "uint256"
        }
      ],
      "name": "tokenByIndex",
      "outputs": [
        {
          "internalType": "uint256",
          "name": "",
          "type": "uint256"
        }
      ],
      "stateMutability": "view",
      "type": "function"
    },
    {
      "inputs": [
        {
          "internalType": "address",
          "name": "owner",
          "type": "address"
        },
        {
          "internalType": "uint256",
          "name": "index",
          "type": "uint256"
        }
      ],
      "name": "tokenOfOwnerByIndex",
      "outputs": [
        {
          "internalType": "uint256",
          "name": "",
          "type": "uint256"
        }
      ],
      "stateMutability": "view",
      "type": "function"
    },
    {
      "inputs": [
        {
          "internalType": "uint256",
          "name": "tokenId",
          "type": "uint256"
        }
      ],
      "name": "tokenURI",
      "outputs": [
        {
          "internalType": "string",
          "name": "",
          "type": "string"
        }
      ],
      "stateMutability": "view",
      "type": "function"
    },
    {
      "inputs": [],
      "name": "totalSupply",
      "outputs": [
        {
          "internalType": "uint256",
          "name": "",
          "type": "uint256"
        }
      ],
      "stateMutability": "view",
      "type": "function"
    },
    {
      "inputs": [
        {
          "internalType": "address",
          "name": "from",
          "type": "address"
        },
        {
          "internalType": "address",
          "name": "to",
          "type": "address"
        },
        {
          "internalType": "uint256",
          "name": "tokenId",
          "type": "uint256"
        }
      ],
      "name": "transferFrom",
      "outputs": [],
      "stateMutability": "nonpayable",
      "type": "function"
    }
  ],
  "bytecode": "0x60a0604052760100000000000000000000000000000000000000000001600c553480156200002c57600080fd5b5060405162003925380380620039258339810160408190526200004f91620000e6565b604080518082018252600a8082526904c4d54204e4654204c560b41b6020808401829052845180860190955291845290830152906000620000918382620001c3565b506001620000a08282620001c3565b5050600d80546001600160a01b0319166001600160a01b0394851617905550166080526200028f565b80516001600160a01b0381168114620000e157600080fd5b919050565b60008060408385031215620000fa57600080fd5b6200010583620000c9565b91506200011560208401620000c9565b90509250929050565b634e487b7160e01b600052604160045260246000fd5b600181811c908216806200014957607f821691505b6020821081036200016a57634e487b7160e01b600052602260045260246000fd5b50919050565b601f821115620001be57600081815260208120601f850160051c81016020861015620001995750805b601f850160051c820191505b81811015620001ba57828155600101620001a5565b5050505b505050565b81516001600160401b03811115620001df57620001df6200011e565b620001f781620001f0845462000134565b8462000170565b602080601f8311600181146200022f5760008415620002165750858301515b600019600386901b1c1916600185901b178555620001ba565b600085815260208120601f198616915b8281101562000260578886015182559484019460019091019084016200023f565b50858210156200027f5787850151600019600388901b60f8161c191681555b5050505050600190811b01905550565b608051613673620002b2600039600081816103760152611ab201526136736000f3fe608060405234801561001057600080fd5b50600436106101425760003560e01c80636352211e116100b8578063a22cb4651161007c578063a22cb4651461034b578063b88d4fde1461035e578063c45a015514610371578063c87b56dd14610398578063e85d0daf146103ab578063e985e9c5146103be57600080fd5b80636352211e1461028257806370a082311461029557806388316456146102a857806395d89b41146102e457806399fbab88146102ec57600080fd5b806318160ddd1161010a57806318160ddd146101ec578063219f5d17146101fe57806323b872dd146102365780632f745c591461024957806342842e0e1461025c5780634f6ccce71461026f57600080fd5b806301ffc9a71461014757806306fdde031461016f578063081812fc14610184578063095ea7b3146101af5780630c49ccbe146101c4575b600080fd5b61015a610155366004612d17565b6103fa565b60405190151581526020015b60405180910390f35b61017761044c565b6040516101669190612d84565b610197610192366004612d97565b6104de565b6040516001600160a01b039091168152602001610166565b6101c26101bd366004612dc5565b610505565b005b6101d76101d2366004612df1565b61061f565b60408051928352602083019190915201610166565b6008545b604051908152602001610166565b61021161020c366004612e09565b610935565b604080516001600160801b039094168452602084019290925290820152606001610166565b6101c2610244366004612e1b565b610cc4565b6101f0610257366004612dc5565b610cf5565b6101c261026a366004612e1b565b610d8b565b6101f061027d366004612d97565b610da6565b610197610290366004612d97565b610e39565b6101f06102a3366004612e5c565b610e99565b6102bb6102b6366004612e79565b610f1f565b604080519485526020850193909352918301526001600160801b03166060820152608001610166565b6101776111e9565b6102ff6102fa366004612d97565b6111f8565b604080518251815260208084015190820152828201516001600160801b03908116928201929092526060808401518316908201526080928301519091169181019190915260a001610166565b6101c2610359366004612e9a565b611362565b6101c261036c366004612f1a565b611371565b6101977f000000000000000000000000000000000000000000000000000000000000000081565b6101776103a6366004612d97565b6113a9565b6101d76103b9366004612fde565b61141d565b61015a6103cc366004612ff0565b6001600160a01b03918216600090815260056020908152604080832093909416825291909152205460ff1690565b60006001600160e01b031982166380ac58cd60e01b148061042b57506001600160e01b03198216635b5e139f60e01b145b8061044657506301ffc9a760e01b6001600160e01b03198316145b92915050565b60606000805461045b9061301e565b80601f01602080910402602001604051908101604052809291908181526020018280546104879061301e565b80156104d45780601f106104a9576101008083540402835291602001916104d4565b820191906000526020600020905b8154815290600101906020018083116104b757829003601f168201915b5050505050905090565b60006104e98261182d565b506000908152600460205260409020546001600160a01b031690565b600061051082610e39565b9050806001600160a01b0316836001600160a01b0316036105825760405162461bcd60e51b815260206004820152602160248201527f4552433732313a20617070726f76616c20746f2063757272656e74206f776e656044820152603960f91b60648201526084015b60405180910390fd5b336001600160a01b038216148061059e575061059e81336103cc565b6106105760405162461bcd60e51b815260206004820152603d60248201527f4552433732313a20617070726f76652063616c6c6572206973206e6f7420746f60448201527f6b656e206f776e6572206f7220617070726f76656420666f7220616c6c0000006064820152608401610579565b61061a838361188f565b505050565b600080823561062e33826118fd565b6106695760405162461bcd60e51b815260206004820152600c60248201526b139bdd08185c1c1c9bdd995960a21b6044820152606401610579565b8360800135804211156106b45760405162461bcd60e51b8152602060048201526013602482015272151c985b9cd858dd1a5bdb881d1bdbc81bdb19606a1b6044820152606401610579565b84356000818152600a6020908152604080832081516060808201845282546001600160a01b0390811683526001938401548082168488015262ffffff600160a01b918290041684870152978752600b86529584902084516101008101865281548089168252988904600290810b828901819052600160b81b909a04810b828801819052958301546001600160801b03908116948301949094528201546080820152600382015460a082015260049091015480831660c0830152600160801b900490911660e0820152600d5491969095919091169363abf978e49387939161079f918e01908e01613067565b6040518563ffffffff1660e01b81526004016107be94939291906130b0565b60408051808303816000875af11580156107dc573d6000803e3d6000fd5b505050506040513d601f19601f8201168201806040525081019061080091906130e8565b90965094506040870135861080159061081d575086606001358510155b61085a5760405162461bcd60e51b815260206004820152600e60248201526d736c69707061676520636865636b60901b6044820152606401610579565b600061086688356111f8565b90506108978260800151826000015161087f9190613122565b83606001516001600160801b0316600160801b61197b565b8260c0018181516108a89190613135565b6001600160801b031690525060a082015160208201516108cb9161087f91613122565b8260e0018181516108dc9190613135565b6001600160801b03169052508051608083015260208082015160a084015261090a9060408a01908a01613067565b8260600181815161091b919061315c565b6001600160801b0316905250959794965093945050505050565b60008060008360a00135804211156109855760405162461bcd60e51b8152602060048201526013602482015272151c985b9cd858dd1a5bdb881d1bdbc81bdb19606a1b6044820152606401610579565b6000600a6000876000013581526020019081526020016000206040518060600160405290816000820160009054906101000a90046001600160a01b03166001600160a01b03166001600160a01b031681526020016001820160009054906101000a90046001600160a01b03166001600160a01b03166001600160a01b031681526020016001820160149054906101000a900462ffffff1662ffffff1662ffffff168152505090506000600b600088600001358152602001908152602001600020604051806101000160405290816000820160009054906101000a90046001600160a01b03166001600160a01b03166001600160a01b031681526020016000820160149054906101000a900460020b60020b60020b81526020016000820160179054906101000a900460020b60020b60020b81526020016001820160009054906101000a90046001600160801b03166001600160801b03166001600160801b0316815260200160028201548152602001600382015481526020016004820160009054906101000a90046001600160801b03166001600160801b03166001600160801b031681526020016004820160109054906101000a90046001600160801b03166001600160801b03166001600160801b0316815250509050610c0860405180610160016040528084600001516001600160a01b0316815260200184602001516001600160a01b03168152602001846040015162ffffff16815260200183600001516001600160a01b03168152602001336001600160a01b03168152602001836020015160020b8152602001836040015160020b81526020018960200135815260200189604001358152602001896060013581526020018960800135815250611a59565b5091975060009150610c1c905088356111f8565b9050610c358260800151826000015161087f9190613122565b8260c001818151610c469190613135565b6001600160801b031690525060a08201516020820151610c699161087f91613122565b8260e001818151610c7a9190613135565b6001600160801b031690525080516080830152602081015160a0830152606082018051889190610cab908390613135565b6001600160801b03169052509597949650929450505050565b610cce33826118fd565b610cea5760405162461bcd60e51b81526004016105799061317c565b61061a838383611e3b565b6000610d0083610e99565b8210610d625760405162461bcd60e51b815260206004820152602b60248201527f455243373231456e756d657261626c653a206f776e657220696e646578206f7560448201526a74206f6620626f756e647360a81b6064820152608401610579565b506001600160a01b03919091166000908152600660209081526040808320938352929052205490565b61061a83838360405180602001604052806000815250611371565b6000610db160085490565b8210610e145760405162461bcd60e51b815260206004820152602c60248201527f455243373231456e756d657261626c653a20676c6f62616c20696e646578206f60448201526b7574206f6620626f756e647360a01b6064820152608401610579565b60088281548110610e2757610e276131c9565b90600052602060002001549050919050565b6000818152600260205260408120546001600160a01b0316806104465760405162461bcd60e51b8152602060048201526018602482015277115490cdcc8c4e881a5b9d985b1a59081d1bdad95b88125160421b6044820152606401610579565b60006001600160a01b038216610f035760405162461bcd60e51b815260206004820152602960248201527f4552433732313a2061646472657373207a65726f206973206e6f7420612076616044820152683634b21037bbb732b960b91b6064820152608401610579565b506001600160a01b031660009081526003602052604090205490565b6000806000806000611014604051806101600160405280886000016020810190610f499190612e5c565b6001600160a01b03168152602001886020016020810190610f6a9190612e5c565b6001600160a01b03168152602001610f8860608a0160408b016131df565b62ffffff168152602001610fa46101408a016101208b01612e5c565b6001600160a01b03168152336020820152604001610fc860808a0160608b01613213565b60020b8152602001610fe060a08a0160808b01613213565b60020b81526020018860a0013581526020018860c0013581526020018860e001358152602001886101000135815250611a59565b9196509450909250905061108161103361014088016101208901612e5c565b600c80546001600160b01b031690600061104c83613230565b91906101000a8154816001600160b01b0302191690836001600160b01b031602179055506001600160b01b0316965086611fac565b600061108c866111f8565b9050604051806101000160405280886101200160208101906110ae9190612e5c565b6001600160a01b031681526020016110cc60808a0160608b01613213565b60020b81526020016110e460a08a0160808b01613213565b600290810b82526001600160801b038087166020808501919091528551604080860191909152958101516060808601919091526000608080870182905260a09687018290528d8252600b84529088902087518154948901519989015162ffffff908116600160b81b0262ffffff60b81b1991909b16600160a01b026001600160b81b03199096166001600160a01b039092169190911794909417939093169790971782558501516001820180549184166fffffffffffffffffffffffffffffffff19909216919091179055948401519185019190915590820151600384015560c082015160e0909201518116600160801b029116176004909101555092949193509190565b60606001805461045b9061301e565b6040805160a0810182526000808252602082018190529181018290526060810182905260808101919091526000828152600a6020908152604080832081516060808201845282546001600160a01b0390811683526001938401548082168488015262ffffff600160a01b918290041684870152898852600b8752968590208551610100810187528154808416808352998104600290810b9983018a9052600160b81b909104810b828901819052968301546001600160801b03908116958301959095528201546080820152600382015460a082015260049182015480851660c0830152600160801b900490931660e0840152600d54955163a840465560e01b815293979296959091169463a84046559461131994899492939192910161325e565b60a060405180830381865afa158015611336573d6000803e3d6000fd5b505050506040513d601f19601f8201168201806040525081019061135a9190613296565b949350505050565b61136d338383612145565b5050565b61137b33836118fd565b6113975760405162461bcd60e51b81526004016105799061317c565b6113a384848484612213565b50505050565b60606113b48261182d565b60006113cb60408051602081019091526000815290565b905060008151116113eb5760405180602001604052806000815250611416565b806113f584612246565b60405160200161140692919061331e565b6040516020818303038152906040525b9392505050565b600080823561142c33826118fd565b6114675760405162461bcd60e51b815260206004820152600c60248201526b139bdd08185c1c1c9bdd995960a21b6044820152606401610579565b83356000818152600b6020908152604080832081516101008101835281546001600160a01b038082168352600160a01b808304600290810b85890152600160b81b909304830b848701526001808601546001600160801b039081166060808801918252958801546080880152600388015460a088015260049097015480821660c08801908152600160801b909104821660e088019081529b8b52600a8a529988902088519586018952805485168652909101549283169784019790975262ffffff910416938101939093529351945190519394919391929091161561164757600d5460208501516040808701519051632afe5e3960e21b81526001600160a01b039093169263abf978e4926115839288926000906004016130b0565b60408051808303816000875af11580156115a1573d6000803e3d6000fd5b505050506040513d601f19601f820116820180604052508101906115c591906130e8565b50600090506115d489356111f8565b9050611605856080015182600001516115ed9190613122565b86606001516001600160801b0316600160801b61197b565b61160f9084613135565b92506116288560a0015182602001516115ed9190613122565b6116329083613135565b8151608087015260209091015160a086015290505b600d54602085015160408087015190516319fa103360e01b81526001600160a01b03909316926319fa10339261168192889260040161334d565b60408051808303816000875af115801561169f573d6000803e3d6000fd5b505050506040513d601f19601f820116820180604052508101906116c39190613375565b84516001600160801b039283169950911696506001600160a01b031663a9059cbb6116f460408b0160208c01612e5c565b6040516001600160e01b031960e084901b1681526001600160a01b0390911660048201526001600160801b03851660248201526044016020604051808303816000875af1158015611749573d6000803e3d6000fd5b505050506040513d601f19601f8201168201806040525081019061176d91906133a4565b5082602001516001600160a01b031663a9059cbb8960200160208101906117949190612e5c565b6040516001600160e01b031960e084901b1681526001600160a01b0390911660048201526001600160801b03841660248201526044016020604051808303816000875af11580156117e9573d6000803e3d6000fd5b505050506040513d601f19601f8201168201806040525081019061180d91906133a4565b5050600060c0840181905260e09093019290925250929491935090915050565b6000818152600260205260409020546001600160a01b031661188c5760405162461bcd60e51b8152602060048201526018602482015277115490cdcc8c4e881a5b9d985b1a59081d1bdad95b88125160421b6044820152606401610579565b50565b600081815260046020526040902080546001600160a01b0319166001600160a01b03841690811790915581906118c482610e39565b6001600160a01b03167f8c5be1e5ebec7d5bd14f71427d1e84f3dd0314c0f7b2291e5b200ac8c7c3b92560405160405180910390a45050565b60008061190983610e39565b9050806001600160a01b0316846001600160a01b0316148061195057506001600160a01b0380821660009081526005602090815260408083209388168352929052205460ff165b8061135a5750836001600160a01b0316611969846104de565b6001600160a01b031614949350505050565b60008080600019858709858702925082811083820303915050806000036119b457600084116119a957600080fd5b508290049050611416565b8084116119ec5760405162461bcd60e51b815260206004820152600660248201526536bab62234bb60d11b6044820152606401610579565b6000848688096000868103871696879004966002600389028118808a02820302808a02820302808a02820302808a02820302808a02820302808a02909103029181900381900460010186841190950394909402919094039290920491909117919091029150509392505050565b6000806000808460c0015160020b8560a0015160020b12611aad5760405162461bcd60e51b815260206004820152600e60248201526d151250d2d4d7d49155915494d15160921b6044820152606401610579565b611b147f0000000000000000000000000000000000000000000000000000000000000000604051806060016040528088600001516001600160a01b0316815260200188602001516001600160a01b03168152602001886040015162ffffff168152506122d9565b600d5486516020808901516040808b015181516001600160a01b03958616948101949094529184169083015262ffffff166060820152929350600092911690636519768890608001604051602081830303815290604052805190602001206040518263ffffffff1660e01b8152600401611b9091815260200190565b602060405180830381865afa158015611bad573d6000803e3d6000fd5b505050506040513d601f19601f82011682018060405250810190611bd191906133c1565b9050808660a00151611be391906133f4565b60020b158015611c035750808660c00151611bfe91906133f4565b60020b155b611c455760405162461bcd60e51b81526020600482015260136024820152725449434b535f4e4f545f444956495349424c4560681b6044820152606401610579565b6000826001600160a01b0316633850c7bd6040518163ffffffff1660e01b815260040160e060405180830381865afa158015611c85573d6000803e3d6000fd5b505050506040513d601f19601f82011682018060405250810190611ca99190613436565b50505050505090506000611cc08860a001516123c2565b90506000611cd18960c001516123c2565b9050611ce98383838c60e001518d61010001516126e5565b975050505050600d60009054906101000a90046001600160a01b03166001600160a01b031663d7d3ed6a604051806060016040528088600001516001600160a01b0316815260200188602001516001600160a01b03168152602001886040015162ffffff168152508760a001518860c00151888a606001518b608001516040518763ffffffff1660e01b8152600401611d87969594939291906134ce565b60408051808303816000875af1158015611da5573d6000803e3d6000fd5b505050506040513d601f19601f82011682018060405250810190611dc991906130e8565b61012087015191945092508310801590611de857508461014001518210155b611e345760405162461bcd60e51b815260206004820152601d60248201527f494e53554646494349454e545f4c49515549444954595f4d494e5445440000006044820152606401610579565b9193509193565b826001600160a01b0316611e4e82610e39565b6001600160a01b031614611e745760405162461bcd60e51b815260040161057990613520565b6001600160a01b038216611ed65760405162461bcd60e51b8152602060048201526024808201527f4552433732313a207472616e7366657220746f20746865207a65726f206164646044820152637265737360e01b6064820152608401610579565b611ee383838360016127a9565b826001600160a01b0316611ef682610e39565b6001600160a01b031614611f1c5760405162461bcd60e51b815260040161057990613520565b600081815260046020908152604080832080546001600160a01b03199081169091556001600160a01b0387811680865260038552838620805460001901905590871680865283862080546001019055868652600290945282852080549092168417909155905184937fddf252ad1be2c89b69c2b068fc378daa952ba7f163c4a11628f55a4df523b3ef91a4505050565b6001600160a01b0382166120025760405162461bcd60e51b815260206004820181905260248201527f4552433732313a206d696e7420746f20746865207a65726f20616464726573736044820152606401610579565b6000818152600260205260409020546001600160a01b0316156120675760405162461bcd60e51b815260206004820152601c60248201527f4552433732313a20746f6b656e20616c7265616479206d696e746564000000006044820152606401610579565b6120756000838360016127a9565b6000818152600260205260409020546001600160a01b0316156120da5760405162461bcd60e51b815260206004820152601c60248201527f4552433732313a20746f6b656e20616c7265616479206d696e746564000000006044820152606401610579565b6001600160a01b038216600081815260036020908152604080832080546001019055848352600290915280822080546001600160a01b0319168417905551839291907fddf252ad1be2c89b69c2b068fc378daa952ba7f163c4a11628f55a4df523b3ef908290a45050565b816001600160a01b0316836001600160a01b0316036121a65760405162461bcd60e51b815260206004820152601960248201527f4552433732313a20617070726f766520746f2063616c6c6572000000000000006044820152606401610579565b6001600160a01b03838116600081815260056020908152604080832094871680845294825291829020805460ff191686151590811790915591519182527f17307eab39ab6107e8899845ad3d59bd9653f200f220920489ca2b5937696c31910160405180910390a3505050565b61221e848484611e3b565b61222a848484846128dd565b6113a35760405162461bcd60e51b815260040161057990613565565b60606000612253836129de565b600101905060008167ffffffffffffffff81111561227357612273612ed3565b6040519080825280601f01601f19166020018201604052801561229d576020820181803683370190505b5090508181016020015b600019016f181899199a1a9b1b9c1cb0b131b232b360811b600a86061a8153600a85049450846122a757509392505050565b600081602001516001600160a01b031682600001516001600160a01b03161061230157600080fd5b815160208084015160408086015181516001600160a01b0395861681860152949092168482015262ffffff90911660608085019190915281518085038201815260808501909252815191909201206001600160f81b031960a08401529085901b6bffffffffffffffffffffffff191660a183015260b58201527fe34f199b19b2b4f47f68442619d555527d244f78a3297ea89325f843f87b8b5460d582015260f50160408051601f1981840301815291905280516020909101209392505050565b60008060008360020b126123d9578260020b6123e1565b8260020b6000035b9050620d89e8811115612407576040516315e4079d60e11b815260040160405180910390fd5b60008160011660000361241e57600160801b612430565b6ffffcb933bd6fad37aa2d162d1a5940015b70ffffffffffffffffffffffffffffffffff1690506002821615612464576ffff97272373d413259a46990580e213a0260801c5b6004821615612483576ffff2e50f5f656932ef12357cf3c7fdcc0260801c5b60088216156124a2576fffe5caca7e10e4e61c3624eaa0941cd00260801c5b60108216156124c1576fffcb9843d60f6159c9db58835c9266440260801c5b60208216156124e0576fff973b41fa98c081472e6896dfb254c00260801c5b60408216156124ff576fff2ea16466c96a3843ec78b326b528610260801c5b608082161561251e576ffe5dee046a99a2a811c461f1969c30530260801c5b61010082161561253e576ffcbe86c7900a88aedcffc83b479aa3a40260801c5b61020082161561255e576ff987a7253ac413176f2b074cf7815e540260801c5b61040082161561257e576ff3392b0822b70005940c7a398e4b70f30260801c5b61080082161561259e576fe7159475a2c29b7443b29c7fa6e889d90260801c5b6110008216156125be576fd097f3bdfd2022b8845ad8f792aa58250260801c5b6120008216156125de576fa9f746462d870fdf8a65dc1f90e061e50260801c5b6140008216156125fe576f70d869a156d2a1b890bb3df62baf32f70260801c5b61800082161561261e576f31be135f97d08fd981231505542fcfa60260801c5b6201000082161561263f576f09aa508b5b7a84e1c677de54f3e99bc90260801c5b6202000082161561265f576e5d6af8dedb81196699c329225ee6040260801c5b6204000082161561267e576d2216e584f5fa1ea926041bedfe980260801c5b6208000082161561269b576b048a170391f7dc42444e8fa20260801c5b60008460020b13156126bc5780600019816126b8576126b86133de565b0490505b6401000000008106156126d05760016126d3565b60005b60ff16602082901c0192505050919050565b6000836001600160a01b0316856001600160a01b03161115612705579293925b846001600160a01b0316866001600160a01b03161161273057612729858585612ab6565b90506127a0565b836001600160a01b0316866001600160a01b03161015612792576000612757878686612ab6565b90506000612766878986612b20565b9050806001600160801b0316826001600160801b0316106127875780612789565b815b925050506127a0565b61279d858584612b20565b90505b95945050505050565b60018111156128185760405162461bcd60e51b815260206004820152603560248201527f455243373231456e756d657261626c653a20636f6e7365637574697665207472604482015274185b9cd9995c9cc81b9bdd081cdd5c1c1bdc9d1959605a1b6064820152608401610579565b816001600160a01b0385166128745761286f81600880546000838152600960205260408120829055600182018355919091527ff3f7a9fe364faab93b216da50a3214154f22a0a2b415b23a84c8169e8b636ee30155565b612897565b836001600160a01b0316856001600160a01b031614612897576128978582612b56565b6001600160a01b0384166128b3576128ae81612bf3565b6128d6565b846001600160a01b0316846001600160a01b0316146128d6576128d68482612ca2565b5050505050565b60006001600160a01b0384163b156129d357604051630a85bd0160e11b81526001600160a01b0385169063150b7a02906129219033908990889088906004016135b7565b6020604051808303816000875af192505050801561295c575060408051601f3d908101601f19168201909252612959918101906135ea565b60015b6129b9573d80801561298a576040519150601f19603f3d011682016040523d82523d6000602084013e61298f565b606091505b5080516000036129b15760405162461bcd60e51b815260040161057990613565565b805181602001fd5b6001600160e01b031916630a85bd0160e11b14905061135a565b506001949350505050565b60008072184f03e93ff9f4daa797ed6e38ed64bf6a1f0160401b8310612a1d5772184f03e93ff9f4daa797ed6e38ed64bf6a1f0160401b830492506040015b6d04ee2d6d415b85acef81000000008310612a49576d04ee2d6d415b85acef8100000000830492506020015b662386f26fc100008310612a6757662386f26fc10000830492506010015b6305f5e1008310612a7f576305f5e100830492506008015b6127108310612a9357612710830492506004015b60648310612aa5576064830492506002015b600a83106104465760010192915050565b6000826001600160a01b0316846001600160a01b03161115612ad6579192915b6000612af9856001600160a01b0316856001600160a01b0316600160601b61197b565b90506127a0612b1b8483612b0d8989613607565b6001600160a01b031661197b565b612ce6565b6000826001600160a01b0316846001600160a01b03161115612b40579192915b61135a612b1b83600160601b612b0d8888613607565b60006001612b6384610e99565b612b6d9190613122565b600083815260076020526040902054909150808214612bc0576001600160a01b03841660009081526006602090815260408083208584528252808320548484528184208190558352600790915290208190555b5060009182526007602090815260408084208490556001600160a01b039094168352600681528383209183525290812055565b600854600090612c0590600190613122565b60008381526009602052604081205460088054939450909284908110612c2d57612c2d6131c9565b906000526020600020015490508060088381548110612c4e57612c4e6131c9565b6000918252602080832090910192909255828152600990915260408082208490558582528120556008805480612c8657612c86613627565b6001900381819060005260206000200160009055905550505050565b6000612cad83610e99565b6001600160a01b039093166000908152600660209081526040808320868452825280832085905593825260079052919091209190915550565b806001600160801b0381168114612cfc57600080fd5b919050565b6001600160e01b03198116811461188c57600080fd5b600060208284031215612d2957600080fd5b813561141681612d01565b60005b83811015612d4f578181015183820152602001612d37565b50506000910152565b60008151808452612d70816020860160208601612d34565b601f01601f19169290920160200192915050565b6020815260006114166020830184612d58565b600060208284031215612da957600080fd5b5035919050565b6001600160a01b038116811461188c57600080fd5b60008060408385031215612dd857600080fd5b8235612de381612db0565b946020939093013593505050565b600060a08284031215612e0357600080fd5b50919050565b600060c08284031215612e0357600080fd5b600080600060608486031215612e3057600080fd5b8335612e3b81612db0565b92506020840135612e4b81612db0565b929592945050506040919091013590565b600060208284031215612e6e57600080fd5b813561141681612db0565b60006101608284031215612e0357600080fd5b801515811461188c57600080fd5b60008060408385031215612ead57600080fd5b8235612eb881612db0565b91506020830135612ec881612e8c565b809150509250929050565b634e487b7160e01b600052604160045260246000fd5b604051601f8201601f1916810167ffffffffffffffff81118282101715612f1257612f12612ed3565b604052919050565b60008060008060808587031215612f3057600080fd5b8435612f3b81612db0565b9350602085810135612f4c81612db0565b935060408601359250606086013567ffffffffffffffff80821115612f7057600080fd5b818801915088601f830112612f8457600080fd5b813581811115612f9657612f96612ed3565b612fa8601f8201601f19168501612ee9565b91508082528984828501011115612fbe57600080fd5b808484018584013760008482840101525080935050505092959194509250565b600060408284031215612e0357600080fd5b6000806040838503121561300357600080fd5b823561300e81612db0565b91506020830135612ec881612db0565b600181811c9082168061303257607f821691505b602082108103612e0357634e487b7160e01b600052602260045260246000fd5b6001600160801b038116811461188c57600080fd5b60006020828403121561307957600080fd5b813561141681613052565b80516001600160a01b0390811683526020808301519091169083015260409081015162ffffff16910152565b60c081016130be8287613084565b8460020b60608301528360020b60808301526001600160801b03831660a083015295945050505050565b600080604083850312156130fb57600080fd5b505080516020909101519092909150565b634e487b7160e01b600052601160045260246000fd5b818103818111156104465761044661310c565b6001600160801b038181168382160190808211156131555761315561310c565b5092915050565b6001600160801b038281168282160390808211156131555761315561310c565b6020808252602d908201527f4552433732313a2063616c6c6572206973206e6f7420746f6b656e206f776e6560408201526c1c881bdc88185c1c1c9bdd9959609a1b606082015260800190565b634e487b7160e01b600052603260045260246000fd5b6000602082840312156131f157600080fd5b813562ffffff8116811461141657600080fd5b8060020b811461188c57600080fd5b60006020828403121561322557600080fd5b813561141681613204565b60006001600160b01b038281166002600160b01b031981016132545761325461310c565b6001019392505050565b60c0810161326c8287613084565b600294850b60608301529290930b60808401526001600160a01b031660a090920191909152919050565b600060a082840312156132a857600080fd5b60405160a0810181811067ffffffffffffffff821117156132cb576132cb612ed3565b8060405250825181526020830151602082015260408301516132ec81613052565b604082015260608301516132ff81613052565b6060820152608083015161331281613052565b60808201529392505050565b60008351613330818460208801612d34565b835190830190613344818360208801612d34565b01949350505050565b60a0810161335b8286613084565b8360020b60608301528260020b6080830152949350505050565b6000806040838503121561338857600080fd5b825161339381613052565b6020840151909250612ec881613052565b6000602082840312156133b657600080fd5b815161141681612e8c565b6000602082840312156133d357600080fd5b815161141681613204565b634e487b7160e01b600052601260045260246000fd5b60008260020b8061341557634e487b7160e01b600052601260045260246000fd5b808360020b0791505092915050565b805161ffff81168114612cfc57600080fd5b600080600080600080600060e0888a03121561345157600080fd5b875161345c81612db0565b602089015190975061346d81613204565b955061347b60408901613424565b945061348960608901613424565b935061349760808901613424565b925060a088015160ff811681146134ad57600080fd5b60c08901519092506134be81612e8c565b8091505092959891949750929550565b61010081016134dd8289613084565b600296870b60608301529490950b60808601526001600160801b039290921660a08501526001600160a01b0390811660c08501521660e090920191909152919050565b60208082526025908201527f4552433732313a207472616e736665722066726f6d20696e636f72726563742060408201526437bbb732b960d91b606082015260800190565b60208082526032908201527f4552433732313a207472616e7366657220746f206e6f6e20455243373231526560408201527131b2b4bb32b91034b6b83632b6b2b73a32b960711b606082015260800190565b6001600160a01b038581168252841660208201526040810183905260806060820181905260009061279d90830184612d58565b6000602082840312156135fc57600080fd5b815161141681612d01565b6001600160a01b038281168282160390808211156131555761315561310c565b634e487b7160e01b600052603160045260246000fdfea2646970667358221220899550a648db0578d1e610eaf77d29d070767bdc84c038aff267e1b0b5e971f264736f6c63430008120033",
  "linkReferences": {},
  "deployedLinkReferences": {}
}