{
  "_format": "hh-sol-artifact-1",
  "contractName": "PoolManager",
  "sourceName": "src/PoolManager.sol",
  "abi": [
    {
      "inputs": [],
      "stateMutability": "nonpayable",
      "type": "constructor"
    },
    {
      "inputs": [
        {
          "internalType": "address",
          "name": "",
          "type": "address"
        },
        {
          "internalType": "int24",
          "name": "",
          "type": "int24"
        }
      ],
      "name": "Interests",
      "outputs": [
        {
          "internalType": "uint256",
          "name": "interest0",
          "type": "uint256"
        },
        {
          "internalType": "uint256",
          "name": "interest1",
          "type": "uint256"
        }
      ],
      "stateMutability": "view",
      "type": "function"
    },
    {
      "inputs": [
        {
          "internalType": "bytes32",
          "name": "",
          "type": "bytes32"
        },
        {
          "internalType": "int24",
          "name": "",
          "type": "int24"
        }
      ],
      "name": "LiquidityBin",
      "outputs": [
        {
          "internalType": "uint128",
          "name": "",
          "type": "uint128"
        }
      ],
      "stateMutability": "view",
      "type": "function"
    },
    {
      "inputs": [
        {
          "internalType": "bytes32",
          "name": "",
          "type": "bytes32"
        },
        {
          "internalType": "bytes32",
          "name": "",
          "type": "bytes32"
        }
      ],
      "name": "LiquidityPositions",
      "outputs": [
        {
          "internalType": "uint256",
          "name": "totalFeeGrowthInside0LastX128",
          "type": "uint256"
        },
        {
          "internalType": "uint256",
          "name": "totalFeeGrowthInside1LastX128",
          "type": "uint256"
        },
        {
          "internalType": "uint128",
          "name": "amount",
          "type": "uint128"
        },
        {
          "internalType": "uint128",
          "name": "tokensOwed0",
          "type": "uint128"
        },
        {
          "internalType": "uint128",
          "name": "tokensOwed1",
          "type": "uint128"
        }
      ],
      "stateMutability": "view",
      "type": "function"
    },
    {
      "inputs": [
        {
          "internalType": "address",
          "name": "",
          "type": "address"
        }
      ],
      "name": "PoolParams",
      "outputs": [
        {
          "components": [
            {
              "internalType": "uint256",
              "name": "pivotRate",
              "type": "uint256"
            },
            {
              "internalType": "uint256",
              "name": "slope1",
              "type": "uint256"
            },
            {
              "internalType": "uint256",
              "name": "intercept1",
              "type": "uint256"
            },
            {
              "internalType": "uint256",
              "name": "slope2",
              "type": "uint256"
            },
            {
              "internalType": "uint256",
              "name": "intercept2",
              "type": "uint256"
            }
          ],
          "internalType": "struct URateParam",
          "name": "uParam",
          "type": "tuple"
        },
        {
          "internalType": "uint256",
          "name": "maxURate",
          "type": "uint256"
        },
        {
          "internalType": "uint256",
          "name": "maxSearchRight",
          "type": "uint256"
        },
        {
          "internalType": "uint256",
          "name": "maxSearchLeft",
          "type": "uint256"
        },
        {
          "internalType": "uint16",
          "name": "poolId",
          "type": "uint16"
        },
        {
          "internalType": "uint256",
          "name": "MIN_PREMIUM_DEPOSIT",
          "type": "uint256"
        }
      ],
      "stateMutability": "view",
      "type": "function"
    },
    {
      "inputs": [
        {
          "internalType": "address",
          "name": "",
          "type": "address"
        },
        {
          "internalType": "int24",
          "name": "",
          "type": "int24"
        }
      ],
      "name": "UtilizationGrowths",
      "outputs": [
        {
          "internalType": "uint256",
          "name": "growth",
          "type": "uint256"
        },
        {
          "internalType": "uint256",
          "name": "lastURate",
          "type": "uint256"
        },
        {
          "internalType": "uint256",
          "name": "lastUpdateTime",
          "type": "uint256"
        }
      ],
      "stateMutability": "view",
      "type": "function"
    },
    {
      "inputs": [
        {
          "internalType": "address",
          "name": "pool",
          "type": "address"
        },
        {
          "internalType": "address",
          "name": "tokenA",
          "type": "address"
        },
        {
          "internalType": "address",
          "name": "tokenB",
          "type": "address"
        },
        {
          "internalType": "uint24",
          "name": "fee",
          "type": "uint24"
        },
        {
          "internalType": "int24",
          "name": "tickDiscretization",
          "type": "int24"
        },
        {
          "components": [
            {
              "components": [
                {
                  "internalType": "uint256",
                  "name": "pivotRate",
                  "type": "uint256"
                },
                {
                  "internalType": "uint256",
                  "name": "slope1",
                  "type": "uint256"
                },
                {
                  "internalType": "uint256",
                  "name": "intercept1",
                  "type": "uint256"
                },
                {
                  "internalType": "uint256",
                  "name": "slope2",
                  "type": "uint256"
                },
                {
                  "internalType": "uint256",
                  "name": "intercept2",
                  "type": "uint256"
                }
              ],
              "internalType": "struct URateParam",
              "name": "uParam",
              "type": "tuple"
            },
            {
              "internalType": "uint256",
              "name": "maxURate",
              "type": "uint256"
            },
            {
              "internalType": "uint256",
              "name": "maxSearchRight",
              "type": "uint256"
            },
            {
              "internalType": "uint256",
              "name": "maxSearchLeft",
              "type": "uint256"
            },
            {
              "internalType": "uint16",
              "name": "poolId",
              "type": "uint16"
            },
            {
              "internalType": "uint256",
              "name": "MIN_PREMIUM_DEPOSIT",
              "type": "uint256"
            }
          ],
          "internalType": "struct PoolParam",
          "name": "param",
          "type": "tuple"
        }
      ],
      "name": "addPool",
      "outputs": [],
      "stateMutability": "nonpayable",
      "type": "function"
    },
    {
      "inputs": [
        {
          "internalType": "bytes32",
          "name": "",
          "type": "bytes32"
        },
        {
          "internalType": "int16",
          "name": "",
          "type": "int16"
        }
      ],
      "name": "binBitmaps",
      "outputs": [
        {
          "internalType": "uint256",
          "name": "",
          "type": "uint256"
        }
      ],
      "stateMutability": "view",
      "type": "function"
    },
    {
      "inputs": [],
      "name": "borrowFacility",
      "outputs": [
        {
          "internalType": "address",
          "name": "",
          "type": "address"
        }
      ],
      "stateMutability": "view",
      "type": "function"
    },
    {
      "inputs": [
        {
          "internalType": "bytes32",
          "name": "",
          "type": "bytes32"
        },
        {
          "internalType": "int24",
          "name": "",
          "type": "int24"
        }
      ],
      "name": "borrowedLiquidities",
      "outputs": [
        {
          "internalType": "uint128",
          "name": "",
          "type": "uint128"
        }
      ],
      "stateMutability": "view",
      "type": "function"
    },
    {
      "inputs": [
        {
          "components": [
            {
              "internalType": "address",
              "name": "token0",
              "type": "address"
            },
            {
              "internalType": "address",
              "name": "token1",
              "type": "address"
            },
            {
              "internalType": "uint24",
              "name": "fee",
              "type": "uint24"
            }
          ],
          "internalType": "struct PoolKey",
          "name": "key",
          "type": "tuple"
        },
        {
          "internalType": "int24",
          "name": "tickLower",
          "type": "int24"
        },
        {
          "internalType": "int24",
          "name": "tickUpper",
          "type": "int24"
        }
      ],
      "name": "collectFees",
      "outputs": [
        {
          "internalType": "uint128",
          "name": "premiumOwed0",
          "type": "uint128"
        },
        {
          "internalType": "uint128",
          "name": "premiumOwed1",
          "type": "uint128"
        }
      ],
      "stateMutability": "nonpayable",
      "type": "function"
    },
    {
      "inputs": [
        {
          "internalType": "uint24",
          "name": "",
          "type": "uint24"
        }
      ],
      "name": "feeAmountTickSpacing",
      "outputs": [
        {
          "internalType": "int24",
          "name": "",
          "type": "int24"
        }
      ],
      "stateMutability": "view",
      "type": "function"
    },
    {
      "inputs": [
        {
          "components": [
            {
              "internalType": "address",
              "name": "token0",
              "type": "address"
            },
            {
              "internalType": "address",
              "name": "token1",
              "type": "address"
            },
            {
              "internalType": "uint24",
              "name": "fee",
              "type": "uint24"
            }
          ],
          "internalType": "struct PoolKey",
          "name": "key",
          "type": "tuple"
        },
        {
          "internalType": "uint256",
          "name": "margin",
          "type": "uint256"
        },
        {
          "internalType": "uint256",
          "name": "borrowAmount",
          "type": "uint256"
        },
        {
          "internalType": "bool",
          "name": "borrowBelow",
          "type": "bool"
        },
        {
          "internalType": "uint256",
          "name": "estimatedMinimumSlippage",
          "type": "uint256"
        }
      ],
      "name": "findAndWithdraw",
      "outputs": [
        {
          "internalType": "uint160",
          "name": "sqrtStartingPriceX96",
          "type": "uint160"
        },
        {
          "internalType": "uint256",
          "name": "totalAmount0",
          "type": "uint256"
        },
        {
          "internalType": "uint256",
          "name": "totalAmount1",
          "type": "uint256"
        },
        {
          "internalType": "uint256",
          "name": "averagePrice",
          "type": "uint256"
        },
        {
          "components": [
            {
              "internalType": "int24",
              "name": "tick",
              "type": "int24"
            },
            {
              "internalType": "uint128",
              "name": "liquidity",
              "type": "uint128"
            },
            {
              "internalType": "uint256",
              "name": "premium",
              "type": "uint256"
            },
            {
              "internalType": "uint256",
              "name": "Urate",
              "type": "uint256"
            },
            {
              "internalType": "uint256",
              "name": "feeGrowthInside0LastX128",
              "type": "uint256"
            },
            {
              "internalType": "uint256",
              "name": "feeGrowthInside1LastX128",
              "type": "uint256"
            },
            {
              "internalType": "uint256",
              "name": "lastGrowth",
              "type": "uint256"
            }
          ],
          "internalType": "struct LiquidityLoan[]",
          "name": "borrowInfo",
          "type": "tuple[]"
        }
      ],
      "stateMutability": "nonpayable",
      "type": "function"
    },
    {
      "inputs": [
        {
          "internalType": "bytes32",
          "name": "id",
          "type": "bytes32"
        },
        {
          "internalType": "int24",
          "name": "startingTick",
          "type": "int24"
        },
        {
          "internalType": "int24",
          "name": "finishTick",
          "type": "int24"
        },
        {
          "internalType": "int24",
          "name": "binSize",
          "type": "int24"
        },
        {
          "internalType": "bool",
          "name": "lte",
          "type": "bool"
        },
        {
          "internalType": "uint256",
          "name": "n",
          "type": "uint256"
        }
      ],
      "name": "findNearestInitializedBin",
      "outputs": [
        {
          "internalType": "int24",
          "name": "nextTick",
          "type": "int24"
        },
        {
          "internalType": "bool",
          "name": "success",
          "type": "bool"
        }
      ],
      "stateMutability": "view",
      "type": "function"
    },
    {
      "inputs": [
        {
          "internalType": "address",
          "name": "pool",
          "type": "address"
        },
        {
          "internalType": "int24",
          "name": "tick",
          "type": "int24"
        },
        {
          "components": [
            {
              "internalType": "uint256",
              "name": "pivotRate",
              "type": "uint256"
            },
            {
              "internalType": "uint256",
              "name": "slope1",
              "type": "uint256"
            },
            {
              "internalType": "uint256",
              "name": "intercept1",
              "type": "uint256"
            },
            {
              "internalType": "uint256",
              "name": "slope2",
              "type": "uint256"
            },
            {
              "internalType": "uint256",
              "name": "intercept2",
              "type": "uint256"
            }
          ],
          "internalType": "struct URateParam",
          "name": "param",
          "type": "tuple"
        }
      ],
      "name": "getGrowth",
      "outputs": [
        {
          "internalType": "uint256",
          "name": "",
          "type": "uint256"
        }
      ],
      "stateMutability": "view",
      "type": "function"
    },
    {
      "inputs": [
        {
          "internalType": "address",
          "name": "pool",
          "type": "address"
        },
        {
          "internalType": "int24",
          "name": "tickLower",
          "type": "int24"
        },
        {
          "internalType": "int24",
          "name": "tickUpper",
          "type": "int24"
        },
        {
          "internalType": "int24",
          "name": "tickDiscretization",
          "type": "int24"
        }
      ],
      "name": "getInterestGrowthInside",
      "outputs": [
        {
          "internalType": "uint256",
          "name": "interest0",
          "type": "uint256"
        },
        {
          "internalType": "uint256",
          "name": "interest1",
          "type": "uint256"
        }
      ],
      "stateMutability": "view",
      "type": "function"
    },
    {
      "inputs": [
        {
          "components": [
            {
              "internalType": "address",
              "name": "token0",
              "type": "address"
            },
            {
              "internalType": "address",
              "name": "token1",
              "type": "address"
            },
            {
              "internalType": "uint24",
              "name": "fee",
              "type": "uint24"
            }
          ],
          "internalType": "struct PoolKey",
          "name": "key",
          "type": "tuple"
        },
        {
          "internalType": "int24",
          "name": "tick",
          "type": "int24"
        }
      ],
      "name": "getLiquidityInBin",
      "outputs": [
        {
          "internalType": "uint128",
          "name": "",
          "type": "uint128"
        }
      ],
      "stateMutability": "view",
      "type": "function"
    },
    {
      "inputs": [
        {
          "components": [
            {
              "internalType": "address",
              "name": "token0",
              "type": "address"
            },
            {
              "internalType": "address",
              "name": "token1",
              "type": "address"
            },
            {
              "internalType": "uint24",
              "name": "fee",
              "type": "uint24"
            }
          ],
          "internalType": "struct PoolKey",
          "name": "key",
          "type": "tuple"
        },
        {
          "internalType": "int24",
          "name": "tickLower",
          "type": "int24"
        },
        {
          "internalType": "int24",
          "name": "tickUpper",
          "type": "int24"
        },
        {
          "internalType": "address",
          "name": "owner",
          "type": "address"
        }
      ],
      "name": "getLiquidityPosition",
      "outputs": [
        {
          "components": [
            {
              "internalType": "uint256",
              "name": "totalFeeGrowthInside0LastX128",
              "type": "uint256"
            },
            {
              "internalType": "uint256",
              "name": "totalFeeGrowthInside1LastX128",
              "type": "uint256"
            },
            {
              "internalType": "uint128",
              "name": "amount",
              "type": "uint128"
            },
            {
              "internalType": "uint128",
              "name": "tokensOwed0",
              "type": "uint128"
            },
            {
              "internalType": "uint128",
              "name": "tokensOwed1",
              "type": "uint128"
            }
          ],
          "internalType": "struct UniswapPosition",
          "name": "",
          "type": "tuple"
        }
      ],
      "stateMutability": "view",
      "type": "function"
    },
    {
      "inputs": [
        {
          "components": [
            {
              "internalType": "address",
              "name": "token0",
              "type": "address"
            },
            {
              "internalType": "address",
              "name": "token1",
              "type": "address"
            },
            {
              "internalType": "uint24",
              "name": "fee",
              "type": "uint24"
            }
          ],
          "internalType": "struct PoolKey",
          "name": "key",
          "type": "tuple"
        }
      ],
      "name": "getParams",
      "outputs": [
        {
          "internalType": "address",
          "name": "pool",
          "type": "address"
        },
        {
          "internalType": "int24",
          "name": "tickDiscretization",
          "type": "int24"
        },
        {
          "components": [
            {
              "components": [
                {
                  "internalType": "uint256",
                  "name": "pivotRate",
                  "type": "uint256"
                },
                {
                  "internalType": "uint256",
                  "name": "slope1",
                  "type": "uint256"
                },
                {
                  "internalType": "uint256",
                  "name": "intercept1",
                  "type": "uint256"
                },
                {
                  "internalType": "uint256",
                  "name": "slope2",
                  "type": "uint256"
                },
                {
                  "internalType": "uint256",
                  "name": "intercept2",
                  "type": "uint256"
                }
              ],
              "internalType": "struct URateParam",
              "name": "uParam",
              "type": "tuple"
            },
            {
              "internalType": "uint256",
              "name": "maxURate",
              "type": "uint256"
            },
            {
              "internalType": "uint256",
              "name": "maxSearchRight",
              "type": "uint256"
            },
            {
              "internalType": "uint256",
              "name": "maxSearchLeft",
              "type": "uint256"
            },
            {
              "internalType": "uint16",
              "name": "poolId",
              "type": "uint16"
            },
            {
              "internalType": "uint256",
              "name": "MIN_PREMIUM_DEPOSIT",
              "type": "uint256"
            }
          ],
          "internalType": "struct PoolParam",
          "name": "param",
          "type": "tuple"
        }
      ],
      "stateMutability": "view",
      "type": "function"
    },
    {
      "inputs": [
        {
          "internalType": "address",
          "name": "",
          "type": "address"
        },
        {
          "internalType": "address",
          "name": "",
          "type": "address"
        },
        {
          "internalType": "uint24",
          "name": "",
          "type": "uint24"
        }
      ],
      "name": "getPool",
      "outputs": [
        {
          "internalType": "address",
          "name": "",
          "type": "address"
        }
      ],
      "stateMutability": "view",
      "type": "function"
    },
    {
      "inputs": [],
      "name": "getPoolList",
      "outputs": [
        {
          "internalType": "address[]",
          "name": "",
          "type": "address[]"
        }
      ],
      "stateMutability": "view",
      "type": "function"
    },
    {
      "inputs": [
        {
          "components": [
            {
              "internalType": "address",
              "name": "token0",
              "type": "address"
            },
            {
              "internalType": "address",
              "name": "token1",
              "type": "address"
            },
            {
              "internalType": "uint24",
              "name": "fee",
              "type": "uint24"
            }
          ],
          "internalType": "struct PoolKey",
          "name": "key",
          "type": "tuple"
        }
      ],
      "name": "getPremiumsCollected",
      "outputs": [
        {
          "components": [
            {
              "internalType": "uint128",
              "name": "premium0",
              "type": "uint128"
            },
            {
              "internalType": "uint128",
              "name": "premium1",
              "type": "uint128"
            }
          ],
          "internalType": "struct PremiumsCollected",
          "name": "",
          "type": "tuple"
        }
      ],
      "stateMutability": "view",
      "type": "function"
    },
    {
      "inputs": [],
      "name": "getTokenList",
      "outputs": [
        {
          "internalType": "address[]",
          "name": "",
          "type": "address[]"
        }
      ],
      "stateMutability": "view",
      "type": "function"
    },
    {
      "inputs": [
        {
          "components": [
            {
              "internalType": "address",
              "name": "token0",
              "type": "address"
            },
            {
              "internalType": "address",
              "name": "token1",
              "type": "address"
            },
            {
              "internalType": "uint24",
              "name": "fee",
              "type": "uint24"
            }
          ],
          "internalType": "struct PoolKey",
          "name": "key",
          "type": "tuple"
        },
        {
          "components": [
            {
              "internalType": "int24",
              "name": "tick",
              "type": "int24"
            },
            {
              "internalType": "uint128",
              "name": "liquidity",
              "type": "uint128"
            },
            {
              "internalType": "uint256",
              "name": "premium",
              "type": "uint256"
            },
            {
              "internalType": "uint256",
              "name": "Urate",
              "type": "uint256"
            },
            {
              "internalType": "uint256",
              "name": "feeGrowthInside0LastX128",
              "type": "uint256"
            },
            {
              "internalType": "uint256",
              "name": "feeGrowthInside1LastX128",
              "type": "uint256"
            },
            {
              "internalType": "uint256",
              "name": "lastGrowth",
              "type": "uint256"
            }
          ],
          "internalType": "struct LiquidityLoan[]",
          "name": "borrowInfo",
          "type": "tuple[]"
        }
      ],
      "name": "getURates",
      "outputs": [
        {
          "components": [
            {
              "internalType": "int24",
              "name": "tick",
              "type": "int24"
            },
            {
              "internalType": "uint128",
              "name": "liquidity",
              "type": "uint128"
            },
            {
              "internalType": "uint256",
              "name": "premium",
              "type": "uint256"
            },
            {
              "internalType": "uint256",
              "name": "Urate",
              "type": "uint256"
            },
            {
              "internalType": "uint256",
              "name": "feeGrowthInside0LastX128",
              "type": "uint256"
            },
            {
              "internalType": "uint256",
              "name": "feeGrowthInside1LastX128",
              "type": "uint256"
            },
            {
              "internalType": "uint256",
              "name": "lastGrowth",
              "type": "uint256"
            }
          ],
          "internalType": "struct LiquidityLoan[]",
          "name": "",
          "type": "tuple[]"
        }
      ],
      "stateMutability": "view",
      "type": "function"
    },
    {
      "inputs": [
        {
          "components": [
            {
              "internalType": "address",
              "name": "token0",
              "type": "address"
            },
            {
              "internalType": "address",
              "name": "token1",
              "type": "address"
            },
            {
              "internalType": "uint24",
              "name": "fee",
              "type": "uint24"
            }
          ],
          "internalType": "struct PoolKey",
          "name": "key",
          "type": "tuple"
        },
        {
          "components": [
            {
              "internalType": "int24",
              "name": "tick",
              "type": "int24"
            },
            {
              "internalType": "uint128",
              "name": "liquidity",
              "type": "uint128"
            },
            {
              "internalType": "uint256",
              "name": "premium",
              "type": "uint256"
            },
            {
              "internalType": "uint256",
              "name": "Urate",
              "type": "uint256"
            },
            {
              "internalType": "uint256",
              "name": "feeGrowthInside0LastX128",
              "type": "uint256"
            },
            {
              "internalType": "uint256",
              "name": "feeGrowthInside1LastX128",
              "type": "uint256"
            },
            {
              "internalType": "uint256",
              "name": "lastGrowth",
              "type": "uint256"
            }
          ],
          "internalType": "struct LiquidityLoan[]",
          "name": "borrowInfo",
          "type": "tuple[]"
        }
      ],
      "name": "isBorrowable",
      "outputs": [
        {
          "internalType": "bool",
          "name": "",
          "type": "bool"
        },
        {
          "components": [
            {
              "internalType": "int24",
              "name": "tick",
              "type": "int24"
            },
            {
              "internalType": "uint128",
              "name": "liquidity",
              "type": "uint128"
            },
            {
              "internalType": "uint256",
              "name": "premium",
              "type": "uint256"
            },
            {
              "internalType": "uint256",
              "name": "Urate",
              "type": "uint256"
            },
            {
              "internalType": "uint256",
              "name": "feeGrowthInside0LastX128",
              "type": "uint256"
            },
            {
              "internalType": "uint256",
              "name": "feeGrowthInside1LastX128",
              "type": "uint256"
            },
            {
              "internalType": "uint256",
              "name": "lastGrowth",
              "type": "uint256"
            }
          ],
          "internalType": "struct LiquidityLoan[]",
          "name": "",
          "type": "tuple[]"
        }
      ],
      "stateMutability": "view",
      "type": "function"
    },
    {
      "inputs": [],
      "name": "marginFacility",
      "outputs": [
        {
          "internalType": "address",
          "name": "",
          "type": "address"
        }
      ],
      "stateMutability": "view",
      "type": "function"
    },
    {
      "inputs": [
        {
          "components": [
            {
              "internalType": "address",
              "name": "token0",
              "type": "address"
            },
            {
              "internalType": "address",
              "name": "token1",
              "type": "address"
            },
            {
              "internalType": "uint24",
              "name": "fee",
              "type": "uint24"
            }
          ],
          "internalType": "struct PoolKey",
          "name": "key",
          "type": "tuple"
        },
        {
          "components": [
            {
              "internalType": "int24",
              "name": "tick",
              "type": "int24"
            },
            {
              "internalType": "uint128",
              "name": "liquidity",
              "type": "uint128"
            },
            {
              "internalType": "uint256",
              "name": "premium",
              "type": "uint256"
            },
            {
              "internalType": "uint256",
              "name": "Urate",
              "type": "uint256"
            },
            {
              "internalType": "uint256",
              "name": "feeGrowthInside0LastX128",
              "type": "uint256"
            },
            {
              "internalType": "uint256",
              "name": "feeGrowthInside1LastX128",
              "type": "uint256"
            },
            {
              "internalType": "uint256",
              "name": "lastGrowth",
              "type": "uint256"
            }
          ],
          "internalType": "struct LiquidityLoan[]",
          "name": "repayInfo",
          "type": "tuple[]"
        },
        {
          "internalType": "address",
          "name": "who",
          "type": "address"
        }
      ],
      "name": "mintToRepay",
      "outputs": [
        {
          "internalType": "uint256",
          "name": "totalAmount0",
          "type": "uint256"
        },
        {
          "internalType": "uint256",
          "name": "totalAmount1",
          "type": "uint256"
        }
      ],
      "stateMutability": "nonpayable",
      "type": "function"
    },
    {
      "inputs": [
        {
          "internalType": "bytes[]",
          "name": "data",
          "type": "bytes[]"
        }
      ],
      "name": "multicall",
      "outputs": [
        {
          "internalType": "bytes[]",
          "name": "results",
          "type": "bytes[]"
        }
      ],
      "stateMutability": "nonpayable",
      "type": "function"
    },
    {
      "inputs": [],
      "name": "orderFacility",
      "outputs": [
        {
          "internalType": "address",
          "name": "",
          "type": "address"
        }
      ],
      "stateMutability": "view",
      "type": "function"
    },
    {
      "inputs": [],
      "name": "owner",
      "outputs": [
        {
          "internalType": "address",
          "name": "",
          "type": "address"
        }
      ],
      "stateMutability": "view",
      "type": "function"
    },
    {
      "inputs": [
        {
          "components": [
            {
              "internalType": "address",
              "name": "token0",
              "type": "address"
            },
            {
              "internalType": "address",
              "name": "token1",
              "type": "address"
            },
            {
              "internalType": "uint24",
              "name": "fee",
              "type": "uint24"
            }
          ],
          "internalType": "struct PoolKey",
          "name": "key",
          "type": "tuple"
        },
        {
          "internalType": "address",
          "name": "pool",
          "type": "address"
        },
        {
          "components": [
            {
              "internalType": "int24",
              "name": "tick",
              "type": "int24"
            },
            {
              "internalType": "uint128",
              "name": "liquidity",
              "type": "uint128"
            },
            {
              "internalType": "uint256",
              "name": "premium",
              "type": "uint256"
            },
            {
              "internalType": "uint256",
              "name": "Urate",
              "type": "uint256"
            },
            {
              "internalType": "uint256",
              "name": "feeGrowthInside0LastX128",
              "type": "uint256"
            },
            {
              "internalType": "uint256",
              "name": "feeGrowthInside1LastX128",
              "type": "uint256"
            },
            {
              "internalType": "uint256",
              "name": "lastGrowth",
              "type": "uint256"
            }
          ],
          "internalType": "struct LiquidityLoan[]",
          "name": "borrowInfo",
          "type": "tuple[]"
        },
        {
          "internalType": "bool",
          "name": "positionIsToken0",
          "type": "bool"
        },
        {
          "internalType": "uint256",
          "name": "feePortion",
          "type": "uint256"
        },
        {
          "internalType": "uint256",
          "name": "premiumInBorrowedAsset",
          "type": "uint256"
        },
        {
          "internalType": "uint256",
          "name": "premiumInPairAsset",
          "type": "uint256"
        }
      ],
      "name": "payInterest",
      "outputs": [],
      "stateMutability": "nonpayable",
      "type": "function"
    },
    {
      "inputs": [
        {
          "components": [
            {
              "internalType": "address",
              "name": "token0",
              "type": "address"
            },
            {
              "internalType": "address",
              "name": "token1",
              "type": "address"
            },
            {
              "internalType": "uint24",
              "name": "fee",
              "type": "uint24"
            }
          ],
          "internalType": "struct PoolKey",
          "name": "key",
          "type": "tuple"
        },
        {
          "internalType": "int24",
          "name": "tickLower",
          "type": "int24"
        },
        {
          "internalType": "int24",
          "name": "tickUpper",
          "type": "int24"
        },
        {
          "internalType": "uint128",
          "name": "liquidity",
          "type": "uint128"
        },
        {
          "internalType": "address",
          "name": "recipient",
          "type": "address"
        },
        {
          "internalType": "address",
          "name": "payer",
          "type": "address"
        }
      ],
      "name": "provideDiscreteLiquidity",
      "outputs": [
        {
          "internalType": "uint256",
          "name": "totalAmount0",
          "type": "uint256"
        },
        {
          "internalType": "uint256",
          "name": "totalAmount1",
          "type": "uint256"
        }
      ],
      "stateMutability": "nonpayable",
      "type": "function"
    },
    {
      "inputs": [],
      "name": "reclaimer",
      "outputs": [
        {
          "internalType": "address",
          "name": "",
          "type": "address"
        }
      ],
      "stateMutability": "view",
      "type": "function"
    },
    {
      "inputs": [
        {
          "internalType": "address",
          "name": "mf",
          "type": "address"
        },
        {
          "internalType": "address",
          "name": "bf",
          "type": "address"
        },
        {
          "internalType": "address",
          "name": "of_",
          "type": "address"
        },
        {
          "internalType": "address",
          "name": "_uniswapFactory",
          "type": "address"
        }
      ],
      "name": "setFacilities",
      "outputs": [],
      "stateMutability": "nonpayable",
      "type": "function"
    },
    {
      "inputs": [
        {
          "internalType": "bytes32",
          "name": "",
          "type": "bytes32"
        }
      ],
      "name": "tickDiscretizations",
      "outputs": [
        {
          "internalType": "int24",
          "name": "",
          "type": "int24"
        }
      ],
      "stateMutability": "view",
      "type": "function"
    },
    {
      "inputs": [
        {
          "internalType": "uint256",
          "name": "amount0Owed",
          "type": "uint256"
        },
        {
          "internalType": "uint256",
          "name": "amount1Owed",
          "type": "uint256"
        },
        {
          "internalType": "bytes",
          "name": "data",
          "type": "bytes"
        }
      ],
      "name": "uniswapV3MintCallback",
      "outputs": [],
      "stateMutability": "nonpayable",
      "type": "function"
    },
    {
      "inputs": [
        {
          "components": [
            {
              "internalType": "address",
              "name": "token0",
              "type": "address"
            },
            {
              "internalType": "address",
              "name": "token1",
              "type": "address"
            },
            {
              "internalType": "uint24",
              "name": "fee",
              "type": "uint24"
            }
          ],
          "internalType": "struct PoolKey",
          "name": "key",
          "type": "tuple"
        },
        {
          "internalType": "int24",
          "name": "tickLower",
          "type": "int24"
        },
        {
          "internalType": "int24",
          "name": "tickUpper",
          "type": "int24"
        },
        {
          "internalType": "int24",
          "name": "tickDiscretization",
          "type": "int24"
        }
      ],
      "name": "updateCollectedFees",
      "outputs": [
        {
          "internalType": "uint256",
          "name": "",
          "type": "uint256"
        },
        {
          "internalType": "uint256",
          "name": "",
          "type": "uint256"
        }
      ],
      "stateMutability": "nonpayable",
      "type": "function"
    },
    {
      "inputs": [
        {
          "internalType": "address",
          "name": "pool",
          "type": "address"
        },
        {
          "components": [
            {
              "components": [
                {
                  "internalType": "uint256",
                  "name": "pivotRate",
                  "type": "uint256"
                },
                {
                  "internalType": "uint256",
                  "name": "slope1",
                  "type": "uint256"
                },
                {
                  "internalType": "uint256",
                  "name": "intercept1",
                  "type": "uint256"
                },
                {
                  "internalType": "uint256",
                  "name": "slope2",
                  "type": "uint256"
                },
                {
                  "internalType": "uint256",
                  "name": "intercept2",
                  "type": "uint256"
                }
              ],
              "internalType": "struct URateParam",
              "name": "uParam",
              "type": "tuple"
            },
            {
              "internalType": "uint256",
              "name": "maxURate",
              "type": "uint256"
            },
            {
              "internalType": "uint256",
              "name": "maxSearchRight",
              "type": "uint256"
            },
            {
              "internalType": "uint256",
              "name": "maxSearchLeft",
              "type": "uint256"
            },
            {
              "internalType": "uint16",
              "name": "poolId",
              "type": "uint16"
            },
            {
              "internalType": "uint256",
              "name": "MIN_PREMIUM_DEPOSIT",
              "type": "uint256"
            }
          ],
          "internalType": "struct PoolParam",
          "name": "param",
          "type": "tuple"
        }
      ],
      "name": "updatePoolParams",
      "outputs": [],
      "stateMutability": "nonpayable",
      "type": "function"
    },
    {
      "inputs": [
        {
          "components": [
            {
              "internalType": "address",
              "name": "token0",
              "type": "address"
            },
            {
              "internalType": "address",
              "name": "token1",
              "type": "address"
            },
            {
              "internalType": "uint24",
              "name": "fee",
              "type": "uint24"
            }
          ],
          "internalType": "struct PoolKey",
          "name": "key",
          "type": "tuple"
        },
        {
          "internalType": "int24",
          "name": "tick",
          "type": "int24"
        }
      ],
      "name": "updateUtilizationGrowth",
      "outputs": [
        {
          "components": [
            {
              "internalType": "uint256",
              "name": "growth",
              "type": "uint256"
            },
            {
              "internalType": "uint256",
              "name": "lastURate",
              "type": "uint256"
            },
            {
              "internalType": "uint256",
              "name": "lastUpdateTime",
              "type": "uint256"
            }
          ],
          "internalType": "struct UtilizationGrowth",
          "name": "",
          "type": "tuple"
        }
      ],
      "stateMutability": "nonpayable",
      "type": "function"
    },
    {
      "inputs": [
        {
          "components": [
            {
              "internalType": "address",
              "name": "token0",
              "type": "address"
            },
            {
              "internalType": "address",
              "name": "token1",
              "type": "address"
            },
            {
              "internalType": "uint24",
              "name": "fee",
              "type": "uint24"
            }
          ],
          "internalType": "struct PoolKey",
          "name": "key",
          "type": "tuple"
        },
        {
          "internalType": "int24",
          "name": "tickLower",
          "type": "int24"
        },
        {
          "internalType": "int24",
          "name": "tickUpper",
          "type": "int24"
        },
        {
          "internalType": "uint128",
          "name": "liquidity",
          "type": "uint128"
        }
      ],
      "name": "withdrawDiscreteLiquidity",
      "outputs": [
        {
          "internalType": "uint256",
          "name": "",
          "type": "uint256"
        },
        {
          "internalType": "uint256",
          "name": "",
          "type": "uint256"
        }
      ],
      "stateMutability": "nonpayable",
      "type": "function"
    },
    {
      "inputs": [
        {
          "components": [
            {
              "internalType": "address",
              "name": "token0",
              "type": "address"
            },
            {
              "internalType": "address",
              "name": "token1",
              "type": "address"
            },
            {
              "internalType": "uint24",
              "name": "fee",
              "type": "uint24"
            }
          ],
          "internalType": "struct PoolKey",
          "name": "key",
          "type": "tuple"
        },
        {
          "components": [
            {
              "internalType": "int24",
              "name": "tick",
              "type": "int24"
            },
            {
              "internalType": "uint128",
              "name": "liquidity",
              "type": "uint128"
            },
            {
              "internalType": "uint256",
              "name": "premium",
              "type": "uint256"
            },
            {
              "internalType": "uint256",
              "name": "Urate",
              "type": "uint256"
            },
            {
              "internalType": "uint256",
              "name": "feeGrowthInside0LastX128",
              "type": "uint256"
            },
            {
              "internalType": "uint256",
              "name": "feeGrowthInside1LastX128",
              "type": "uint256"
            },
            {
              "internalType": "uint256",
              "name": "lastGrowth",
              "type": "uint256"
            }
          ],
          "internalType": "struct LiquidityLoan[]",
          "name": "borrowInfo",
          "type": "tuple[]"
        }
      ],
      "name": "withdrawToBorrow",
      "outputs": [
        {
          "components": [
            {
              "internalType": "int24",
              "name": "tick",
              "type": "int24"
            },
            {
              "internalType": "uint128",
              "name": "liquidity",
              "type": "uint128"
            },
            {
              "internalType": "uint256",
              "name": "premium",
              "type": "uint256"
            },
            {
              "internalType": "uint256",
              "name": "Urate",
              "type": "uint256"
            },
            {
              "internalType": "uint256",
              "name": "feeGrowthInside0LastX128",
              "type": "uint256"
            },
            {
              "internalType": "uint256",
              "name": "feeGrowthInside1LastX128",
              "type": "uint256"
            },
            {
              "internalType": "uint256",
              "name": "lastGrowth",
              "type": "uint256"
            }
          ],
          "internalType": "struct LiquidityLoan[]",
          "name": "",
          "type": "tuple[]"
        },
        {
          "internalType": "uint256",
          "name": "totalAmount0",
          "type": "uint256"
        },
        {
          "internalType": "uint256",
          "name": "totalAmount1",
          "type": "uint256"
        }
      ],
      "stateMutability": "nonpayable",
      "type": "function"
    }
  ],
  "bytecode": "0x6080604052600b8054600161ffff199182168117909255600d8054909116909117905534801561002e57600080fd5b50600f80546001600160a01b0319163317905560026020527febaffbad3b7fced837389fa2c76ef17bd16e01452243bc801329ba9c392c939f805462ffffff19908116600a179091557f8f2d796c159bb2bb788bc3f1a337a929c07b0cf1d9277451fd5f909c263c02d680548216603c1790556127106000527f5e7cc46d63c0d79d92b677239084c61b6b019c2759734090f1970fc4b4823988805490911660c8179055615e6680620000e26000396000f3fe608060405234801561001057600080fd5b50600436106102485760003560e01c80638f88d5601161013b578063ac9650d8116100b8578063d41dcbea1161007c578063d41dcbea14610841578063d578395314610849578063d7d3ed6a14610876578063da69b0b314610889578063fe4f278a146108bd57600080fd5b8063ac9650d8146107ae578063b3a4016e146107ce578063c3419a7114610808578063c5161a601461081b578063d34879971461082e57600080fd5b8063a8404655116100ff578063a8404655146106f4578063a882c12d14610753578063aa966e5514610766578063abf978e414610788578063ac00b8091461079b57600080fd5b80638f88d5601461066e5780638fd74d4d14610681578063912a8e001461069457806395250923146106a75780639744a42d146106c957600080fd5b806345e61a4d116101c95780636fc280e11161018d5780636fc280e11461059e57806379378b41146105f35780637dc7306c146106065780637f8f1dda146106265780638da5cb5b1461065b57600080fd5b806345e61a4d146104055780635955cad31461049b5780635a42047a14610528578063626a451814610549578063651976881461057b57600080fd5b806319fa10331161021057806319fa10331461032657806319fda2771461035957806322afcccb146103a5578063273cbaa0146103dd5780634185a442146103f257600080fd5b80630229fb601461024d57806304ad52fc1461027a5780630ea50f501461029b5780631653fc7d146102bf5780631698ee82146102d4575b600080fd5b61026061025b366004614b2b565b6108d0565b604080519283526020830191909152015b60405180910390f35b61028d610288366004614bf5565b610c4b565b604051908152602001610271565b6102ae6102a9366004614c63565b610d7c565b604051610271959493929190614d39565b6102d26102cd366004614e82565b6112fb565b005b61030e6102e2366004614f12565b60036020908152600093845260408085208252928452828420905282529020546001600160a01b031681565b6040516001600160a01b039091168152602001610271565b610339610334366004614f50565b6116a9565b604080516001600160801b03938416815292909116602083015201610271565b61038d610367366004614f9a565b60066020908152600092835260408084209091529082529020546001600160801b031681565b6040516001600160801b039091168152602001610271565b6103ca6103b3366004614fca565b600260208190526000918252604090912054900b81565b60405160029190910b8152602001610271565b6103e5611bd6565b6040516102719190614fe5565b610260610400366004615032565b611ca6565b610489610413366004615083565b600e60209081526000918252604091829020825160a0810184528154815260018201549281019290925260028101549282019290925260038201546060820152600482015460808201526005820154600683015460078401546008850154600990950154939492939192909161ffff9091169086565b604051610271969594939291906150a0565b6104f26104a9366004615108565b60046020908152600092835260408084209091529082529020805460018201546002830154600390930154919290916001600160801b0380831692600160801b90048116911685565b6040805195865260208601949094526001600160801b03928316938501939093528116606084015216608082015260a001610271565b61053b61053636600461512a565b611d56565b604051610271929190615178565b610260610557366004615193565b60056020908152600092835260408084209091529082529020805460019091015482565b6103ca6105893660046151c1565b60006020819052908152604090205460020b81565b6105d86105ac366004615193565b601760209081526000928352604080842090915290825290208054600182015460029092015490919083565b60408051938452602084019290925290820152606001610271565b6102606106013660046151da565b611fe8565b61061961061436600461512a565b612386565b6040516102719190615231565b610639610634366004615244565b6124f8565b6040805182518152602080840151908201529181015190820152606001610271565b600f5461030e906001600160a01b031681565b6102d261067c36600461530e565b612716565b60125461030e906001600160a01b031681565b61038d6106a2366004615244565b612c3c565b6106ba6106b536600461538c565b612ca9565b604051610271939291906153a8565b61028d6106d7366004615441565b600760209081526000928352604080842090915290825290205481565b61070761070236600461546c565b612e59565b604080518251815260208084015190820152828201516001600160801b03908116928201929092526060808401518316908201526080928301519091169181019190915260a001610271565b60105461030e906001600160a01b031681565b61077961077436600461512a565b612f7d565b604051610271939291906154bc565b6102606107963660046154e1565b61318a565b6102d26107a9366004615531565b613716565b6107c16107bc366004615582565b6137a6565b6040516102719190615646565b6107e16107dc3660046156a8565b613893565b6040805182516001600160801b039081168252602093840151169281019290925201610271565b60115461030e906001600160a01b031681565b60135461030e906001600160a01b031681565b6102d261083c3660046156c4565b613914565b6103e5613aef565b61085c610857366004615743565b613bb8565b6040805160029390930b8352901515602083015201610271565b6102606108843660046157b3565b613c6f565b61038d610897366004614f9a565b60016020908152600092835260408084209091529082529020546001600160801b031681565b6102d26108cb366004615835565b6140af565b6040805160e081018252600080825260208201819052918101829052606081018290526080810182905260a0810182905260c08101829052819086516001600160a01b039081166000908152600360209081526040808320828c01805186168552908352818420828d01805162ffffff1686529084528285205490951660c08701528b519051945191519394600494869461096c94910161586c565b60405160208183030381529060405280519060200120815260200190815260200160002060008888336040516020016109a793929190615894565b60408051601f198184030181529181528151602092830120835290820192909252810160002060c08401519151639887b58960e01b81526001600160a01b039092166004830152600289810b602484015288900b6044830152915073__$d23a8dd93b7205fa6b646ffed38c165d68$__90639887b589906064016040805180830381865af4158015610a3d573d6000803e3d6000fd5b505050506040513d601f19601f82011682018060405250810190610a6191906158ba565b6020840152825260c0820151610a7990888888611ca6565b60608401526040830181905282518390610a949083906158f4565b9052506060820151602083018051610aad9083906158f4565b90525087516020808a01516040808c01519051600094610ad194909392910161586c565b60408051601f198184030181529190528051602090910120835190915015610b0a57600183600001818151610b069190615907565b9052505b602083015115610b2b57600183602001818151610b279190615907565b9052505b815483516002840154610b4f92909103906001600160801b0316600160801b614182565b6001600160801b039081166080850152600183015460208501516002850154610b8293929091039116600160801b614182565b6001600160801b0390811660a0850152608084015116151580610bb2575060008360a001516001600160801b0316115b15610c105760808301516002830180546001600160801b03600160801b8083048216909401811690930290831617905560a08401516003840180548084169092019092166fffffffffffffffffffffffffffffffff19919091161790555b5081518155602090910151600182015560028101546003909101546001600160801b03600160801b9092048216935016905094509492505050565b6001600160a01b0383166000908152601760209081526040808320600286810b8552908352818420825160608101845281548082526001830154958201959095529101549181019190915290610d7190610cad90670de0b6b3a76400006158f4565b670de0b6b3a7640000610d6a846040015142610cc99190615907565b60208601516040516317b474bf60e01b8152670de0b6b3a76400009173__$eacbb88ed4bd2af84aa4d43bcf675bcf7e$__916317b474bf91610d10918d919060040161591a565b602060405180830381865af4158015610d2d573d6000803e3d6000fd5b505050506040513d601f19601f82011682018060405250810190610d519190615960565b610d6390670de0b6b3a76400006158f4565b9190614260565b9190614182565b9150505b9392505050565b6010546000908190819081906060906001600160a01b0316331480610dab57506011546001600160a01b031633145b610dd05760405162461bcd60e51b8152600401610dc790615979565b60405180910390fd5b610dd861493a565b610de560208c018c615083565b610df560408d0160208e01615083565b610e0560608e0160408f01614fca565b604051602001610e179392919061586c565b60408051601f19818403018152918152815160209092019190912090820152610e4d670de0b6b3a76400008b610d6a8c826158f4565b815260036000610e6060208e018e615083565b6001600160a01b03166001600160a01b0316815260200190815260200160002060008c6020016020810190610e959190615083565b6001600160a01b03166001600160a01b0316815260200190815260200160002060008c6040016020810190610eca9190614fca565b62ffffff16815260208082019290925260409081016000908120546001600160a01b0390811661012080870191825286850151845283865284842054600290810b60e0808a0191909152835185168652600e885294869020865161016081018852815460c08201908152600183015482890152928201546101008281019190915260038301549482019490945260048083015461014083015292815260058201549881019890985260068101548888015260078101546060890152600881015461ffff1660808901526009015460a088015290870195909552518351633850c7bd60e01b81529351911693633850c7bd93808201939291908290030181865afa158015610fdb573d6000803e3d6000fd5b505050506040513d601f19601f82011682018060405250810190610fff9190615998565b505050506001600160a01b0392909216602084018190528351604051630c7b626960e11b81528c1515600482015260248101919091526044810191909152606481018a905273__$93dfed57e8f421caed97f24c336a056d51$__92506318f6c4d29150608401602060405180830381865af4158015611082573d6000803e3d6000fd5b505050506040513d601f19601f820116820180604052508101906110a69190615a3a565b9550876110cb57856001600160a01b031681602001516001600160a01b0316106110e5565b856001600160a01b031681602001516001600160a01b0316115b6111275760405162461bcd60e51b8152602060048201526013602482015272696e6665617369626c6520736c69707061676560681b6044820152606401610dc7565b604080516101008101825282820151815289151560208083019182526001600160a01b03808b1684860190815291860151811660608501908152608085018f8152600160a08701908152600360c08801908152670de0b6b3a764000060e089019081529851631967f40b60e11b81526007600482015297516024890152955115156044880152935183166064870152905190911660848501525160a48401525160c48301525160e4820152905161010482015273__$93dfed57e8f421caed97f24c336a056d51$__906332cfe8169061012401600060405180830381865af4158015611217573d6000803e3d6000fd5b505050506040513d6000823e601f3d908101601f1916820160405261123f9190810190615a57565b608084019190915260608301829052925089146112885760405162461bcd60e51b815260206004820152600760248201526608585b5bdd5b9d60ca1b6044820152606401610dc7565b6112a28b8261012001518484604001518560e0015161431e565b9095509350876112ce57606081015160808201516112c991670de0b6b3a764000090614182565b6112eb565b608081015160608201516112eb91670de0b6b3a764000090614182565b9250509550955095509550959050565b6010546001600160a01b031633148061131e57506011546001600160a01b031633145b61133a5760405162461bcd60e51b8152600401610dc790615979565b60006113496020890189615083565b61135960408a0160208b01615083565b61136960608b0160408c01614fca565b60405160200161137b9392919061586c565b604051602081830303815290604052805190602001209050841561143457600081815260166020526040902080548491906010906113ca908490600160801b90046001600160801b0316615b63565b82546101009290920a6001600160801b0381810219909316918316021790915560008381526016602052604081208054869450909261140b91859116615b63565b92506101000a8154816001600160801b0302191690836001600160801b031602179055506114dc565b6000818152601660205260408120805485929061145b9084906001600160801b0316615b63565b92506101000a8154816001600160801b0302191690836001600160801b03160217905550816016600083815260200190815260200160002060000160108282829054906101000a90046001600160801b03166114b79190615b63565b92506101000a8154816001600160801b0302191690836001600160801b031602179055505b6000806000808951886114ef9190615b99565b905060005b8a5181101561169a576001600087815260200190815260200160002060008c838151811061152457611524615bad565b60200260200101516000015160020b60020b815260200190815260200160002060009054906101000a90046001600160801b03169350600560008d6001600160a01b03166001600160a01b0316815260200190815260200160002060008c838151811061159357611593615bad565b60200260200101516000015160020b60020b815260200190815260200160002094506115f5828c83815181106115cb576115cb615bad565b6020026020010151604001516115e191906158f4565b600160801b866001600160801b0316614182565b9250891561161c578285600101600082825461161191906158f4565b909155506116369050565b8285600001600082825461163091906158f4565b90915550505b6001600160a01b038c1660009081526005602052604081208c519091908d908490811061166557611665615bad565b60200260200101516000015160020b60020b81526020019081526020016000209450808061169290615bc3565b9150506114f4565b50505050505050505050505050565b60008060008560000151866020015187604001516040516020016116cf9392919061586c565b60408051601f1981840301815291815281516020928301206000818152928390529082205490925060020b908190036117325760405162461bcd60e51b8152602060048201526005602482015264085c1bdbdb60da1b6044820152606401610dc7565b8460020b8660020b126117575760405162461bcd60e51b8152600401610dc790615bdc565b86516001600160a01b039081166000908152600360209081526040808320828c0151851684528252808320818c015162ffffff168452825280832054868452600483528184209151941693909183916117b6918c918c91339101615894565b60408051601f1981840301815291815281516020928301208352828201939093529082016000908120878252601690925291909120909150885b8860020b8160020b12156119ba576001600160a01b03841663a34123a7826118188882615bf7565b6040516001600160e01b031960e085901b168152600292830b6004820152910b60248201526000604482015260640160408051808303816000875af1158015611865573d6000803e3d6000fd5b505050506040513d601f19601f8201168201806040525081019061188991906158ba565b5060009050806001600160a01b038616634f1eb3d830856118aa8b82615bf7565b6001600160801b03806040518663ffffffff1660e01b81526004016118d3959493929190615c1c565b60408051808303816000875af11580156118f1573d6000803e3d6000fd5b505050506040513d601f19601f820116820180604052508101906119159190615c59565b85549193509150829085906000906119379084906001600160801b0316615b63565b92506101000a8154816001600160801b0302191690836001600160801b03160217905550808460000160108282829054906101000a90046001600160801b03166119819190615b63565b92506101000a8154816001600160801b0302191690836001600160801b03160217905550505084816119b39190615bf7565b90506117f0565b6002830154600160801b90046001600160801b031615611a3657815460028401546001600160801b03918216600160801b90910490911611611a10576002830154600160801b90046001600160801b0316611a1c565b81546001600160801b03165b9750611a368b60000151338a6001600160801b0316614687565b60038301546001600160801b031615611aa957815460038401546001600160801b03600160801b9092048216911611611a7c5760038301546001600160801b0316611a8f565b8154600160801b90046001600160801b03165b9650611aa98b6020015133896001600160801b0316614687565b815488908390600090611ac69084906001600160801b0316615c88565b92506101000a8154816001600160801b0302191690836001600160801b03160217905550868260000160108282829054906101000a90046001600160801b0316611b109190615c88565b92506101000a8154816001600160801b0302191690836001600160801b03160217905550878360020160108282829054906101000a90046001600160801b0316611b5a9190615c88565b92506101000a8154816001600160801b0302191690836001600160801b03160217905550868360030160008282829054906101000a90046001600160801b0316611ba49190615c88565b92506101000a8154816001600160801b0302191690836001600160801b03160217905550505050505050935093915050565b600b54606090600090611bef9060019061ffff16615ca8565b61ffff1690506000816001600160401b03811115611c0f57611c0f614a0c565b604051908082528060200260200182016040528015611c38578160200160208202803683370190505b50905060005b82811015611c9f576000818152600a602052604090205482516001600160a01b0390911690839083908110611c7557611c75615bad565b6001600160a01b039092166020928302919091019091015280611c9781615bc3565b915050611c3e565b5092915050565b6000806000859050611ccb604051806040016040528060008152602001600081525090565b8560020b8260020b1215611d4b57506001600160a01b0387166000908152600560209081526040808320600285900b84528252918290208251808401909352805480845260019091015491830191909152611d2690856158f4565b9350806020015183611d3891906158f4565b9250611d448583615bf7565b9150611ccb565b505094509492505050565b600060606000835111611d985760405162461bcd60e51b815260206004820152600a602482015269656d70747920696e666f60b01b6044820152606401610dc7565b60008080611da96020880188615083565b611db96040890160208a01615083565b611dc960608a0160408b01614fca565b604051602001611ddb9392919061586c565b60408051601f1981840301815291815281516020928301206000818152928390529082205490925060020b905b8751811015611fd45781888281518110611e2457611e24615bad565b602002602001015160000151611e3a9190615cc3565b60020b15611e785760405162461bcd60e51b815260206004820152600b60248201526a696e76616c69645469636b60a81b6044820152606401610dc7565b600160008481526020019081526020016000206000898381518110611e9f57611e9f615bad565b6020908102919091018101515160020b82528101919091526040016000908120546001600160801b03169550859003611ee357600088965096505050505050611fe1565b600660008481526020019081526020016000206000898381518110611f0a57611f0a615bad565b6020908102919091018101515160020b8252810191909152604001600020546001600160801b039081169450611f4d908590670de0b6b3a7640000908816614182565b888281518110611f5f57611f5f615bad565b60200260200101516060018181525050878181518110611f8157611f81615bad565b60200260200101516020015184611f989190615b63565b6001600160801b0316856001600160801b03161015611fc257600088965096505050505050611fe1565b80611fcc81615bc3565b915050611e08565b5060018795509550505050505b9250929050565b60105460009081906001600160a01b031633148061201057506011546001600160a01b031633145b8061202557506012546001600160a01b031633145b8061203a57506013546001600160a01b031633145b6120565760405162461bcd60e51b8152600401610dc790615979565b6040805160808101825260008082526020820181905291810182905260608101919091526003600061208b6020890189615083565b6001600160a01b03166001600160a01b0316815260200190815260200160002060008760200160208101906120c09190615083565b6001600160a01b03166001600160a01b0316815260200190815260200160002060008760400160208101906120f59190614fca565b62ffffff168152602080820192909252604001600020546001600160a01b0316606083015261212690870187615083565b6121366040880160208901615083565b6121466060890160408a01614fca565b6040516020016121589392919061586c565b60408051601f19818403018152918152815160209283012080845260009081528083529081205460020b918301919091525b855181101561237c578581815181106121a5576121a5615bad565b602002602001015160200151600660008460000151815260200190815260200160002060008884815181106121dc576121dc615bad565b6020908102919091018101515160020b8252810191909152604001600090812080549091906122159084906001600160801b0316615c88565b92506101000a8154816001600160801b0302191690836001600160801b0316021790555060008083606001516001600160a01b0316633c8a7d8d308a868151811061226257612262615bad565b60200260200101516000015187602001518c888151811061228557612285615bad565b60200260200101516000015161229b9190615bf7565b8c88815181106122ad576122ad615bad565b6020026020010151602001518c6040516020016122d991906001600160a01b0391909116815260200190565b6040516020818303038152906040526040518663ffffffff1660e01b8152600401612308959493929190615ce5565b60408051808303816000875af1158015612326573d6000803e3d6000fd5b505050506040513d601f19601f8201168201806040525081019061234a91906158ba565b909250905061235982876158f4565b955061236581866158f4565b94505050808061237490615bc3565b91505061218a565b5050935093915050565b606060006123976020850185615083565b6123a76040860160208701615083565b6123b76060870160408801614fca565b6040516020016123c99392919061586c565b60405160208183030381529060405280519060200120905060008060005b85518110156124ea5760016000858152602001908152602001600020600087838151811061241757612417615bad565b60200260200101516000015160020b60020b815260200190815260200160002060009054906101000a90046001600160801b0316925060066000858152602001908152602001600020600087838151811061247457612474615bad565b6020908102919091018101515160020b8252810191909152604001600020546001600160801b0390811692506124b7908390670de0b6b3a7640000908616614182565b8682815181106124c9576124c9615bad565b602090810291909101015160600152806124e281615bc3565b9150506123e7565b508493505050505b92915050565b61251c60405180606001604052806000815260200160008152602001600081525090565b600083600001518460200151856040015160405160200161253f9392919061586c565b60408051601f19818403018152828252805160209182012087516001600160a01b03908116600090815260038085528582208b8601518416835285528582208b87015162ffffff1683528552858220549092168082526017855285822060028b810b808552918752878420838552600e885288852060a08b018a5280548b526001818101548c8b0152928101548b8b01529586015460608b015260049095015460808a015285845286528683208184528652868320548584526006875287842091845295529490205481549296509394909390926001600160801b0390811692911690670de0b6b3a76400009061269d9061263a90836158f4565b670de0b6b3a7640000610d6a8860020154426126569190615907565b60018a01546040516317b474bf60e01b8152670de0b6b3a76400009173__$eacbb88ed4bd2af84aa4d43bcf675bcf7e$__916317b474bf91610d10918e919060040161591a565b6126a79190615907565b84556001600160801b038116156126dd576126d86001600160801b0382811690670de0b6b3a7640000908516614182565b6126e0565b60005b60018501819055426002860181905560408051606081018252965487526020870192909252908501525091979650505050505050565b600080856001600160a01b0316876001600160a01b03161061273957858761273c565b86865b91509150856001600160a01b0316876001600160a01b03160361275e57600080fd5b6001600160a01b03821661277157600080fd5b6001600160a01b0382811660009081526003602090815260408083208585168452825280832062ffffff8a16845290915290205416156127b057600080fd5b6001600160a01b0381811660009081526003602090815260408083208685168452825280832062ffffff8a16845290915290205416156127ef57600080fd5b6000808383886040516020016128079392919061586c565b60408051601f198184030181529181528151602092830120835290820192909252016000205460020b1561283a57600080fd5b60008460020b1361284a57600080fd5b6000600260008762ffffff1662ffffff16815260200190815260200160002060009054906101000a900460020b90508860036000856001600160a01b03166001600160a01b031681526020019081526020016000206000846001600160a01b03166001600160a01b0316815260200190815260200160002060008862ffffff1662ffffff16815260200190815260200160002060006101000a8154816001600160a01b0302191690836001600160a01b031602179055508860036000846001600160a01b03166001600160a01b031681526020019081526020016000206000856001600160a01b03166001600160a01b0316815260200190815260200160002060008862ffffff1662ffffff16815260200190815260200160002060006101000a8154816001600160a01b0302191690836001600160a01b031602179055508460008085858a6040516020016129a29392919061586c565b60408051808303601f1901815291815281516020928301208352828201939093529082016000908120805462ffffff191662ffffff95909516949094179093556001600160a01b038c16808452600e8252828420885180518255808401516001830155808501516002830155606080820151600384015560809182015160048401558a85015160058401558a86015160068401558a0151600783015589015160088201805461ffff191661ffff92831617905560a08a0151600990920191909155600d805482168652600c90935292842080546001600160a01b0319169091179055805490911691612a9383615d27565b825461ffff9182166101009390930a9283029190920219909116179055506001600160a01b03831660009081526009602052604090205460ff16612b4557600b805461ffff9081166000908152600a6020908152604080832080546001600160a01b0319166001600160a01b038a16908117909155855490845260089092528220908316905582549091169190612b2983615d27565b91906101000a81548161ffff021916908361ffff160217905550505b6001600160a01b03821660009081526009602052604090205460ff16612bd957600b805461ffff9081166000908152600a6020908152604080832080546001600160a01b0319166001600160a01b038916908117909155855490845260089092528220908316905582549091169190612bbd83615d27565b91906101000a81548161ffff021916908361ffff160217905550505b601054604051633eb4adab60e01b81526001600160a01b038581166004830152848116602483015290911690633eb4adab90604401600060405180830381600087803b158015612c2857600080fd5b505af115801561169a573d6000803e3d6000fd5b600060016000846000015185602001518660400151604051602001612c639392919061586c565b60408051601f1981840301815291815281516020928301208352828201939093529082016000908120600286900b825290915220546001600160801b0316905092915050565b600080612cb46149a2565b60036000612cc56020870187615083565b6001600160a01b03166001600160a01b031681526020019081526020016000206000856020016020810190612cfa9190615083565b6001600160a01b03166001600160a01b031681526020019081526020016000206000856040016020810190612d2f9190614fca565b62ffffff1681526020808201929092526040016000908120546001600160a01b03169450908190612d6290870187615083565b612d726040880160208901615083565b612d826060890160408a01614fca565b604051602001612d949392919061586c565b60408051601f1981840301815291815281516020928301208352828201939093529082016000908120546001600160a01b0387168252600e835290839020835161016081018552815460c08201908152600183015460e08301526002838101546101008401526003840154610120840152600484015461014084015290825260058301549482019490945260068201549481019490945260078101546060850152600881015461ffff1660808501526009015460a0840152949694900b945092915050565b6040805160a08101825260008082526020820181905291810182905260608101829052608081019190915260046000612e956020880188615083565b612ea56040890160208a01615083565b612eb560608a0160408b01614fca565b604051602001612ec79392919061586c565b6040516020818303038152906040528051906020012081526020019081526020016000206000858585604051602001612f0293929190615894565b60408051601f198184030181529181528151602092830120835282820193909352908201600020825160a0810184528154815260018201549281019290925260028101546001600160801b0380821694840194909452600160801b90048316606083015260030154909116608082015290505b949350505050565b60105460609060009081906001600160a01b0316331480612fa857506011546001600160a01b031633145b80612fbd57506012546001600160a01b031633145b612fd95760405162461bcd60e51b8152600401610dc790615979565b6040805160c081018252600080825260208201819052918101829052606081018290526080810182905260a08101919091526003600061301c6020890189615083565b6001600160a01b03166001600160a01b0316815260200190815260200160002060008760200160208101906130519190615083565b6001600160a01b03166001600160a01b0316815260200190815260200160002060008760400160208101906130869190614fca565b62ffffff168152602080820192909252604001600020546001600160a01b031660a08301526130b790870187615083565b6130c76040880160208901615083565b6130d76060890160408a01614fca565b6040516020016130e99392919061586c565b60408051601f1981840301815291815281516020928301206080840181905260009081529182905290205460020b81526131238686611d56565b901515602083018190529095506131655760405162461bcd60e51b8152600401610dc790602080825260049082015263216c697160e01b604082015260600190565b61317e868260a00151878460800151856000015161431e565b95979096509350505050565b6000806131c26040518060a0016040528060008152602001600081526020016000815260200160008152602001600080191681525090565b6131cf6020880188615083565b6131df6040890160208a01615083565b6131ef60608a0160408b01614fca565b6040516020016132019392919061586c565b60408051601f1981840301815291815281516020928301206080840181905260009081529182905281205460020b9087908290036132695760405162461bcd60e51b8152602060048201526005602482015264085c1bdbdb60da1b6044820152606401610dc7565b8660020b8860020b1261328e5760405162461bcd60e51b8152600401610dc790615bdc565b60006003816132a060208d018d615083565b6001600160a01b03166001600160a01b0316815260200190815260200160002060008b60200160208101906132d59190615083565b6001600160a01b03166001600160a01b0316815260200190815260200160002060008b604001602081019061330a9190614fca565b62ffffff1681526020810191909152604001600020546001600160a01b031690505b8760020b8260020b12156135f4576080840180516000908152600660209081526040808320600287900b8085529083528184205494518452600183528184209084529091529020546001600160801b039182169161338c918a9116615c88565b6001600160801b031610156133cf5760405162461bcd60e51b815260206004820152600960248201526821776974686472617760b81b6044820152606401610dc7565b6001600160a01b03811663a34123a7836133e98682615bf7565b6040516001600160e01b031960e085901b168152600292830b6004820152910b60248201526001600160801b038a16604482015260640160408051808303816000875af115801561343e573d6000803e3d6000fd5b505050506040513d601f19601f8201168201806040525081019061346291906158ba565b602086015284526001600160a01b038116634f1eb3d830846134848782615bf7565b885160208a01516040516001600160e01b031960e088901b1681526134b0959493929190600401615c1c565b60408051808303816000875af11580156134ce573d6000803e3d6000fd5b505050506040513d601f19601f820116820180604052508101906134f29190615c59565b505083516040850180516135079083906158f4565b90525060208401516060850180516135209083906158f4565b90525060808401516000908152600160209081526040808320600286900b84529091528120805489929061355e9084906001600160801b0316615c88565b82546101009290920a6001600160801b0381810219909316918316021790915560808601516000908152600160209081526040808320600288900b8452909152812054909116900390506135ca57608084015160009081526007602052604090206135ca908385614787565b6135e26135dc368c90038c018c6156a8565b836124f8565b506135ed8383615bf7565b915061332c565b61360e613606368c90038c018c6156a8565b8a8a866108d0565b505086600460008660800151815260200190815260200160002060008b8b3360405160200161363f93929190615894565b60405160208183030381529060405280519060200120815260200190815260200160002060020160008282829054906101000a90046001600160801b03166136879190615c88565b92506101000a8154816001600160801b0302191690836001600160801b031602179055506000846040015111156136d3576136d36136c860208c018c615083565b338660400151614687565b6060840151156136fb576136fb6136f060408c0160208d01615083565b338660600151614687565b83604001518460600151955095505050505094509492505050565b600f546001600160a01b031633146137595760405162461bcd60e51b815260206004820152600660248201526510b7bbb732b960d11b6044820152606401610dc7565b601480546001600160a01b03199081166001600160a01b03938416179091556010805482169583169590951790945560118054851693821693909317909255601280549093169116179055565b6060816001600160401b038111156137c0576137c0614a0c565b6040519080825280602002602001820160405280156137f357816020015b60608152602001906001900390816137de5790505b50905060005b82811015611c9f576138633085858481811061381757613817615bad565b90506020028101906138299190615d48565b8080601f01602080910402602001604051908101604052809392919081815260200183838082843760009201919091525061480492505050565b82828151811061387557613875615bad565b6020026020010181905250808061388b90615bc3565b9150506137f9565b6040805180820182526000808252602080830182905284518582015186860151955194956016956138c4940161586c565b60408051601f1981840301815291815281516020928301208352828201939093529082016000208251808401909352546001600160801b038082168452600160801b909104169082015292915050565b600061392282840184615083565b9050600080336001600160a01b0316630dfe16816040518163ffffffff1660e01b8152600401602060405180830381865afa158015613965573d6000803e3d6000fd5b505050506040513d601f19601f820116820180604052508101906139899190615a3a565b336001600160a01b031663d21220a76040518163ffffffff1660e01b8152600401602060405180830381865afa1580156139c7573d6000803e3d6000fd5b505050506040513d601f19601f820116820180604052508101906139eb9190615a3a565b6040516323b872dd60e01b81526001600160a01b038681166004830152336024830152604482018b9052929450909250908316906323b872dd906064016020604051808303816000875af1158015613a47573d6000803e3d6000fd5b505050506040513d601f19601f82011682018060405250810190613a6b9190615d8e565b506040516323b872dd60e01b81526001600160a01b038481166004830152336024830152604482018890528216906323b872dd906064016020604051808303816000875af1158015613ac1573d6000803e3d6000fd5b505050506040513d601f19601f82011682018060405250810190613ae59190615d8e565b5050505050505050565b600d54606090600090613b089060019061ffff16615ca8565b61ffff1690506000816001600160401b03811115613b2857613b28614a0c565b604051908082528060200260200182016040528015613b51578160200160208202803683370190505b50905060005b82811015611c9f576000818152600c602052604090205482516001600160a01b0390911690839083908110613b8e57613b8e615bad565b6001600160a01b039092166020928302919091019091015280613bb081615bc3565b915050613b57565b604051637058199160e01b815260076004820152600286810b602483015285810b604483015284900b6064820152821515608482015260a4810187905260c48101829052600090819073__$93dfed57e8f421caed97f24c336a056d51$__9063705819919060e4016040805180830381865af4158015613c3c573d6000803e3d6000fd5b505050506040513d601f19601f82011682018060405250810190613c609190615dab565b91509150965096945050505050565b60008080613c8060208a018a615083565b613c9060408b0160208c01615083565b613ca060608c0160408d01614fca565b604051602001613cb29392919061586c565b60408051601f1981840301815291815281516020928301206000818152928390529082205490925060020b90819003613d125760405162461bcd60e51b8152602060048201526002602482015261021760f41b6044820152606401610dc7565b8760020b8960020b12613d375760405162461bcd60e51b8152600401610dc790615bdc565b6000876001600160801b031611613d605760405162461bcd60e51b8152600401610dc790615bdc565b613d6a818a615cc3565b60020b158015613d845750613d7f8189615cc3565b60020b155b613da05760405162461bcd60e51b8152600401610dc790615bdc565b6000600381613db260208e018e615083565b6001600160a01b03166001600160a01b0316815260200190815260200160002060008c6020016020810190613de79190615083565b6001600160a01b03166001600160a01b0316815260200190815260200160002060008c6040016020810190613e1c9190614fca565b62ffffff1681526020810191909152604001600020546001600160a01b03169050895b8960020b8160020b1215613fed576000806001600160a01b038416633c8a7d8d3085613e6b8982615bf7565b8f8e604051602001613e8c91906001600160a01b0391909116815260200190565b6040516020818303038152906040526040518663ffffffff1660e01b8152600401613ebb959493929190615ce5565b60408051808303816000875af1158015613ed9573d6000803e3d6000fd5b505050506040513d601f19601f82011682018060405250810190613efd91906158ba565b9092509050613f0c82896158f4565b9750613f1881886158f4565b6000878152600160209081526040808320600288900b84529091528120549198506001600160801b039091169003613f63576000868152600760205260409020613f63908487614787565b6000868152600160209081526040808320600287900b8452909152812080548d9290613f999084906001600160801b0316615b63565b92506101000a8154816001600160801b0302191690836001600160801b03160217905550613fd78e803603810190613fd191906156a8565b846124f8565b5050508281613fe69190615bf7565b9050613e3f565b614007613fff368e90038e018e6156a8565b8c8c866108d0565b5050886004600086815260200190815260200160002060008d8d8c60405160200161403493929190615894565b60405160208183030381529060405280519060200120815260200190815260200160002060020160008282829054906101000a90046001600160801b031661407c9190615b63565b92506101000a8154816001600160801b0302191690836001600160801b0316021790555050505050965096945050505050565b600f546001600160a01b031633146140f25760405162461bcd60e51b815260206004820152600660248201526510b7bbb732b960d11b6044820152606401610dc7565b6001600160a01b03919091166000908152600e6020908152604091829020835180518255808301516001830155808401516002830155606080820151600384015560809182015160048401559285015160058301559284015160068201559083015160078201559082015160088201805461ffff191661ffff90921691909117905560a090910151600990910155565b60008080600019858709858702925082811083820303915050806000036141bb57600084116141b057600080fd5b508290049050610d75565b8084116141f35760405162461bcd60e51b815260206004820152600660248201526536bab62234bb60d11b6044820152606401610dc7565b6000848688096000868103871696879004966002600389028118808a02820302808a02820302808a02820302808a02820302808a02820302808a02909103029181900381900460010186841190950394909402919094039290920491909117919091029150509392505050565b60008380156143005760018416801561427b5785925061427f565b8392505b508260011c8460011c94505b84156142fa578560801c1561429f57600080fd5b858602818101818110156142b257600080fd5b85900496505060018516156142ef5785830283878204146142d85786156142d857600080fd5b818101818110156142e857600080fd5b8590049350505b8460011c945061428b565b50614316565b8380156143105760009250614314565b8392505b505b509392505050565b60008060005b85518110156145e95785818151811061433f5761433f615bad565b60200260200101516020015160066000878152602001908152602001600020600088848151811061437257614372615bad565b6020908102919091018101515160020b8252810191909152604001600090812080549091906143ab9084906001600160801b0316615b63565b92506101000a8154816001600160801b0302191690836001600160801b03160217905550600080886001600160a01b031663a34123a78985815181106143f3576143f3615bad565b602002602001015160000151888b878151811061441257614412615bad565b6020026020010151600001516144289190615bf7565b8b878151811061443a5761443a615bad565b60209081029190910181015101516040516001600160e01b031960e086901b168152600293840b60048201529190920b60248201526001600160801b03909116604482015260640160408051808303816000875af11580156144a0573d6000803e3d6000fd5b505050506040513d601f19601f820116820180604052508101906144c491906158ba565b91509150886001600160a01b0316634f1eb3d8308a86815181106144ea576144ea615bad565b602002602001015160000151898c888151811061450957614509615bad565b60200260200101516000015161451f9190615bf7565b86866040518663ffffffff1660e01b8152600401614541959493929190615c1c565b60408051808303816000875af115801561455f573d6000803e3d6000fd5b505050506040513d601f19601f820116820180604052508101906145839190615c59565b50614590905082866158f4565b945061459c81856158f4565b93506145d36145b0368c90038c018c6156a8565b8985815181106145c2576145c2615bad565b6020026020010151600001516124f8565b50505080806145e190615bc3565b915050614324565b506000821180156145f8575080155b8061460c57508115801561460c5750600081115b6146405760405162461bcd60e51b8152602060048201526005602482015264217469636b60d81b6044820152606401610dc7565b811561465d5761465d6146566020890189615083565b3384614687565b801561467d5761467d6146766040890160208a01615083565b3383614687565b9550959350505050565b604080516001600160a01b038481166024830152604480830185905283518084039091018152606490920183526020820180516001600160e01b031663a9059cbb60e01b17905291516000928392908716916146e39190615dda565b6000604051808303816000865af19150503d8060008114614720576040519150601f19603f3d011682016040523d82523d6000602084013e614725565b606091505b509150915081801561474f57508051158061474f57508080602001905181019061474f9190615d8e565b6147805760405162461bcd60e51b815260206004820152600260248201526114d560f21b6044820152606401610dc7565b5050505050565b8060020b8260020b8161479c5761479c615b83565b0760020b156147aa57600080fd5b6000806147d88360020b8560020b816147c5576147c5615b83565b0560020b600881901d9161010090910790565b600191820b60009081526020979097526040909620805460ff9097169190911b90951890945550505050565b6060610d758383604051806060016040528060278152602001615e0a602791396060600080856001600160a01b0316856040516148419190615dda565b600060405180830381855af49150503d806000811461487c576040519150601f19603f3d011682016040523d82523d6000602084013e614881565b606091505b50915091506148928683838761489c565b9695505050505050565b6060831561490b578251600003614904576001600160a01b0385163b6149045760405162461bcd60e51b815260206004820152601d60248201527f416464726573733a2063616c6c20746f206e6f6e2d636f6e74726163740000006044820152606401610dc7565b5081612f75565b612f7583838151156149205781518083602001fd5b8060405162461bcd60e51b8152600401610dc79190615df6565b6040518061014001604052806000815260200160006001600160a01b031681526020016000801916815260200160008152602001600081526020016000815260200160008152602001600060020b81526020016149956149a2565b8152600060209091015290565b6040518060c001604052806149df6040518060a0016040528060008152602001600081526020016000815260200160008152602001600081525090565b8152602001600081526020016000815260200160008152602001600061ffff168152602001600081525090565b634e487b7160e01b600052604160045260246000fd5b60405160e081016001600160401b0381118282101715614a4457614a44614a0c565b60405290565b604051601f8201601f191681016001600160401b0381118282101715614a7257614a72614a0c565b604052919050565b6001600160a01b0381168114614a8f57600080fd5b50565b803562ffffff81168114614aa557600080fd5b919050565b600060608284031215614abc57600080fd5b604051606081018181106001600160401b0382111715614ade57614ade614a0c565b6040529050808235614aef81614a7a565b81526020830135614aff81614a7a565b6020820152614b1060408401614a92565b60408201525092915050565b8060020b8114614a8f57600080fd5b60008060008060c08587031215614b4157600080fd5b614b4b8686614aaa565b93506060850135614b5b81614b1c565b92506080850135614b6b81614b1c565b915060a0850135614b7b81614b1c565b939692955090935050565b600060a08284031215614b9857600080fd5b60405160a081018181106001600160401b0382111715614bba57614bba614a0c565b806040525080915082358152602083013560208201526040830135604082015260608301356060820152608083013560808201525092915050565b600080600060e08486031215614c0a57600080fd5b8335614c1581614a7a565b92506020840135614c2581614b1c565b9150614c348560408601614b86565b90509250925092565b600060608284031215614c4f57600080fd5b50919050565b8015158114614a8f57600080fd5b600080600080600060e08688031215614c7b57600080fd5b614c858787614c3d565b9450606086013593506080860135925060a0860135614ca381614c55565b9497939650919460c0013592915050565b600081518084526020808501945080840160005b83811015614d2e578151805160020b8852838101516001600160801b03168489015260408082015190890152606080820151908901526080808201519089015260a0808201519089015260c0908101519088015260e09096019590820190600101614cc8565b509495945050505050565b60018060a01b038616815284602082015283604082015282606082015260a060808201526000614d6c60a0830184614cb4565b979650505050505050565b60006001600160401b03821115614d9057614d90614a0c565b5060051b60200190565b6001600160801b0381168114614a8f57600080fd5b600082601f830112614dc057600080fd5b81356020614dd5614dd083614d77565b614a4a565b82815260e09283028501820192828201919087851115614df457600080fd5b8387015b85811015614e755781818a031215614e105760008081fd5b614e18614a22565b8135614e2381614b1c565b815281860135614e3281614d9a565b8187015260408281013590820152606080830135908201526080808301359082015260a0808301359082015260c080830135908201528452928401928101614df8565b5090979650505050505050565b6000806000806000806000610120888a031215614e9e57600080fd5b614ea88989614c3d565b96506060880135614eb881614a7a565b955060808801356001600160401b03811115614ed357600080fd5b614edf8a828b01614daf565b95505060a0880135614ef081614c55565b9699959850939660c08101359560e08201359550610100909101359350915050565b600080600060608486031215614f2757600080fd5b8335614f3281614a7a565b92506020840135614f4281614a7a565b9150614c3460408501614a92565b600080600060a08486031215614f6557600080fd5b614f6f8585614aaa565b92506060840135614f7f81614b1c565b91506080840135614f8f81614b1c565b809150509250925092565b60008060408385031215614fad57600080fd5b823591506020830135614fbf81614b1c565b809150509250929050565b600060208284031215614fdc57600080fd5b610d7582614a92565b6020808252825182820181905260009190848201906040850190845b818110156150265783516001600160a01b031683529284019291840191600101615001565b50909695505050505050565b6000806000806080858703121561504857600080fd5b843561505381614a7a565b9350602085013561506381614b1c565b9250604085013561507381614b1c565b91506060850135614b7b81614b1c565b60006020828403121561509557600080fd5b8135610d7581614a7a565b61014081016150da828980518252602081015160208301526040810151604083015260608101516060830152608081015160808301525050565b60a082019690965260c081019490945260e084019290925261ffff1661010083015261012090910152919050565b6000806040838503121561511b57600080fd5b50508035926020909101359150565b6000806080838503121561513d57600080fd5b6151478484614c3d565b915060608301356001600160401b0381111561516257600080fd5b61516e85828601614daf565b9150509250929050565b8215158152604060208201526000612f756040830184614cb4565b600080604083850312156151a657600080fd5b82356151b181614a7a565b91506020830135614fbf81614b1c565b6000602082840312156151d357600080fd5b5035919050565b600080600060a084860312156151ef57600080fd5b6151f98585614c3d565b925060608401356001600160401b0381111561521457600080fd5b61522086828701614daf565b9250506080840135614f8f81614a7a565b602081526000610d756020830184614cb4565b6000806080838503121561525757600080fd5b6152618484614aaa565b91506060830135614fbf81614b1c565b61ffff81168114614a8f57600080fd5b6000610140828403121561529457600080fd5b60405160c081018181106001600160401b03821117156152b6576152b6614a0c565b6040529050806152c68484614b86565b815260a0830135602082015260c0830135604082015260e083013560608201526101008301356152f581615271565b8060808301525061012083013560a08201525092915050565b6000806000806000806101e0878903121561532857600080fd5b863561533381614a7a565b9550602087013561534381614a7a565b9450604087013561535381614a7a565b935061536160608801614a92565b9250608087013561537181614b1c565b91506153808860a08901615281565b90509295509295509295565b60006060828403121561539e57600080fd5b610d758383614c3d565b6001600160a01b0384168152600283900b602082015281516101808201906153ff90604084019080518252602081015160208301526040810151604083015260608101516060830152608081015160808301525050565b602083015160e08301526040830151610100830152606083015161012083015261ffff60808401511661014083015260a0830151610160830152949350505050565b6000806040838503121561545457600080fd5b8235915060208301358060010b8114614fbf57600080fd5b60008060008060c0858703121561548257600080fd5b61548c8686614c3d565b9350606085013561549c81614b1c565b925060808501356154ac81614b1c565b915060a0850135614b7b81614a7a565b6060815260006154cf6060830186614cb4565b60208301949094525060400152919050565b60008060008060c085870312156154f757600080fd5b6155018686614c3d565b9350606085013561551181614b1c565b9250608085013561552181614b1c565b915060a0850135614b7b81614d9a565b6000806000806080858703121561554757600080fd5b843561555281614a7a565b9350602085013561556281614a7a565b9250604085013561557281614a7a565b91506060850135614b7b81614a7a565b6000806020838503121561559557600080fd5b82356001600160401b03808211156155ac57600080fd5b818501915085601f8301126155c057600080fd5b8135818111156155cf57600080fd5b8660208260051b85010111156155e457600080fd5b60209290920196919550909350505050565b60005b838110156156115781810151838201526020016155f9565b50506000910152565b600081518084526156328160208601602086016155f6565b601f01601f19169290920160200192915050565b6000602080830181845280855180835260408601915060408160051b870101925083870160005b8281101561569b57603f1988860301845261568985835161561a565b9450928501929085019060010161566d565b5092979650505050505050565b6000606082840312156156ba57600080fd5b610d758383614aaa565b600080600080606085870312156156da57600080fd5b843593506020850135925060408501356001600160401b03808211156156ff57600080fd5b818701915087601f83011261571357600080fd5b81358181111561572257600080fd5b88602082850101111561573457600080fd5b95989497505060200194505050565b60008060008060008060c0878903121561575c57600080fd5b86359550602087013561576e81614b1c565b9450604087013561577e81614b1c565b9350606087013561578e81614b1c565b9250608087013561579e81614c55565b8092505060a087013590509295509295509295565b60008060008060008061010087890312156157cd57600080fd5b6157d78888614c3d565b955060608701356157e781614b1c565b945060808701356157f781614b1c565b935060a087013561580781614d9a565b925060c087013561581781614a7a565b915060e087013561582781614a7a565b809150509295509295509295565b600080610160838503121561584957600080fd5b823561585481614a7a565b91506158638460208501615281565b90509250929050565b6001600160a01b03938416815291909216602082015262ffffff909116604082015260600190565b600293840b81529190920b60208201526001600160a01b03909116604082015260600190565b600080604083850312156158cd57600080fd5b505080516020909101519092909150565b634e487b7160e01b600052601160045260246000fd5b808201808211156124f2576124f26158de565b818103818111156124f2576124f26158de565b60c08101615953828580518252602081015160208301526040810151604083015260608101516060830152608081015160808301525050565b8260a08301529392505050565b60006020828403121561597257600080fd5b5051919050565b602080825260059082015264042c2eae8d60db1b604082015260600190565b600080600080600080600060e0888a0312156159b357600080fd5b87516159be81614a7a565b60208901519097506159cf81614b1c565b60408901519096506159e081615271565b60608901519095506159f181615271565b6080890151909450615a0281615271565b60a089015190935060ff81168114615a1957600080fd5b60c0890151909250615a2a81614c55565b8091505092959891949750929550565b600060208284031215615a4c57600080fd5b8151610d7581614a7a565b60008060006060808587031215615a6d57600080fd5b8451935060208086015193506040808701516001600160401b03811115615a9357600080fd5b8701601f81018913615aa457600080fd5b8051615ab2614dd082614d77565b81815260e0918202830185019185820191908c841115615ad157600080fd5b938601935b83851015615b515780858e031215615aee5760008081fd5b615af6614a22565b8551615b0181614b1c565b815285880151615b1081614d9a565b81890152858701518782015288860151898201526080808701519082015260a0808701519082015260c0808701519082015283529384019391860191615ad6565b50809750505050505050509250925092565b6001600160801b03818116838216019080821115611c9f57611c9f6158de565b634e487b7160e01b600052601260045260246000fd5b600082615ba857615ba8615b83565b500490565b634e487b7160e01b600052603260045260246000fd5b600060018201615bd557615bd56158de565b5060010190565b6020808252600190820152606960f81b604082015260600190565b600281810b9083900b01627fffff8113627fffff19821217156124f2576124f26158de565b6001600160a01b03959095168552600293840b60208601529190920b60408401526001600160801b03918216606084015216608082015260a00190565b60008060408385031215615c6c57600080fd5b8251615c7781614d9a565b6020840151909250614fbf81614d9a565b6001600160801b03828116828216039080821115611c9f57611c9f6158de565b61ffff828116828216039080821115611c9f57611c9f6158de565b60008260020b80615cd657615cd6615b83565b808360020b0791505092915050565b60018060a01b03861681528460020b60208201528360020b60408201526001600160801b038316606082015260a060808201526000614d6c60a083018461561a565b600061ffff808316818103615d3e57615d3e6158de565b6001019392505050565b6000808335601e19843603018112615d5f57600080fd5b8301803591506001600160401b03821115615d7957600080fd5b602001915036819003821315611fe157600080fd5b600060208284031215615da057600080fd5b8151610d7581614c55565b60008060408385031215615dbe57600080fd5b8251615dc981614b1c565b6020840151909250614fbf81614c55565b60008251615dec8184602087016155f6565b9190910192915050565b602081526000610d75602083018461561a56fe416464726573733a206c6f772d6c6576656c2064656c65676174652063616c6c206661696c6564a26469706673582212204af7619e818ca27af5b83ffab740f63ff4ece782d004812ced43e9714338a7af64736f6c63430008120033",
  "linkReferences": {
    "src/MatchingEngine.sol": {
      "MatchingEngine": [
        {
          "length": 20,
          "start": 4392
        },
        {
          "length": 20,
          "start": 4798
        },
        {
          "length": 20,
          "start": 15589
        }
      ]
    },
    "src/PremiumComputer.sol": {
      "PremiumComputer": [
        {
          "length": 20,
          "start": 3529
        },
        {
          "length": 20,
          "start": 10070
        }
      ]
    },
    "src/Util.sol": {
      "Utils": [
        {
          "length": 20,
          "start": 2790
        }
      ]
    }
  },
  "deployedLinkReferences": {
    "src/MatchingEngine.sol": {
      "MatchingEngine": [
        {
          "length": 20,
          "start": 4166
        },
        {
          "length": 20,
          "start": 4572
        },
        {
          "length": 20,
          "start": 15363
        }
      ]
    },
    "src/PremiumComputer.sol": {
      "PremiumComputer": [
        {
          "length": 20,
          "start": 3303
        },
        {
          "length": 20,
          "start": 9844
        }
      ]
    },
    "src/Util.sol": {
      "Utils": [
        {
          "length": 20,
          "start": 2564
        }
      ]
    }
  }
}