{
  "abi": [
    {
      "inputs": [],
      "stateMutability": "nonpayable",
      "type": "constructor"
    },
    {
      "anonymous": false,
      "inputs": [
        {
          "indexed": true,
          "internalType": "address",
          "name": "pool",
          "type": "address"
        },
        {
          "indexed": true,
          "internalType": "address",
          "name": "recipient",
          "type": "address"
        },
        {
          "indexed": false,
          "internalType": "int24",
          "name": "tickLower",
          "type": "int24"
        },
        {
          "indexed": false,
          "internalType": "int24",
          "name": "tickUpper",
          "type": "int24"
        },
        {
          "indexed": false,
          "internalType": "uint256",
          "name": "premium0",
          "type": "uint256"
        },
        {
          "indexed": false,
          "internalType": "uint256",
          "name": "premium1",
          "type": "uint256"
        }
      ],
      "name": "CollectedFees",
      "type": "event"
    },
    {
      "anonymous": false,
      "inputs": [
        {
          "indexed": true,
          "internalType": "address",
          "name": "pool",
          "type": "address"
        },
        {
          "indexed": true,
          "internalType": "address",
          "name": "recipient",
          "type": "address"
        },
        {
          "indexed": false,
          "internalType": "uint128",
          "name": "liquidity",
          "type": "uint128"
        },
        {
          "indexed": false,
          "internalType": "int24",
          "name": "tickLower",
          "type": "int24"
        },
        {
          "indexed": false,
          "internalType": "int24",
          "name": "tickUpper",
          "type": "int24"
        }
      ],
      "name": "LiquidityProvided",
      "type": "event"
    },
    {
      "anonymous": false,
      "inputs": [
        {
          "indexed": true,
          "internalType": "address",
          "name": "pool",
          "type": "address"
        },
        {
          "indexed": true,
          "internalType": "address",
          "name": "recipient",
          "type": "address"
        },
        {
          "indexed": false,
          "internalType": "uint128",
          "name": "liquidity",
          "type": "uint128"
        },
        {
          "indexed": false,
          "internalType": "int24",
          "name": "tickLower",
          "type": "int24"
        },
        {
          "indexed": false,
          "internalType": "int24",
          "name": "tickUpper",
          "type": "int24"
        }
      ],
      "name": "LiquidityWithdrawn",
      "type": "event"
    },
    {
      "inputs": [
        {
          "internalType": "bytes32",
          "name": "",
          "type": "bytes32"
        },
        {
          "internalType": "int24",
          "name": "",
          "type": "int24"
        }
      ],
      "name": "Interests",
      "outputs": [
        {
          "internalType": "uint256",
          "name": "interest0",
          "type": "uint256"
        },
        {
          "internalType": "uint256",
          "name": "interest1",
          "type": "uint256"
        }
      ],
      "stateMutability": "view",
      "type": "function"
    },
    {
      "inputs": [
        {
          "internalType": "bytes32",
          "name": "",
          "type": "bytes32"
        },
        {
          "internalType": "int24",
          "name": "",
          "type": "int24"
        }
      ],
      "name": "LiquidityBin",
      "outputs": [
        {
          "internalType": "uint128",
          "name": "",
          "type": "uint128"
        }
      ],
      "stateMutability": "view",
      "type": "function"
    },
    {
      "inputs": [
        {
          "internalType": "bytes32",
          "name": "",
          "type": "bytes32"
        },
        {
          "internalType": "bytes32",
          "name": "",
          "type": "bytes32"
        }
      ],
      "name": "LiquidityPositions",
      "outputs": [
        {
          "internalType": "uint256",
          "name": "totalFeeGrowthInside0LastX128",
          "type": "uint256"
        },
        {
          "internalType": "uint256",
          "name": "totalFeeGrowthInside1LastX128",
          "type": "uint256"
        },
        {
          "internalType": "uint128",
          "name": "amount",
          "type": "uint128"
        },
        {
          "internalType": "uint128",
          "name": "tokensOwed0",
          "type": "uint128"
        },
        {
          "internalType": "uint128",
          "name": "tokensOwed1",
          "type": "uint128"
        }
      ],
      "stateMutability": "view",
      "type": "function"
    },
    {
      "inputs": [
        {
          "internalType": "address",
          "name": "",
          "type": "address"
        }
      ],
      "name": "PoolParams",
      "outputs": [
        {
          "components": [
            {
              "internalType": "uint256",
              "name": "pivotRate",
              "type": "uint256"
            },
            {
              "internalType": "uint256",
              "name": "slope1",
              "type": "uint256"
            },
            {
              "internalType": "uint256",
              "name": "intercept1",
              "type": "uint256"
            },
            {
              "internalType": "uint256",
              "name": "slope2",
              "type": "uint256"
            },
            {
              "internalType": "uint256",
              "name": "intercept2",
              "type": "uint256"
            },
            {
              "internalType": "uint256",
              "name": "twatDiffScale",
              "type": "uint256"
            }
          ],
          "internalType": "struct URateParam",
          "name": "uParam",
          "type": "tuple"
        },
        {
          "internalType": "uint256",
          "name": "maxURate",
          "type": "uint256"
        },
        {
          "internalType": "uint256",
          "name": "maxSearchRight",
          "type": "uint256"
        },
        {
          "internalType": "uint256",
          "name": "maxSearchLeft",
          "type": "uint256"
        },
        {
          "internalType": "uint16",
          "name": "poolId",
          "type": "uint16"
        },
        {
          "internalType": "uint256",
          "name": "MIN_PREMIUM_DEPOSIT",
          "type": "uint256"
        },
        {
          "internalType": "uint256",
          "name": "REPAY_THRESHOLD",
          "type": "uint256"
        }
      ],
      "stateMutability": "view",
      "type": "function"
    },
    {
      "inputs": [
        {
          "internalType": "address",
          "name": "",
          "type": "address"
        },
        {
          "internalType": "int24",
          "name": "",
          "type": "int24"
        }
      ],
      "name": "UtilizationGrowths",
      "outputs": [
        {
          "internalType": "uint256",
          "name": "growth",
          "type": "uint256"
        },
        {
          "internalType": "uint256",
          "name": "lastURate",
          "type": "uint256"
        },
        {
          "internalType": "uint256",
          "name": "lastUpdateTime",
          "type": "uint256"
        }
      ],
      "stateMutability": "view",
      "type": "function"
    },
    {
      "inputs": [
        {
          "internalType": "address",
          "name": "pool",
          "type": "address"
        },
        {
          "internalType": "address",
          "name": "tokenA",
          "type": "address"
        },
        {
          "internalType": "address",
          "name": "tokenB",
          "type": "address"
        },
        {
          "internalType": "uint24",
          "name": "fee",
          "type": "uint24"
        },
        {
          "internalType": "int24",
          "name": "tickDiscretization",
          "type": "int24"
        },
        {
          "components": [
            {
              "components": [
                {
                  "internalType": "uint256",
                  "name": "pivotRate",
                  "type": "uint256"
                },
                {
                  "internalType": "uint256",
                  "name": "slope1",
                  "type": "uint256"
                },
                {
                  "internalType": "uint256",
                  "name": "intercept1",
                  "type": "uint256"
                },
                {
                  "internalType": "uint256",
                  "name": "slope2",
                  "type": "uint256"
                },
                {
                  "internalType": "uint256",
                  "name": "intercept2",
                  "type": "uint256"
                },
                {
                  "internalType": "uint256",
                  "name": "twatDiffScale",
                  "type": "uint256"
                }
              ],
              "internalType": "struct URateParam",
              "name": "uParam",
              "type": "tuple"
            },
            {
              "internalType": "uint256",
              "name": "maxURate",
              "type": "uint256"
            },
            {
              "internalType": "uint256",
              "name": "maxSearchRight",
              "type": "uint256"
            },
            {
              "internalType": "uint256",
              "name": "maxSearchLeft",
              "type": "uint256"
            },
            {
              "internalType": "uint16",
              "name": "poolId",
              "type": "uint16"
            },
            {
              "internalType": "uint256",
              "name": "MIN_PREMIUM_DEPOSIT",
              "type": "uint256"
            },
            {
              "internalType": "uint256",
              "name": "REPAY_THRESHOLD",
              "type": "uint256"
            }
          ],
          "internalType": "struct PoolParam",
          "name": "param",
          "type": "tuple"
        }
      ],
      "name": "addPool",
      "outputs": [],
      "stateMutability": "nonpayable",
      "type": "function"
    },
    {
      "inputs": [
        {
          "internalType": "bytes32",
          "name": "",
          "type": "bytes32"
        },
        {
          "internalType": "int16",
          "name": "",
          "type": "int16"
        }
      ],
      "name": "binBitmaps",
      "outputs": [
        {
          "internalType": "uint256",
          "name": "",
          "type": "uint256"
        }
      ],
      "stateMutability": "view",
      "type": "function"
    },
    {
      "inputs": [
        {
          "internalType": "bytes32",
          "name": "",
          "type": "bytes32"
        },
        {
          "internalType": "int24",
          "name": "",
          "type": "int24"
        }
      ],
      "name": "borrowedLiquidities",
      "outputs": [
        {
          "internalType": "uint128",
          "name": "",
          "type": "uint128"
        }
      ],
      "stateMutability": "view",
      "type": "function"
    },
    {
      "inputs": [
        {
          "components": [
            {
              "internalType": "address",
              "name": "token0",
              "type": "address"
            },
            {
              "internalType": "address",
              "name": "token1",
              "type": "address"
            },
            {
              "internalType": "uint24",
              "name": "fee",
              "type": "uint24"
            }
          ],
          "internalType": "struct PoolKey",
          "name": "key",
          "type": "tuple"
        },
        {
          "internalType": "int24",
          "name": "tickLower",
          "type": "int24"
        },
        {
          "internalType": "int24",
          "name": "tickUpper",
          "type": "int24"
        }
      ],
      "name": "collectFees",
      "outputs": [
        {
          "internalType": "uint128",
          "name": "collectedFees0",
          "type": "uint128"
        },
        {
          "internalType": "uint128",
          "name": "collectedFees1",
          "type": "uint128"
        }
      ],
      "stateMutability": "nonpayable",
      "type": "function"
    },
    {
      "inputs": [
        {
          "internalType": "bytes32",
          "name": "",
          "type": "bytes32"
        }
      ],
      "name": "feeParams",
      "outputs": [
        {
          "internalType": "uint128",
          "name": "openFee",
          "type": "uint128"
        },
        {
          "internalType": "uint128",
          "name": "feeToPool",
          "type": "uint128"
        },
        {
          "internalType": "uint128",
          "name": "profitFee",
          "type": "uint128"
        },
        {
          "internalType": "uint128",
          "name": "profitFeeToPool",
          "type": "uint128"
        }
      ],
      "stateMutability": "view",
      "type": "function"
    },
    {
      "inputs": [
        {
          "components": [
            {
              "internalType": "address",
              "name": "token0",
              "type": "address"
            },
            {
              "internalType": "address",
              "name": "token1",
              "type": "address"
            },
            {
              "internalType": "uint24",
              "name": "fee",
              "type": "uint24"
            }
          ],
          "internalType": "struct PoolKey",
          "name": "key",
          "type": "tuple"
        },
        {
          "internalType": "uint256",
          "name": "margin",
          "type": "uint256"
        },
        {
          "internalType": "uint256",
          "name": "borrowAmount",
          "type": "uint256"
        },
        {
          "internalType": "bool",
          "name": "borrowBelow",
          "type": "bool"
        },
        {
          "internalType": "uint256",
          "name": "simulatedOutput",
          "type": "uint256"
        }
      ],
      "name": "findAndWithdraw",
      "outputs": [
        {
          "internalType": "uint256",
          "name": "totalAmount0",
          "type": "uint256"
        },
        {
          "internalType": "uint256",
          "name": "totalAmount1",
          "type": "uint256"
        },
        {
          "components": [
            {
              "internalType": "int24",
              "name": "tick",
              "type": "int24"
            },
            {
              "internalType": "uint128",
              "name": "liquidity",
              "type": "uint128"
            },
            {
              "internalType": "uint256",
              "name": "premium",
              "type": "uint256"
            },
            {
              "internalType": "uint256",
              "name": "feeGrowthInside0LastX128",
              "type": "uint256"
            },
            {
              "internalType": "uint256",
              "name": "feeGrowthInside1LastX128",
              "type": "uint256"
            },
            {
              "internalType": "uint256",
              "name": "lastGrowth",
              "type": "uint256"
            }
          ],
          "internalType": "struct LiquidityLoan[]",
          "name": "borrowInfo",
          "type": "tuple[]"
        }
      ],
      "stateMutability": "nonpayable",
      "type": "function"
    },
    {
      "inputs": [
        {
          "internalType": "bytes32",
          "name": "id",
          "type": "bytes32"
        },
        {
          "internalType": "int24",
          "name": "startingTick",
          "type": "int24"
        },
        {
          "internalType": "int24",
          "name": "finishTick",
          "type": "int24"
        },
        {
          "internalType": "int24",
          "name": "binSize",
          "type": "int24"
        },
        {
          "internalType": "bool",
          "name": "lte",
          "type": "bool"
        },
        {
          "internalType": "uint256",
          "name": "n",
          "type": "uint256"
        }
      ],
      "name": "findNearestInitializedBin",
      "outputs": [
        {
          "internalType": "int24",
          "name": "nextTick",
          "type": "int24"
        },
        {
          "internalType": "bool",
          "name": "success",
          "type": "bool"
        }
      ],
      "stateMutability": "view",
      "type": "function"
    },
    {
      "inputs": [
        {
          "components": [
            {
              "internalType": "address",
              "name": "token0",
              "type": "address"
            },
            {
              "internalType": "address",
              "name": "token1",
              "type": "address"
            },
            {
              "internalType": "uint24",
              "name": "fee",
              "type": "uint24"
            }
          ],
          "internalType": "struct PoolKey",
          "name": "key",
          "type": "tuple"
        },
        {
          "internalType": "uint256",
          "name": "margin",
          "type": "uint256"
        },
        {
          "internalType": "uint256",
          "name": "borrowAmount",
          "type": "uint256"
        },
        {
          "internalType": "bool",
          "name": "borrowBelow",
          "type": "bool"
        },
        {
          "internalType": "uint256",
          "name": "simulatedOutput",
          "type": "uint256"
        }
      ],
      "name": "findTicks",
      "outputs": [
        {
          "internalType": "uint256",
          "name": "averagePrice",
          "type": "uint256"
        },
        {
          "components": [
            {
              "internalType": "int24",
              "name": "tick",
              "type": "int24"
            },
            {
              "internalType": "uint128",
              "name": "liquidity",
              "type": "uint128"
            },
            {
              "internalType": "uint256",
              "name": "premium",
              "type": "uint256"
            },
            {
              "internalType": "uint256",
              "name": "feeGrowthInside0LastX128",
              "type": "uint256"
            },
            {
              "internalType": "uint256",
              "name": "feeGrowthInside1LastX128",
              "type": "uint256"
            },
            {
              "internalType": "uint256",
              "name": "lastGrowth",
              "type": "uint256"
            }
          ],
          "internalType": "struct LiquidityLoan[]",
          "name": "borrowInfo",
          "type": "tuple[]"
        }
      ],
      "stateMutability": "view",
      "type": "function"
    },
    {
      "inputs": [
        {
          "components": [
            {
              "internalType": "address",
              "name": "token0",
              "type": "address"
            },
            {
              "internalType": "address",
              "name": "token1",
              "type": "address"
            },
            {
              "internalType": "uint24",
              "name": "fee",
              "type": "uint24"
            }
          ],
          "internalType": "struct PoolKey",
          "name": "key",
          "type": "tuple"
        }
      ],
      "name": "getFeeParams",
      "outputs": [
        {
          "internalType": "uint256",
          "name": "",
          "type": "uint256"
        },
        {
          "internalType": "uint256",
          "name": "",
          "type": "uint256"
        }
      ],
      "stateMutability": "nonpayable",
      "type": "function"
    },
    {
      "inputs": [
        {
          "internalType": "address",
          "name": "pool",
          "type": "address"
        },
        {
          "internalType": "int24",
          "name": "tick",
          "type": "int24"
        },
        {
          "components": [
            {
              "internalType": "uint256",
              "name": "pivotRate",
              "type": "uint256"
            },
            {
              "internalType": "uint256",
              "name": "slope1",
              "type": "uint256"
            },
            {
              "internalType": "uint256",
              "name": "intercept1",
              "type": "uint256"
            },
            {
              "internalType": "uint256",
              "name": "slope2",
              "type": "uint256"
            },
            {
              "internalType": "uint256",
              "name": "intercept2",
              "type": "uint256"
            },
            {
              "internalType": "uint256",
              "name": "twatDiffScale",
              "type": "uint256"
            }
          ],
          "internalType": "struct URateParam",
          "name": "param",
          "type": "tuple"
        }
      ],
      "name": "getGrowth",
      "outputs": [
        {
          "internalType": "uint256",
          "name": "",
          "type": "uint256"
        }
      ],
      "stateMutability": "view",
      "type": "function"
    },
    {
      "inputs": [
        {
          "components": [
            {
              "internalType": "address",
              "name": "token0",
              "type": "address"
            },
            {
              "internalType": "address",
              "name": "token1",
              "type": "address"
            },
            {
              "internalType": "uint24",
              "name": "fee",
              "type": "uint24"
            }
          ],
          "internalType": "struct PoolKey",
          "name": "key",
          "type": "tuple"
        }
      ],
      "name": "getHashedKey",
      "outputs": [
        {
          "internalType": "bytes32",
          "name": "",
          "type": "bytes32"
        }
      ],
      "stateMutability": "pure",
      "type": "function"
    },
    {
      "inputs": [
        {
          "internalType": "int24",
          "name": "tickLower",
          "type": "int24"
        },
        {
          "internalType": "int24",
          "name": "tickUpper",
          "type": "int24"
        },
        {
          "internalType": "address",
          "name": "owner",
          "type": "address"
        }
      ],
      "name": "getHashedPositionKey",
      "outputs": [
        {
          "internalType": "bytes32",
          "name": "",
          "type": "bytes32"
        }
      ],
      "stateMutability": "pure",
      "type": "function"
    },
    {
      "inputs": [
        {
          "internalType": "bytes32",
          "name": "hashedKey",
          "type": "bytes32"
        },
        {
          "internalType": "int24",
          "name": "tickLower",
          "type": "int24"
        },
        {
          "internalType": "int24",
          "name": "tickUpper",
          "type": "int24"
        },
        {
          "internalType": "int24",
          "name": "tickDiscretization",
          "type": "int24"
        }
      ],
      "name": "getInterestGrowthInside",
      "outputs": [
        {
          "internalType": "uint256",
          "name": "interest0",
          "type": "uint256"
        },
        {
          "internalType": "uint256",
          "name": "interest1",
          "type": "uint256"
        }
      ],
      "stateMutability": "view",
      "type": "function"
    },
    {
      "inputs": [
        {
          "components": [
            {
              "internalType": "address",
              "name": "token0",
              "type": "address"
            },
            {
              "internalType": "address",
              "name": "token1",
              "type": "address"
            },
            {
              "internalType": "uint24",
              "name": "fee",
              "type": "uint24"
            }
          ],
          "internalType": "struct PoolKey",
          "name": "key",
          "type": "tuple"
        },
        {
          "internalType": "int24",
          "name": "tickLower",
          "type": "int24"
        },
        {
          "internalType": "int24",
          "name": "tickUpper",
          "type": "int24"
        },
        {
          "internalType": "address",
          "name": "owner",
          "type": "address"
        }
      ],
      "name": "getLiquidityPosition",
      "outputs": [
        {
          "components": [
            {
              "internalType": "uint256",
              "name": "totalFeeGrowthInside0LastX128",
              "type": "uint256"
            },
            {
              "internalType": "uint256",
              "name": "totalFeeGrowthInside1LastX128",
              "type": "uint256"
            },
            {
              "internalType": "uint128",
              "name": "amount",
              "type": "uint128"
            },
            {
              "internalType": "uint128",
              "name": "tokensOwed0",
              "type": "uint128"
            },
            {
              "internalType": "uint128",
              "name": "tokensOwed1",
              "type": "uint128"
            }
          ],
          "internalType": "struct UniswapPosition",
          "name": "",
          "type": "tuple"
        }
      ],
      "stateMutability": "view",
      "type": "function"
    },
    {
      "inputs": [
        {
          "components": [
            {
              "internalType": "address",
              "name": "token0",
              "type": "address"
            },
            {
              "internalType": "address",
              "name": "token1",
              "type": "address"
            },
            {
              "internalType": "uint24",
              "name": "fee",
              "type": "uint24"
            }
          ],
          "internalType": "struct PoolKey",
          "name": "key",
          "type": "tuple"
        }
      ],
      "name": "getParams",
      "outputs": [
        {
          "internalType": "address",
          "name": "pool",
          "type": "address"
        },
        {
          "internalType": "int24",
          "name": "tickDiscretization",
          "type": "int24"
        },
        {
          "components": [
            {
              "components": [
                {
                  "internalType": "uint256",
                  "name": "pivotRate",
                  "type": "uint256"
                },
                {
                  "internalType": "uint256",
                  "name": "slope1",
                  "type": "uint256"
                },
                {
                  "internalType": "uint256",
                  "name": "intercept1",
                  "type": "uint256"
                },
                {
                  "internalType": "uint256",
                  "name": "slope2",
                  "type": "uint256"
                },
                {
                  "internalType": "uint256",
                  "name": "intercept2",
                  "type": "uint256"
                },
                {
                  "internalType": "uint256",
                  "name": "twatDiffScale",
                  "type": "uint256"
                }
              ],
              "internalType": "struct URateParam",
              "name": "uParam",
              "type": "tuple"
            },
            {
              "internalType": "uint256",
              "name": "maxURate",
              "type": "uint256"
            },
            {
              "internalType": "uint256",
              "name": "maxSearchRight",
              "type": "uint256"
            },
            {
              "internalType": "uint256",
              "name": "maxSearchLeft",
              "type": "uint256"
            },
            {
              "internalType": "uint16",
              "name": "poolId",
              "type": "uint16"
            },
            {
              "internalType": "uint256",
              "name": "MIN_PREMIUM_DEPOSIT",
              "type": "uint256"
            },
            {
              "internalType": "uint256",
              "name": "REPAY_THRESHOLD",
              "type": "uint256"
            }
          ],
          "internalType": "struct PoolParam",
          "name": "param",
          "type": "tuple"
        }
      ],
      "stateMutability": "view",
      "type": "function"
    },
    {
      "inputs": [
        {
          "internalType": "address",
          "name": "",
          "type": "address"
        },
        {
          "internalType": "address",
          "name": "",
          "type": "address"
        },
        {
          "internalType": "uint24",
          "name": "",
          "type": "uint24"
        }
      ],
      "name": "getPool",
      "outputs": [
        {
          "internalType": "address",
          "name": "",
          "type": "address"
        }
      ],
      "stateMutability": "view",
      "type": "function"
    },
    {
      "inputs": [],
      "name": "getPoolList",
      "outputs": [
        {
          "internalType": "address[]",
          "name": "",
          "type": "address[]"
        }
      ],
      "stateMutability": "view",
      "type": "function"
    },
    {
      "inputs": [
        {
          "components": [
            {
              "internalType": "address",
              "name": "token0",
              "type": "address"
            },
            {
              "internalType": "address",
              "name": "token1",
              "type": "address"
            },
            {
              "internalType": "uint24",
              "name": "fee",
              "type": "uint24"
            }
          ],
          "internalType": "struct PoolKey",
          "name": "key",
          "type": "tuple"
        }
      ],
      "name": "getProfitFee",
      "outputs": [
        {
          "internalType": "uint256",
          "name": "",
          "type": "uint256"
        },
        {
          "internalType": "uint256",
          "name": "",
          "type": "uint256"
        }
      ],
      "stateMutability": "nonpayable",
      "type": "function"
    },
    {
      "inputs": [],
      "name": "marginFacility",
      "outputs": [
        {
          "internalType": "address",
          "name": "",
          "type": "address"
        }
      ],
      "stateMutability": "view",
      "type": "function"
    },
    {
      "inputs": [
        {
          "internalType": "bytes32",
          "name": "",
          "type": "bytes32"
        }
      ],
      "name": "minLiquidities",
      "outputs": [
        {
          "internalType": "uint256",
          "name": "",
          "type": "uint256"
        }
      ],
      "stateMutability": "view",
      "type": "function"
    },
    {
      "inputs": [
        {
          "components": [
            {
              "internalType": "address",
              "name": "token0",
              "type": "address"
            },
            {
              "internalType": "address",
              "name": "token1",
              "type": "address"
            },
            {
              "internalType": "uint24",
              "name": "fee",
              "type": "uint24"
            }
          ],
          "internalType": "struct PoolKey",
          "name": "key",
          "type": "tuple"
        },
        {
          "components": [
            {
              "internalType": "int24",
              "name": "tick",
              "type": "int24"
            },
            {
              "internalType": "uint128",
              "name": "liquidity",
              "type": "uint128"
            },
            {
              "internalType": "uint256",
              "name": "premium",
              "type": "uint256"
            },
            {
              "internalType": "uint256",
              "name": "feeGrowthInside0LastX128",
              "type": "uint256"
            },
            {
              "internalType": "uint256",
              "name": "feeGrowthInside1LastX128",
              "type": "uint256"
            },
            {
              "internalType": "uint256",
              "name": "lastGrowth",
              "type": "uint256"
            }
          ],
          "internalType": "struct LiquidityLoan[]",
          "name": "repayInfo",
          "type": "tuple[]"
        },
        {
          "internalType": "address",
          "name": "who",
          "type": "address"
        }
      ],
      "name": "mintToRepay",
      "outputs": [
        {
          "internalType": "uint256",
          "name": "totalAmount0",
          "type": "uint256"
        },
        {
          "internalType": "uint256",
          "name": "totalAmount1",
          "type": "uint256"
        }
      ],
      "stateMutability": "nonpayable",
      "type": "function"
    },
    {
      "inputs": [
        {
          "internalType": "bytes[]",
          "name": "data",
          "type": "bytes[]"
        }
      ],
      "name": "multicall",
      "outputs": [
        {
          "internalType": "bytes[]",
          "name": "results",
          "type": "bytes[]"
        }
      ],
      "stateMutability": "nonpayable",
      "type": "function"
    },
    {
      "inputs": [],
      "name": "owner",
      "outputs": [
        {
          "internalType": "address",
          "name": "",
          "type": "address"
        }
      ],
      "stateMutability": "view",
      "type": "function"
    },
    {
      "inputs": [
        {
          "components": [
            {
              "internalType": "address",
              "name": "token0",
              "type": "address"
            },
            {
              "internalType": "address",
              "name": "token1",
              "type": "address"
            },
            {
              "internalType": "uint24",
              "name": "fee",
              "type": "uint24"
            }
          ],
          "internalType": "struct PoolKey",
          "name": "key",
          "type": "tuple"
        },
        {
          "components": [
            {
              "internalType": "int24",
              "name": "tick",
              "type": "int24"
            },
            {
              "internalType": "uint128",
              "name": "liquidity",
              "type": "uint128"
            },
            {
              "internalType": "uint256",
              "name": "premium",
              "type": "uint256"
            },
            {
              "internalType": "uint256",
              "name": "feeGrowthInside0LastX128",
              "type": "uint256"
            },
            {
              "internalType": "uint256",
              "name": "feeGrowthInside1LastX128",
              "type": "uint256"
            },
            {
              "internalType": "uint256",
              "name": "lastGrowth",
              "type": "uint256"
            }
          ],
          "internalType": "struct LiquidityLoan[]",
          "name": "borrowInfo",
          "type": "tuple[]"
        },
        {
          "internalType": "bool",
          "name": "positionIsToken0",
          "type": "bool"
        },
        {
          "internalType": "uint256",
          "name": "feePortion",
          "type": "uint256"
        }
      ],
      "name": "payInterest",
      "outputs": [],
      "stateMutability": "nonpayable",
      "type": "function"
    },
    {
      "inputs": [
        {
          "components": [
            {
              "internalType": "address",
              "name": "token0",
              "type": "address"
            },
            {
              "internalType": "address",
              "name": "token1",
              "type": "address"
            },
            {
              "internalType": "uint24",
              "name": "fee",
              "type": "uint24"
            }
          ],
          "internalType": "struct PoolKey",
          "name": "key",
          "type": "tuple"
        },
        {
          "internalType": "int24",
          "name": "tickLower",
          "type": "int24"
        },
        {
          "internalType": "int24",
          "name": "tickUpper",
          "type": "int24"
        },
        {
          "internalType": "uint128",
          "name": "liquidity",
          "type": "uint128"
        },
        {
          "internalType": "address",
          "name": "recipient",
          "type": "address"
        }
      ],
      "name": "provideDiscreteLiquidity",
      "outputs": [
        {
          "internalType": "uint256",
          "name": "totalAmount0",
          "type": "uint256"
        },
        {
          "internalType": "uint256",
          "name": "totalAmount1",
          "type": "uint256"
        }
      ],
      "stateMutability": "nonpayable",
      "type": "function"
    },
    {
      "inputs": [
        {
          "internalType": "bool",
          "name": "collectPaused",
          "type": "bool"
        }
      ],
      "name": "setCollectPaused",
      "outputs": [],
      "stateMutability": "nonpayable",
      "type": "function"
    },
    {
      "inputs": [
        {
          "internalType": "address",
          "name": "mf",
          "type": "address"
        },
        {
          "internalType": "address",
          "name": "bf",
          "type": "address"
        },
        {
          "internalType": "address",
          "name": "of_",
          "type": "address"
        },
        {
          "internalType": "address",
          "name": "_uniswapFactory",
          "type": "address"
        }
      ],
      "name": "setFacilities",
      "outputs": [],
      "stateMutability": "nonpayable",
      "type": "function"
    },
    {
      "inputs": [
        {
          "components": [
            {
              "internalType": "address",
              "name": "token0",
              "type": "address"
            },
            {
              "internalType": "address",
              "name": "token1",
              "type": "address"
            },
            {
              "internalType": "uint24",
              "name": "fee",
              "type": "uint24"
            }
          ],
          "internalType": "struct PoolKey",
          "name": "key",
          "type": "tuple"
        },
        {
          "internalType": "uint256",
          "name": "minLiquidity",
          "type": "uint256"
        }
      ],
      "name": "setMinLiquidity",
      "outputs": [],
      "stateMutability": "nonpayable",
      "type": "function"
    },
    {
      "inputs": [
        {
          "internalType": "address",
          "name": "newOwner",
          "type": "address"
        }
      ],
      "name": "setOwner",
      "outputs": [],
      "stateMutability": "nonpayable",
      "type": "function"
    },
    {
      "inputs": [
        {
          "internalType": "bool",
          "name": "providePaused",
          "type": "bool"
        }
      ],
      "name": "setProvidePaused",
      "outputs": [],
      "stateMutability": "nonpayable",
      "type": "function"
    },
    {
      "inputs": [
        {
          "internalType": "bool",
          "name": "withdrawPaused",
          "type": "bool"
        }
      ],
      "name": "setWithdrawPaused",
      "outputs": [],
      "stateMutability": "nonpayable",
      "type": "function"
    },
    {
      "inputs": [
        {
          "internalType": "bytes32",
          "name": "",
          "type": "bytes32"
        }
      ],
      "name": "tickDiscretizations",
      "outputs": [
        {
          "internalType": "int24",
          "name": "",
          "type": "int24"
        }
      ],
      "stateMutability": "view",
      "type": "function"
    },
    {
      "inputs": [],
      "name": "uniswapFactory",
      "outputs": [
        {
          "internalType": "address",
          "name": "",
          "type": "address"
        }
      ],
      "stateMutability": "view",
      "type": "function"
    },
    {
      "inputs": [
        {
          "internalType": "uint256",
          "name": "amount0Owed",
          "type": "uint256"
        },
        {
          "internalType": "uint256",
          "name": "amount1Owed",
          "type": "uint256"
        },
        {
          "internalType": "bytes",
          "name": "data",
          "type": "bytes"
        }
      ],
      "name": "uniswapV3MintCallback",
      "outputs": [],
      "stateMutability": "nonpayable",
      "type": "function"
    },
    {
      "inputs": [
        {
          "components": [
            {
              "internalType": "address",
              "name": "token0",
              "type": "address"
            },
            {
              "internalType": "address",
              "name": "token1",
              "type": "address"
            },
            {
              "internalType": "uint24",
              "name": "fee",
              "type": "uint24"
            }
          ],
          "internalType": "struct PoolKey",
          "name": "key",
          "type": "tuple"
        },
        {
          "internalType": "int24",
          "name": "tickLower",
          "type": "int24"
        },
        {
          "internalType": "int24",
          "name": "tickUpper",
          "type": "int24"
        },
        {
          "internalType": "int24",
          "name": "tickDiscretization",
          "type": "int24"
        }
      ],
      "name": "updateCollectedFees",
      "outputs": [
        {
          "internalType": "uint256",
          "name": "",
          "type": "uint256"
        },
        {
          "internalType": "uint256",
          "name": "",
          "type": "uint256"
        }
      ],
      "stateMutability": "nonpayable",
      "type": "function"
    },
    {
      "inputs": [
        {
          "components": [
            {
              "internalType": "address",
              "name": "token0",
              "type": "address"
            },
            {
              "internalType": "address",
              "name": "token1",
              "type": "address"
            },
            {
              "internalType": "uint24",
              "name": "fee",
              "type": "uint24"
            }
          ],
          "internalType": "struct PoolKey",
          "name": "key",
          "type": "tuple"
        },
        {
          "internalType": "uint256",
          "name": "openFee",
          "type": "uint256"
        },
        {
          "internalType": "uint256",
          "name": "feeToPool",
          "type": "uint256"
        },
        {
          "internalType": "uint256",
          "name": "profitFee",
          "type": "uint256"
        },
        {
          "internalType": "uint256",
          "name": "profitFeeToPool",
          "type": "uint256"
        }
      ],
      "name": "updateFeeParams",
      "outputs": [],
      "stateMutability": "nonpayable",
      "type": "function"
    },
    {
      "inputs": [
        {
          "internalType": "address",
          "name": "pool",
          "type": "address"
        },
        {
          "components": [
            {
              "components": [
                {
                  "internalType": "uint256",
                  "name": "pivotRate",
                  "type": "uint256"
                },
                {
                  "internalType": "uint256",
                  "name": "slope1",
                  "type": "uint256"
                },
                {
                  "internalType": "uint256",
                  "name": "intercept1",
                  "type": "uint256"
                },
                {
                  "internalType": "uint256",
                  "name": "slope2",
                  "type": "uint256"
                },
                {
                  "internalType": "uint256",
                  "name": "intercept2",
                  "type": "uint256"
                },
                {
                  "internalType": "uint256",
                  "name": "twatDiffScale",
                  "type": "uint256"
                }
              ],
              "internalType": "struct URateParam",
              "name": "uParam",
              "type": "tuple"
            },
            {
              "internalType": "uint256",
              "name": "maxURate",
              "type": "uint256"
            },
            {
              "internalType": "uint256",
              "name": "maxSearchRight",
              "type": "uint256"
            },
            {
              "internalType": "uint256",
              "name": "maxSearchLeft",
              "type": "uint256"
            },
            {
              "internalType": "uint16",
              "name": "poolId",
              "type": "uint16"
            },
            {
              "internalType": "uint256",
              "name": "MIN_PREMIUM_DEPOSIT",
              "type": "uint256"
            },
            {
              "internalType": "uint256",
              "name": "REPAY_THRESHOLD",
              "type": "uint256"
            }
          ],
          "internalType": "struct PoolParam",
          "name": "param",
          "type": "tuple"
        }
      ],
      "name": "updatePoolParams",
      "outputs": [],
      "stateMutability": "nonpayable",
      "type": "function"
    },
    {
      "inputs": [
        {
          "components": [
            {
              "internalType": "address",
              "name": "token0",
              "type": "address"
            },
            {
              "internalType": "address",
              "name": "token1",
              "type": "address"
            },
            {
              "internalType": "uint24",
              "name": "fee",
              "type": "uint24"
            }
          ],
          "internalType": "struct PoolKey",
          "name": "key",
          "type": "tuple"
        },
        {
          "internalType": "int24",
          "name": "tickLower",
          "type": "int24"
        },
        {
          "internalType": "int24",
          "name": "tickUpper",
          "type": "int24"
        },
        {
          "internalType": "uint128",
          "name": "liquidity",
          "type": "uint128"
        }
      ],
      "name": "withdrawDiscreteLiquidity",
      "outputs": [
        {
          "internalType": "uint256",
          "name": "",
          "type": "uint256"
        },
        {
          "internalType": "uint256",
          "name": "",
          "type": "uint256"
        }
      ],
      "stateMutability": "nonpayable",
      "type": "function"
    },
    {
      "inputs": [
        {
          "components": [
            {
              "internalType": "address",
              "name": "token0",
              "type": "address"
            },
            {
              "internalType": "address",
              "name": "token1",
              "type": "address"
            },
            {
              "internalType": "uint24",
              "name": "fee",
              "type": "uint24"
            }
          ],
          "internalType": "struct PoolKey",
          "name": "key",
          "type": "tuple"
        },
        {
          "components": [
            {
              "internalType": "int24",
              "name": "tick",
              "type": "int24"
            },
            {
              "internalType": "uint128",
              "name": "liquidity",
              "type": "uint128"
            },
            {
              "internalType": "uint256",
              "name": "premium",
              "type": "uint256"
            },
            {
              "internalType": "uint256",
              "name": "feeGrowthInside0LastX128",
              "type": "uint256"
            },
            {
              "internalType": "uint256",
              "name": "feeGrowthInside1LastX128",
              "type": "uint256"
            },
            {
              "internalType": "uint256",
              "name": "lastGrowth",
              "type": "uint256"
            }
          ],
          "internalType": "struct LiquidityLoan[]",
          "name": "borrowInfo",
          "type": "tuple[]"
        }
      ],
      "name": "withdrawToBorrow",
      "outputs": [
        {
          "internalType": "uint256",
          "name": "totalAmount0",
          "type": "uint256"
        },
        {
          "internalType": "uint256",
          "name": "totalAmount1",
          "type": "uint256"
        }
      ],
      "stateMutability": "nonpayable",
      "type": "function"
    }
  ],
  "bytecode": {
    "object": "0x608060405260016000819055600d805461ffff1916909117905534801561002557600080fd5b50600d805462010000600160b01b031916336201000002179055615faf806200004f6000396000f3fe608060405234801561001057600080fd5b50600436106102745760003560e01c80639525092311610151578063bbd95472116100c3578063d578395311610087578063d578395314610898578063d7a3dca0146108c5578063da69b0b3146108f7578063dc724d3a1461092b578063f2d490a51461093e578063fc6e9cbf1461095157600080fd5b8063bbd95472146107c2578063c6c2c2ca146107d5578063d069f1ac1461084f578063d348799714610870578063d41dcbea1461088357600080fd5b8063abf978e411610115578063abf978e414610743578063ac00b80914610756578063ac9650d814610769578063b75323a714610789578063b8919fa61461079c578063b9a402a5146107af57600080fd5b806395250923146106645780639744a42d14610686578063a8404655146106b1578063a841fdd814610710578063a882c12d1461073057600080fd5b806345e61a4d116101ea57806368335691116101ae57806368335691146105aa5780636cb42a2f146105bd5780636fc280e1146105d0578063895f4ade146106255780638bdb2afa146106385780638da5cb5b1461064b57600080fd5b806345e61a4d1461041b57806348222442146104c15780635955cad3146104d45780635ea33ec514610561578063651976881461057457600080fd5b806319fa10331161023c57806319fa10331461034257806319fda277146103755780632398c1a9146103c157806325f149ce146103d457806337d15139146103e7578063406a3d02146103fa57600080fd5b80630229fb60146102795780630ea50f50146102a657806313af4035146102c85780631698ee82146102dd57806318cdea9d1461032f575b600080fd5b61028c610287366004614ae5565b610964565b604080519283526020830191909152015b60405180910390f35b6102b96102b4366004614b4e565b6109b7565b60405161029d93929190614c1a565b6102db6102d6366004614c4e565b610b47565b005b6103176102eb366004614c83565b600a6020908152600093845260408085208252928452828420905282529020546001600160a01b031681565b6040516001600160a01b03909116815260200161029d565b6102db61033d366004614daa565b610ba1565b610355610350366004614dd5565b610c20565b604080516001600160801b0393841681529290911660208301520161029d565b6103a9610383366004614e1f565b60026020908152600092835260408084209091529082529020546001600160801b031681565b6040516001600160801b03909116815260200161029d565b6102db6103cf366004614e4f565b610db5565b6102db6103e2366004614e92565b610e2e565b6102db6103f5366004614e92565b610e7c565b61040d610408366004614eaf565b610eca565b60405190815260200161029d565b6104ae610429366004614c4e565b600660208181526000928352604092839020835160c081018552815481526001820154928101929092526002810154938201939093526003830154606082015260048301546080820152600583015460a082015290820154600783015460088401546009850154600a860154600b90960154949593949293919261ffff909116919087565b60405161029d9796959493929190614f29565b61040d6104cf366004614f70565b610f17565b61052b6104e2366004614f8c565b60046020908152600092835260408084209091529082529020805460018201546002830154600390930154919290916001600160801b0380831692600160801b90048116911685565b6040805195865260208601949094526001600160801b03928316938501939093528116606084015216608082015260a00161029d565b61028c61056f366004614fae565b610f57565b610597610582366004614ff6565b60096020526000908152604090205460020b81565b60405160029190910b815260200161029d565b61040d6105b8366004615067565b610ffd565b61028c6105cb3660046151a8565b611138565b61060a6105de3660046151ff565b600560209081526000928352604080842090915290825290208054600182015460029092015490919083565b6040805193845260208401929092529082015260600161029d565b6102db6106333660046152d6565b6114e3565b600f54610317906001600160a01b031681565b600d54610317906201000090046001600160a01b031681565b61067761067236600461530d565b6115b8565b60405161029d93929190615329565b61040d6106943660046153a3565b600b60209081526000928352604080842090915290825290205481565b6106c46106bf3660046153ce565b61173e565b604080518251815260208084015190820152828201516001600160801b03908116928201929092526060808401518316908201526080928301519091169181019190915260a00161029d565b61040d61071e366004614ff6565b60076020526000908152604090205481565b600e54610317906001600160a01b031681565b61028c61075136600461541e565b6117ff565b6102db61076436600461546e565b611f22565b61077c6107773660046154bf565b611f86565b60405161029d9190615583565b61028c610797366004614f70565b61207b565b61028c6107aa3660046155e5565b6120b8565b6102db6107bd366004615655565b612783565b61028c6107d03660046156d3565b612e26565b61081c6107e3366004614ff6565b600860205260009081526040902080546001909101546001600160801b0380831692600160801b90819004821692808316929190041684565b604080516001600160801b039586168152938516602085015291841691830191909152909116606082015260800161029d565b61086261085d366004614b4e565b612f6e565b60405161029d929190615721565b6102db61087e36600461573a565b6131f3565b61088b6132fc565b60405161029d91906157b9565b6108ab6108a6366004615806565b6133d9565b6040805160029390930b835290151560208301520161029d565b61028c6108d3366004614e1f565b60036020908152600092835260408084209091529082529020805460019091015482565b6103a9610905366004614e1f565b60016020908152600092835260408084209091529082529020546001600160801b031681565b6102db610939366004614e92565b613490565b61028c61094c366004614f70565b6134de565b6102db61095f366004615876565b613518565b6000806000546001146109925760405162461bcd60e51b8152600401610989906158de565b60405180910390fd5b60026000556109a586868686600161373e565b60016000559097909650945050505050565b600e5460009081906060906001600160a01b031633146109e95760405162461bcd60e51b815260040161098990615902565b6109f1614950565b6109fe60208a018a614c4e565b610a0e60408b0160208c01614c4e565b610a1e60608c0160408d01615921565b604051602001610a309392919061593c565b60408051601f19818403018152918152815160209283012090830152600a90600090610a5e908c018c614c4e565b6001600160a01b03166001600160a01b0316815260200190815260200160002060008a6020016020810190610a939190614c4e565b6001600160a01b03166001600160a01b0316815260200190815260200160002060008a6040016020810190610ac89190615921565b62ffffff16815260208082019290925260409081016000908120546001600160a01b0316610120850152838201518152600990925290205460020b60e0820152610b158989898989612f6e565b905080925050610b35898261012001518484604001518560e001516139c5565b909a9099509197509095505050505050565b600d546201000090046001600160a01b03163314610b775760405162461bcd60e51b815260040161098990615964565b600d80546001600160a01b03909216620100000262010000600160b01b0319909216919091179055565b600d546201000090046001600160a01b03163314610bd15760405162461bcd60e51b815260040161098990615964565b6000826000015183602001518460400151604051602001610bf49392919061593c565b60408051601f198184030181529181528151602092830120600090815260079092529020919091555050565b600080600054600114610c455760405162461bcd60e51b8152600401610989906158de565b60026000908155610c5586610f17565b600081815260096020526040902054600f5491925060020b90600160b01b900460ff1615610c955760405162461bcd60e51b815260040161098990615984565b8060020b600003610cb85760405162461bcd60e51b8152600401610989906159a4565b8460020b8660020b12610cdd5760405162461bcd60e51b8152600401610989906159bf565b600082815260046020526040812081610cf7898933610eca565b815260208101919091526040016000206002810154909150600160801b90046001600160801b031615610d5b5760028101548851600160801b9091046001600160801b03169550610d49903387613eb1565b6002810180546001600160801b031690555b60038101546001600160801b031615610da357600381015460208901516001600160801b039091169450610d90903386613eb1565b6003810180546001600160801b03191690555b50506001600055509094909350915050565b600d546201000090046001600160a01b03163314610de55760405162461bcd60e51b815260040161098990615964565b6000610df086610f17565b60009081526008602052604090206001600160801b03958616600160801b958716860217815592851691909416909202919091176001909101555050565b600d546201000090046001600160a01b03163314610e5e5760405162461bcd60e51b815260040161098990615964565b600f8054911515600160a01b0260ff60a01b19909216919091179055565b600d546201000090046001600160a01b03163314610eac5760405162461bcd60e51b815260040161098990615964565b600f8054911515600160a81b0260ff60a81b19909216919091179055565b60408051600285810b602083015284900b918101919091526001600160a01b03821660608201526000906080016040516020818303038152906040528051906020012090505b9392505050565b6000816000015182602001518360400151604051602001610f3a9392919061593c565b604051602081830303815290604052805190602001209050919050565b6000806000859050610f7c604051806040016040528060008152602001600081525090565b8560020b8260020b1215610ff257506000878152600360209081526040808320600285900b84528252918290208251808401909352805480845260019091015491830191909152610fcd90856159f0565b9350806020015183610fdf91906159f0565b9250610feb8583615a03565b9150610f7c565b505094509492505050565b6001600160a01b0383166000908152600560209081526040808320600286810b8552908352818420825160608101845281548082526001830154958201959095529101549181019190915290670de0b6b3a7640000906111259061106190836159f0565b670de0b6b3a764000061111e85604001514261107d9190615a28565b60208701516040516317b474bf60e01b8152670de0b6b3a76400009173__$eacbb88ed4bd2af84aa4d43bcf675bcf7e$__916317b474bf916110c4918e9190600401615a3b565b602060405180830381865af41580156110e1573d6000803e3d6000fd5b505050506040513d601f19601f820116820180604052508101906111059190615a56565b61111790670de0b6b3a76400006159f0565b9190613fb1565b919061406f565b61112f9190615a28565b95945050505050565b600e5460009081906001600160a01b031633146111675760405162461bcd60e51b815260040161098990615902565b6040805160a0810182526000808252602082018190529181018290526060810182905260808101919091526000600a816111a460208a018a614c4e565b6001600160a01b03166001600160a01b0316815260200190815260200160002060008860200160208101906111d99190614c4e565b6001600160a01b03166001600160a01b03168152602001908152602001600020600088604001602081019061120e9190615921565b62ffffff1681526020810191909152604001600020546001600160a01b031690506112416104cf36899003890189614f70565b808352600090815260096020908152604080832054600290810b838701526001600160a01b038516845260068352818420825160c08101845281548152600182015494810194909452908101549183019190915260038101546060830152600481015460808301526005015460a0820152905b87518110156114d7578781815181106112cf576112cf615a6f565b602002602001015160200151600260008660000151815260200190815260200160002060008a848151811061130657611306615a6f565b6020908102919091018101515160020b82528101919091526040016000908120805490919061133f9084906001600160801b0316615a85565b92506101000a8154816001600160801b0302191690836001600160801b03160217905550826001600160a01b0316633c8a7d8d308a848151811061138557611385615a6f565b60200260200101516000015187602001518c86815181106113a8576113a8615a6f565b6020026020010151600001516113be9190615a03565b8c86815181106113d0576113d0615a6f565b6020026020010151602001518c6040516020016113fc91906001600160a01b0391909116815260200190565b6040516020818303038152906040526040518663ffffffff1660e01b815260040161142b959493929190615aa5565b60408051808303816000875af1158015611449573d6000803e3d6000fd5b505050506040513d601f19601f8201168201806040525081019061146d9190615af2565b60808601526060850181905261148390876159f0565b955083608001518561149591906159f0565b94506114c48882815181106114ac576114ac615a6f565b6020026020010151600001518560000151858561414d565b50806114cf81615b16565b9150506112b4565b50505050935093915050565b600d546201000090046001600160a01b031633146115135760405162461bcd60e51b815260040161098990615964565b6001600160a01b03919091166000908152600660208181526040928390208451805182558083015160018301558085015160028301556060808201516003840155608080830151600485015560a0928301516005850155938701519483019490945593850151600782015591840151600883015583015160098201805461ffff191661ffff90921691909117905590820151600a82015560c090910151600b90910155565b6000806115c36149b8565b600a60006115d46020870187614c4e565b6001600160a01b03166001600160a01b0316815260200190815260200160002060008560200160208101906116099190614c4e565b6001600160a01b03166001600160a01b03168152602001908152602001600020600085604001602081019061163e9190615921565b62ffffff16815260208101919091526040016000908120546001600160a01b031693506009906116766104cf36889003880188614f70565b815260208082019290925260409081016000908120546001600160a01b038716825260068085529183902083516101a081018552815460e082019081526001830154610100830152600283810154610120840152600384015461014084015260048401546101608401526005840154610180840152908252938201549581019590955260078101549385019390935260088301546060850152600983015461ffff166080850152600a83015460a0850152600b9092015460c08401529496940b945092915050565b6040805160a0810182526000808252602082018190529181018290526060810182905260808101919091526004600061177f6104cf36899003890189614f70565b8152602001908152602001600020600061179a868686610eca565b81526020808201929092526040908101600020815160a0810183528154815260018201549381019390935260028101546001600160801b0380821693850193909352600160801b9004821660608401526003015416608082015290505b949350505050565b6000806000546001146118245760405162461bcd60e51b8152600401610989906158de565b600260009081556040805160e08101825282815260208101839052908101829052606081018290526080810182905260a0810182905260c08101919091526118746104cf36899003890189614f70565b6080820181815260009182526009602090815260408084205460020b60a086015291518352600490528120816118ab898933610eca565b81526020019081526020016000209050600f60159054906101000a900460ff16156118e85760405162461bcd60e51b815260040161098990615984565b8160a0015160020b60000361190f5760405162461bcd60e51b8152600401610989906159a4565b8560020b8760020b126119345760405162461bcd60e51b8152600401610989906159bf565b60028101546001600160801b031615801590611960575060028101546001600160801b03808716911610155b6119905760405162461bcd60e51b81526020600482015260016024820152603760f91b6044820152606401610989565b6000600a816119a260208c018c614c4e565b6001600160a01b03166001600160a01b0316815260200190815260200160002060008a60200160208101906119d79190614c4e565b6001600160a01b03166001600160a01b0316815260200190815260200160002060008a6040016020810190611a0c9190615921565b62ffffff16815260208082019290925260409081016000908120546001600160a01b031680825260068452828220835160c080820186528254825260018301548288015260028301548287015260038301546060830152600483015460808084019190915260059093015460a083015291890151845260079095529290912054918601919091529150885b8860020b8160020b1215611dd1576080850180516000908152600160209081526040808320600286810b8086529184528285205460c08c0151965186529084528285209185529252909120546001600160801b039182169291611afb91168b615b2f565b6001600160801b0316611b0e91906159f0565b816001600160801b03161015611b525760405162461bcd60e51b815260206004820152600960248201526821776974686472617760b81b6044820152606401610989565b836001600160a01b031663a34123a7838860a0015185611b729190615a03565b6040516001600160e01b031960e085901b168152600292830b6004820152910b60248201526001600160801b038c16604482015260640160408051808303816000875af1158015611bc7573d6000803e3d6000fd5b505050506040513d601f19601f82011682018060405250810190611beb9190615af2565b6020880152865260a086015160009081906001600160a01b03871690634f1eb3d89030908790611c1b9082615a03565b6001600160801b03806040518663ffffffff1660e01b8152600401611c44959493929190615b4f565b60408051808303816000875af1158015611c62573d6000803e3d6000fd5b505050506040513d601f19601f82011682018060405250810190611c869190615b8c565b90925090506001600160801b03831615611cda57611cda8860800151858a60000151856001600160801b0316611cbc9190615a28565b60208c0151611cd4906001600160801b038716615a28565b876142f2565b8751604089018051611ced9083906159f0565b9052506020880151606089018051611d069083906159f0565b90525060808801516000908152600160209081526040808320600288900b8452909152812080548d9290611d449084906001600160801b0316615a85565b92506101000a8154816001600160801b0302191690836001600160801b031602179055508a83611d749190615a85565b6001600160801b0316600003611da75760a088015160808901516000908152600b60205260409020611da7918690614378565b611db7848960800151888861414d565b50505060a0860151611dca915082615a03565b9050611a97565b611de38b8b8b8860a00151600061373e565b5050608085015160009081526004602052604081208991611e058d8d33610eca565b8152602081019190915260400160009081206002018054909190611e339084906001600160801b0316615a85565b92506101000a8154816001600160801b0302191690836001600160801b03160217905550600085604001511115611e7f57611e7f611e7460208d018d614c4e565b338760400151613eb1565b606085015115611ea757611ea7611e9c60408d0160208e01614c4e565b338760600151613eb1565b604080516001600160801b038a16815260028c810b60208301528b900b81830152905133916001600160a01b038616917f49ae36094cb0a2af1fad270a75bb3188db1a6e13c5b0b9a230319221247fda9d9181900360600190a350505050604081015160609091015160016000559097909650945050505050565b600d546201000090046001600160a01b03163314611f525760405162461bcd60e51b815260040161098990615964565b600f80546001600160a01b039283166001600160a01b031991821617909155600e8054959092169416939093179092555050565b6060816001600160401b03811115611fa057611fa0614cca565b604051908082528060200260200182016040528015611fd357816020015b6060815260200190600190039081611fbe5790505b50905060005b828110156120735761204330858584818110611ff757611ff7615a6f565b90506020028101906120099190615bbb565b8080601f0160208091040260200160405190810160405280939291908181526020018383808284376000920191909152506143f592505050565b82828151811061205557612055615a6f565b6020026020010181905250808061206b90615b16565b915050611fd9565b505b92915050565b600080600061208984610f17565b6000908152600860205260409020600101546001600160801b0380821696600160801b90920416945092505050565b6000806000546001146120dd5760405162461bcd60e51b8152600401610989906158de565b60026000556120ea614a30565b6120fc6104cf368a90038a018a614f70565b808252600090815260096020908152604082205460020b81840152600a908290612128908c018c614c4e565b6001600160a01b03166001600160a01b0316815260200190815260200160002060008a602001602081019061215d9190614c4e565b6001600160a01b03166001600160a01b0316815260200190815260200160002060008a60400160208101906121929190615921565b62ffffff16815260208082019290925260409081016000908120546001600160a01b03168082526006845290829020825160c0810184528154815260018201549481019490945260028101548484015260038101546060850152600481015460808501526005015460a084015290840191909152600f54909150600160a01b900460ff16156122335760405162461bcd60e51b815260040161098990615984565b816020015160020b60000361225a5760405162461bcd60e51b8152600401610989906159a4565b8660020b8860020b1261227f5760405162461bcd60e51b8152600401610989906159bf565b6000866001600160801b0316116122bc5760405162461bcd60e51b81526020600482015260016024820152601b60fa1b6044820152606401610989565b60208201516122cb9089615c17565b60020b1580156122ea575060208201516122e59088615c17565b60020b155b61231a5760405162461bcd60e51b81526020600482015260016024820152601960fa1b6044820152606401610989565b875b8760020b8160020b121561267d57816001600160a01b0316633c8a7d8d308386602001518561234b9190615a03565b604080513360208201528d91016040516020818303038152906040526040518663ffffffff1660e01b8152600401612387959493929190615aa5565b60408051808303816000875af11580156123a5573d6000803e3d6000fd5b505050506040513d601f19601f820116820180604052508101906123c99190615af2565b6080850152606084018190526123df90866159f0565b94508260800151846123f191906159f0565b9350816001600160a01b031663514ea4bf30838660200151856124149190615a03565b60405160609390931b6bffffffffffffffffffffffff1916602084015260e891821b6034840152901b6037820152603a01604051602081830303815290604052805190602001206040518263ffffffff1660e01b815260040161247991815260200190565b60a060405180830381865afa158015612496573d6000803e3d6000fd5b505050506040513d601f19601f820116820180604052508101906124ba9190615c47565b6001600160801b0390811660c08901521660a08701819052151592508291506124e99050575060008360c00151115b1561257d57816001600160a01b0316634f1eb3d8308386602001518561250f9190615a03565b6001600160801b03806040518663ffffffff1660e01b8152600401612538959493929190615b4f565b60408051808303816000875af1158015612556573d6000803e3d6000fd5b505050506040513d601f19601f8201168201806040525081019061257a9190615b8c565b50505b82516000908152600160209081526040808320600285900b84529091529020546001600160801b031660e08401819052156125d4576125cf8360000151828560a001518660c001518760e001516142f2565b6125f6565b60208084015184516000908152600b90925260409091206125f6918390614378565b82516000908152600160209081526040808320600285900b84529091528120805489929061262e9084906001600160801b0316615b2f565b92506101000a8154816001600160801b0302191690836001600160801b0316021790555061266681846000015184866040015161414d565b5060208301516126769082615a03565b905061231c565b61268f8a8a8a8660200151600061373e565b50508251600090815260046020526040812088916126ae8c8c8b610eca565b81526020810191909152604001600090812060020180549091906126dc9084906001600160801b0316615b2f565b92506101000a8154816001600160801b0302191690836001600160801b03160217905550856001600160a01b0316826001600160a01b03167f7e1aa040ae22ae078b2e04d7e756a73671a8435cd8b72b0bd15f1cef372133d2898c8c604051612767939291906001600160801b03939093168352600291820b6020840152900b604082015260600190565b60405180910390a3505060016000555090969095509350505050565b600080856001600160a01b0316876001600160a01b0316106127a65785876127a9565b86865b9150915060008282876040516020016127c49392919061593c565b604051602081830303815290604052805190602001209050866001600160a01b0316886001600160a01b03160361282a5760405162461bcd60e51b815260206004820152600a60248201526939b0b6b2903a37b5b2b760b11b6044820152606401610989565b6001600160a01b0383161580159061284a57506001600160a01b03821615155b6128855760405162461bcd60e51b815260206004820152600c60248201526b7a65726f206164647265737360a01b6044820152606401610989565b6001600160a01b038381166000908152600a602090815260408083208685168452825280832062ffffff8b16845290915290205416156128f55760405162461bcd60e51b815260206004820152600b60248201526a706f6f6c2065786973747360a81b6044820152606401610989565b6001600160a01b038281166000908152600a602090815260408083208785168452825280832062ffffff8b16845290915290205416156129655760405162461bcd60e51b815260206004820152600b60248201526a706f6f6c2065786973747360a81b6044820152606401610989565b60008181526009602052604090205460020b156129b25760405162461bcd60e51b815260206004820152600b60248201526a7469636b2065786973747360a81b6044820152606401610989565b60008560020b138015612a315750886001600160a01b031663d0c93a7c6040518163ffffffff1660e01b8152600401602060405180830381865afa1580156129fe573d6000803e3d6000fd5b505050506040513d601f19601f82011682018060405250810190612a229190615c9b565b612a2c9086615c17565b60020b155b612a675760405162461bcd60e51b815260206004820152600760248201526673706163696e6760c81b6044820152606401610989565b88600a6000856001600160a01b03166001600160a01b031681526020019081526020016000206000846001600160a01b03166001600160a01b0316815260200190815260200160002060008862ffffff1662ffffff16815260200190815260200160002060006101000a8154816001600160a01b0302191690836001600160a01b0316021790555088600a6000846001600160a01b03166001600160a01b031681526020019081526020016000206000856001600160a01b03166001600160a01b0316815260200190815260200160002060008862ffffff1662ffffff16815260200190815260200160002060006101000a8154816001600160a01b0302191690836001600160a01b03160217905550846009600083815260200190815260200160002060006101000a81548162ffffff021916908360020b62ffffff1602179055506064600760008381526020019081526020016000208190555083600660008b6001600160a01b03166001600160a01b03168152602001908152602001600020600082015181600001600082015181600001556020820151816001015560408201518160020155606082015181600301556080820151816004015560a08201518160050155505060208201518160060155604082015181600701556060820151816008015560808201518160090160006101000a81548161ffff021916908361ffff16021790555060a082015181600a015560c082015181600b015590505088600c6000600d60009054906101000a900461ffff1661ffff16815260200190815260200160002060006101000a8154816001600160a01b0302191690836001600160a01b03160217905550600d600081819054906101000a900461ffff1680929190612cf490615cb8565b825461ffff9182166101009390930a928302919092021990911617905550600e54604051633eb4adab60e01b81526001600160a01b038581166004830152848116602483015290911690633eb4adab90604401600060405180830381600087803b158015612d6157600080fd5b505af1158015612d75573d6000803e3d6000fd5b505050600082815260086020526040908190207706f05b59d3b20000000000000000000000038d7ea4c6800081557706f05b59d3b20000000000000000000000b1a2bc2ec50000600190910155516332148f6760e01b8152606460048201526001600160a01b038b1691506332148f6790602401600060405180830381600087803b158015612e0357600080fd5b505af1158015612e17573d6000803e3d6000fd5b50505050505050505050505050565b600e5460009081906001600160a01b03163314612e555760405162461bcd60e51b815260040161098990615902565b6040805160a081018252600080825260208201819052918101829052606081018290526080810191909152612e926104cf36879003870187614f70565b60808201819052600090815260096020908152604082205460020b8352612f60918791600a9190612ec590840184614c4e565b6001600160a01b03166001600160a01b031681526020019081526020016000206000886020016020810190612efa9190614c4e565b6001600160a01b03166001600160a01b031681526020019081526020016000206000886040016020810190612f2f9190615921565b62ffffff168152602081019190915260400160002054608084015184516001600160a01b03909216918891906139c5565b9093509150505b9250929050565b60006060612f7a614950565b612f8c6104cf368a90038a018a614f70565b6040820152600a6000612fa260208b018b614c4e565b6001600160a01b03166001600160a01b031681526020019081526020016000206000896020016020810190612fd79190614c4e565b6001600160a01b03166001600160a01b03168152602001908152602001600020600089604001602081019061300c9190615921565b62ffffff1662ffffff16815260200190815260200160002060009054906101000a90046001600160a01b03166001600160a01b0316633850c7bd6040518163ffffffff1660e01b815260040160e060405180830381865afa158015613075573d6000803e3d6000fd5b505050506040513d601f19601f820116820180604052508101906130999190615cd9565b5050506001600160a01b0390931660208501819052604080860151905163225e631360e21b8152600b60048201528a15156024820152604481018c9052606481018a9052608481018d905260a481019290925260c482015273__$93dfed57e8f421caed97f24c336a056d51$__93506389798c4c925060e4019050600060405180830381865af4158015613131573d6000803e3d6000fd5b505050506040513d6000823e601f3d908101601f191682016040526131599190810190615d7b565b608084019190915260608301829052925086146131a25760405162461bcd60e51b815260206004820152600760248201526608585b5bdd5b9d60ca1b6044820152606401610989565b846131c957606081015160808201516131c491670de0b6b3a76400009061406f565b6131e6565b608081015160608201516131e691670de0b6b3a76400009061406f565b9250509550959350505050565b600061320182840184614c4e565b9050600080336001600160a01b0316630dfe16816040518163ffffffff1660e01b8152600401602060405180830381865afa158015613244573d6000803e3d6000fd5b505050506040513d601f19601f820116820180604052508101906132689190615e7d565b336001600160a01b031663d21220a76040518163ffffffff1660e01b8152600401602060405180830381865afa1580156132a6573d6000803e3d6000fd5b505050506040513d601f19601f820116820180604052508101906132ca9190615e7d565b909250905086156132e1576132e18284338a61441a565b85156132f3576132f38184338961441a565b50505050505050565b600d546060906000906133159060019061ffff16615e9a565b61ffff1690506000816001600160401b0381111561333557613335614cca565b60405190808252806020026020018201604052801561335e578160200160208202803683370190505b50905060005b8281101561207357600c600061337b8360016159f0565b815260200190815260200160002060009054906101000a90046001600160a01b03168282815181106133af576133af615a6f565b6001600160a01b0390921660209283029190910190910152806133d181615b16565b915050613364565b604051637058199160e01b8152600b6004820152600286810b602483015285810b604483015284900b6064820152821515608482015260a4810187905260c48101829052600090819073__$93dfed57e8f421caed97f24c336a056d51$__9063705819919060e4016040805180830381865af415801561345d573d6000803e3d6000fd5b505050506040513d601f19601f820116820180604052508101906134819190615eb5565b91509150965096945050505050565b600d546201000090046001600160a01b031633146134c05760405162461bcd60e51b815260040161098990615964565b600f8054911515600160b01b0260ff60b01b19909216919091179055565b60008060006134ec84610f17565b6000908152600860205260409020546001600160801b0380821696600160801b90920416945092505050565b600e546001600160a01b031633146135425760405162461bcd60e51b815260040161098990615902565b60006135566104cf36879003870187614f70565b90506000806000806000805b89518110156135a85789818151811061357d5761357d615a6f565b602002602001015160200151826135949190615b2f565b9150806135a081615b16565b915050613562565b5060005b8951811015613731576001600088815260200190815260200160002060008b83815181106135dc576135dc615a6f565b60200260200101516000015160020b60020b815260200190815260200160002060009054906101000a90046001600160801b031694506136568a828151811061362757613627615a6f565b6020026020010151602001516001600160801b0316836001600160801b03168a61406f9092919063ffffffff16565b9250613698838b838151811061366e5761366e615a6f565b60200260200101516040015161368491906159f0565b600160801b876001600160801b031661406f565b60008881526003602052604081208c51929650918c90849081106136be576136be615a6f565b60200260200101516000015160020b60020b81526020019081526020016000209550881561370557838660010160008282546136fa91906159f0565b9091555061371f9050565b8386600001600082825461371991906159f0565b90915550505b8061372981615b16565b9150506135ac565b5050505050505050505050565b6000806137a56040518061012001604052806000815260200160008152602001600081526020016000815260200160006001600160801b0316815260200160006001600160801b031681526020016000801916815260200160008152602001600081525090565b83156137b6576137b688888861449d565b6000600a816137c860208c018c614c4e565b6001600160a01b03166001600160a01b0316815260200190815260200160002060008a60200160208101906137fd9190614c4e565b6001600160a01b03166001600160a01b0316815260200190815260200160002060008a60400160208101906138329190615921565b62ffffff1681526020810191909152604001600020546001600160a01b031690506138656104cf368b90038b018b614f70565b60c083018190526000908152600460205260408120816138868b8b33610eca565b815260200190815260200160002090506138a68360c001518a8a8a610f57565b6020850152808452815460028301546138d19291909103906001600160801b0316600160801b61406f565b6001600160801b03908116608085015260018201546020850151600284015461390493929091039116600160801b61406f565b6001600160801b0390811660a0850152608084015116151580613934575060008360a001516001600160801b0316115b156139895760808301516002820180546001600160801b03600160801b8083048216909401811690930290831617905560a08401516003830180548084169092019092166001600160801b0319919091161790555b8251815560209092015160018301555060028101546003909101546001600160801b03600160801b909204821693501690509550959350505050565b6000828152600760209081526040808320546001600160a01b038816845260068352818420825160c08101845281548152600182015494810194909452600281015492840192909252600382015460608401526004820154608084015260059091015460a083015282918290815b8851811015613e10576001600089815260200190815260200160002060008a8381518110613a6357613a63615a6f565b6020908102919091018101515160020b82528101919091526040016000205489516001600160801b039091169350899082908110613aa357613aa3615a6f565b6020026020010151602001516001600160801b031684600260008b815260200190815260200160002060008c8581518110613ae057613ae0615a6f565b6020908102919091018101515160020b825281019190915260400160002054613b1291906001600160801b03166159f0565b613b1c91906159f0565b836001600160801b03161015613b605760405162461bcd60e51b815260206004820152600960248201526821776974686472617760b81b6044820152606401610989565b888181518110613b7257613b72615a6f565b602002602001015160200151600260008a815260200190815260200160002060008b8481518110613ba557613ba5615a6f565b6020908102919091018101515160020b825281019190915260400160009081208054909190613bde9084906001600160801b0316615b2f565b92506101000a8154816001600160801b0302191690836001600160801b031602179055506000808b6001600160a01b031663a34123a78c8581518110613c2657613c26615a6f565b6020026020010151600001518b8e8781518110613c4557613c45615a6f565b602002602001015160000151613c5b9190615a03565b8e8781518110613c6d57613c6d615a6f565b60209081029190910181015101516040516001600160e01b031960e086901b168152600293840b60048201529190920b60248201526001600160801b03909116604482015260640160408051808303816000875af1158015613cd3573d6000803e3d6000fd5b505050506040513d601f19601f82011682018060405250810190613cf79190615af2565b915091508b6001600160a01b0316634f1eb3d8308d8681518110613d1d57613d1d615a6f565b6020026020010151600001518c8f8881518110613d3c57613d3c615a6f565b602002602001015160000151613d529190615a03565b86866040518663ffffffff1660e01b8152600401613d74959493929190615b4f565b60408051808303816000875af1158015613d92573d6000803e3d6000fd5b505050506040513d601f19601f82011682018060405250810190613db69190615b8c565b50613dc3905082896159f0565b9750613dcf81886159f0565b9650613dfa8b8481518110613de657613de6615a6f565b6020026020010151600001518b8e8761414d565b5050508080613e0890615b16565b915050613a33565b50600085118015613e1f575083155b80613e33575084158015613e335750600084115b613e675760405162461bcd60e51b8152602060048201526005602482015264217469636b60d81b6044820152606401610989565b8415613e8457613e84613e7d60208c018c614c4e565b3387613eb1565b8315613ea457613ea4613e9d60408c0160208d01614c4e565b3386613eb1565b5050509550959350505050565b604080516001600160a01b038481166024830152604480830185905283518084039091018152606490920183526020820180516001600160e01b031663a9059cbb60e01b1790529151600092839290871691613f0d9190615ee4565b6000604051808303816000865af19150503d8060008114613f4a576040519150601f19603f3d011682016040523d82523d6000602084013e613f4f565b606091505b5091509150818015613f79575080511580613f79575080806020019051810190613f799190615f00565b613faa5760405162461bcd60e51b815260206004820152600260248201526114d560f21b6044820152606401610989565b5050505050565b600083801561405157600184168015613fcc57859250613fd0565b8392505b508260011c8460011c94505b841561404b578560801c15613ff057600080fd5b8586028181018181101561400357600080fd5b859004965050600185161561404057858302838782041461402957861561402957600080fd5b8181018181101561403957600080fd5b8590049350505b8460011c9450613fdc565b50614067565b8380156140615760009250614065565b8392505b505b509392505050565b60008080600019858709858702925082811083820303915050806000036140a8576000841161409d57600080fd5b508290049050610f10565b8084116140e05760405162461bcd60e51b815260206004820152600660248201526536bab62234bb60d11b6044820152606401610989565b6000848688096000868103871696879004966002600389028118808a02820302808a02820302808a02820302808a02820302808a02820302808a02909103029181900381900460010186841190950394909402919094039290920491909117919091029150509392505050565b61417160405180606001604052806000815260200160008152602001600081525090565b6001600160a01b0383166000908152600560209081526040808320600289810b808652918452828520898652600185528386208387528552838620548a87529185528386209286529190935292205482546001600160801b039283169290911690670de0b6b3a76400009061424c906141ea90836159f0565b670de0b6b3a764000061111e8760020154426142069190615a28565b670de0b6b3a764000073__$eacbb88ed4bd2af84aa4d43bcf675bcf7e$__6317b474bf8d8c600101546040518363ffffffff1660e01b81526004016110c4929190615a3b565b6142569190615a28565b80845560408051808201909152600d81526c0cee4deeee8d05ccee4deeee8d609b1b6020820152614286916147d0565b6001600160801b038116156142ba576142b56001600160801b0382811690670de0b6b3a764000090851661406f565b6142bd565b60005b600184018190554260028501819055604080516060810182529554865260208601929092529084015250909695505050505050565b6000858152600360209081526040808320600288900b8452909152902061432784600160801b6001600160801b03851661406f565b81600001600082825461433a91906159f0565b90915550614358905083600160801b6001600160801b03851661406f565b81600101600082825461436b91906159f0565b9091555050505050505050565b8060020b8260020b8161438d5761438d615c01565b0760020b1561439b57600080fd5b6000806143c98360020b8560020b816143b6576143b6615c01565b0560020b600881901d9161010090910790565b600191820b60009081526020979097526040909620805460ff9097169190911b90951890945550505050565b6060610f108383604051806060016040528060278152602001615f5360279139614819565b60006040516323b872dd60e01b81528460048201528360248201528260448201526020600060648360008a5af13d15601f3d1160016000511416171691505080613faa5760405162461bcd60e51b81526020600482015260146024820152731514905394d1915497d19493d357d1905253115160621b6044820152606401610989565b60006144b16104cf36869003860186614f70565b600081815260096020908152604082205492935060029290920b918591908190819081908190600a9082906144e8908e018e614c4e565b6001600160a01b03166001600160a01b0316815260200190815260200160002060008c602001602081019061451d9190614c4e565b6001600160a01b03166001600160a01b0316815260200190815260200160002060008c60400160208101906145529190615921565b62ffffff1681526020810191909152604001600020546001600160a01b031690505b8860020b8660020b121561373157600088815260016020908152604080832060028a900b84529091529020546001600160801b03161561463c576001600160a01b03811663a34123a7876145c88a82615a03565b6040516001600160e01b031960e085901b168152600292830b6004820152910b60248201526000604482015260640160408051808303816000875af1158015614615573d6000803e3d6000fd5b505050506040513d601f19601f820116820180604052508101906146399190615af2565b50505b6000806001600160a01b038316634f1eb3d8308a61465a8d82615a03565b6001600160801b03806040518663ffffffff1660e01b8152600401614683959493929190615b4f565b60408051808303816000875af11580156146a1573d6000803e3d6000fd5b505050506040513d601f19601f820116820180604052508101906146c59190615b8c565b91509150600360008b815260200190815260200160002060008960020b60020b81526020019081526020016000209650600160008b815260200190815260200160002060008960020b60020b815260200190815260200160002060009054906101000a90046001600160801b031693506000846001600160801b031611156147bc57614768826001600160801b0316600160801b866001600160801b031661406f565b87600001600082825461477b91906159f0565b925050819055506147a3816001600160801b0316600160801b866001600160801b031661406f565b8760010160008282546147b691906159f0565b90915550505b506147c990508787615a03565b9550614574565b61481582826040516024016147e6929190615f1d565b60408051601f198184030181529190526020810180516001600160e01b03166309710a9d60e41b179052614891565b5050565b6060600080856001600160a01b0316856040516148369190615ee4565b600060405180830381855af49150503d8060008114614871576040519150601f19603f3d011682016040523d82523d6000602084013e614876565b606091505b5091509150614887868383876148b2565b9695505050505050565b80516a636f6e736f6c652e6c6f67602083016000808483855afa5050505050565b6060831561492157825160000361491a576001600160a01b0385163b61491a5760405162461bcd60e51b815260206004820152601d60248201527f416464726573733a2063616c6c20746f206e6f6e2d636f6e74726163740000006044820152606401610989565b50816117f7565b6117f783838151156149365781518083602001fd5b8060405162461bcd60e51b81526004016109899190615f3f565b6040518061014001604052806000815260200160006001600160a01b031681526020016000801916815260200160008152602001600081526020016000815260200160008152602001600060020b81526020016149ab6149b8565b8152600060209091015290565b6040518060e001604052806149fc6040518060c001604052806000815260200160008152602001600081526020016000815260200160008152602001600081525090565b8152602001600081526020016000815260200160008152602001600061ffff16815260200160008152602001600081525090565b60405180610100016040528060008019168152602001600060020b8152602001614a896040518060c001604052806000815260200160008152602001600081526020016000815260200160008152602001600081525090565b81526020016000815260200160008152602001600081526020016000815260200160006001600160801b031681525090565b600060608284031215614acd57600080fd5b50919050565b8060020b8114614ae257600080fd5b50565b60008060008060c08587031215614afb57600080fd5b614b058686614abb565b93506060850135614b1581614ad3565b92506080850135614b2581614ad3565b915060a0850135614b3581614ad3565b939692955090935050565b8015158114614ae257600080fd5b600080600080600060e08688031215614b6657600080fd5b614b708787614abb565b9450606086013593506080860135925060a0860135614b8e81614b40565b9497939650919460c0013592915050565b600081518084526020808501945080840160005b83811015614c0f578151805160020b8852838101516001600160801b03168489015260408082015190890152606080820151908901526080808201519089015260a0908101519088015260c09096019590820190600101614bb3565b509495945050505050565b83815282602082015260606040820152600061112f6060830184614b9f565b6001600160a01b0381168114614ae257600080fd5b600060208284031215614c6057600080fd5b8135610f1081614c39565b803562ffffff81168114614c7e57600080fd5b919050565b600080600060608486031215614c9857600080fd5b8335614ca381614c39565b92506020840135614cb381614c39565b9150614cc160408501614c6b565b90509250925092565b634e487b7160e01b600052604160045260246000fd5b60405160c081016001600160401b0381118282101715614d0257614d02614cca565b60405290565b604051601f8201601f191681016001600160401b0381118282101715614d3057614d30614cca565b604052919050565b600060608284031215614d4a57600080fd5b604051606081018181106001600160401b0382111715614d6c57614d6c614cca565b6040529050808235614d7d81614c39565b81526020830135614d8d81614c39565b6020820152614d9e60408401614c6b565b60408201525092915050565b60008060808385031215614dbd57600080fd5b614dc78484614d38565b946060939093013593505050565b600080600060a08486031215614dea57600080fd5b614df48585614d38565b92506060840135614e0481614ad3565b91506080840135614e1481614ad3565b809150509250925092565b60008060408385031215614e3257600080fd5b823591506020830135614e4481614ad3565b809150509250929050565b600080600080600060e08688031215614e6757600080fd5b614e718787614d38565b976060870135975060808701359660a0810135965060c00135945092505050565b600060208284031215614ea457600080fd5b8135610f1081614b40565b600080600060608486031215614ec457600080fd5b8335614ecf81614ad3565b92506020840135614edf81614ad3565b91506040840135614e1481614c39565b805182526020810151602083015260408101516040830152606081015160608301526080810151608083015260a081015160a08301525050565b6101808101614f38828a614eef565b8760c08301528660e08301528561010083015261ffff8516610120830152836101408301528261016083015298975050505050505050565b600060608284031215614f8257600080fd5b610f108383614d38565b60008060408385031215614f9f57600080fd5b50508035926020909101359150565b60008060008060808587031215614fc457600080fd5b843593506020850135614fd681614ad3565b92506040850135614fe681614ad3565b91506060850135614b3581614ad3565b60006020828403121561500857600080fd5b5035919050565b600060c0828403121561502157600080fd5b615029614ce0565b9050813581526020820135602082015260408201356040820152606082013560608201526080820135608082015260a082013560a082015292915050565b6000806000610100848603121561507d57600080fd5b833561508881614c39565b9250602084013561509881614ad3565b9150614cc1856040860161500f565b60006001600160401b038211156150c0576150c0614cca565b5060051b60200190565b6001600160801b0381168114614ae257600080fd5b600082601f8301126150f057600080fd5b81356020615105615100836150a7565b614d08565b82815260c0928302850182019282820191908785111561512457600080fd5b8387015b8581101561519b5781818a0312156151405760008081fd5b615148614ce0565b813561515381614ad3565b815281860135615162816150ca565b8187015260408281013590820152606080830135908201526080808301359082015260a080830135908201528452928401928101615128565b5090979650505050505050565b600080600060a084860312156151bd57600080fd5b6151c78585614abb565b925060608401356001600160401b038111156151e257600080fd5b6151ee868287016150df565b9250506080840135614e1481614c39565b6000806040838503121561521257600080fd5b823561521d81614c39565b91506020830135614e4481614ad3565b61ffff81168114614ae257600080fd5b6000610180828403121561525057600080fd5b60405160e081018181106001600160401b038211171561527257615272614cca565b604052905080615282848461500f565b815260c0830135602082015260e0830135604082015261010083013560608201526101208301356152b28161522d565b8060808301525061014083013560a082015261016083013560c08201525092915050565b6000806101a083850312156152ea57600080fd5b82356152f581614c39565b9150615304846020850161523d565b90509250929050565b60006060828403121561531f57600080fd5b610f108383614abb565b6001600160a01b0384168152600283900b602082015281516101c0820190615355906040840190614eef565b60208301516101008301526040830151610120830152606083015161014083015261ffff60808401511661016083015260a083015161018083015260c08301516101a0830152949350505050565b600080604083850312156153b657600080fd5b8235915060208301358060010b8114614e4457600080fd5b60008060008060c085870312156153e457600080fd5b6153ee8686614abb565b935060608501356153fe81614ad3565b9250608085013561540e81614ad3565b915060a0850135614b3581614c39565b60008060008060c0858703121561543457600080fd5b61543e8686614abb565b9350606085013561544e81614ad3565b9250608085013561545e81614ad3565b915060a0850135614b35816150ca565b6000806000806080858703121561548457600080fd5b843561548f81614c39565b9350602085013561549f81614c39565b925060408501356154af81614c39565b91506060850135614b3581614c39565b600080602083850312156154d257600080fd5b82356001600160401b03808211156154e957600080fd5b818501915085601f8301126154fd57600080fd5b81358181111561550c57600080fd5b8660208260051b850101111561552157600080fd5b60209290920196919550909350505050565b60005b8381101561554e578181015183820152602001615536565b50506000910152565b6000815180845261556f816020860160208601615533565b601f01601f19169290920160200192915050565b6000602080830181845280855180835260408601915060408160051b870101925083870160005b828110156155d857603f198886030184526155c6858351615557565b945092850192908501906001016155aa565b5092979650505050505050565b600080600080600060e086880312156155fd57600080fd5b6156078787614abb565b9450606086013561561781614ad3565b9350608086013561562781614ad3565b925060a0860135615637816150ca565b915060c086013561564781614c39565b809150509295509295909350565b600080600080600080610220878903121561566f57600080fd5b863561567a81614c39565b9550602087013561568a81614c39565b9450604087013561569a81614c39565b93506156a860608801614c6b565b925060808701356156b881614ad3565b91506156c78860a0890161523d565b90509295509295509295565b600080608083850312156156e657600080fd5b6156f08484614abb565b915060608301356001600160401b0381111561570b57600080fd5b615717858286016150df565b9150509250929050565b8281526040602082015260006117f76040830184614b9f565b6000806000806060858703121561575057600080fd5b843593506020850135925060408501356001600160401b038082111561577557600080fd5b818701915087601f83011261578957600080fd5b81358181111561579857600080fd5b8860208285010111156157aa57600080fd5b95989497505060200194505050565b6020808252825182820181905260009190848201906040850190845b818110156157fa5783516001600160a01b0316835292840192918401916001016157d5565b50909695505050505050565b60008060008060008060c0878903121561581f57600080fd5b86359550602087013561583181614ad3565b9450604087013561584181614ad3565b9350606087013561585181614ad3565b9250608087013561586181614b40565b8092505060a087013590509295509295509295565b60008060008060c0858703121561588c57600080fd5b6158968686614abb565b935060608501356001600160401b038111156158b157600080fd5b6158bd878288016150df565b93505060808501356158ce81614b40565b9396929550929360a00135925050565b6020808252600a90820152695245454e5452414e435960b01b604082015260600190565b602080825260059082015264042c2eae8d60db1b604082015260600190565b60006020828403121561593357600080fd5b610f1082614c6b565b6001600160a01b03938416815291909216602082015262ffffff909116604082015260600190565b60208082526006908201526510b7bbb732b960d11b604082015260600190565b6020808252600690820152651c185d5cd95960d21b604082015260600190565b6020808252600190820152600760fc1b604082015260600190565b6020808252600190820152606960f81b604082015260600190565b634e487b7160e01b600052601160045260246000fd5b80820180821115612075576120756159da565b600281810b9083900b01627fffff8113627fffff1982121715612075576120756159da565b81810381811115612075576120756159da565b60e08101615a498285614eef565b8260c08301529392505050565b600060208284031215615a6857600080fd5b5051919050565b634e487b7160e01b600052603260045260246000fd5b6001600160801b03828116828216039080821115612073576120736159da565b60018060a01b03861681528460020b60208201528360020b60408201526001600160801b038316606082015260a060808201526000615ae760a0830184615557565b979650505050505050565b60008060408385031215615b0557600080fd5b505080516020909101519092909150565b600060018201615b2857615b286159da565b5060010190565b6001600160801b03818116838216019080821115612073576120736159da565b6001600160a01b03959095168552600293840b60208601529190920b60408401526001600160801b03918216606084015216608082015260a00190565b60008060408385031215615b9f57600080fd5b8251615baa816150ca565b6020840151909250614e44816150ca565b6000808335601e19843603018112615bd257600080fd5b8301803591506001600160401b03821115615bec57600080fd5b602001915036819003821315612f6757600080fd5b634e487b7160e01b600052601260045260246000fd5b60008260020b80615c3857634e487b7160e01b600052601260045260246000fd5b808360020b0791505092915050565b600080600080600060a08688031215615c5f57600080fd5b8551615c6a816150ca565b8095505060208601519350604086015192506060860151615c8a816150ca565b6080870151909250615647816150ca565b600060208284031215615cad57600080fd5b8151610f1081614ad3565b600061ffff808316818103615ccf57615ccf6159da565b6001019392505050565b600080600080600080600060e0888a031215615cf457600080fd5b8751615cff81614c39565b6020890151909750615d1081614ad3565b6040890151909650615d218161522d565b6060890151909550615d328161522d565b6080890151909450615d438161522d565b60a089015190935060ff81168114615d5a57600080fd5b60c0890151909250615d6b81614b40565b8091505092959891949750929550565b60008060006060808587031215615d9157600080fd5b8451935060208086015193506040808701516001600160401b03811115615db757600080fd5b8701601f81018913615dc857600080fd5b8051615dd6615100826150a7565b81815260c0918202830185019185820191908c841115615df557600080fd5b938601935b83851015615e6b5780858e031215615e125760008081fd5b615e1a614ce0565b8551615e2581614ad3565b815285880151615e34816150ca565b81890152858701518782015288860151898201526080808701519082015260a0808701519082015283529384019391860191615dfa565b50809750505050505050509250925092565b600060208284031215615e8f57600080fd5b8151610f1081614c39565b61ffff828116828216039080821115612073576120736159da565b60008060408385031215615ec857600080fd5b8251615ed381614ad3565b6020840151909250614e4481614b40565b60008251615ef6818460208701615533565b9190910192915050565b600060208284031215615f1257600080fd5b8151610f1081614b40565b604081526000615f306040830185615557565b90508260208301529392505050565b602081526000610f10602083018461555756fe416464726573733a206c6f772d6c6576656c2064656c65676174652063616c6c206661696c6564a2646970667358221220ccc0ea8c30cbdacb035cfd45696d4b5bfde27608dab242f7fa2451312d7ffcd964736f6c63430008150033",
    "linkReferences": {
      "src/MatchingEngine.sol": {
        "MatchingEngine": [
          {
            "start": 12610,
            "length": 20
          },
          {
            "start": 13427,
            "length": 20
          }
        ]
      },
      "src/PremiumComputer.sol": {
        "PremiumComputer": [
          {
            "start": 4330,
            "length": 20
          },
          {
            "start": 16992,
            "length": 20
          }
        ]
      }
    }
  },
  "methodIdentifiers": {
    "Interests(bytes32,int24)": "d7a3dca0",
    "LiquidityBin(bytes32,int24)": "da69b0b3",
    "LiquidityPositions(bytes32,bytes32)": "5955cad3",
    "PoolParams(address)": "45e61a4d",
    "UtilizationGrowths(address,int24)": "6fc280e1",
    "addPool(address,address,address,uint24,int24,((uint256,uint256,uint256,uint256,uint256,uint256),uint256,uint256,uint256,uint16,uint256,uint256))": "b9a402a5",
    "binBitmaps(bytes32,int16)": "9744a42d",
    "borrowedLiquidities(bytes32,int24)": "19fda277",
    "collectFees((address,address,uint24),int24,int24)": "19fa1033",
    "feeParams(bytes32)": "c6c2c2ca",
    "findAndWithdraw((address,address,uint24),uint256,uint256,bool,uint256)": "0ea50f50",
    "findNearestInitializedBin(bytes32,int24,int24,int24,bool,uint256)": "d5783953",
    "findTicks((address,address,uint24),uint256,uint256,bool,uint256)": "d069f1ac",
    "getFeeParams((address,address,uint24))": "f2d490a5",
    "getGrowth(address,int24,(uint256,uint256,uint256,uint256,uint256,uint256))": "68335691",
    "getHashedKey((address,address,uint24))": "48222442",
    "getHashedPositionKey(int24,int24,address)": "406a3d02",
    "getInterestGrowthInside(bytes32,int24,int24,int24)": "5ea33ec5",
    "getLiquidityPosition((address,address,uint24),int24,int24,address)": "a8404655",
    "getParams((address,address,uint24))": "95250923",
    "getPool(address,address,uint24)": "1698ee82",
    "getPoolList()": "d41dcbea",
    "getProfitFee((address,address,uint24))": "b75323a7",
    "marginFacility()": "a882c12d",
    "minLiquidities(bytes32)": "a841fdd8",
    "mintToRepay((address,address,uint24),(int24,uint128,uint256,uint256,uint256,uint256)[],address)": "6cb42a2f",
    "multicall(bytes[])": "ac9650d8",
    "owner()": "8da5cb5b",
    "payInterest((address,address,uint24),(int24,uint128,uint256,uint256,uint256,uint256)[],bool,uint256)": "fc6e9cbf",
    "provideDiscreteLiquidity((address,address,uint24),int24,int24,uint128,address)": "b8919fa6",
    "setCollectPaused(bool)": "dc724d3a",
    "setFacilities(address,address,address,address)": "ac00b809",
    "setMinLiquidity((address,address,uint24),uint256)": "18cdea9d",
    "setOwner(address)": "13af4035",
    "setProvidePaused(bool)": "25f149ce",
    "setWithdrawPaused(bool)": "37d15139",
    "tickDiscretizations(bytes32)": "65197688",
    "uniswapFactory()": "8bdb2afa",
    "uniswapV3MintCallback(uint256,uint256,bytes)": "d3487997",
    "updateCollectedFees((address,address,uint24),int24,int24,int24)": "0229fb60",
    "updateFeeParams((address,address,uint24),uint256,uint256,uint256,uint256)": "2398c1a9",
    "updatePoolParams(address,((uint256,uint256,uint256,uint256,uint256,uint256),uint256,uint256,uint256,uint16,uint256,uint256))": "895f4ade",
    "withdrawDiscreteLiquidity((address,address,uint24),int24,int24,uint128)": "abf978e4",
    "withdrawToBorrow((address,address,uint24),(int24,uint128,uint256,uint256,uint256,uint256)[])": "bbd95472"
  },
  "id": 45
}