{
  "abi": [
    {
      "inputs": [],
      "stateMutability": "nonpayable",
      "type": "constructor"
    },
    {
      "anonymous": false,
      "inputs": [
        {
          "indexed": true,
          "internalType": "address",
          "name": "pool",
          "type": "address"
        },
        {
          "indexed": true,
          "internalType": "address",
          "name": "recipient",
          "type": "address"
        },
        {
          "indexed": false,
          "internalType": "int24",
          "name": "tickLower",
          "type": "int24"
        },
        {
          "indexed": false,
          "internalType": "int24",
          "name": "tickUpper",
          "type": "int24"
        },
        {
          "indexed": false,
          "internalType": "uint256",
          "name": "premium0",
          "type": "uint256"
        },
        {
          "indexed": false,
          "internalType": "uint256",
          "name": "premium1",
          "type": "uint256"
        }
      ],
      "name": "CollectedFees",
      "type": "event"
    },
    {
      "anonymous": false,
      "inputs": [
        {
          "indexed": true,
          "internalType": "address",
          "name": "pool",
          "type": "address"
        },
        {
          "indexed": true,
          "internalType": "address",
          "name": "recipient",
          "type": "address"
        },
        {
          "indexed": false,
          "internalType": "uint128",
          "name": "liquidity",
          "type": "uint128"
        },
        {
          "indexed": false,
          "internalType": "int24",
          "name": "tickLower",
          "type": "int24"
        },
        {
          "indexed": false,
          "internalType": "int24",
          "name": "tickUpper",
          "type": "int24"
        }
      ],
      "name": "LiquidityProvided",
      "type": "event"
    },
    {
      "anonymous": false,
      "inputs": [
        {
          "indexed": true,
          "internalType": "address",
          "name": "pool",
          "type": "address"
        },
        {
          "indexed": true,
          "internalType": "address",
          "name": "recipient",
          "type": "address"
        },
        {
          "indexed": false,
          "internalType": "uint128",
          "name": "liquidity",
          "type": "uint128"
        },
        {
          "indexed": false,
          "internalType": "int24",
          "name": "tickLower",
          "type": "int24"
        },
        {
          "indexed": false,
          "internalType": "int24",
          "name": "tickUpper",
          "type": "int24"
        }
      ],
      "name": "LiquidityWithdrawn",
      "type": "event"
    },
    {
      "inputs": [
        {
          "internalType": "bytes32",
          "name": "",
          "type": "bytes32"
        },
        {
          "internalType": "int24",
          "name": "",
          "type": "int24"
        }
      ],
      "name": "Interests",
      "outputs": [
        {
          "internalType": "uint256",
          "name": "interest0",
          "type": "uint256"
        },
        {
          "internalType": "uint256",
          "name": "interest1",
          "type": "uint256"
        },
        {
          "internalType": "uint256",
          "name": "shortChange0",
          "type": "uint256"
        },
        {
          "internalType": "uint256",
          "name": "shortChange1",
          "type": "uint256"
        }
      ],
      "stateMutability": "view",
      "type": "function"
    },
    {
      "inputs": [
        {
          "internalType": "bytes32",
          "name": "",
          "type": "bytes32"
        },
        {
          "internalType": "int24",
          "name": "",
          "type": "int24"
        }
      ],
      "name": "LiquidityBin",
      "outputs": [
        {
          "internalType": "uint128",
          "name": "",
          "type": "uint128"
        }
      ],
      "stateMutability": "view",
      "type": "function"
    },
    {
      "inputs": [
        {
          "internalType": "bytes32",
          "name": "",
          "type": "bytes32"
        },
        {
          "internalType": "bytes32",
          "name": "",
          "type": "bytes32"
        }
      ],
      "name": "LiquidityPositions",
      "outputs": [
        {
          "internalType": "uint256",
          "name": "totalFeeGrowthInside0LastX128",
          "type": "uint256"
        },
        {
          "internalType": "uint256",
          "name": "totalFeeGrowthInside1LastX128",
          "type": "uint256"
        },
        {
          "internalType": "uint128",
          "name": "amount",
          "type": "uint128"
        },
        {
          "internalType": "uint128",
          "name": "tokensOwed0",
          "type": "uint128"
        },
        {
          "internalType": "uint128",
          "name": "tokensOwed1",
          "type": "uint128"
        }
      ],
      "stateMutability": "view",
      "type": "function"
    },
    {
      "inputs": [
        {
          "internalType": "address",
          "name": "",
          "type": "address"
        }
      ],
      "name": "PoolParams",
      "outputs": [
        {
          "components": [
            {
              "internalType": "uint256",
              "name": "pivotRate",
              "type": "uint256"
            },
            {
              "internalType": "uint256",
              "name": "slope1",
              "type": "uint256"
            },
            {
              "internalType": "uint256",
              "name": "intercept1",
              "type": "uint256"
            },
            {
              "internalType": "uint256",
              "name": "slope2",
              "type": "uint256"
            },
            {
              "internalType": "uint256",
              "name": "intercept2",
              "type": "uint256"
            },
            {
              "internalType": "uint256",
              "name": "twatDiffScale",
              "type": "uint256"
            }
          ],
          "internalType": "struct URateParam",
          "name": "uParam",
          "type": "tuple"
        },
        {
          "internalType": "uint256",
          "name": "maxURate",
          "type": "uint256"
        },
        {
          "internalType": "uint256",
          "name": "maxSearchRight",
          "type": "uint256"
        },
        {
          "internalType": "uint256",
          "name": "maxSearchLeft",
          "type": "uint256"
        },
        {
          "internalType": "uint16",
          "name": "poolId",
          "type": "uint16"
        },
        {
          "internalType": "uint256",
          "name": "MIN_PREMIUM_DEPOSIT",
          "type": "uint256"
        },
        {
          "internalType": "uint256",
          "name": "REPAY_THRESHOLD",
          "type": "uint256"
        }
      ],
      "stateMutability": "view",
      "type": "function"
    },
    {
      "inputs": [
        {
          "internalType": "address",
          "name": "",
          "type": "address"
        },
        {
          "internalType": "int24",
          "name": "",
          "type": "int24"
        }
      ],
      "name": "UtilizationGrowths",
      "outputs": [
        {
          "internalType": "uint256",
          "name": "growth",
          "type": "uint256"
        },
        {
          "internalType": "uint256",
          "name": "lastURate",
          "type": "uint256"
        },
        {
          "internalType": "uint256",
          "name": "lastUpdateTime",
          "type": "uint256"
        }
      ],
      "stateMutability": "view",
      "type": "function"
    },
    {
      "inputs": [
        {
          "internalType": "address",
          "name": "pool",
          "type": "address"
        },
        {
          "internalType": "address",
          "name": "tokenA",
          "type": "address"
        },
        {
          "internalType": "address",
          "name": "tokenB",
          "type": "address"
        },
        {
          "internalType": "uint24",
          "name": "fee",
          "type": "uint24"
        },
        {
          "internalType": "int24",
          "name": "tickDiscretization",
          "type": "int24"
        },
        {
          "components": [
            {
              "components": [
                {
                  "internalType": "uint256",
                  "name": "pivotRate",
                  "type": "uint256"
                },
                {
                  "internalType": "uint256",
                  "name": "slope1",
                  "type": "uint256"
                },
                {
                  "internalType": "uint256",
                  "name": "intercept1",
                  "type": "uint256"
                },
                {
                  "internalType": "uint256",
                  "name": "slope2",
                  "type": "uint256"
                },
                {
                  "internalType": "uint256",
                  "name": "intercept2",
                  "type": "uint256"
                },
                {
                  "internalType": "uint256",
                  "name": "twatDiffScale",
                  "type": "uint256"
                }
              ],
              "internalType": "struct URateParam",
              "name": "uParam",
              "type": "tuple"
            },
            {
              "internalType": "uint256",
              "name": "maxURate",
              "type": "uint256"
            },
            {
              "internalType": "uint256",
              "name": "maxSearchRight",
              "type": "uint256"
            },
            {
              "internalType": "uint256",
              "name": "maxSearchLeft",
              "type": "uint256"
            },
            {
              "internalType": "uint16",
              "name": "poolId",
              "type": "uint16"
            },
            {
              "internalType": "uint256",
              "name": "MIN_PREMIUM_DEPOSIT",
              "type": "uint256"
            },
            {
              "internalType": "uint256",
              "name": "REPAY_THRESHOLD",
              "type": "uint256"
            }
          ],
          "internalType": "struct PoolParam",
          "name": "param",
          "type": "tuple"
        }
      ],
      "name": "addPool",
      "outputs": [],
      "stateMutability": "nonpayable",
      "type": "function"
    },
    {
      "inputs": [
        {
          "internalType": "bytes32",
          "name": "",
          "type": "bytes32"
        },
        {
          "internalType": "int16",
          "name": "",
          "type": "int16"
        }
      ],
      "name": "binBitmaps",
      "outputs": [
        {
          "internalType": "uint256",
          "name": "",
          "type": "uint256"
        }
      ],
      "stateMutability": "view",
      "type": "function"
    },
    {
      "inputs": [
        {
          "internalType": "bytes32",
          "name": "",
          "type": "bytes32"
        },
        {
          "internalType": "int24",
          "name": "",
          "type": "int24"
        }
      ],
      "name": "borrowedLiquidities",
      "outputs": [
        {
          "internalType": "uint128",
          "name": "",
          "type": "uint128"
        }
      ],
      "stateMutability": "view",
      "type": "function"
    },
    {
      "inputs": [
        {
          "components": [
            {
              "internalType": "address",
              "name": "token0",
              "type": "address"
            },
            {
              "internalType": "address",
              "name": "token1",
              "type": "address"
            },
            {
              "internalType": "uint24",
              "name": "fee",
              "type": "uint24"
            }
          ],
          "internalType": "struct PoolKey",
          "name": "key",
          "type": "tuple"
        },
        {
          "internalType": "int24",
          "name": "tickLower",
          "type": "int24"
        },
        {
          "internalType": "int24",
          "name": "tickUpper",
          "type": "int24"
        }
      ],
      "name": "collectFees",
      "outputs": [
        {
          "internalType": "uint128",
          "name": "",
          "type": "uint128"
        },
        {
          "internalType": "uint128",
          "name": "",
          "type": "uint128"
        }
      ],
      "stateMutability": "nonpayable",
      "type": "function"
    },
    {
      "inputs": [
        {
          "internalType": "bytes32",
          "name": "",
          "type": "bytes32"
        }
      ],
      "name": "feeParams",
      "outputs": [
        {
          "internalType": "uint128",
          "name": "openFee",
          "type": "uint128"
        },
        {
          "internalType": "uint128",
          "name": "feeToPool",
          "type": "uint128"
        },
        {
          "internalType": "uint128",
          "name": "profitFee",
          "type": "uint128"
        },
        {
          "internalType": "uint128",
          "name": "profitFeeToPool",
          "type": "uint128"
        }
      ],
      "stateMutability": "view",
      "type": "function"
    },
    {
      "inputs": [
        {
          "components": [
            {
              "internalType": "address",
              "name": "token0",
              "type": "address"
            },
            {
              "internalType": "address",
              "name": "token1",
              "type": "address"
            },
            {
              "internalType": "uint24",
              "name": "fee",
              "type": "uint24"
            }
          ],
          "internalType": "struct PoolKey",
          "name": "key",
          "type": "tuple"
        },
        {
          "internalType": "uint256",
          "name": "margin",
          "type": "uint256"
        },
        {
          "internalType": "uint256",
          "name": "borrowAmount",
          "type": "uint256"
        },
        {
          "internalType": "bool",
          "name": "borrowBelow",
          "type": "bool"
        },
        {
          "internalType": "uint256",
          "name": "simulatedOutput",
          "type": "uint256"
        }
      ],
      "name": "findAndWithdraw",
      "outputs": [
        {
          "internalType": "uint256",
          "name": "totalAmount0",
          "type": "uint256"
        },
        {
          "internalType": "uint256",
          "name": "totalAmount1",
          "type": "uint256"
        },
        {
          "components": [
            {
              "internalType": "int24",
              "name": "tick",
              "type": "int24"
            },
            {
              "internalType": "uint128",
              "name": "liquidity",
              "type": "uint128"
            },
            {
              "internalType": "uint256",
              "name": "premium",
              "type": "uint256"
            },
            {
              "internalType": "uint256",
              "name": "feeGrowthInside0LastX128",
              "type": "uint256"
            },
            {
              "internalType": "uint256",
              "name": "feeGrowthInside1LastX128",
              "type": "uint256"
            },
            {
              "internalType": "uint256",
              "name": "lastGrowth",
              "type": "uint256"
            }
          ],
          "internalType": "struct LiquidityLoan[]",
          "name": "borrowInfo",
          "type": "tuple[]"
        }
      ],
      "stateMutability": "nonpayable",
      "type": "function"
    },
    {
      "inputs": [
        {
          "internalType": "bytes32",
          "name": "id",
          "type": "bytes32"
        },
        {
          "internalType": "int24",
          "name": "startingTick",
          "type": "int24"
        },
        {
          "internalType": "int24",
          "name": "finishTick",
          "type": "int24"
        },
        {
          "internalType": "int24",
          "name": "binSize",
          "type": "int24"
        },
        {
          "internalType": "bool",
          "name": "lte",
          "type": "bool"
        },
        {
          "internalType": "uint256",
          "name": "n",
          "type": "uint256"
        }
      ],
      "name": "findNearestInitializedBin",
      "outputs": [
        {
          "internalType": "int24",
          "name": "nextTick",
          "type": "int24"
        },
        {
          "internalType": "bool",
          "name": "success",
          "type": "bool"
        }
      ],
      "stateMutability": "view",
      "type": "function"
    },
    {
      "inputs": [
        {
          "components": [
            {
              "internalType": "address",
              "name": "token0",
              "type": "address"
            },
            {
              "internalType": "address",
              "name": "token1",
              "type": "address"
            },
            {
              "internalType": "uint24",
              "name": "fee",
              "type": "uint24"
            }
          ],
          "internalType": "struct PoolKey",
          "name": "key",
          "type": "tuple"
        },
        {
          "internalType": "uint256",
          "name": "margin",
          "type": "uint256"
        },
        {
          "internalType": "uint256",
          "name": "borrowAmount",
          "type": "uint256"
        },
        {
          "internalType": "bool",
          "name": "borrowBelow",
          "type": "bool"
        },
        {
          "internalType": "uint256",
          "name": "simulatedOutput",
          "type": "uint256"
        }
      ],
      "name": "findTicks",
      "outputs": [
        {
          "internalType": "uint256",
          "name": "averagePrice",
          "type": "uint256"
        },
        {
          "components": [
            {
              "internalType": "int24",
              "name": "tick",
              "type": "int24"
            },
            {
              "internalType": "uint128",
              "name": "liquidity",
              "type": "uint128"
            },
            {
              "internalType": "uint256",
              "name": "premium",
              "type": "uint256"
            },
            {
              "internalType": "uint256",
              "name": "feeGrowthInside0LastX128",
              "type": "uint256"
            },
            {
              "internalType": "uint256",
              "name": "feeGrowthInside1LastX128",
              "type": "uint256"
            },
            {
              "internalType": "uint256",
              "name": "lastGrowth",
              "type": "uint256"
            }
          ],
          "internalType": "struct LiquidityLoan[]",
          "name": "borrowInfo",
          "type": "tuple[]"
        }
      ],
      "stateMutability": "view",
      "type": "function"
    },
    {
      "inputs": [
        {
          "components": [
            {
              "internalType": "address",
              "name": "token0",
              "type": "address"
            },
            {
              "internalType": "address",
              "name": "token1",
              "type": "address"
            },
            {
              "internalType": "uint24",
              "name": "fee",
              "type": "uint24"
            }
          ],
          "internalType": "struct PoolKey",
          "name": "key",
          "type": "tuple"
        }
      ],
      "name": "getFeeParams",
      "outputs": [
        {
          "internalType": "uint256",
          "name": "",
          "type": "uint256"
        },
        {
          "internalType": "uint256",
          "name": "",
          "type": "uint256"
        }
      ],
      "stateMutability": "nonpayable",
      "type": "function"
    },
    {
      "inputs": [
        {
          "internalType": "address",
          "name": "pool",
          "type": "address"
        },
        {
          "internalType": "int24",
          "name": "tick",
          "type": "int24"
        },
        {
          "components": [
            {
              "internalType": "uint256",
              "name": "pivotRate",
              "type": "uint256"
            },
            {
              "internalType": "uint256",
              "name": "slope1",
              "type": "uint256"
            },
            {
              "internalType": "uint256",
              "name": "intercept1",
              "type": "uint256"
            },
            {
              "internalType": "uint256",
              "name": "slope2",
              "type": "uint256"
            },
            {
              "internalType": "uint256",
              "name": "intercept2",
              "type": "uint256"
            },
            {
              "internalType": "uint256",
              "name": "twatDiffScale",
              "type": "uint256"
            }
          ],
          "internalType": "struct URateParam",
          "name": "param",
          "type": "tuple"
        }
      ],
      "name": "getGrowth",
      "outputs": [
        {
          "internalType": "uint256",
          "name": "",
          "type": "uint256"
        }
      ],
      "stateMutability": "view",
      "type": "function"
    },
    {
      "inputs": [
        {
          "components": [
            {
              "internalType": "address",
              "name": "token0",
              "type": "address"
            },
            {
              "internalType": "address",
              "name": "token1",
              "type": "address"
            },
            {
              "internalType": "uint24",
              "name": "fee",
              "type": "uint24"
            }
          ],
          "internalType": "struct PoolKey",
          "name": "key",
          "type": "tuple"
        }
      ],
      "name": "getHashedKey",
      "outputs": [
        {
          "internalType": "bytes32",
          "name": "",
          "type": "bytes32"
        }
      ],
      "stateMutability": "pure",
      "type": "function"
    },
    {
      "inputs": [
        {
          "internalType": "int24",
          "name": "tickLower",
          "type": "int24"
        },
        {
          "internalType": "int24",
          "name": "tickUpper",
          "type": "int24"
        },
        {
          "internalType": "address",
          "name": "owner",
          "type": "address"
        }
      ],
      "name": "getHashedPositionKey",
      "outputs": [
        {
          "internalType": "bytes32",
          "name": "",
          "type": "bytes32"
        }
      ],
      "stateMutability": "pure",
      "type": "function"
    },
    {
      "inputs": [
        {
          "internalType": "bytes32",
          "name": "hashedKey",
          "type": "bytes32"
        },
        {
          "internalType": "int24",
          "name": "tickLower",
          "type": "int24"
        },
        {
          "internalType": "int24",
          "name": "tickUpper",
          "type": "int24"
        },
        {
          "internalType": "int24",
          "name": "tickDiscretization",
          "type": "int24"
        }
      ],
      "name": "getInterestGrowthInside",
      "outputs": [
        {
          "internalType": "uint256",
          "name": "interest0",
          "type": "uint256"
        },
        {
          "internalType": "uint256",
          "name": "interest1",
          "type": "uint256"
        }
      ],
      "stateMutability": "view",
      "type": "function"
    },
    {
      "inputs": [
        {
          "components": [
            {
              "internalType": "address",
              "name": "token0",
              "type": "address"
            },
            {
              "internalType": "address",
              "name": "token1",
              "type": "address"
            },
            {
              "internalType": "uint24",
              "name": "fee",
              "type": "uint24"
            }
          ],
          "internalType": "struct PoolKey",
          "name": "key",
          "type": "tuple"
        },
        {
          "internalType": "int24",
          "name": "tickLower",
          "type": "int24"
        },
        {
          "internalType": "int24",
          "name": "tickUpper",
          "type": "int24"
        },
        {
          "internalType": "address",
          "name": "owner",
          "type": "address"
        }
      ],
      "name": "getLiquidityPosition",
      "outputs": [
        {
          "components": [
            {
              "internalType": "uint256",
              "name": "totalFeeGrowthInside0LastX128",
              "type": "uint256"
            },
            {
              "internalType": "uint256",
              "name": "totalFeeGrowthInside1LastX128",
              "type": "uint256"
            },
            {
              "internalType": "uint128",
              "name": "amount",
              "type": "uint128"
            },
            {
              "internalType": "uint128",
              "name": "tokensOwed0",
              "type": "uint128"
            },
            {
              "internalType": "uint128",
              "name": "tokensOwed1",
              "type": "uint128"
            }
          ],
          "internalType": "struct UniswapPosition",
          "name": "",
          "type": "tuple"
        }
      ],
      "stateMutability": "view",
      "type": "function"
    },
    {
      "inputs": [
        {
          "components": [
            {
              "internalType": "address",
              "name": "token0",
              "type": "address"
            },
            {
              "internalType": "address",
              "name": "token1",
              "type": "address"
            },
            {
              "internalType": "uint24",
              "name": "fee",
              "type": "uint24"
            }
          ],
          "internalType": "struct PoolKey",
          "name": "key",
          "type": "tuple"
        }
      ],
      "name": "getParams",
      "outputs": [
        {
          "internalType": "address",
          "name": "pool",
          "type": "address"
        },
        {
          "internalType": "int24",
          "name": "tickDiscretization",
          "type": "int24"
        },
        {
          "components": [
            {
              "components": [
                {
                  "internalType": "uint256",
                  "name": "pivotRate",
                  "type": "uint256"
                },
                {
                  "internalType": "uint256",
                  "name": "slope1",
                  "type": "uint256"
                },
                {
                  "internalType": "uint256",
                  "name": "intercept1",
                  "type": "uint256"
                },
                {
                  "internalType": "uint256",
                  "name": "slope2",
                  "type": "uint256"
                },
                {
                  "internalType": "uint256",
                  "name": "intercept2",
                  "type": "uint256"
                },
                {
                  "internalType": "uint256",
                  "name": "twatDiffScale",
                  "type": "uint256"
                }
              ],
              "internalType": "struct URateParam",
              "name": "uParam",
              "type": "tuple"
            },
            {
              "internalType": "uint256",
              "name": "maxURate",
              "type": "uint256"
            },
            {
              "internalType": "uint256",
              "name": "maxSearchRight",
              "type": "uint256"
            },
            {
              "internalType": "uint256",
              "name": "maxSearchLeft",
              "type": "uint256"
            },
            {
              "internalType": "uint16",
              "name": "poolId",
              "type": "uint16"
            },
            {
              "internalType": "uint256",
              "name": "MIN_PREMIUM_DEPOSIT",
              "type": "uint256"
            },
            {
              "internalType": "uint256",
              "name": "REPAY_THRESHOLD",
              "type": "uint256"
            }
          ],
          "internalType": "struct PoolParam",
          "name": "param",
          "type": "tuple"
        }
      ],
      "stateMutability": "view",
      "type": "function"
    },
    {
      "inputs": [
        {
          "internalType": "address",
          "name": "",
          "type": "address"
        },
        {
          "internalType": "address",
          "name": "",
          "type": "address"
        },
        {
          "internalType": "uint24",
          "name": "",
          "type": "uint24"
        }
      ],
      "name": "getPool",
      "outputs": [
        {
          "internalType": "address",
          "name": "",
          "type": "address"
        }
      ],
      "stateMutability": "view",
      "type": "function"
    },
    {
      "inputs": [],
      "name": "getPoolList",
      "outputs": [
        {
          "internalType": "address[]",
          "name": "",
          "type": "address[]"
        }
      ],
      "stateMutability": "view",
      "type": "function"
    },
    {
      "inputs": [
        {
          "components": [
            {
              "internalType": "address",
              "name": "token0",
              "type": "address"
            },
            {
              "internalType": "address",
              "name": "token1",
              "type": "address"
            },
            {
              "internalType": "uint24",
              "name": "fee",
              "type": "uint24"
            }
          ],
          "internalType": "struct PoolKey",
          "name": "key",
          "type": "tuple"
        }
      ],
      "name": "getProfitFee",
      "outputs": [
        {
          "internalType": "uint256",
          "name": "",
          "type": "uint256"
        },
        {
          "internalType": "uint256",
          "name": "",
          "type": "uint256"
        }
      ],
      "stateMutability": "nonpayable",
      "type": "function"
    },
    {
      "inputs": [],
      "name": "marginFacility",
      "outputs": [
        {
          "internalType": "address",
          "name": "",
          "type": "address"
        }
      ],
      "stateMutability": "view",
      "type": "function"
    },
    {
      "inputs": [
        {
          "internalType": "bytes32",
          "name": "",
          "type": "bytes32"
        }
      ],
      "name": "minLiquidities",
      "outputs": [
        {
          "internalType": "uint256",
          "name": "",
          "type": "uint256"
        }
      ],
      "stateMutability": "view",
      "type": "function"
    },
    {
      "inputs": [
        {
          "components": [
            {
              "internalType": "address",
              "name": "token0",
              "type": "address"
            },
            {
              "internalType": "address",
              "name": "token1",
              "type": "address"
            },
            {
              "internalType": "uint24",
              "name": "fee",
              "type": "uint24"
            }
          ],
          "internalType": "struct PoolKey",
          "name": "key",
          "type": "tuple"
        },
        {
          "components": [
            {
              "internalType": "int24",
              "name": "tick",
              "type": "int24"
            },
            {
              "internalType": "uint128",
              "name": "liquidity",
              "type": "uint128"
            },
            {
              "internalType": "uint256",
              "name": "premium",
              "type": "uint256"
            },
            {
              "internalType": "uint256",
              "name": "feeGrowthInside0LastX128",
              "type": "uint256"
            },
            {
              "internalType": "uint256",
              "name": "feeGrowthInside1LastX128",
              "type": "uint256"
            },
            {
              "internalType": "uint256",
              "name": "lastGrowth",
              "type": "uint256"
            }
          ],
          "internalType": "struct LiquidityLoan[]",
          "name": "repayInfo",
          "type": "tuple[]"
        },
        {
          "internalType": "address",
          "name": "who",
          "type": "address"
        }
      ],
      "name": "mintToRepay",
      "outputs": [
        {
          "internalType": "uint256",
          "name": "totalAmount0",
          "type": "uint256"
        },
        {
          "internalType": "uint256",
          "name": "totalAmount1",
          "type": "uint256"
        }
      ],
      "stateMutability": "nonpayable",
      "type": "function"
    },
    {
      "inputs": [
        {
          "internalType": "bytes[]",
          "name": "data",
          "type": "bytes[]"
        }
      ],
      "name": "multicall",
      "outputs": [
        {
          "internalType": "bytes[]",
          "name": "results",
          "type": "bytes[]"
        }
      ],
      "stateMutability": "nonpayable",
      "type": "function"
    },
    {
      "inputs": [],
      "name": "owner",
      "outputs": [
        {
          "internalType": "address",
          "name": "",
          "type": "address"
        }
      ],
      "stateMutability": "view",
      "type": "function"
    },
    {
      "inputs": [
        {
          "components": [
            {
              "internalType": "address",
              "name": "token0",
              "type": "address"
            },
            {
              "internalType": "address",
              "name": "token1",
              "type": "address"
            },
            {
              "internalType": "uint24",
              "name": "fee",
              "type": "uint24"
            }
          ],
          "internalType": "struct PoolKey",
          "name": "key",
          "type": "tuple"
        },
        {
          "components": [
            {
              "internalType": "int24",
              "name": "tick",
              "type": "int24"
            },
            {
              "internalType": "uint128",
              "name": "liquidity",
              "type": "uint128"
            },
            {
              "internalType": "uint256",
              "name": "premium",
              "type": "uint256"
            },
            {
              "internalType": "uint256",
              "name": "feeGrowthInside0LastX128",
              "type": "uint256"
            },
            {
              "internalType": "uint256",
              "name": "feeGrowthInside1LastX128",
              "type": "uint256"
            },
            {
              "internalType": "uint256",
              "name": "lastGrowth",
              "type": "uint256"
            }
          ],
          "internalType": "struct LiquidityLoan[]",
          "name": "borrowInfo",
          "type": "tuple[]"
        },
        {
          "internalType": "bool",
          "name": "positionIsToken0",
          "type": "bool"
        },
        {
          "internalType": "uint256",
          "name": "feePortion",
          "type": "uint256"
        }
      ],
      "name": "payInterest",
      "outputs": [],
      "stateMutability": "nonpayable",
      "type": "function"
    },
    {
      "inputs": [
        {
          "components": [
            {
              "internalType": "address",
              "name": "token0",
              "type": "address"
            },
            {
              "internalType": "address",
              "name": "token1",
              "type": "address"
            },
            {
              "internalType": "uint24",
              "name": "fee",
              "type": "uint24"
            }
          ],
          "internalType": "struct PoolKey",
          "name": "key",
          "type": "tuple"
        },
        {
          "internalType": "int24",
          "name": "tickLower",
          "type": "int24"
        },
        {
          "internalType": "int24",
          "name": "tickUpper",
          "type": "int24"
        },
        {
          "internalType": "uint128",
          "name": "liquidity",
          "type": "uint128"
        },
        {
          "internalType": "address",
          "name": "recipient",
          "type": "address"
        }
      ],
      "name": "provideDiscreteLiquidity",
      "outputs": [
        {
          "internalType": "uint256",
          "name": "totalAmount0",
          "type": "uint256"
        },
        {
          "internalType": "uint256",
          "name": "totalAmount1",
          "type": "uint256"
        }
      ],
      "stateMutability": "nonpayable",
      "type": "function"
    },
    {
      "inputs": [
        {
          "internalType": "bool",
          "name": "collectPaused",
          "type": "bool"
        }
      ],
      "name": "setCollectPaused",
      "outputs": [],
      "stateMutability": "nonpayable",
      "type": "function"
    },
    {
      "inputs": [
        {
          "internalType": "address",
          "name": "mf",
          "type": "address"
        },
        {
          "internalType": "address",
          "name": "bf",
          "type": "address"
        },
        {
          "internalType": "address",
          "name": "of_",
          "type": "address"
        },
        {
          "internalType": "address",
          "name": "_uniswapFactory",
          "type": "address"
        }
      ],
      "name": "setFacilities",
      "outputs": [],
      "stateMutability": "nonpayable",
      "type": "function"
    },
    {
      "inputs": [
        {
          "components": [
            {
              "internalType": "address",
              "name": "token0",
              "type": "address"
            },
            {
              "internalType": "address",
              "name": "token1",
              "type": "address"
            },
            {
              "internalType": "uint24",
              "name": "fee",
              "type": "uint24"
            }
          ],
          "internalType": "struct PoolKey",
          "name": "key",
          "type": "tuple"
        },
        {
          "internalType": "uint256",
          "name": "minLiquidity",
          "type": "uint256"
        }
      ],
      "name": "setMinLiquidity",
      "outputs": [],
      "stateMutability": "nonpayable",
      "type": "function"
    },
    {
      "inputs": [
        {
          "internalType": "address",
          "name": "newOwner",
          "type": "address"
        }
      ],
      "name": "setOwner",
      "outputs": [],
      "stateMutability": "nonpayable",
      "type": "function"
    },
    {
      "inputs": [
        {
          "internalType": "bool",
          "name": "providePaused",
          "type": "bool"
        }
      ],
      "name": "setProvidePaused",
      "outputs": [],
      "stateMutability": "nonpayable",
      "type": "function"
    },
    {
      "inputs": [
        {
          "internalType": "bool",
          "name": "withdrawPaused",
          "type": "bool"
        }
      ],
      "name": "setWithdrawPaused",
      "outputs": [],
      "stateMutability": "nonpayable",
      "type": "function"
    },
    {
      "inputs": [
        {
          "internalType": "bytes32",
          "name": "",
          "type": "bytes32"
        }
      ],
      "name": "tickDiscretizations",
      "outputs": [
        {
          "internalType": "int24",
          "name": "",
          "type": "int24"
        }
      ],
      "stateMutability": "view",
      "type": "function"
    },
    {
      "inputs": [],
      "name": "uniswapFactory",
      "outputs": [
        {
          "internalType": "address",
          "name": "",
          "type": "address"
        }
      ],
      "stateMutability": "view",
      "type": "function"
    },
    {
      "inputs": [
        {
          "internalType": "uint256",
          "name": "amount0Owed",
          "type": "uint256"
        },
        {
          "internalType": "uint256",
          "name": "amount1Owed",
          "type": "uint256"
        },
        {
          "internalType": "bytes",
          "name": "data",
          "type": "bytes"
        }
      ],
      "name": "uniswapV3MintCallback",
      "outputs": [],
      "stateMutability": "nonpayable",
      "type": "function"
    },
    {
      "inputs": [
        {
          "components": [
            {
              "internalType": "address",
              "name": "token0",
              "type": "address"
            },
            {
              "internalType": "address",
              "name": "token1",
              "type": "address"
            },
            {
              "internalType": "uint24",
              "name": "fee",
              "type": "uint24"
            }
          ],
          "internalType": "struct PoolKey",
          "name": "key",
          "type": "tuple"
        },
        {
          "internalType": "int24",
          "name": "tickLower",
          "type": "int24"
        },
        {
          "internalType": "int24",
          "name": "tickUpper",
          "type": "int24"
        },
        {
          "internalType": "int24",
          "name": "tickDiscretization",
          "type": "int24"
        }
      ],
      "name": "updateCollectedFees",
      "outputs": [
        {
          "internalType": "uint256",
          "name": "",
          "type": "uint256"
        },
        {
          "internalType": "uint256",
          "name": "",
          "type": "uint256"
        }
      ],
      "stateMutability": "nonpayable",
      "type": "function"
    },
    {
      "inputs": [
        {
          "components": [
            {
              "internalType": "address",
              "name": "token0",
              "type": "address"
            },
            {
              "internalType": "address",
              "name": "token1",
              "type": "address"
            },
            {
              "internalType": "uint24",
              "name": "fee",
              "type": "uint24"
            }
          ],
          "internalType": "struct PoolKey",
          "name": "key",
          "type": "tuple"
        },
        {
          "internalType": "uint256",
          "name": "openFee",
          "type": "uint256"
        },
        {
          "internalType": "uint256",
          "name": "feeToPool",
          "type": "uint256"
        },
        {
          "internalType": "uint256",
          "name": "profitFee",
          "type": "uint256"
        },
        {
          "internalType": "uint256",
          "name": "profitFeeToPool",
          "type": "uint256"
        }
      ],
      "name": "updateFeeParams",
      "outputs": [],
      "stateMutability": "nonpayable",
      "type": "function"
    },
    {
      "inputs": [
        {
          "internalType": "address",
          "name": "pool",
          "type": "address"
        },
        {
          "components": [
            {
              "components": [
                {
                  "internalType": "uint256",
                  "name": "pivotRate",
                  "type": "uint256"
                },
                {
                  "internalType": "uint256",
                  "name": "slope1",
                  "type": "uint256"
                },
                {
                  "internalType": "uint256",
                  "name": "intercept1",
                  "type": "uint256"
                },
                {
                  "internalType": "uint256",
                  "name": "slope2",
                  "type": "uint256"
                },
                {
                  "internalType": "uint256",
                  "name": "intercept2",
                  "type": "uint256"
                },
                {
                  "internalType": "uint256",
                  "name": "twatDiffScale",
                  "type": "uint256"
                }
              ],
              "internalType": "struct URateParam",
              "name": "uParam",
              "type": "tuple"
            },
            {
              "internalType": "uint256",
              "name": "maxURate",
              "type": "uint256"
            },
            {
              "internalType": "uint256",
              "name": "maxSearchRight",
              "type": "uint256"
            },
            {
              "internalType": "uint256",
              "name": "maxSearchLeft",
              "type": "uint256"
            },
            {
              "internalType": "uint16",
              "name": "poolId",
              "type": "uint16"
            },
            {
              "internalType": "uint256",
              "name": "MIN_PREMIUM_DEPOSIT",
              "type": "uint256"
            },
            {
              "internalType": "uint256",
              "name": "REPAY_THRESHOLD",
              "type": "uint256"
            }
          ],
          "internalType": "struct PoolParam",
          "name": "param",
          "type": "tuple"
        }
      ],
      "name": "updatePoolParams",
      "outputs": [],
      "stateMutability": "nonpayable",
      "type": "function"
    },
    {
      "inputs": [
        {
          "components": [
            {
              "internalType": "address",
              "name": "token0",
              "type": "address"
            },
            {
              "internalType": "address",
              "name": "token1",
              "type": "address"
            },
            {
              "internalType": "uint24",
              "name": "fee",
              "type": "uint24"
            }
          ],
          "internalType": "struct PoolKey",
          "name": "key",
          "type": "tuple"
        },
        {
          "internalType": "int24",
          "name": "tickLower",
          "type": "int24"
        },
        {
          "internalType": "int24",
          "name": "tickUpper",
          "type": "int24"
        },
        {
          "internalType": "uint128",
          "name": "liquidity",
          "type": "uint128"
        }
      ],
      "name": "withdrawDiscreteLiquidity",
      "outputs": [
        {
          "internalType": "uint256",
          "name": "",
          "type": "uint256"
        },
        {
          "internalType": "uint256",
          "name": "",
          "type": "uint256"
        }
      ],
      "stateMutability": "nonpayable",
      "type": "function"
    },
    {
      "inputs": [
        {
          "components": [
            {
              "internalType": "address",
              "name": "token0",
              "type": "address"
            },
            {
              "internalType": "address",
              "name": "token1",
              "type": "address"
            },
            {
              "internalType": "uint24",
              "name": "fee",
              "type": "uint24"
            }
          ],
          "internalType": "struct PoolKey",
          "name": "key",
          "type": "tuple"
        },
        {
          "components": [
            {
              "internalType": "int24",
              "name": "tick",
              "type": "int24"
            },
            {
              "internalType": "uint128",
              "name": "liquidity",
              "type": "uint128"
            },
            {
              "internalType": "uint256",
              "name": "premium",
              "type": "uint256"
            },
            {
              "internalType": "uint256",
              "name": "feeGrowthInside0LastX128",
              "type": "uint256"
            },
            {
              "internalType": "uint256",
              "name": "feeGrowthInside1LastX128",
              "type": "uint256"
            },
            {
              "internalType": "uint256",
              "name": "lastGrowth",
              "type": "uint256"
            }
          ],
          "internalType": "struct LiquidityLoan[]",
          "name": "borrowInfo",
          "type": "tuple[]"
        }
      ],
      "name": "withdrawToBorrow",
      "outputs": [
        {
          "internalType": "uint256",
          "name": "totalAmount0",
          "type": "uint256"
        },
        {
          "internalType": "uint256",
          "name": "totalAmount1",
          "type": "uint256"
        }
      ],
      "stateMutability": "nonpayable",
      "type": "function"
    }
  ],
  "bytecode": {
    "object": "0x608060405260016000819055600d805461ffff1916909117905534801561002557600080fd5b50600d805462010000600160b01b031916336201000002179055615e6c806200004f6000396000f3fe608060405234801561001057600080fd5b50600436106102745760003560e01c80639525092311610151578063bbd95472116100c3578063d578395311610087578063d578395314610898578063d7a3dca0146108c5578063da69b0b314610924578063dc724d3a14610958578063f2d490a51461096b578063fc6e9cbf1461097e57600080fd5b8063bbd95472146107c2578063c6c2c2ca146107d5578063d069f1ac1461084f578063d348799714610870578063d41dcbea1461088357600080fd5b8063abf978e411610115578063abf978e414610743578063ac00b80914610756578063ac9650d814610769578063b75323a714610789578063b8919fa61461079c578063b9a402a5146107af57600080fd5b806395250923146106645780639744a42d14610686578063a8404655146106b1578063a841fdd814610710578063a882c12d1461073057600080fd5b806345e61a4d116101ea57806368335691116101ae57806368335691146105aa5780636cb42a2f146105bd5780636fc280e1146105d0578063895f4ade146106255780638bdb2afa146106385780638da5cb5b1461064b57600080fd5b806345e61a4d1461041b57806348222442146104c15780635955cad3146104d45780635ea33ec514610561578063651976881461057457600080fd5b806319fa10331161023c57806319fa10331461034257806319fda277146103755780632398c1a9146103c157806325f149ce146103d457806337d15139146103e7578063406a3d02146103fa57600080fd5b80630229fb60146102795780630ea50f50146102a657806313af4035146102c85780631698ee82146102dd57806318cdea9d1461032f575b600080fd5b61028c6102873660046149c4565b610991565b604080519283526020830191909152015b60405180910390f35b6102b96102b4366004614a2d565b6109e4565b60405161029d93929190614af9565b6102db6102d6366004614b2d565b610b74565b005b6103176102eb366004614b62565b600a6020908152600093845260408085208252928452828420905282529020546001600160a01b031681565b6040516001600160a01b03909116815260200161029d565b6102db61033d366004614c89565b610bce565b610355610350366004614cb4565b610c4d565b604080516001600160801b0393841681529290911660208301520161029d565b6103a9610383366004614cfe565b60026020908152600092835260408084209091529082529020546001600160801b031681565b6040516001600160801b03909116815260200161029d565b6102db6103cf366004614d2e565b610dfb565b6102db6103e2366004614d71565b610e74565b6102db6103f5366004614d71565b610ec2565b61040d610408366004614d8e565b610f10565b60405190815260200161029d565b6104ae610429366004614b2d565b600660208181526000928352604092839020835160c081018552815481526001820154928101929092526002810154938201939093526003830154606082015260048301546080820152600583015460a082015290820154600783015460088401546009850154600a860154600b90960154949593949293919261ffff909116919087565b60405161029d9796959493929190614e08565b61040d6104cf366004614e4f565b610f5d565b61052b6104e2366004614e6b565b60046020908152600092835260408084209091529082529020805460018201546002830154600390930154919290916001600160801b0380831692600160801b90048116911685565b6040805195865260208601949094526001600160801b03928316938501939093528116606084015216608082015260a00161029d565b61028c61056f366004614e8d565b610f9d565b610597610582366004614ed5565b60096020526000908152604090205460020b81565b60405160029190910b815260200161029d565b61040d6105b8366004614f46565b611065565b61028c6105cb366004615087565b6111a0565b61060a6105de3660046150de565b600560209081526000928352604080842090915290825290208054600182015460029092015490919083565b6040805193845260208401929092529082015260600161029d565b6102db6106333660046151b5565b61154b565b600f54610317906001600160a01b031681565b600d54610317906201000090046001600160a01b031681565b6106776106723660046151ec565b611620565b60405161029d93929190615208565b61040d610694366004615282565b600b60209081526000928352604080842090915290825290205481565b6106c46106bf3660046152ad565b6117a6565b604080518251815260208084015190820152828201516001600160801b03908116928201929092526060808401518316908201526080928301519091169181019190915260a00161029d565b61040d61071e366004614ed5565b60076020526000908152604090205481565b600e54610317906001600160a01b031681565b61028c6107513660046152fd565b611867565b6102db61076436600461534d565b611f8a565b61077c61077736600461539e565b611fee565b60405161029d9190615462565b61028c610797366004614e4f565b6120e3565b61028c6107aa3660046154c4565b612120565b6102db6107bd366004615534565b6127eb565b61028c6107d03660046155b2565b612d9a565b61081c6107e3366004614ed5565b600860205260009081526040902080546001909101546001600160801b0380831692600160801b90819004821692808316929190041684565b604080516001600160801b039586168152938516602085015291841691830191909152909116606082015260800161029d565b61086261085d366004614a2d565b612ee2565b60405161029d929190615600565b6102db61087e366004615619565b613167565b61088b613273565b60405161029d9190615698565b6108ab6108a63660046156e5565b613350565b6040805160029390930b835290151560208301520161029d565b6109046108d3366004614cfe565b6003602081815260009384526040808520909152918352912080546001820154600283015492909301549092919084565b60408051948552602085019390935291830152606082015260800161029d565b6103a9610932366004614cfe565b60016020908152600092835260408084209091529082529020546001600160801b031681565b6102db610966366004614d71565b613407565b61028c610979366004614e4f565b613455565b6102db61098c366004615755565b61348f565b6000806000546001146109bf5760405162461bcd60e51b81526004016109b6906157bd565b60405180910390fd5b60026000556109d28686868660016136b5565b60016000559097909650945050505050565b600e5460009081906060906001600160a01b03163314610a165760405162461bcd60e51b81526004016109b6906157e1565b610a1e61482f565b610a2b60208a018a614b2d565b610a3b60408b0160208c01614b2d565b610a4b60608c0160408d01615800565b604051602001610a5d9392919061581b565b60408051601f19818403018152918152815160209283012090830152600a90600090610a8b908c018c614b2d565b6001600160a01b03166001600160a01b0316815260200190815260200160002060008a6020016020810190610ac09190614b2d565b6001600160a01b03166001600160a01b0316815260200190815260200160002060008a6040016020810190610af59190615800565b62ffffff16815260208082019290925260409081016000908120546001600160a01b0316610120850152838201518152600990925290205460020b60e0820152610b428989898989612ee2565b905080925050610b62898261012001518484604001518560e0015161393c565b909a9099509197509095505050505050565b600d546201000090046001600160a01b03163314610ba45760405162461bcd60e51b81526004016109b690615843565b600d80546001600160a01b03909216620100000262010000600160b01b0319909216919091179055565b600d546201000090046001600160a01b03163314610bfe5760405162461bcd60e51b81526004016109b690615843565b6000826000015183602001518460400151604051602001610c219392919061581b565b60408051601f198184030181529181528151602092830120600090815260079092529020919091555050565b600080600054600114610c725760405162461bcd60e51b81526004016109b6906157bd565b60026000908155610c8286610f5d565b600081815260096020526040902054600f5491925060020b90600160b01b900460ff1615610cc25760405162461bcd60e51b81526004016109b690615863565b8060020b600003610ce55760405162461bcd60e51b81526004016109b690615883565b8460020b8660020b12610d0a5760405162461bcd60e51b81526004016109b69061589e565b600082815260046020526040812081610d24898933610f10565b815260208101919091526040016000206002810154909150600160801b90046001600160801b031615610d865787516002820154610d7491903390600160801b90046001600160801b0316613e28565b6002810180546001600160801b031690555b60038101546001600160801b031615610dcb5760208801516003820154610db8919033906001600160801b0316613e28565b6003810180546001600160801b03191690555b600281015460039091015460016000556001600160801b03600160801b9092048216999116975095505050505050565b600d546201000090046001600160a01b03163314610e2b5760405162461bcd60e51b81526004016109b690615843565b6000610e3686610f5d565b60009081526008602052604090206001600160801b03958616600160801b958716860217815592851691909416909202919091176001909101555050565b600d546201000090046001600160a01b03163314610ea45760405162461bcd60e51b81526004016109b690615843565b600f8054911515600160a01b0260ff60a01b19909216919091179055565b600d546201000090046001600160a01b03163314610ef25760405162461bcd60e51b81526004016109b690615843565b600f8054911515600160a81b0260ff60a81b19909216919091179055565b60408051600285810b602083015284900b918101919091526001600160a01b03821660608201526000906080016040516020818303038152906040528051906020012090505b9392505050565b6000816000015182602001518360400151604051602001610f809392919061581b565b604051602081830303815290604052805190602001209050919050565b6000806000859050610fd06040518060800160405280600081526020016000815260200160008152602001600081525090565b8560020b8260020b121561105a57506000878152600360208181526040808420600286810b86529083529381902081516080810183528154808252600183015494820194909452948101549185019190915290910154606083015261103590856158cf565b935080602001518361104791906158cf565b925061105385836158e2565b9150610fd0565b505094509492505050565b6001600160a01b0383166000908152600560209081526040808320600286810b8552908352818420825160608101845281548082526001830154958201959095529101549181019190915290670de0b6b3a76400009061118d906110c990836158cf565b670de0b6b3a76400006111868560400151426110e59190615907565b60208701516040516317b474bf60e01b8152670de0b6b3a76400009173__$eacbb88ed4bd2af84aa4d43bcf675bcf7e$__916317b474bf9161112c918e919060040161591a565b602060405180830381865af4158015611149573d6000803e3d6000fd5b505050506040513d601f19601f8201168201806040525081019061116d9190615935565b61117f90670de0b6b3a76400006158cf565b9190613f28565b9190613fe6565b6111979190615907565b95945050505050565b600e5460009081906001600160a01b031633146111cf5760405162461bcd60e51b81526004016109b6906157e1565b6040805160a0810182526000808252602082018190529181018290526060810182905260808101919091526000600a8161120c60208a018a614b2d565b6001600160a01b03166001600160a01b0316815260200190815260200160002060008860200160208101906112419190614b2d565b6001600160a01b03166001600160a01b0316815260200190815260200160002060008860400160208101906112769190615800565b62ffffff1681526020810191909152604001600020546001600160a01b031690506112a96104cf36899003890189614e4f565b808352600090815260096020908152604080832054600290810b838701526001600160a01b038516845260068352818420825160c08101845281548152600182015494810194909452908101549183019190915260038101546060830152600481015460808301526005015460a0820152905b875181101561153f578781815181106113375761133761594e565b602002602001015160200151600260008660000151815260200190815260200160002060008a848151811061136e5761136e61594e565b6020908102919091018101515160020b8252810191909152604001600090812080549091906113a79084906001600160801b0316615964565b92506101000a8154816001600160801b0302191690836001600160801b03160217905550826001600160a01b0316633c8a7d8d308a84815181106113ed576113ed61594e565b60200260200101516000015187602001518c86815181106114105761141061594e565b60200260200101516000015161142691906158e2565b8c86815181106114385761143861594e565b6020026020010151602001518c60405160200161146491906001600160a01b0391909116815260200190565b6040516020818303038152906040526040518663ffffffff1660e01b8152600401611493959493929190615984565b60408051808303816000875af11580156114b1573d6000803e3d6000fd5b505050506040513d601f19601f820116820180604052508101906114d591906159d1565b6080860152606085018190526114eb90876158cf565b95508360800151856114fd91906158cf565b945061152c8882815181106115145761151461594e565b602002602001015160000151856000015185856140c4565b5080611537816159f5565b91505061131c565b50505050935093915050565b600d546201000090046001600160a01b0316331461157b5760405162461bcd60e51b81526004016109b690615843565b6001600160a01b03919091166000908152600660208181526040928390208451805182558083015160018301558085015160028301556060808201516003840155608080830151600485015560a0928301516005850155938701519483019490945593850151600782015591840151600883015583015160098201805461ffff191661ffff90921691909117905590820151600a82015560c090910151600b90910155565b60008061162b614897565b600a600061163c6020870187614b2d565b6001600160a01b03166001600160a01b0316815260200190815260200160002060008560200160208101906116719190614b2d565b6001600160a01b03166001600160a01b0316815260200190815260200160002060008560400160208101906116a69190615800565b62ffffff16815260208101919091526040016000908120546001600160a01b031693506009906116de6104cf36889003880188614e4f565b815260208082019290925260409081016000908120546001600160a01b038716825260068085529183902083516101a081018552815460e082019081526001830154610100830152600283810154610120840152600384015461014084015260048401546101608401526005840154610180840152908252938201549581019590955260078101549385019390935260088301546060850152600983015461ffff166080850152600a83015460a0850152600b9092015460c08401529496940b945092915050565b6040805160a081018252600080825260208201819052918101829052606081018290526080810191909152600460006117e76104cf36899003890189614e4f565b81526020019081526020016000206000611802868686610f10565b81526020808201929092526040908101600020815160a0810183528154815260018201549381019390935260028101546001600160801b0380821693850193909352600160801b9004821660608401526003015416608082015290505b949350505050565b60008060005460011461188c5760405162461bcd60e51b81526004016109b6906157bd565b600260009081556040805160e08101825282815260208101839052908101829052606081018290526080810182905260a0810182905260c08101919091526118dc6104cf36899003890189614e4f565b6080820181815260009182526009602090815260408084205460020b60a08601529151835260049052812081611913898933610f10565b81526020019081526020016000209050600f60159054906101000a900460ff16156119505760405162461bcd60e51b81526004016109b690615863565b8160a0015160020b6000036119775760405162461bcd60e51b81526004016109b690615883565b8560020b8760020b1261199c5760405162461bcd60e51b81526004016109b69061589e565b60028101546001600160801b0316158015906119c8575060028101546001600160801b03808716911610155b6119f85760405162461bcd60e51b81526020600482015260016024820152603760f91b60448201526064016109b6565b6000600a81611a0a60208c018c614b2d565b6001600160a01b03166001600160a01b0316815260200190815260200160002060008a6020016020810190611a3f9190614b2d565b6001600160a01b03166001600160a01b0316815260200190815260200160002060008a6040016020810190611a749190615800565b62ffffff16815260208082019290925260409081016000908120546001600160a01b031680825260068452828220835160c080820186528254825260018301548288015260028301548287015260038301546060830152600483015460808084019190915260059093015460a083015291890151845260079095529290912054918601919091529150885b8860020b8160020b1215611e39576080850180516000908152600160209081526040808320600286810b8086529184528285205460c08c0151965186529084528285209185529252909120546001600160801b039182169291611b6391168b615a0e565b6001600160801b0316611b7691906158cf565b816001600160801b03161015611bba5760405162461bcd60e51b815260206004820152600960248201526821776974686472617760b81b60448201526064016109b6565b836001600160a01b031663a34123a7838860a0015185611bda91906158e2565b6040516001600160e01b031960e085901b168152600292830b6004820152910b60248201526001600160801b038c16604482015260640160408051808303816000875af1158015611c2f573d6000803e3d6000fd5b505050506040513d601f19601f82011682018060405250810190611c5391906159d1565b6020880152865260a086015160009081906001600160a01b03871690634f1eb3d89030908790611c8390826158e2565b6001600160801b03806040518663ffffffff1660e01b8152600401611cac959493929190615a2e565b60408051808303816000875af1158015611cca573d6000803e3d6000fd5b505050506040513d601f19601f82011682018060405250810190611cee9190615a6b565b90925090506001600160801b03831615611d4257611d428860800151858a60000151856001600160801b0316611d249190615907565b60208c0151611d3c906001600160801b038716615907565b8761423b565b8751604089018051611d559083906158cf565b9052506020880151606089018051611d6e9083906158cf565b90525060808801516000908152600160209081526040808320600288900b8452909152812080548d9290611dac9084906001600160801b0316615964565b92506101000a8154816001600160801b0302191690836001600160801b031602179055508a83611ddc9190615964565b6001600160801b0316600003611e0f5760a088015160808901516000908152600b60205260409020611e0f9186906142c1565b611e1f84896080015188886140c4565b50505060a0860151611e329150826158e2565b9050611aff565b611e4b8b8b8b8860a0015160006136b5565b5050608085015160009081526004602052604081208991611e6d8d8d33610f10565b8152602081019190915260400160009081206002018054909190611e9b9084906001600160801b0316615964565b92506101000a8154816001600160801b0302191690836001600160801b03160217905550600085604001511115611ee757611ee7611edc60208d018d614b2d565b338760400151613e28565b606085015115611f0f57611f0f611f0460408d0160208e01614b2d565b338760600151613e28565b604080516001600160801b038a16815260028c810b60208301528b900b81830152905133916001600160a01b038616917f49ae36094cb0a2af1fad270a75bb3188db1a6e13c5b0b9a230319221247fda9d9181900360600190a350505050604081015160609091015160016000559097909650945050505050565b600d546201000090046001600160a01b03163314611fba5760405162461bcd60e51b81526004016109b690615843565b600f80546001600160a01b039283166001600160a01b031991821617909155600e8054959092169416939093179092555050565b6060816001600160401b0381111561200857612008614ba9565b60405190808252806020026020018201604052801561203b57816020015b60608152602001906001900390816120265790505b50905060005b828110156120db576120ab3085858481811061205f5761205f61594e565b90506020028101906120719190615a9a565b8080601f01602080910402602001604051908101604052809392919081815260200183838082843760009201919091525061433e92505050565b8282815181106120bd576120bd61594e565b602002602001018190525080806120d3906159f5565b915050612041565b505b92915050565b60008060006120f184610f5d565b6000908152600860205260409020600101546001600160801b0380821696600160801b90920416945092505050565b6000806000546001146121455760405162461bcd60e51b81526004016109b6906157bd565b600260005561215261490f565b6121646104cf368a90038a018a614e4f565b808252600090815260096020908152604082205460020b81840152600a908290612190908c018c614b2d565b6001600160a01b03166001600160a01b0316815260200190815260200160002060008a60200160208101906121c59190614b2d565b6001600160a01b03166001600160a01b0316815260200190815260200160002060008a60400160208101906121fa9190615800565b62ffffff16815260208082019290925260409081016000908120546001600160a01b03168082526006845290829020825160c0810184528154815260018201549481019490945260028101548484015260038101546060850152600481015460808501526005015460a084015290840191909152600f54909150600160a01b900460ff161561229b5760405162461bcd60e51b81526004016109b690615863565b816020015160020b6000036122c25760405162461bcd60e51b81526004016109b690615883565b8660020b8860020b126122e75760405162461bcd60e51b81526004016109b69061589e565b6000866001600160801b0316116123245760405162461bcd60e51b81526020600482015260016024820152601b60fa1b60448201526064016109b6565b60208201516123339089615af6565b60020b1580156123525750602082015161234d9088615af6565b60020b155b6123825760405162461bcd60e51b81526020600482015260016024820152601960fa1b60448201526064016109b6565b875b8760020b8160020b12156126e557816001600160a01b0316633c8a7d8d30838660200151856123b391906158e2565b604080513360208201528d91016040516020818303038152906040526040518663ffffffff1660e01b81526004016123ef959493929190615984565b60408051808303816000875af115801561240d573d6000803e3d6000fd5b505050506040513d601f19601f8201168201806040525081019061243191906159d1565b60808501526060840181905261244790866158cf565b945082608001518461245991906158cf565b9350816001600160a01b031663514ea4bf308386602001518561247c91906158e2565b60405160609390931b6bffffffffffffffffffffffff1916602084015260e891821b6034840152901b6037820152603a01604051602081830303815290604052805190602001206040518263ffffffff1660e01b81526004016124e191815260200190565b60a060405180830381865afa1580156124fe573d6000803e3d6000fd5b505050506040513d601f19601f820116820180604052508101906125229190615b26565b6001600160801b0390811660c08901521660a08701819052151592508291506125519050575060008360c00151115b156125e557816001600160a01b0316634f1eb3d8308386602001518561257791906158e2565b6001600160801b03806040518663ffffffff1660e01b81526004016125a0959493929190615a2e565b60408051808303816000875af11580156125be573d6000803e3d6000fd5b505050506040513d601f19601f820116820180604052508101906125e29190615a6b565b50505b82516000908152600160209081526040808320600285900b84529091529020546001600160801b031660e084018190521561263c576126378360000151828560a001518660c001518760e0015161423b565b61265e565b60208084015184516000908152600b909252604090912061265e9183906142c1565b82516000908152600160209081526040808320600285900b8452909152812080548992906126969084906001600160801b0316615a0e565b92506101000a8154816001600160801b0302191690836001600160801b031602179055506126ce8184600001518486604001516140c4565b5060208301516126de90826158e2565b9050612384565b6126f78a8a8a866020015160006136b5565b50508251600090815260046020526040812088916127168c8c8b610f10565b81526020810191909152604001600090812060020180549091906127449084906001600160801b0316615a0e565b92506101000a8154816001600160801b0302191690836001600160801b03160217905550856001600160a01b0316826001600160a01b03167f7e1aa040ae22ae078b2e04d7e756a73671a8435cd8b72b0bd15f1cef372133d2898c8c6040516127cf939291906001600160801b03939093168352600291820b6020840152900b604082015260600190565b60405180910390a3505060016000555090969095509350505050565b600080856001600160a01b0316876001600160a01b03161061280e578587612811565b86865b91509150600082828760405160200161282c9392919061581b565b604051602081830303815290604052805190602001209050866001600160a01b0316886001600160a01b03160361286257600080fd5b6001600160a01b0383161580159061288257506001600160a01b03821615155b61288b57600080fd5b6001600160a01b038381166000908152600a602090815260408083208685168452825280832062ffffff8b16845290915290205416156128ca57600080fd5b6001600160a01b038281166000908152600a602090815260408083208785168452825280832062ffffff8b168452909152902054161561290957600080fd5b60008181526009602052604090205460020b1561292557600080fd5b60008560020b1380156129a45750886001600160a01b031663d0c93a7c6040518163ffffffff1660e01b8152600401602060405180830381865afa158015612971573d6000803e3d6000fd5b505050506040513d601f19601f820116820180604052508101906129959190615b7a565b61299f9086615af6565b60020b155b6129da5760405162461bcd60e51b815260206004820152600760248201526673706163696e6760c81b60448201526064016109b6565b88600a6000856001600160a01b03166001600160a01b031681526020019081526020016000206000846001600160a01b03166001600160a01b0316815260200190815260200160002060008862ffffff1662ffffff16815260200190815260200160002060006101000a8154816001600160a01b0302191690836001600160a01b0316021790555088600a6000846001600160a01b03166001600160a01b031681526020019081526020016000206000856001600160a01b03166001600160a01b0316815260200190815260200160002060008862ffffff1662ffffff16815260200190815260200160002060006101000a8154816001600160a01b0302191690836001600160a01b03160217905550846009600083815260200190815260200160002060006101000a81548162ffffff021916908360020b62ffffff1602179055506064600760008381526020019081526020016000208190555083600660008b6001600160a01b03166001600160a01b03168152602001908152602001600020600082015181600001600082015181600001556020820151816001015560408201518160020155606082015181600301556080820151816004015560a08201518160050155505060208201518160060155604082015181600701556060820151816008015560808201518160090160006101000a81548161ffff021916908361ffff16021790555060a082015181600a015560c082015181600b015590505088600c6000600d60009054906101000a900461ffff1661ffff16815260200190815260200160002060006101000a8154816001600160a01b0302191690836001600160a01b03160217905550600d600081819054906101000a900461ffff1680929190612c6790615b97565b825461ffff9182166101009390930a928302919092021990911617905550600e54604051633eb4adab60e01b81526001600160a01b038581166004830152848116602483015290911690633eb4adab90604401600060405180830381600087803b158015612cd457600080fd5b505af1158015612ce8573d6000803e3d6000fd5b505050600082815260086020526040908190207706f05b59d3b20000000000000000000000038d7ea4c6800081557706f05b59d3b20000000000000000000000b1a2bc2ec50000600190910155516332148f6760e01b815261ffff60048201526001600160a01b038b1691506332148f6790602401600060405180830381600087803b158015612d7757600080fd5b505af1158015612d8b573d6000803e3d6000fd5b50505050505050505050505050565b600e5460009081906001600160a01b03163314612dc95760405162461bcd60e51b81526004016109b6906157e1565b6040805160a081018252600080825260208201819052918101829052606081018290526080810191909152612e066104cf36879003870187614e4f565b60808201819052600090815260096020908152604082205460020b8352612ed4918791600a9190612e3990840184614b2d565b6001600160a01b03166001600160a01b031681526020019081526020016000206000886020016020810190612e6e9190614b2d565b6001600160a01b03166001600160a01b031681526020019081526020016000206000886040016020810190612ea39190615800565b62ffffff168152602081019190915260400160002054608084015184516001600160a01b039092169188919061393c565b9093509150505b9250929050565b60006060612eee61482f565b612f006104cf368a90038a018a614e4f565b6040820152600a6000612f1660208b018b614b2d565b6001600160a01b03166001600160a01b031681526020019081526020016000206000896020016020810190612f4b9190614b2d565b6001600160a01b03166001600160a01b031681526020019081526020016000206000896040016020810190612f809190615800565b62ffffff1662ffffff16815260200190815260200160002060009054906101000a90046001600160a01b03166001600160a01b0316633850c7bd6040518163ffffffff1660e01b815260040160e060405180830381865afa158015612fe9573d6000803e3d6000fd5b505050506040513d601f19601f8201168201806040525081019061300d9190615bb8565b5050506001600160a01b0390931660208501819052604080860151905163225e631360e21b8152600b60048201528a15156024820152604481018c9052606481018a9052608481018d905260a481019290925260c482015273__$93dfed57e8f421caed97f24c336a056d51$__93506389798c4c925060e4019050600060405180830381865af41580156130a5573d6000803e3d6000fd5b505050506040513d6000823e601f3d908101601f191682016040526130cd9190810190615c5a565b608084019190915260608301829052925086146131165760405162461bcd60e51b815260206004820152600760248201526608585b5bdd5b9d60ca1b60448201526064016109b6565b8461313d576060810151608082015161313891670de0b6b3a764000090613fe6565b61315a565b6080810151606082015161315a91670de0b6b3a764000090613fe6565b9250509550959350505050565b600061317582840184614b2d565b9050600080336001600160a01b0316630dfe16816040518163ffffffff1660e01b8152600401602060405180830381865afa1580156131b8573d6000803e3d6000fd5b505050506040513d601f19601f820116820180604052508101906131dc9190615d5c565b336001600160a01b031663d21220a76040518163ffffffff1660e01b8152600401602060405180830381865afa15801561321a573d6000803e3d6000fd5b505050506040513d601f19601f8201168201806040525081019061323e9190615d5c565b90925090508615613255576132558284338a614363565b600186111561326a5761326a81843389614363565b50505050505050565b600d5460609060009061328c9060019061ffff16615d79565b61ffff1690506000816001600160401b038111156132ac576132ac614ba9565b6040519080825280602002602001820160405280156132d5578160200160208202803683370190505b50905060005b828110156120db57600c60006132f28360016158cf565b815260200190815260200160002060009054906101000a90046001600160a01b03168282815181106133265761332661594e565b6001600160a01b039092166020928302919091019091015280613348816159f5565b9150506132db565b604051637058199160e01b8152600b6004820152600286810b602483015285810b604483015284900b6064820152821515608482015260a4810187905260c48101829052600090819073__$93dfed57e8f421caed97f24c336a056d51$__9063705819919060e4016040805180830381865af41580156133d4573d6000803e3d6000fd5b505050506040513d601f19601f820116820180604052508101906133f89190615d94565b91509150965096945050505050565b600d546201000090046001600160a01b031633146134375760405162461bcd60e51b81526004016109b690615843565b600f8054911515600160b01b0260ff60b01b19909216919091179055565b600080600061346384610f5d565b6000908152600860205260409020546001600160801b0380821696600160801b90920416945092505050565b600e546001600160a01b031633146134b95760405162461bcd60e51b81526004016109b6906157e1565b60006134cd6104cf36879003870187614e4f565b90506000806000806000805b895181101561351f578981815181106134f4576134f461594e565b6020026020010151602001518261350b9190615a0e565b915080613517816159f5565b9150506134d9565b5060005b89518110156136a8576001600088815260200190815260200160002060008b83815181106135535761355361594e565b60200260200101516000015160020b60020b815260200190815260200160002060009054906101000a90046001600160801b031694506135cd8a828151811061359e5761359e61594e565b6020026020010151602001516001600160801b0316836001600160801b03168a613fe69092919063ffffffff16565b925061360f838b83815181106135e5576135e561594e565b6020026020010151604001516135fb91906158cf565b600160801b876001600160801b0316613fe6565b60008881526003602052604081208c51929650918c90849081106136355761363561594e565b60200260200101516000015160020b60020b81526020019081526020016000209550881561367c578386600101600082825461367191906158cf565b909155506136969050565b8386600001600082825461369091906158cf565b90915550505b806136a0816159f5565b915050613523565b5050505050505050505050565b60008061371c6040518061012001604052806000815260200160008152602001600081526020016000815260200160006001600160801b0316815260200160006001600160801b031681526020016000801916815260200160008152602001600081525090565b831561372d5761372d8888886143e6565b6000600a8161373f60208c018c614b2d565b6001600160a01b03166001600160a01b0316815260200190815260200160002060008a60200160208101906137749190614b2d565b6001600160a01b03166001600160a01b0316815260200190815260200160002060008a60400160208101906137a99190615800565b62ffffff1681526020810191909152604001600020546001600160a01b031690506137dc6104cf368b90038b018b614e4f565b60c083018190526000908152600460205260408120816137fd8b8b33610f10565b8152602001908152602001600020905061381d8360c001518a8a8a610f9d565b6020850152808452815460028301546138489291909103906001600160801b0316600160801b613fe6565b6001600160801b03908116608085015260018201546020850151600284015461387b93929091039116600160801b613fe6565b6001600160801b0390811660a08501526080840151161515806138ab575060008360a001516001600160801b0316115b156139005760808301516002820180546001600160801b03600160801b8083048216909401811690930290831617905560a08401516003830180548084169092019092166001600160801b0319919091161790555b8251815560209092015160018301555060028101546003909101546001600160801b03600160801b909204821693501690509550959350505050565b6000828152600760209081526040808320546001600160a01b038816845260068352818420825160c08101845281548152600182015494810194909452600281015492840192909252600382015460608401526004820154608084015260059091015460a083015282918290815b8851811015613d87576001600089815260200190815260200160002060008a83815181106139da576139da61594e565b6020908102919091018101515160020b82528101919091526040016000205489516001600160801b039091169350899082908110613a1a57613a1a61594e565b6020026020010151602001516001600160801b031684600260008b815260200190815260200160002060008c8581518110613a5757613a5761594e565b6020908102919091018101515160020b825281019190915260400160002054613a8991906001600160801b03166158cf565b613a9391906158cf565b836001600160801b03161015613ad75760405162461bcd60e51b815260206004820152600960248201526821776974686472617760b81b60448201526064016109b6565b888181518110613ae957613ae961594e565b602002602001015160200151600260008a815260200190815260200160002060008b8481518110613b1c57613b1c61594e565b6020908102919091018101515160020b825281019190915260400160009081208054909190613b559084906001600160801b0316615a0e565b92506101000a8154816001600160801b0302191690836001600160801b031602179055506000808b6001600160a01b031663a34123a78c8581518110613b9d57613b9d61594e565b6020026020010151600001518b8e8781518110613bbc57613bbc61594e565b602002602001015160000151613bd291906158e2565b8e8781518110613be457613be461594e565b60209081029190910181015101516040516001600160e01b031960e086901b168152600293840b60048201529190920b60248201526001600160801b03909116604482015260640160408051808303816000875af1158015613c4a573d6000803e3d6000fd5b505050506040513d601f19601f82011682018060405250810190613c6e91906159d1565b915091508b6001600160a01b0316634f1eb3d8308d8681518110613c9457613c9461594e565b6020026020010151600001518c8f8881518110613cb357613cb361594e565b602002602001015160000151613cc991906158e2565b86866040518663ffffffff1660e01b8152600401613ceb959493929190615a2e565b60408051808303816000875af1158015613d09573d6000803e3d6000fd5b505050506040513d601f19601f82011682018060405250810190613d2d9190615a6b565b50613d3a905082896158cf565b9750613d4681886158cf565b9650613d718b8481518110613d5d57613d5d61594e565b6020026020010151600001518b8e876140c4565b5050508080613d7f906159f5565b9150506139aa565b50600085118015613d96575083155b80613daa575084158015613daa5750600084115b613dde5760405162461bcd60e51b8152602060048201526005602482015264217469636b60d81b60448201526064016109b6565b8415613dfb57613dfb613df460208c018c614b2d565b3387613e28565b8315613e1b57613e1b613e1460408c0160208d01614b2d565b3386613e28565b5050509550959350505050565b604080516001600160a01b038481166024830152604480830185905283518084039091018152606490920183526020820180516001600160e01b031663a9059cbb60e01b1790529151600092839290871691613e849190615dc3565b6000604051808303816000865af19150503d8060008114613ec1576040519150601f19603f3d011682016040523d82523d6000602084013e613ec6565b606091505b5091509150818015613ef0575080511580613ef0575080806020019051810190613ef09190615ddf565b613f215760405162461bcd60e51b815260206004820152600260248201526114d560f21b60448201526064016109b6565b5050505050565b6000838015613fc857600184168015613f4357859250613f47565b8392505b508260011c8460011c94505b8415613fc2578560801c15613f6757600080fd5b85860281810181811015613f7a57600080fd5b8590049650506001851615613fb7578583028387820414613fa0578615613fa057600080fd5b81810181811015613fb057600080fd5b8590049350505b8460011c9450613f53565b50613fde565b838015613fd85760009250613fdc565b8392505b505b509392505050565b600080806000198587098587029250828110838203039150508060000361401f576000841161401457600080fd5b508290049050610f56565b8084116140575760405162461bcd60e51b815260206004820152600660248201526536bab62234bb60d11b60448201526064016109b6565b6000848688096000868103871696879004966002600389028118808a02820302808a02820302808a02820302808a02820302808a02820302808a02909103029181900381900460010186841190950394909402919094039290920491909117919091029150509392505050565b6140e860405180606001604052806000815260200160008152602001600081525090565b6001600160a01b0383166000908152600560209081526040808320600289810b808652918452828520898652600185528386208387528552838620548a87529185528386209286529190935292205482546001600160801b039283169290911690670de0b6b3a7640000906141c39061416190836158cf565b670de0b6b3a764000061118687600201544261417d9190615907565b670de0b6b3a764000073__$eacbb88ed4bd2af84aa4d43bcf675bcf7e$__6317b474bf8d8c600101546040518363ffffffff1660e01b815260040161112c92919061591a565b6141cd9190615907565b83556001600160801b03811615614203576141fe6001600160801b0382811690670de0b6b3a7640000908516613fe6565b614206565b60005b600184018190554260028501819055604080516060810182529554865260208601929092529084015250909695505050505050565b6000858152600360209081526040808320600288900b8452909152902061427084600160801b6001600160801b038516613fe6565b81600001600082825461428391906158cf565b909155506142a1905083600160801b6001600160801b038516613fe6565b8160010160008282546142b491906158cf565b9091555050505050505050565b8060020b8260020b816142d6576142d6615ae0565b0760020b156142e457600080fd5b6000806143128360020b8560020b816142ff576142ff615ae0565b0560020b600881901d9161010090910790565b600191820b60009081526020979097526040909620805460ff9097169190911b90951890945550505050565b6060610f568383604051806060016040528060278152602001615e1060279139614719565b60006040516323b872dd60e01b81528460048201528360248201528260448201526020600060648360008a5af13d15601f3d1160016000511416171691505080613f215760405162461bcd60e51b81526020600482015260146024820152731514905394d1915497d19493d357d1905253115160621b60448201526064016109b6565b60006143fa6104cf36869003860186614e4f565b600081815260096020908152604082205492935060029290920b918591908190819081908190600a908290614431908e018e614b2d565b6001600160a01b03166001600160a01b0316815260200190815260200160002060008c60200160208101906144669190614b2d565b6001600160a01b03166001600160a01b0316815260200190815260200160002060008c604001602081019061449b9190615800565b62ffffff1681526020810191909152604001600020546001600160a01b031690505b8860020b8660020b12156136a857600088815260016020908152604080832060028a900b84529091529020546001600160801b031615614585576001600160a01b03811663a34123a7876145118a826158e2565b6040516001600160e01b031960e085901b168152600292830b6004820152910b60248201526000604482015260640160408051808303816000875af115801561455e573d6000803e3d6000fd5b505050506040513d601f19601f8201168201806040525081019061458291906159d1565b50505b6000806001600160a01b038316634f1eb3d8308a6145a38d826158e2565b6001600160801b03806040518663ffffffff1660e01b81526004016145cc959493929190615a2e565b60408051808303816000875af11580156145ea573d6000803e3d6000fd5b505050506040513d601f19601f8201168201806040525081019061460e9190615a6b565b91509150600360008b815260200190815260200160002060008960020b60020b81526020019081526020016000209650600160008b815260200190815260200160002060008960020b60020b815260200190815260200160002060009054906101000a90046001600160801b031693506000846001600160801b03161115614705576146b1826001600160801b0316600160801b866001600160801b0316613fe6565b8760000160008282546146c491906158cf565b925050819055506146ec816001600160801b0316600160801b866001600160801b0316613fe6565b8760010160008282546146ff91906158cf565b90915550505b50614712905087876158e2565b95506144bd565b6060600080856001600160a01b0316856040516147369190615dc3565b600060405180830381855af49150503d8060008114614771576040519150601f19603f3d011682016040523d82523d6000602084013e614776565b606091505b509150915061478786838387614791565b9695505050505050565b606083156148005782516000036147f9576001600160a01b0385163b6147f95760405162461bcd60e51b815260206004820152601d60248201527f416464726573733a2063616c6c20746f206e6f6e2d636f6e747261637400000060448201526064016109b6565b508161185f565b61185f83838151156148155781518083602001fd5b8060405162461bcd60e51b81526004016109b69190615dfc565b6040518061014001604052806000815260200160006001600160a01b031681526020016000801916815260200160008152602001600081526020016000815260200160008152602001600060020b815260200161488a614897565b8152600060209091015290565b6040518060e001604052806148db6040518060c001604052806000815260200160008152602001600081526020016000815260200160008152602001600081525090565b8152602001600081526020016000815260200160008152602001600061ffff16815260200160008152602001600081525090565b60405180610100016040528060008019168152602001600060020b81526020016149686040518060c001604052806000815260200160008152602001600081526020016000815260200160008152602001600081525090565b81526020016000815260200160008152602001600081526020016000815260200160006001600160801b031681525090565b6000606082840312156149ac57600080fd5b50919050565b8060020b81146149c157600080fd5b50565b60008060008060c085870312156149da57600080fd5b6149e4868661499a565b935060608501356149f4816149b2565b92506080850135614a04816149b2565b915060a0850135614a14816149b2565b939692955090935050565b80151581146149c157600080fd5b600080600080600060e08688031215614a4557600080fd5b614a4f878761499a565b9450606086013593506080860135925060a0860135614a6d81614a1f565b9497939650919460c0013592915050565b600081518084526020808501945080840160005b83811015614aee578151805160020b8852838101516001600160801b03168489015260408082015190890152606080820151908901526080808201519089015260a0908101519088015260c09096019590820190600101614a92565b509495945050505050565b8381528260208201526060604082015260006111976060830184614a7e565b6001600160a01b03811681146149c157600080fd5b600060208284031215614b3f57600080fd5b8135610f5681614b18565b803562ffffff81168114614b5d57600080fd5b919050565b600080600060608486031215614b7757600080fd5b8335614b8281614b18565b92506020840135614b9281614b18565b9150614ba060408501614b4a565b90509250925092565b634e487b7160e01b600052604160045260246000fd5b60405160c081016001600160401b0381118282101715614be157614be1614ba9565b60405290565b604051601f8201601f191681016001600160401b0381118282101715614c0f57614c0f614ba9565b604052919050565b600060608284031215614c2957600080fd5b604051606081018181106001600160401b0382111715614c4b57614c4b614ba9565b6040529050808235614c5c81614b18565b81526020830135614c6c81614b18565b6020820152614c7d60408401614b4a565b60408201525092915050565b60008060808385031215614c9c57600080fd5b614ca68484614c17565b946060939093013593505050565b600080600060a08486031215614cc957600080fd5b614cd38585614c17565b92506060840135614ce3816149b2565b91506080840135614cf3816149b2565b809150509250925092565b60008060408385031215614d1157600080fd5b823591506020830135614d23816149b2565b809150509250929050565b600080600080600060e08688031215614d4657600080fd5b614d508787614c17565b976060870135975060808701359660a0810135965060c00135945092505050565b600060208284031215614d8357600080fd5b8135610f5681614a1f565b600080600060608486031215614da357600080fd5b8335614dae816149b2565b92506020840135614dbe816149b2565b91506040840135614cf381614b18565b805182526020810151602083015260408101516040830152606081015160608301526080810151608083015260a081015160a08301525050565b6101808101614e17828a614dce565b8760c08301528660e08301528561010083015261ffff8516610120830152836101408301528261016083015298975050505050505050565b600060608284031215614e6157600080fd5b610f568383614c17565b60008060408385031215614e7e57600080fd5b50508035926020909101359150565b60008060008060808587031215614ea357600080fd5b843593506020850135614eb5816149b2565b92506040850135614ec5816149b2565b91506060850135614a14816149b2565b600060208284031215614ee757600080fd5b5035919050565b600060c08284031215614f0057600080fd5b614f08614bbf565b9050813581526020820135602082015260408201356040820152606082013560608201526080820135608082015260a082013560a082015292915050565b60008060006101008486031215614f5c57600080fd5b8335614f6781614b18565b92506020840135614f77816149b2565b9150614ba08560408601614eee565b60006001600160401b03821115614f9f57614f9f614ba9565b5060051b60200190565b6001600160801b03811681146149c157600080fd5b600082601f830112614fcf57600080fd5b81356020614fe4614fdf83614f86565b614be7565b82815260c0928302850182019282820191908785111561500357600080fd5b8387015b8581101561507a5781818a03121561501f5760008081fd5b615027614bbf565b8135615032816149b2565b81528186013561504181614fa9565b8187015260408281013590820152606080830135908201526080808301359082015260a080830135908201528452928401928101615007565b5090979650505050505050565b600080600060a0848603121561509c57600080fd5b6150a6858561499a565b925060608401356001600160401b038111156150c157600080fd5b6150cd86828701614fbe565b9250506080840135614cf381614b18565b600080604083850312156150f157600080fd5b82356150fc81614b18565b91506020830135614d23816149b2565b61ffff811681146149c157600080fd5b6000610180828403121561512f57600080fd5b60405160e081018181106001600160401b038211171561515157615151614ba9565b6040529050806151618484614eee565b815260c0830135602082015260e0830135604082015261010083013560608201526101208301356151918161510c565b8060808301525061014083013560a082015261016083013560c08201525092915050565b6000806101a083850312156151c957600080fd5b82356151d481614b18565b91506151e3846020850161511c565b90509250929050565b6000606082840312156151fe57600080fd5b610f56838361499a565b6001600160a01b0384168152600283900b602082015281516101c0820190615234906040840190614dce565b60208301516101008301526040830151610120830152606083015161014083015261ffff60808401511661016083015260a083015161018083015260c08301516101a0830152949350505050565b6000806040838503121561529557600080fd5b8235915060208301358060010b8114614d2357600080fd5b60008060008060c085870312156152c357600080fd5b6152cd868661499a565b935060608501356152dd816149b2565b925060808501356152ed816149b2565b915060a0850135614a1481614b18565b60008060008060c0858703121561531357600080fd5b61531d868661499a565b9350606085013561532d816149b2565b9250608085013561533d816149b2565b915060a0850135614a1481614fa9565b6000806000806080858703121561536357600080fd5b843561536e81614b18565b9350602085013561537e81614b18565b9250604085013561538e81614b18565b91506060850135614a1481614b18565b600080602083850312156153b157600080fd5b82356001600160401b03808211156153c857600080fd5b818501915085601f8301126153dc57600080fd5b8135818111156153eb57600080fd5b8660208260051b850101111561540057600080fd5b60209290920196919550909350505050565b60005b8381101561542d578181015183820152602001615415565b50506000910152565b6000815180845261544e816020860160208601615412565b601f01601f19169290920160200192915050565b6000602080830181845280855180835260408601915060408160051b870101925083870160005b828110156154b757603f198886030184526154a5858351615436565b94509285019290850190600101615489565b5092979650505050505050565b600080600080600060e086880312156154dc57600080fd5b6154e6878761499a565b945060608601356154f6816149b2565b93506080860135615506816149b2565b925060a086013561551681614fa9565b915060c086013561552681614b18565b809150509295509295909350565b600080600080600080610220878903121561554e57600080fd5b863561555981614b18565b9550602087013561556981614b18565b9450604087013561557981614b18565b935061558760608801614b4a565b92506080870135615597816149b2565b91506155a68860a0890161511c565b90509295509295509295565b600080608083850312156155c557600080fd5b6155cf848461499a565b915060608301356001600160401b038111156155ea57600080fd5b6155f685828601614fbe565b9150509250929050565b82815260406020820152600061185f6040830184614a7e565b6000806000806060858703121561562f57600080fd5b843593506020850135925060408501356001600160401b038082111561565457600080fd5b818701915087601f83011261566857600080fd5b81358181111561567757600080fd5b88602082850101111561568957600080fd5b95989497505060200194505050565b6020808252825182820181905260009190848201906040850190845b818110156156d95783516001600160a01b0316835292840192918401916001016156b4565b50909695505050505050565b60008060008060008060c087890312156156fe57600080fd5b863595506020870135615710816149b2565b94506040870135615720816149b2565b93506060870135615730816149b2565b9250608087013561574081614a1f565b8092505060a087013590509295509295509295565b60008060008060c0858703121561576b57600080fd5b615775868661499a565b935060608501356001600160401b0381111561579057600080fd5b61579c87828801614fbe565b93505060808501356157ad81614a1f565b9396929550929360a00135925050565b6020808252600a90820152695245454e5452414e435960b01b604082015260600190565b602080825260059082015264042c2eae8d60db1b604082015260600190565b60006020828403121561581257600080fd5b610f5682614b4a565b6001600160a01b03938416815291909216602082015262ffffff909116604082015260600190565b60208082526006908201526510b7bbb732b960d11b604082015260600190565b6020808252600690820152651c185d5cd95960d21b604082015260600190565b6020808252600190820152600760fc1b604082015260600190565b6020808252600190820152606960f81b604082015260600190565b634e487b7160e01b600052601160045260246000fd5b808201808211156120dd576120dd6158b9565b600281810b9083900b01627fffff8113627fffff19821217156120dd576120dd6158b9565b818103818111156120dd576120dd6158b9565b60e081016159288285614dce565b8260c08301529392505050565b60006020828403121561594757600080fd5b5051919050565b634e487b7160e01b600052603260045260246000fd5b6001600160801b038281168282160390808211156120db576120db6158b9565b60018060a01b03861681528460020b60208201528360020b60408201526001600160801b038316606082015260a0608082015260006159c660a0830184615436565b979650505050505050565b600080604083850312156159e457600080fd5b505080516020909101519092909150565b600060018201615a0757615a076158b9565b5060010190565b6001600160801b038181168382160190808211156120db576120db6158b9565b6001600160a01b03959095168552600293840b60208601529190920b60408401526001600160801b03918216606084015216608082015260a00190565b60008060408385031215615a7e57600080fd5b8251615a8981614fa9565b6020840151909250614d2381614fa9565b6000808335601e19843603018112615ab157600080fd5b8301803591506001600160401b03821115615acb57600080fd5b602001915036819003821315612edb57600080fd5b634e487b7160e01b600052601260045260246000fd5b60008260020b80615b1757634e487b7160e01b600052601260045260246000fd5b808360020b0791505092915050565b600080600080600060a08688031215615b3e57600080fd5b8551615b4981614fa9565b8095505060208601519350604086015192506060860151615b6981614fa9565b608087015190925061552681614fa9565b600060208284031215615b8c57600080fd5b8151610f56816149b2565b600061ffff808316818103615bae57615bae6158b9565b6001019392505050565b600080600080600080600060e0888a031215615bd357600080fd5b8751615bde81614b18565b6020890151909750615bef816149b2565b6040890151909650615c008161510c565b6060890151909550615c118161510c565b6080890151909450615c228161510c565b60a089015190935060ff81168114615c3957600080fd5b60c0890151909250615c4a81614a1f565b8091505092959891949750929550565b60008060006060808587031215615c7057600080fd5b8451935060208086015193506040808701516001600160401b03811115615c9657600080fd5b8701601f81018913615ca757600080fd5b8051615cb5614fdf82614f86565b81815260c0918202830185019185820191908c841115615cd457600080fd5b938601935b83851015615d4a5780858e031215615cf15760008081fd5b615cf9614bbf565b8551615d04816149b2565b815285880151615d1381614fa9565b81890152858701518782015288860151898201526080808701519082015260a0808701519082015283529384019391860191615cd9565b50809750505050505050509250925092565b600060208284031215615d6e57600080fd5b8151610f5681614b18565b61ffff8281168282160390808211156120db576120db6158b9565b60008060408385031215615da757600080fd5b8251615db2816149b2565b6020840151909250614d2381614a1f565b60008251615dd5818460208701615412565b9190910192915050565b600060208284031215615df157600080fd5b8151610f5681614a1f565b602081526000610f56602083018461543656fe416464726573733a206c6f772d6c6576656c2064656c65676174652063616c6c206661696c6564a26469706673582212200f2dd029e7f25aadb501d8ffab3bd36bfb8b72159352d652311e9b3c9b258d2a64736f6c63430008150033",
    "linkReferences": {
      "src/MatchingEngine.sol": {
        "MatchingEngine": [
          {
            "start": 12470,
            "length": 20
          },
          {
            "start": 13290,
            "length": 20
          }
        ]
      },
      "src/PremiumComputer.sol": {
        "PremiumComputer": [
          {
            "start": 4434,
            "length": 20
          },
          {
            "start": 16855,
            "length": 20
          }
        ]
      }
    }
  },
  "methodIdentifiers": {
    "Interests(bytes32,int24)": "d7a3dca0",
    "LiquidityBin(bytes32,int24)": "da69b0b3",
    "LiquidityPositions(bytes32,bytes32)": "5955cad3",
    "PoolParams(address)": "45e61a4d",
    "UtilizationGrowths(address,int24)": "6fc280e1",
    "addPool(address,address,address,uint24,int24,((uint256,uint256,uint256,uint256,uint256,uint256),uint256,uint256,uint256,uint16,uint256,uint256))": "b9a402a5",
    "binBitmaps(bytes32,int16)": "9744a42d",
    "borrowedLiquidities(bytes32,int24)": "19fda277",
    "collectFees((address,address,uint24),int24,int24)": "19fa1033",
    "feeParams(bytes32)": "c6c2c2ca",
    "findAndWithdraw((address,address,uint24),uint256,uint256,bool,uint256)": "0ea50f50",
    "findNearestInitializedBin(bytes32,int24,int24,int24,bool,uint256)": "d5783953",
    "findTicks((address,address,uint24),uint256,uint256,bool,uint256)": "d069f1ac",
    "getFeeParams((address,address,uint24))": "f2d490a5",
    "getGrowth(address,int24,(uint256,uint256,uint256,uint256,uint256,uint256))": "68335691",
    "getHashedKey((address,address,uint24))": "48222442",
    "getHashedPositionKey(int24,int24,address)": "406a3d02",
    "getInterestGrowthInside(bytes32,int24,int24,int24)": "5ea33ec5",
    "getLiquidityPosition((address,address,uint24),int24,int24,address)": "a8404655",
    "getParams((address,address,uint24))": "95250923",
    "getPool(address,address,uint24)": "1698ee82",
    "getPoolList()": "d41dcbea",
    "getProfitFee((address,address,uint24))": "b75323a7",
    "marginFacility()": "a882c12d",
    "minLiquidities(bytes32)": "a841fdd8",
    "mintToRepay((address,address,uint24),(int24,uint128,uint256,uint256,uint256,uint256)[],address)": "6cb42a2f",
    "multicall(bytes[])": "ac9650d8",
    "owner()": "8da5cb5b",
    "payInterest((address,address,uint24),(int24,uint128,uint256,uint256,uint256,uint256)[],bool,uint256)": "fc6e9cbf",
    "provideDiscreteLiquidity((address,address,uint24),int24,int24,uint128,address)": "b8919fa6",
    "setCollectPaused(bool)": "dc724d3a",
    "setFacilities(address,address,address,address)": "ac00b809",
    "setMinLiquidity((address,address,uint24),uint256)": "18cdea9d",
    "setOwner(address)": "13af4035",
    "setProvidePaused(bool)": "25f149ce",
    "setWithdrawPaused(bool)": "37d15139",
    "tickDiscretizations(bytes32)": "65197688",
    "uniswapFactory()": "8bdb2afa",
    "uniswapV3MintCallback(uint256,uint256,bytes)": "d3487997",
    "updateCollectedFees((address,address,uint24),int24,int24,int24)": "0229fb60",
    "updateFeeParams((address,address,uint24),uint256,uint256,uint256,uint256)": "2398c1a9",
    "updatePoolParams(address,((uint256,uint256,uint256,uint256,uint256,uint256),uint256,uint256,uint256,uint16,uint256,uint256))": "895f4ade",
    "withdrawDiscreteLiquidity((address,address,uint24),int24,int24,uint128)": "abf978e4",
    "withdrawToBorrow((address,address,uint24),(int24,uint128,uint256,uint256,uint256,uint256)[])": "bbd95472"
  },
  "id": 43
}