{
  "_format": "hh-sol-artifact-1",
  "contractName": "Quoter",
  "sourceName": "src/periphery/Quoter.sol",
  "abi": [
    {
      "inputs": [
        {
          "internalType": "address",
          "name": "_quoterV2",
          "type": "address"
        },
        {
          "internalType": "address",
          "name": "_poolManager",
          "type": "address"
        }
      ],
      "stateMutability": "nonpayable",
      "type": "constructor"
    },
    {
      "inputs": [],
      "name": "getPoolKeys",
      "outputs": [
        {
          "components": [
            {
              "internalType": "address",
              "name": "token0",
              "type": "address"
            },
            {
              "internalType": "address",
              "name": "token1",
              "type": "address"
            },
            {
              "internalType": "string",
              "name": "symbol0",
              "type": "string"
            },
            {
              "internalType": "string",
              "name": "symbol1",
              "type": "string"
            },
            {
              "internalType": "uint24",
              "name": "fee",
              "type": "uint24"
            },
            {
              "internalType": "string",
              "name": "name0",
              "type": "string"
            },
            {
              "internalType": "string",
              "name": "name1",
              "type": "string"
            },
            {
              "internalType": "uint8",
              "name": "decimals0",
              "type": "uint8"
            },
            {
              "internalType": "uint8",
              "name": "decimals1",
              "type": "uint8"
            }
          ],
          "internalType": "struct Quoter.PoolInfo[]",
          "name": "",
          "type": "tuple[]"
        }
      ],
      "stateMutability": "view",
      "type": "function"
    },
    {
      "inputs": [
        {
          "components": [
            {
              "components": [
                {
                  "internalType": "address",
                  "name": "token0",
                  "type": "address"
                },
                {
                  "internalType": "address",
                  "name": "token1",
                  "type": "address"
                },
                {
                  "internalType": "uint24",
                  "name": "fee",
                  "type": "uint24"
                }
              ],
              "internalType": "struct PoolKey",
              "name": "poolKey",
              "type": "tuple"
            },
            {
              "internalType": "bool",
              "name": "isToken0",
              "type": "bool"
            },
            {
              "internalType": "uint256",
              "name": "margin",
              "type": "uint256"
            },
            {
              "internalType": "uint256",
              "name": "borrowAmount",
              "type": "uint256"
            },
            {
              "internalType": "contract IQuoterV2",
              "name": "quoter",
              "type": "address"
            }
          ],
          "internalType": "struct Quoter.QuoteExactInputParams",
          "name": "params",
          "type": "tuple"
        }
      ],
      "name": "quoteExactInput",
      "outputs": [
        {
          "internalType": "uint256",
          "name": "swapInput",
          "type": "uint256"
        },
        {
          "internalType": "uint256",
          "name": "positionOutput",
          "type": "uint256"
        },
        {
          "internalType": "uint256",
          "name": "borrowRate",
          "type": "uint256"
        },
        {
          "internalType": "uint256",
          "name": "feeAmount",
          "type": "uint256"
        },
        {
          "internalType": "uint256",
          "name": "avgPrice",
          "type": "uint256"
        },
        {
          "components": [
            {
              "internalType": "int24",
              "name": "tick",
              "type": "int24"
            },
            {
              "internalType": "uint128",
              "name": "liquidity",
              "type": "uint128"
            },
            {
              "internalType": "uint256",
              "name": "premium",
              "type": "uint256"
            },
            {
              "internalType": "uint256",
              "name": "feeGrowthInside0LastX128",
              "type": "uint256"
            },
            {
              "internalType": "uint256",
              "name": "feeGrowthInside1LastX128",
              "type": "uint256"
            },
            {
              "internalType": "uint256",
              "name": "lastGrowth",
              "type": "uint256"
            }
          ],
          "internalType": "struct LiquidityLoan[]",
          "name": "borrowInfo",
          "type": "tuple[]"
        }
      ],
      "stateMutability": "nonpayable",
      "type": "function"
    }
  ],
  "bytecode": "0x60806040523480156200001157600080fd5b50604051620018b0380380620018b0833981016040819052620000349162000083565b600080546001600160a01b039384166001600160a01b03199182161790915560018054929093169116179055620000bb565b80516001600160a01b03811681146200007e57600080fd5b919050565b600080604083850312156200009757600080fd5b620000a28362000066565b9150620000b26020840162000066565b90509250929050565b6117e580620000cb6000396000f3fe608060405234801561001057600080fd5b50600436106100365760003560e01c8063870a13511461003b578063d183feee14610069575b600080fd5b61004e610049366004610d2a565b61007e565b60405161006096959493929190610d88565b60405180910390f35b6100716105e6565b6040516100609190610e4a565b6000808080806060818061009860e08a0160c08b01610f86565b6001600160a01b0316146100bb576100b660e0890160c08a01610f86565b6100c8565b6000546001600160a01b03165b90506100d2610c76565b600154604051632411122160e11b81526001600160a01b0390911690634822244290610102908c90600401610fff565b602060405180830381865afa15801561011f573d6000803e3d6000fd5b505050506040513d601f19601f820116820180604052508101906101439190611013565b6080820152600154604051639525092360e01b81526001600160a01b0390911690639525092390610178908c90600401610fff565b6101c060405180830381865afa158015610196573d6000803e3d6000fd5b505050506040513d601f19601f820116820180604052508101906101ba91906110e8565b60a084015260020b60208301526001600160a01b0390811682526001546080830151604051636361616560e11b8152600481019190915291169063c6c2c2ca9060240160a060405180830381865afa15801561021a573d6000803e3d6000fd5b505050506040513d601f19601f8201168201806040525081019061023e91906111f3565b505050506001600160801b031660408281019190915281518151633850c7bd60e01b815291516001600160a01b0390911691633850c7bd9160048083019260e09291908290030181865afa15801561029a573d6000803e3d6000fd5b505050506040513d601f19601f820116820180604052508101906102be9190611270565b5050506001600160a01b03909316606085015250505060408101516102ff90670de0b6b3a76400006102f860a08d013560808e0135611312565b9190610b93565b945060a08901356103148660808c0135611325565b61031e9190611312565b9750816001600160a01b031663c6a5026a6040518060a001604052808c606001602081019061034d9190611338565b6103635761035e60208e018e610f86565b610373565b61037360408e0160208f01610f86565b6001600160a01b0316815260200161039160808e0160608f01611338565b6103aa576103a560408e0160208f01610f86565b6103b7565b6103b760208e018e610f86565b6001600160a01b031681526020018b81526020018c60000160400160208101906103e19190611355565b62ffffff908116825260006020928301526040805160e086901b6001600160e01b031916815284516001600160a01b03908116600483015293850151841660248201529084015160448201526060840151909116606482015260809092015116608482015260a4016080604051808303816000875af1158015610468573d6000803e3d6000fd5b505050506040513d601f19601f8201168201806040525081019061048c9190611372565b5050600154919850506001600160a01b03166348c6f8668a6104b2886080830135611325565b8c60a001358d60600160208101906104ca9190611338565b8c87606001516040518763ffffffff1660e01b81526004016104f1969594939291906113c4565b600060405180830381865afa15801561050e573d6000803e3d6000fd5b505050506040513d6000823e601f3d908101601f191682016040526105369190810190611428565b8251600154602085015160a086015151608087015160405163aa7532af60e01b8152969a5094985073__$eacbb88ed4bd2af84aa4d43bcf675bcf7e$__9563aa7532af9561059895946001600160a01b03169392918b91600091600401611568565b602060405180830381865af41580156105b5573d6000803e3d6000fd5b505050506040513d601f19601f820116820180604052508101906105d99190611013565b9550505091939550919395565b60606000600160009054906101000a90046001600160a01b03166001600160a01b031663d41dcbea6040518163ffffffff1660e01b8152600401600060405180830381865afa15801561063d573d6000803e3d6000fd5b505050506040513d6000823e601f3d908101601f1916820160405261066591908101906115fd565b90506000815167ffffffffffffffff81111561068357610683611043565b60405190808252806020026020018201604052801561072057816020015b61070d60405180610120016040528060006001600160a01b0316815260200160006001600160a01b031681526020016060815260200160608152602001600062ffffff1681526020016060815260200160608152602001600060ff168152602001600060ff1681525090565b8152602001906001900390816106a15790505b50905060005b8251811015610b8c57600083828151811061074357610743611697565b60200260200101516001600160a01b0316630dfe16816040518163ffffffff1660e01b8152600401602060405180830381865afa158015610788573d6000803e3d6000fd5b505050506040513d601f19601f820116820180604052508101906107ac91906116ad565b905060008483815181106107c2576107c2611697565b60200260200101516001600160a01b031663d21220a76040518163ffffffff1660e01b8152600401602060405180830381865afa158015610807573d6000803e3d6000fd5b505050506040513d601f19601f8201168201806040525081019061082b91906116ad565b9050604051806101200160405280836001600160a01b03168152602001826001600160a01b03168152602001836001600160a01b03166395d89b416040518163ffffffff1660e01b8152600401600060405180830381865afa158015610895573d6000803e3d6000fd5b505050506040513d6000823e601f3d908101601f191682016040526108bd91908101906116ca565b8152602001826001600160a01b03166395d89b416040518163ffffffff1660e01b8152600401600060405180830381865afa158015610900573d6000803e3d6000fd5b505050506040513d6000823e601f3d908101601f1916820160405261092891908101906116ca565b815260200186858151811061093f5761093f611697565b60200260200101516001600160a01b031663ddca3f436040518163ffffffff1660e01b8152600401602060405180830381865afa158015610984573d6000803e3d6000fd5b505050506040513d601f19601f820116820180604052508101906109a8919061175e565b62ffffff168152602001836001600160a01b03166306fdde036040518163ffffffff1660e01b8152600401600060405180830381865afa1580156109f0573d6000803e3d6000fd5b505050506040513d6000823e601f3d908101601f19168201604052610a1891908101906116ca565b8152602001826001600160a01b03166306fdde036040518163ffffffff1660e01b8152600401600060405180830381865afa158015610a5b573d6000803e3d6000fd5b505050506040513d6000823e601f3d908101601f19168201604052610a8391908101906116ca565b8152602001836001600160a01b031663313ce5676040518163ffffffff1660e01b8152600401602060405180830381865afa158015610ac6573d6000803e3d6000fd5b505050506040513d601f19601f82011682018060405250810190610aea919061177b565b60ff168152602001826001600160a01b031663313ce5676040518163ffffffff1660e01b8152600401602060405180830381865afa158015610b30573d6000803e3d6000fd5b505050506040513d601f19601f82011682018060405250810190610b54919061177b565b60ff16815250848481518110610b6c57610b6c611697565b602002602001018190525050508080610b8490611796565b915050610726565b5092915050565b6000808060001985870985870292508281108382030391505080600003610bcc5760008411610bc157600080fd5b508290049050610c6f565b808411610c085760405162461bcd60e51b815260206004820152600660248201526536bab62234bb60d11b604482015260640160405180910390fd5b6000848688096000868103871696879004966002600389028118808a02820302808a02820302808a02820302808a02820302808a02820302808a02909103029181900381900460010186841190950394909402919094039290920491909117919091029150505b9392505050565b6040805160c08101825260008082526020820181905291810182905260608101829052608081019190915260a08101610cad610cb2565b905290565b6040518060e00160405280610cf66040518060c001604052806000815260200160008152602001600081526020016000815260200160008152602001600081525090565b8152602001600081526020016000815260200160008152602001600061ffff16815260200160008152602001600081525090565b600060e08284031215610d3c57600080fd5b50919050565b805160020b82526001600160801b03602082015116602083015260408101516040830152606081015160608301526080810151608083015260a081015160a08301525050565b600060c0808301898452602089818601528860408601528760608601528660808601528260a086015281865180845260e087019150828801935060005b81811015610de857610dd8838651610d42565b9383019391850191600101610dc5565b50909c9b505050505050505050505050565b60005b83811015610e15578181015183820152602001610dfd565b50506000910152565b60008151808452610e36816020860160208601610dfa565b601f01601f19169290920160200192915050565b60006020808301818452808551808352604092508286019150828160051b87010184880160005b83811015610f6057888303603f19018552815180516001600160a01b03168452610120818901516001600160a01b038116868b015250878201518189870152610ebc82870182610e1e565b91505060608083015186830382880152610ed68382610e1e565b92505050608080830151610ef08288018262ffffff169052565b505060a08083015186830382880152610f098382610e1e565b9250505060c08083015186830382880152610f248382610e1e565b9250505060e080830151610f3c8288018260ff169052565b50506101009182015160ff1694909101939093529386019390860190600101610e71565b509098975050505050505050565b6001600160a01b0381168114610f8357600080fd5b50565b600060208284031215610f9857600080fd5b8135610c6f81610f6e565b62ffffff81168114610f8357600080fd5b8035610fbf81610f6e565b6001600160a01b039081168352602082013590610fdb82610f6e565b1660208301526040810135610fef81610fa3565b62ffffff81166040840152505050565b6060810161100d8284610fb4565b92915050565b60006020828403121561102557600080fd5b5051919050565b8051600281900b811461103e57600080fd5b919050565b634e487b7160e01b600052604160045260246000fd5b60405160e0810167ffffffffffffffff8111828210171561107c5761107c611043565b60405290565b60405160c0810167ffffffffffffffff8111828210171561107c5761107c611043565b604051601f8201601f1916810167ffffffffffffffff811182821017156110ce576110ce611043565b604052919050565b805161ffff8116811461103e57600080fd5b60008060008385036101c08112156110ff57600080fd5b845161110a81610f6e565b93506111186020860161102c565b9250603f19016101808082121561112e57600080fd5b611136611059565b60c083121561114457600080fd5b61114c611082565b925060408701518352606087015160208401526080870151604084015260a0870151606084015260c0870151608084015260e087015160a08401528281526101008701516020820152610120870151604082015261014087015160608201526111b861016088016110d6565b60808201529086015160a08201526101a09095015160c08601525091949093509050565b80516001600160801b038116811461103e57600080fd5b600080600080600060a0868803121561120b57600080fd5b611214866111dc565b9450611222602087016111dc565b9350611230604087016111dc565b925061123e606087016111dc565b9150608086015190509295509295909350565b805160ff8116811461103e57600080fd5b8015158114610f8357600080fd5b600080600080600080600060e0888a03121561128b57600080fd5b875161129681610f6e565b96506112a46020890161102c565b95506112b2604089016110d6565b94506112c0606089016110d6565b93506112ce608089016110d6565b92506112dc60a08901611251565b915060c08801516112ec81611262565b8091505092959891949750929550565b634e487b7160e01b600052601160045260246000fd5b8082018082111561100d5761100d6112fc565b8181038181111561100d5761100d6112fc565b60006020828403121561134a57600080fd5b8135610c6f81611262565b60006020828403121561136757600080fd5b8135610c6f81610fa3565b6000806000806080858703121561138857600080fd5b84519350602085015161139a81610f6e565b604086015190935063ffffffff811681146113b457600080fd5b6060959095015193969295505050565b61010081016113d38289610fb4565b6060820196909652608081019490945291151560a084015260c08301526001600160a01b031660e090910152919050565b600067ffffffffffffffff82111561141e5761141e611043565b5060051b60200190565b600080604080848603121561143c57600080fd5b8351925060208085015167ffffffffffffffff81111561145b57600080fd5b8501601f8101871361146c57600080fd5b805161147f61147a82611404565b6110a5565b81815260c0918202830184019184820191908a84111561149e57600080fd5b938501935b838510156115125780858c0312156114bb5760008081fd5b6114c3611082565b6114cc8661102c565b81526114d98787016111dc565b818801528588015188820152606080870151908201526080808701519082015260a08087015190820152835293840193918501916114a3565b508096505050505050509250929050565b600081518084526020808501945080840160005b8381101561155d5761154a878351610d42565b60c0969096019590820190600101611537565b509495945050505050565b600061018060018060a01b03808b168452808a166020850152508760020b60408401528651606084015260208701516080840152604087015160a0840152606087015160c0840152608087015160e084015260a0870151610100840152806101208401526115d881840187611523565b9150506115ea61014083018515159052565b8261016083015298975050505050505050565b6000602080838503121561161057600080fd5b825167ffffffffffffffff81111561162757600080fd5b8301601f8101851361163857600080fd5b805161164661147a82611404565b81815260059190911b8201830190838101908783111561166557600080fd5b928401925b8284101561168c57835161167d81610f6e565b8252928401929084019061166a565b979650505050505050565b634e487b7160e01b600052603260045260246000fd5b6000602082840312156116bf57600080fd5b8151610c6f81610f6e565b6000602082840312156116dc57600080fd5b815167ffffffffffffffff808211156116f457600080fd5b818401915084601f83011261170857600080fd5b81518181111561171a5761171a611043565b61172d601f8201601f19166020016110a5565b915080825285602082850101111561174457600080fd5b611755816020840160208601610dfa565b50949350505050565b60006020828403121561177057600080fd5b8151610c6f81610fa3565b60006020828403121561178d57600080fd5b610c6f82611251565b6000600182016117a8576117a86112fc565b506001019056fea26469706673582212205c6a23aecb4c825f67cf5c35416a89e622bf2c6f19a006a6b412512a14a37fdd64736f6c63430008120033",
  "linkReferences": {
    "src/PremiumComputer.sol": {
      "PremiumComputer": [
        {
          "length": 20,
          "start": 1579
        }
      ]
    }
  },
  "deployedLinkReferences": {
    "src/PremiumComputer.sol": {
      "PremiumComputer": [
        {
          "length": 20,
          "start": 1376
        }
      ]
    }
  }
}