{
  "abi": [
    {
      "inputs": [
        {
          "internalType": "address",
          "name": "_quoterV2",
          "type": "address"
        },
        {
          "internalType": "address",
          "name": "_poolManager",
          "type": "address"
        },
        {
          "internalType": "address",
          "name": "_dataProvider",
          "type": "address"
        },
        {
          "internalType": "address",
          "name": "_sharedLiquidity",
          "type": "address"
        },
        {
          "internalType": "address",
          "name": "_nfpm",
          "type": "address"
        }
      ],
      "stateMutability": "nonpayable",
      "type": "constructor"
    },
    {
      "inputs": [
        {
          "internalType": "address",
          "name": "pool",
          "type": "address"
        }
      ],
      "name": "addIsSlot6",
      "outputs": [],
      "stateMutability": "nonpayable",
      "type": "function"
    },
    {
      "inputs": [
        {
          "internalType": "int24",
          "name": "tickDiff",
          "type": "int24"
        }
      ],
      "name": "getAllAprUtil",
      "outputs": [
        {
          "components": [
            {
              "components": [
                {
                  "internalType": "address",
                  "name": "token0",
                  "type": "address"
                },
                {
                  "internalType": "address",
                  "name": "token1",
                  "type": "address"
                },
                {
                  "internalType": "uint24",
                  "name": "fee",
                  "type": "uint24"
                }
              ],
              "internalType": "struct PoolKey",
              "name": "key",
              "type": "tuple"
            },
            {
              "internalType": "uint256",
              "name": "apr",
              "type": "uint256"
            },
            {
              "internalType": "uint256",
              "name": "utilTotal",
              "type": "uint256"
            }
          ],
          "internalType": "struct Quoter.AprUtilInfo[]",
          "name": "",
          "type": "tuple[]"
        }
      ],
      "stateMutability": "view",
      "type": "function"
    },
    {
      "inputs": [
        {
          "internalType": "address",
          "name": "account",
          "type": "address"
        }
      ],
      "name": "getLpPositions",
      "outputs": [
        {
          "components": [
            {
              "internalType": "uint256",
              "name": "tokenId",
              "type": "uint256"
            },
            {
              "internalType": "address",
              "name": "owner",
              "type": "address"
            },
            {
              "internalType": "address",
              "name": "token0",
              "type": "address"
            },
            {
              "internalType": "address",
              "name": "token1",
              "type": "address"
            },
            {
              "internalType": "uint24",
              "name": "fee",
              "type": "uint24"
            },
            {
              "internalType": "int24",
              "name": "tickLower",
              "type": "int24"
            },
            {
              "internalType": "int24",
              "name": "tickUpper",
              "type": "int24"
            },
            {
              "components": [
                {
                  "internalType": "uint128",
                  "name": "liquidity",
                  "type": "uint128"
                },
                {
                  "internalType": "uint256",
                  "name": "feeGrowthInside0LastX128",
                  "type": "uint256"
                },
                {
                  "internalType": "uint256",
                  "name": "feeGrowthInside1LastX128",
                  "type": "uint256"
                }
              ],
              "internalType": "struct NonfungiblePositionManagerV2.Bins[]",
              "name": "bins",
              "type": "tuple[]"
            },
            {
              "internalType": "uint128",
              "name": "tokensOwed0",
              "type": "uint128"
            },
            {
              "internalType": "uint128",
              "name": "tokensOwed1",
              "type": "uint128"
            }
          ],
          "internalType": "struct Quoter.LPInfo[]",
          "name": "",
          "type": "tuple[]"
        }
      ],
      "stateMutability": "view",
      "type": "function"
    },
    {
      "inputs": [],
      "name": "getPoolKeys",
      "outputs": [
        {
          "components": [
            {
              "internalType": "address",
              "name": "token0",
              "type": "address"
            },
            {
              "internalType": "address",
              "name": "token1",
              "type": "address"
            },
            {
              "internalType": "string",
              "name": "symbol0",
              "type": "string"
            },
            {
              "internalType": "string",
              "name": "symbol1",
              "type": "string"
            },
            {
              "internalType": "uint24",
              "name": "fee",
              "type": "uint24"
            },
            {
              "internalType": "string",
              "name": "name0",
              "type": "string"
            },
            {
              "internalType": "string",
              "name": "name1",
              "type": "string"
            },
            {
              "internalType": "uint8",
              "name": "decimals0",
              "type": "uint8"
            },
            {
              "internalType": "uint8",
              "name": "decimals1",
              "type": "uint8"
            },
            {
              "internalType": "int24",
              "name": "tick",
              "type": "int24"
            }
          ],
          "internalType": "struct Quoter.PoolInfo[]",
          "name": "",
          "type": "tuple[]"
        }
      ],
      "stateMutability": "view",
      "type": "function"
    },
    {
      "inputs": [],
      "name": "getSharedLiquidityInfo",
      "outputs": [
        {
          "components": [
            {
              "components": [
                {
                  "internalType": "address",
                  "name": "token0",
                  "type": "address"
                },
                {
                  "internalType": "address",
                  "name": "token1",
                  "type": "address"
                },
                {
                  "internalType": "uint24",
                  "name": "fee",
                  "type": "uint24"
                }
              ],
              "internalType": "struct PoolKey",
              "name": "key",
              "type": "tuple"
            },
            {
              "internalType": "uint256",
              "name": "maxPerPair",
              "type": "uint256"
            },
            {
              "internalType": "uint256",
              "name": "exposureToPair",
              "type": "uint256"
            }
          ],
          "internalType": "struct Quoter.PairSharedLiquidityInfo[]",
          "name": "",
          "type": "tuple[]"
        }
      ],
      "stateMutability": "view",
      "type": "function"
    },
    {
      "inputs": [
        {
          "internalType": "address",
          "name": "",
          "type": "address"
        }
      ],
      "name": "isSlot6",
      "outputs": [
        {
          "internalType": "bool",
          "name": "",
          "type": "bool"
        }
      ],
      "stateMutability": "view",
      "type": "function"
    },
    {
      "inputs": [],
      "name": "owner",
      "outputs": [
        {
          "internalType": "address",
          "name": "",
          "type": "address"
        }
      ],
      "stateMutability": "view",
      "type": "function"
    },
    {
      "inputs": [
        {
          "components": [
            {
              "components": [
                {
                  "internalType": "address",
                  "name": "token0",
                  "type": "address"
                },
                {
                  "internalType": "address",
                  "name": "token1",
                  "type": "address"
                },
                {
                  "internalType": "uint24",
                  "name": "fee",
                  "type": "uint24"
                }
              ],
              "internalType": "struct PoolKey",
              "name": "poolKey",
              "type": "tuple"
            },
            {
              "internalType": "bool",
              "name": "isToken0",
              "type": "bool"
            },
            {
              "internalType": "uint256",
              "name": "marginInInput",
              "type": "uint256"
            },
            {
              "internalType": "uint256",
              "name": "marginInOutput",
              "type": "uint256"
            },
            {
              "internalType": "uint256",
              "name": "borrowAmount",
              "type": "uint256"
            },
            {
              "internalType": "contract IQuoterV2",
              "name": "quoter",
              "type": "address"
            },
            {
              "internalType": "bool",
              "name": "marginInPosToken",
              "type": "bool"
            }
          ],
          "internalType": "struct Quoter.QuoteExactInputParams",
          "name": "params",
          "type": "tuple"
        }
      ],
      "name": "quoteExactInput",
      "outputs": [
        {
          "internalType": "uint256",
          "name": "swapInput",
          "type": "uint256"
        },
        {
          "internalType": "uint256",
          "name": "positionOutput",
          "type": "uint256"
        },
        {
          "internalType": "uint256",
          "name": "borrowRate",
          "type": "uint256"
        },
        {
          "internalType": "uint256",
          "name": "feeAmount",
          "type": "uint256"
        },
        {
          "internalType": "uint256",
          "name": "avgPrice",
          "type": "uint256"
        },
        {
          "components": [
            {
              "internalType": "int24",
              "name": "tick",
              "type": "int24"
            },
            {
              "internalType": "uint128",
              "name": "liquidity",
              "type": "uint128"
            },
            {
              "internalType": "uint256",
              "name": "premium",
              "type": "uint256"
            },
            {
              "internalType": "uint256",
              "name": "feeGrowthInside0LastX128",
              "type": "uint256"
            },
            {
              "internalType": "uint256",
              "name": "feeGrowthInside1LastX128",
              "type": "uint256"
            },
            {
              "internalType": "uint256",
              "name": "lastGrowth",
              "type": "uint256"
            }
          ],
          "internalType": "struct LiquidityLoan[]",
          "name": "borrowInfo",
          "type": "tuple[]"
        }
      ],
      "stateMutability": "nonpayable",
      "type": "function"
    }
  ],
  "bytecode": {
    "object": "0x60806040523480156200001157600080fd5b5060405162002f7d38038062002f7d8339810160408190526200003491620000c0565b600080546001600160a01b03199081166001600160a01b0397881617909155600180548216958716959095179094556002805485169386169390931790925560038054841691851691909117905560058054831691909316179091556004805433921691909117905562000130565b80516001600160a01b0381168114620000bb57600080fd5b919050565b600080600080600060a08688031215620000d957600080fd5b620000e486620000a3565b9450620000f460208701620000a3565b93506200010460408701620000a3565b92506200011460608701620000a3565b91506200012460808701620000a3565b90509295509295909350565b612e3d80620001406000396000f3fe608060405234801561001057600080fd5b50600436106100885760003560e01c8063ae6e04091161005b578063ae6e040914610116578063b1b873a214610149578063d183feee1461016e578063e35ef2ce1461018357600080fd5b80630327b40c1461008d578063359b805b146100b657806352f0cf63146100cb5780638da5cb5b146100eb575b600080fd5b6100a061009b366004611d89565b610198565b6040516100ad9190611df3565b60405180910390f35b6100be610688565b6040516100ad9190611e41565b6100de6100d9366004611e98565b610961565b6040516100ad9190611f0f565b6004546100fe906001600160a01b031681565b6040516001600160a01b0390911681526020016100ad565b610139610124366004611e98565b60066020526000908152604090205460ff1681565b60405190151581526020016100ad565b61015c610157366004612020565b610da4565b6040516100ad9695949392919061207f565b61017661144e565b6040516100ad9190612141565b610196610191366004611e98565b611709565b005b60606000600160009054906101000a90046001600160a01b03166001600160a01b031663d41dcbea6040518163ffffffff1660e01b8152600401600060405180830381865afa1580156101ef573d6000803e3d6000fd5b505050506040513d6000823e601f3d908101601f191682016040526102179190810190612337565b9050600081516001600160401b0381111561023457610234612262565b60405190808252806020026020018201604052801561029357816020015b6040805160c0810182526000606082018181526080830182905260a08301829052825260208083018290529282015282526000199092019101816102525790505b50905060005b82518110156106805760008382815181106102b6576102b66123d5565b60200260200101516001600160a01b0316630dfe16816040518163ffffffff1660e01b8152600401602060405180830381865afa1580156102fb573d6000803e3d6000fd5b505050506040513d601f19601f8201168201806040525081019061031f91906123eb565b90506000848381518110610335576103356123d5565b60200260200101516001600160a01b031663d21220a76040518163ffffffff1660e01b8152600401602060405180830381865afa15801561037a573d6000803e3d6000fd5b505050506040513d601f19601f8201168201806040525081019061039e91906123eb565b90506000600660008786815181106103b8576103b86123d5565b6020908102919091018101516001600160a01b031682528101919091526040016000205460ff161561046d578584815181106103f6576103f66123d5565b60200260200101516001600160a01b0316633850c7bd6040518163ffffffff1660e01b815260040160c060405180830381865afa15801561043b573d6000803e3d6000fd5b505050506040513d601f19601f8201168201806040525081019061045f919061242d565b509294506104f29350505050565b85848151811061047f5761047f6123d5565b60200260200101516001600160a01b0316633850c7bd6040518163ffffffff1660e01b815260040160e060405180830381865afa1580156104c4573d6000803e3d6000fd5b505050506040513d601f19601f820116820180604052508101906104e891906124bb565b5093955050505050505b60006040518060600160405280856001600160a01b03168152602001846001600160a01b0316815260200188878151811061052f5761052f6123d5565b60200260200101516001600160a01b031663ddca3f436040518163ffffffff1660e01b8152600401602060405180830381865afa158015610574573d6000803e3d6000fd5b505050506040513d601f19601f82011682018060405250810190610598919061255b565b62ffffff16905260025490915060009081906001600160a01b0316631f2ecd83846105c38e8861258e565b6105cd8f896125b3565b6040518463ffffffff1660e01b81526004016105eb939291906125d8565b6040805180830381865afa158015610607573d6000803e3d6000fd5b505050506040513d601f19601f8201168201806040525081019061062b9190612600565b9150915060405180606001604052808481526020018381526020018281525088888151811061065c5761065c6123d5565b6020026020010181905250505050505050808061067890612624565b915050610299565b509392505050565b6060600061069461144e565b9050600081516001600160401b038111156106b1576106b1612262565b60405190808252806020026020018201604052801561071057816020015b6040805160c0810182526000606082018181526080830182905260a08301829052825260208083018290529282015282526000199092019101816106cf5790505b50905060005b825181101561095a576000604051806060016040528085848151811061073e5761073e6123d5565b6020026020010151600001516001600160a01b0316815260200185848151811061076a5761076a6123d5565b6020026020010151602001516001600160a01b03168152602001858481518110610796576107966123d5565b60209081029190910101516080015162ffffff169052600154604051632411122160e11b81529192506000916001600160a01b03909116906348222442906107e290859060040161263d565b602060405180830381865afa1580156107ff573d6000803e3d6000fd5b505050506040513d601f19601f82011682018060405250810190610823919061264b565b60035460405163fad56a4160e01b8152600481018390529192506000916001600160a01b039091169063fad56a4190602401602060405180830381865afa158015610872573d6000803e3d6000fd5b505050506040513d601f19601f82011682018060405250810190610896919061264b565b6003546040516376efa68360e01b8152600481018590529192506000916001600160a01b03909116906376efa68390602401602060405180830381865afa1580156108e5573d6000803e3d6000fd5b505050506040513d601f19601f82011682018060405250810190610909919061264b565b9050604051806060016040528085815260200182815260200183815250868681518110610938576109386123d5565b602002602001018190525050505050808061095290612624565b915050610716565b5092915050565b6005546040516370a0823160e01b81526001600160a01b0383811660048301526060926000929116906370a0823190602401602060405180830381865afa1580156109b0573d6000803e3d6000fd5b505050506040513d601f19601f820116820180604052508101906109d4919061264b565b90506000816001600160401b038111156109f0576109f0612262565b604051908082528060200260200182016040528015610a6e57816020015b60408051610140810182526000808252602080830182905292820181905260608083018290526080830182905260a0830182905260c0830182905260e083015261010082018190526101208201528252600019909201910181610a0e5790505b5090506000826001600160401b03811115610a8b57610a8b612262565b604051908082528060200260200182016040528015610ab4578160200160208202803683370190505b50905060005b83811015610b6657600554604051632f745c5960e01b81526001600160a01b0388811660048301526024820184905290911690632f745c5990604401602060405180830381865afa158015610b13573d6000803e3d6000fd5b505050506040513d601f19601f82011682018060405250810190610b37919061264b565b828281518110610b4957610b496123d5565b602090810291909101015280610b5e81612624565b915050610aba565b5060005b83811015610d9a5760055482516000916001600160a01b031690636f229e6a90859085908110610b9c57610b9c6123d5565b60200260200101516040518263ffffffff1660e01b8152600401610bc291815260200190565b600060405180830381865afa158015610bdf573d6000803e3d6000fd5b505050506040513d6000823e601f3d908101601f19168201604052610c079190810190612716565b90506000806000600560009054906101000a90046001600160a01b03166001600160a01b03166399fbab88878781518110610c4457610c446123d5565b60200260200101516040518263ffffffff1660e01b8152600401610c6a91815260200190565b600060405180830381865afa158015610c87573d6000803e3d6000fd5b505050506040513d6000823e601f3d908101601f19168201604052610caf91908101906127dd565b505050505093509350935050604051806101400160405280878781518110610cd957610cd96123d5565b602002602001015181526020018b6001600160a01b03168152602001846001600160a01b03168152602001836001600160a01b031681526020018262ffffff168152602001856020015160020b8152602001856040015160020b81526020018560600151815260200185608001516001600160801b031681526020018560a001516001600160801b0316815250878681518110610d7857610d786123d5565b6020026020010181905250505050508080610d9290612624565b915050610b6a565b5090949350505050565b60008080808060608180610dbf6101008a0160e08b01611e98565b6001600160a01b031614610de357610dde610100890160e08a01611e98565b610df0565b6000546001600160a01b03165b9050610dfa611c50565b600154604051632411122160e11b81526001600160a01b0390911690634822244290610e2a908c906004016128fc565b602060405180830381865afa158015610e47573d6000803e3d6000fd5b505050506040513d601f19601f82011682018060405250810190610e6b919061264b565b6080820152600154604051639525092360e01b81526001600160a01b0390911690639525092390610ea0908c906004016128fc565b6101c060405180830381865afa158015610ebe573d6000803e3d6000fd5b505050506040513d601f19601f82011682018060405250810190610ee2919061290a565b60a084015260020b60208301526001600160a01b0390811682526001546080830151604051636361616560e11b8152600481019190915291169063c6c2c2ca9060240160a060405180830381865afa158015610f42573d6000803e3d6000fd5b505050506040513d601f19601f82011682018060405250810190610f669190612a01565b505050506001600160801b031660408281019190915281518151633850c7bd60e01b815291516001600160a01b0390911691633850c7bd9160048083019260e09291908290030181865afa158015610fc2573d6000803e3d6000fd5b505050506040513d601f19601f82011682018060405250810190610fe691906124bb565b5050506001600160a01b0390931660608501525061100f9150506101208a016101008b01612a5f565b156111935760408101516110319060c08b013590670de0b6b3a7640000611775565b94506110418560c08b0135612a7c565b9750816001600160a01b031663c6a5026a6040518060a001604052808c60600160208101906110709190612a5f565b6110865761108160208e018e611e98565b611096565b61109660408e0160208f01611e98565b6001600160a01b031681526020016110b460808e0160608f01612a5f565b6110cd576110c860408e0160208f01611e98565b6110da565b6110da60208e018e611e98565b6001600160a01b031681526020018b81526020018c60000160400160208101906111049190612a8f565b62ffffff16815260006020909101526040516001600160e01b031960e084901b1681526111349190600401612aac565b6080604051808303816000875af1158015611153573d6000803e3d6000fd5b505050506040513d601f19601f820116820180604052508101906111779190612af4565b5091985061118c91505060a08a013588612b46565b965061130c565b60408101516111b09060c08b013590670de0b6b3a7640000611775565b945060c08901356111c58660808c0135612a7c565b6111cf9190612b46565b9750816001600160a01b031663c6a5026a6040518060a001604052808c60600160208101906111fe9190612a5f565b6112145761120f60208e018e611e98565b611224565b61122460408e0160208f01611e98565b6001600160a01b0316815260200161124260808e0160608f01612a5f565b61125b5761125660408e0160208f01611e98565b611268565b61126860208e018e611e98565b6001600160a01b031681526020018b81526020018c60000160400160208101906112929190612a8f565b62ffffff16815260006020909101526040516001600160e01b031960e084901b1681526112c29190600401612aac565b6080604051808303816000875af11580156112e1573d6000803e3d6000fd5b505050506040513d601f19601f820116820180604052508101906113059190612af4565b5091985050505b6001546001600160a01b031663ad16ab7e8a60c08101356113336080830160608401612a5f565b8b86606001516040518663ffffffff1660e01b8152600401611359959493929190612b59565b600060405180830381865afa158015611376573d6000803e3d6000fd5b505050506040513d6000823e601f3d908101601f1916820160405261139e9190810190612b93565b8251600154602085015160a086015151608087015160405163aa7532af60e01b8152969a5094985073__$eacbb88ed4bd2af84aa4d43bcf675bcf7e$__9563aa7532af9561140095946001600160a01b03169392918b91600091600401612cc4565b602060405180830381865af415801561141d573d6000803e3d6000fd5b505050506040513d601f19601f82011682018060405250810190611441919061264b565b9550505091939550919395565b60606000600160009054906101000a90046001600160a01b03166001600160a01b031663d41dcbea6040518163ffffffff1660e01b8152600401600060405180830381865afa1580156114a5573d6000803e3d6000fd5b505050506040513d6000823e601f3d908101601f191682016040526114cd9190810190612337565b9050600081516001600160401b038111156114ea576114ea612262565b60405190808252806020026020018201604052801561152357816020015b611510611c8c565b8152602001906001900390816115085790505b50905060005b825181101561095a5760066000848381518110611548576115486123d5565b6020908102919091018101516001600160a01b031682528101919091526040016000205460ff161561163e576000838281518110611588576115886123d5565b60200260200101516001600160a01b0316633850c7bd6040518163ffffffff1660e01b815260040160c060405180830381865afa1580156115cd573d6000803e3d6000fd5b505050506040513d601f19601f820116820180604052508101906115f1919061242d565b5050505091505061161b84838151811061160d5761160d6123d5565b602002602001015182611854565b83838151811061162d5761162d6123d5565b6020026020010181905250506116f7565b6000838281518110611652576116526123d5565b60200260200101516001600160a01b0316633850c7bd6040518163ffffffff1660e01b815260040160e060405180830381865afa158015611697573d6000803e3d6000fd5b505050506040513d601f19601f820116820180604052508101906116bb91906124bb565b50505050509150506116d884838151811061160d5761160d6123d5565b8383815181106116ea576116ea6123d5565b6020026020010181905250505b8061170181612624565b915050611529565b6004546001600160a01b031633146117515760405162461bcd60e51b815260206004820152600660248201526510b7bbb732b960d11b60448201526064015b60405180910390fd5b6001600160a01b03166000908152600660205260409020805460ff19166001179055565b60008080600019858709858702925082811083820303915050806000036117ae57600084116117a357600080fd5b50829004905061184d565b8084116117e65760405162461bcd60e51b815260206004820152600660248201526536bab62234bb60d11b6044820152606401611748565b6000848688096000868103871696879004966002600389028118808a02820302808a02820302808a02820302808a02820302808a02820302808a02909103029181900381900460010186841190950394909402919094039290920491909117919091029150505b9392505050565b61185c611c8c565b6000836001600160a01b0316630dfe16816040518163ffffffff1660e01b8152600401602060405180830381865afa15801561189c573d6000803e3d6000fd5b505050506040513d601f19601f820116820180604052508101906118c091906123eb565b90506000846001600160a01b031663d21220a76040518163ffffffff1660e01b8152600401602060405180830381865afa158015611902573d6000803e3d6000fd5b505050506040513d601f19601f8201168201806040525081019061192691906123eb565b9050604051806101400160405280836001600160a01b03168152602001826001600160a01b03168152602001836001600160a01b03166395d89b416040518163ffffffff1660e01b8152600401600060405180830381865afa158015611990573d6000803e3d6000fd5b505050506040513d6000823e601f3d908101601f191682016040526119b89190810190612d59565b8152602001826001600160a01b03166395d89b416040518163ffffffff1660e01b8152600401600060405180830381865afa1580156119fb573d6000803e3d6000fd5b505050506040513d6000823e601f3d908101601f19168201604052611a239190810190612d59565b8152602001866001600160a01b031663ddca3f436040518163ffffffff1660e01b8152600401602060405180830381865afa158015611a66573d6000803e3d6000fd5b505050506040513d601f19601f82011682018060405250810190611a8a919061255b565b62ffffff168152602001836001600160a01b03166306fdde036040518163ffffffff1660e01b8152600401600060405180830381865afa158015611ad2573d6000803e3d6000fd5b505050506040513d6000823e601f3d908101601f19168201604052611afa9190810190612d59565b8152602001826001600160a01b03166306fdde036040518163ffffffff1660e01b8152600401600060405180830381865afa158015611b3d573d6000803e3d6000fd5b505050506040513d6000823e601f3d908101601f19168201604052611b659190810190612d59565b8152602001836001600160a01b031663313ce5676040518163ffffffff1660e01b8152600401602060405180830381865afa158015611ba8573d6000803e3d6000fd5b505050506040513d601f19601f82011682018060405250810190611bcc9190612dec565b60ff168152602001826001600160a01b031663313ce5676040518163ffffffff1660e01b8152600401602060405180830381865afa158015611c12573d6000803e3d6000fd5b505050506040513d601f19601f82011682018060405250810190611c369190612dec565b60ff1681526020018560020b815250925050505b92915050565b6040805160c08101825260008082526020820181905291810182905260608101829052608081019190915260a08101611c87611cff565b905290565b60405180610140016040528060006001600160a01b0316815260200160006001600160a01b031681526020016060815260200160608152602001600062ffffff1681526020016060815260200160608152602001600060ff168152602001600060ff168152602001600060020b81525090565b6040518060e00160405280611d436040518060c001604052806000815260200160008152602001600081526020016000815260200160008152602001600081525090565b8152602001600081526020016000815260200160008152602001600061ffff16815260200160008152602001600081525090565b8060020b8114611d8657600080fd5b50565b600060208284031215611d9b57600080fd5b813561184d81611d77565b80516001600160a01b0390811683526020808301519091169083015260409081015162ffffff16910152565b611ddd828251611da6565b6020810151606083015260400151608090910152565b6020808252825182820181905260009190848201906040850190845b81811015611e3557611e22838551611dd2565b9284019260a09290920191600101611e0f565b50909695505050505050565b6020808252825182820181905260009190848201906040850190845b81811015611e3557611e70838551611dd2565b9284019260a09290920191600101611e5d565b6001600160a01b0381168114611d8657600080fd5b600060208284031215611eaa57600080fd5b813561184d81611e83565b600081518084526020808501945080840160005b83811015611f0457815180516001600160801b0316885283810151848901526040908101519088015260609096019590820190600101611ec9565b509495945050505050565b60006020808301818452808551808352604092508286019150828160051b87010184880160005b8381101561201257603f19898403018552815180518452878101516001600160a01b0390811689860152878201518116888601526060808301519091169085015260808082015162ffffff169085015260a080820151600281900b828701526101409190505060c080830151611fb08288018260020b9052565b505060e0808301518282880152611fc983880182611eb5565b9250505061010080830151611fe8828801826001600160801b03169052565b5050610120918201516001600160801b031694909101939093529386019390860190600101611f36565b509098975050505050505050565b6000610120828403121561203357600080fd5b50919050565b805160020b82526001600160801b03602082015116602083015260408101516040830152606081015160608301526080810151608083015260a081015160a08301525050565b600060c0808301898452602089818601528860408601528760608601528660808601528260a086015281865180845260e087019150828801935060005b818110156120df576120cf838651612039565b93830193918501916001016120bc565b50909c9b505050505050505050505050565b60005b8381101561210c5781810151838201526020016120f4565b50506000910152565b6000815180845261212d8160208601602086016120f1565b601f01601f19169290920160200192915050565b60006020808301818452808551808352604092508286019150828160051b87010184880160005b8381101561201257888303603f19018552815180516001600160a01b03168452610140818901516001600160a01b038116868b0152508782015181898701526121b382870182612115565b915050606080830151868303828801526121cd8382612115565b925050506080808301516121e78288018262ffffff169052565b505060a080830151868303828801526122008382612115565b9250505060c0808301518683038288015261221b8382612115565b9250505060e0808301516122338288018260ff169052565b50506101008281015160ff16908601526101209182015160020b91909401529386019390860190600101612168565b634e487b7160e01b600052604160045260246000fd5b604051606081016001600160401b038111828210171561229a5761229a612262565b60405290565b60405160c081016001600160401b038111828210171561229a5761229a612262565b60405160e081016001600160401b038111828210171561229a5761229a612262565b604051601f8201601f191681016001600160401b038111828210171561230c5761230c612262565b604052919050565b60006001600160401b0382111561232d5761232d612262565b5060051b60200190565b6000602080838503121561234a57600080fd5b82516001600160401b0381111561236057600080fd5b8301601f8101851361237157600080fd5b805161238461237f82612314565b6122e4565b81815260059190911b820183019083810190878311156123a357600080fd5b928401925b828410156123ca5783516123bb81611e83565b825292840192908401906123a8565b979650505050505050565b634e487b7160e01b600052603260045260246000fd5b6000602082840312156123fd57600080fd5b815161184d81611e83565b805161ffff8116811461241a57600080fd5b919050565b8015158114611d8657600080fd5b60008060008060008060c0878903121561244657600080fd5b865161245181611e83565b602088015190965061246281611d77565b945061247060408801612408565b935061247e60608801612408565b925061248c60808801612408565b915060a087015161249c8161241f565b809150509295509295509295565b805160ff8116811461241a57600080fd5b600080600080600080600060e0888a0312156124d657600080fd5b87516124e181611e83565b60208901519097506124f281611d77565b955061250060408901612408565b945061250e60608901612408565b935061251c60808901612408565b925061252a60a089016124aa565b915060c088015161253a8161241f565b8091505092959891949750929550565b62ffffff81168114611d8657600080fd5b60006020828403121561256d57600080fd5b815161184d8161254a565b634e487b7160e01b600052601160045260246000fd5b600282810b9082900b03627fffff198112627fffff82131715611c4a57611c4a612578565b600281810b9083900b01627fffff8113627fffff1982121715611c4a57611c4a612578565b60a081016125e68286611da6565b8360020b60608301528260020b6080830152949350505050565b6000806040838503121561261357600080fd5b505080516020909101519092909150565b60006001820161263657612636612578565b5060010190565b60608101611c4a8284611da6565b60006020828403121561265d57600080fd5b5051919050565b80516001600160801b038116811461241a57600080fd5b600082601f83011261268c57600080fd5b8151602061269c61237f83612314565b828152606092830285018201928282019190878511156126bb57600080fd5b8387015b858110156127095781818a0312156126d75760008081fd5b6126df612278565b6126e882612664565b815281860151868201526040808301519082015284529284019281016126bf565b5090979650505050505050565b60006020828403121561272857600080fd5b81516001600160401b038082111561273f57600080fd5b9083019060c0828603121561275357600080fd5b61275b6122a0565b825161276681611e83565b8152602083015161277681611d77565b6020820152604083015161278981611d77565b60408201526060830151828111156127a057600080fd5b6127ac8782860161267b565b6060830152506127be60808401612664565b60808201526127cf60a08401612664565b60a082015295945050505050565b60008060008060008060008060006101208a8c0312156127fc57600080fd5b895161280781611e83565b60208b015190995061281881611e83565b60408b015190985061282981611e83565b60608b015190975061283a8161254a565b60808b015190965061284b81611d77565b60a08b015190955061285c81611d77565b60c08b01519094506001600160401b0381111561287857600080fd5b6128848c828d0161267b565b93505061289360e08b01612664565b91506128a26101008b01612664565b90509295985092959850929598565b80356128bc81611e83565b6001600160a01b0390811683526020820135906128d882611e83565b16602083015260408101356128ec8161254a565b62ffffff81166040840152505050565b60608101611c4a82846128b1565b60008060008385036101c081121561292157600080fd5b845161292c81611e83565b602086015190945061293d81611d77565b9250603f19016101808082121561295357600080fd5b61295b6122c2565b60c083121561296957600080fd5b6129716122a0565b925060408701518352606087015160208401526080870151604084015260a0870151606084015260c0870151608084015260e087015160a08401528281526101008701516020820152610120870151604082015261014087015160608201526129dd6101608801612408565b60808201529086015160a08201526101a09095015160c08601525091949093509050565b600080600080600060a08688031215612a1957600080fd5b612a2286612664565b9450612a3060208701612664565b9350612a3e60408701612664565b9250612a4c60608701612664565b9150608086015190509295509295909350565b600060208284031215612a7157600080fd5b813561184d8161241f565b81810381811115611c4a57611c4a612578565b600060208284031215612aa157600080fd5b813561184d8161254a565b81516001600160a01b0390811682526020808401518216908301526040808401519083015260608084015162ffffff1690830152608092830151169181019190915260a00190565b60008060008060808587031215612b0a57600080fd5b845193506020850151612b1c81611e83565b604086015190935063ffffffff81168114612b3657600080fd5b6060959095015193969295505050565b80820180821115611c4a57611c4a612578565b60e08101612b6782886128b1565b6060820195909552921515608084015260a08301919091526001600160a01b031660c090910152919050565b6000806040808486031215612ba757600080fd5b835192506020808501516001600160401b03811115612bc557600080fd5b8501601f81018713612bd657600080fd5b8051612be461237f82612314565b81815260c0918202830184019184820191908a841115612c0357600080fd5b938501935b83851015612c795780858c031215612c205760008081fd5b612c286122a0565b8551612c3381611d77565b8152612c40868801612664565b818801528588015188820152606080870151908201526080808701519082015260a0808701519082015283529384019391850191612c08565b508096505050505050509250929050565b600081518084526020808501945080840160005b83811015611f0457612cb1878351612039565b60c0969096019590820190600101612c9e565b600061018060018060a01b03808b168452808a166020850152508760020b60408401528651606084015260208701516080840152604087015160a0840152606087015160c0840152608087015160e084015260a087015161010084015280610120840152612d3481840187612c8a565b915050612d4661014083018515159052565b8261016083015298975050505050505050565b600060208284031215612d6b57600080fd5b81516001600160401b0380821115612d8257600080fd5b818401915084601f830112612d9657600080fd5b815181811115612da857612da8612262565b612dbb601f8201601f19166020016122e4565b9150808252856020828501011115612dd257600080fd5b612de38160208401602086016120f1565b50949350505050565b600060208284031215612dfe57600080fd5b61184d826124aa56fea2646970667358221220ee6f76da3b542537e58980546888c62b4ba4322e64dc0706ceaa5d6b7d47e4ee64736f6c63430008150033",
    "linkReferences": {
      "src/PremiumComputer.sol": {
        "PremiumComputer": [
          {
            "start": 5384,
            "length": 20
          }
        ]
      }
    }
  },
  "methodIdentifiers": {
    "addIsSlot6(address)": "e35ef2ce",
    "getAllAprUtil(int24)": "0327b40c",
    "getLpPositions(address)": "52f0cf63",
    "getPoolKeys()": "d183feee",
    "getSharedLiquidityInfo()": "359b805b",
    "isSlot6(address)": "ae6e0409",
    "owner()": "8da5cb5b",
    "quoteExactInput(((address,address,uint24),bool,uint256,uint256,uint256,address,bool))": "b1b873a2"
  },
  "id": 86
}