{
  "_format": "hh-sol-artifact-1",
  "contractName": "Quoter",
  "sourceName": "src/periphery/Quoter.sol",
  "abi": [
    {
      "inputs": [
        {
          "internalType": "address",
          "name": "_quoterV2",
          "type": "address"
        },
        {
          "internalType": "address",
          "name": "_poolManager",
          "type": "address"
        },
        {
          "internalType": "address",
          "name": "_dataProvider",
          "type": "address"
        }
      ],
      "stateMutability": "nonpayable",
      "type": "constructor"
    },
    {
      "inputs": [
        {
          "internalType": "int24",
          "name": "tickDiff",
          "type": "int24"
        }
      ],
      "name": "getAllAprUtil",
      "outputs": [
        {
          "components": [
            {
              "components": [
                {
                  "internalType": "address",
                  "name": "token0",
                  "type": "address"
                },
                {
                  "internalType": "address",
                  "name": "token1",
                  "type": "address"
                },
                {
                  "internalType": "uint24",
                  "name": "fee",
                  "type": "uint24"
                }
              ],
              "internalType": "struct PoolKey",
              "name": "key",
              "type": "tuple"
            },
            {
              "internalType": "uint256",
              "name": "apr",
              "type": "uint256"
            },
            {
              "internalType": "uint256",
              "name": "utilTotal",
              "type": "uint256"
            }
          ],
          "internalType": "struct Quoter.AprUtilInfo[]",
          "name": "",
          "type": "tuple[]"
        }
      ],
      "stateMutability": "view",
      "type": "function"
    },
    {
      "inputs": [],
      "name": "getPoolKeys",
      "outputs": [
        {
          "components": [
            {
              "internalType": "address",
              "name": "token0",
              "type": "address"
            },
            {
              "internalType": "address",
              "name": "token1",
              "type": "address"
            },
            {
              "internalType": "string",
              "name": "symbol0",
              "type": "string"
            },
            {
              "internalType": "string",
              "name": "symbol1",
              "type": "string"
            },
            {
              "internalType": "uint24",
              "name": "fee",
              "type": "uint24"
            },
            {
              "internalType": "string",
              "name": "name0",
              "type": "string"
            },
            {
              "internalType": "string",
              "name": "name1",
              "type": "string"
            },
            {
              "internalType": "uint8",
              "name": "decimals0",
              "type": "uint8"
            },
            {
              "internalType": "uint8",
              "name": "decimals1",
              "type": "uint8"
            },
            {
              "internalType": "int24",
              "name": "tick",
              "type": "int24"
            }
          ],
          "internalType": "struct Quoter.PoolInfo[]",
          "name": "",
          "type": "tuple[]"
        }
      ],
      "stateMutability": "view",
      "type": "function"
    },
    {
      "inputs": [],
      "name": "owner",
      "outputs": [
        {
          "internalType": "address",
          "name": "",
          "type": "address"
        }
      ],
      "stateMutability": "view",
      "type": "function"
    },
    {
      "inputs": [
        {
          "components": [
            {
              "components": [
                {
                  "internalType": "address",
                  "name": "token0",
                  "type": "address"
                },
                {
                  "internalType": "address",
                  "name": "token1",
                  "type": "address"
                },
                {
                  "internalType": "uint24",
                  "name": "fee",
                  "type": "uint24"
                }
              ],
              "internalType": "struct PoolKey",
              "name": "poolKey",
              "type": "tuple"
            },
            {
              "internalType": "bool",
              "name": "isToken0",
              "type": "bool"
            },
            {
              "internalType": "uint256",
              "name": "marginInInput",
              "type": "uint256"
            },
            {
              "internalType": "uint256",
              "name": "marginInOutput",
              "type": "uint256"
            },
            {
              "internalType": "uint256",
              "name": "borrowAmount",
              "type": "uint256"
            },
            {
              "internalType": "contract IQuoterV2",
              "name": "quoter",
              "type": "address"
            },
            {
              "internalType": "bool",
              "name": "marginInPosToken",
              "type": "bool"
            }
          ],
          "internalType": "struct Quoter.QuoteExactInputParams",
          "name": "params",
          "type": "tuple"
        }
      ],
      "name": "quoteExactInput",
      "outputs": [
        {
          "internalType": "uint256",
          "name": "swapInput",
          "type": "uint256"
        },
        {
          "internalType": "uint256",
          "name": "positionOutput",
          "type": "uint256"
        },
        {
          "internalType": "uint256",
          "name": "borrowRate",
          "type": "uint256"
        },
        {
          "internalType": "uint256",
          "name": "feeAmount",
          "type": "uint256"
        },
        {
          "internalType": "uint256",
          "name": "avgPrice",
          "type": "uint256"
        },
        {
          "components": [
            {
              "internalType": "int24",
              "name": "tick",
              "type": "int24"
            },
            {
              "internalType": "uint128",
              "name": "liquidity",
              "type": "uint128"
            },
            {
              "internalType": "uint256",
              "name": "premium",
              "type": "uint256"
            },
            {
              "internalType": "uint256",
              "name": "feeGrowthInside0LastX128",
              "type": "uint256"
            },
            {
              "internalType": "uint256",
              "name": "feeGrowthInside1LastX128",
              "type": "uint256"
            },
            {
              "internalType": "uint256",
              "name": "lastGrowth",
              "type": "uint256"
            }
          ],
          "internalType": "struct LiquidityLoan[]",
          "name": "borrowInfo",
          "type": "tuple[]"
        }
      ],
      "stateMutability": "nonpayable",
      "type": "function"
    }
  ],
  "bytecode": "0x60806040523480156200001157600080fd5b50604051620020d2380380620020d28339810160408190526200003491620000a1565b600080546001600160a01b039485166001600160a01b03199182161790915560018054938516938216939093179092556002805491909316908216179091556003805490911633179055620000eb565b80516001600160a01b03811681146200009c57600080fd5b919050565b600080600060608486031215620000b757600080fd5b620000c28462000084565b9250620000d26020850162000084565b9150620000e26040850162000084565b90509250925092565b611fd780620000fb6000396000f3fe608060405234801561001057600080fd5b506004361061004c5760003560e01c80630327b40c146100515780638da5cb5b1461007a578063b1b873a2146100a5578063d183feee146100ca575b600080fd5b61006461005f3660046113cd565b6100df565b60405161007191906113ea565b60405180910390f35b60035461008d906001600160a01b031681565b6040516001600160a01b039091168152602001610071565b6100b86100b3366004611473565b610538565b604051610071969594939291906114d2565b6100d2610bf0565b6040516100719190611594565b60606000600160009054906101000a90046001600160a01b03166001600160a01b031663d41dcbea6040518163ffffffff1660e01b8152600401600060405180830381865afa158015610136573d6000803e3d6000fd5b505050506040513d6000823e601f3d908101601f1916820160405261015e919081019061178f565b90506000815167ffffffffffffffff81111561017c5761017c6116c3565b6040519080825280602002602001820160405280156101db57816020015b6040805160c0810182526000606082018181526080830182905260a083018290528252602080830182905292820152825260001990920191018161019a5790505b50905060005b82518110156105305760008382815181106101fe576101fe61182e565b60200260200101516001600160a01b0316630dfe16816040518163ffffffff1660e01b8152600401602060405180830381865afa158015610243573d6000803e3d6000fd5b505050506040513d601f19601f820116820180604052508101906102679190611844565b9050600084838151811061027d5761027d61182e565b60200260200101516001600160a01b031663d21220a76040518163ffffffff1660e01b8152600401602060405180830381865afa1580156102c2573d6000803e3d6000fd5b505050506040513d601f19601f820116820180604052508101906102e69190611844565b905060008584815181106102fc576102fc61182e565b60200260200101516001600160a01b0316633850c7bd6040518163ffffffff1660e01b815260040160e060405180830381865afa158015610341573d6000803e3d6000fd5b505050506040513d601f19601f820116820180604052508101906103659190611897565b505050505091505060006040518060600160405280856001600160a01b03168152602001846001600160a01b031681526020018887815181106103aa576103aa61182e565b60200260200101516001600160a01b031663ddca3f436040518163ffffffff1660e01b8152600401602060405180830381865afa1580156103ef573d6000803e3d6000fd5b505050506040513d601f19601f820116820180604052508101906104139190611937565b62ffffff16905260025490915060009081906001600160a01b0316631f2ecd838461043e8e8861196a565b6104488f8961198f565b604080516001600160e01b031960e087901b16815284516001600160a01b039081166004830152602086015116602482015293015162ffffff166044840152600291820b6064840152900b608482015260a4016040805180830381865afa1580156104b7573d6000803e3d6000fd5b505050506040513d601f19601f820116820180604052508101906104db91906119b4565b9150915060405180606001604052808481526020018381526020018281525088888151811061050c5761050c61182e565b60200260200101819052505050505050508080610528906119d8565b9150506101e1565b509392505050565b600080808080606081806105536101008a0160e08b016119f1565b6001600160a01b03161461057757610572610100890160e08a016119f1565b610584565b6000546001600160a01b03165b905061058e611294565b600154604051632411122160e11b81526001600160a01b03909116906348222442906105be908c90600401611a59565b602060405180830381865afa1580156105db573d6000803e3d6000fd5b505050506040513d601f19601f820116820180604052508101906105ff9190611a67565b6080820152600154604051639525092360e01b81526001600160a01b0390911690639525092390610634908c90600401611a59565b6101c060405180830381865afa158015610652573d6000803e3d6000fd5b505050506040513d601f19601f820116820180604052508101906106769190611a80565b60a084015260020b60208301526001600160a01b0390811682526001546080830151604051636361616560e11b8152600481019190915291169063c6c2c2ca9060240160a060405180830381865afa1580156106d6573d6000803e3d6000fd5b505050506040513d601f19601f820116820180604052508101906106fa9190611b8e565b505050506001600160801b031660408281019190915281518151633850c7bd60e01b815291516001600160a01b0390911691633850c7bd9160048083019260e09291908290030181865afa158015610756573d6000803e3d6000fd5b505050506040513d601f19601f8201168201806040525081019061077a9190611897565b5050506001600160a01b039093166060850152506107a39150506101208a016101008b01611bec565b156109275760408101516107c59060c08b013590670de0b6b3a7640000610db5565b94506107d58560c08b0135611c09565b9750816001600160a01b031663c6a5026a6040518060a001604052808c60600160208101906108049190611bec565b61081a5761081560208e018e6119f1565b61082a565b61082a60408e0160208f016119f1565b6001600160a01b0316815260200161084860808e0160608f01611bec565b6108615761085c60408e0160208f016119f1565b61086e565b61086e60208e018e6119f1565b6001600160a01b031681526020018b81526020018c60000160400160208101906108989190611c1c565b62ffffff16815260006020909101526040516001600160e01b031960e084901b1681526108c89190600401611c39565b6080604051808303816000875af11580156108e7573d6000803e3d6000fd5b505050506040513d601f19601f8201168201806040525081019061090b9190611c81565b5091985061092091505060a08a013588611cd3565b9650610aae565b604081015161095290670de0b6b3a764000061094b60c08d013560808e0135611cd3565b9190610db5565b945060c08901356109678660808c0135611c09565b6109719190611cd3565b9750816001600160a01b031663c6a5026a6040518060a001604052808c60600160208101906109a09190611bec565b6109b6576109b160208e018e6119f1565b6109c6565b6109c660408e0160208f016119f1565b6001600160a01b031681526020016109e460808e0160608f01611bec565b6109fd576109f860408e0160208f016119f1565b610a0a565b610a0a60208e018e6119f1565b6001600160a01b031681526020018b81526020018c6000016040016020810190610a349190611c1c565b62ffffff16815260006020909101526040516001600160e01b031960e084901b168152610a649190600401611c39565b6080604051808303816000875af1158015610a83573d6000803e3d6000fd5b505050506040513d601f19601f82011682018060405250810190610aa79190611c81565b5091985050505b6001546001600160a01b031663ad16ab7e8a60c0810135610ad56080830160608401611bec565b8b86606001516040518663ffffffff1660e01b8152600401610afb959493929190611ce6565b600060405180830381865afa158015610b18573d6000803e3d6000fd5b505050506040513d6000823e601f3d908101601f19168201604052610b409190810190611d20565b8251600154602085015160a086015151608087015160405163aa7532af60e01b8152969a5094985073__$eacbb88ed4bd2af84aa4d43bcf675bcf7e$__9563aa7532af95610ba295946001600160a01b03169392918b91600091600401611e5d565b602060405180830381865af4158015610bbf573d6000803e3d6000fd5b505050506040513d601f19601f82011682018060405250810190610be39190611a67565b9550505091939550919395565b60606000600160009054906101000a90046001600160a01b03166001600160a01b031663d41dcbea6040518163ffffffff1660e01b8152600401600060405180830381865afa158015610c47573d6000803e3d6000fd5b505050506040513d6000823e601f3d908101601f19168201604052610c6f919081019061178f565b90506000815167ffffffffffffffff811115610c8d57610c8d6116c3565b604051908082528060200260200182016040528015610cc657816020015b610cb36112d0565b815260200190600190039081610cab5790505b50905060005b8251811015610dae576000838281518110610ce957610ce961182e565b60200260200101516001600160a01b0316633850c7bd6040518163ffffffff1660e01b815260040160e060405180830381865afa158015610d2e573d6000803e3d6000fd5b505050506040513d601f19601f82011682018060405250810190610d529190611897565b5050505050915050610d7d848381518110610d6f57610d6f61182e565b602002602001015182610e98565b838381518110610d8f57610d8f61182e565b6020026020010181905250508080610da6906119d8565b915050610ccc565b5092915050565b6000808060001985870985870292508281108382030391505080600003610dee5760008411610de357600080fd5b508290049050610e91565b808411610e2a5760405162461bcd60e51b815260206004820152600660248201526536bab62234bb60d11b604482015260640160405180910390fd5b6000848688096000868103871696879004966002600389028118808a02820302808a02820302808a02820302808a02820302808a02820302808a02909103029181900381900460010186841190950394909402919094039290920491909117919091029150505b9392505050565b610ea06112d0565b6000836001600160a01b0316630dfe16816040518163ffffffff1660e01b8152600401602060405180830381865afa158015610ee0573d6000803e3d6000fd5b505050506040513d601f19601f82011682018060405250810190610f049190611844565b90506000846001600160a01b031663d21220a76040518163ffffffff1660e01b8152600401602060405180830381865afa158015610f46573d6000803e3d6000fd5b505050506040513d601f19601f82011682018060405250810190610f6a9190611844565b9050604051806101400160405280836001600160a01b03168152602001826001600160a01b03168152602001836001600160a01b03166395d89b416040518163ffffffff1660e01b8152600401600060405180830381865afa158015610fd4573d6000803e3d6000fd5b505050506040513d6000823e601f3d908101601f19168201604052610ffc9190810190611ef2565b8152602001826001600160a01b03166395d89b416040518163ffffffff1660e01b8152600401600060405180830381865afa15801561103f573d6000803e3d6000fd5b505050506040513d6000823e601f3d908101601f191682016040526110679190810190611ef2565b8152602001866001600160a01b031663ddca3f436040518163ffffffff1660e01b8152600401602060405180830381865afa1580156110aa573d6000803e3d6000fd5b505050506040513d601f19601f820116820180604052508101906110ce9190611937565b62ffffff168152602001836001600160a01b03166306fdde036040518163ffffffff1660e01b8152600401600060405180830381865afa158015611116573d6000803e3d6000fd5b505050506040513d6000823e601f3d908101601f1916820160405261113e9190810190611ef2565b8152602001826001600160a01b03166306fdde036040518163ffffffff1660e01b8152600401600060405180830381865afa158015611181573d6000803e3d6000fd5b505050506040513d6000823e601f3d908101601f191682016040526111a99190810190611ef2565b8152602001836001600160a01b031663313ce5676040518163ffffffff1660e01b8152600401602060405180830381865afa1580156111ec573d6000803e3d6000fd5b505050506040513d601f19601f820116820180604052508101906112109190611f86565b60ff168152602001826001600160a01b031663313ce5676040518163ffffffff1660e01b8152600401602060405180830381865afa158015611256573d6000803e3d6000fd5b505050506040513d601f19601f8201168201806040525081019061127a9190611f86565b60ff1681526020018560020b815250925050505b92915050565b6040805160c08101825260008082526020820181905291810182905260608101829052608081019190915260a081016112cb611343565b905290565b60405180610140016040528060006001600160a01b0316815260200160006001600160a01b031681526020016060815260200160608152602001600062ffffff1681526020016060815260200160608152602001600060ff168152602001600060ff168152602001600060020b81525090565b6040518060e001604052806113876040518060c001604052806000815260200160008152602001600081526020016000815260200160008152602001600081525090565b8152602001600081526020016000815260200160008152602001600061ffff16815260200160008152602001600081525090565b8060020b81146113ca57600080fd5b50565b6000602082840312156113df57600080fd5b8135610e91816113bb565b602080825282518282018190526000919060409081850190868401855b8281101561146657815161144385825180516001600160a01b0390811683526020808301519091169083015260409081015162ffffff16910152565b808701516060860152850151608085015260a09093019290850190600101611407565b5091979650505050505050565b6000610120828403121561148657600080fd5b50919050565b805160020b82526001600160801b03602082015116602083015260408101516040830152606081015160608301526080810151608083015260a081015160a08301525050565b600060c0808301898452602089818601528860408601528760608601528660808601528260a086015281865180845260e087019150828801935060005b818110156115325761152283865161148c565b938301939185019160010161150f565b50909c9b505050505050505050505050565b60005b8381101561155f578181015183820152602001611547565b50506000910152565b60008151808452611580816020860160208601611544565b601f01601f19169290920160200192915050565b60006020808301818452808551808352604092508286019150828160051b87010184880160005b838110156116b557888303603f19018552815180516001600160a01b03168452610140818901516001600160a01b038116868b01525087820151818987015261160682870182611568565b915050606080830151868303828801526116208382611568565b9250505060808083015161163a8288018262ffffff169052565b505060a080830151868303828801526116538382611568565b9250505060c0808301518683038288015261166e8382611568565b9250505060e0808301516116868288018260ff169052565b50506101008281015160ff16908601526101209182015160020b919094015293860193908601906001016115bb565b509098975050505050505050565b634e487b7160e01b600052604160045260246000fd5b60405160e0810167ffffffffffffffff811182821017156116fc576116fc6116c3565b60405290565b60405160c0810167ffffffffffffffff811182821017156116fc576116fc6116c3565b604051601f8201601f1916810167ffffffffffffffff8111828210171561174e5761174e6116c3565b604052919050565b600067ffffffffffffffff821115611770576117706116c3565b5060051b60200190565b6001600160a01b03811681146113ca57600080fd5b600060208083850312156117a257600080fd5b825167ffffffffffffffff8111156117b957600080fd5b8301601f810185136117ca57600080fd5b80516117dd6117d882611756565b611725565b81815260059190911b820183019083810190878311156117fc57600080fd5b928401925b828410156118235783516118148161177a565b82529284019290840190611801565b979650505050505050565b634e487b7160e01b600052603260045260246000fd5b60006020828403121561185657600080fd5b8151610e918161177a565b805161ffff8116811461187357600080fd5b919050565b805160ff8116811461187357600080fd5b80151581146113ca57600080fd5b600080600080600080600060e0888a0312156118b257600080fd5b87516118bd8161177a565b60208901519097506118ce816113bb565b95506118dc60408901611861565b94506118ea60608901611861565b93506118f860808901611861565b925061190660a08901611878565b915060c088015161191681611889565b8091505092959891949750929550565b62ffffff811681146113ca57600080fd5b60006020828403121561194957600080fd5b8151610e9181611926565b634e487b7160e01b600052601160045260246000fd5b600282810b9082900b03627fffff198112627fffff8213171561128e5761128e611954565b600281810b9083900b01627fffff8113627fffff198212171561128e5761128e611954565b600080604083850312156119c757600080fd5b505080516020909101519092909150565b6000600182016119ea576119ea611954565b5060010190565b600060208284031215611a0357600080fd5b8135610e918161177a565b8035611a198161177a565b6001600160a01b039081168352602082013590611a358261177a565b1660208301526040810135611a4981611926565b62ffffff81166040840152505050565b6060810161128e8284611a0e565b600060208284031215611a7957600080fd5b5051919050565b60008060008385036101c0811215611a9757600080fd5b8451611aa28161177a565b6020860151909450611ab3816113bb565b9250603f190161018080821215611ac957600080fd5b611ad16116d9565b60c0831215611adf57600080fd5b611ae7611702565b925060408701518352606087015160208401526080870151604084015260a0870151606084015260c0870151608084015260e087015160a0840152828152610100870151602082015261012087015160408201526101408701516060820152611b536101608801611861565b60808201529086015160a08201526101a09095015160c08601525091949093509050565b80516001600160801b038116811461187357600080fd5b600080600080600060a08688031215611ba657600080fd5b611baf86611b77565b9450611bbd60208701611b77565b9350611bcb60408701611b77565b9250611bd960608701611b77565b9150608086015190509295509295909350565b600060208284031215611bfe57600080fd5b8135610e9181611889565b8181038181111561128e5761128e611954565b600060208284031215611c2e57600080fd5b8135610e9181611926565b81516001600160a01b0390811682526020808401518216908301526040808401519083015260608084015162ffffff1690830152608092830151169181019190915260a00190565b60008060008060808587031215611c9757600080fd5b845193506020850151611ca98161177a565b604086015190935063ffffffff81168114611cc357600080fd5b6060959095015193969295505050565b8082018082111561128e5761128e611954565b60e08101611cf48288611a0e565b6060820195909552921515608084015260a08301919091526001600160a01b031660c090910152919050565b6000806040808486031215611d3457600080fd5b8351925060208085015167ffffffffffffffff811115611d5357600080fd5b8501601f81018713611d6457600080fd5b8051611d726117d882611756565b81815260c0918202830184019184820191908a841115611d9157600080fd5b938501935b83851015611e075780858c031215611dae5760008081fd5b611db6611702565b8551611dc1816113bb565b8152611dce868801611b77565b818801528588015188820152606080870151908201526080808701519082015260a0808701519082015283529384019391850191611d96565b508096505050505050509250929050565b600081518084526020808501945080840160005b83811015611e5257611e3f87835161148c565b60c0969096019590820190600101611e2c565b509495945050505050565b600061018060018060a01b03808b168452808a166020850152508760020b60408401528651606084015260208701516080840152604087015160a0840152606087015160c0840152608087015160e084015260a087015161010084015280610120840152611ecd81840187611e18565b915050611edf61014083018515159052565b8261016083015298975050505050505050565b600060208284031215611f0457600080fd5b815167ffffffffffffffff80821115611f1c57600080fd5b818401915084601f830112611f3057600080fd5b815181811115611f4257611f426116c3565b611f55601f8201601f1916602001611725565b9150808252856020828501011115611f6c57600080fd5b611f7d816020840160208601611544565b50949350505050565b600060208284031215611f9857600080fd5b610e918261187856fea26469706673582212202207154db4a4224cb7befa1ab557006865d3fcac393ca3cf2d4dc0f50893e46564736f6c63430008120033",
  "linkReferences": {
    "src/PremiumComputer.sol": {
      "PremiumComputer": [
        {
          "length": 20,
          "start": 3173
        }
      ]
    }
  },
  "deployedLinkReferences": {
    "src/PremiumComputer.sol": {
      "PremiumComputer": [
        {
          "length": 20,
          "start": 2922
        }
      ]
    }
  }
}