{
  "_format": "hh-sol-artifact-1",
  "contractName": "ReferralSystem",
  "sourceName": "src/periphery/Registry.sol",
  "abi": [
    {
      "anonymous": false,
      "inputs": [
        {
          "indexed": false,
          "internalType": "uint8",
          "name": "version",
          "type": "uint8"
        }
      ],
      "name": "Initialized",
      "type": "event"
    },
    {
      "anonymous": false,
      "inputs": [
        {
          "indexed": false,
          "internalType": "address",
          "name": "account",
          "type": "address"
        },
        {
          "indexed": false,
          "internalType": "bytes32",
          "name": "code",
          "type": "bytes32"
        }
      ],
      "name": "RegisterCode",
      "type": "event"
    },
    {
      "anonymous": false,
      "inputs": [
        {
          "indexed": false,
          "internalType": "address",
          "name": "account",
          "type": "address"
        },
        {
          "indexed": false,
          "internalType": "bytes32",
          "name": "code",
          "type": "bytes32"
        }
      ],
      "name": "SetReferralCode",
      "type": "event"
    },
    {
      "anonymous": false,
      "inputs": [
        {
          "indexed": false,
          "internalType": "address",
          "name": "account",
          "type": "address"
        },
        {
          "indexed": false,
          "internalType": "uint256",
          "name": "id",
          "type": "uint256"
        }
      ],
      "name": "SetReferrerTier",
      "type": "event"
    },
    {
      "inputs": [
        {
          "internalType": "bytes32",
          "name": "",
          "type": "bytes32"
        }
      ],
      "name": "codeOwners",
      "outputs": [
        {
          "internalType": "address",
          "name": "",
          "type": "address"
        }
      ],
      "stateMutability": "view",
      "type": "function"
    },
    {
      "inputs": [
        {
          "internalType": "bytes32",
          "name": "",
          "type": "bytes32"
        },
        {
          "internalType": "uint256",
          "name": "",
          "type": "uint256"
        }
      ],
      "name": "codeUsers",
      "outputs": [
        {
          "internalType": "address",
          "name": "",
          "type": "address"
        }
      ],
      "stateMutability": "view",
      "type": "function"
    },
    {
      "inputs": [
        {
          "internalType": "address",
          "name": "",
          "type": "address"
        },
        {
          "internalType": "uint256",
          "name": "",
          "type": "uint256"
        }
      ],
      "name": "codesByOwners",
      "outputs": [
        {
          "internalType": "bytes32",
          "name": "",
          "type": "bytes32"
        }
      ],
      "stateMutability": "view",
      "type": "function"
    },
    {
      "inputs": [],
      "name": "initialize",
      "outputs": [],
      "stateMutability": "nonpayable",
      "type": "function"
    },
    {
      "inputs": [
        {
          "internalType": "address",
          "name": "",
          "type": "address"
        }
      ],
      "name": "isAuth",
      "outputs": [
        {
          "internalType": "bool",
          "name": "",
          "type": "bool"
        }
      ],
      "stateMutability": "view",
      "type": "function"
    },
    {
      "inputs": [
        {
          "internalType": "address",
          "name": "",
          "type": "address"
        }
      ],
      "name": "referrerTiers",
      "outputs": [
        {
          "internalType": "uint256",
          "name": "",
          "type": "uint256"
        }
      ],
      "stateMutability": "view",
      "type": "function"
    },
    {
      "inputs": [
        {
          "internalType": "bytes32",
          "name": "_code",
          "type": "bytes32"
        }
      ],
      "name": "registerCode",
      "outputs": [],
      "stateMutability": "nonpayable",
      "type": "function"
    },
    {
      "inputs": [
        {
          "internalType": "bytes32",
          "name": "_code",
          "type": "bytes32"
        },
        {
          "internalType": "address",
          "name": "who",
          "type": "address"
        }
      ],
      "name": "registerCodeAdmin",
      "outputs": [],
      "stateMutability": "nonpayable",
      "type": "function"
    },
    {
      "inputs": [
        {
          "internalType": "bytes32[]",
          "name": "_codes",
          "type": "bytes32[]"
        }
      ],
      "name": "registerCodes",
      "outputs": [],
      "stateMutability": "nonpayable",
      "type": "function"
    },
    {
      "inputs": [
        {
          "internalType": "address",
          "name": "_auth",
          "type": "address"
        },
        {
          "internalType": "bool",
          "name": "_isActive",
          "type": "bool"
        }
      ],
      "name": "setHandler",
      "outputs": [],
      "stateMutability": "nonpayable",
      "type": "function"
    },
    {
      "inputs": [
        {
          "internalType": "address",
          "name": "_account",
          "type": "address"
        },
        {
          "internalType": "bytes32",
          "name": "_code",
          "type": "bytes32"
        }
      ],
      "name": "setReferralCode",
      "outputs": [],
      "stateMutability": "nonpayable",
      "type": "function"
    },
    {
      "inputs": [
        {
          "internalType": "bytes32",
          "name": "_code",
          "type": "bytes32"
        }
      ],
      "name": "setReferralCodeByUser",
      "outputs": [],
      "stateMutability": "nonpayable",
      "type": "function"
    },
    {
      "inputs": [
        {
          "internalType": "address",
          "name": "_referrer",
          "type": "address"
        },
        {
          "internalType": "uint256",
          "name": "_tierId",
          "type": "uint256"
        }
      ],
      "name": "setTier",
      "outputs": [],
      "stateMutability": "nonpayable",
      "type": "function"
    },
    {
      "inputs": [
        {
          "internalType": "address",
          "name": "",
          "type": "address"
        }
      ],
      "name": "userReferralCodes",
      "outputs": [
        {
          "internalType": "bytes32",
          "name": "",
          "type": "bytes32"
        }
      ],
      "stateMutability": "view",
      "type": "function"
    }
  ],
  "bytecode": "0x608060405234801561001057600080fd5b50610a4d806100206000396000f3fe608060405234801561001057600080fd5b50600436106100ea5760003560e01c8063964c05941161008c578063a8483b7b11610066578063a8483b7b14610209578063a914adce1461021c578063c8b3c4601461022f578063f1a20fdc1461025857600080fd5b8063964c0594146101c35780639b2c76d4146101d65780639cb7de4b146101f657600080fd5b806336def2c8116100c857806336def2c81461016a5780634dbd4f421461017d5780638129fc1c146101a85780638eed79f6146101b057600080fd5b80631582a018146100ef578063170018fe146101225780632520e7ff14610137575b600080fd5b61010f6100fd366004610853565b60026020526000908152604090205481565b6040519081526020015b60405180910390f35b610135610130366004610875565b61026b565b005b61015a610145366004610853565b60036020526000908152604090205460ff1681565b6040519015158152602001610119565b610135610178366004610875565b610278565b61019061018b36600461088e565b610391565b6040516001600160a01b039091168152602001610119565b6101356103c9565b6101356101be3660046108b0565b6104e5565b6101356101d13660046108dc565b610632565b61010f6101e4366004610853565b60016020526000908152604090205481565b610135610204366004610951565b610675565b61010f61021736600461098d565b6106cf565b61013561022a36600461098d565b610700565b61019061023d366004610875565b6005602052600090815260409020546001600160a01b031681565b61013561026636600461098d565b610780565b61027533826107bd565b50565b806102b95760405162461bcd60e51b815260206004820152600c60248201526b696e76616c696420636f646560a01b60448201526064015b60405180910390fd5b6000818152600560205260409020546001600160a01b0316156103145760405162461bcd60e51b8152602060048201526013602482015272636f646520616c72656164792065786973747360681b60448201526064016102b0565b600081815260056020908152604080832080546001600160a01b031916339081179091558084526004835281842080546001810182559085529383902090930184905580519283529082018390527f04f82286a2a3b2ee5c8555de8304dfe2ea70991613213184b73a9e408d2d802991015b60405180910390a150565b600660205281600052604060002081815481106103ad57600080fd5b6000918252602090912001546001600160a01b03169150829050565b600054610100900460ff16158080156103e95750600054600160ff909116105b806104035750303b158015610403575060005460ff166001145b6104665760405162461bcd60e51b815260206004820152602e60248201527f496e697469616c697a61626c653a20636f6e747261637420697320616c72656160448201526d191e481a5b9a5d1a585b1a5e995960921b60648201526084016102b0565b6000805460ff191660011790558015610489576000805461ff0019166101001790555b336000908152600360205260409020805460ff191660011790558015610275576000805461ff0019169055604051600181527f7f26b83ff96e1f2b6a682f133852f6798a09c465da95921460cefb384740249890602001610386565b3360009081526003602052604090205460ff166105145760405162461bcd60e51b81526004016102b0906109b7565b816105505760405162461bcd60e51b815260206004820152600c60248201526b696e76616c696420636f646560a01b60448201526064016102b0565b6000828152600560205260409020546001600160a01b0316156105ab5760405162461bcd60e51b8152602060048201526013602482015272636f646520616c72656164792065786973747360681b60448201526064016102b0565b600082815260056020908152604080832080546001600160a01b0319166001600160a01b0386169081179091558084526004835281842080546001810182559085529383902090930185905580519283529082018490527f04f82286a2a3b2ee5c8555de8304dfe2ea70991613213184b73a9e408d2d802991015b60405180910390a15050565b60005b818110156106705761065e838383818110610652576106526109da565b90506020020135610278565b80610668816109f0565b915050610635565b505050565b3360009081526003602052604090205460ff166106a45760405162461bcd60e51b81526004016102b0906109b7565b6001600160a01b03919091166000908152600360205260409020805460ff1916911515919091179055565b600460205281600052604060002081815481106106eb57600080fd5b90600052602060002001600091509150505481565b3360009081526003602052604090205460ff1661072f5760405162461bcd60e51b81526004016102b0906109b7565b6001600160a01b038216600081815260026020908152604091829020849055815192835282018390527f7696855cdbb94bb5a44cb0a95caff6f29173aa1cbfba193834b12b90827ce2bc9101610626565b3360009081526003602052604090205460ff166107af5760405162461bcd60e51b81526004016102b0906109b7565b6107b982826107bd565b5050565b6001600160a01b0382166000818152600160208181526040808420869055858452600682528084208054938401815584529281902090910180546001600160a01b03191684179055815192835282018390527f60750994fdf9995c19bee1ac3f38a6fbf271ecd405e8bd0d55c99f7f14f86e0f9101610626565b80356001600160a01b038116811461084e57600080fd5b919050565b60006020828403121561086557600080fd5b61086e82610837565b9392505050565b60006020828403121561088757600080fd5b5035919050565b600080604083850312156108a157600080fd5b50508035926020909101359150565b600080604083850312156108c357600080fd5b823591506108d360208401610837565b90509250929050565b600080602083850312156108ef57600080fd5b823567ffffffffffffffff8082111561090757600080fd5b818501915085601f83011261091b57600080fd5b81358181111561092a57600080fd5b8660208260051b850101111561093f57600080fd5b60209290920196919550909350505050565b6000806040838503121561096457600080fd5b61096d83610837565b91506020830135801515811461098257600080fd5b809150509250929050565b600080604083850312156109a057600080fd5b6109a983610837565b946020939093013593505050565b6020808252600990820152683337b93134b23232b760b91b604082015260600190565b634e487b7160e01b600052603260045260246000fd5b600060018201610a1057634e487b7160e01b600052601160045260246000fd5b506001019056fea264697066735822122028afb0d83d5f26b26b6915a7a6d55fdc4c1ffc65c9759f6eb71af6dcf7555cc464736f6c63430008120033",
  "linkReferences": {},
  "deployedLinkReferences": {}
}