{
  "abi": [
    {
      "inputs": [],
      "name": "R",
      "type": "error"
    },
    {
      "inputs": [],
      "name": "T",
      "type": "error"
    },
    {
      "anonymous": false,
      "inputs": [
        {
          "indexed": false,
          "internalType": "uint8",
          "name": "version",
          "type": "uint8"
        }
      ],
      "name": "Initialized",
      "type": "event"
    },
    {
      "inputs": [],
      "name": "approvePoolManager",
      "outputs": [],
      "stateMutability": "nonpayable",
      "type": "function"
    },
    {
      "inputs": [
        {
          "internalType": "bytes32",
          "name": "",
          "type": "bytes32"
        }
      ],
      "name": "exposureToPair",
      "outputs": [
        {
          "internalType": "uint256",
          "name": "",
          "type": "uint256"
        }
      ],
      "stateMutability": "view",
      "type": "function"
    },
    {
      "inputs": [
        {
          "components": [
            {
              "internalType": "address",
              "name": "token0",
              "type": "address"
            },
            {
              "internalType": "address",
              "name": "token1",
              "type": "address"
            },
            {
              "internalType": "uint24",
              "name": "fee",
              "type": "uint24"
            }
          ],
          "internalType": "struct PoolKey",
          "name": "key",
          "type": "tuple"
        }
      ],
      "name": "getHashedKey",
      "outputs": [
        {
          "internalType": "bytes32",
          "name": "",
          "type": "bytes32"
        }
      ],
      "stateMutability": "pure",
      "type": "function"
    },
    {
      "inputs": [
        {
          "internalType": "bool",
          "name": "borrowBelow",
          "type": "bool"
        },
        {
          "internalType": "uint256",
          "name": "borrowAmount",
          "type": "uint256"
        },
        {
          "internalType": "uint256",
          "name": "simulatedOutput",
          "type": "uint256"
        },
        {
          "internalType": "uint160",
          "name": "finishPriceX96",
          "type": "uint160"
        },
        {
          "components": [
            {
              "internalType": "address",
              "name": "token0",
              "type": "address"
            },
            {
              "internalType": "address",
              "name": "token1",
              "type": "address"
            },
            {
              "internalType": "uint24",
              "name": "fee",
              "type": "uint24"
            }
          ],
          "internalType": "struct PoolKey",
          "name": "key",
          "type": "tuple"
        }
      ],
      "name": "getInstantLiq",
      "outputs": [
        {
          "components": [
            {
              "internalType": "int24",
              "name": "tick",
              "type": "int24"
            },
            {
              "internalType": "uint128",
              "name": "liquidity",
              "type": "uint128"
            },
            {
              "internalType": "uint256",
              "name": "premium",
              "type": "uint256"
            },
            {
              "internalType": "uint256",
              "name": "feeGrowthInside0LastX128",
              "type": "uint256"
            },
            {
              "internalType": "uint256",
              "name": "feeGrowthInside1LastX128",
              "type": "uint256"
            },
            {
              "internalType": "uint256",
              "name": "lastGrowth",
              "type": "uint256"
            }
          ],
          "internalType": "struct LiquidityLoan[]",
          "name": "",
          "type": "tuple[]"
        }
      ],
      "stateMutability": "view",
      "type": "function"
    },
    {
      "inputs": [
        {
          "components": [
            {
              "internalType": "address",
              "name": "token0",
              "type": "address"
            },
            {
              "internalType": "address",
              "name": "token1",
              "type": "address"
            },
            {
              "internalType": "uint24",
              "name": "fee",
              "type": "uint24"
            }
          ],
          "internalType": "struct PoolKey",
          "name": "key",
          "type": "tuple"
        },
        {
          "internalType": "int24",
          "name": "tickLower",
          "type": "int24"
        },
        {
          "internalType": "int24",
          "name": "tickUpper",
          "type": "int24"
        }
      ],
      "name": "getMaxWithdrawable",
      "outputs": [
        {
          "internalType": "uint128",
          "name": "maxWithdrawable",
          "type": "uint128"
        }
      ],
      "stateMutability": "view",
      "type": "function"
    },
    {
      "inputs": [],
      "name": "id",
      "outputs": [
        {
          "internalType": "uint256",
          "name": "",
          "type": "uint256"
        }
      ],
      "stateMutability": "view",
      "type": "function"
    },
    {
      "inputs": [
        {
          "internalType": "uint256",
          "name": "",
          "type": "uint256"
        }
      ],
      "name": "idToExposure",
      "outputs": [
        {
          "internalType": "uint256",
          "name": "amount",
          "type": "uint256"
        },
        {
          "internalType": "int24",
          "name": "tick",
          "type": "int24"
        },
        {
          "internalType": "uint128",
          "name": "liquidity",
          "type": "uint128"
        },
        {
          "components": [
            {
              "internalType": "address",
              "name": "token0",
              "type": "address"
            },
            {
              "internalType": "address",
              "name": "token1",
              "type": "address"
            },
            {
              "internalType": "uint24",
              "name": "fee",
              "type": "uint24"
            }
          ],
          "internalType": "struct PoolKey",
          "name": "key",
          "type": "tuple"
        }
      ],
      "stateMutability": "view",
      "type": "function"
    },
    {
      "inputs": [
        {
          "internalType": "address",
          "name": "_vault",
          "type": "address"
        },
        {
          "internalType": "address",
          "name": "_poolManager",
          "type": "address"
        }
      ],
      "name": "initialize",
      "outputs": [],
      "stateMutability": "nonpayable",
      "type": "function"
    },
    {
      "inputs": [
        {
          "internalType": "uint256",
          "name": "",
          "type": "uint256"
        }
      ],
      "name": "instantLiqIds",
      "outputs": [
        {
          "internalType": "uint256",
          "name": "",
          "type": "uint256"
        }
      ],
      "stateMutability": "view",
      "type": "function"
    },
    {
      "inputs": [
        {
          "internalType": "bytes32",
          "name": "",
          "type": "bytes32"
        }
      ],
      "name": "maxPerPairs",
      "outputs": [
        {
          "internalType": "uint256",
          "name": "",
          "type": "uint256"
        }
      ],
      "stateMutability": "view",
      "type": "function"
    },
    {
      "inputs": [
        {
          "internalType": "bytes32",
          "name": "",
          "type": "bytes32"
        }
      ],
      "name": "maxPerPositions",
      "outputs": [
        {
          "internalType": "uint256",
          "name": "",
          "type": "uint256"
        }
      ],
      "stateMutability": "view",
      "type": "function"
    },
    {
      "inputs": [],
      "name": "maxTickDiff",
      "outputs": [
        {
          "internalType": "int24",
          "name": "",
          "type": "int24"
        }
      ],
      "stateMutability": "view",
      "type": "function"
    },
    {
      "inputs": [
        {
          "internalType": "bytes32",
          "name": "",
          "type": "bytes32"
        }
      ],
      "name": "minTickDiffs",
      "outputs": [
        {
          "internalType": "int24",
          "name": "",
          "type": "int24"
        }
      ],
      "stateMutability": "view",
      "type": "function"
    },
    {
      "inputs": [
        {
          "components": [
            {
              "internalType": "address",
              "name": "token0",
              "type": "address"
            },
            {
              "internalType": "address",
              "name": "token1",
              "type": "address"
            },
            {
              "internalType": "uint24",
              "name": "fee",
              "type": "uint24"
            }
          ],
          "internalType": "struct PoolKey",
          "name": "key",
          "type": "tuple"
        },
        {
          "components": [
            {
              "internalType": "int24",
              "name": "tick",
              "type": "int24"
            },
            {
              "internalType": "uint128",
              "name": "liquidity",
              "type": "uint128"
            },
            {
              "internalType": "uint256",
              "name": "premium",
              "type": "uint256"
            },
            {
              "internalType": "uint256",
              "name": "feeGrowthInside0LastX128",
              "type": "uint256"
            },
            {
              "internalType": "uint256",
              "name": "feeGrowthInside1LastX128",
              "type": "uint256"
            },
            {
              "internalType": "uint256",
              "name": "lastGrowth",
              "type": "uint256"
            }
          ],
          "internalType": "struct LiquidityLoan",
          "name": "borrowInfo",
          "type": "tuple"
        }
      ],
      "name": "provideInstantLiquidity",
      "outputs": [],
      "stateMutability": "nonpayable",
      "type": "function"
    },
    {
      "inputs": [
        {
          "internalType": "uint256",
          "name": "id",
          "type": "uint256"
        }
      ],
      "name": "removeExposureById",
      "outputs": [],
      "stateMutability": "nonpayable",
      "type": "function"
    },
    {
      "inputs": [
        {
          "components": [
            {
              "internalType": "address",
              "name": "token0",
              "type": "address"
            },
            {
              "internalType": "address",
              "name": "token1",
              "type": "address"
            },
            {
              "internalType": "uint24",
              "name": "fee",
              "type": "uint24"
            }
          ],
          "internalType": "struct PoolKey",
          "name": "key",
          "type": "tuple"
        },
        {
          "internalType": "int24",
          "name": "minTickDiff",
          "type": "int24"
        },
        {
          "internalType": "uint256",
          "name": "maxPerPosition",
          "type": "uint256"
        },
        {
          "internalType": "uint256",
          "name": "maxPerPair",
          "type": "uint256"
        }
      ],
      "name": "setPoolParams",
      "outputs": [],
      "stateMutability": "nonpayable",
      "type": "function"
    },
    {
      "inputs": [],
      "name": "timeAgo",
      "outputs": [
        {
          "internalType": "uint256",
          "name": "",
          "type": "uint256"
        }
      ],
      "stateMutability": "view",
      "type": "function"
    },
    {
      "inputs": [],
      "name": "withdrawInstantLiquidities",
      "outputs": [
        {
          "internalType": "uint256",
          "name": "token0Outs",
          "type": "uint256"
        },
        {
          "internalType": "uint256",
          "name": "token1Outs",
          "type": "uint256"
        },
        {
          "internalType": "uint256",
          "name": "collectedFeesTotal0",
          "type": "uint256"
        },
        {
          "internalType": "uint256",
          "name": "collectedFeesTotal1",
          "type": "uint256"
        }
      ],
      "stateMutability": "nonpayable",
      "type": "function"
    }
  ],
  "bytecode": {
    "object": "0x608060405234801561001057600080fd5b50613e71806100206000396000f3fe608060405234801561001057600080fd5b50600436106101155760003560e01c806376efa683116100a2578063af640d0f11610071578063af640d0f14610314578063bdefbdd81461031d578063e317a1c714610330578063efc76e5414610339578063fad56a411461034157600080fd5b806376efa6831461028657806384560983146102a6578063862be5b6146102c65780638e68ad36146102e957600080fd5b8063485cc955116100e9578063485cc9551461020d5780634ce33feb146102205780635dbdc1ab146102405780636980cb8714610253578063764479371461026657600080fd5b8062468c8e1461011a5780630b8a4f47146101475780631de3be411461015c57806348222442146101ec575b600080fd5b610122610361565b6040805194855260208501939093529183015260608201526080015b60405180910390f35b61015a6101553660046134b5565b610e0d565b005b6101dc61016a366004613548565b6007602090815260009182526040918290208054600182015484516060810186526002808501546001600160a01b03908116835260039095015494851695820195909552600160a01b90930462ffffff1694830194909452929182900b91630100000090046001600160801b03169084565b60405161013e949392919061358d565b6101ff6101fa366004613664565b611443565b60405190815260200161013e565b61015a61021b366004613680565b611492565b61023361022e3660046136c7565b611753565b60405161013e9190613723565b61015a61024e3660046137a7565b6121e8565b6101ff610261366004613548565b612276565b600b546102739060020b81565b60405160029190910b815260200161013e565b6101ff610294366004613548565b60056020526000908152604090205481565b6101ff6102b4366004613548565b60046020526000908152604090205481565b6102736102d4366004613548565b60036020526000908152604090205460020b81565b6102fc6102f73660046137ec565b612297565b6040516001600160801b03909116815260200161013e565b6101ff60095481565b61015a61032b366004613548565b612522565b6101ff600a5481565b61015a6125d9565b6101ff61034f366004613548565b60066020526000908152604090205481565b600080600080600060088054806020026020016040519081016040528092919081815260200182805480156103b557602002820191906000526020600020905b8154815260200190600101908083116103a1575b505050505090506103c46133bd565b60408051610100810182526000808252602080830182905282840182905260608084018390526080840183905260a0840183905260c0840183905260e0840183905284519081018552828152908101829052928301529060008060005b8651811015610e00576007600088838151811061044057610440613836565b6020908102919091018101518252818101929092526040908101600020815160808101835281548152600180830154600281810b8488015263010000009091046001600160801b031683860152845160608082018752918501546001600160a01b03908116825260039095015480861697820197909752600160a01b90960462ffffff16868601528201859052549251639525092360e01b815290995092965016906395250923906104f690879060040161384c565b6101c060405180830381865afa158015610514573d6000803e3d6000fd5b505050506040513d601f19601f82011682018060405250810190610538919061386c565b9091505080935050600060029054906101000a90046001600160a01b03166001600160a01b03166338d52e0f6040518163ffffffff1660e01b8152600401602060405180830381865afa158015610593573d6000803e3d6000fd5b505050506040513d601f19601f820116820180604052508101906105b79190613963565b91506105c284611443565b60a086015260208601516105dc9085906102f78682613996565b6001600160801b0390811680875260408801519091161015610602578560400151610605565b84515b6001600160801b031660208087019190915260408051808201825260038152626b657960e81b818401528651928701519187015161064a9391929062ffffff1661270d565b61066586604001516001600160801b0316866000015161275c565b610675866020015160020b6127a6565b6106ac670de0b6b3a764000087604001516001600160801b031687602001516001600160801b03166127eb9092919063ffffffff16565b604086015260208501516001600160801b03161561076357600154606087015160208801516001600160a01b039092169163abf978e491906106ee8782613996565b89602001516040518563ffffffff1660e01b815260040161071294939291906139bb565b60408051808303816000875af1158015610730573d6000803e3d6000fd5b505050506040513d601f19601f8201168201806040525081019061075491906139f3565b60808701526060860152610772565b60006080860181905260608601525b600154606087015160208801516001600160a01b03909216916319fa1033919061079c8782613996565b6040518463ffffffff1660e01b81526004016107ba93929190613a17565b60408051808303816000875af11580156107d8573d6000803e3d6000fd5b505050506040513d601f19601f820116820180604052508101906107fc9190613a3f565b6001600160801b0390811660e08801521660c0860181905261081e908a613a6e565b98508460e001516001600160801b0316886108399190613a6e565b97508460c001516001600160801b03168560600181815161085a9190613a6e565b90525060e08501516080860180516001600160801b039092169161087f908390613a6e565b9052506060850151610891908c613a6e565b9a5084608001518a6108a39190613a6e565b9950816001600160a01b031684600001516001600160a01b031603610a8f57604085015186516000916108df9190670de0b6b3a76400006127eb565b86606001516108ee9190613a81565b60005460408801518951929350620100009091046001600160a01b031691633bc034bd916109259190670de0b6b3a76400006127eb565b836040518363ffffffff1660e01b815260040161094c929190918252602082015260400190565b600060405180830381600087803b15801561096657600080fd5b505af115801561097a573d6000803e3d6000fd5b50505050608086015115610a89576020850151600054608088015160405163095ea7b360e01b81526001600160a01b036201000090930483166004820152602481019190915291169063095ea7b3906044016020604051808303816000875af11580156109eb573d6000803e3d6000fd5b505050506040513d601f19601f82011682018060405250810190610a0f9190613aa8565b5060005460808701516020870151604051634b390ec560e11b815260048101929092526001600160a01b03908116602483015262010000909204909116906396721d8a90604401600060405180830381600087803b158015610a7057600080fd5b505af1158015610a84573d6000803e3d6000fd5b505050505b50610c52565b60408501518651600091610aac9190670de0b6b3a76400006127eb565b8660800151610abb9190613a81565b60005460408801518951929350620100009091046001600160a01b031691633bc034bd91610af29190670de0b6b3a76400006127eb565b836040518363ffffffff1660e01b8152600401610b19929190918252602082015260400190565b600060405180830381600087803b158015610b3357600080fd5b505af1158015610b47573d6000803e3d6000fd5b50505050606086015115610c50578451600054606088015160405163095ea7b360e01b81526001600160a01b036201000090930483166004820152602481019190915291169063095ea7b3906044016020604051808303816000875af1158015610bb5573d6000803e3d6000fd5b505050506040513d601f19601f82011682018060405250810190610bd99190613aa8565b5060005460608701518651604051634b390ec560e11b815260048101929092526001600160a01b03908116602483015262010000909204909116906396721d8a90604401600060405180830381600087803b158015610c3757600080fd5b505af1158015610c4b573d6000803e3d6000fd5b505050505b505b846020015160076000898481518110610c6d57610c6d613836565b6020026020010151815260200190815260200160002060010160038282829054906101000a90046001600160801b0316610ca79190613ac5565b92506101000a8154816001600160801b0302191690836001600160801b03160217905550610cf78560400151670de0b6b3a7640000610ce69190613ae5565b875190670de0b6b3a76400006127eb565b60076000898481518110610d0d57610d0d613836565b6020026020010151815260200190815260200160002060000181905550610d4f8560400151670de0b6b3a764000088600001516127eb9092919063ffffffff16565b60a086015160009081526006602052604081208054909190610d72908490613ae5565b9250508190555060076000888381518110610d8f57610d8f613836565b6020026020010151815260200190815260200160002060010160039054906101000a90046001600160801b03166001600160801b0316600003610dee57610dee878281518110610de157610de1613836565b6020026020010151612522565b80610df881613af8565b915050610421565b5050505050505090919293565b6001546001600160a01b03163314610e5b5760405162461bcd60e51b815260206004820152600c60248201526b10b837b7b626b0b730b3b2b960a11b60448201526064015b60405180910390fd5b600154604051639525092360e01b81526000916001600160a01b031690639525092390610e8c908690600401613b5c565b6101c060405180830381865afa158015610eaa573d6000803e3d6000fd5b505050506040513d601f19601f82011682018060405250810190610ece919061386c565b50915060009050610ee76101fa36869003860186613664565b905060008060029054906101000a90046001600160a01b03166001600160a01b03166338d52e0f6040518163ffffffff1660e01b8152600401602060405180830381865afa158015610f3d573d6000803e3d6000fd5b505050506040513d601f19601f82011682018060405250810190610f619190613963565b6001600160a01b0316610f776020870187613b6a565b6001600160a01b031614610fba57610fb5610f9585600001516128ca565b8551610fab90610fa6908790613996565b6128ca565b8660200151612bed565b610fe5565b610fe5610fca85600001516128ca565b8551610fdb90610fa6908790613996565b8660200151612c32565b905060008060029054906101000a90046001600160a01b03166001600160a01b0316639e1a4d196040518163ffffffff1660e01b8152600401602060405180830381865afa15801561103b573d6000803e3d6000fd5b505050506040513d601f19601f8201168201806040525081019061105f9190613b87565b6000848152600560205260409020549091506110849082670de0b6b3a76400006127eb565b60008481526006602052604090205461109e908490613a6e565b11156110e35760405162461bcd60e51b815260206004820152601460248201527332bc31b2b2b2399036b0bc103832b9103830b4b960611b6044820152606401610e52565b6000838152600460205260409020546111059082670de0b6b3a76400006127eb565b8211156111545760405162461bcd60e51b815260206004820152601860248201527f65786365656473206d61782070657220706f736974696f6e00000000000000006044820152606401610e52565b50600054604051637802d79f60e11b815260048101839052620100009091046001600160a01b03169063f005af3e90602401600060405180830381600087803b1580156111a057600080fd5b505af11580156111b4573d6000803e3d6000fd5b50506001548651600093508392506001600160a01b039091169063b8919fa69089906111e08982613996565b8a60200151306040518663ffffffff1660e01b8152600401611206959493929190613ba0565b60408051808303816000875af1158015611224573d6000803e3d6000fd5b505050506040513d601f19601f8201168201806040525081019061124891906139f3565b91509150816000146112df5780156112905760405162461bcd60e51b815260206004820152600b60248201526a1ddc9bdb99d05b5bdd5b9d60aa1b6044820152606401610e52565b600084815260066020526040812080548492906112ae908490613a6e565b9091555050600954600090815260076020526040812080548492906112d4908490613a6e565b909155506113659050565b811561131b5760405162461bcd60e51b815260206004820152600b60248201526a1ddc9bdb99d05b5bdd5b9d60aa1b6044820152606401610e52565b60008481526006602052604081208054839290611339908490613a6e565b90915550506009546000908152600760205260408120805483929061135f908490613a6e565b90915550505b600954600090815260076020526040902087906002016113858282613c09565b505085516009805460009081526007602090815260408083206001908101805462ffffff191662ffffff90971696909617909555908a0151835483529082208401805472ffffffffffffffffffffffffffffffff000000191663010000006001600160801b0390931692909202919091179055815460088054948501815582527ff3f7a9fe364faab93b216da50a3214154f22a0a2b415b23a84c8169e8b636ee390930183905561143583613af8565b919050555050505050505050565b805160208083015160409384015184516001600160a01b0394851681850152939091168385015262ffffff16606080840191909152835180840390910181526080909201909252805191012090565b600054610100900460ff16158080156114b25750600054600160ff909116105b806114cc5750303b1580156114cc575060005460ff166001145b61152f5760405162461bcd60e51b815260206004820152602e60248201527f496e697469616c697a61626c653a20636f6e747261637420697320616c72656160448201526d191e481a5b9a5d1a585b1a5e995960921b6064820152608401610e52565b6000805460ff191660011790558015611552576000805461ff0019166101001790555b6000805462010000600160b01b031916620100006001600160a01b03868116820292909217808455600180546001600160a01b03199081168886161790915560028054339216919091179055604080516338d52e0f60e01b8152905192909104909216916338d52e0f9160048083019260209291908290030181865afa1580156115e0573d6000803e3d6000fd5b505050506040513d601f19601f820116820180604052508101906116049190613963565b60405163095ea7b360e01b81526001600160a01b03858116600483015260001960248301529192509082169063095ea7b3906044016020604051808303816000875af1158015611658573d6000803e3d6000fd5b505050506040513d601f19601f8201168201806040525081019061167c9190613aa8565b5060405163095ea7b360e01b81526001600160a01b038581166004830152600019602483015282169063095ea7b3906044016020604051808303816000875af11580156116cd573d6000803e3d6000fd5b505050506040513d601f19601f820116820180604052508101906116f19190613aa8565b5050601e600a55600b805462ffffff19166101f4179055801561174e576000805461ff0019169055604051600181527f7f26b83ff96e1f2b6a682f133852f6798a09c465da95921460cefb38474024989060200160405180910390a15b505050565b604080516101c08101825260008082526020820181905291810182905260608181018390526080820183905260a0820183905260c0820183905260e08201839052610100820183905261012082018390526101408201839052610160820183905261018082018390526101a08201929092526117d76101fa36859003850185613664565b60e08201819052600090815260036020908152604082205460020b908301819052900361182b5760405162461bcd60e51b81526020600482015260026024820152611d1960f21b6044820152606401610e52565b600154604051639525092360e01b81526001600160a01b039091169063952509239061185b908690600401613b5c565b6101c060405180830381865afa158015611879573d6000803e3d6000fd5b505050506040513d601f19601f8201168201806040525081019061189d919061386c565b5060020b60608301526001600160a01b0390811661012083015260005460408051639e1a4d1960e01b815290516201000090920490921691639e1a4d199160048083019260209291908290030181865afa1580156118ff573d6000803e3d6000fd5b505050506040513d601f19601f820116820180604052508101906119239190613b87565b81610160018181525050600060029054906101000a90046001600160a01b03166001600160a01b03166338d52e0f6040518163ffffffff1660e01b8152600401602060405180830381865afa158015611980573d6000803e3d6000fd5b505050506040513d601f19601f820116820180604052508101906119a49190613963565b6001600160a01b031660408083019190915261016082015160e08301516000908152600560205291909120546119e291670de0b6b3a76400006127eb565b60e0820151600090815260066020526040902054611a01908890613a6e565b1115611a375760405162461bcd60e51b815260206004820152600560248201526410b830b4b960d91b6044820152606401610e52565b61016081015160e0820151600090815260046020526040902054611a6391670de0b6b3a76400006127eb565b861115611a9a5760405162461bcd60e51b815260206004820152600560248201526421706f737360d81b6044820152606401610e52565b85600060029054906101000a90046001600160a01b03166001600160a01b0316638f697f916040518163ffffffff1660e01b8152600401602060405180830381865afa158015611aee573d6000803e3d6000fd5b505050506040513d601f19601f82011682018060405250810190611b129190613b87565b611b1c9190613a6e565b8161016001511015611b585760405162461bcd60e51b81526020600482015260056024820152640858985b1b60da1b6044820152606401610e52565b60408101516001600160a01b0316611b736020850185613b6a565b6001600160a01b031603611bc3578615611bbe5760405162461bcd60e51b815260206004820152600c60248201526b2177726f6e67426f72726f7760a01b6044820152606401610e52565b611c2c565b6040808201516001600160a01b031690611be290850160208601613b6a565b6001600160a01b031603611c2c5786611c2c5760405162461bcd60e51b815260206004820152600c60248201526b2177726f6e67426f72726f7760a01b6044820152606401610e52565b611c3584612c61565b60020b8152610120810151600a5460405163d21206bf60e01b81526001600160a01b039092166004830152602482015273__$eacbb88ed4bd2af84aa4d43bcf675bcf7e$__9063d21206bf90604401602060405180830381865af4158015611ca1573d6000803e3d6000fd5b505050506040513d601f19601f82011682018060405250810190611cc59190613c6a565b600290810b6101408301819052600b548351920b91611ce49190612f67565b60020b12611d1f5760405162461bcd60e51b81526020600482015260086024820152673a34b1b5a234b33360c11b6044820152606401610e52565b611d2f6040840160208501613b6a565b6001600160a01b031681604001516001600160a01b031603611e5157611d71670de0b6b3a7640000611d628882896127eb565b611d6c9190613c87565b612f98565b6101808201819052611d8f90670de0b6b3a76400009060601b613cb4565b6001600160a01b03166101a082018190526060820151908190611db190612c61565b611dbb9190613cc8565b611dc59190613d02565b60020b6101008201819052600013611df55780606001518161010001818151611dee9190613996565b60020b9052505b60208101518151611e069190613d22565b60020b81610100015160020b1315611e4c5760405162461bcd60e51b8152602060048201526009602482015268216c6576657261676560b81b6044820152606401610e52565b611f67565b611e68670de0b6b3a7640000611d6287828a6127eb565b6101808201819052611e8690670de0b6b3a76400009060601b613cb4565b6001600160a01b03166101a082018190526060820151908190611ea890612c61565b611eb29190613cc8565b611ebc9190613d02565b60020b6101008201818152606083015191611ed8908390613d22565b600290810b9091526101008301516000910b12159050611f105780606001518161010001818151611f099190613d22565b60020b9052505b60208101518151611f219190613996565b60020b81610100015160020b1215611f675760405162461bcd60e51b8152602060048201526009602482015268216c6576657261676560b81b6044820152606401610e52565b604080516001808252818301909252600091816020015b611fc36040518060c00160405280600060020b815260200160006001600160801b03168152602001600081526020016000815260200160008152602001600081525090565b815260200190600190039081611f7e57905050905081610100015181600081518110611ff157611ff1613836565b60209081029190910181015160029290920b9091526120169060408601908601613b6a565b6001600160a01b031682604001516001600160a01b031614612066576120616120438361010001516128ca565b61205b8460600151856101000151610fa69190613996565b8961303c565b612095565b6120956120778361010001516128ca565b61208f8460600151856101000151610fa69190613996565b896130e6565b816000815181106120a8576120a8613836565b6020026020010151602001906001600160801b031690816001600160801b0316815250508360200160208101906120df9190613b6a565b6001600160a01b031682604001516001600160a01b03161461214d5761214861210c8361010001516128ca565b6121248460600151856101000151610fa69190613996565b8360008151811061213757612137613836565b602002602001015160200151612bed565b61219a565b61219a61215e8361010001516128ca565b6121768460600151856101000151610fa69190613996565b8360008151811061218957612189613836565b602002602001015160200151612c32565b608083018190528610156121db5760405162461bcd60e51b815260206004820152600860248201526718d85b9d119a5b1b60c21b6044820152606401610e52565b9150505b95945050505050565b6002546001600160a01b0316331461222b5760405162461bcd60e51b815260206004820152600660248201526510b7bbb732b960d11b6044820152606401610e52565b600061223685611443565b6000908152600360209081526040808320805462ffffff191662ffffff989098169790971790965560048152858220949094556005909352509190205550565b6008818154811061228657600080fd5b600091825260209091200154905081565b600154604051632411122160e11b815260009182916001600160a01b03909116906348222442906122cc90889060040161384c565b602060405180830381865afa1580156122e9573d6000803e3d6000fd5b505050506040513d601f19601f8201168201806040525081019061230d9190613b87565b600154604051630ca32ed160e31b8152600481018390529192506000916001600160a01b0390911690636519768890602401602060405180830381865afa15801561235c573d6000803e3d6000fd5b505050506040513d601f19601f820116820180604052508101906123809190613c6a565b6001600160801b039350905060008080875b8760020b8160020b12156125155760015460405163da69b0b360e01b815260048101889052600283900b60248201526001600160a01b039091169063da69b0b390604401602060405180830381865afa1580156123f3573d6000803e3d6000fd5b505050506040513d601f19601f820116820180604052508101906124179190613d47565b6001546040516319fda27760e01b815260048101899052600284900b60248201529195506001600160a01b0316906319fda27790604401602060405180830381865afa15801561246b573d6000803e3d6000fd5b505050506040513d601f19601f8201168201806040525081019061248f9190613d47565b925061249b8385613ac5565b91506124d5604051806040016040528060038152602001623f3f3f60e81b815250856001600160801b0316856001600160801b031661311c565b6124e18160020b6127a6565b866001600160801b0316826001600160801b0316106125005786612502565b815b965061250e8582613996565b9050612392565b5050505050509392505050565b60085460005b8181101561174e57826008828154811061254457612544613836565b9060005260206000200154036125c7576008612561600184613ae5565b8154811061257157612571613836565b90600052602060002001546008828154811061258f5761258f613836565b60009182526020909120015560088054806125ac576125ac613d64565b60019003818190600052602060002001600090559055505050565b806125d181613af8565b915050612528565b6002546001600160a01b0316331461261c5760405162461bcd60e51b815260206004820152600660248201526510b7bbb732b960d11b6044820152606401610e52565b600060029054906101000a90046001600160a01b03166001600160a01b03166338d52e0f6040518163ffffffff1660e01b8152600401602060405180830381865afa15801561266f573d6000803e3d6000fd5b505050506040513d601f19601f820116820180604052508101906126939190613963565b60015460405163095ea7b360e01b81526001600160a01b039182166004820152600019602482015291169063095ea7b3906044016020604051808303816000875af11580156126e6573d6000803e3d6000fd5b505050506040513d601f19601f8201168201806040525081019061270a9190613aa8565b50565b612756848484846040516024016127279493929190613dc0565b60408051601f198184030181529190526020810180516001600160e01b0316636eb7943d60e01b17905261315f565b50505050565b60405160248101839052604481018290526127a29060640160408051601f198184030181529190526020810180516001600160e01b031662d81ed360e71b17905261315f565b5050565b61270a816040516024016127bc91815260200190565b60408051601f198184030181529190526020810180516001600160e01b0316634e0c1d1d60e01b17905261315f565b6000808060001985870985870292508281108382030391505080600003612824576000841161281957600080fd5b5082900490506128c3565b80841161285c5760405162461bcd60e51b815260206004820152600660248201526536bab62234bb60d11b6044820152606401610e52565b6000848688096000868103871696879004966002600389028118808a02820302808a02820302808a02820302808a02820302808a02820302808a02909103029181900381900460010186841190950394909402919094039290920491909117919091029150505b9392505050565b60008060008360020b126128e1578260020b6128e9565b8260020b6000035b9050620d89e881111561290f576040516315e4079d60e11b815260040160405180910390fd5b60008160011660000361292657600160801b612938565b6ffffcb933bd6fad37aa2d162d1a5940015b70ffffffffffffffffffffffffffffffffff169050600282161561296c576ffff97272373d413259a46990580e213a0260801c5b600482161561298b576ffff2e50f5f656932ef12357cf3c7fdcc0260801c5b60088216156129aa576fffe5caca7e10e4e61c3624eaa0941cd00260801c5b60108216156129c9576fffcb9843d60f6159c9db58835c9266440260801c5b60208216156129e8576fff973b41fa98c081472e6896dfb254c00260801c5b6040821615612a07576fff2ea16466c96a3843ec78b326b528610260801c5b6080821615612a26576ffe5dee046a99a2a811c461f1969c30530260801c5b610100821615612a46576ffcbe86c7900a88aedcffc83b479aa3a40260801c5b610200821615612a66576ff987a7253ac413176f2b074cf7815e540260801c5b610400821615612a86576ff3392b0822b70005940c7a398e4b70f30260801c5b610800821615612aa6576fe7159475a2c29b7443b29c7fa6e889d90260801c5b611000821615612ac6576fd097f3bdfd2022b8845ad8f792aa58250260801c5b612000821615612ae6576fa9f746462d870fdf8a65dc1f90e061e50260801c5b614000821615612b06576f70d869a156d2a1b890bb3df62baf32f70260801c5b618000821615612b26576f31be135f97d08fd981231505542fcfa60260801c5b62010000821615612b47576f09aa508b5b7a84e1c677de54f3e99bc90260801c5b62020000821615612b67576e5d6af8dedb81196699c329225ee6040260801c5b62040000821615612b86576d2216e584f5fa1ea926041bedfe980260801c5b62080000821615612ba3576b048a170391f7dc42444e8fa20260801c5b60008460020b1315612bc4578060001981612bc057612bc0613c9e565b0490505b640100000000810615612bd8576001612bdb565b60005b60ff16602082901c0192505050919050565b60008082600f0b12612c1357612c0e612c098585856001613180565b6131f0565b612c2a565b612c26612c098585856000036000613180565b6000035b949350505050565b60008082600f0b12612c4e57612c0e612c09858585600161323d565b612c26612c09858585600003600061323d565b60006401000276a36001600160a01b03831610801590612c9d575073fffd8963efd1fc6a506488495d951d5263988d266001600160a01b038316105b612cba576040516324c070df60e11b815260040160405180910390fd5b640100000000600160c01b03602083901b166001600160801b03811160071b81811c67ffffffffffffffff811160061b90811c63ffffffff811160051b90811c61ffff811160041b90811c60ff8111600390811b91821c600f811160021b90811c918211600190811b92831c97908811961790941790921717909117171760808110612d4e57607f810383901c9150612d58565b80607f0383901b91505b908002607f81811c60ff83811c9190911c800280831c81831c1c800280841c81841c1c800280851c81851c1c800280861c81861c1c800280871c81871c1c800280881c81881c1c800280891c81891c1c8002808a1c818a1c1c8002808b1c818b1c1c8002808c1c818c1c1c8002808d1c818d1c1c8002808e1c9c81901c9c909c1c80029c8d901c9e9d607f198f0160401b60c09190911c678000000000000000161760c19b909b1c674000000000000000169a909a1760c29990991c672000000000000000169890981760c39790971c671000000000000000169690961760c49590951c670800000000000000169490941760c59390931c670400000000000000169290921760c69190911c670200000000000000161760c79190911c670100000000000000161760c89190911c6680000000000000161760c99190911c6640000000000000161760ca9190911c6620000000000000161760cb9190911c6610000000000000161760cc9190911c6608000000000000161760cd9190911c66040000000000001617693627a301d71055774c8581026f028f6481ab7f045a5af012a19d003aa9198101608090811d906fdb2df09e81959a81455e260799a0632f8301901d600281810b9083900b14612f5857886001600160a01b0316612f3d826128ca565b6001600160a01b03161115612f525781612f5a565b80612f5a565b815b9998505050505050505050565b60008160020b8360020b13612f8557612f808383613d22565b612f8f565b612f8f8284613d22565b90505b92915050565b60b581600160881b8110612fb15760409190911b9060801c5b69010000000000000000008110612fcd5760209190911b9060401c5b650100000000008110612fe55760109190911b9060201c5b63010000008110612ffb5760089190911b9060101c5b62010000010260121c80820401600190811c80830401811c80830401811c80830401811c80830401811c80830401811c80830401901c908190048111900390565b6000826001600160a01b0316846001600160a01b0316111561305c579192915b600061307f856001600160a01b0316856001600160a01b0316600160601b6132fd565b905080156130b4576130ac6130a784836130998989613df6565b6001600160a01b03166132fd565b613337565b9150506128c3565b6130ac6130a76130d2856001600160a01b0389166130998a8a613df6565b866001600160a01b0316600160601b6132fd565b6000826001600160a01b0316846001600160a01b03161115613106579192915b612c2a6130a783600160601b6130998888613df6565b61174e83838360405160240161313493929190613e16565b60408051601f198184030181529190526020810180516001600160e01b031663969cdd0360e01b1790525b80516a636f6e736f6c652e6c6f67602083016000808483855afa5050505050565b6000836001600160a01b0316856001600160a01b031611156131a0579293925b816131cd576131c8836001600160801b03168686036001600160a01b0316600160601b6132fd565b6121df565b6121df836001600160801b03168686036001600160a01b0316600160601b61337d565b6000600160ff1b82106132395760405162461bcd60e51b8152602060048201526011602482015270191a9b1031b0b9ba34b7339032b93937b960791b6044820152606401610e52565b5090565b6000836001600160a01b0316856001600160a01b0316111561325d579293925b6fffffffffffffffffffffffffffffffff60601b606084901b166001600160a01b03868603811690871661329057600080fd5b836132c657866001600160a01b03166132b38383896001600160a01b03166132fd565b816132c0576132c0613c9e565b046132f2565b6132f26132dd8383896001600160a01b031661337d565b886001600160a01b0316808204910615150190565b979650505050505050565b600080806000198587098587029250828110838203039150508060000361332b576000841161281957600080fd5b80841161285c57600080fd5b806001600160801b03811681146133785760405162461bcd60e51b81526020600482015260056024820152640858d85cdd60da1b6044820152606401610e52565b919050565b600061338a8484846132fd565b90506000828061339c5761339c613c9e565b84860911156128c35760001981106133b357600080fd5b6001019392505050565b604051806080016040528060008152602001600060020b815260200160006001600160801b0316815260200161340c604080516060810182526000808252602082018190529181019190915290565b905290565b60006060828403121561342357600080fd5b50919050565b60405160c0810167ffffffffffffffff8111828210171561345a57634e487b7160e01b600052604160045260246000fd5b60405290565b60405160e0810167ffffffffffffffff8111828210171561345a57634e487b7160e01b600052604160045260246000fd5b8060020b811461270a57600080fd5b6001600160801b038116811461270a57600080fd5b6000808284036101208112156134ca57600080fd5b6134d48585613411565b925060c0605f19820112156134e857600080fd5b506134f1613429565b60608401356134ff81613491565b8152608084013561350f816134a0565b602082015260a084810135604083015260c0850135606083015260e0850135608083015261010090940135938101939093525092909150565b60006020828403121561355a57600080fd5b5035919050565b80516001600160a01b0390811683526020808301519091169083015260409081015162ffffff16910152565b848152600284900b60208201526001600160801b038316604082015260c081016121df6060830184613561565b6001600160a01b038116811461270a57600080fd5b62ffffff8116811461270a57600080fd5b6000606082840312156135f257600080fd5b6040516060810181811067ffffffffffffffff8211171561362357634e487b7160e01b600052604160045260246000fd5b6040529050808235613634816135ba565b81526020830135613644816135ba565b60208201526040830135613657816135cf565b6040919091015292915050565b60006060828403121561367657600080fd5b612f8f83836135e0565b6000806040838503121561369357600080fd5b823561369e816135ba565b915060208301356136ae816135ba565b809150509250929050565b801515811461270a57600080fd5b600080600080600060e086880312156136df57600080fd5b85356136ea816136b9565b945060208601359350604086013592506060860135613708816135ba565b91506137178760808801613411565b90509295509295909350565b602080825282518282018190526000919060409081850190868401855b8281101561379a578151805160020b8552868101516001600160801b0316878601528581015186860152606080820151908601526080808201519086015260a0908101519085015260c09093019290850190600101613740565b5091979650505050505050565b60008060008060c085870312156137bd57600080fd5b6137c786866135e0565b935060608501356137d781613491565b939693955050505060808201359160a0013590565b600080600060a0848603121561380157600080fd5b61380b85856135e0565b9250606084013561381b81613491565b9150608084013561382b81613491565b809150509250925092565b634e487b7160e01b600052603260045260246000fd5b60608101612f928284613561565b805161ffff8116811461337857600080fd5b60008060008385036101c081121561388357600080fd5b845161388e816135ba565b602086015190945061389f81613491565b9250603f1901610180808212156138b557600080fd5b6138bd613460565b60c08312156138cb57600080fd5b6138d3613429565b925060408701518352606087015160208401526080870151604084015260a0870151606084015260c0870151608084015260e087015160a084015282815261010087015160208201526101208701516040820152610140870151606082015261393f610160880161385a565b60808201529086015160a08201526101a09095015160c08601525091949093509050565b60006020828403121561397557600080fd5b81516128c3816135ba565b634e487b7160e01b600052601160045260246000fd5b600281810b9083900b01627fffff8113627fffff1982121715612f9257612f92613980565b60c081016139c98287613561565b8460020b60608301528360020b60808301526001600160801b03831660a083015295945050505050565b60008060408385031215613a0657600080fd5b505080516020909101519092909150565b60a08101613a258286613561565b8360020b60608301528260020b6080830152949350505050565b60008060408385031215613a5257600080fd5b8251613a5d816134a0565b60208401519092506136ae816134a0565b80820180821115612f9257612f92613980565b8181036000831280158383131683831282161715613aa157613aa1613980565b5092915050565b600060208284031215613aba57600080fd5b81516128c3816136b9565b6001600160801b03828116828216039080821115613aa157613aa1613980565b81810381811115612f9257612f92613980565b600060018201613b0a57613b0a613980565b5060010190565b8035613b1c816135ba565b6001600160a01b039081168352602082013590613b38826135ba565b1660208301526040810135613b4c816135cf565b62ffffff81166040840152505050565b60608101612f928284613b11565b600060208284031215613b7c57600080fd5b81356128c3816135ba565b600060208284031215613b9957600080fd5b5051919050565b60e08101613bae8288613b11565b600295860b60608301529390940b60808501526001600160801b039190911660a08401526001600160a01b031660c090920191909152919050565b80546001600160a01b0319166001600160a01b0392909216919091179055565b8135613c14816135ba565b613c1e8183613be9565b50600181016020830135613c31816135ba565b613c3b8183613be9565b506040830135613c4a816135cf565b815462ffffff60a01b191660a09190911b62ffffff60a01b161790555050565b600060208284031215613c7c57600080fd5b81516128c381613491565b8082028115828204841417612f9257612f92613980565b634e487b7160e01b600052601260045260246000fd5b600082613cc357613cc3613c9e565b500490565b60008160020b8360020b80613cdf57613cdf613c9e565b627fffff19821460001982141615613cf957613cf9613980565b90059392505050565b60008260020b8260020b028060020b9150808214613aa157613aa1613980565b600282810b9082900b03627fffff198112627fffff82131715612f9257612f92613980565b600060208284031215613d5957600080fd5b81516128c3816134a0565b634e487b7160e01b600052603160045260246000fd5b6000815180845260005b81811015613da057602081850181015186830182015201613d84565b506000602082860101526020601f19601f83011685010191505092915050565b608081526000613dd36080830187613d7a565b6001600160a01b0395861660208401529390941660408201526060015292915050565b6001600160a01b03828116828216039080821115613aa157613aa1613980565b606081526000613e296060830186613d7a565b6020830194909452506040015291905056fea26469706673582212200fc95e305ba85b909d4caed9f2f4b45038113f7b0559f34c4a3a7b63c6617dbb64736f6c63430008150033",
    "linkReferences": {
      "src/PremiumComputer.sol": {
        "PremiumComputer": [
          {
            "start": 7303,
            "length": 20
          }
        ]
      }
    }
  },
  "methodIdentifiers": {
    "approvePoolManager()": "efc76e54",
    "exposureToPair(bytes32)": "fad56a41",
    "getHashedKey((address,address,uint24))": "48222442",
    "getInstantLiq(bool,uint256,uint256,uint160,(address,address,uint24))": "4ce33feb",
    "getMaxWithdrawable((address,address,uint24),int24,int24)": "8e68ad36",
    "id()": "af640d0f",
    "idToExposure(uint256)": "1de3be41",
    "initialize(address,address)": "485cc955",
    "instantLiqIds(uint256)": "6980cb87",
    "maxPerPairs(bytes32)": "76efa683",
    "maxPerPositions(bytes32)": "84560983",
    "maxTickDiff()": "76447937",
    "minTickDiffs(bytes32)": "862be5b6",
    "provideInstantLiquidity((address,address,uint24),(int24,uint128,uint256,uint256,uint256,uint256))": "0b8a4f47",
    "removeExposureById(uint256)": "bdefbdd8",
    "setPoolParams((address,address,uint24),int24,uint256,uint256)": "5dbdc1ab",
    "timeAgo()": "e317a1c7",
    "withdrawInstantLiquidities()": "00468c8e"
  },
  "id": 64
}